{
	"contracts/ERC721Contract.sol": {
		"tokenTest": {
			"abi": [
				{
					"anonymous": false,
					"inputs": [
						{
							"indexed": true,
							"internalType": "address",
							"name": "_owner",
							"type": "address"
						},
						{
							"indexed": true,
							"internalType": "address",
							"name": "_approved",
							"type": "address"
						},
						{
							"indexed": true,
							"internalType": "uint256",
							"name": "_tokenId",
							"type": "uint256"
						}
					],
					"name": "Approval",
					"type": "event"
				},
				{
					"anonymous": false,
					"inputs": [
						{
							"indexed": true,
							"internalType": "address",
							"name": "_owner",
							"type": "address"
						},
						{
							"indexed": true,
							"internalType": "address",
							"name": "_operator",
							"type": "address"
						},
						{
							"indexed": false,
							"internalType": "bool",
							"name": "_approved",
							"type": "bool"
						}
					],
					"name": "ApprovalForAll",
					"type": "event"
				},
				{
					"anonymous": false,
					"inputs": [
						{
							"indexed": true,
							"internalType": "address",
							"name": "_from",
							"type": "address"
						},
						{
							"indexed": true,
							"internalType": "address",
							"name": "_to",
							"type": "address"
						},
						{
							"indexed": true,
							"internalType": "uint256",
							"name": "_tokenId",
							"type": "uint256"
						}
					],
					"name": "Transfer",
					"type": "event"
				},
				{
					"inputs": [
						{
							"internalType": "address",
							"name": "_approveTo",
							"type": "address"
						},
						{
							"internalType": "uint256",
							"name": "_tokenId",
							"type": "uint256"
						}
					],
					"name": "approve",
					"outputs": [],
					"stateMutability": "payable",
					"type": "function"
				},
				{
					"inputs": [
						{
							"internalType": "address",
							"name": "_owner",
							"type": "address"
						}
					],
					"name": "balanceOf",
					"outputs": [
						{
							"internalType": "uint256",
							"name": "",
							"type": "uint256"
						}
					],
					"stateMutability": "view",
					"type": "function"
				},
				{
					"inputs": [
						{
							"internalType": "uint256",
							"name": "_tokenId",
							"type": "uint256"
						}
					],
					"name": "getApproved",
					"outputs": [
						{
							"internalType": "address",
							"name": "",
							"type": "address"
						}
					],
					"stateMutability": "view",
					"type": "function"
				},
				{
					"inputs": [],
					"name": "getTokenID",
					"outputs": [
						{
							"internalType": "uint256",
							"name": "",
							"type": "uint256"
						}
					],
					"stateMutability": "view",
					"type": "function"
				},
				{
					"inputs": [
						{
							"internalType": "address",
							"name": "owner",
							"type": "address"
						}
					],
					"name": "getURIList",
					"outputs": [
						{
							"internalType": "string[]",
							"name": "",
							"type": "string[]"
						}
					],
					"stateMutability": "view",
					"type": "function"
				},
				{
					"inputs": [
						{
							"internalType": "address",
							"name": "owner",
							"type": "address"
						}
					],
					"name": "getURIs",
					"outputs": [
						{
							"internalType": "string",
							"name": "",
							"type": "string"
						}
					],
					"stateMutability": "view",
					"type": "function"
				},
				{
					"inputs": [
						{
							"internalType": "address",
							"name": "_owner",
							"type": "address"
						},
						{
							"internalType": "address",
							"name": "_operator",
							"type": "address"
						}
					],
					"name": "isApprovedForAll",
					"outputs": [
						{
							"internalType": "bool",
							"name": "",
							"type": "bool"
						}
					],
					"stateMutability": "view",
					"type": "function"
				},
				{
					"inputs": [
						{
							"internalType": "address",
							"name": "to",
							"type": "address"
						},
						{
							"internalType": "string",
							"name": "tokenURI",
							"type": "string"
						}
					],
					"name": "mintToken",
					"outputs": [
						{
							"internalType": "uint256",
							"name": "tokenId",
							"type": "uint256"
						}
					],
					"stateMutability": "nonpayable",
					"type": "function"
				},
				{
					"inputs": [
						{
							"internalType": "uint256",
							"name": "_tokenId",
							"type": "uint256"
						}
					],
					"name": "ownerOf",
					"outputs": [
						{
							"internalType": "address",
							"name": "",
							"type": "address"
						}
					],
					"stateMutability": "view",
					"type": "function"
				},
				{
					"inputs": [
						{
							"internalType": "uint256",
							"name": "index",
							"type": "uint256"
						},
						{
							"internalType": "string[]",
							"name": "array",
							"type": "string[]"
						}
					],
					"name": "remove",
					"outputs": [],
					"stateMutability": "pure",
					"type": "function"
				},
				{
					"inputs": [
						{
							"internalType": "address",
							"name": "_from",
							"type": "address"
						},
						{
							"internalType": "address",
							"name": "_to",
							"type": "address"
						},
						{
							"internalType": "uint256",
							"name": "_tokenId",
							"type": "uint256"
						}
					],
					"name": "safeTransferFrom",
					"outputs": [],
					"stateMutability": "payable",
					"type": "function"
				},
				{
					"inputs": [
						{
							"internalType": "address",
							"name": "from",
							"type": "address"
						},
						{
							"internalType": "address",
							"name": "to",
							"type": "address"
						},
						{
							"internalType": "uint256",
							"name": "tokenId",
							"type": "uint256"
						},
						{
							"internalType": "bytes",
							"name": "_data",
							"type": "bytes"
						}
					],
					"name": "safeTransferFrom",
					"outputs": [],
					"stateMutability": "payable",
					"type": "function"
				},
				{
					"inputs": [
						{
							"internalType": "address",
							"name": "_operator",
							"type": "address"
						},
						{
							"internalType": "bool",
							"name": "_approved",
							"type": "bool"
						}
					],
					"name": "setApprovalForAll",
					"outputs": [],
					"stateMutability": "nonpayable",
					"type": "function"
				},
				{
					"inputs": [
						{
							"internalType": "bytes4",
							"name": "interfaceId",
							"type": "bytes4"
						}
					],
					"name": "supportsInterface",
					"outputs": [
						{
							"internalType": "bool",
							"name": "",
							"type": "bool"
						}
					],
					"stateMutability": "view",
					"type": "function"
				},
				{
					"inputs": [
						{
							"internalType": "address",
							"name": "_from",
							"type": "address"
						},
						{
							"internalType": "address",
							"name": "_to",
							"type": "address"
						},
						{
							"internalType": "uint256",
							"name": "_tokenId",
							"type": "uint256"
						}
					],
					"name": "transferFrom",
					"outputs": [],
					"stateMutability": "payable",
					"type": "function"
				}
			],
			"devdoc": {
				"kind": "dev",
				"methods": {
					"balanceOf(address)": {
						"details": "NFTs assigned to the zero address are considered invalid, and this  function throws for queries about the zero address.",
						"params": {
							"_owner": "An address for whom to query the balance"
						},
						"returns": {
							"_0": "The number of NFTs owned by `_owner`, possibly zero"
						}
					},
					"getApproved(uint256)": {
						"details": "Throws if `_tokenId` is not a valid NFT.",
						"params": {
							"_tokenId": "The NFT to find the approved address for"
						},
						"returns": {
							"_0": "The approved address for this NFT, or the zero address if there is none"
						}
					},
					"isApprovedForAll(address,address)": {
						"params": {
							"_operator": "The address that acts on behalf of the owner",
							"_owner": "The address that owns the NFTs"
						},
						"returns": {
							"_0": "True if `_operator` is an approved operator for `_owner`, false otherwise"
						}
					},
					"ownerOf(uint256)": {
						"details": "NFTs assigned to zero address are considered invalid, and queries  about them do throw.",
						"params": {
							"_tokenId": "The identifier for an NFT"
						},
						"returns": {
							"_0": "The address of the owner of the NFT"
						}
					},
					"safeTransferFrom(address,address,uint256)": {
						"details": "This works identically to the other function with an extra data parameter,  except this function just sets data to \"\".",
						"params": {
							"_from": "The current owner of the NFT",
							"_to": "The new owner",
							"_tokenId": "The NFT to transfer"
						}
					},
					"setApprovalForAll(address,bool)": {
						"details": "Emits the ApprovalForAll event. The contract MUST allow  multiple operators per owner.",
						"params": {
							"_approved": "True if the operator is approved, false to revoke approval",
							"_operator": "Address to add to the set of authorized operators"
						}
					},
					"transferFrom(address,address,uint256)": {
						"details": "Throws unless `msg.sender` is the current owner, an authorized  operator, or the approved address for this NFT. Throws if `_from` is  not the current owner. Throws if `_to` is the zero address. Throws if  `_tokenId` is not a valid NFT.",
						"params": {
							"_from": "The current owner of the NFT",
							"_to": "The new owner",
							"_tokenId": "The NFT to transfer"
						}
					}
				},
				"version": 1
			},
			"evm": {
				"assembly": "    /* \"contracts/ERC721Contract.sol\":87:5598  contract tokenTest is tokenData, ERC721, ERC165 {\r... */\n  mstore(0x40, 0x80)\n  callvalue\n  dup1\n  iszero\n  tag_1\n  jumpi\n  0x00\n  dup1\n  revert\ntag_1:\n  pop\n  dataSize(sub_0)\n  dup1\n  dataOffset(sub_0)\n  0x00\n  codecopy\n  0x00\n  return\nstop\n\nsub_0: assembly {\n        /* \"contracts/ERC721Contract.sol\":87:5598  contract tokenTest is tokenData, ERC721, ERC165 {\r... */\n      mstore(0x40, 0x80)\n      jumpi(tag_1, lt(calldatasize, 0x04))\n      shr(0xe0, calldataload(0x00))\n      dup1\n      0x6352211e\n      gt\n      tag_17\n      jumpi\n      dup1\n      0x7fcb2989\n      gt\n      tag_18\n      jumpi\n      dup1\n      0x7fcb2989\n      eq\n      tag_13\n      jumpi\n      dup1\n      0xa22cb465\n      eq\n      tag_14\n      jumpi\n      dup1\n      0xb88d4fde\n      eq\n      tag_15\n      jumpi\n      dup1\n      0xe985e9c5\n      eq\n      tag_16\n      jumpi\n      jump(tag_1)\n    tag_18:\n      dup1\n      0x6352211e\n      eq\n      tag_9\n      jumpi\n      dup1\n      0x6ba367a3\n      eq\n      tag_10\n      jumpi\n      dup1\n      0x70a08231\n      eq\n      tag_11\n      jumpi\n      dup1\n      0x7360cbba\n      eq\n      tag_12\n      jumpi\n      jump(tag_1)\n    tag_17:\n      dup1\n      0x23b872dd\n      gt\n      tag_19\n      jumpi\n      dup1\n      0x23b872dd\n      eq\n      tag_5\n      jumpi\n      dup1\n      0x3d02d0c9\n      eq\n      tag_6\n      jumpi\n      dup1\n      0x42842e0e\n      eq\n      tag_7\n      jumpi\n      dup1\n      0x4802693d\n      eq\n      tag_8\n      jumpi\n      jump(tag_1)\n    tag_19:\n      dup1\n      0x01ffc9a7\n      eq\n      tag_2\n      jumpi\n      dup1\n      0x081812fc\n      eq\n      tag_3\n      jumpi\n      dup1\n      0x095ea7b3\n      eq\n      tag_4\n      jumpi\n    tag_1:\n      0x00\n      dup1\n      revert\n        /* \"contracts/ERC721Contract.sol\":4342:4506  function supportsInterface(bytes4 interfaceId) public view virtual override(ERC165) returns (bool) {\r... */\n    tag_2:\n      callvalue\n      dup1\n      iszero\n      tag_20\n      jumpi\n      0x00\n      dup1\n      revert\n    tag_20:\n      pop\n      tag_21\n      0x04\n      dup1\n      calldatasize\n      sub\n      dup2\n      add\n      swap1\n      tag_22\n      swap2\n      swap1\n      tag_23\n      jump\t// in\n    tag_22:\n      tag_24\n      jump\t// in\n    tag_21:\n      mload(0x40)\n      tag_25\n      swap2\n      swap1\n      tag_26\n      jump\t// in\n    tag_25:\n      mload(0x40)\n      dup1\n      swap2\n      sub\n      swap1\n      return\n        /* \"contracts/ERC721Contract.sol\":3308:3444  function getApproved(uint256 _tokenId) public view virtual override returns (address) {\r... */\n    tag_3:\n      callvalue\n      dup1\n      iszero\n      tag_27\n      jumpi\n      0x00\n      dup1\n      revert\n    tag_27:\n      pop\n      tag_28\n      0x04\n      dup1\n      calldatasize\n      sub\n      dup2\n      add\n      swap1\n      tag_29\n      swap2\n      swap1\n      tag_30\n      jump\t// in\n    tag_29:\n      tag_31\n      jump\t// in\n    tag_28:\n      mload(0x40)\n      tag_32\n      swap2\n      swap1\n      tag_33\n      jump\t// in\n    tag_32:\n      mload(0x40)\n      dup1\n      swap2\n      sub\n      swap1\n      return\n        /* \"contracts/ERC721Contract.sol\":2888:3300  function approve(address _approveTo, uint256 _tokenId) public virtual payable override {\r... */\n    tag_4:\n      tag_34\n      0x04\n      dup1\n      calldatasize\n      sub\n      dup2\n      add\n      swap1\n      tag_35\n      swap2\n      swap1\n      tag_36\n      jump\t// in\n    tag_35:\n      tag_37\n      jump\t// in\n    tag_34:\n      stop\n        /* \"contracts/ERC721Contract.sol\":1006:1148  function transferFrom(address _from, address _to, uint _tokenId) public virtual payable override{\r... */\n    tag_5:\n      tag_38\n      0x04\n      dup1\n      calldatasize\n      sub\n      dup2\n      add\n      swap1\n      tag_39\n      swap2\n      swap1\n      tag_40\n      jump\t// in\n    tag_39:\n      tag_41\n      jump\t// in\n    tag_38:\n      stop\n        /* \"contracts/ERC721Contract.sol\":4517:5010  function mintToken(address to, string memory tokenURI) external returns (uint tokenId) {\r... */\n    tag_6:\n      callvalue\n      dup1\n      iszero\n      tag_42\n      jumpi\n      0x00\n      dup1\n      revert\n    tag_42:\n      pop\n      tag_43\n      0x04\n      dup1\n      calldatasize\n      sub\n      dup2\n      add\n      swap1\n      tag_44\n      swap2\n      swap1\n      tag_45\n      jump\t// in\n    tag_44:\n      tag_46\n      jump\t// in\n    tag_43:\n      mload(0x40)\n      tag_47\n      swap2\n      swap1\n      tag_48\n      jump\t// in\n    tag_47:\n      mload(0x40)\n      dup1\n      swap2\n      sub\n      swap1\n      return\n        /* \"contracts/ERC721Contract.sol\":534:699  function safeTransferFrom(address _from, address _to, uint256 _tokenId) public virtual payable override {\r... */\n    tag_7:\n      tag_49\n      0x04\n      dup1\n      calldatasize\n      sub\n      dup2\n      add\n      swap1\n      tag_50\n      swap2\n      swap1\n      tag_40\n      jump\t// in\n    tag_50:\n      tag_51\n      jump\t// in\n    tag_49:\n      stop\n        /* \"contracts/ERC721Contract.sol\":5019:5364  function getURIs(address owner) public view returns(string memory){\r... */\n    tag_8:\n      callvalue\n      dup1\n      iszero\n      tag_52\n      jumpi\n      0x00\n      dup1\n      revert\n    tag_52:\n      pop\n      tag_53\n      0x04\n      dup1\n      calldatasize\n      sub\n      dup2\n      add\n      swap1\n      tag_54\n      swap2\n      swap1\n      tag_55\n      jump\t// in\n    tag_54:\n      tag_56\n      jump\t// in\n    tag_53:\n      mload(0x40)\n      tag_57\n      swap2\n      swap1\n      tag_58\n      jump\t// in\n    tag_57:\n      mload(0x40)\n      dup1\n      swap2\n      sub\n      swap1\n      return\n        /* \"contracts/ERC721Contract.sol\":285:526  function ownerOf(uint256 _tokenId) public view virtual override returns (address){\r... */\n    tag_9:\n      callvalue\n      dup1\n      iszero\n      tag_59\n      jumpi\n      0x00\n      dup1\n      revert\n    tag_59:\n      pop\n      tag_60\n      0x04\n      dup1\n      calldatasize\n      sub\n      dup2\n      add\n      swap1\n      tag_61\n      swap2\n      swap1\n      tag_30\n      jump\t// in\n    tag_61:\n      tag_62\n      jump\t// in\n    tag_60:\n      mload(0x40)\n      tag_63\n      swap2\n      swap1\n      tag_33\n      jump\t// in\n    tag_63:\n      mload(0x40)\n      dup1\n      swap2\n      sub\n      swap1\n      return\n        /* \"contracts/ERC721Contract.sol\":5500:5593  function getTokenID() public view returns (uint256){\r... */\n    tag_10:\n      callvalue\n      dup1\n      iszero\n      tag_64\n      jumpi\n      0x00\n      dup1\n      revert\n    tag_64:\n      pop\n      tag_65\n      tag_66\n      jump\t// in\n    tag_65:\n      mload(0x40)\n      tag_67\n      swap2\n      swap1\n      tag_48\n      jump\t// in\n    tag_67:\n      mload(0x40)\n      dup1\n      swap2\n      sub\n      swap1\n      return\n        /* \"contracts/ERC721Contract.sol\":150:277  function balanceOf(address _owner) public view virtual override returns (uint256){\r... */\n    tag_11:\n      callvalue\n      dup1\n      iszero\n      tag_68\n      jumpi\n      0x00\n      dup1\n      revert\n    tag_68:\n      pop\n      tag_69\n      0x04\n      dup1\n      calldatasize\n      sub\n      dup2\n      add\n      swap1\n      tag_70\n      swap2\n      swap1\n      tag_55\n      jump\t// in\n    tag_70:\n      tag_71\n      jump\t// in\n    tag_69:\n      mload(0x40)\n      tag_72\n      swap2\n      swap1\n      tag_48\n      jump\t// in\n    tag_72:\n      mload(0x40)\n      dup1\n      swap2\n      sub\n      swap1\n      return\n        /* \"contracts/ERC721Contract.sol\":1762:2039  function remove(uint index, string[] memory array )  public pure  {\r... */\n    tag_12:\n      callvalue\n      dup1\n      iszero\n      tag_73\n      jumpi\n      0x00\n      dup1\n      revert\n    tag_73:\n      pop\n      tag_74\n      0x04\n      dup1\n      calldatasize\n      sub\n      dup2\n      add\n      swap1\n      tag_75\n      swap2\n      swap1\n      tag_76\n      jump\t// in\n    tag_75:\n      tag_77\n      jump\t// in\n    tag_74:\n      stop\n        /* \"contracts/ERC721Contract.sol\":5372:5492  function getURIList(address owner) public view returns(string[] memory){\r... */\n    tag_13:\n      callvalue\n      dup1\n      iszero\n      tag_78\n      jumpi\n      0x00\n      dup1\n      revert\n    tag_78:\n      pop\n      tag_79\n      0x04\n      dup1\n      calldatasize\n      sub\n      dup2\n      add\n      swap1\n      tag_80\n      swap2\n      swap1\n      tag_55\n      jump\t// in\n    tag_80:\n      tag_81\n      jump\t// in\n    tag_79:\n      mload(0x40)\n      tag_82\n      swap2\n      swap1\n      tag_83\n      jump\t// in\n    tag_82:\n      mload(0x40)\n      dup1\n      swap2\n      sub\n      swap1\n      return\n        /* \"contracts/ERC721Contract.sol\":3452:3745  function setApprovalForAll(address _operator, bool _approved) public virtual override {\r... */\n    tag_14:\n      callvalue\n      dup1\n      iszero\n      tag_84\n      jumpi\n      0x00\n      dup1\n      revert\n    tag_84:\n      pop\n      tag_85\n      0x04\n      dup1\n      calldatasize\n      sub\n      dup2\n      add\n      swap1\n      tag_86\n      swap2\n      swap1\n      tag_87\n      jump\t// in\n    tag_86:\n      tag_88\n      jump\t// in\n    tag_85:\n      stop\n        /* \"contracts/ERC721Contract.sol\":707:998  function safeTransferFrom(address from, address to, uint256 tokenId, bytes memory _data) public virtual payable override {\r... */\n    tag_15:\n      tag_89\n      0x04\n      dup1\n      calldatasize\n      sub\n      dup2\n      add\n      swap1\n      tag_90\n      swap2\n      swap1\n      tag_91\n      jump\t// in\n    tag_90:\n      tag_92\n      jump\t// in\n    tag_89:\n      stop\n        /* \"contracts/ERC721Contract.sol\":3753:3919  function isApprovedForAll(address _owner, address _operator) public view virtual override returns (bool){\r... */\n    tag_16:\n      callvalue\n      dup1\n      iszero\n      tag_93\n      jumpi\n      0x00\n      dup1\n      revert\n    tag_93:\n      pop\n      tag_94\n      0x04\n      dup1\n      calldatasize\n      sub\n      dup2\n      add\n      swap1\n      tag_95\n      swap2\n      swap1\n      tag_96\n      jump\t// in\n    tag_95:\n      tag_97\n      jump\t// in\n    tag_94:\n      mload(0x40)\n      tag_98\n      swap2\n      swap1\n      tag_26\n      jump\t// in\n    tag_98:\n      mload(0x40)\n      dup1\n      swap2\n      sub\n      swap1\n      return\n        /* \"contracts/ERC721Contract.sol\":4342:4506  function supportsInterface(bytes4 interfaceId) public view virtual override(ERC165) returns (bool) {\r... */\n    tag_24:\n        /* \"contracts/ERC721Contract.sol\":4435:4439  bool */\n      0x00\n        /* \"contracts/ERC721Contract.sol\":4474:4498  type(ERC721).interfaceId */\n      0x80ac58cd00000000000000000000000000000000000000000000000000000000\n        /* \"contracts/ERC721Contract.sol\":4459:4498  interfaceId == type(ERC721).interfaceId */\n      not(0xffffffffffffffffffffffffffffffffffffffffffffffffffffffff)\n      and\n        /* \"contracts/ERC721Contract.sol\":4459:4470  interfaceId */\n      dup3\n        /* \"contracts/ERC721Contract.sol\":4459:4498  interfaceId == type(ERC721).interfaceId */\n      not(0xffffffffffffffffffffffffffffffffffffffffffffffffffffffff)\n      and\n      eq\n        /* \"contracts/ERC721Contract.sol\":4452:4498  return interfaceId == type(ERC721).interfaceId */\n      swap1\n      pop\n        /* \"contracts/ERC721Contract.sol\":4342:4506  function supportsInterface(bytes4 interfaceId) public view virtual override(ERC165) returns (bool) {\r... */\n      swap2\n      swap1\n      pop\n      jump\t// out\n        /* \"contracts/ERC721Contract.sol\":3308:3444  function getApproved(uint256 _tokenId) public view virtual override returns (address) {\r... */\n    tag_31:\n        /* \"contracts/ERC721Contract.sol\":3385:3392  address */\n      0x00\n        /* \"contracts/ERC721Contract.sol\":3412:3426  tokenApprovals */\n      0x05\n        /* \"contracts/ERC721Contract.sol\":3412:3436  tokenApprovals[_tokenId] */\n      0x00\n        /* \"contracts/ERC721Contract.sol\":3427:3435  _tokenId */\n      dup4\n        /* \"contracts/ERC721Contract.sol\":3412:3436  tokenApprovals[_tokenId] */\n      dup2\n      mstore\n      0x20\n      add\n      swap1\n      dup2\n      mstore\n      0x20\n      add\n      0x00\n      keccak256\n      0x00\n      swap1\n      sload\n      swap1\n      0x0100\n      exp\n      swap1\n      div\n      0xffffffffffffffffffffffffffffffffffffffff\n      and\n        /* \"contracts/ERC721Contract.sol\":3405:3436  return tokenApprovals[_tokenId] */\n      swap1\n      pop\n        /* \"contracts/ERC721Contract.sol\":3308:3444  function getApproved(uint256 _tokenId) public view virtual override returns (address) {\r... */\n      swap2\n      swap1\n      pop\n      jump\t// out\n        /* \"contracts/ERC721Contract.sol\":2888:3300  function approve(address _approveTo, uint256 _tokenId) public virtual payable override {\r... */\n    tag_37:\n        /* \"contracts/ERC721Contract.sol\":3008:3025  ownerOf(_tokenId) */\n      tag_102\n        /* \"contracts/ERC721Contract.sol\":3016:3024  _tokenId */\n      dup2\n        /* \"contracts/ERC721Contract.sol\":3008:3015  ownerOf */\n      tag_62\n        /* \"contracts/ERC721Contract.sol\":3008:3025  ownerOf(_tokenId) */\n      jump\t// in\n    tag_102:\n        /* \"contracts/ERC721Contract.sol\":2994:3025  _approveTo != ownerOf(_tokenId) */\n      0xffffffffffffffffffffffffffffffffffffffff\n      and\n        /* \"contracts/ERC721Contract.sol\":2994:3004  _approveTo */\n      dup3\n        /* \"contracts/ERC721Contract.sol\":2994:3025  _approveTo != ownerOf(_tokenId) */\n      0xffffffffffffffffffffffffffffffffffffffff\n      and\n      eq\n      iszero\n        /* \"contracts/ERC721Contract.sol\":2986:3064  require(_approveTo != ownerOf(_tokenId) , \"ERC721: approval to current owner\") */\n      tag_103\n      jumpi\n      mload(0x40)\n      0x08c379a000000000000000000000000000000000000000000000000000000000\n      dup2\n      mstore\n      0x04\n      add\n      tag_104\n      swap1\n      tag_105\n      jump\t// in\n    tag_104:\n      mload(0x40)\n      dup1\n      swap2\n      sub\n      swap1\n      revert\n    tag_103:\n        /* \"contracts/ERC721Contract.sol\":3099:3116  ownerOf(_tokenId) */\n      tag_106\n        /* \"contracts/ERC721Contract.sol\":3107:3115  _tokenId */\n      dup2\n        /* \"contracts/ERC721Contract.sol\":3099:3106  ownerOf */\n      tag_62\n        /* \"contracts/ERC721Contract.sol\":3099:3116  ownerOf(_tokenId) */\n      jump\t// in\n    tag_106:\n        /* \"contracts/ERC721Contract.sol\":3085:3116  msg.sender == ownerOf(_tokenId) */\n      0xffffffffffffffffffffffffffffffffffffffff\n      and\n        /* \"contracts/ERC721Contract.sol\":3085:3095  msg.sender */\n      caller\n        /* \"contracts/ERC721Contract.sol\":3085:3116  msg.sender == ownerOf(_tokenId) */\n      0xffffffffffffffffffffffffffffffffffffffff\n      and\n      eq\n        /* \"contracts/ERC721Contract.sol\":3085:3167  msg.sender == ownerOf(_tokenId) || isApprovedForAll(ownerOf(_tokenId), msg.sender) */\n      dup1\n      tag_107\n      jumpi\n      pop\n        /* \"contracts/ERC721Contract.sol\":3120:3167  isApprovedForAll(ownerOf(_tokenId), msg.sender) */\n      tag_108\n        /* \"contracts/ERC721Contract.sol\":3137:3154  ownerOf(_tokenId) */\n      tag_109\n        /* \"contracts/ERC721Contract.sol\":3145:3153  _tokenId */\n      dup3\n        /* \"contracts/ERC721Contract.sol\":3137:3144  ownerOf */\n      tag_62\n        /* \"contracts/ERC721Contract.sol\":3137:3154  ownerOf(_tokenId) */\n      jump\t// in\n    tag_109:\n        /* \"contracts/ERC721Contract.sol\":3156:3166  msg.sender */\n      caller\n        /* \"contracts/ERC721Contract.sol\":3120:3136  isApprovedForAll */\n      tag_97\n        /* \"contracts/ERC721Contract.sol\":3120:3167  isApprovedForAll(ownerOf(_tokenId), msg.sender) */\n      jump\t// in\n    tag_108:\n        /* \"contracts/ERC721Contract.sol\":3085:3167  msg.sender == ownerOf(_tokenId) || isApprovedForAll(ownerOf(_tokenId), msg.sender) */\n    tag_107:\n        /* \"contracts/ERC721Contract.sol\":3077:3251  require(msg.sender == ownerOf(_tokenId) || isApprovedForAll(ownerOf(_tokenId), msg.sender),\r... */\n      tag_110\n      jumpi\n      mload(0x40)\n      0x08c379a000000000000000000000000000000000000000000000000000000000\n      dup2\n      mstore\n      0x04\n      add\n      tag_111\n      swap1\n      tag_112\n      jump\t// in\n    tag_111:\n      mload(0x40)\n      dup1\n      swap2\n      sub\n      swap1\n      revert\n    tag_110:\n        /* \"contracts/ERC721Contract.sol\":3262:3292  _approve(_approveTo, _tokenId) */\n      tag_113\n        /* \"contracts/ERC721Contract.sol\":3271:3281  _approveTo */\n      dup3\n        /* \"contracts/ERC721Contract.sol\":3283:3291  _tokenId */\n      dup3\n        /* \"contracts/ERC721Contract.sol\":3262:3270  _approve */\n      tag_114\n        /* \"contracts/ERC721Contract.sol\":3262:3292  _approve(_approveTo, _tokenId) */\n      jump\t// in\n    tag_113:\n        /* \"contracts/ERC721Contract.sol\":2888:3300  function approve(address _approveTo, uint256 _tokenId) public virtual payable override {\r... */\n      pop\n      pop\n      jump\t// out\n        /* \"contracts/ERC721Contract.sol\":1006:1148  function transferFrom(address _from, address _to, uint _tokenId) public virtual payable override{\r... */\n    tag_41:\n        /* \"contracts/ERC721Contract.sol\":1107:1143  safeTransferFrom(_from,_to,_tokenId) */\n      tag_116\n        /* \"contracts/ERC721Contract.sol\":1124:1129  _from */\n      dup4\n        /* \"contracts/ERC721Contract.sol\":1130:1133  _to */\n      dup4\n        /* \"contracts/ERC721Contract.sol\":1134:1142  _tokenId */\n      dup4\n        /* \"contracts/ERC721Contract.sol\":1107:1123  safeTransferFrom */\n      tag_51\n        /* \"contracts/ERC721Contract.sol\":1107:1143  safeTransferFrom(_from,_to,_tokenId) */\n      jump\t// in\n    tag_116:\n        /* \"contracts/ERC721Contract.sol\":1006:1148  function transferFrom(address _from, address _to, uint _tokenId) public virtual payable override{\r... */\n      pop\n      pop\n      pop\n      jump\t// out\n        /* \"contracts/ERC721Contract.sol\":4517:5010  function mintToken(address to, string memory tokenURI) external returns (uint tokenId) {\r... */\n    tag_46:\n        /* \"contracts/ERC721Contract.sol\":4590:4602  uint tokenId */\n      0x00\n        /* \"contracts/ERC721Contract.sol\":4609:4627  Token memory token */\n      dup1\n        /* \"contracts/ERC721Contract.sol\":4630:4710  Token({\r... */\n      mload(0x40)\n      dup1\n      0x40\n      add\n      0x40\n      mstore\n      dup1\n        /* \"contracts/ERC721Contract.sol\":4652:4662  msg.sender */\n      caller\n        /* \"contracts/ERC721Contract.sol\":4630:4710  Token({\r... */\n      0xffffffffffffffffffffffffffffffffffffffff\n      and\n      dup2\n      mstore\n      0x20\n      add\n        /* \"contracts/ERC721Contract.sol\":4685:4700  block.timestamp */\n      timestamp\n        /* \"contracts/ERC721Contract.sol\":4630:4710  Token({\r... */\n      0xffffffffffffffff\n      and\n      dup2\n      mstore\n      pop\n        /* \"contracts/ERC721Contract.sol\":4609:4710  Token memory token = Token({\r... */\n      swap1\n      pop\n        /* \"contracts/ERC721Contract.sol\":4743:4744  0 */\n      0x00\n        /* \"contracts/ERC721Contract.sol\":4729:4745  to != address(0) */\n      0xffffffffffffffffffffffffffffffffffffffff\n      and\n        /* \"contracts/ERC721Contract.sol\":4729:4731  to */\n      dup5\n        /* \"contracts/ERC721Contract.sol\":4729:4745  to != address(0) */\n      0xffffffffffffffffffffffffffffffffffffffff\n      and\n      eq\n      iszero\n        /* \"contracts/ERC721Contract.sol\":4721:4746  require(to != address(0)) */\n      tag_118\n      jumpi\n      0x00\n      dup1\n      revert\n    tag_118:\n        /* \"contracts/ERC721Contract.sol\":4751:4760  tokenList */\n      0x00\n        /* \"contracts/ERC721Contract.sol\":4766:4771  token */\n      dup2\n        /* \"contracts/ERC721Contract.sol\":4751:4772  tokenList.push(token) */\n      swap1\n      dup1\n      0x01\n      dup2\n      sload\n      add\n      dup1\n      dup3\n      sstore\n      dup1\n      swap2\n      pop\n      pop\n      0x01\n      swap1\n      sub\n      swap1\n      0x00\n      mstore\n      keccak256(0x00, 0x20)\n      add\n      0x00\n      swap1\n      swap2\n      swap1\n      swap2\n      swap1\n      swap2\n      pop\n      0x00\n      dup3\n      add\n      mload\n      dup2\n      0x00\n      add\n      exp(0x0100, 0x00)\n      dup2\n      sload\n      dup2\n      0xffffffffffffffffffffffffffffffffffffffff\n      mul\n      not\n      and\n      swap1\n      dup4\n      0xffffffffffffffffffffffffffffffffffffffff\n      and\n      mul\n      or\n      swap1\n      sstore\n      pop\n      0x20\n      dup3\n      add\n      mload\n      dup2\n      0x00\n      add\n      exp(0x0100, 0x14)\n      dup2\n      sload\n      dup2\n      0xffffffffffffffff\n      mul\n      not\n      and\n      swap1\n      dup4\n      0xffffffffffffffff\n      and\n      mul\n      or\n      swap1\n      sstore\n      pop\n      pop\n      pop\n        /* \"contracts/ERC721Contract.sol\":4787:4796  tokenList */\n      0x00\n        /* \"contracts/ERC721Contract.sol\":4787:4803  tokenList.length */\n      dup1\n      sload\n      swap1\n      pop\n        /* \"contracts/ERC721Contract.sol\":4777:4803  tokenId = tokenList.length */\n      swap2\n      pop\n        /* \"contracts/ERC721Contract.sol\":4833:4841  tokenURI */\n      dup3\n        /* \"contracts/ERC721Contract.sol\":4814:4823  tokenURIs */\n      0x02\n        /* \"contracts/ERC721Contract.sol\":4814:4832  tokenURIs[tokenId] */\n      0x00\n        /* \"contracts/ERC721Contract.sol\":4824:4831  tokenId */\n      dup5\n        /* \"contracts/ERC721Contract.sol\":4814:4832  tokenURIs[tokenId] */\n      dup2\n      mstore\n      0x20\n      add\n      swap1\n      dup2\n      mstore\n      0x20\n      add\n      0x00\n      keccak256\n        /* \"contracts/ERC721Contract.sol\":4814:4841  tokenURIs[tokenId]=tokenURI */\n      swap1\n      dup1\n      mload\n      swap1\n      0x20\n      add\n      swap1\n      tag_120\n      swap3\n      swap2\n      swap1\n      tag_121\n      jump\t// in\n    tag_120:\n      pop\n        /* \"contracts/ERC721Contract.sol\":4852:4867  tokenCollection */\n      0x01\n        /* \"contracts/ERC721Contract.sol\":4852:4871  tokenCollection[to] */\n      0x00\n        /* \"contracts/ERC721Contract.sol\":4868:4870  to */\n      dup6\n        /* \"contracts/ERC721Contract.sol\":4852:4871  tokenCollection[to] */\n      0xffffffffffffffffffffffffffffffffffffffff\n      and\n      0xffffffffffffffffffffffffffffffffffffffff\n      and\n      dup2\n      mstore\n      0x20\n      add\n      swap1\n      dup2\n      mstore\n      0x20\n      add\n      0x00\n      keccak256\n        /* \"contracts/ERC721Contract.sol\":4877:4885  tokenURI */\n      dup4\n        /* \"contracts/ERC721Contract.sol\":4852:4886  tokenCollection[to].push(tokenURI) */\n      swap1\n      dup1\n      0x01\n      dup2\n      sload\n      add\n      dup1\n      dup3\n      sstore\n      dup1\n      swap2\n      pop\n      pop\n      0x01\n      swap1\n      sub\n      swap1\n      0x00\n      mstore\n      keccak256(0x00, 0x20)\n      add\n      0x00\n      swap1\n      swap2\n      swap1\n      swap2\n      swap1\n      swap2\n      pop\n      swap1\n      dup1\n      mload\n      swap1\n      0x20\n      add\n      swap1\n      tag_123\n      swap3\n      swap2\n      swap1\n      tag_121\n      jump\t// in\n    tag_123:\n      pop\n        /* \"contracts/ERC721Contract.sol\":4917:4918  1 */\n      0x01\n        /* \"contracts/ERC721Contract.sol\":4897:4909  tokenBalance */\n      0x04\n        /* \"contracts/ERC721Contract.sol\":4897:4913  tokenBalance[to] */\n      0x00\n        /* \"contracts/ERC721Contract.sol\":4910:4912  to */\n      dup7\n        /* \"contracts/ERC721Contract.sol\":4897:4913  tokenBalance[to] */\n      0xffffffffffffffffffffffffffffffffffffffff\n      and\n      0xffffffffffffffffffffffffffffffffffffffff\n      and\n      dup2\n      mstore\n      0x20\n      add\n      swap1\n      dup2\n      mstore\n      0x20\n      add\n      0x00\n      keccak256\n      0x00\n        /* \"contracts/ERC721Contract.sol\":4897:4918  tokenBalance[to] += 1 */\n      dup3\n      dup3\n      dup3\n      swap1\n      sload\n      swap1\n      0x0100\n      exp\n      swap1\n      div\n      0xffffffffffffffff\n      and\n      tag_124\n      swap2\n      swap1\n      tag_125\n      jump\t// in\n    tag_124:\n      swap3\n      pop\n      0x0100\n      exp\n      dup2\n      sload\n      dup2\n      0xffffffffffffffff\n      mul\n      not\n      and\n      swap1\n      dup4\n      0xffffffffffffffff\n      and\n      mul\n      or\n      swap1\n      sstore\n      pop\n        /* \"contracts/ERC721Contract.sol\":4951:4953  to */\n      dup4\n        /* \"contracts/ERC721Contract.sol\":4929:4939  tokenOwner */\n      0x03\n        /* \"contracts/ERC721Contract.sol\":4929:4948  tokenOwner[tokenId] */\n      0x00\n        /* \"contracts/ERC721Contract.sol\":4940:4947  tokenId */\n      dup5\n        /* \"contracts/ERC721Contract.sol\":4929:4948  tokenOwner[tokenId] */\n      dup2\n      mstore\n      0x20\n      add\n      swap1\n      dup2\n      mstore\n      0x20\n      add\n      0x00\n      keccak256\n      0x00\n        /* \"contracts/ERC721Contract.sol\":4929:4953  tokenOwner[tokenId] = to */\n      0x0100\n      exp\n      dup2\n      sload\n      dup2\n      0xffffffffffffffffffffffffffffffffffffffff\n      mul\n      not\n      and\n      swap1\n      dup4\n      0xffffffffffffffffffffffffffffffffffffffff\n      and\n      mul\n      or\n      swap1\n      sstore\n      pop\n        /* \"contracts/ERC721Contract.sol\":4994:5001  tokenId */\n      dup2\n        /* \"contracts/ERC721Contract.sol\":4990:4992  to */\n      dup5\n        /* \"contracts/ERC721Contract.sol\":4969:5002  Transfer(address(0), to, tokenId) */\n      0xffffffffffffffffffffffffffffffffffffffff\n      and\n        /* \"contracts/ERC721Contract.sol\":4986:4987  0 */\n      0x00\n        /* \"contracts/ERC721Contract.sol\":4969:5002  Transfer(address(0), to, tokenId) */\n      0xffffffffffffffffffffffffffffffffffffffff\n      and\n      0xddf252ad1be2c89b69c2b068fc378daa952ba7f163c4a11628f55a4df523b3ef\n      mload(0x40)\n      mload(0x40)\n      dup1\n      swap2\n      sub\n      swap1\n      log4\n        /* \"contracts/ERC721Contract.sol\":4604:5010  {\r... */\n      pop\n        /* \"contracts/ERC721Contract.sol\":4517:5010  function mintToken(address to, string memory tokenURI) external returns (uint tokenId) {\r... */\n      swap3\n      swap2\n      pop\n      pop\n      jump\t// out\n        /* \"contracts/ERC721Contract.sol\":534:699  function safeTransferFrom(address _from, address _to, uint256 _tokenId) public virtual payable override {\r... */\n    tag_51:\n        /* \"contracts/ERC721Contract.sol\":649:691  safeTransferFrom(_from, _to, _tokenId, \"\") */\n      tag_127\n        /* \"contracts/ERC721Contract.sol\":666:671  _from */\n      dup4\n        /* \"contracts/ERC721Contract.sol\":673:676  _to */\n      dup4\n        /* \"contracts/ERC721Contract.sol\":678:686  _tokenId */\n      dup4\n        /* \"contracts/ERC721Contract.sol\":649:691  safeTransferFrom(_from, _to, _tokenId, \"\") */\n      mload(0x40)\n      dup1\n      0x20\n      add\n      0x40\n      mstore\n      dup1\n      0x00\n      dup2\n      mstore\n      pop\n        /* \"contracts/ERC721Contract.sol\":649:665  safeTransferFrom */\n      tag_92\n        /* \"contracts/ERC721Contract.sol\":649:691  safeTransferFrom(_from, _to, _tokenId, \"\") */\n      jump\t// in\n    tag_127:\n        /* \"contracts/ERC721Contract.sol\":534:699  function safeTransferFrom(address _from, address _to, uint256 _tokenId) public virtual payable override {\r... */\n      pop\n      pop\n      pop\n      jump\t// out\n        /* \"contracts/ERC721Contract.sol\":5019:5364  function getURIs(address owner) public view returns(string memory){\r... */\n    tag_56:\n        /* \"contracts/ERC721Contract.sol\":5071:5084  string memory */\n      0x60\n        /* \"contracts/ERC721Contract.sol\":5096:5113  string memory uri */\n      0x00\n        /* \"contracts/ERC721Contract.sol\":5096:5116  string memory uri=\"\" */\n      mload(0x40)\n      dup1\n      0x20\n      add\n      0x40\n      mstore\n      dup1\n      0x00\n      dup2\n      mstore\n      pop\n      swap1\n      pop\n        /* \"contracts/ERC721Contract.sol\":5132:5138  uint i */\n      0x00\n        /* \"contracts/ERC721Contract.sol\":5141:5142  1 */\n      0x01\n        /* \"contracts/ERC721Contract.sol\":5132:5142  uint i = 1 */\n      swap1\n      pop\n        /* \"contracts/ERC721Contract.sol\":5127:5332  for (uint i = 1; i <= tokenList.length; i++) {\r... */\n    tag_129:\n        /* \"contracts/ERC721Contract.sol\":5149:5158  tokenList */\n      0x00\n        /* \"contracts/ERC721Contract.sol\":5149:5165  tokenList.length */\n      dup1\n      sload\n      swap1\n      pop\n        /* \"contracts/ERC721Contract.sol\":5144:5145  i */\n      dup2\n        /* \"contracts/ERC721Contract.sol\":5144:5165  i <= tokenList.length */\n      gt\n        /* \"contracts/ERC721Contract.sol\":5127:5332  for (uint i = 1; i <= tokenList.length; i++) {\r... */\n      tag_130\n      jumpi\n        /* \"contracts/ERC721Contract.sol\":5206:5211  owner */\n      dup4\n        /* \"contracts/ERC721Contract.sol\":5191:5211  tokenOwner[i]==owner */\n      0xffffffffffffffffffffffffffffffffffffffff\n      and\n        /* \"contracts/ERC721Contract.sol\":5191:5201  tokenOwner */\n      0x03\n        /* \"contracts/ERC721Contract.sol\":5191:5204  tokenOwner[i] */\n      0x00\n        /* \"contracts/ERC721Contract.sol\":5202:5203  i */\n      dup4\n        /* \"contracts/ERC721Contract.sol\":5191:5204  tokenOwner[i] */\n      dup2\n      mstore\n      0x20\n      add\n      swap1\n      dup2\n      mstore\n      0x20\n      add\n      0x00\n      keccak256\n      0x00\n      swap1\n      sload\n      swap1\n      0x0100\n      exp\n      swap1\n      div\n      0xffffffffffffffffffffffffffffffffffffffff\n      and\n        /* \"contracts/ERC721Contract.sol\":5191:5211  tokenOwner[i]==owner */\n      0xffffffffffffffffffffffffffffffffffffffff\n      and\n      eq\n        /* \"contracts/ERC721Contract.sol\":5187:5321  if (tokenOwner[i]==owner) {\r... */\n      iszero\n      tag_132\n      jumpi\n        /* \"contracts/ERC721Contract.sol\":5260:5263  uri */\n      dup2\n        /* \"contracts/ERC721Contract.sol\":5264:5273  tokenURIs */\n      0x02\n        /* \"contracts/ERC721Contract.sol\":5264:5276  tokenURIs[i] */\n      0x00\n        /* \"contracts/ERC721Contract.sol\":5274:5275  i */\n      dup4\n        /* \"contracts/ERC721Contract.sol\":5264:5276  tokenURIs[i] */\n      dup2\n      mstore\n      0x20\n      add\n      swap1\n      dup2\n      mstore\n      0x20\n      add\n      0x00\n      keccak256\n        /* \"contracts/ERC721Contract.sol\":5243:5277  abi.encodePacked(uri,tokenURIs[i]) */\n      add(0x20, mload(0x40))\n      tag_133\n      swap3\n      swap2\n      swap1\n      tag_134\n      jump\t// in\n    tag_133:\n      mload(0x40)\n      0x20\n      dup2\n      dup4\n      sub\n      sub\n      dup2\n      mstore\n      swap1\n      0x40\n      mstore\n        /* \"contracts/ERC721Contract.sol\":5232:5278  uri=string(abi.encodePacked(uri,tokenURIs[i])) */\n      swap2\n      pop\n        /* \"contracts/ERC721Contract.sol\":5297:5305  continue */\n      jump(tag_131)\n        /* \"contracts/ERC721Contract.sol\":5187:5321  if (tokenOwner[i]==owner) {\r... */\n    tag_132:\n        /* \"contracts/ERC721Contract.sol\":5127:5332  for (uint i = 1; i <= tokenList.length; i++) {\r... */\n    tag_131:\n        /* \"contracts/ERC721Contract.sol\":5167:5170  i++ */\n      dup1\n      dup1\n      tag_135\n      swap1\n      tag_136\n      jump\t// in\n    tag_135:\n      swap2\n      pop\n      pop\n        /* \"contracts/ERC721Contract.sol\":5127:5332  for (uint i = 1; i <= tokenList.length; i++) {\r... */\n      jump(tag_129)\n    tag_130:\n      pop\n        /* \"contracts/ERC721Contract.sol\":5353:5356  uri */\n      dup1\n        /* \"contracts/ERC721Contract.sol\":5346:5356  return uri */\n      swap2\n      pop\n      pop\n        /* \"contracts/ERC721Contract.sol\":5019:5364  function getURIs(address owner) public view returns(string memory){\r... */\n      swap2\n      swap1\n      pop\n      jump\t// out\n        /* \"contracts/ERC721Contract.sol\":285:526  function ownerOf(uint256 _tokenId) public view virtual override returns (address){\r... */\n    tag_62:\n        /* \"contracts/ERC721Contract.sol\":358:365  address */\n      0x00\n        /* \"contracts/ERC721Contract.sol\":377:390  address owner */\n      dup1\n        /* \"contracts/ERC721Contract.sol\":393:403  tokenOwner */\n      0x03\n        /* \"contracts/ERC721Contract.sol\":393:413  tokenOwner[_tokenId] */\n      0x00\n        /* \"contracts/ERC721Contract.sol\":404:412  _tokenId */\n      dup5\n        /* \"contracts/ERC721Contract.sol\":393:413  tokenOwner[_tokenId] */\n      dup2\n      mstore\n      0x20\n      add\n      swap1\n      dup2\n      mstore\n      0x20\n      add\n      0x00\n      keccak256\n      0x00\n      swap1\n      sload\n      swap1\n      0x0100\n      exp\n      swap1\n      div\n      0xffffffffffffffffffffffffffffffffffffffff\n      and\n        /* \"contracts/ERC721Contract.sol\":377:413  address owner = tokenOwner[_tokenId] */\n      swap1\n      pop\n        /* \"contracts/ERC721Contract.sol\":449:450  0 */\n      0x00\n        /* \"contracts/ERC721Contract.sol\":432:451  owner != address(0) */\n      0xffffffffffffffffffffffffffffffffffffffff\n      and\n        /* \"contracts/ERC721Contract.sol\":432:437  owner */\n      dup2\n        /* \"contracts/ERC721Contract.sol\":432:451  owner != address(0) */\n      0xffffffffffffffffffffffffffffffffffffffff\n      and\n      eq\n      iszero\n        /* \"contracts/ERC721Contract.sol\":424:480  require(owner != address(0), \"ERC721: adress 0 invalid\") */\n      tag_138\n      jumpi\n      mload(0x40)\n      0x08c379a000000000000000000000000000000000000000000000000000000000\n      dup2\n      mstore\n      0x04\n      add\n      tag_139\n      swap1\n      tag_140\n      jump\t// in\n    tag_139:\n      mload(0x40)\n      dup1\n      swap2\n      sub\n      swap1\n      revert\n    tag_138:\n        /* \"contracts/ERC721Contract.sol\":498:508  tokenOwner */\n      0x03\n        /* \"contracts/ERC721Contract.sol\":498:518  tokenOwner[_tokenId] */\n      0x00\n        /* \"contracts/ERC721Contract.sol\":509:517  _tokenId */\n      dup5\n        /* \"contracts/ERC721Contract.sol\":498:518  tokenOwner[_tokenId] */\n      dup2\n      mstore\n      0x20\n      add\n      swap1\n      dup2\n      mstore\n      0x20\n      add\n      0x00\n      keccak256\n      0x00\n      swap1\n      sload\n      swap1\n      0x0100\n      exp\n      swap1\n      div\n      0xffffffffffffffffffffffffffffffffffffffff\n      and\n        /* \"contracts/ERC721Contract.sol\":491:518  return tokenOwner[_tokenId] */\n      swap2\n      pop\n      pop\n        /* \"contracts/ERC721Contract.sol\":285:526  function ownerOf(uint256 _tokenId) public view virtual override returns (address){\r... */\n      swap2\n      swap1\n      pop\n      jump\t// out\n        /* \"contracts/ERC721Contract.sol\":5500:5593  function getTokenID() public view returns (uint256){\r... */\n    tag_66:\n        /* \"contracts/ERC721Contract.sol\":5543:5550  uint256 */\n      0x00\n        /* \"contracts/ERC721Contract.sol\":5569:5578  tokenList */\n      dup1\n        /* \"contracts/ERC721Contract.sol\":5569:5585  tokenList.length */\n      dup1\n      sload\n      swap1\n      pop\n        /* \"contracts/ERC721Contract.sol\":5562:5585  return tokenList.length */\n      swap1\n      pop\n        /* \"contracts/ERC721Contract.sol\":5500:5593  function getTokenID() public view returns (uint256){\r... */\n      swap1\n      jump\t// out\n        /* \"contracts/ERC721Contract.sol\":150:277  function balanceOf(address _owner) public view virtual override returns (uint256){\r... */\n    tag_71:\n        /* \"contracts/ERC721Contract.sol\":223:230  uint256 */\n      0x00\n        /* \"contracts/ERC721Contract.sol\":249:261  tokenBalance */\n      0x04\n        /* \"contracts/ERC721Contract.sol\":249:269  tokenBalance[_owner] */\n      0x00\n        /* \"contracts/ERC721Contract.sol\":262:268  _owner */\n      dup4\n        /* \"contracts/ERC721Contract.sol\":249:269  tokenBalance[_owner] */\n      0xffffffffffffffffffffffffffffffffffffffff\n      and\n      0xffffffffffffffffffffffffffffffffffffffff\n      and\n      dup2\n      mstore\n      0x20\n      add\n      swap1\n      dup2\n      mstore\n      0x20\n      add\n      0x00\n      keccak256\n      0x00\n      swap1\n      sload\n      swap1\n      0x0100\n      exp\n      swap1\n      div\n      0xffffffffffffffff\n      and\n        /* \"contracts/ERC721Contract.sol\":242:269  return tokenBalance[_owner] */\n      0xffffffffffffffff\n      and\n      swap1\n      pop\n        /* \"contracts/ERC721Contract.sol\":150:277  function balanceOf(address _owner) public view virtual override returns (uint256){\r... */\n      swap2\n      swap1\n      pop\n      jump\t// out\n        /* \"contracts/ERC721Contract.sol\":1762:2039  function remove(uint index, string[] memory array )  public pure  {\r... */\n    tag_77:\n        /* \"contracts/ERC721Contract.sol\":1853:1858  array */\n      dup1\n        /* \"contracts/ERC721Contract.sol\":1853:1865  array.length */\n      mload\n        /* \"contracts/ERC721Contract.sol\":1847:1852  index */\n      dup3\n        /* \"contracts/ERC721Contract.sol\":1847:1865  index<array.length */\n      lt\n        /* \"contracts/ERC721Contract.sol\":1839:1889  require(index<array.length, \"Index out of bounds\") */\n      tag_144\n      jumpi\n      mload(0x40)\n      0x08c379a000000000000000000000000000000000000000000000000000000000\n      dup2\n      mstore\n      0x04\n      add\n      tag_145\n      swap1\n      tag_146\n      jump\t// in\n    tag_145:\n      mload(0x40)\n      dup1\n      swap2\n      sub\n      swap1\n      revert\n    tag_144:\n        /* \"contracts/ERC721Contract.sol\":1907:1913  uint i */\n      0x00\n        /* \"contracts/ERC721Contract.sol\":1916:1921  index */\n      dup3\n        /* \"contracts/ERC721Contract.sol\":1907:1921  uint i = index */\n      swap1\n      pop\n        /* \"contracts/ERC721Contract.sol\":1902:1993  for (uint i = index; i<array.length-1; i++){\r... */\n    tag_147:\n        /* \"contracts/ERC721Contract.sol\":1938:1939  1 */\n      0x01\n        /* \"contracts/ERC721Contract.sol\":1925:1930  array */\n      dup3\n        /* \"contracts/ERC721Contract.sol\":1925:1937  array.length */\n      mload\n        /* \"contracts/ERC721Contract.sol\":1925:1939  array.length-1 */\n      tag_150\n      swap2\n      swap1\n      tag_151\n      jump\t// in\n    tag_150:\n        /* \"contracts/ERC721Contract.sol\":1923:1924  i */\n      dup2\n        /* \"contracts/ERC721Contract.sol\":1923:1939  i<array.length-1 */\n      lt\n        /* \"contracts/ERC721Contract.sol\":1902:1993  for (uint i = index; i<array.length-1; i++){\r... */\n      iszero\n      tag_148\n      jumpi\n        /* \"contracts/ERC721Contract.sol\":1971:1976  array */\n      dup2\n        /* \"contracts/ERC721Contract.sol\":1979:1980  1 */\n      0x01\n        /* \"contracts/ERC721Contract.sol\":1977:1978  i */\n      dup3\n        /* \"contracts/ERC721Contract.sol\":1977:1980  i+1 */\n      tag_152\n      swap2\n      swap1\n      tag_153\n      jump\t// in\n    tag_152:\n        /* \"contracts/ERC721Contract.sol\":1971:1981  array[i+1] */\n      dup2\n      mload\n      dup2\n      lt\n      tag_154\n      jumpi\n      tag_155\n      tag_156\n      jump\t// in\n    tag_155:\n    tag_154:\n      0x20\n      mul\n      0x20\n      add\n      add\n      mload\n        /* \"contracts/ERC721Contract.sol\":1960:1965  array */\n      dup3\n        /* \"contracts/ERC721Contract.sol\":1966:1967  i */\n      dup3\n        /* \"contracts/ERC721Contract.sol\":1960:1968  array[i] */\n      dup2\n      mload\n      dup2\n      lt\n      tag_157\n      jumpi\n      tag_158\n      tag_156\n      jump\t// in\n    tag_158:\n    tag_157:\n      0x20\n      mul\n      0x20\n      add\n      add\n        /* \"contracts/ERC721Contract.sol\":1960:1981  array[i] = array[i+1] */\n      dup2\n      swap1\n      mstore\n      pop\n        /* \"contracts/ERC721Contract.sol\":1941:1944  i++ */\n      dup1\n      dup1\n      tag_159\n      swap1\n      tag_136\n      jump\t// in\n    tag_159:\n      swap2\n      pop\n      pop\n        /* \"contracts/ERC721Contract.sol\":1902:1993  for (uint i = index; i<array.length-1; i++){\r... */\n      jump(tag_147)\n    tag_148:\n      pop\n        /* \"contracts/ERC721Contract.sol\":2010:2015  array */\n      dup1\n        /* \"contracts/ERC721Contract.sol\":2029:2030  1 */\n      0x01\n        /* \"contracts/ERC721Contract.sol\":2016:2021  array */\n      dup3\n        /* \"contracts/ERC721Contract.sol\":2016:2028  array.length */\n      mload\n        /* \"contracts/ERC721Contract.sol\":2016:2030  array.length-1 */\n      tag_160\n      swap2\n      swap1\n      tag_151\n      jump\t// in\n    tag_160:\n        /* \"contracts/ERC721Contract.sol\":2010:2031  array[array.length-1] */\n      dup2\n      mload\n      dup2\n      lt\n      tag_161\n      jumpi\n      tag_162\n      tag_156\n      jump\t// in\n    tag_162:\n    tag_161:\n      0x20\n      mul\n      0x20\n      add\n      add\n        /* \"contracts/ERC721Contract.sol\":2003:2031  delete array[array.length-1] */\n      0x60\n      dup2\n      mstore\n      pop\n        /* \"contracts/ERC721Contract.sol\":1762:2039  function remove(uint index, string[] memory array )  public pure  {\r... */\n      pop\n      pop\n      jump\t// out\n        /* \"contracts/ERC721Contract.sol\":5372:5492  function getURIList(address owner) public view returns(string[] memory){\r... */\n    tag_81:\n        /* \"contracts/ERC721Contract.sol\":5427:5442  string[] memory */\n      0x60\n        /* \"contracts/ERC721Contract.sol\":5461:5476  tokenCollection */\n      0x01\n        /* \"contracts/ERC721Contract.sol\":5461:5483  tokenCollection[owner] */\n      0x00\n        /* \"contracts/ERC721Contract.sol\":5477:5482  owner */\n      dup4\n        /* \"contracts/ERC721Contract.sol\":5461:5483  tokenCollection[owner] */\n      0xffffffffffffffffffffffffffffffffffffffff\n      and\n      0xffffffffffffffffffffffffffffffffffffffff\n      and\n      dup2\n      mstore\n      0x20\n      add\n      swap1\n      dup2\n      mstore\n      0x20\n      add\n      0x00\n      keccak256\n        /* \"contracts/ERC721Contract.sol\":5454:5483  return tokenCollection[owner] */\n      dup1\n      sload\n      dup1\n      0x20\n      mul\n      0x20\n      add\n      mload(0x40)\n      swap1\n      dup2\n      add\n      0x40\n      mstore\n      dup1\n      swap3\n      swap2\n      swap1\n      dup2\n      dup2\n      mstore\n      0x20\n      add\n      0x00\n      swap1\n    tag_164:\n      dup3\n      dup3\n      lt\n      iszero\n      tag_165\n      jumpi\n      dup4\n      dup3\n      swap1\n      0x00\n      mstore\n      keccak256(0x00, 0x20)\n      add\n      dup1\n      sload\n      tag_167\n      swap1\n      tag_168\n      jump\t// in\n    tag_167:\n      dup1\n      0x1f\n      add\n      0x20\n      dup1\n      swap2\n      div\n      mul\n      0x20\n      add\n      mload(0x40)\n      swap1\n      dup2\n      add\n      0x40\n      mstore\n      dup1\n      swap3\n      swap2\n      swap1\n      dup2\n      dup2\n      mstore\n      0x20\n      add\n      dup3\n      dup1\n      sload\n      tag_169\n      swap1\n      tag_168\n      jump\t// in\n    tag_169:\n      dup1\n      iszero\n      tag_170\n      jumpi\n      dup1\n      0x1f\n      lt\n      tag_171\n      jumpi\n      0x0100\n      dup1\n      dup4\n      sload\n      div\n      mul\n      dup4\n      mstore\n      swap2\n      0x20\n      add\n      swap2\n      jump(tag_170)\n    tag_171:\n      dup3\n      add\n      swap2\n      swap1\n      0x00\n      mstore\n      keccak256(0x00, 0x20)\n      swap1\n    tag_172:\n      dup2\n      sload\n      dup2\n      mstore\n      swap1\n      0x01\n      add\n      swap1\n      0x20\n      add\n      dup1\n      dup4\n      gt\n      tag_172\n      jumpi\n      dup3\n      swap1\n      sub\n      0x1f\n      and\n      dup3\n      add\n      swap2\n    tag_170:\n      pop\n      pop\n      pop\n      pop\n      pop\n      dup2\n      mstore\n      0x20\n      add\n      swap1\n      0x01\n      add\n      swap1\n      jump(tag_164)\n    tag_165:\n      pop\n      pop\n      pop\n      pop\n      swap1\n      pop\n        /* \"contracts/ERC721Contract.sol\":5372:5492  function getURIList(address owner) public view returns(string[] memory){\r... */\n      swap2\n      swap1\n      pop\n      jump\t// out\n        /* \"contracts/ERC721Contract.sol\":3452:3745  function setApprovalForAll(address _operator, bool _approved) public virtual override {\r... */\n    tag_88:\n        /* \"contracts/ERC721Contract.sol\":3570:3580  msg.sender */\n      caller\n        /* \"contracts/ERC721Contract.sol\":3557:3580  _operator != msg.sender */\n      0xffffffffffffffffffffffffffffffffffffffff\n      and\n        /* \"contracts/ERC721Contract.sol\":3557:3566  _operator */\n      dup3\n        /* \"contracts/ERC721Contract.sol\":3557:3580  _operator != msg.sender */\n      0xffffffffffffffffffffffffffffffffffffffff\n      and\n      eq\n      iszero\n        /* \"contracts/ERC721Contract.sol\":3549:3610  require(_operator != msg.sender, \"ERC721: approve to caller\") */\n      tag_174\n      jumpi\n      mload(0x40)\n      0x08c379a000000000000000000000000000000000000000000000000000000000\n      dup2\n      mstore\n      0x04\n      add\n      tag_175\n      swap1\n      tag_176\n      jump\t// in\n    tag_175:\n      mload(0x40)\n      dup1\n      swap2\n      sub\n      swap1\n      revert\n    tag_174:\n        /* \"contracts/ERC721Contract.sol\":3664:3673  _approved */\n      dup1\n        /* \"contracts/ERC721Contract.sol\":3621:3638  operatorApprovals */\n      0x06\n        /* \"contracts/ERC721Contract.sol\":3621:3650  operatorApprovals[msg.sender] */\n      0x00\n        /* \"contracts/ERC721Contract.sol\":3639:3649  msg.sender */\n      caller\n        /* \"contracts/ERC721Contract.sol\":3621:3650  operatorApprovals[msg.sender] */\n      0xffffffffffffffffffffffffffffffffffffffff\n      and\n      0xffffffffffffffffffffffffffffffffffffffff\n      and\n      dup2\n      mstore\n      0x20\n      add\n      swap1\n      dup2\n      mstore\n      0x20\n      add\n      0x00\n      keccak256\n        /* \"contracts/ERC721Contract.sol\":3621:3661  operatorApprovals[msg.sender][_operator] */\n      0x00\n        /* \"contracts/ERC721Contract.sol\":3651:3660  _operator */\n      dup5\n        /* \"contracts/ERC721Contract.sol\":3621:3661  operatorApprovals[msg.sender][_operator] */\n      0xffffffffffffffffffffffffffffffffffffffff\n      and\n      0xffffffffffffffffffffffffffffffffffffffff\n      and\n      dup2\n      mstore\n      0x20\n      add\n      swap1\n      dup2\n      mstore\n      0x20\n      add\n      0x00\n      keccak256\n      0x00\n        /* \"contracts/ERC721Contract.sol\":3621:3673  operatorApprovals[msg.sender][_operator] = _approved */\n      0x0100\n      exp\n      dup2\n      sload\n      dup2\n      0xff\n      mul\n      not\n      and\n      swap1\n      dup4\n      iszero\n      iszero\n      mul\n      or\n      swap1\n      sstore\n      pop\n        /* \"contracts/ERC721Contract.sol\":3716:3725  _operator */\n      dup2\n        /* \"contracts/ERC721Contract.sol\":3689:3737  ApprovalForAll(msg.sender, _operator, _approved) */\n      0xffffffffffffffffffffffffffffffffffffffff\n      and\n        /* \"contracts/ERC721Contract.sol\":3704:3714  msg.sender */\n      caller\n        /* \"contracts/ERC721Contract.sol\":3689:3737  ApprovalForAll(msg.sender, _operator, _approved) */\n      0xffffffffffffffffffffffffffffffffffffffff\n      and\n      0x17307eab39ab6107e8899845ad3d59bd9653f200f220920489ca2b5937696c31\n        /* \"contracts/ERC721Contract.sol\":3727:3736  _approved */\n      dup4\n        /* \"contracts/ERC721Contract.sol\":3689:3737  ApprovalForAll(msg.sender, _operator, _approved) */\n      mload(0x40)\n      tag_177\n      swap2\n      swap1\n      tag_26\n      jump\t// in\n    tag_177:\n      mload(0x40)\n      dup1\n      swap2\n      sub\n      swap1\n      log3\n        /* \"contracts/ERC721Contract.sol\":3452:3745  function setApprovalForAll(address _operator, bool _approved) public virtual override {\r... */\n      pop\n      pop\n      jump\t// out\n        /* \"contracts/ERC721Contract.sol\":707:998  function safeTransferFrom(address from, address to, uint256 tokenId, bytes memory _data) public virtual payable override {\r... */\n    tag_92:\n        /* \"contracts/ERC721Contract.sol\":847:886  _isApprovedOrOwner(msg.sender, tokenId) */\n      tag_179\n        /* \"contracts/ERC721Contract.sol\":866:876  msg.sender */\n      caller\n        /* \"contracts/ERC721Contract.sol\":878:885  tokenId */\n      dup4\n        /* \"contracts/ERC721Contract.sol\":847:865  _isApprovedOrOwner */\n      tag_180\n        /* \"contracts/ERC721Contract.sol\":847:886  _isApprovedOrOwner(msg.sender, tokenId) */\n      jump\t// in\n    tag_179:\n        /* \"contracts/ERC721Contract.sol\":839:940  require(_isApprovedOrOwner(msg.sender, tokenId), \"ERC721: transfer caller is not owner nor approved\") */\n      tag_181\n      jumpi\n      mload(0x40)\n      0x08c379a000000000000000000000000000000000000000000000000000000000\n      dup2\n      mstore\n      0x04\n      add\n      tag_182\n      swap1\n      tag_183\n      jump\t// in\n    tag_182:\n      mload(0x40)\n      dup1\n      swap2\n      sub\n      swap1\n      revert\n    tag_181:\n        /* \"contracts/ERC721Contract.sol\":951:990  _safeTransfer(from, to, tokenId, _data) */\n      tag_184\n        /* \"contracts/ERC721Contract.sol\":965:969  from */\n      dup5\n        /* \"contracts/ERC721Contract.sol\":971:973  to */\n      dup5\n        /* \"contracts/ERC721Contract.sol\":975:982  tokenId */\n      dup5\n        /* \"contracts/ERC721Contract.sol\":984:989  _data */\n      dup5\n        /* \"contracts/ERC721Contract.sol\":951:964  _safeTransfer */\n      tag_185\n        /* \"contracts/ERC721Contract.sol\":951:990  _safeTransfer(from, to, tokenId, _data) */\n      jump\t// in\n    tag_184:\n        /* \"contracts/ERC721Contract.sol\":707:998  function safeTransferFrom(address from, address to, uint256 tokenId, bytes memory _data) public virtual payable override {\r... */\n      pop\n      pop\n      pop\n      pop\n      jump\t// out\n        /* \"contracts/ERC721Contract.sol\":3753:3919  function isApprovedForAll(address _owner, address _operator) public view virtual override returns (bool){\r... */\n    tag_97:\n        /* \"contracts/ERC721Contract.sol\":3852:3856  bool */\n      0x00\n        /* \"contracts/ERC721Contract.sol\":3875:3892  operatorApprovals */\n      0x06\n        /* \"contracts/ERC721Contract.sol\":3875:3900  operatorApprovals[_owner] */\n      0x00\n        /* \"contracts/ERC721Contract.sol\":3893:3899  _owner */\n      dup5\n        /* \"contracts/ERC721Contract.sol\":3875:3900  operatorApprovals[_owner] */\n      0xffffffffffffffffffffffffffffffffffffffff\n      and\n      0xffffffffffffffffffffffffffffffffffffffff\n      and\n      dup2\n      mstore\n      0x20\n      add\n      swap1\n      dup2\n      mstore\n      0x20\n      add\n      0x00\n      keccak256\n        /* \"contracts/ERC721Contract.sol\":3875:3911  operatorApprovals[_owner][_operator] */\n      0x00\n        /* \"contracts/ERC721Contract.sol\":3901:3910  _operator */\n      dup4\n        /* \"contracts/ERC721Contract.sol\":3875:3911  operatorApprovals[_owner][_operator] */\n      0xffffffffffffffffffffffffffffffffffffffff\n      and\n      0xffffffffffffffffffffffffffffffffffffffff\n      and\n      dup2\n      mstore\n      0x20\n      add\n      swap1\n      dup2\n      mstore\n      0x20\n      add\n      0x00\n      keccak256\n      0x00\n      swap1\n      sload\n      swap1\n      0x0100\n      exp\n      swap1\n      div\n      0xff\n      and\n        /* \"contracts/ERC721Contract.sol\":3868:3911  return operatorApprovals[_owner][_operator] */\n      swap1\n      pop\n        /* \"contracts/ERC721Contract.sol\":3753:3919  function isApprovedForAll(address _owner, address _operator) public view virtual override returns (bool){\r... */\n      swap3\n      swap2\n      pop\n      pop\n      jump\t// out\n        /* \"contracts/ERC721Contract.sol\":4169:4334  function _approve(address to, uint256 tokenId) internal virtual {\r... */\n    tag_114:\n        /* \"contracts/ERC721Contract.sol\":4270:4272  to */\n      dup2\n        /* \"contracts/ERC721Contract.sol\":4244:4258  tokenApprovals */\n      0x05\n        /* \"contracts/ERC721Contract.sol\":4244:4267  tokenApprovals[tokenId] */\n      0x00\n        /* \"contracts/ERC721Contract.sol\":4259:4266  tokenId */\n      dup4\n        /* \"contracts/ERC721Contract.sol\":4244:4267  tokenApprovals[tokenId] */\n      dup2\n      mstore\n      0x20\n      add\n      swap1\n      dup2\n      mstore\n      0x20\n      add\n      0x00\n      keccak256\n      0x00\n        /* \"contracts/ERC721Contract.sol\":4244:4272  tokenApprovals[tokenId] = to */\n      0x0100\n      exp\n      dup2\n      sload\n      dup2\n      0xffffffffffffffffffffffffffffffffffffffff\n      mul\n      not\n      and\n      swap1\n      dup4\n      0xffffffffffffffffffffffffffffffffffffffff\n      and\n      mul\n      or\n      swap1\n      sstore\n      pop\n        /* \"contracts/ERC721Contract.sol\":4324:4325  0 */\n      0x00\n        /* \"contracts/ERC721Contract.sol\":4320:4322  to */\n      dup3\n        /* \"contracts/ERC721Contract.sol\":4288:4326  Approval(this.ownerOf(tokenId), to, 0) */\n      0xffffffffffffffffffffffffffffffffffffffff\n      and\n        /* \"contracts/ERC721Contract.sol\":4297:4301  this */\n      address\n        /* \"contracts/ERC721Contract.sol\":4297:4309  this.ownerOf */\n      0xffffffffffffffffffffffffffffffffffffffff\n      and\n      0x6352211e\n        /* \"contracts/ERC721Contract.sol\":4310:4317  tokenId */\n      dup5\n        /* \"contracts/ERC721Contract.sol\":4297:4318  this.ownerOf(tokenId) */\n      mload(0x40)\n      dup3\n      0xffffffff\n      and\n      0xe0\n      shl\n      dup2\n      mstore\n      0x04\n      add\n      tag_188\n      swap2\n      swap1\n      tag_48\n      jump\t// in\n    tag_188:\n      0x20\n      mload(0x40)\n      dup1\n      dup4\n      sub\n      dup2\n      dup7\n      dup1\n      extcodesize\n      iszero\n      dup1\n      iszero\n      tag_189\n      jumpi\n      0x00\n      dup1\n      revert\n    tag_189:\n      pop\n      gas\n      staticcall\n      iszero\n      dup1\n      iszero\n      tag_191\n      jumpi\n      returndatasize\n      0x00\n      dup1\n      returndatacopy\n      revert(0x00, returndatasize)\n    tag_191:\n      pop\n      pop\n      pop\n      pop\n      mload(0x40)\n      returndatasize\n      not(0x1f)\n      0x1f\n      dup3\n      add\n      and\n      dup3\n      add\n      dup1\n      0x40\n      mstore\n      pop\n      dup2\n      add\n      swap1\n      tag_192\n      swap2\n      swap1\n      tag_193\n      jump\t// in\n    tag_192:\n        /* \"contracts/ERC721Contract.sol\":4288:4326  Approval(this.ownerOf(tokenId), to, 0) */\n      0xffffffffffffffffffffffffffffffffffffffff\n      and\n      0x8c5be1e5ebec7d5bd14f71427d1e84f3dd0314c0f7b2291e5b200ac8c7c3b925\n      mload(0x40)\n      mload(0x40)\n      dup1\n      swap2\n      sub\n      swap1\n      log4\n        /* \"contracts/ERC721Contract.sol\":4169:4334  function _approve(address to, uint256 tokenId) internal virtual {\r... */\n      pop\n      pop\n      jump\t// out\n        /* \"contracts/ERC721Contract.sol\":3927:4161  function _isApprovedOrOwner(address spender, uint256 tokenId) internal view virtual returns (bool) {\r... */\n    tag_180:\n        /* \"contracts/ERC721Contract.sol\":4020:4024  bool */\n      0x00\n        /* \"contracts/ERC721Contract.sol\":4063:4070  spender */\n      dup3\n        /* \"contracts/ERC721Contract.sol\":4045:4070  ownerOf(tokenId)==spender */\n      0xffffffffffffffffffffffffffffffffffffffff\n      and\n        /* \"contracts/ERC721Contract.sol\":4045:4061  ownerOf(tokenId) */\n      tag_195\n        /* \"contracts/ERC721Contract.sol\":4053:4060  tokenId */\n      dup4\n        /* \"contracts/ERC721Contract.sol\":4045:4052  ownerOf */\n      tag_62\n        /* \"contracts/ERC721Contract.sol\":4045:4061  ownerOf(tokenId) */\n      jump\t// in\n    tag_195:\n        /* \"contracts/ERC721Contract.sol\":4045:4070  ownerOf(tokenId)==spender */\n      0xffffffffffffffffffffffffffffffffffffffff\n      and\n      eq\n        /* \"contracts/ERC721Contract.sol\":4044:4104  (ownerOf(tokenId)==spender) || getApproved(tokenId)==spender */\n      dup1\n      tag_196\n      jumpi\n      pop\n        /* \"contracts/ERC721Contract.sol\":4097:4104  spender */\n      dup3\n        /* \"contracts/ERC721Contract.sol\":4075:4104  getApproved(tokenId)==spender */\n      0xffffffffffffffffffffffffffffffffffffffff\n      and\n        /* \"contracts/ERC721Contract.sol\":4075:4095  getApproved(tokenId) */\n      tag_197\n        /* \"contracts/ERC721Contract.sol\":4087:4094  tokenId */\n      dup4\n        /* \"contracts/ERC721Contract.sol\":4075:4086  getApproved */\n      tag_31\n        /* \"contracts/ERC721Contract.sol\":4075:4095  getApproved(tokenId) */\n      jump\t// in\n    tag_197:\n        /* \"contracts/ERC721Contract.sol\":4075:4104  getApproved(tokenId)==spender */\n      0xffffffffffffffffffffffffffffffffffffffff\n      and\n      eq\n        /* \"contracts/ERC721Contract.sol\":4044:4104  (ownerOf(tokenId)==spender) || getApproved(tokenId)==spender */\n    tag_196:\n        /* \"contracts/ERC721Contract.sol\":4044:4151  (ownerOf(tokenId)==spender) || getApproved(tokenId)==spender || isApprovedForAll(ownerOf(tokenId), spender) */\n      dup1\n      tag_198\n      jumpi\n      pop\n        /* \"contracts/ERC721Contract.sol\":4108:4151  isApprovedForAll(ownerOf(tokenId), spender) */\n      tag_199\n        /* \"contracts/ERC721Contract.sol\":4125:4141  ownerOf(tokenId) */\n      tag_200\n        /* \"contracts/ERC721Contract.sol\":4133:4140  tokenId */\n      dup4\n        /* \"contracts/ERC721Contract.sol\":4125:4132  ownerOf */\n      tag_62\n        /* \"contracts/ERC721Contract.sol\":4125:4141  ownerOf(tokenId) */\n      jump\t// in\n    tag_200:\n        /* \"contracts/ERC721Contract.sol\":4143:4150  spender */\n      dup5\n        /* \"contracts/ERC721Contract.sol\":4108:4124  isApprovedForAll */\n      tag_97\n        /* \"contracts/ERC721Contract.sol\":4108:4151  isApprovedForAll(ownerOf(tokenId), spender) */\n      jump\t// in\n    tag_199:\n        /* \"contracts/ERC721Contract.sol\":4044:4151  (ownerOf(tokenId)==spender) || getApproved(tokenId)==spender || isApprovedForAll(ownerOf(tokenId), spender) */\n    tag_198:\n        /* \"contracts/ERC721Contract.sol\":4037:4153  return((ownerOf(tokenId)==spender) || getApproved(tokenId)==spender || isApprovedForAll(ownerOf(tokenId), spender) ) */\n      swap1\n      pop\n        /* \"contracts/ERC721Contract.sol\":3927:4161  function _isApprovedOrOwner(address spender, uint256 tokenId) internal view virtual returns (bool) {\r... */\n      swap3\n      swap2\n      pop\n      pop\n      jump\t// out\n        /* \"contracts/ERC721Contract.sol\":1156:1754  function _safeTransfer(address from, address to, uint256 tokenId, bytes memory _data) internal virtual {\r... */\n    tag_185:\n        /* \"contracts/ERC721Contract.sol\":1270:1298  _transfer(from, to, tokenId) */\n      tag_202\n        /* \"contracts/ERC721Contract.sol\":1280:1284  from */\n      dup5\n        /* \"contracts/ERC721Contract.sol\":1286:1288  to */\n      dup5\n        /* \"contracts/ERC721Contract.sol\":1290:1297  tokenId */\n      dup5\n        /* \"contracts/ERC721Contract.sol\":1270:1279  _transfer */\n      tag_203\n        /* \"contracts/ERC721Contract.sol\":1270:1298  _transfer(from, to, tokenId) */\n      jump\t// in\n    tag_202:\n        /* \"contracts/ERC721Contract.sol\":1366:1377  uint32 size */\n      0x00\n        /* \"contracts/ERC721Contract.sol\":1432:1434  to */\n      dup4\n        /* \"contracts/ERC721Contract.sol\":1420:1435  extcodesize(to) */\n      extcodesize\n        /* \"contracts/ERC721Contract.sol\":1412:1435  size := extcodesize(to) */\n      swap1\n      pop\n        /* \"contracts/ERC721Contract.sol\":1466:1467  0 */\n      0x00\n        /* \"contracts/ERC721Contract.sol\":1459:1463  size */\n      dup2\n        /* \"contracts/ERC721Contract.sol\":1459:1467  size > 0 */\n      0xffffffff\n      and\n      gt\n        /* \"contracts/ERC721Contract.sol\":1456:1747  if(size > 0){\r... */\n      iszero\n      tag_204\n      jumpi\n        /* \"contracts/ERC721Contract.sol\":1483:1511  ERC721TokenReceiver receiver */\n      0x00\n        /* \"contracts/ERC721Contract.sol\":1534:1536  to */\n      dup5\n        /* \"contracts/ERC721Contract.sol\":1483:1537  ERC721TokenReceiver receiver = ERC721TokenReceiver(to) */\n      swap1\n      pop\n        /* \"contracts/ERC721Contract.sol\":1626:1686  keccak256(\"onERC721Received(address,address,uint256,bytes)\") */\n      0x150b7a023d4804d13e8c85fb27262cb750cf6ba9f9dd3bb30d90f482ceeb4b1f\n        /* \"contracts/ERC721Contract.sol\":1560:1687  receiver.onERC721Received(msg.sender,from,tokenId,_data)== bytes4(keccak256(\"onERC721Received(address,address,uint256,bytes)\")) */\n      not(0xffffffffffffffffffffffffffffffffffffffffffffffffffffffff)\n      and\n        /* \"contracts/ERC721Contract.sol\":1560:1568  receiver */\n      dup2\n        /* \"contracts/ERC721Contract.sol\":1560:1585  receiver.onERC721Received */\n      0xffffffffffffffffffffffffffffffffffffffff\n      and\n      0x150b7a02\n        /* \"contracts/ERC721Contract.sol\":1586:1596  msg.sender */\n      caller\n        /* \"contracts/ERC721Contract.sol\":1597:1601  from */\n      dup10\n        /* \"contracts/ERC721Contract.sol\":1602:1609  tokenId */\n      dup9\n        /* \"contracts/ERC721Contract.sol\":1610:1615  _data */\n      dup9\n        /* \"contracts/ERC721Contract.sol\":1560:1616  receiver.onERC721Received(msg.sender,from,tokenId,_data) */\n      mload(0x40)\n      dup6\n      0xffffffff\n      and\n      0xe0\n      shl\n      dup2\n      mstore\n      0x04\n      add\n      tag_205\n      swap5\n      swap4\n      swap3\n      swap2\n      swap1\n      tag_206\n      jump\t// in\n    tag_205:\n      0x20\n      mload(0x40)\n      dup1\n      dup4\n      sub\n      dup2\n      0x00\n      dup8\n      dup1\n      extcodesize\n      iszero\n      dup1\n      iszero\n      tag_207\n      jumpi\n      0x00\n      dup1\n      revert\n    tag_207:\n      pop\n      gas\n      call\n      iszero\n      dup1\n      iszero\n      tag_209\n      jumpi\n      returndatasize\n      0x00\n      dup1\n      returndatacopy\n      revert(0x00, returndatasize)\n    tag_209:\n      pop\n      pop\n      pop\n      pop\n      mload(0x40)\n      returndatasize\n      not(0x1f)\n      0x1f\n      dup3\n      add\n      and\n      dup3\n      add\n      dup1\n      0x40\n      mstore\n      pop\n      dup2\n      add\n      swap1\n      tag_210\n      swap2\n      swap1\n      tag_211\n      jump\t// in\n    tag_210:\n        /* \"contracts/ERC721Contract.sol\":1560:1687  receiver.onERC721Received(msg.sender,from,tokenId,_data)== bytes4(keccak256(\"onERC721Received(address,address,uint256,bytes)\")) */\n      not(0xffffffffffffffffffffffffffffffffffffffffffffffffffffffff)\n      and\n      eq\n        /* \"contracts/ERC721Contract.sol\":1552:1688  require(receiver.onERC721Received(msg.sender,from,tokenId,_data)== bytes4(keccak256(\"onERC721Received(address,address,uint256,bytes)\"))) */\n      tag_212\n      jumpi\n      0x00\n      dup1\n      revert\n    tag_212:\n        /* \"contracts/ERC721Contract.sol\":1727:1734  tokenId */\n      dup4\n        /* \"contracts/ERC721Contract.sol\":1723:1725  to */\n      dup6\n        /* \"contracts/ERC721Contract.sol\":1708:1735  Transfer(from, to, tokenId) */\n      0xffffffffffffffffffffffffffffffffffffffff\n      and\n        /* \"contracts/ERC721Contract.sol\":1717:1721  from */\n      dup8\n        /* \"contracts/ERC721Contract.sol\":1708:1735  Transfer(from, to, tokenId) */\n      0xffffffffffffffffffffffffffffffffffffffff\n      and\n      0xddf252ad1be2c89b69c2b068fc378daa952ba7f163c4a11628f55a4df523b3ef\n      mload(0x40)\n      mload(0x40)\n      dup1\n      swap2\n      sub\n      swap1\n      log4\n        /* \"contracts/ERC721Contract.sol\":1468:1747  {\r... */\n      pop\n        /* \"contracts/ERC721Contract.sol\":1456:1747  if(size > 0){\r... */\n    tag_204:\n        /* \"contracts/ERC721Contract.sol\":1259:1754  {\r... */\n      pop\n        /* \"contracts/ERC721Contract.sol\":1156:1754  function _safeTransfer(address from, address to, uint256 tokenId, bytes memory _data) internal virtual {\r... */\n      pop\n      pop\n      pop\n      pop\n      jump\t// out\n        /* \"contracts/ERC721Contract.sol\":2047:2880  function _transfer(address from, address to, uint256 tokenId) internal virtual {\r... */\n    tag_203:\n        /* \"contracts/ERC721Contract.sol\":2175:2179  from */\n      dup3\n        /* \"contracts/ERC721Contract.sol\":2155:2179  ownerOf(tokenId) == from */\n      0xffffffffffffffffffffffffffffffffffffffff\n      and\n        /* \"contracts/ERC721Contract.sol\":2155:2171  ownerOf(tokenId) */\n      tag_214\n        /* \"contracts/ERC721Contract.sol\":2163:2170  tokenId */\n      dup3\n        /* \"contracts/ERC721Contract.sol\":2155:2162  ownerOf */\n      tag_62\n        /* \"contracts/ERC721Contract.sol\":2155:2171  ownerOf(tokenId) */\n      jump\t// in\n    tag_214:\n        /* \"contracts/ERC721Contract.sol\":2155:2179  ownerOf(tokenId) == from */\n      0xffffffffffffffffffffffffffffffffffffffff\n      and\n      eq\n        /* \"contracts/ERC721Contract.sol\":2147:2225  require(ownerOf(tokenId) == from, \"ERC721: transfer of token that is not own\") */\n      tag_215\n      jumpi\n      mload(0x40)\n      0x08c379a000000000000000000000000000000000000000000000000000000000\n      dup2\n      mstore\n      0x04\n      add\n      tag_216\n      swap1\n      tag_217\n      jump\t// in\n    tag_216:\n      mload(0x40)\n      dup1\n      swap2\n      sub\n      swap1\n      revert\n    tag_215:\n        /* \"contracts/ERC721Contract.sol\":2258:2259  0 */\n      0x00\n        /* \"contracts/ERC721Contract.sol\":2244:2260  to != address(0) */\n      0xffffffffffffffffffffffffffffffffffffffff\n      and\n        /* \"contracts/ERC721Contract.sol\":2244:2246  to */\n      dup3\n        /* \"contracts/ERC721Contract.sol\":2244:2260  to != address(0) */\n      0xffffffffffffffffffffffffffffffffffffffff\n      and\n      eq\n      iszero\n        /* \"contracts/ERC721Contract.sol\":2236:2301  require(to != address(0), \"ERC721: transfer to the zero address\") */\n      tag_218\n      jumpi\n      mload(0x40)\n      0x08c379a000000000000000000000000000000000000000000000000000000000\n      dup2\n      mstore\n      0x04\n      add\n      tag_219\n      swap1\n      tag_220\n      jump\t// in\n    tag_219:\n      mload(0x40)\n      dup1\n      swap2\n      sub\n      swap1\n      revert\n    tag_218:\n        /* \"contracts/ERC721Contract.sol\":2364:2393  _approve(address(0), tokenId) */\n      tag_221\n        /* \"contracts/ERC721Contract.sol\":2381:2382  0 */\n      0x00\n        /* \"contracts/ERC721Contract.sol\":2385:2392  tokenId */\n      dup3\n        /* \"contracts/ERC721Contract.sol\":2364:2372  _approve */\n      tag_114\n        /* \"contracts/ERC721Contract.sol\":2364:2393  _approve(address(0), tokenId) */\n      jump\t// in\n    tag_221:\n        /* \"contracts/ERC721Contract.sol\":2425:2427  to */\n      dup2\n        /* \"contracts/ERC721Contract.sol\":2403:2413  tokenOwner */\n      0x03\n        /* \"contracts/ERC721Contract.sol\":2403:2422  tokenOwner[tokenId] */\n      0x00\n        /* \"contracts/ERC721Contract.sol\":2414:2421  tokenId */\n      dup4\n        /* \"contracts/ERC721Contract.sol\":2403:2422  tokenOwner[tokenId] */\n      dup2\n      mstore\n      0x20\n      add\n      swap1\n      dup2\n      mstore\n      0x20\n      add\n      0x00\n      keccak256\n      0x00\n        /* \"contracts/ERC721Contract.sol\":2403:2427  tokenOwner[tokenId] = to */\n      0x0100\n      exp\n      dup2\n      sload\n      dup2\n      0xffffffffffffffffffffffffffffffffffffffff\n      mul\n      not\n      and\n      swap1\n      dup4\n      0xffffffffffffffffffffffffffffffffffffffff\n      and\n      mul\n      or\n      swap1\n      sstore\n      pop\n        /* \"contracts/ERC721Contract.sol\":2437:2443  uint n */\n      0x00\n        /* \"contracts/ERC721Contract.sol\":2444:2459  tokenCollection */\n      0x01\n        /* \"contracts/ERC721Contract.sol\":2444:2465  tokenCollection[from] */\n      0x00\n        /* \"contracts/ERC721Contract.sol\":2460:2464  from */\n      dup6\n        /* \"contracts/ERC721Contract.sol\":2444:2465  tokenCollection[from] */\n      0xffffffffffffffffffffffffffffffffffffffff\n      and\n      0xffffffffffffffffffffffffffffffffffffffff\n      and\n      dup2\n      mstore\n      0x20\n      add\n      swap1\n      dup2\n      mstore\n      0x20\n      add\n      0x00\n      keccak256\n        /* \"contracts/ERC721Contract.sol\":2444:2472  tokenCollection[from].length */\n      dup1\n      sload\n      swap1\n      pop\n        /* \"contracts/ERC721Contract.sol\":2437:2472  uint n=tokenCollection[from].length */\n      swap1\n      pop\n        /* \"contracts/ERC721Contract.sol\":2482:2494  tokenBalance */\n      0x04\n        /* \"contracts/ERC721Contract.sol\":2482:2500  tokenBalance[from] */\n      0x00\n        /* \"contracts/ERC721Contract.sol\":2495:2499  from */\n      dup6\n        /* \"contracts/ERC721Contract.sol\":2482:2500  tokenBalance[from] */\n      0xffffffffffffffffffffffffffffffffffffffff\n      and\n      0xffffffffffffffffffffffffffffffffffffffff\n      and\n      dup2\n      mstore\n      0x20\n      add\n      swap1\n      dup2\n      mstore\n      0x20\n      add\n      0x00\n      keccak256\n      0x00\n        /* \"contracts/ERC721Contract.sol\":2482:2502  tokenBalance[from]-- */\n      dup2\n      dup2\n      swap1\n      sload\n      swap1\n      0x0100\n      exp\n      swap1\n      div\n      0xffffffffffffffff\n      and\n      dup1\n      swap3\n      swap2\n      swap1\n      tag_222\n      swap1\n      tag_223\n      jump\t// in\n    tag_222:\n      swap2\n      swap1\n      0x0100\n      exp\n      dup2\n      sload\n      dup2\n      0xffffffffffffffff\n      mul\n      not\n      and\n      swap1\n      dup4\n      0xffffffffffffffff\n      and\n      mul\n      or\n      swap1\n      sstore\n      pop\n      pop\n        /* \"contracts/ERC721Contract.sol\":2512:2518  uint i */\n      0x00\n        /* \"contracts/ERC721Contract.sol\":2530:2830  while (i<n){\r... */\n    tag_224:\n        /* \"contracts/ERC721Contract.sol\":2539:2540  n */\n      dup2\n        /* \"contracts/ERC721Contract.sol\":2537:2538  i */\n      dup2\n        /* \"contracts/ERC721Contract.sol\":2537:2540  i<n */\n      lt\n        /* \"contracts/ERC721Contract.sol\":2530:2830  while (i<n){\r... */\n      iszero\n      tag_225\n      jumpi\n        /* \"contracts/ERC721Contract.sol\":2642:2651  tokenURIs */\n      0x02\n        /* \"contracts/ERC721Contract.sol\":2642:2660  tokenURIs[tokenId] */\n      0x00\n        /* \"contracts/ERC721Contract.sol\":2652:2659  tokenId */\n      dup5\n        /* \"contracts/ERC721Contract.sol\":2642:2660  tokenURIs[tokenId] */\n      dup2\n      mstore\n      0x20\n      add\n      swap1\n      dup2\n      mstore\n      0x20\n      add\n      0x00\n      keccak256\n        /* \"contracts/ERC721Contract.sol\":2625:2661  abi.encodePacked(tokenURIs[tokenId]) */\n      add(0x20, mload(0x40))\n      tag_226\n      swap2\n      swap1\n      tag_227\n      jump\t// in\n    tag_226:\n      mload(0x40)\n      0x20\n      dup2\n      dup4\n      sub\n      sub\n      dup2\n      mstore\n      swap1\n      0x40\n      mstore\n        /* \"contracts/ERC721Contract.sol\":2615:2662  keccak256(abi.encodePacked(tokenURIs[tokenId])) */\n      dup1\n      mload\n      swap1\n      0x20\n      add\n      keccak256\n        /* \"contracts/ERC721Contract.sol\":2585:2600  tokenCollection */\n      0x01\n        /* \"contracts/ERC721Contract.sol\":2585:2606  tokenCollection[from] */\n      0x00\n        /* \"contracts/ERC721Contract.sol\":2601:2605  from */\n      dup8\n        /* \"contracts/ERC721Contract.sol\":2585:2606  tokenCollection[from] */\n      0xffffffffffffffffffffffffffffffffffffffff\n      and\n      0xffffffffffffffffffffffffffffffffffffffff\n      and\n      dup2\n      mstore\n      0x20\n      add\n      swap1\n      dup2\n      mstore\n      0x20\n      add\n      0x00\n      keccak256\n        /* \"contracts/ERC721Contract.sol\":2607:2608  i */\n      dup3\n        /* \"contracts/ERC721Contract.sol\":2585:2609  tokenCollection[from][i] */\n      dup2\n      sload\n      dup2\n      lt\n      tag_228\n      jumpi\n      tag_229\n      tag_156\n      jump\t// in\n    tag_229:\n    tag_228:\n      swap1\n      0x00\n      mstore\n      keccak256(0x00, 0x20)\n      add\n        /* \"contracts/ERC721Contract.sol\":2568:2610  abi.encodePacked(tokenCollection[from][i]) */\n      add(0x20, mload(0x40))\n      tag_231\n      swap2\n      swap1\n      tag_227\n      jump\t// in\n    tag_231:\n      mload(0x40)\n      0x20\n      dup2\n      dup4\n      sub\n      sub\n      dup2\n      mstore\n      swap1\n      0x40\n      mstore\n        /* \"contracts/ERC721Contract.sol\":2558:2611  keccak256(abi.encodePacked(tokenCollection[from][i])) */\n      dup1\n      mload\n      swap1\n      0x20\n      add\n      keccak256\n        /* \"contracts/ERC721Contract.sol\":2558:2662  keccak256(abi.encodePacked(tokenCollection[from][i])) == keccak256(abi.encodePacked(tokenURIs[tokenId])) */\n      eq\n        /* \"contracts/ERC721Contract.sol\":2555:2820  if(keccak256(abi.encodePacked(tokenCollection[from][i])) == keccak256(abi.encodePacked(tokenURIs[tokenId]))){\r... */\n      iszero\n      tag_232\n      jumpi\n        /* \"contracts/ERC721Contract.sol\":2688:2703  tokenCollection */\n      0x01\n        /* \"contracts/ERC721Contract.sol\":2688:2709  tokenCollection[from] */\n      0x00\n        /* \"contracts/ERC721Contract.sol\":2704:2708  from */\n      dup7\n        /* \"contracts/ERC721Contract.sol\":2688:2709  tokenCollection[from] */\n      0xffffffffffffffffffffffffffffffffffffffff\n      and\n      0xffffffffffffffffffffffffffffffffffffffff\n      and\n      dup2\n      mstore\n      0x20\n      add\n      swap1\n      dup2\n      mstore\n      0x20\n      add\n      0x00\n      keccak256\n        /* \"contracts/ERC721Contract.sol\":2710:2711  i */\n      dup2\n        /* \"contracts/ERC721Contract.sol\":2688:2712  tokenCollection[from][i] */\n      dup2\n      sload\n      dup2\n      lt\n      tag_233\n      jumpi\n      tag_234\n      tag_156\n      jump\t// in\n    tag_234:\n    tag_233:\n      swap1\n      0x00\n      mstore\n      keccak256(0x00, 0x20)\n      add\n      0x00\n        /* \"contracts/ERC721Contract.sol\":2681:2712  delete tokenCollection[from][i] */\n      tag_236\n      swap2\n      swap1\n      tag_237\n      jump\t// in\n    tag_236:\n        /* \"contracts/ERC721Contract.sol\":2730:2761  remove(i,tokenCollection[from]) */\n      tag_238\n        /* \"contracts/ERC721Contract.sol\":2737:2738  i */\n      dup2\n        /* \"contracts/ERC721Contract.sol\":2739:2754  tokenCollection */\n      0x01\n        /* \"contracts/ERC721Contract.sol\":2739:2760  tokenCollection[from] */\n      0x00\n        /* \"contracts/ERC721Contract.sol\":2755:2759  from */\n      dup9\n        /* \"contracts/ERC721Contract.sol\":2739:2760  tokenCollection[from] */\n      0xffffffffffffffffffffffffffffffffffffffff\n      and\n      0xffffffffffffffffffffffffffffffffffffffff\n      and\n      dup2\n      mstore\n      0x20\n      add\n      swap1\n      dup2\n      mstore\n      0x20\n      add\n      0x00\n      keccak256\n        /* \"contracts/ERC721Contract.sol\":2730:2761  remove(i,tokenCollection[from]) */\n      dup1\n      sload\n      dup1\n      0x20\n      mul\n      0x20\n      add\n      mload(0x40)\n      swap1\n      dup2\n      add\n      0x40\n      mstore\n      dup1\n      swap3\n      swap2\n      swap1\n      dup2\n      dup2\n      mstore\n      0x20\n      add\n      0x00\n      swap1\n    tag_239:\n      dup3\n      dup3\n      lt\n      iszero\n      tag_240\n      jumpi\n      dup4\n      dup3\n      swap1\n      0x00\n      mstore\n      keccak256(0x00, 0x20)\n      add\n      dup1\n      sload\n      tag_242\n      swap1\n      tag_168\n      jump\t// in\n    tag_242:\n      dup1\n      0x1f\n      add\n      0x20\n      dup1\n      swap2\n      div\n      mul\n      0x20\n      add\n      mload(0x40)\n      swap1\n      dup2\n      add\n      0x40\n      mstore\n      dup1\n      swap3\n      swap2\n      swap1\n      dup2\n      dup2\n      mstore\n      0x20\n      add\n      dup3\n      dup1\n      sload\n      tag_243\n      swap1\n      tag_168\n      jump\t// in\n    tag_243:\n      dup1\n      iszero\n      tag_244\n      jumpi\n      dup1\n      0x1f\n      lt\n      tag_245\n      jumpi\n      0x0100\n      dup1\n      dup4\n      sload\n      div\n      mul\n      dup4\n      mstore\n      swap2\n      0x20\n      add\n      swap2\n      jump(tag_244)\n    tag_245:\n      dup3\n      add\n      swap2\n      swap1\n      0x00\n      mstore\n      keccak256(0x00, 0x20)\n      swap1\n    tag_246:\n      dup2\n      sload\n      dup2\n      mstore\n      swap1\n      0x01\n      add\n      swap1\n      0x20\n      add\n      dup1\n      dup4\n      gt\n      tag_246\n      jumpi\n      dup3\n      swap1\n      sub\n      0x1f\n      and\n      dup3\n      add\n      swap2\n    tag_244:\n      pop\n      pop\n      pop\n      pop\n      pop\n      dup2\n      mstore\n      0x20\n      add\n      swap1\n      0x01\n      add\n      swap1\n      jump(tag_239)\n    tag_240:\n      pop\n      pop\n      pop\n      pop\n        /* \"contracts/ERC721Contract.sol\":2730:2736  remove */\n      tag_77\n        /* \"contracts/ERC721Contract.sol\":2730:2761  remove(i,tokenCollection[from]) */\n      jump\t// in\n    tag_238:\n        /* \"contracts/ERC721Contract.sol\":2781:2782  n */\n      dup2\n        /* \"contracts/ERC721Contract.sol\":2779:2782  i=n */\n      swap1\n      pop\n        /* \"contracts/ERC721Contract.sol\":2555:2820  if(keccak256(abi.encodePacked(tokenCollection[from][i])) == keccak256(abi.encodePacked(tokenURIs[tokenId]))){\r... */\n      jump(tag_247)\n    tag_232:\n        /* \"contracts/ERC721Contract.sol\":2815:2818  i++ */\n      dup1\n      dup1\n      tag_248\n      swap1\n      tag_136\n      jump\t// in\n    tag_248:\n      swap2\n      pop\n      pop\n        /* \"contracts/ERC721Contract.sol\":2555:2820  if(keccak256(abi.encodePacked(tokenCollection[from][i])) == keccak256(abi.encodePacked(tokenURIs[tokenId]))){\r... */\n    tag_247:\n        /* \"contracts/ERC721Contract.sol\":2530:2830  while (i<n){\r... */\n      jump(tag_224)\n    tag_225:\n        /* \"contracts/ERC721Contract.sol\":2864:2871  tokenId */\n      dup3\n        /* \"contracts/ERC721Contract.sol\":2860:2862  to */\n      dup5\n        /* \"contracts/ERC721Contract.sol\":2845:2872  Transfer(from, to, tokenId) */\n      0xffffffffffffffffffffffffffffffffffffffff\n      and\n        /* \"contracts/ERC721Contract.sol\":2854:2858  from */\n      dup7\n        /* \"contracts/ERC721Contract.sol\":2845:2872  Transfer(from, to, tokenId) */\n      0xffffffffffffffffffffffffffffffffffffffff\n      and\n      0xddf252ad1be2c89b69c2b068fc378daa952ba7f163c4a11628f55a4df523b3ef\n      mload(0x40)\n      mload(0x40)\n      dup1\n      swap2\n      sub\n      swap1\n      log4\n        /* \"contracts/ERC721Contract.sol\":2126:2880  {\r... */\n      pop\n      pop\n        /* \"contracts/ERC721Contract.sol\":2047:2880  function _transfer(address from, address to, uint256 tokenId) internal virtual {\r... */\n      pop\n      pop\n      pop\n      jump\t// out\n    tag_121:\n      dup3\n      dup1\n      sload\n      tag_249\n      swap1\n      tag_168\n      jump\t// in\n    tag_249:\n      swap1\n      0x00\n      mstore\n      keccak256(0x00, 0x20)\n      swap1\n      0x1f\n      add\n      0x20\n      swap1\n      div\n      dup2\n      add\n      swap3\n      dup3\n      tag_251\n      jumpi\n      0x00\n      dup6\n      sstore\n      jump(tag_250)\n    tag_251:\n      dup3\n      0x1f\n      lt\n      tag_252\n      jumpi\n      dup1\n      mload\n      not(0xff)\n      and\n      dup4\n      dup1\n      add\n      or\n      dup6\n      sstore\n      jump(tag_250)\n    tag_252:\n      dup3\n      dup1\n      add\n      0x01\n      add\n      dup6\n      sstore\n      dup3\n      iszero\n      tag_250\n      jumpi\n      swap2\n      dup3\n      add\n    tag_253:\n      dup3\n      dup2\n      gt\n      iszero\n      tag_254\n      jumpi\n      dup3\n      mload\n      dup3\n      sstore\n      swap2\n      0x20\n      add\n      swap2\n      swap1\n      0x01\n      add\n      swap1\n      jump(tag_253)\n    tag_254:\n    tag_250:\n      pop\n      swap1\n      pop\n      tag_255\n      swap2\n      swap1\n      tag_256\n      jump\t// in\n    tag_255:\n      pop\n      swap1\n      jump\t// out\n    tag_237:\n      pop\n      dup1\n      sload\n      tag_257\n      swap1\n      tag_168\n      jump\t// in\n    tag_257:\n      0x00\n      dup3\n      sstore\n      dup1\n      0x1f\n      lt\n      tag_259\n      jumpi\n      pop\n      jump(tag_258)\n    tag_259:\n      0x1f\n      add\n      0x20\n      swap1\n      div\n      swap1\n      0x00\n      mstore\n      keccak256(0x00, 0x20)\n      swap1\n      dup2\n      add\n      swap1\n      tag_260\n      swap2\n      swap1\n      tag_256\n      jump\t// in\n    tag_260:\n    tag_258:\n      pop\n      jump\t// out\n    tag_256:\n    tag_261:\n      dup1\n      dup3\n      gt\n      iszero\n      tag_262\n      jumpi\n      0x00\n      dup2\n      0x00\n      swap1\n      sstore\n      pop\n      0x01\n      add\n      jump(tag_261)\n    tag_262:\n      pop\n      swap1\n      jump\t// out\n        /* \"#utility.yul\":23:980   */\n    tag_264:\n        /* \"#utility.yul\":129:134   */\n      0x00\n        /* \"#utility.yul\":154:245   */\n      tag_266\n        /* \"#utility.yul\":170:244   */\n      tag_267\n        /* \"#utility.yul\":237:243   */\n      dup5\n        /* \"#utility.yul\":170:244   */\n      tag_268\n      jump\t// in\n    tag_267:\n        /* \"#utility.yul\":154:245   */\n      tag_269\n      jump\t// in\n    tag_266:\n        /* \"#utility.yul\":145:245   */\n      swap1\n      pop\n        /* \"#utility.yul\":265:270   */\n      dup1\n        /* \"#utility.yul\":294:300   */\n      dup4\n        /* \"#utility.yul\":287:292   */\n      dup3\n        /* \"#utility.yul\":280:301   */\n      mstore\n        /* \"#utility.yul\":328:332   */\n      0x20\n        /* \"#utility.yul\":321:326   */\n      dup3\n        /* \"#utility.yul\":317:333   */\n      add\n        /* \"#utility.yul\":310:333   */\n      swap1\n      pop\n        /* \"#utility.yul\":354:360   */\n      dup3\n        /* \"#utility.yul\":404:407   */\n      dup6\n        /* \"#utility.yul\":396:400   */\n      0x20\n        /* \"#utility.yul\":388:394   */\n      dup7\n        /* \"#utility.yul\":384:401   */\n      mul\n        /* \"#utility.yul\":379:382   */\n      dup3\n        /* \"#utility.yul\":375:402   */\n      add\n        /* \"#utility.yul\":372:408   */\n      gt\n        /* \"#utility.yul\":369:512   */\n      iszero\n      tag_270\n      jumpi\n        /* \"#utility.yul\":423:502   */\n      tag_271\n      tag_272\n      jump\t// in\n    tag_271:\n        /* \"#utility.yul\":369:512   */\n    tag_270:\n        /* \"#utility.yul\":536:537   */\n      0x00\n        /* \"#utility.yul\":521:974   */\n    tag_273:\n        /* \"#utility.yul\":546:552   */\n      dup6\n        /* \"#utility.yul\":543:544   */\n      dup2\n        /* \"#utility.yul\":540:553   */\n      lt\n        /* \"#utility.yul\":521:974   */\n      iszero\n      tag_275\n      jumpi\n        /* \"#utility.yul\":628:631   */\n      dup2\n        /* \"#utility.yul\":615:632   */\n      calldataload\n        /* \"#utility.yul\":664:682   */\n      0xffffffffffffffff\n        /* \"#utility.yul\":651:662   */\n      dup2\n        /* \"#utility.yul\":648:683   */\n      gt\n        /* \"#utility.yul\":645:767   */\n      iszero\n      tag_276\n      jumpi\n        /* \"#utility.yul\":686:765   */\n      tag_277\n      tag_278\n      jump\t// in\n    tag_277:\n        /* \"#utility.yul\":645:767   */\n    tag_276:\n        /* \"#utility.yul\":810:821   */\n      dup1\n        /* \"#utility.yul\":802:808   */\n      dup7\n        /* \"#utility.yul\":798:822   */\n      add\n        /* \"#utility.yul\":848:895   */\n      tag_279\n        /* \"#utility.yul\":891:894   */\n      dup10\n        /* \"#utility.yul\":879:889   */\n      dup3\n        /* \"#utility.yul\":848:895   */\n      tag_280\n      jump\t// in\n    tag_279:\n        /* \"#utility.yul\":843:846   */\n      dup6\n        /* \"#utility.yul\":836:896   */\n      mstore\n        /* \"#utility.yul\":925:929   */\n      0x20\n        /* \"#utility.yul\":920:923   */\n      dup6\n        /* \"#utility.yul\":916:930   */\n      add\n        /* \"#utility.yul\":909:930   */\n      swap5\n      pop\n        /* \"#utility.yul\":959:963   */\n      0x20\n        /* \"#utility.yul\":954:957   */\n      dup5\n        /* \"#utility.yul\":950:964   */\n      add\n        /* \"#utility.yul\":943:964   */\n      swap4\n      pop\n        /* \"#utility.yul\":581:974   */\n      pop\n      pop\n        /* \"#utility.yul\":568:569   */\n      0x01\n        /* \"#utility.yul\":565:566   */\n      dup2\n        /* \"#utility.yul\":561:570   */\n      add\n        /* \"#utility.yul\":556:570   */\n      swap1\n      pop\n        /* \"#utility.yul\":521:974   */\n      jump(tag_273)\n    tag_275:\n        /* \"#utility.yul\":525:539   */\n      pop\n        /* \"#utility.yul\":135:980   */\n      pop\n      pop\n        /* \"#utility.yul\":23:980   */\n      swap4\n      swap3\n      pop\n      pop\n      pop\n      jump\t// out\n        /* \"#utility.yul\":986:1396   */\n    tag_281:\n        /* \"#utility.yul\":1063:1068   */\n      0x00\n        /* \"#utility.yul\":1088:1153   */\n      tag_283\n        /* \"#utility.yul\":1104:1152   */\n      tag_284\n        /* \"#utility.yul\":1145:1151   */\n      dup5\n        /* \"#utility.yul\":1104:1152   */\n      tag_285\n      jump\t// in\n    tag_284:\n        /* \"#utility.yul\":1088:1153   */\n      tag_269\n      jump\t// in\n    tag_283:\n        /* \"#utility.yul\":1079:1153   */\n      swap1\n      pop\n        /* \"#utility.yul\":1176:1182   */\n      dup3\n        /* \"#utility.yul\":1169:1174   */\n      dup2\n        /* \"#utility.yul\":1162:1183   */\n      mstore\n        /* \"#utility.yul\":1214:1218   */\n      0x20\n        /* \"#utility.yul\":1207:1212   */\n      dup2\n        /* \"#utility.yul\":1203:1219   */\n      add\n        /* \"#utility.yul\":1252:1255   */\n      dup5\n        /* \"#utility.yul\":1243:1249   */\n      dup5\n        /* \"#utility.yul\":1238:1241   */\n      dup5\n        /* \"#utility.yul\":1234:1250   */\n      add\n        /* \"#utility.yul\":1231:1256   */\n      gt\n        /* \"#utility.yul\":1228:1340   */\n      iszero\n      tag_286\n      jumpi\n        /* \"#utility.yul\":1259:1338   */\n      tag_287\n      tag_288\n      jump\t// in\n    tag_287:\n        /* \"#utility.yul\":1228:1340   */\n    tag_286:\n        /* \"#utility.yul\":1349:1390   */\n      tag_289\n        /* \"#utility.yul\":1383:1389   */\n      dup5\n        /* \"#utility.yul\":1378:1381   */\n      dup3\n        /* \"#utility.yul\":1373:1376   */\n      dup6\n        /* \"#utility.yul\":1349:1390   */\n      tag_290\n      jump\t// in\n    tag_289:\n        /* \"#utility.yul\":1069:1396   */\n      pop\n        /* \"#utility.yul\":986:1396   */\n      swap4\n      swap3\n      pop\n      pop\n      pop\n      jump\t// out\n        /* \"#utility.yul\":1402:1814   */\n    tag_291:\n        /* \"#utility.yul\":1480:1485   */\n      0x00\n        /* \"#utility.yul\":1505:1571   */\n      tag_293\n        /* \"#utility.yul\":1521:1570   */\n      tag_294\n        /* \"#utility.yul\":1563:1569   */\n      dup5\n        /* \"#utility.yul\":1521:1570   */\n      tag_295\n      jump\t// in\n    tag_294:\n        /* \"#utility.yul\":1505:1571   */\n      tag_269\n      jump\t// in\n    tag_293:\n        /* \"#utility.yul\":1496:1571   */\n      swap1\n      pop\n        /* \"#utility.yul\":1594:1600   */\n      dup3\n        /* \"#utility.yul\":1587:1592   */\n      dup2\n        /* \"#utility.yul\":1580:1601   */\n      mstore\n        /* \"#utility.yul\":1632:1636   */\n      0x20\n        /* \"#utility.yul\":1625:1630   */\n      dup2\n        /* \"#utility.yul\":1621:1637   */\n      add\n        /* \"#utility.yul\":1670:1673   */\n      dup5\n        /* \"#utility.yul\":1661:1667   */\n      dup5\n        /* \"#utility.yul\":1656:1659   */\n      dup5\n        /* \"#utility.yul\":1652:1668   */\n      add\n        /* \"#utility.yul\":1649:1674   */\n      gt\n        /* \"#utility.yul\":1646:1758   */\n      iszero\n      tag_296\n      jumpi\n        /* \"#utility.yul\":1677:1756   */\n      tag_297\n      tag_288\n      jump\t// in\n    tag_297:\n        /* \"#utility.yul\":1646:1758   */\n    tag_296:\n        /* \"#utility.yul\":1767:1808   */\n      tag_298\n        /* \"#utility.yul\":1801:1807   */\n      dup5\n        /* \"#utility.yul\":1796:1799   */\n      dup3\n        /* \"#utility.yul\":1791:1794   */\n      dup6\n        /* \"#utility.yul\":1767:1808   */\n      tag_290\n      jump\t// in\n    tag_298:\n        /* \"#utility.yul\":1486:1814   */\n      pop\n        /* \"#utility.yul\":1402:1814   */\n      swap4\n      swap3\n      pop\n      pop\n      pop\n      jump\t// out\n        /* \"#utility.yul\":1820:1959   */\n    tag_299:\n        /* \"#utility.yul\":1866:1871   */\n      0x00\n        /* \"#utility.yul\":1904:1910   */\n      dup2\n        /* \"#utility.yul\":1891:1911   */\n      calldataload\n        /* \"#utility.yul\":1882:1911   */\n      swap1\n      pop\n        /* \"#utility.yul\":1920:1953   */\n      tag_301\n        /* \"#utility.yul\":1947:1952   */\n      dup2\n        /* \"#utility.yul\":1920:1953   */\n      tag_302\n      jump\t// in\n    tag_301:\n        /* \"#utility.yul\":1820:1959   */\n      swap3\n      swap2\n      pop\n      pop\n      jump\t// out\n        /* \"#utility.yul\":1965:2108   */\n    tag_303:\n        /* \"#utility.yul\":2022:2027   */\n      0x00\n        /* \"#utility.yul\":2053:2059   */\n      dup2\n        /* \"#utility.yul\":2047:2060   */\n      mload\n        /* \"#utility.yul\":2038:2060   */\n      swap1\n      pop\n        /* \"#utility.yul\":2069:2102   */\n      tag_305\n        /* \"#utility.yul\":2096:2101   */\n      dup2\n        /* \"#utility.yul\":2069:2102   */\n      tag_302\n      jump\t// in\n    tag_305:\n        /* \"#utility.yul\":1965:2108   */\n      swap3\n      swap2\n      pop\n      pop\n      jump\t// out\n        /* \"#utility.yul\":2130:2520   */\n    tag_306:\n        /* \"#utility.yul\":2211:2216   */\n      0x00\n        /* \"#utility.yul\":2260:2263   */\n      dup3\n        /* \"#utility.yul\":2253:2257   */\n      0x1f\n        /* \"#utility.yul\":2245:2251   */\n      dup4\n        /* \"#utility.yul\":2241:2258   */\n      add\n        /* \"#utility.yul\":2237:2264   */\n      slt\n        /* \"#utility.yul\":2227:2349   */\n      tag_308\n      jumpi\n        /* \"#utility.yul\":2268:2347   */\n      tag_309\n      tag_278\n      jump\t// in\n    tag_309:\n        /* \"#utility.yul\":2227:2349   */\n    tag_308:\n        /* \"#utility.yul\":2385:2391   */\n      dup2\n        /* \"#utility.yul\":2372:2392   */\n      calldataload\n        /* \"#utility.yul\":2410:2514   */\n      tag_310\n        /* \"#utility.yul\":2510:2513   */\n      dup5\n        /* \"#utility.yul\":2502:2508   */\n      dup3\n        /* \"#utility.yul\":2495:2499   */\n      0x20\n        /* \"#utility.yul\":2487:2493   */\n      dup7\n        /* \"#utility.yul\":2483:2500   */\n      add\n        /* \"#utility.yul\":2410:2514   */\n      tag_264\n      jump\t// in\n    tag_310:\n        /* \"#utility.yul\":2401:2514   */\n      swap2\n      pop\n        /* \"#utility.yul\":2217:2520   */\n      pop\n        /* \"#utility.yul\":2130:2520   */\n      swap3\n      swap2\n      pop\n      pop\n      jump\t// out\n        /* \"#utility.yul\":2526:2659   */\n    tag_311:\n        /* \"#utility.yul\":2569:2574   */\n      0x00\n        /* \"#utility.yul\":2607:2613   */\n      dup2\n        /* \"#utility.yul\":2594:2614   */\n      calldataload\n        /* \"#utility.yul\":2585:2614   */\n      swap1\n      pop\n        /* \"#utility.yul\":2623:2653   */\n      tag_313\n        /* \"#utility.yul\":2647:2652   */\n      dup2\n        /* \"#utility.yul\":2623:2653   */\n      tag_314\n      jump\t// in\n    tag_313:\n        /* \"#utility.yul\":2526:2659   */\n      swap3\n      swap2\n      pop\n      pop\n      jump\t// out\n        /* \"#utility.yul\":2665:2802   */\n    tag_315:\n        /* \"#utility.yul\":2710:2715   */\n      0x00\n        /* \"#utility.yul\":2748:2754   */\n      dup2\n        /* \"#utility.yul\":2735:2755   */\n      calldataload\n        /* \"#utility.yul\":2726:2755   */\n      swap1\n      pop\n        /* \"#utility.yul\":2764:2796   */\n      tag_317\n        /* \"#utility.yul\":2790:2795   */\n      dup2\n        /* \"#utility.yul\":2764:2796   */\n      tag_318\n      jump\t// in\n    tag_317:\n        /* \"#utility.yul\":2665:2802   */\n      swap3\n      swap2\n      pop\n      pop\n      jump\t// out\n        /* \"#utility.yul\":2808:2949   */\n    tag_319:\n        /* \"#utility.yul\":2864:2869   */\n      0x00\n        /* \"#utility.yul\":2895:2901   */\n      dup2\n        /* \"#utility.yul\":2889:2902   */\n      mload\n        /* \"#utility.yul\":2880:2902   */\n      swap1\n      pop\n        /* \"#utility.yul\":2911:2943   */\n      tag_321\n        /* \"#utility.yul\":2937:2942   */\n      dup2\n        /* \"#utility.yul\":2911:2943   */\n      tag_318\n      jump\t// in\n    tag_321:\n        /* \"#utility.yul\":2808:2949   */\n      swap3\n      swap2\n      pop\n      pop\n      jump\t// out\n        /* \"#utility.yul\":2968:3306   */\n    tag_322:\n        /* \"#utility.yul\":3023:3028   */\n      0x00\n        /* \"#utility.yul\":3072:3075   */\n      dup3\n        /* \"#utility.yul\":3065:3069   */\n      0x1f\n        /* \"#utility.yul\":3057:3063   */\n      dup4\n        /* \"#utility.yul\":3053:3070   */\n      add\n        /* \"#utility.yul\":3049:3076   */\n      slt\n        /* \"#utility.yul\":3039:3161   */\n      tag_324\n      jumpi\n        /* \"#utility.yul\":3080:3159   */\n      tag_325\n      tag_278\n      jump\t// in\n    tag_325:\n        /* \"#utility.yul\":3039:3161   */\n    tag_324:\n        /* \"#utility.yul\":3197:3203   */\n      dup2\n        /* \"#utility.yul\":3184:3204   */\n      calldataload\n        /* \"#utility.yul\":3222:3300   */\n      tag_326\n        /* \"#utility.yul\":3296:3299   */\n      dup5\n        /* \"#utility.yul\":3288:3294   */\n      dup3\n        /* \"#utility.yul\":3281:3285   */\n      0x20\n        /* \"#utility.yul\":3273:3279   */\n      dup7\n        /* \"#utility.yul\":3269:3286   */\n      add\n        /* \"#utility.yul\":3222:3300   */\n      tag_281\n      jump\t// in\n    tag_326:\n        /* \"#utility.yul\":3213:3300   */\n      swap2\n      pop\n        /* \"#utility.yul\":3029:3306   */\n      pop\n        /* \"#utility.yul\":2968:3306   */\n      swap3\n      swap2\n      pop\n      pop\n      jump\t// out\n        /* \"#utility.yul\":3326:3666   */\n    tag_280:\n        /* \"#utility.yul\":3382:3387   */\n      0x00\n        /* \"#utility.yul\":3431:3434   */\n      dup3\n        /* \"#utility.yul\":3424:3428   */\n      0x1f\n        /* \"#utility.yul\":3416:3422   */\n      dup4\n        /* \"#utility.yul\":3412:3429   */\n      add\n        /* \"#utility.yul\":3408:3435   */\n      slt\n        /* \"#utility.yul\":3398:3520   */\n      tag_328\n      jumpi\n        /* \"#utility.yul\":3439:3518   */\n      tag_329\n      tag_278\n      jump\t// in\n    tag_329:\n        /* \"#utility.yul\":3398:3520   */\n    tag_328:\n        /* \"#utility.yul\":3556:3562   */\n      dup2\n        /* \"#utility.yul\":3543:3563   */\n      calldataload\n        /* \"#utility.yul\":3581:3660   */\n      tag_330\n        /* \"#utility.yul\":3656:3659   */\n      dup5\n        /* \"#utility.yul\":3648:3654   */\n      dup3\n        /* \"#utility.yul\":3641:3645   */\n      0x20\n        /* \"#utility.yul\":3633:3639   */\n      dup7\n        /* \"#utility.yul\":3629:3646   */\n      add\n        /* \"#utility.yul\":3581:3660   */\n      tag_291\n      jump\t// in\n    tag_330:\n        /* \"#utility.yul\":3572:3660   */\n      swap2\n      pop\n        /* \"#utility.yul\":3388:3666   */\n      pop\n        /* \"#utility.yul\":3326:3666   */\n      swap3\n      swap2\n      pop\n      pop\n      jump\t// out\n        /* \"#utility.yul\":3672:3811   */\n    tag_331:\n        /* \"#utility.yul\":3718:3723   */\n      0x00\n        /* \"#utility.yul\":3756:3762   */\n      dup2\n        /* \"#utility.yul\":3743:3763   */\n      calldataload\n        /* \"#utility.yul\":3734:3763   */\n      swap1\n      pop\n        /* \"#utility.yul\":3772:3805   */\n      tag_333\n        /* \"#utility.yul\":3799:3804   */\n      dup2\n        /* \"#utility.yul\":3772:3805   */\n      tag_334\n      jump\t// in\n    tag_333:\n        /* \"#utility.yul\":3672:3811   */\n      swap3\n      swap2\n      pop\n      pop\n      jump\t// out\n        /* \"#utility.yul\":3817:4146   */\n    tag_55:\n        /* \"#utility.yul\":3876:3882   */\n      0x00\n        /* \"#utility.yul\":3925:3927   */\n      0x20\n        /* \"#utility.yul\":3913:3922   */\n      dup3\n        /* \"#utility.yul\":3904:3911   */\n      dup5\n        /* \"#utility.yul\":3900:3923   */\n      sub\n        /* \"#utility.yul\":3896:3928   */\n      slt\n        /* \"#utility.yul\":3893:4012   */\n      iszero\n      tag_336\n      jumpi\n        /* \"#utility.yul\":3931:4010   */\n      tag_337\n      tag_338\n      jump\t// in\n    tag_337:\n        /* \"#utility.yul\":3893:4012   */\n    tag_336:\n        /* \"#utility.yul\":4051:4052   */\n      0x00\n        /* \"#utility.yul\":4076:4129   */\n      tag_339\n        /* \"#utility.yul\":4121:4128   */\n      dup5\n        /* \"#utility.yul\":4112:4118   */\n      dup3\n        /* \"#utility.yul\":4101:4110   */\n      dup6\n        /* \"#utility.yul\":4097:4119   */\n      add\n        /* \"#utility.yul\":4076:4129   */\n      tag_299\n      jump\t// in\n    tag_339:\n        /* \"#utility.yul\":4066:4129   */\n      swap2\n      pop\n        /* \"#utility.yul\":4022:4139   */\n      pop\n        /* \"#utility.yul\":3817:4146   */\n      swap3\n      swap2\n      pop\n      pop\n      jump\t// out\n        /* \"#utility.yul\":4152:4503   */\n    tag_193:\n        /* \"#utility.yul\":4222:4228   */\n      0x00\n        /* \"#utility.yul\":4271:4273   */\n      0x20\n        /* \"#utility.yul\":4259:4268   */\n      dup3\n        /* \"#utility.yul\":4250:4257   */\n      dup5\n        /* \"#utility.yul\":4246:4269   */\n      sub\n        /* \"#utility.yul\":4242:4274   */\n      slt\n        /* \"#utility.yul\":4239:4358   */\n      iszero\n      tag_341\n      jumpi\n        /* \"#utility.yul\":4277:4356   */\n      tag_342\n      tag_338\n      jump\t// in\n    tag_342:\n        /* \"#utility.yul\":4239:4358   */\n    tag_341:\n        /* \"#utility.yul\":4397:4398   */\n      0x00\n        /* \"#utility.yul\":4422:4486   */\n      tag_343\n        /* \"#utility.yul\":4478:4485   */\n      dup5\n        /* \"#utility.yul\":4469:4475   */\n      dup3\n        /* \"#utility.yul\":4458:4467   */\n      dup6\n        /* \"#utility.yul\":4454:4476   */\n      add\n        /* \"#utility.yul\":4422:4486   */\n      tag_303\n      jump\t// in\n    tag_343:\n        /* \"#utility.yul\":4412:4486   */\n      swap2\n      pop\n        /* \"#utility.yul\":4368:4496   */\n      pop\n        /* \"#utility.yul\":4152:4503   */\n      swap3\n      swap2\n      pop\n      pop\n      jump\t// out\n        /* \"#utility.yul\":4509:4983   */\n    tag_96:\n        /* \"#utility.yul\":4577:4583   */\n      0x00\n        /* \"#utility.yul\":4585:4591   */\n      dup1\n        /* \"#utility.yul\":4634:4636   */\n      0x40\n        /* \"#utility.yul\":4622:4631   */\n      dup4\n        /* \"#utility.yul\":4613:4620   */\n      dup6\n        /* \"#utility.yul\":4609:4632   */\n      sub\n        /* \"#utility.yul\":4605:4637   */\n      slt\n        /* \"#utility.yul\":4602:4721   */\n      iszero\n      tag_345\n      jumpi\n        /* \"#utility.yul\":4640:4719   */\n      tag_346\n      tag_338\n      jump\t// in\n    tag_346:\n        /* \"#utility.yul\":4602:4721   */\n    tag_345:\n        /* \"#utility.yul\":4760:4761   */\n      0x00\n        /* \"#utility.yul\":4785:4838   */\n      tag_347\n        /* \"#utility.yul\":4830:4837   */\n      dup6\n        /* \"#utility.yul\":4821:4827   */\n      dup3\n        /* \"#utility.yul\":4810:4819   */\n      dup7\n        /* \"#utility.yul\":4806:4828   */\n      add\n        /* \"#utility.yul\":4785:4838   */\n      tag_299\n      jump\t// in\n    tag_347:\n        /* \"#utility.yul\":4775:4838   */\n      swap3\n      pop\n        /* \"#utility.yul\":4731:4848   */\n      pop\n        /* \"#utility.yul\":4887:4889   */\n      0x20\n        /* \"#utility.yul\":4913:4966   */\n      tag_348\n        /* \"#utility.yul\":4958:4965   */\n      dup6\n        /* \"#utility.yul\":4949:4955   */\n      dup3\n        /* \"#utility.yul\":4938:4947   */\n      dup7\n        /* \"#utility.yul\":4934:4956   */\n      add\n        /* \"#utility.yul\":4913:4966   */\n      tag_299\n      jump\t// in\n    tag_348:\n        /* \"#utility.yul\":4903:4966   */\n      swap2\n      pop\n        /* \"#utility.yul\":4858:4976   */\n      pop\n        /* \"#utility.yul\":4509:4983   */\n      swap3\n      pop\n      swap3\n      swap1\n      pop\n      jump\t// out\n        /* \"#utility.yul\":4989:5608   */\n    tag_40:\n        /* \"#utility.yul\":5066:5072   */\n      0x00\n        /* \"#utility.yul\":5074:5080   */\n      dup1\n        /* \"#utility.yul\":5082:5088   */\n      0x00\n        /* \"#utility.yul\":5131:5133   */\n      0x60\n        /* \"#utility.yul\":5119:5128   */\n      dup5\n        /* \"#utility.yul\":5110:5117   */\n      dup7\n        /* \"#utility.yul\":5106:5129   */\n      sub\n        /* \"#utility.yul\":5102:5134   */\n      slt\n        /* \"#utility.yul\":5099:5218   */\n      iszero\n      tag_350\n      jumpi\n        /* \"#utility.yul\":5137:5216   */\n      tag_351\n      tag_338\n      jump\t// in\n    tag_351:\n        /* \"#utility.yul\":5099:5218   */\n    tag_350:\n        /* \"#utility.yul\":5257:5258   */\n      0x00\n        /* \"#utility.yul\":5282:5335   */\n      tag_352\n        /* \"#utility.yul\":5327:5334   */\n      dup7\n        /* \"#utility.yul\":5318:5324   */\n      dup3\n        /* \"#utility.yul\":5307:5316   */\n      dup8\n        /* \"#utility.yul\":5303:5325   */\n      add\n        /* \"#utility.yul\":5282:5335   */\n      tag_299\n      jump\t// in\n    tag_352:\n        /* \"#utility.yul\":5272:5335   */\n      swap4\n      pop\n        /* \"#utility.yul\":5228:5345   */\n      pop\n        /* \"#utility.yul\":5384:5386   */\n      0x20\n        /* \"#utility.yul\":5410:5463   */\n      tag_353\n        /* \"#utility.yul\":5455:5462   */\n      dup7\n        /* \"#utility.yul\":5446:5452   */\n      dup3\n        /* \"#utility.yul\":5435:5444   */\n      dup8\n        /* \"#utility.yul\":5431:5453   */\n      add\n        /* \"#utility.yul\":5410:5463   */\n      tag_299\n      jump\t// in\n    tag_353:\n        /* \"#utility.yul\":5400:5463   */\n      swap3\n      pop\n        /* \"#utility.yul\":5355:5473   */\n      pop\n        /* \"#utility.yul\":5512:5514   */\n      0x40\n        /* \"#utility.yul\":5538:5591   */\n      tag_354\n        /* \"#utility.yul\":5583:5590   */\n      dup7\n        /* \"#utility.yul\":5574:5580   */\n      dup3\n        /* \"#utility.yul\":5563:5572   */\n      dup8\n        /* \"#utility.yul\":5559:5581   */\n      add\n        /* \"#utility.yul\":5538:5591   */\n      tag_331\n      jump\t// in\n    tag_354:\n        /* \"#utility.yul\":5528:5591   */\n      swap2\n      pop\n        /* \"#utility.yul\":5483:5601   */\n      pop\n        /* \"#utility.yul\":4989:5608   */\n      swap3\n      pop\n      swap3\n      pop\n      swap3\n      jump\t// out\n        /* \"#utility.yul\":5614:6557   */\n    tag_91:\n        /* \"#utility.yul\":5709:5715   */\n      0x00\n        /* \"#utility.yul\":5717:5723   */\n      dup1\n        /* \"#utility.yul\":5725:5731   */\n      0x00\n        /* \"#utility.yul\":5733:5739   */\n      dup1\n        /* \"#utility.yul\":5782:5785   */\n      0x80\n        /* \"#utility.yul\":5770:5779   */\n      dup6\n        /* \"#utility.yul\":5761:5768   */\n      dup8\n        /* \"#utility.yul\":5757:5780   */\n      sub\n        /* \"#utility.yul\":5753:5786   */\n      slt\n        /* \"#utility.yul\":5750:5870   */\n      iszero\n      tag_356\n      jumpi\n        /* \"#utility.yul\":5789:5868   */\n      tag_357\n      tag_338\n      jump\t// in\n    tag_357:\n        /* \"#utility.yul\":5750:5870   */\n    tag_356:\n        /* \"#utility.yul\":5909:5910   */\n      0x00\n        /* \"#utility.yul\":5934:5987   */\n      tag_358\n        /* \"#utility.yul\":5979:5986   */\n      dup8\n        /* \"#utility.yul\":5970:5976   */\n      dup3\n        /* \"#utility.yul\":5959:5968   */\n      dup9\n        /* \"#utility.yul\":5955:5977   */\n      add\n        /* \"#utility.yul\":5934:5987   */\n      tag_299\n      jump\t// in\n    tag_358:\n        /* \"#utility.yul\":5924:5987   */\n      swap5\n      pop\n        /* \"#utility.yul\":5880:5997   */\n      pop\n        /* \"#utility.yul\":6036:6038   */\n      0x20\n        /* \"#utility.yul\":6062:6115   */\n      tag_359\n        /* \"#utility.yul\":6107:6114   */\n      dup8\n        /* \"#utility.yul\":6098:6104   */\n      dup3\n        /* \"#utility.yul\":6087:6096   */\n      dup9\n        /* \"#utility.yul\":6083:6105   */\n      add\n        /* \"#utility.yul\":6062:6115   */\n      tag_299\n      jump\t// in\n    tag_359:\n        /* \"#utility.yul\":6052:6115   */\n      swap4\n      pop\n        /* \"#utility.yul\":6007:6125   */\n      pop\n        /* \"#utility.yul\":6164:6166   */\n      0x40\n        /* \"#utility.yul\":6190:6243   */\n      tag_360\n        /* \"#utility.yul\":6235:6242   */\n      dup8\n        /* \"#utility.yul\":6226:6232   */\n      dup3\n        /* \"#utility.yul\":6215:6224   */\n      dup9\n        /* \"#utility.yul\":6211:6233   */\n      add\n        /* \"#utility.yul\":6190:6243   */\n      tag_331\n      jump\t// in\n    tag_360:\n        /* \"#utility.yul\":6180:6243   */\n      swap3\n      pop\n        /* \"#utility.yul\":6135:6253   */\n      pop\n        /* \"#utility.yul\":6320:6322   */\n      0x60\n        /* \"#utility.yul\":6309:6318   */\n      dup6\n        /* \"#utility.yul\":6305:6323   */\n      add\n        /* \"#utility.yul\":6292:6324   */\n      calldataload\n        /* \"#utility.yul\":6351:6369   */\n      0xffffffffffffffff\n        /* \"#utility.yul\":6343:6349   */\n      dup2\n        /* \"#utility.yul\":6340:6370   */\n      gt\n        /* \"#utility.yul\":6337:6454   */\n      iszero\n      tag_361\n      jumpi\n        /* \"#utility.yul\":6373:6452   */\n      tag_362\n      tag_363\n      jump\t// in\n    tag_362:\n        /* \"#utility.yul\":6337:6454   */\n    tag_361:\n        /* \"#utility.yul\":6478:6540   */\n      tag_364\n        /* \"#utility.yul\":6532:6539   */\n      dup8\n        /* \"#utility.yul\":6523:6529   */\n      dup3\n        /* \"#utility.yul\":6512:6521   */\n      dup9\n        /* \"#utility.yul\":6508:6530   */\n      add\n        /* \"#utility.yul\":6478:6540   */\n      tag_322\n      jump\t// in\n    tag_364:\n        /* \"#utility.yul\":6468:6540   */\n      swap2\n      pop\n        /* \"#utility.yul\":6263:6550   */\n      pop\n        /* \"#utility.yul\":5614:6557   */\n      swap3\n      swap6\n      swap2\n      swap5\n      pop\n      swap3\n      pop\n      jump\t// out\n        /* \"#utility.yul\":6563:7031   */\n    tag_87:\n        /* \"#utility.yul\":6628:6634   */\n      0x00\n        /* \"#utility.yul\":6636:6642   */\n      dup1\n        /* \"#utility.yul\":6685:6687   */\n      0x40\n        /* \"#utility.yul\":6673:6682   */\n      dup4\n        /* \"#utility.yul\":6664:6671   */\n      dup6\n        /* \"#utility.yul\":6660:6683   */\n      sub\n        /* \"#utility.yul\":6656:6688   */\n      slt\n        /* \"#utility.yul\":6653:6772   */\n      iszero\n      tag_366\n      jumpi\n        /* \"#utility.yul\":6691:6770   */\n      tag_367\n      tag_338\n      jump\t// in\n    tag_367:\n        /* \"#utility.yul\":6653:6772   */\n    tag_366:\n        /* \"#utility.yul\":6811:6812   */\n      0x00\n        /* \"#utility.yul\":6836:6889   */\n      tag_368\n        /* \"#utility.yul\":6881:6888   */\n      dup6\n        /* \"#utility.yul\":6872:6878   */\n      dup3\n        /* \"#utility.yul\":6861:6870   */\n      dup7\n        /* \"#utility.yul\":6857:6879   */\n      add\n        /* \"#utility.yul\":6836:6889   */\n      tag_299\n      jump\t// in\n    tag_368:\n        /* \"#utility.yul\":6826:6889   */\n      swap3\n      pop\n        /* \"#utility.yul\":6782:6899   */\n      pop\n        /* \"#utility.yul\":6938:6940   */\n      0x20\n        /* \"#utility.yul\":6964:7014   */\n      tag_369\n        /* \"#utility.yul\":7006:7013   */\n      dup6\n        /* \"#utility.yul\":6997:7003   */\n      dup3\n        /* \"#utility.yul\":6986:6995   */\n      dup7\n        /* \"#utility.yul\":6982:7004   */\n      add\n        /* \"#utility.yul\":6964:7014   */\n      tag_311\n      jump\t// in\n    tag_369:\n        /* \"#utility.yul\":6954:7014   */\n      swap2\n      pop\n        /* \"#utility.yul\":6909:7024   */\n      pop\n        /* \"#utility.yul\":6563:7031   */\n      swap3\n      pop\n      swap3\n      swap1\n      pop\n      jump\t// out\n        /* \"#utility.yul\":7037:7691   */\n    tag_45:\n        /* \"#utility.yul\":7115:7121   */\n      0x00\n        /* \"#utility.yul\":7123:7129   */\n      dup1\n        /* \"#utility.yul\":7172:7174   */\n      0x40\n        /* \"#utility.yul\":7160:7169   */\n      dup4\n        /* \"#utility.yul\":7151:7158   */\n      dup6\n        /* \"#utility.yul\":7147:7170   */\n      sub\n        /* \"#utility.yul\":7143:7175   */\n      slt\n        /* \"#utility.yul\":7140:7259   */\n      iszero\n      tag_371\n      jumpi\n        /* \"#utility.yul\":7178:7257   */\n      tag_372\n      tag_338\n      jump\t// in\n    tag_372:\n        /* \"#utility.yul\":7140:7259   */\n    tag_371:\n        /* \"#utility.yul\":7298:7299   */\n      0x00\n        /* \"#utility.yul\":7323:7376   */\n      tag_373\n        /* \"#utility.yul\":7368:7375   */\n      dup6\n        /* \"#utility.yul\":7359:7365   */\n      dup3\n        /* \"#utility.yul\":7348:7357   */\n      dup7\n        /* \"#utility.yul\":7344:7366   */\n      add\n        /* \"#utility.yul\":7323:7376   */\n      tag_299\n      jump\t// in\n    tag_373:\n        /* \"#utility.yul\":7313:7376   */\n      swap3\n      pop\n        /* \"#utility.yul\":7269:7386   */\n      pop\n        /* \"#utility.yul\":7453:7455   */\n      0x20\n        /* \"#utility.yul\":7442:7451   */\n      dup4\n        /* \"#utility.yul\":7438:7456   */\n      add\n        /* \"#utility.yul\":7425:7457   */\n      calldataload\n        /* \"#utility.yul\":7484:7502   */\n      0xffffffffffffffff\n        /* \"#utility.yul\":7476:7482   */\n      dup2\n        /* \"#utility.yul\":7473:7503   */\n      gt\n        /* \"#utility.yul\":7470:7587   */\n      iszero\n      tag_374\n      jumpi\n        /* \"#utility.yul\":7506:7585   */\n      tag_375\n      tag_363\n      jump\t// in\n    tag_375:\n        /* \"#utility.yul\":7470:7587   */\n    tag_374:\n        /* \"#utility.yul\":7611:7674   */\n      tag_376\n        /* \"#utility.yul\":7666:7673   */\n      dup6\n        /* \"#utility.yul\":7657:7663   */\n      dup3\n        /* \"#utility.yul\":7646:7655   */\n      dup7\n        /* \"#utility.yul\":7642:7664   */\n      add\n        /* \"#utility.yul\":7611:7674   */\n      tag_280\n      jump\t// in\n    tag_376:\n        /* \"#utility.yul\":7601:7674   */\n      swap2\n      pop\n        /* \"#utility.yul\":7396:7684   */\n      pop\n        /* \"#utility.yul\":7037:7691   */\n      swap3\n      pop\n      swap3\n      swap1\n      pop\n      jump\t// out\n        /* \"#utility.yul\":7697:8171   */\n    tag_36:\n        /* \"#utility.yul\":7765:7771   */\n      0x00\n        /* \"#utility.yul\":7773:7779   */\n      dup1\n        /* \"#utility.yul\":7822:7824   */\n      0x40\n        /* \"#utility.yul\":7810:7819   */\n      dup4\n        /* \"#utility.yul\":7801:7808   */\n      dup6\n        /* \"#utility.yul\":7797:7820   */\n      sub\n        /* \"#utility.yul\":7793:7825   */\n      slt\n        /* \"#utility.yul\":7790:7909   */\n      iszero\n      tag_378\n      jumpi\n        /* \"#utility.yul\":7828:7907   */\n      tag_379\n      tag_338\n      jump\t// in\n    tag_379:\n        /* \"#utility.yul\":7790:7909   */\n    tag_378:\n        /* \"#utility.yul\":7948:7949   */\n      0x00\n        /* \"#utility.yul\":7973:8026   */\n      tag_380\n        /* \"#utility.yul\":8018:8025   */\n      dup6\n        /* \"#utility.yul\":8009:8015   */\n      dup3\n        /* \"#utility.yul\":7998:8007   */\n      dup7\n        /* \"#utility.yul\":7994:8016   */\n      add\n        /* \"#utility.yul\":7973:8026   */\n      tag_299\n      jump\t// in\n    tag_380:\n        /* \"#utility.yul\":7963:8026   */\n      swap3\n      pop\n        /* \"#utility.yul\":7919:8036   */\n      pop\n        /* \"#utility.yul\":8075:8077   */\n      0x20\n        /* \"#utility.yul\":8101:8154   */\n      tag_381\n        /* \"#utility.yul\":8146:8153   */\n      dup6\n        /* \"#utility.yul\":8137:8143   */\n      dup3\n        /* \"#utility.yul\":8126:8135   */\n      dup7\n        /* \"#utility.yul\":8122:8144   */\n      add\n        /* \"#utility.yul\":8101:8154   */\n      tag_331\n      jump\t// in\n    tag_381:\n        /* \"#utility.yul\":8091:8154   */\n      swap2\n      pop\n        /* \"#utility.yul\":8046:8164   */\n      pop\n        /* \"#utility.yul\":7697:8171   */\n      swap3\n      pop\n      swap3\n      swap1\n      pop\n      jump\t// out\n        /* \"#utility.yul\":8177:8504   */\n    tag_23:\n        /* \"#utility.yul\":8235:8241   */\n      0x00\n        /* \"#utility.yul\":8284:8286   */\n      0x20\n        /* \"#utility.yul\":8272:8281   */\n      dup3\n        /* \"#utility.yul\":8263:8270   */\n      dup5\n        /* \"#utility.yul\":8259:8282   */\n      sub\n        /* \"#utility.yul\":8255:8287   */\n      slt\n        /* \"#utility.yul\":8252:8371   */\n      iszero\n      tag_383\n      jumpi\n        /* \"#utility.yul\":8290:8369   */\n      tag_384\n      tag_338\n      jump\t// in\n    tag_384:\n        /* \"#utility.yul\":8252:8371   */\n    tag_383:\n        /* \"#utility.yul\":8410:8411   */\n      0x00\n        /* \"#utility.yul\":8435:8487   */\n      tag_385\n        /* \"#utility.yul\":8479:8486   */\n      dup5\n        /* \"#utility.yul\":8470:8476   */\n      dup3\n        /* \"#utility.yul\":8459:8468   */\n      dup6\n        /* \"#utility.yul\":8455:8477   */\n      add\n        /* \"#utility.yul\":8435:8487   */\n      tag_315\n      jump\t// in\n    tag_385:\n        /* \"#utility.yul\":8425:8487   */\n      swap2\n      pop\n        /* \"#utility.yul\":8381:8497   */\n      pop\n        /* \"#utility.yul\":8177:8504   */\n      swap3\n      swap2\n      pop\n      pop\n      jump\t// out\n        /* \"#utility.yul\":8510:8859   */\n    tag_211:\n        /* \"#utility.yul\":8579:8585   */\n      0x00\n        /* \"#utility.yul\":8628:8630   */\n      0x20\n        /* \"#utility.yul\":8616:8625   */\n      dup3\n        /* \"#utility.yul\":8607:8614   */\n      dup5\n        /* \"#utility.yul\":8603:8626   */\n      sub\n        /* \"#utility.yul\":8599:8631   */\n      slt\n        /* \"#utility.yul\":8596:8715   */\n      iszero\n      tag_387\n      jumpi\n        /* \"#utility.yul\":8634:8713   */\n      tag_388\n      tag_338\n      jump\t// in\n    tag_388:\n        /* \"#utility.yul\":8596:8715   */\n    tag_387:\n        /* \"#utility.yul\":8754:8755   */\n      0x00\n        /* \"#utility.yul\":8779:8842   */\n      tag_389\n        /* \"#utility.yul\":8834:8841   */\n      dup5\n        /* \"#utility.yul\":8825:8831   */\n      dup3\n        /* \"#utility.yul\":8814:8823   */\n      dup6\n        /* \"#utility.yul\":8810:8832   */\n      add\n        /* \"#utility.yul\":8779:8842   */\n      tag_319\n      jump\t// in\n    tag_389:\n        /* \"#utility.yul\":8769:8842   */\n      swap2\n      pop\n        /* \"#utility.yul\":8725:8852   */\n      pop\n        /* \"#utility.yul\":8510:8859   */\n      swap3\n      swap2\n      pop\n      pop\n      jump\t// out\n        /* \"#utility.yul\":8865:9194   */\n    tag_30:\n        /* \"#utility.yul\":8924:8930   */\n      0x00\n        /* \"#utility.yul\":8973:8975   */\n      0x20\n        /* \"#utility.yul\":8961:8970   */\n      dup3\n        /* \"#utility.yul\":8952:8959   */\n      dup5\n        /* \"#utility.yul\":8948:8971   */\n      sub\n        /* \"#utility.yul\":8944:8976   */\n      slt\n        /* \"#utility.yul\":8941:9060   */\n      iszero\n      tag_391\n      jumpi\n        /* \"#utility.yul\":8979:9058   */\n      tag_392\n      tag_338\n      jump\t// in\n    tag_392:\n        /* \"#utility.yul\":8941:9060   */\n    tag_391:\n        /* \"#utility.yul\":9099:9100   */\n      0x00\n        /* \"#utility.yul\":9124:9177   */\n      tag_393\n        /* \"#utility.yul\":9169:9176   */\n      dup5\n        /* \"#utility.yul\":9160:9166   */\n      dup3\n        /* \"#utility.yul\":9149:9158   */\n      dup6\n        /* \"#utility.yul\":9145:9167   */\n      add\n        /* \"#utility.yul\":9124:9177   */\n      tag_331\n      jump\t// in\n    tag_393:\n        /* \"#utility.yul\":9114:9177   */\n      swap2\n      pop\n        /* \"#utility.yul\":9070:9187   */\n      pop\n        /* \"#utility.yul\":8865:9194   */\n      swap3\n      swap2\n      pop\n      pop\n      jump\t// out\n        /* \"#utility.yul\":9200:9904   */\n    tag_76:\n        /* \"#utility.yul\":9303:9309   */\n      0x00\n        /* \"#utility.yul\":9311:9317   */\n      dup1\n        /* \"#utility.yul\":9360:9362   */\n      0x40\n        /* \"#utility.yul\":9348:9357   */\n      dup4\n        /* \"#utility.yul\":9339:9346   */\n      dup6\n        /* \"#utility.yul\":9335:9358   */\n      sub\n        /* \"#utility.yul\":9331:9363   */\n      slt\n        /* \"#utility.yul\":9328:9447   */\n      iszero\n      tag_395\n      jumpi\n        /* \"#utility.yul\":9366:9445   */\n      tag_396\n      tag_338\n      jump\t// in\n    tag_396:\n        /* \"#utility.yul\":9328:9447   */\n    tag_395:\n        /* \"#utility.yul\":9486:9487   */\n      0x00\n        /* \"#utility.yul\":9511:9564   */\n      tag_397\n        /* \"#utility.yul\":9556:9563   */\n      dup6\n        /* \"#utility.yul\":9547:9553   */\n      dup3\n        /* \"#utility.yul\":9536:9545   */\n      dup7\n        /* \"#utility.yul\":9532:9554   */\n      add\n        /* \"#utility.yul\":9511:9564   */\n      tag_331\n      jump\t// in\n    tag_397:\n        /* \"#utility.yul\":9501:9564   */\n      swap3\n      pop\n        /* \"#utility.yul\":9457:9574   */\n      pop\n        /* \"#utility.yul\":9641:9643   */\n      0x20\n        /* \"#utility.yul\":9630:9639   */\n      dup4\n        /* \"#utility.yul\":9626:9644   */\n      add\n        /* \"#utility.yul\":9613:9645   */\n      calldataload\n        /* \"#utility.yul\":9672:9690   */\n      0xffffffffffffffff\n        /* \"#utility.yul\":9664:9670   */\n      dup2\n        /* \"#utility.yul\":9661:9691   */\n      gt\n        /* \"#utility.yul\":9658:9775   */\n      iszero\n      tag_398\n      jumpi\n        /* \"#utility.yul\":9694:9773   */\n      tag_399\n      tag_363\n      jump\t// in\n    tag_399:\n        /* \"#utility.yul\":9658:9775   */\n    tag_398:\n        /* \"#utility.yul\":9799:9887   */\n      tag_400\n        /* \"#utility.yul\":9879:9886   */\n      dup6\n        /* \"#utility.yul\":9870:9876   */\n      dup3\n        /* \"#utility.yul\":9859:9868   */\n      dup7\n        /* \"#utility.yul\":9855:9877   */\n      add\n        /* \"#utility.yul\":9799:9887   */\n      tag_306\n      jump\t// in\n    tag_400:\n        /* \"#utility.yul\":9789:9887   */\n      swap2\n      pop\n        /* \"#utility.yul\":9584:9897   */\n      pop\n        /* \"#utility.yul\":9200:9904   */\n      swap3\n      pop\n      swap3\n      swap1\n      pop\n      jump\t// out\n        /* \"#utility.yul\":9910:10106   */\n    tag_401:\n        /* \"#utility.yul\":9999:10009   */\n      0x00\n        /* \"#utility.yul\":10034:10100   */\n      tag_403\n        /* \"#utility.yul\":10096:10099   */\n      dup4\n        /* \"#utility.yul\":10088:10094   */\n      dup4\n        /* \"#utility.yul\":10034:10100   */\n      tag_404\n      jump\t// in\n    tag_403:\n        /* \"#utility.yul\":10020:10100   */\n      swap1\n      pop\n        /* \"#utility.yul\":9910:10106   */\n      swap3\n      swap2\n      pop\n      pop\n      jump\t// out\n        /* \"#utility.yul\":10112:10230   */\n    tag_405:\n        /* \"#utility.yul\":10199:10223   */\n      tag_407\n        /* \"#utility.yul\":10217:10222   */\n      dup2\n        /* \"#utility.yul\":10199:10223   */\n      tag_408\n      jump\t// in\n    tag_407:\n        /* \"#utility.yul\":10194:10197   */\n      dup3\n        /* \"#utility.yul\":10187:10224   */\n      mstore\n        /* \"#utility.yul\":10112:10230   */\n      pop\n      pop\n      jump\t// out\n        /* \"#utility.yul\":10264:11255   */\n    tag_409:\n        /* \"#utility.yul\":10403:10406   */\n      0x00\n        /* \"#utility.yul\":10432:10496   */\n      tag_411\n        /* \"#utility.yul\":10490:10495   */\n      dup3\n        /* \"#utility.yul\":10432:10496   */\n      tag_412\n      jump\t// in\n    tag_411:\n        /* \"#utility.yul\":10512:10608   */\n      tag_413\n        /* \"#utility.yul\":10601:10607   */\n      dup2\n        /* \"#utility.yul\":10596:10599   */\n      dup6\n        /* \"#utility.yul\":10512:10608   */\n      tag_414\n      jump\t// in\n    tag_413:\n        /* \"#utility.yul\":10505:10608   */\n      swap4\n      pop\n        /* \"#utility.yul\":10634:10637   */\n      dup4\n        /* \"#utility.yul\":10679:10683   */\n      0x20\n        /* \"#utility.yul\":10671:10677   */\n      dup3\n        /* \"#utility.yul\":10667:10684   */\n      mul\n        /* \"#utility.yul\":10662:10665   */\n      dup6\n        /* \"#utility.yul\":10658:10685   */\n      add\n        /* \"#utility.yul\":10709:10775   */\n      tag_415\n        /* \"#utility.yul\":10769:10774   */\n      dup6\n        /* \"#utility.yul\":10709:10775   */\n      tag_416\n      jump\t// in\n    tag_415:\n        /* \"#utility.yul\":10798:10805   */\n      dup1\n        /* \"#utility.yul\":10829:10830   */\n      0x00\n        /* \"#utility.yul\":10814:11210   */\n    tag_417:\n        /* \"#utility.yul\":10839:10845   */\n      dup6\n        /* \"#utility.yul\":10836:10837   */\n      dup2\n        /* \"#utility.yul\":10833:10846   */\n      lt\n        /* \"#utility.yul\":10814:11210   */\n      iszero\n      tag_419\n      jumpi\n        /* \"#utility.yul\":10910:10919   */\n      dup5\n        /* \"#utility.yul\":10904:10908   */\n      dup5\n        /* \"#utility.yul\":10900:10920   */\n      sub\n        /* \"#utility.yul\":10895:10898   */\n      dup10\n        /* \"#utility.yul\":10888:10921   */\n      mstore\n        /* \"#utility.yul\":10961:10967   */\n      dup2\n        /* \"#utility.yul\":10955:10968   */\n      mload\n        /* \"#utility.yul\":10989:11073   */\n      tag_420\n        /* \"#utility.yul\":11068:11072   */\n      dup6\n        /* \"#utility.yul\":11053:11066   */\n      dup3\n        /* \"#utility.yul\":10989:11073   */\n      tag_401\n      jump\t// in\n    tag_420:\n        /* \"#utility.yul\":10981:11073   */\n      swap5\n      pop\n        /* \"#utility.yul\":11096:11166   */\n      tag_421\n        /* \"#utility.yul\":11159:11165   */\n      dup4\n        /* \"#utility.yul\":11096:11166   */\n      tag_422\n      jump\t// in\n    tag_421:\n        /* \"#utility.yul\":11086:11166   */\n      swap3\n      pop\n        /* \"#utility.yul\":11195:11199   */\n      0x20\n        /* \"#utility.yul\":11190:11193   */\n      dup11\n        /* \"#utility.yul\":11186:11200   */\n      add\n        /* \"#utility.yul\":11179:11200   */\n      swap10\n      pop\n        /* \"#utility.yul\":10874:11210   */\n      pop\n        /* \"#utility.yul\":10861:10862   */\n      0x01\n        /* \"#utility.yul\":10858:10859   */\n      dup2\n        /* \"#utility.yul\":10854:10863   */\n      add\n        /* \"#utility.yul\":10849:10863   */\n      swap1\n      pop\n        /* \"#utility.yul\":10814:11210   */\n      jump(tag_417)\n    tag_419:\n        /* \"#utility.yul\":10818:10832   */\n      pop\n        /* \"#utility.yul\":11226:11230   */\n      dup3\n        /* \"#utility.yul\":11219:11230   */\n      swap8\n      pop\n        /* \"#utility.yul\":11246:11249   */\n      dup8\n        /* \"#utility.yul\":11239:11249   */\n      swap6\n      pop\n        /* \"#utility.yul\":10408:11255   */\n      pop\n      pop\n      pop\n      pop\n      pop\n        /* \"#utility.yul\":10264:11255   */\n      swap3\n      swap2\n      pop\n      pop\n      jump\t// out\n        /* \"#utility.yul\":11261:11370   */\n    tag_423:\n        /* \"#utility.yul\":11342:11363   */\n      tag_425\n        /* \"#utility.yul\":11357:11362   */\n      dup2\n        /* \"#utility.yul\":11342:11363   */\n      tag_426\n      jump\t// in\n    tag_425:\n        /* \"#utility.yul\":11337:11340   */\n      dup3\n        /* \"#utility.yul\":11330:11364   */\n      mstore\n        /* \"#utility.yul\":11261:11370   */\n      pop\n      pop\n      jump\t// out\n        /* \"#utility.yul\":11376:11736   */\n    tag_427:\n        /* \"#utility.yul\":11462:11465   */\n      0x00\n        /* \"#utility.yul\":11490:11528   */\n      tag_429\n        /* \"#utility.yul\":11522:11527   */\n      dup3\n        /* \"#utility.yul\":11490:11528   */\n      tag_430\n      jump\t// in\n    tag_429:\n        /* \"#utility.yul\":11544:11614   */\n      tag_431\n        /* \"#utility.yul\":11607:11613   */\n      dup2\n        /* \"#utility.yul\":11602:11605   */\n      dup6\n        /* \"#utility.yul\":11544:11614   */\n      tag_432\n      jump\t// in\n    tag_431:\n        /* \"#utility.yul\":11537:11614   */\n      swap4\n      pop\n        /* \"#utility.yul\":11623:11675   */\n      tag_433\n        /* \"#utility.yul\":11668:11674   */\n      dup2\n        /* \"#utility.yul\":11663:11666   */\n      dup6\n        /* \"#utility.yul\":11656:11660   */\n      0x20\n        /* \"#utility.yul\":11649:11654   */\n      dup7\n        /* \"#utility.yul\":11645:11661   */\n      add\n        /* \"#utility.yul\":11623:11675   */\n      tag_434\n      jump\t// in\n    tag_433:\n        /* \"#utility.yul\":11700:11729   */\n      tag_435\n        /* \"#utility.yul\":11722:11728   */\n      dup2\n        /* \"#utility.yul\":11700:11729   */\n      tag_436\n      jump\t// in\n    tag_435:\n        /* \"#utility.yul\":11695:11698   */\n      dup5\n        /* \"#utility.yul\":11691:11730   */\n      add\n        /* \"#utility.yul\":11684:11730   */\n      swap2\n      pop\n        /* \"#utility.yul\":11466:11736   */\n      pop\n        /* \"#utility.yul\":11376:11736   */\n      swap3\n      swap2\n      pop\n      pop\n      jump\t// out\n        /* \"#utility.yul\":11742:12086   */\n    tag_404:\n        /* \"#utility.yul\":11820:11823   */\n      0x00\n        /* \"#utility.yul\":11848:11887   */\n      tag_438\n        /* \"#utility.yul\":11881:11886   */\n      dup3\n        /* \"#utility.yul\":11848:11887   */\n      tag_439\n      jump\t// in\n    tag_438:\n        /* \"#utility.yul\":11903:11964   */\n      tag_440\n        /* \"#utility.yul\":11957:11963   */\n      dup2\n        /* \"#utility.yul\":11952:11955   */\n      dup6\n        /* \"#utility.yul\":11903:11964   */\n      tag_441\n      jump\t// in\n    tag_440:\n        /* \"#utility.yul\":11896:11964   */\n      swap4\n      pop\n        /* \"#utility.yul\":11973:12025   */\n      tag_442\n        /* \"#utility.yul\":12018:12024   */\n      dup2\n        /* \"#utility.yul\":12013:12016   */\n      dup6\n        /* \"#utility.yul\":12006:12010   */\n      0x20\n        /* \"#utility.yul\":11999:12004   */\n      dup7\n        /* \"#utility.yul\":11995:12011   */\n      add\n        /* \"#utility.yul\":11973:12025   */\n      tag_434\n      jump\t// in\n    tag_442:\n        /* \"#utility.yul\":12050:12079   */\n      tag_443\n        /* \"#utility.yul\":12072:12078   */\n      dup2\n        /* \"#utility.yul\":12050:12079   */\n      tag_436\n      jump\t// in\n    tag_443:\n        /* \"#utility.yul\":12045:12048   */\n      dup5\n        /* \"#utility.yul\":12041:12080   */\n      add\n        /* \"#utility.yul\":12034:12080   */\n      swap2\n      pop\n        /* \"#utility.yul\":11824:12086   */\n      pop\n        /* \"#utility.yul\":11742:12086   */\n      swap3\n      swap2\n      pop\n      pop\n      jump\t// out\n        /* \"#utility.yul\":12092:12456   */\n    tag_444:\n        /* \"#utility.yul\":12180:12183   */\n      0x00\n        /* \"#utility.yul\":12208:12247   */\n      tag_446\n        /* \"#utility.yul\":12241:12246   */\n      dup3\n        /* \"#utility.yul\":12208:12247   */\n      tag_439\n      jump\t// in\n    tag_446:\n        /* \"#utility.yul\":12263:12334   */\n      tag_447\n        /* \"#utility.yul\":12327:12333   */\n      dup2\n        /* \"#utility.yul\":12322:12325   */\n      dup6\n        /* \"#utility.yul\":12263:12334   */\n      tag_448\n      jump\t// in\n    tag_447:\n        /* \"#utility.yul\":12256:12334   */\n      swap4\n      pop\n        /* \"#utility.yul\":12343:12395   */\n      tag_449\n        /* \"#utility.yul\":12388:12394   */\n      dup2\n        /* \"#utility.yul\":12383:12386   */\n      dup6\n        /* \"#utility.yul\":12376:12380   */\n      0x20\n        /* \"#utility.yul\":12369:12374   */\n      dup7\n        /* \"#utility.yul\":12365:12381   */\n      add\n        /* \"#utility.yul\":12343:12395   */\n      tag_434\n      jump\t// in\n    tag_449:\n        /* \"#utility.yul\":12420:12449   */\n      tag_450\n        /* \"#utility.yul\":12442:12448   */\n      dup2\n        /* \"#utility.yul\":12420:12449   */\n      tag_436\n      jump\t// in\n    tag_450:\n        /* \"#utility.yul\":12415:12418   */\n      dup5\n        /* \"#utility.yul\":12411:12450   */\n      add\n        /* \"#utility.yul\":12404:12450   */\n      swap2\n      pop\n        /* \"#utility.yul\":12184:12456   */\n      pop\n        /* \"#utility.yul\":12092:12456   */\n      swap3\n      swap2\n      pop\n      pop\n      jump\t// out\n        /* \"#utility.yul\":12462:12839   */\n    tag_451:\n        /* \"#utility.yul\":12568:12571   */\n      0x00\n        /* \"#utility.yul\":12596:12635   */\n      tag_453\n        /* \"#utility.yul\":12629:12634   */\n      dup3\n        /* \"#utility.yul\":12596:12635   */\n      tag_439\n      jump\t// in\n    tag_453:\n        /* \"#utility.yul\":12651:12740   */\n      tag_454\n        /* \"#utility.yul\":12733:12739   */\n      dup2\n        /* \"#utility.yul\":12728:12731   */\n      dup6\n        /* \"#utility.yul\":12651:12740   */\n      tag_455\n      jump\t// in\n    tag_454:\n        /* \"#utility.yul\":12644:12740   */\n      swap4\n      pop\n        /* \"#utility.yul\":12749:12801   */\n      tag_456\n        /* \"#utility.yul\":12794:12800   */\n      dup2\n        /* \"#utility.yul\":12789:12792   */\n      dup6\n        /* \"#utility.yul\":12782:12786   */\n      0x20\n        /* \"#utility.yul\":12775:12780   */\n      dup7\n        /* \"#utility.yul\":12771:12787   */\n      add\n        /* \"#utility.yul\":12749:12801   */\n      tag_434\n      jump\t// in\n    tag_456:\n        /* \"#utility.yul\":12826:12832   */\n      dup1\n        /* \"#utility.yul\":12821:12824   */\n      dup5\n        /* \"#utility.yul\":12817:12833   */\n      add\n        /* \"#utility.yul\":12810:12833   */\n      swap2\n      pop\n        /* \"#utility.yul\":12572:12839   */\n      pop\n        /* \"#utility.yul\":12462:12839   */\n      swap3\n      swap2\n      pop\n      pop\n      jump\t// out\n        /* \"#utility.yul\":12869:13714   */\n    tag_457:\n        /* \"#utility.yul\":12972:12975   */\n      0x00\n        /* \"#utility.yul\":13009:13014   */\n      dup2\n        /* \"#utility.yul\":13003:13015   */\n      sload\n        /* \"#utility.yul\":13038:13074   */\n      tag_459\n        /* \"#utility.yul\":13064:13073   */\n      dup2\n        /* \"#utility.yul\":13038:13074   */\n      tag_168\n      jump\t// in\n    tag_459:\n        /* \"#utility.yul\":13090:13179   */\n      tag_460\n        /* \"#utility.yul\":13172:13178   */\n      dup2\n        /* \"#utility.yul\":13167:13170   */\n      dup7\n        /* \"#utility.yul\":13090:13179   */\n      tag_455\n      jump\t// in\n    tag_460:\n        /* \"#utility.yul\":13083:13179   */\n      swap5\n      pop\n        /* \"#utility.yul\":13210:13211   */\n      0x01\n        /* \"#utility.yul\":13199:13208   */\n      dup3\n        /* \"#utility.yul\":13195:13212   */\n      and\n        /* \"#utility.yul\":13226:13227   */\n      0x00\n        /* \"#utility.yul\":13221:13358   */\n      dup2\n      eq\n      tag_462\n      jumpi\n        /* \"#utility.yul\":13372:13373   */\n      0x01\n        /* \"#utility.yul\":13367:13708   */\n      dup2\n      eq\n      tag_463\n      jumpi\n        /* \"#utility.yul\":13188:13708   */\n      jump(tag_461)\n        /* \"#utility.yul\":13221:13358   */\n    tag_462:\n        /* \"#utility.yul\":13305:13309   */\n      0xff\n        /* \"#utility.yul\":13301:13310   */\n      not\n        /* \"#utility.yul\":13290:13299   */\n      dup4\n        /* \"#utility.yul\":13286:13311   */\n      and\n        /* \"#utility.yul\":13281:13284   */\n      dup7\n        /* \"#utility.yul\":13274:13312   */\n      mstore\n        /* \"#utility.yul\":13341:13347   */\n      dup2\n        /* \"#utility.yul\":13336:13339   */\n      dup7\n        /* \"#utility.yul\":13332:13348   */\n      add\n        /* \"#utility.yul\":13325:13348   */\n      swap4\n      pop\n        /* \"#utility.yul\":13221:13358   */\n      jump(tag_461)\n        /* \"#utility.yul\":13367:13708   */\n    tag_463:\n        /* \"#utility.yul\":13434:13472   */\n      tag_464\n        /* \"#utility.yul\":13466:13471   */\n      dup6\n        /* \"#utility.yul\":13434:13472   */\n      tag_465\n      jump\t// in\n    tag_464:\n        /* \"#utility.yul\":13494:13495   */\n      0x00\n        /* \"#utility.yul\":13508:13662   */\n    tag_466:\n        /* \"#utility.yul\":13522:13528   */\n      dup4\n        /* \"#utility.yul\":13519:13520   */\n      dup2\n        /* \"#utility.yul\":13516:13529   */\n      lt\n        /* \"#utility.yul\":13508:13662   */\n      iszero\n      tag_468\n      jumpi\n        /* \"#utility.yul\":13596:13603   */\n      dup2\n        /* \"#utility.yul\":13590:13604   */\n      sload\n        /* \"#utility.yul\":13586:13587   */\n      dup2\n        /* \"#utility.yul\":13581:13584   */\n      dup10\n        /* \"#utility.yul\":13577:13588   */\n      add\n        /* \"#utility.yul\":13570:13605   */\n      mstore\n        /* \"#utility.yul\":13646:13647   */\n      0x01\n        /* \"#utility.yul\":13637:13644   */\n      dup3\n        /* \"#utility.yul\":13633:13648   */\n      add\n        /* \"#utility.yul\":13622:13648   */\n      swap2\n      pop\n        /* \"#utility.yul\":13544:13548   */\n      0x20\n        /* \"#utility.yul\":13541:13542   */\n      dup2\n        /* \"#utility.yul\":13537:13549   */\n      add\n        /* \"#utility.yul\":13532:13549   */\n      swap1\n      pop\n        /* \"#utility.yul\":13508:13662   */\n      jump(tag_466)\n    tag_468:\n        /* \"#utility.yul\":13691:13697   */\n      dup4\n        /* \"#utility.yul\":13686:13689   */\n      dup9\n        /* \"#utility.yul\":13682:13698   */\n      add\n        /* \"#utility.yul\":13675:13698   */\n      swap6\n      pop\n        /* \"#utility.yul\":13374:13708   */\n      pop\n      pop\n        /* \"#utility.yul\":13188:13708   */\n    tag_461:\n      pop\n        /* \"#utility.yul\":12976:13714   */\n      pop\n      pop\n        /* \"#utility.yul\":12869:13714   */\n      swap3\n      swap2\n      pop\n      pop\n      jump\t// out\n        /* \"#utility.yul\":13720:14086   */\n    tag_469:\n        /* \"#utility.yul\":13862:13865   */\n      0x00\n        /* \"#utility.yul\":13883:13950   */\n      tag_471\n        /* \"#utility.yul\":13947:13949   */\n      0x24\n        /* \"#utility.yul\":13942:13945   */\n      dup4\n        /* \"#utility.yul\":13883:13950   */\n      tag_448\n      jump\t// in\n    tag_471:\n        /* \"#utility.yul\":13876:13950   */\n      swap2\n      pop\n        /* \"#utility.yul\":13959:14052   */\n      tag_472\n        /* \"#utility.yul\":14048:14051   */\n      dup3\n        /* \"#utility.yul\":13959:14052   */\n      tag_473\n      jump\t// in\n    tag_472:\n        /* \"#utility.yul\":14077:14079   */\n      0x40\n        /* \"#utility.yul\":14072:14075   */\n      dup3\n        /* \"#utility.yul\":14068:14080   */\n      add\n        /* \"#utility.yul\":14061:14080   */\n      swap1\n      pop\n        /* \"#utility.yul\":13720:14086   */\n      swap2\n      swap1\n      pop\n      jump\t// out\n        /* \"#utility.yul\":14092:14458   */\n    tag_474:\n        /* \"#utility.yul\":14234:14237   */\n      0x00\n        /* \"#utility.yul\":14255:14322   */\n      tag_476\n        /* \"#utility.yul\":14319:14321   */\n      0x19\n        /* \"#utility.yul\":14314:14317   */\n      dup4\n        /* \"#utility.yul\":14255:14322   */\n      tag_448\n      jump\t// in\n    tag_476:\n        /* \"#utility.yul\":14248:14322   */\n      swap2\n      pop\n        /* \"#utility.yul\":14331:14424   */\n      tag_477\n        /* \"#utility.yul\":14420:14423   */\n      dup3\n        /* \"#utility.yul\":14331:14424   */\n      tag_478\n      jump\t// in\n    tag_477:\n        /* \"#utility.yul\":14449:14451   */\n      0x20\n        /* \"#utility.yul\":14444:14447   */\n      dup3\n        /* \"#utility.yul\":14440:14452   */\n      add\n        /* \"#utility.yul\":14433:14452   */\n      swap1\n      pop\n        /* \"#utility.yul\":14092:14458   */\n      swap2\n      swap1\n      pop\n      jump\t// out\n        /* \"#utility.yul\":14464:14830   */\n    tag_479:\n        /* \"#utility.yul\":14606:14609   */\n      0x00\n        /* \"#utility.yul\":14627:14694   */\n      tag_481\n        /* \"#utility.yul\":14691:14693   */\n      0x38\n        /* \"#utility.yul\":14686:14689   */\n      dup4\n        /* \"#utility.yul\":14627:14694   */\n      tag_448\n      jump\t// in\n    tag_481:\n        /* \"#utility.yul\":14620:14694   */\n      swap2\n      pop\n        /* \"#utility.yul\":14703:14796   */\n      tag_482\n        /* \"#utility.yul\":14792:14795   */\n      dup3\n        /* \"#utility.yul\":14703:14796   */\n      tag_483\n      jump\t// in\n    tag_482:\n        /* \"#utility.yul\":14821:14823   */\n      0x40\n        /* \"#utility.yul\":14816:14819   */\n      dup3\n        /* \"#utility.yul\":14812:14824   */\n      add\n        /* \"#utility.yul\":14805:14824   */\n      swap1\n      pop\n        /* \"#utility.yul\":14464:14830   */\n      swap2\n      swap1\n      pop\n      jump\t// out\n        /* \"#utility.yul\":14836:15202   */\n    tag_484:\n        /* \"#utility.yul\":14978:14981   */\n      0x00\n        /* \"#utility.yul\":14999:15066   */\n      tag_486\n        /* \"#utility.yul\":15063:15065   */\n      0x29\n        /* \"#utility.yul\":15058:15061   */\n      dup4\n        /* \"#utility.yul\":14999:15066   */\n      tag_448\n      jump\t// in\n    tag_486:\n        /* \"#utility.yul\":14992:15066   */\n      swap2\n      pop\n        /* \"#utility.yul\":15075:15168   */\n      tag_487\n        /* \"#utility.yul\":15164:15167   */\n      dup3\n        /* \"#utility.yul\":15075:15168   */\n      tag_488\n      jump\t// in\n    tag_487:\n        /* \"#utility.yul\":15193:15195   */\n      0x40\n        /* \"#utility.yul\":15188:15191   */\n      dup3\n        /* \"#utility.yul\":15184:15196   */\n      add\n        /* \"#utility.yul\":15177:15196   */\n      swap1\n      pop\n        /* \"#utility.yul\":14836:15202   */\n      swap2\n      swap1\n      pop\n      jump\t// out\n        /* \"#utility.yul\":15208:15574   */\n    tag_489:\n        /* \"#utility.yul\":15350:15353   */\n      0x00\n        /* \"#utility.yul\":15371:15438   */\n      tag_491\n        /* \"#utility.yul\":15435:15437   */\n      0x21\n        /* \"#utility.yul\":15430:15433   */\n      dup4\n        /* \"#utility.yul\":15371:15438   */\n      tag_448\n      jump\t// in\n    tag_491:\n        /* \"#utility.yul\":15364:15438   */\n      swap2\n      pop\n        /* \"#utility.yul\":15447:15540   */\n      tag_492\n        /* \"#utility.yul\":15536:15539   */\n      dup3\n        /* \"#utility.yul\":15447:15540   */\n      tag_493\n      jump\t// in\n    tag_492:\n        /* \"#utility.yul\":15565:15567   */\n      0x40\n        /* \"#utility.yul\":15560:15563   */\n      dup3\n        /* \"#utility.yul\":15556:15568   */\n      add\n        /* \"#utility.yul\":15549:15568   */\n      swap1\n      pop\n        /* \"#utility.yul\":15208:15574   */\n      swap2\n      swap1\n      pop\n      jump\t// out\n        /* \"#utility.yul\":15580:15946   */\n    tag_494:\n        /* \"#utility.yul\":15722:15725   */\n      0x00\n        /* \"#utility.yul\":15743:15810   */\n      tag_496\n        /* \"#utility.yul\":15807:15809   */\n      0x31\n        /* \"#utility.yul\":15802:15805   */\n      dup4\n        /* \"#utility.yul\":15743:15810   */\n      tag_448\n      jump\t// in\n    tag_496:\n        /* \"#utility.yul\":15736:15810   */\n      swap2\n      pop\n        /* \"#utility.yul\":15819:15912   */\n      tag_497\n        /* \"#utility.yul\":15908:15911   */\n      dup3\n        /* \"#utility.yul\":15819:15912   */\n      tag_498\n      jump\t// in\n    tag_497:\n        /* \"#utility.yul\":15937:15939   */\n      0x40\n        /* \"#utility.yul\":15932:15935   */\n      dup3\n        /* \"#utility.yul\":15928:15940   */\n      add\n        /* \"#utility.yul\":15921:15940   */\n      swap1\n      pop\n        /* \"#utility.yul\":15580:15946   */\n      swap2\n      swap1\n      pop\n      jump\t// out\n        /* \"#utility.yul\":15952:16318   */\n    tag_499:\n        /* \"#utility.yul\":16094:16097   */\n      0x00\n        /* \"#utility.yul\":16115:16182   */\n      tag_501\n        /* \"#utility.yul\":16179:16181   */\n      0x13\n        /* \"#utility.yul\":16174:16177   */\n      dup4\n        /* \"#utility.yul\":16115:16182   */\n      tag_448\n      jump\t// in\n    tag_501:\n        /* \"#utility.yul\":16108:16182   */\n      swap2\n      pop\n        /* \"#utility.yul\":16191:16284   */\n      tag_502\n        /* \"#utility.yul\":16280:16283   */\n      dup3\n        /* \"#utility.yul\":16191:16284   */\n      tag_503\n      jump\t// in\n    tag_502:\n        /* \"#utility.yul\":16309:16311   */\n      0x20\n        /* \"#utility.yul\":16304:16307   */\n      dup3\n        /* \"#utility.yul\":16300:16312   */\n      add\n        /* \"#utility.yul\":16293:16312   */\n      swap1\n      pop\n        /* \"#utility.yul\":15952:16318   */\n      swap2\n      swap1\n      pop\n      jump\t// out\n        /* \"#utility.yul\":16324:16690   */\n    tag_504:\n        /* \"#utility.yul\":16466:16469   */\n      0x00\n        /* \"#utility.yul\":16487:16554   */\n      tag_506\n        /* \"#utility.yul\":16551:16553   */\n      0x18\n        /* \"#utility.yul\":16546:16549   */\n      dup4\n        /* \"#utility.yul\":16487:16554   */\n      tag_448\n      jump\t// in\n    tag_506:\n        /* \"#utility.yul\":16480:16554   */\n      swap2\n      pop\n        /* \"#utility.yul\":16563:16656   */\n      tag_507\n        /* \"#utility.yul\":16652:16655   */\n      dup3\n        /* \"#utility.yul\":16563:16656   */\n      tag_508\n      jump\t// in\n    tag_507:\n        /* \"#utility.yul\":16681:16683   */\n      0x20\n        /* \"#utility.yul\":16676:16679   */\n      dup3\n        /* \"#utility.yul\":16672:16684   */\n      add\n        /* \"#utility.yul\":16665:16684   */\n      swap1\n      pop\n        /* \"#utility.yul\":16324:16690   */\n      swap2\n      swap1\n      pop\n      jump\t// out\n        /* \"#utility.yul\":16696:16814   */\n    tag_509:\n        /* \"#utility.yul\":16783:16807   */\n      tag_511\n        /* \"#utility.yul\":16801:16806   */\n      dup2\n        /* \"#utility.yul\":16783:16807   */\n      tag_512\n      jump\t// in\n    tag_511:\n        /* \"#utility.yul\":16778:16781   */\n      dup3\n        /* \"#utility.yul\":16771:16808   */\n      mstore\n        /* \"#utility.yul\":16696:16814   */\n      pop\n      pop\n      jump\t// out\n        /* \"#utility.yul\":16820:17249   */\n    tag_134:\n        /* \"#utility.yul\":16997:17000   */\n      0x00\n        /* \"#utility.yul\":17019:17114   */\n      tag_514\n        /* \"#utility.yul\":17110:17113   */\n      dup3\n        /* \"#utility.yul\":17101:17107   */\n      dup6\n        /* \"#utility.yul\":17019:17114   */\n      tag_451\n      jump\t// in\n    tag_514:\n        /* \"#utility.yul\":17012:17114   */\n      swap2\n      pop\n        /* \"#utility.yul\":17131:17223   */\n      tag_515\n        /* \"#utility.yul\":17219:17222   */\n      dup3\n        /* \"#utility.yul\":17210:17216   */\n      dup5\n        /* \"#utility.yul\":17131:17223   */\n      tag_457\n      jump\t// in\n    tag_515:\n        /* \"#utility.yul\":17124:17223   */\n      swap2\n      pop\n        /* \"#utility.yul\":17240:17243   */\n      dup2\n        /* \"#utility.yul\":17233:17243   */\n      swap1\n      pop\n        /* \"#utility.yul\":16820:17249   */\n      swap4\n      swap3\n      pop\n      pop\n      pop\n      jump\t// out\n        /* \"#utility.yul\":17255:17524   */\n    tag_227:\n        /* \"#utility.yul\":17384:17387   */\n      0x00\n        /* \"#utility.yul\":17406:17498   */\n      tag_517\n        /* \"#utility.yul\":17494:17497   */\n      dup3\n        /* \"#utility.yul\":17485:17491   */\n      dup5\n        /* \"#utility.yul\":17406:17498   */\n      tag_457\n      jump\t// in\n    tag_517:\n        /* \"#utility.yul\":17399:17498   */\n      swap2\n      pop\n        /* \"#utility.yul\":17515:17518   */\n      dup2\n        /* \"#utility.yul\":17508:17518   */\n      swap1\n      pop\n        /* \"#utility.yul\":17255:17524   */\n      swap3\n      swap2\n      pop\n      pop\n      jump\t// out\n        /* \"#utility.yul\":17530:17752   */\n    tag_33:\n        /* \"#utility.yul\":17623:17627   */\n      0x00\n        /* \"#utility.yul\":17661:17663   */\n      0x20\n        /* \"#utility.yul\":17650:17659   */\n      dup3\n        /* \"#utility.yul\":17646:17664   */\n      add\n        /* \"#utility.yul\":17638:17664   */\n      swap1\n      pop\n        /* \"#utility.yul\":17674:17745   */\n      tag_519\n        /* \"#utility.yul\":17742:17743   */\n      0x00\n        /* \"#utility.yul\":17731:17740   */\n      dup4\n        /* \"#utility.yul\":17727:17744   */\n      add\n        /* \"#utility.yul\":17718:17724   */\n      dup5\n        /* \"#utility.yul\":17674:17745   */\n      tag_405\n      jump\t// in\n    tag_519:\n        /* \"#utility.yul\":17530:17752   */\n      swap3\n      swap2\n      pop\n      pop\n      jump\t// out\n        /* \"#utility.yul\":17758:18398   */\n    tag_206:\n        /* \"#utility.yul\":17953:17957   */\n      0x00\n        /* \"#utility.yul\":17991:17994   */\n      0x80\n        /* \"#utility.yul\":17980:17989   */\n      dup3\n        /* \"#utility.yul\":17976:17995   */\n      add\n        /* \"#utility.yul\":17968:17995   */\n      swap1\n      pop\n        /* \"#utility.yul\":18005:18076   */\n      tag_521\n        /* \"#utility.yul\":18073:18074   */\n      0x00\n        /* \"#utility.yul\":18062:18071   */\n      dup4\n        /* \"#utility.yul\":18058:18075   */\n      add\n        /* \"#utility.yul\":18049:18055   */\n      dup8\n        /* \"#utility.yul\":18005:18076   */\n      tag_405\n      jump\t// in\n    tag_521:\n        /* \"#utility.yul\":18086:18158   */\n      tag_522\n        /* \"#utility.yul\":18154:18156   */\n      0x20\n        /* \"#utility.yul\":18143:18152   */\n      dup4\n        /* \"#utility.yul\":18139:18157   */\n      add\n        /* \"#utility.yul\":18130:18136   */\n      dup7\n        /* \"#utility.yul\":18086:18158   */\n      tag_405\n      jump\t// in\n    tag_522:\n        /* \"#utility.yul\":18168:18240   */\n      tag_523\n        /* \"#utility.yul\":18236:18238   */\n      0x40\n        /* \"#utility.yul\":18225:18234   */\n      dup4\n        /* \"#utility.yul\":18221:18239   */\n      add\n        /* \"#utility.yul\":18212:18218   */\n      dup6\n        /* \"#utility.yul\":18168:18240   */\n      tag_509\n      jump\t// in\n    tag_523:\n        /* \"#utility.yul\":18287:18296   */\n      dup2\n        /* \"#utility.yul\":18281:18285   */\n      dup2\n        /* \"#utility.yul\":18277:18297   */\n      sub\n        /* \"#utility.yul\":18272:18274   */\n      0x60\n        /* \"#utility.yul\":18261:18270   */\n      dup4\n        /* \"#utility.yul\":18257:18275   */\n      add\n        /* \"#utility.yul\":18250:18298   */\n      mstore\n        /* \"#utility.yul\":18315:18391   */\n      tag_524\n        /* \"#utility.yul\":18386:18390   */\n      dup2\n        /* \"#utility.yul\":18377:18383   */\n      dup5\n        /* \"#utility.yul\":18315:18391   */\n      tag_427\n      jump\t// in\n    tag_524:\n        /* \"#utility.yul\":18307:18391   */\n      swap1\n      pop\n        /* \"#utility.yul\":17758:18398   */\n      swap6\n      swap5\n      pop\n      pop\n      pop\n      pop\n      pop\n      jump\t// out\n        /* \"#utility.yul\":18404:18817   */\n    tag_83:\n        /* \"#utility.yul\":18567:18571   */\n      0x00\n        /* \"#utility.yul\":18605:18607   */\n      0x20\n        /* \"#utility.yul\":18594:18603   */\n      dup3\n        /* \"#utility.yul\":18590:18608   */\n      add\n        /* \"#utility.yul\":18582:18608   */\n      swap1\n      pop\n        /* \"#utility.yul\":18654:18663   */\n      dup2\n        /* \"#utility.yul\":18648:18652   */\n      dup2\n        /* \"#utility.yul\":18644:18664   */\n      sub\n        /* \"#utility.yul\":18640:18641   */\n      0x00\n        /* \"#utility.yul\":18629:18638   */\n      dup4\n        /* \"#utility.yul\":18625:18642   */\n      add\n        /* \"#utility.yul\":18618:18665   */\n      mstore\n        /* \"#utility.yul\":18682:18810   */\n      tag_526\n        /* \"#utility.yul\":18805:18809   */\n      dup2\n        /* \"#utility.yul\":18796:18802   */\n      dup5\n        /* \"#utility.yul\":18682:18810   */\n      tag_409\n      jump\t// in\n    tag_526:\n        /* \"#utility.yul\":18674:18810   */\n      swap1\n      pop\n        /* \"#utility.yul\":18404:18817   */\n      swap3\n      swap2\n      pop\n      pop\n      jump\t// out\n        /* \"#utility.yul\":18823:19033   */\n    tag_26:\n        /* \"#utility.yul\":18910:18914   */\n      0x00\n        /* \"#utility.yul\":18948:18950   */\n      0x20\n        /* \"#utility.yul\":18937:18946   */\n      dup3\n        /* \"#utility.yul\":18933:18951   */\n      add\n        /* \"#utility.yul\":18925:18951   */\n      swap1\n      pop\n        /* \"#utility.yul\":18961:19026   */\n      tag_528\n        /* \"#utility.yul\":19023:19024   */\n      0x00\n        /* \"#utility.yul\":19012:19021   */\n      dup4\n        /* \"#utility.yul\":19008:19025   */\n      add\n        /* \"#utility.yul\":18999:19005   */\n      dup5\n        /* \"#utility.yul\":18961:19026   */\n      tag_423\n      jump\t// in\n    tag_528:\n        /* \"#utility.yul\":18823:19033   */\n      swap3\n      swap2\n      pop\n      pop\n      jump\t// out\n        /* \"#utility.yul\":19039:19352   */\n    tag_58:\n        /* \"#utility.yul\":19152:19156   */\n      0x00\n        /* \"#utility.yul\":19190:19192   */\n      0x20\n        /* \"#utility.yul\":19179:19188   */\n      dup3\n        /* \"#utility.yul\":19175:19193   */\n      add\n        /* \"#utility.yul\":19167:19193   */\n      swap1\n      pop\n        /* \"#utility.yul\":19239:19248   */\n      dup2\n        /* \"#utility.yul\":19233:19237   */\n      dup2\n        /* \"#utility.yul\":19229:19249   */\n      sub\n        /* \"#utility.yul\":19225:19226   */\n      0x00\n        /* \"#utility.yul\":19214:19223   */\n      dup4\n        /* \"#utility.yul\":19210:19227   */\n      add\n        /* \"#utility.yul\":19203:19250   */\n      mstore\n        /* \"#utility.yul\":19267:19345   */\n      tag_530\n        /* \"#utility.yul\":19340:19344   */\n      dup2\n        /* \"#utility.yul\":19331:19337   */\n      dup5\n        /* \"#utility.yul\":19267:19345   */\n      tag_444\n      jump\t// in\n    tag_530:\n        /* \"#utility.yul\":19259:19345   */\n      swap1\n      pop\n        /* \"#utility.yul\":19039:19352   */\n      swap3\n      swap2\n      pop\n      pop\n      jump\t// out\n        /* \"#utility.yul\":19358:19777   */\n    tag_220:\n        /* \"#utility.yul\":19524:19528   */\n      0x00\n        /* \"#utility.yul\":19562:19564   */\n      0x20\n        /* \"#utility.yul\":19551:19560   */\n      dup3\n        /* \"#utility.yul\":19547:19565   */\n      add\n        /* \"#utility.yul\":19539:19565   */\n      swap1\n      pop\n        /* \"#utility.yul\":19611:19620   */\n      dup2\n        /* \"#utility.yul\":19605:19609   */\n      dup2\n        /* \"#utility.yul\":19601:19621   */\n      sub\n        /* \"#utility.yul\":19597:19598   */\n      0x00\n        /* \"#utility.yul\":19586:19595   */\n      dup4\n        /* \"#utility.yul\":19582:19599   */\n      add\n        /* \"#utility.yul\":19575:19622   */\n      mstore\n        /* \"#utility.yul\":19639:19770   */\n      tag_532\n        /* \"#utility.yul\":19765:19769   */\n      dup2\n        /* \"#utility.yul\":19639:19770   */\n      tag_469\n      jump\t// in\n    tag_532:\n        /* \"#utility.yul\":19631:19770   */\n      swap1\n      pop\n        /* \"#utility.yul\":19358:19777   */\n      swap2\n      swap1\n      pop\n      jump\t// out\n        /* \"#utility.yul\":19783:20202   */\n    tag_176:\n        /* \"#utility.yul\":19949:19953   */\n      0x00\n        /* \"#utility.yul\":19987:19989   */\n      0x20\n        /* \"#utility.yul\":19976:19985   */\n      dup3\n        /* \"#utility.yul\":19972:19990   */\n      add\n        /* \"#utility.yul\":19964:19990   */\n      swap1\n      pop\n        /* \"#utility.yul\":20036:20045   */\n      dup2\n        /* \"#utility.yul\":20030:20034   */\n      dup2\n        /* \"#utility.yul\":20026:20046   */\n      sub\n        /* \"#utility.yul\":20022:20023   */\n      0x00\n        /* \"#utility.yul\":20011:20020   */\n      dup4\n        /* \"#utility.yul\":20007:20024   */\n      add\n        /* \"#utility.yul\":20000:20047   */\n      mstore\n        /* \"#utility.yul\":20064:20195   */\n      tag_534\n        /* \"#utility.yul\":20190:20194   */\n      dup2\n        /* \"#utility.yul\":20064:20195   */\n      tag_474\n      jump\t// in\n    tag_534:\n        /* \"#utility.yul\":20056:20195   */\n      swap1\n      pop\n        /* \"#utility.yul\":19783:20202   */\n      swap2\n      swap1\n      pop\n      jump\t// out\n        /* \"#utility.yul\":20208:20627   */\n    tag_112:\n        /* \"#utility.yul\":20374:20378   */\n      0x00\n        /* \"#utility.yul\":20412:20414   */\n      0x20\n        /* \"#utility.yul\":20401:20410   */\n      dup3\n        /* \"#utility.yul\":20397:20415   */\n      add\n        /* \"#utility.yul\":20389:20415   */\n      swap1\n      pop\n        /* \"#utility.yul\":20461:20470   */\n      dup2\n        /* \"#utility.yul\":20455:20459   */\n      dup2\n        /* \"#utility.yul\":20451:20471   */\n      sub\n        /* \"#utility.yul\":20447:20448   */\n      0x00\n        /* \"#utility.yul\":20436:20445   */\n      dup4\n        /* \"#utility.yul\":20432:20449   */\n      add\n        /* \"#utility.yul\":20425:20472   */\n      mstore\n        /* \"#utility.yul\":20489:20620   */\n      tag_536\n        /* \"#utility.yul\":20615:20619   */\n      dup2\n        /* \"#utility.yul\":20489:20620   */\n      tag_479\n      jump\t// in\n    tag_536:\n        /* \"#utility.yul\":20481:20620   */\n      swap1\n      pop\n        /* \"#utility.yul\":20208:20627   */\n      swap2\n      swap1\n      pop\n      jump\t// out\n        /* \"#utility.yul\":20633:21052   */\n    tag_217:\n        /* \"#utility.yul\":20799:20803   */\n      0x00\n        /* \"#utility.yul\":20837:20839   */\n      0x20\n        /* \"#utility.yul\":20826:20835   */\n      dup3\n        /* \"#utility.yul\":20822:20840   */\n      add\n        /* \"#utility.yul\":20814:20840   */\n      swap1\n      pop\n        /* \"#utility.yul\":20886:20895   */\n      dup2\n        /* \"#utility.yul\":20880:20884   */\n      dup2\n        /* \"#utility.yul\":20876:20896   */\n      sub\n        /* \"#utility.yul\":20872:20873   */\n      0x00\n        /* \"#utility.yul\":20861:20870   */\n      dup4\n        /* \"#utility.yul\":20857:20874   */\n      add\n        /* \"#utility.yul\":20850:20897   */\n      mstore\n        /* \"#utility.yul\":20914:21045   */\n      tag_538\n        /* \"#utility.yul\":21040:21044   */\n      dup2\n        /* \"#utility.yul\":20914:21045   */\n      tag_484\n      jump\t// in\n    tag_538:\n        /* \"#utility.yul\":20906:21045   */\n      swap1\n      pop\n        /* \"#utility.yul\":20633:21052   */\n      swap2\n      swap1\n      pop\n      jump\t// out\n        /* \"#utility.yul\":21058:21477   */\n    tag_105:\n        /* \"#utility.yul\":21224:21228   */\n      0x00\n        /* \"#utility.yul\":21262:21264   */\n      0x20\n        /* \"#utility.yul\":21251:21260   */\n      dup3\n        /* \"#utility.yul\":21247:21265   */\n      add\n        /* \"#utility.yul\":21239:21265   */\n      swap1\n      pop\n        /* \"#utility.yul\":21311:21320   */\n      dup2\n        /* \"#utility.yul\":21305:21309   */\n      dup2\n        /* \"#utility.yul\":21301:21321   */\n      sub\n        /* \"#utility.yul\":21297:21298   */\n      0x00\n        /* \"#utility.yul\":21286:21295   */\n      dup4\n        /* \"#utility.yul\":21282:21299   */\n      add\n        /* \"#utility.yul\":21275:21322   */\n      mstore\n        /* \"#utility.yul\":21339:21470   */\n      tag_540\n        /* \"#utility.yul\":21465:21469   */\n      dup2\n        /* \"#utility.yul\":21339:21470   */\n      tag_489\n      jump\t// in\n    tag_540:\n        /* \"#utility.yul\":21331:21470   */\n      swap1\n      pop\n        /* \"#utility.yul\":21058:21477   */\n      swap2\n      swap1\n      pop\n      jump\t// out\n        /* \"#utility.yul\":21483:21902   */\n    tag_183:\n        /* \"#utility.yul\":21649:21653   */\n      0x00\n        /* \"#utility.yul\":21687:21689   */\n      0x20\n        /* \"#utility.yul\":21676:21685   */\n      dup3\n        /* \"#utility.yul\":21672:21690   */\n      add\n        /* \"#utility.yul\":21664:21690   */\n      swap1\n      pop\n        /* \"#utility.yul\":21736:21745   */\n      dup2\n        /* \"#utility.yul\":21730:21734   */\n      dup2\n        /* \"#utility.yul\":21726:21746   */\n      sub\n        /* \"#utility.yul\":21722:21723   */\n      0x00\n        /* \"#utility.yul\":21711:21720   */\n      dup4\n        /* \"#utility.yul\":21707:21724   */\n      add\n        /* \"#utility.yul\":21700:21747   */\n      mstore\n        /* \"#utility.yul\":21764:21895   */\n      tag_542\n        /* \"#utility.yul\":21890:21894   */\n      dup2\n        /* \"#utility.yul\":21764:21895   */\n      tag_494\n      jump\t// in\n    tag_542:\n        /* \"#utility.yul\":21756:21895   */\n      swap1\n      pop\n        /* \"#utility.yul\":21483:21902   */\n      swap2\n      swap1\n      pop\n      jump\t// out\n        /* \"#utility.yul\":21908:22327   */\n    tag_146:\n        /* \"#utility.yul\":22074:22078   */\n      0x00\n        /* \"#utility.yul\":22112:22114   */\n      0x20\n        /* \"#utility.yul\":22101:22110   */\n      dup3\n        /* \"#utility.yul\":22097:22115   */\n      add\n        /* \"#utility.yul\":22089:22115   */\n      swap1\n      pop\n        /* \"#utility.yul\":22161:22170   */\n      dup2\n        /* \"#utility.yul\":22155:22159   */\n      dup2\n        /* \"#utility.yul\":22151:22171   */\n      sub\n        /* \"#utility.yul\":22147:22148   */\n      0x00\n        /* \"#utility.yul\":22136:22145   */\n      dup4\n        /* \"#utility.yul\":22132:22149   */\n      add\n        /* \"#utility.yul\":22125:22172   */\n      mstore\n        /* \"#utility.yul\":22189:22320   */\n      tag_544\n        /* \"#utility.yul\":22315:22319   */\n      dup2\n        /* \"#utility.yul\":22189:22320   */\n      tag_499\n      jump\t// in\n    tag_544:\n        /* \"#utility.yul\":22181:22320   */\n      swap1\n      pop\n        /* \"#utility.yul\":21908:22327   */\n      swap2\n      swap1\n      pop\n      jump\t// out\n        /* \"#utility.yul\":22333:22752   */\n    tag_140:\n        /* \"#utility.yul\":22499:22503   */\n      0x00\n        /* \"#utility.yul\":22537:22539   */\n      0x20\n        /* \"#utility.yul\":22526:22535   */\n      dup3\n        /* \"#utility.yul\":22522:22540   */\n      add\n        /* \"#utility.yul\":22514:22540   */\n      swap1\n      pop\n        /* \"#utility.yul\":22586:22595   */\n      dup2\n        /* \"#utility.yul\":22580:22584   */\n      dup2\n        /* \"#utility.yul\":22576:22596   */\n      sub\n        /* \"#utility.yul\":22572:22573   */\n      0x00\n        /* \"#utility.yul\":22561:22570   */\n      dup4\n        /* \"#utility.yul\":22557:22574   */\n      add\n        /* \"#utility.yul\":22550:22597   */\n      mstore\n        /* \"#utility.yul\":22614:22745   */\n      tag_546\n        /* \"#utility.yul\":22740:22744   */\n      dup2\n        /* \"#utility.yul\":22614:22745   */\n      tag_504\n      jump\t// in\n    tag_546:\n        /* \"#utility.yul\":22606:22745   */\n      swap1\n      pop\n        /* \"#utility.yul\":22333:22752   */\n      swap2\n      swap1\n      pop\n      jump\t// out\n        /* \"#utility.yul\":22758:22980   */\n    tag_48:\n        /* \"#utility.yul\":22851:22855   */\n      0x00\n        /* \"#utility.yul\":22889:22891   */\n      0x20\n        /* \"#utility.yul\":22878:22887   */\n      dup3\n        /* \"#utility.yul\":22874:22892   */\n      add\n        /* \"#utility.yul\":22866:22892   */\n      swap1\n      pop\n        /* \"#utility.yul\":22902:22973   */\n      tag_548\n        /* \"#utility.yul\":22970:22971   */\n      0x00\n        /* \"#utility.yul\":22959:22968   */\n      dup4\n        /* \"#utility.yul\":22955:22972   */\n      add\n        /* \"#utility.yul\":22946:22952   */\n      dup5\n        /* \"#utility.yul\":22902:22973   */\n      tag_509\n      jump\t// in\n    tag_548:\n        /* \"#utility.yul\":22758:22980   */\n      swap3\n      swap2\n      pop\n      pop\n      jump\t// out\n        /* \"#utility.yul\":22986:23115   */\n    tag_269:\n        /* \"#utility.yul\":23020:23026   */\n      0x00\n        /* \"#utility.yul\":23047:23067   */\n      tag_550\n      tag_551\n      jump\t// in\n    tag_550:\n        /* \"#utility.yul\":23037:23067   */\n      swap1\n      pop\n        /* \"#utility.yul\":23076:23109   */\n      tag_552\n        /* \"#utility.yul\":23104:23108   */\n      dup3\n        /* \"#utility.yul\":23096:23102   */\n      dup3\n        /* \"#utility.yul\":23076:23109   */\n      tag_553\n      jump\t// in\n    tag_552:\n        /* \"#utility.yul\":22986:23115   */\n      swap2\n      swap1\n      pop\n      jump\t// out\n        /* \"#utility.yul\":23121:23196   */\n    tag_551:\n        /* \"#utility.yul\":23154:23160   */\n      0x00\n        /* \"#utility.yul\":23187:23189   */\n      0x40\n        /* \"#utility.yul\":23181:23190   */\n      mload\n        /* \"#utility.yul\":23171:23190   */\n      swap1\n      pop\n        /* \"#utility.yul\":23121:23196   */\n      swap1\n      jump\t// out\n        /* \"#utility.yul\":23202:23523   */\n    tag_268:\n        /* \"#utility.yul\":23289:23293   */\n      0x00\n        /* \"#utility.yul\":23379:23397   */\n      0xffffffffffffffff\n        /* \"#utility.yul\":23371:23377   */\n      dup3\n        /* \"#utility.yul\":23368:23398   */\n      gt\n        /* \"#utility.yul\":23365:23421   */\n      iszero\n      tag_556\n      jumpi\n        /* \"#utility.yul\":23401:23419   */\n      tag_557\n      tag_558\n      jump\t// in\n    tag_557:\n        /* \"#utility.yul\":23365:23421   */\n    tag_556:\n        /* \"#utility.yul\":23451:23455   */\n      0x20\n        /* \"#utility.yul\":23443:23449   */\n      dup3\n        /* \"#utility.yul\":23439:23456   */\n      mul\n        /* \"#utility.yul\":23431:23456   */\n      swap1\n      pop\n        /* \"#utility.yul\":23511:23515   */\n      0x20\n        /* \"#utility.yul\":23505:23509   */\n      dup2\n        /* \"#utility.yul\":23501:23516   */\n      add\n        /* \"#utility.yul\":23493:23516   */\n      swap1\n      pop\n        /* \"#utility.yul\":23202:23523   */\n      swap2\n      swap1\n      pop\n      jump\t// out\n        /* \"#utility.yul\":23529:23836   */\n    tag_285:\n        /* \"#utility.yul\":23590:23594   */\n      0x00\n        /* \"#utility.yul\":23680:23698   */\n      0xffffffffffffffff\n        /* \"#utility.yul\":23672:23678   */\n      dup3\n        /* \"#utility.yul\":23669:23699   */\n      gt\n        /* \"#utility.yul\":23666:23722   */\n      iszero\n      tag_560\n      jumpi\n        /* \"#utility.yul\":23702:23720   */\n      tag_561\n      tag_558\n      jump\t// in\n    tag_561:\n        /* \"#utility.yul\":23666:23722   */\n    tag_560:\n        /* \"#utility.yul\":23740:23769   */\n      tag_562\n        /* \"#utility.yul\":23762:23768   */\n      dup3\n        /* \"#utility.yul\":23740:23769   */\n      tag_436\n      jump\t// in\n    tag_562:\n        /* \"#utility.yul\":23732:23769   */\n      swap1\n      pop\n        /* \"#utility.yul\":23824:23828   */\n      0x20\n        /* \"#utility.yul\":23818:23822   */\n      dup2\n        /* \"#utility.yul\":23814:23829   */\n      add\n        /* \"#utility.yul\":23806:23829   */\n      swap1\n      pop\n        /* \"#utility.yul\":23529:23836   */\n      swap2\n      swap1\n      pop\n      jump\t// out\n        /* \"#utility.yul\":23842:24150   */\n    tag_295:\n        /* \"#utility.yul\":23904:23908   */\n      0x00\n        /* \"#utility.yul\":23994:24012   */\n      0xffffffffffffffff\n        /* \"#utility.yul\":23986:23992   */\n      dup3\n        /* \"#utility.yul\":23983:24013   */\n      gt\n        /* \"#utility.yul\":23980:24036   */\n      iszero\n      tag_564\n      jumpi\n        /* \"#utility.yul\":24016:24034   */\n      tag_565\n      tag_558\n      jump\t// in\n    tag_565:\n        /* \"#utility.yul\":23980:24036   */\n    tag_564:\n        /* \"#utility.yul\":24054:24083   */\n      tag_566\n        /* \"#utility.yul\":24076:24082   */\n      dup3\n        /* \"#utility.yul\":24054:24083   */\n      tag_436\n      jump\t// in\n    tag_566:\n        /* \"#utility.yul\":24046:24083   */\n      swap1\n      pop\n        /* \"#utility.yul\":24138:24142   */\n      0x20\n        /* \"#utility.yul\":24132:24136   */\n      dup2\n        /* \"#utility.yul\":24128:24143   */\n      add\n        /* \"#utility.yul\":24120:24143   */\n      swap1\n      pop\n        /* \"#utility.yul\":23842:24150   */\n      swap2\n      swap1\n      pop\n      jump\t// out\n        /* \"#utility.yul\":24156:24298   */\n    tag_416:\n        /* \"#utility.yul\":24233:24237   */\n      0x00\n        /* \"#utility.yul\":24256:24259   */\n      dup2\n        /* \"#utility.yul\":24248:24259   */\n      swap1\n      pop\n        /* \"#utility.yul\":24286:24290   */\n      0x20\n        /* \"#utility.yul\":24281:24284   */\n      dup3\n        /* \"#utility.yul\":24277:24291   */\n      add\n        /* \"#utility.yul\":24269:24291   */\n      swap1\n      pop\n        /* \"#utility.yul\":24156:24298   */\n      swap2\n      swap1\n      pop\n      jump\t// out\n        /* \"#utility.yul\":24304:24445   */\n    tag_465:\n        /* \"#utility.yul\":24353:24357   */\n      0x00\n        /* \"#utility.yul\":24376:24379   */\n      dup2\n        /* \"#utility.yul\":24368:24379   */\n      swap1\n      pop\n        /* \"#utility.yul\":24399:24402   */\n      dup2\n        /* \"#utility.yul\":24396:24397   */\n      0x00\n        /* \"#utility.yul\":24389:24403   */\n      mstore\n        /* \"#utility.yul\":24433:24437   */\n      0x20\n        /* \"#utility.yul\":24430:24431   */\n      0x00\n        /* \"#utility.yul\":24420:24438   */\n      keccak256\n        /* \"#utility.yul\":24412:24438   */\n      swap1\n      pop\n        /* \"#utility.yul\":24304:24445   */\n      swap2\n      swap1\n      pop\n      jump\t// out\n        /* \"#utility.yul\":24451:24575   */\n    tag_412:\n        /* \"#utility.yul\":24528:24534   */\n      0x00\n        /* \"#utility.yul\":24562:24567   */\n      dup2\n        /* \"#utility.yul\":24556:24568   */\n      mload\n        /* \"#utility.yul\":24546:24568   */\n      swap1\n      pop\n        /* \"#utility.yul\":24451:24575   */\n      swap2\n      swap1\n      pop\n      jump\t// out\n        /* \"#utility.yul\":24581:24679   */\n    tag_430:\n        /* \"#utility.yul\":24632:24638   */\n      0x00\n        /* \"#utility.yul\":24666:24671   */\n      dup2\n        /* \"#utility.yul\":24660:24672   */\n      mload\n        /* \"#utility.yul\":24650:24672   */\n      swap1\n      pop\n        /* \"#utility.yul\":24581:24679   */\n      swap2\n      swap1\n      pop\n      jump\t// out\n        /* \"#utility.yul\":24685:24784   */\n    tag_439:\n        /* \"#utility.yul\":24737:24743   */\n      0x00\n        /* \"#utility.yul\":24771:24776   */\n      dup2\n        /* \"#utility.yul\":24765:24777   */\n      mload\n        /* \"#utility.yul\":24755:24777   */\n      swap1\n      pop\n        /* \"#utility.yul\":24685:24784   */\n      swap2\n      swap1\n      pop\n      jump\t// out\n        /* \"#utility.yul\":24790:24913   */\n    tag_422:\n        /* \"#utility.yul\":24870:24874   */\n      0x00\n        /* \"#utility.yul\":24902:24906   */\n      0x20\n        /* \"#utility.yul\":24897:24900   */\n      dup3\n        /* \"#utility.yul\":24893:24907   */\n      add\n        /* \"#utility.yul\":24885:24907   */\n      swap1\n      pop\n        /* \"#utility.yul\":24790:24913   */\n      swap2\n      swap1\n      pop\n      jump\t// out\n        /* \"#utility.yul\":24919:25113   */\n    tag_414:\n        /* \"#utility.yul\":25028:25039   */\n      0x00\n        /* \"#utility.yul\":25062:25068   */\n      dup3\n        /* \"#utility.yul\":25057:25060   */\n      dup3\n        /* \"#utility.yul\":25050:25069   */\n      mstore\n        /* \"#utility.yul\":25102:25106   */\n      0x20\n        /* \"#utility.yul\":25097:25100   */\n      dup3\n        /* \"#utility.yul\":25093:25107   */\n      add\n        /* \"#utility.yul\":25078:25107   */\n      swap1\n      pop\n        /* \"#utility.yul\":24919:25113   */\n      swap3\n      swap2\n      pop\n      pop\n      jump\t// out\n        /* \"#utility.yul\":25119:25287   */\n    tag_432:\n        /* \"#utility.yul\":25202:25213   */\n      0x00\n        /* \"#utility.yul\":25236:25242   */\n      dup3\n        /* \"#utility.yul\":25231:25234   */\n      dup3\n        /* \"#utility.yul\":25224:25243   */\n      mstore\n        /* \"#utility.yul\":25276:25280   */\n      0x20\n        /* \"#utility.yul\":25271:25274   */\n      dup3\n        /* \"#utility.yul\":25267:25281   */\n      add\n        /* \"#utility.yul\":25252:25281   */\n      swap1\n      pop\n        /* \"#utility.yul\":25119:25287   */\n      swap3\n      swap2\n      pop\n      pop\n      jump\t// out\n        /* \"#utility.yul\":25293:25452   */\n    tag_441:\n        /* \"#utility.yul\":25367:25378   */\n      0x00\n        /* \"#utility.yul\":25401:25407   */\n      dup3\n        /* \"#utility.yul\":25396:25399   */\n      dup3\n        /* \"#utility.yul\":25389:25408   */\n      mstore\n        /* \"#utility.yul\":25441:25445   */\n      0x20\n        /* \"#utility.yul\":25436:25439   */\n      dup3\n        /* \"#utility.yul\":25432:25446   */\n      add\n        /* \"#utility.yul\":25417:25446   */\n      swap1\n      pop\n        /* \"#utility.yul\":25293:25452   */\n      swap3\n      swap2\n      pop\n      pop\n      jump\t// out\n        /* \"#utility.yul\":25458:25627   */\n    tag_448:\n        /* \"#utility.yul\":25542:25553   */\n      0x00\n        /* \"#utility.yul\":25576:25582   */\n      dup3\n        /* \"#utility.yul\":25571:25574   */\n      dup3\n        /* \"#utility.yul\":25564:25583   */\n      mstore\n        /* \"#utility.yul\":25616:25620   */\n      0x20\n        /* \"#utility.yul\":25611:25614   */\n      dup3\n        /* \"#utility.yul\":25607:25621   */\n      add\n        /* \"#utility.yul\":25592:25621   */\n      swap1\n      pop\n        /* \"#utility.yul\":25458:25627   */\n      swap3\n      swap2\n      pop\n      pop\n      jump\t// out\n        /* \"#utility.yul\":25633:25781   */\n    tag_455:\n        /* \"#utility.yul\":25735:25746   */\n      0x00\n        /* \"#utility.yul\":25772:25775   */\n      dup2\n        /* \"#utility.yul\":25757:25775   */\n      swap1\n      pop\n        /* \"#utility.yul\":25633:25781   */\n      swap3\n      swap2\n      pop\n      pop\n      jump\t// out\n        /* \"#utility.yul\":25787:26092   */\n    tag_153:\n        /* \"#utility.yul\":25827:25830   */\n      0x00\n        /* \"#utility.yul\":25846:25866   */\n      tag_579\n        /* \"#utility.yul\":25864:25865   */\n      dup3\n        /* \"#utility.yul\":25846:25866   */\n      tag_512\n      jump\t// in\n    tag_579:\n        /* \"#utility.yul\":25841:25866   */\n      swap2\n      pop\n        /* \"#utility.yul\":25880:25900   */\n      tag_580\n        /* \"#utility.yul\":25898:25899   */\n      dup4\n        /* \"#utility.yul\":25880:25900   */\n      tag_512\n      jump\t// in\n    tag_580:\n        /* \"#utility.yul\":25875:25900   */\n      swap3\n      pop\n        /* \"#utility.yul\":26034:26035   */\n      dup3\n        /* \"#utility.yul\":25966:26032   */\n      0xffffffffffffffffffffffffffffffffffffffffffffffffffffffffffffffff\n        /* \"#utility.yul\":25962:26036   */\n      sub\n        /* \"#utility.yul\":25959:25960   */\n      dup3\n        /* \"#utility.yul\":25956:26037   */\n      gt\n        /* \"#utility.yul\":25953:26060   */\n      iszero\n      tag_581\n      jumpi\n        /* \"#utility.yul\":26040:26058   */\n      tag_582\n      tag_583\n      jump\t// in\n    tag_582:\n        /* \"#utility.yul\":25953:26060   */\n    tag_581:\n        /* \"#utility.yul\":26084:26085   */\n      dup3\n        /* \"#utility.yul\":26081:26082   */\n      dup3\n        /* \"#utility.yul\":26077:26086   */\n      add\n        /* \"#utility.yul\":26070:26086   */\n      swap1\n      pop\n        /* \"#utility.yul\":25787:26092   */\n      swap3\n      swap2\n      pop\n      pop\n      jump\t// out\n        /* \"#utility.yul\":26098:26352   */\n    tag_125:\n        /* \"#utility.yul\":26137:26140   */\n      0x00\n        /* \"#utility.yul\":26156:26175   */\n      tag_585\n        /* \"#utility.yul\":26173:26174   */\n      dup3\n        /* \"#utility.yul\":26156:26175   */\n      tag_586\n      jump\t// in\n    tag_585:\n        /* \"#utility.yul\":26151:26175   */\n      swap2\n      pop\n        /* \"#utility.yul\":26189:26208   */\n      tag_587\n        /* \"#utility.yul\":26206:26207   */\n      dup4\n        /* \"#utility.yul\":26189:26208   */\n      tag_586\n      jump\t// in\n    tag_587:\n        /* \"#utility.yul\":26184:26208   */\n      swap3\n      pop\n        /* \"#utility.yul\":26294:26295   */\n      dup3\n        /* \"#utility.yul\":26274:26292   */\n      0xffffffffffffffff\n        /* \"#utility.yul\":26270:26296   */\n      sub\n        /* \"#utility.yul\":26267:26268   */\n      dup3\n        /* \"#utility.yul\":26264:26297   */\n      gt\n        /* \"#utility.yul\":26261:26320   */\n      iszero\n      tag_588\n      jumpi\n        /* \"#utility.yul\":26300:26318   */\n      tag_589\n      tag_583\n      jump\t// in\n    tag_589:\n        /* \"#utility.yul\":26261:26320   */\n    tag_588:\n        /* \"#utility.yul\":26344:26345   */\n      dup3\n        /* \"#utility.yul\":26341:26342   */\n      dup3\n        /* \"#utility.yul\":26337:26346   */\n      add\n        /* \"#utility.yul\":26330:26346   */\n      swap1\n      pop\n        /* \"#utility.yul\":26098:26352   */\n      swap3\n      swap2\n      pop\n      pop\n      jump\t// out\n        /* \"#utility.yul\":26358:26549   */\n    tag_151:\n        /* \"#utility.yul\":26398:26402   */\n      0x00\n        /* \"#utility.yul\":26418:26438   */\n      tag_591\n        /* \"#utility.yul\":26436:26437   */\n      dup3\n        /* \"#utility.yul\":26418:26438   */\n      tag_512\n      jump\t// in\n    tag_591:\n        /* \"#utility.yul\":26413:26438   */\n      swap2\n      pop\n        /* \"#utility.yul\":26452:26472   */\n      tag_592\n        /* \"#utility.yul\":26470:26471   */\n      dup4\n        /* \"#utility.yul\":26452:26472   */\n      tag_512\n      jump\t// in\n    tag_592:\n        /* \"#utility.yul\":26447:26472   */\n      swap3\n      pop\n        /* \"#utility.yul\":26491:26492   */\n      dup3\n        /* \"#utility.yul\":26488:26489   */\n      dup3\n        /* \"#utility.yul\":26485:26493   */\n      lt\n        /* \"#utility.yul\":26482:26516   */\n      iszero\n      tag_593\n      jumpi\n        /* \"#utility.yul\":26496:26514   */\n      tag_594\n      tag_583\n      jump\t// in\n    tag_594:\n        /* \"#utility.yul\":26482:26516   */\n    tag_593:\n        /* \"#utility.yul\":26541:26542   */\n      dup3\n        /* \"#utility.yul\":26538:26539   */\n      dup3\n        /* \"#utility.yul\":26534:26543   */\n      sub\n        /* \"#utility.yul\":26526:26543   */\n      swap1\n      pop\n        /* \"#utility.yul\":26358:26549   */\n      swap3\n      swap2\n      pop\n      pop\n      jump\t// out\n        /* \"#utility.yul\":26555:26651   */\n    tag_408:\n        /* \"#utility.yul\":26592:26599   */\n      0x00\n        /* \"#utility.yul\":26621:26645   */\n      tag_596\n        /* \"#utility.yul\":26639:26644   */\n      dup3\n        /* \"#utility.yul\":26621:26645   */\n      tag_597\n      jump\t// in\n    tag_596:\n        /* \"#utility.yul\":26610:26645   */\n      swap1\n      pop\n        /* \"#utility.yul\":26555:26651   */\n      swap2\n      swap1\n      pop\n      jump\t// out\n        /* \"#utility.yul\":26657:26747   */\n    tag_426:\n        /* \"#utility.yul\":26691:26698   */\n      0x00\n        /* \"#utility.yul\":26734:26739   */\n      dup2\n        /* \"#utility.yul\":26727:26740   */\n      iszero\n        /* \"#utility.yul\":26720:26741   */\n      iszero\n        /* \"#utility.yul\":26709:26741   */\n      swap1\n      pop\n        /* \"#utility.yul\":26657:26747   */\n      swap2\n      swap1\n      pop\n      jump\t// out\n        /* \"#utility.yul\":26753:26902   */\n    tag_599:\n        /* \"#utility.yul\":26789:26796   */\n      0x00\n        /* \"#utility.yul\":26829:26895   */\n      0xffffffff00000000000000000000000000000000000000000000000000000000\n        /* \"#utility.yul\":26822:26827   */\n      dup3\n        /* \"#utility.yul\":26818:26896   */\n      and\n        /* \"#utility.yul\":26807:26896   */\n      swap1\n      pop\n        /* \"#utility.yul\":26753:26902   */\n      swap2\n      swap1\n      pop\n      jump\t// out\n        /* \"#utility.yul\":26908:27034   */\n    tag_597:\n        /* \"#utility.yul\":26945:26952   */\n      0x00\n        /* \"#utility.yul\":26985:27027   */\n      0xffffffffffffffffffffffffffffffffffffffff\n        /* \"#utility.yul\":26978:26983   */\n      dup3\n        /* \"#utility.yul\":26974:27028   */\n      and\n        /* \"#utility.yul\":26963:27028   */\n      swap1\n      pop\n        /* \"#utility.yul\":26908:27034   */\n      swap2\n      swap1\n      pop\n      jump\t// out\n        /* \"#utility.yul\":27040:27117   */\n    tag_512:\n        /* \"#utility.yul\":27077:27084   */\n      0x00\n        /* \"#utility.yul\":27106:27111   */\n      dup2\n        /* \"#utility.yul\":27095:27111   */\n      swap1\n      pop\n        /* \"#utility.yul\":27040:27117   */\n      swap2\n      swap1\n      pop\n      jump\t// out\n        /* \"#utility.yul\":27123:27224   */\n    tag_586:\n        /* \"#utility.yul\":27159:27166   */\n      0x00\n        /* \"#utility.yul\":27199:27217   */\n      0xffffffffffffffff\n        /* \"#utility.yul\":27192:27197   */\n      dup3\n        /* \"#utility.yul\":27188:27218   */\n      and\n        /* \"#utility.yul\":27177:27218   */\n      swap1\n      pop\n        /* \"#utility.yul\":27123:27224   */\n      swap2\n      swap1\n      pop\n      jump\t// out\n        /* \"#utility.yul\":27230:27384   */\n    tag_290:\n        /* \"#utility.yul\":27314:27320   */\n      dup3\n        /* \"#utility.yul\":27309:27312   */\n      dup2\n        /* \"#utility.yul\":27304:27307   */\n      dup4\n        /* \"#utility.yul\":27291:27321   */\n      calldatacopy\n        /* \"#utility.yul\":27376:27377   */\n      0x00\n        /* \"#utility.yul\":27367:27373   */\n      dup4\n        /* \"#utility.yul\":27362:27365   */\n      dup4\n        /* \"#utility.yul\":27358:27374   */\n      add\n        /* \"#utility.yul\":27351:27378   */\n      mstore\n        /* \"#utility.yul\":27230:27384   */\n      pop\n      pop\n      pop\n      jump\t// out\n        /* \"#utility.yul\":27390:27697   */\n    tag_434:\n        /* \"#utility.yul\":27458:27459   */\n      0x00\n        /* \"#utility.yul\":27468:27581   */\n    tag_606:\n        /* \"#utility.yul\":27482:27488   */\n      dup4\n        /* \"#utility.yul\":27479:27480   */\n      dup2\n        /* \"#utility.yul\":27476:27489   */\n      lt\n        /* \"#utility.yul\":27468:27581   */\n      iszero\n      tag_608\n      jumpi\n        /* \"#utility.yul\":27567:27568   */\n      dup1\n        /* \"#utility.yul\":27562:27565   */\n      dup3\n        /* \"#utility.yul\":27558:27569   */\n      add\n        /* \"#utility.yul\":27552:27570   */\n      mload\n        /* \"#utility.yul\":27548:27549   */\n      dup2\n        /* \"#utility.yul\":27543:27546   */\n      dup5\n        /* \"#utility.yul\":27539:27550   */\n      add\n        /* \"#utility.yul\":27532:27571   */\n      mstore\n        /* \"#utility.yul\":27504:27506   */\n      0x20\n        /* \"#utility.yul\":27501:27502   */\n      dup2\n        /* \"#utility.yul\":27497:27507   */\n      add\n        /* \"#utility.yul\":27492:27507   */\n      swap1\n      pop\n        /* \"#utility.yul\":27468:27581   */\n      jump(tag_606)\n    tag_608:\n        /* \"#utility.yul\":27599:27605   */\n      dup4\n        /* \"#utility.yul\":27596:27597   */\n      dup2\n        /* \"#utility.yul\":27593:27606   */\n      gt\n        /* \"#utility.yul\":27590:27691   */\n      iszero\n      tag_609\n      jumpi\n        /* \"#utility.yul\":27679:27680   */\n      0x00\n        /* \"#utility.yul\":27670:27676   */\n      dup5\n        /* \"#utility.yul\":27665:27668   */\n      dup5\n        /* \"#utility.yul\":27661:27677   */\n      add\n        /* \"#utility.yul\":27654:27681   */\n      mstore\n        /* \"#utility.yul\":27590:27691   */\n    tag_609:\n        /* \"#utility.yul\":27439:27697   */\n      pop\n        /* \"#utility.yul\":27390:27697   */\n      pop\n      pop\n      pop\n      jump\t// out\n        /* \"#utility.yul\":27703:27872   */\n    tag_223:\n        /* \"#utility.yul\":27741:27744   */\n      0x00\n        /* \"#utility.yul\":27764:27787   */\n      tag_611\n        /* \"#utility.yul\":27781:27786   */\n      dup3\n        /* \"#utility.yul\":27764:27787   */\n      tag_586\n      jump\t// in\n    tag_611:\n        /* \"#utility.yul\":27755:27787   */\n      swap2\n      pop\n        /* \"#utility.yul\":27809:27813   */\n      0x00\n        /* \"#utility.yul\":27802:27807   */\n      dup3\n        /* \"#utility.yul\":27799:27814   */\n      eq\n        /* \"#utility.yul\":27796:27837   */\n      iszero\n      tag_612\n      jumpi\n        /* \"#utility.yul\":27817:27835   */\n      tag_613\n      tag_583\n      jump\t// in\n    tag_613:\n        /* \"#utility.yul\":27796:27837   */\n    tag_612:\n        /* \"#utility.yul\":27864:27865   */\n      0x01\n        /* \"#utility.yul\":27857:27862   */\n      dup3\n        /* \"#utility.yul\":27853:27866   */\n      sub\n        /* \"#utility.yul\":27846:27866   */\n      swap1\n      pop\n        /* \"#utility.yul\":27703:27872   */\n      swap2\n      swap1\n      pop\n      jump\t// out\n        /* \"#utility.yul\":27878:28198   */\n    tag_168:\n        /* \"#utility.yul\":27922:27928   */\n      0x00\n        /* \"#utility.yul\":27959:27960   */\n      0x02\n        /* \"#utility.yul\":27953:27957   */\n      dup3\n        /* \"#utility.yul\":27949:27961   */\n      div\n        /* \"#utility.yul\":27939:27961   */\n      swap1\n      pop\n        /* \"#utility.yul\":28006:28007   */\n      0x01\n        /* \"#utility.yul\":28000:28004   */\n      dup3\n        /* \"#utility.yul\":27996:28008   */\n      and\n        /* \"#utility.yul\":28027:28045   */\n      dup1\n        /* \"#utility.yul\":28017:28098   */\n      tag_615\n      jumpi\n        /* \"#utility.yul\":28083:28087   */\n      0x7f\n        /* \"#utility.yul\":28075:28081   */\n      dup3\n        /* \"#utility.yul\":28071:28088   */\n      and\n        /* \"#utility.yul\":28061:28088   */\n      swap2\n      pop\n        /* \"#utility.yul\":28017:28098   */\n    tag_615:\n        /* \"#utility.yul\":28145:28147   */\n      0x20\n        /* \"#utility.yul\":28137:28143   */\n      dup3\n        /* \"#utility.yul\":28134:28148   */\n      lt\n        /* \"#utility.yul\":28114:28132   */\n      dup2\n        /* \"#utility.yul\":28111:28149   */\n      eq\n        /* \"#utility.yul\":28108:28192   */\n      iszero\n      tag_616\n      jumpi\n        /* \"#utility.yul\":28164:28182   */\n      tag_617\n      tag_618\n      jump\t// in\n    tag_617:\n        /* \"#utility.yul\":28108:28192   */\n    tag_616:\n        /* \"#utility.yul\":27929:28198   */\n      pop\n        /* \"#utility.yul\":27878:28198   */\n      swap2\n      swap1\n      pop\n      jump\t// out\n        /* \"#utility.yul\":28204:28485   */\n    tag_553:\n        /* \"#utility.yul\":28287:28314   */\n      tag_620\n        /* \"#utility.yul\":28309:28313   */\n      dup3\n        /* \"#utility.yul\":28287:28314   */\n      tag_436\n      jump\t// in\n    tag_620:\n        /* \"#utility.yul\":28279:28285   */\n      dup2\n        /* \"#utility.yul\":28275:28315   */\n      add\n        /* \"#utility.yul\":28417:28423   */\n      dup2\n        /* \"#utility.yul\":28405:28415   */\n      dup2\n        /* \"#utility.yul\":28402:28424   */\n      lt\n        /* \"#utility.yul\":28381:28399   */\n      0xffffffffffffffff\n        /* \"#utility.yul\":28369:28379   */\n      dup3\n        /* \"#utility.yul\":28366:28400   */\n      gt\n        /* \"#utility.yul\":28363:28425   */\n      or\n        /* \"#utility.yul\":28360:28448   */\n      iszero\n      tag_621\n      jumpi\n        /* \"#utility.yul\":28428:28446   */\n      tag_622\n      tag_558\n      jump\t// in\n    tag_622:\n        /* \"#utility.yul\":28360:28448   */\n    tag_621:\n        /* \"#utility.yul\":28468:28478   */\n      dup1\n        /* \"#utility.yul\":28464:28466   */\n      0x40\n        /* \"#utility.yul\":28457:28479   */\n      mstore\n        /* \"#utility.yul\":28247:28485   */\n      pop\n        /* \"#utility.yul\":28204:28485   */\n      pop\n      pop\n      jump\t// out\n        /* \"#utility.yul\":28491:28724   */\n    tag_136:\n        /* \"#utility.yul\":28530:28533   */\n      0x00\n        /* \"#utility.yul\":28553:28577   */\n      tag_624\n        /* \"#utility.yul\":28571:28576   */\n      dup3\n        /* \"#utility.yul\":28553:28577   */\n      tag_512\n      jump\t// in\n    tag_624:\n        /* \"#utility.yul\":28544:28577   */\n      swap2\n      pop\n        /* \"#utility.yul\":28599:28665   */\n      0xffffffffffffffffffffffffffffffffffffffffffffffffffffffffffffffff\n        /* \"#utility.yul\":28592:28597   */\n      dup3\n        /* \"#utility.yul\":28589:28666   */\n      eq\n        /* \"#utility.yul\":28586:28689   */\n      iszero\n      tag_625\n      jumpi\n        /* \"#utility.yul\":28669:28687   */\n      tag_626\n      tag_583\n      jump\t// in\n    tag_626:\n        /* \"#utility.yul\":28586:28689   */\n    tag_625:\n        /* \"#utility.yul\":28716:28717   */\n      0x01\n        /* \"#utility.yul\":28709:28714   */\n      dup3\n        /* \"#utility.yul\":28705:28718   */\n      add\n        /* \"#utility.yul\":28698:28718   */\n      swap1\n      pop\n        /* \"#utility.yul\":28491:28724   */\n      swap2\n      swap1\n      pop\n      jump\t// out\n        /* \"#utility.yul\":28730:28910   */\n    tag_583:\n        /* \"#utility.yul\":28778:28855   */\n      0x4e487b7100000000000000000000000000000000000000000000000000000000\n        /* \"#utility.yul\":28775:28776   */\n      0x00\n        /* \"#utility.yul\":28768:28856   */\n      mstore\n        /* \"#utility.yul\":28875:28879   */\n      0x11\n        /* \"#utility.yul\":28872:28873   */\n      0x04\n        /* \"#utility.yul\":28865:28880   */\n      mstore\n        /* \"#utility.yul\":28899:28903   */\n      0x24\n        /* \"#utility.yul\":28896:28897   */\n      0x00\n        /* \"#utility.yul\":28889:28904   */\n      revert\n        /* \"#utility.yul\":28916:29096   */\n    tag_618:\n        /* \"#utility.yul\":28964:29041   */\n      0x4e487b7100000000000000000000000000000000000000000000000000000000\n        /* \"#utility.yul\":28961:28962   */\n      0x00\n        /* \"#utility.yul\":28954:29042   */\n      mstore\n        /* \"#utility.yul\":29061:29065   */\n      0x22\n        /* \"#utility.yul\":29058:29059   */\n      0x04\n        /* \"#utility.yul\":29051:29066   */\n      mstore\n        /* \"#utility.yul\":29085:29089   */\n      0x24\n        /* \"#utility.yul\":29082:29083   */\n      0x00\n        /* \"#utility.yul\":29075:29090   */\n      revert\n        /* \"#utility.yul\":29102:29282   */\n    tag_156:\n        /* \"#utility.yul\":29150:29227   */\n      0x4e487b7100000000000000000000000000000000000000000000000000000000\n        /* \"#utility.yul\":29147:29148   */\n      0x00\n        /* \"#utility.yul\":29140:29228   */\n      mstore\n        /* \"#utility.yul\":29247:29251   */\n      0x32\n        /* \"#utility.yul\":29244:29245   */\n      0x04\n        /* \"#utility.yul\":29237:29252   */\n      mstore\n        /* \"#utility.yul\":29271:29275   */\n      0x24\n        /* \"#utility.yul\":29268:29269   */\n      0x00\n        /* \"#utility.yul\":29261:29276   */\n      revert\n        /* \"#utility.yul\":29288:29468   */\n    tag_558:\n        /* \"#utility.yul\":29336:29413   */\n      0x4e487b7100000000000000000000000000000000000000000000000000000000\n        /* \"#utility.yul\":29333:29334   */\n      0x00\n        /* \"#utility.yul\":29326:29414   */\n      mstore\n        /* \"#utility.yul\":29433:29437   */\n      0x41\n        /* \"#utility.yul\":29430:29431   */\n      0x04\n        /* \"#utility.yul\":29423:29438   */\n      mstore\n        /* \"#utility.yul\":29457:29461   */\n      0x24\n        /* \"#utility.yul\":29454:29455   */\n      0x00\n        /* \"#utility.yul\":29447:29462   */\n      revert\n        /* \"#utility.yul\":29474:29591   */\n    tag_278:\n        /* \"#utility.yul\":29583:29584   */\n      0x00\n        /* \"#utility.yul\":29580:29581   */\n      dup1\n        /* \"#utility.yul\":29573:29585   */\n      revert\n        /* \"#utility.yul\":29597:29714   */\n    tag_272:\n        /* \"#utility.yul\":29706:29707   */\n      0x00\n        /* \"#utility.yul\":29703:29704   */\n      dup1\n        /* \"#utility.yul\":29696:29708   */\n      revert\n        /* \"#utility.yul\":29720:29837   */\n    tag_288:\n        /* \"#utility.yul\":29829:29830   */\n      0x00\n        /* \"#utility.yul\":29826:29827   */\n      dup1\n        /* \"#utility.yul\":29819:29831   */\n      revert\n        /* \"#utility.yul\":29843:29960   */\n    tag_363:\n        /* \"#utility.yul\":29952:29953   */\n      0x00\n        /* \"#utility.yul\":29949:29950   */\n      dup1\n        /* \"#utility.yul\":29942:29954   */\n      revert\n        /* \"#utility.yul\":29966:30083   */\n    tag_338:\n        /* \"#utility.yul\":30075:30076   */\n      0x00\n        /* \"#utility.yul\":30072:30073   */\n      dup1\n        /* \"#utility.yul\":30065:30077   */\n      revert\n        /* \"#utility.yul\":30089:30191   */\n    tag_436:\n        /* \"#utility.yul\":30130:30136   */\n      0x00\n        /* \"#utility.yul\":30181:30183   */\n      0x1f\n        /* \"#utility.yul\":30177:30184   */\n      not\n        /* \"#utility.yul\":30172:30174   */\n      0x1f\n        /* \"#utility.yul\":30165:30170   */\n      dup4\n        /* \"#utility.yul\":30161:30175   */\n      add\n        /* \"#utility.yul\":30157:30185   */\n      and\n        /* \"#utility.yul\":30147:30185   */\n      swap1\n      pop\n        /* \"#utility.yul\":30089:30191   */\n      swap2\n      swap1\n      pop\n      jump\t// out\n        /* \"#utility.yul\":30197:30420   */\n    tag_473:\n        /* \"#utility.yul\":30337:30371   */\n      0x4552433732313a207472616e7366657220746f20746865207a65726f20616464\n        /* \"#utility.yul\":30333:30334   */\n      0x00\n        /* \"#utility.yul\":30325:30331   */\n      dup3\n        /* \"#utility.yul\":30321:30335   */\n      add\n        /* \"#utility.yul\":30314:30372   */\n      mstore\n        /* \"#utility.yul\":30406:30412   */\n      0x7265737300000000000000000000000000000000000000000000000000000000\n        /* \"#utility.yul\":30401:30403   */\n      0x20\n        /* \"#utility.yul\":30393:30399   */\n      dup3\n        /* \"#utility.yul\":30389:30404   */\n      add\n        /* \"#utility.yul\":30382:30413   */\n      mstore\n        /* \"#utility.yul\":30197:30420   */\n      pop\n      jump\t// out\n        /* \"#utility.yul\":30426:30601   */\n    tag_478:\n        /* \"#utility.yul\":30566:30593   */\n      0x4552433732313a20617070726f766520746f2063616c6c657200000000000000\n        /* \"#utility.yul\":30562:30563   */\n      0x00\n        /* \"#utility.yul\":30554:30560   */\n      dup3\n        /* \"#utility.yul\":30550:30564   */\n      add\n        /* \"#utility.yul\":30543:30594   */\n      mstore\n        /* \"#utility.yul\":30426:30601   */\n      pop\n      jump\t// out\n        /* \"#utility.yul\":30607:30850   */\n    tag_483:\n        /* \"#utility.yul\":30747:30781   */\n      0x4552433732313a20617070726f76652063616c6c6572206973206e6f74206f77\n        /* \"#utility.yul\":30743:30744   */\n      0x00\n        /* \"#utility.yul\":30735:30741   */\n      dup3\n        /* \"#utility.yul\":30731:30745   */\n      add\n        /* \"#utility.yul\":30724:30782   */\n      mstore\n        /* \"#utility.yul\":30816:30842   */\n      0x6e6572206e6f7220617070726f76656420666f7220616c6c0000000000000000\n        /* \"#utility.yul\":30811:30813   */\n      0x20\n        /* \"#utility.yul\":30803:30809   */\n      dup3\n        /* \"#utility.yul\":30799:30814   */\n      add\n        /* \"#utility.yul\":30792:30843   */\n      mstore\n        /* \"#utility.yul\":30607:30850   */\n      pop\n      jump\t// out\n        /* \"#utility.yul\":30856:31084   */\n    tag_488:\n        /* \"#utility.yul\":30996:31030   */\n      0x4552433732313a207472616e73666572206f6620746f6b656e20746861742069\n        /* \"#utility.yul\":30992:30993   */\n      0x00\n        /* \"#utility.yul\":30984:30990   */\n      dup3\n        /* \"#utility.yul\":30980:30994   */\n      add\n        /* \"#utility.yul\":30973:31031   */\n      mstore\n        /* \"#utility.yul\":31065:31076   */\n      0x73206e6f74206f776e0000000000000000000000000000000000000000000000\n        /* \"#utility.yul\":31060:31062   */\n      0x20\n        /* \"#utility.yul\":31052:31058   */\n      dup3\n        /* \"#utility.yul\":31048:31063   */\n      add\n        /* \"#utility.yul\":31041:31077   */\n      mstore\n        /* \"#utility.yul\":30856:31084   */\n      pop\n      jump\t// out\n        /* \"#utility.yul\":31090:31310   */\n    tag_493:\n        /* \"#utility.yul\":31230:31264   */\n      0x4552433732313a20617070726f76616c20746f2063757272656e74206f776e65\n        /* \"#utility.yul\":31226:31227   */\n      0x00\n        /* \"#utility.yul\":31218:31224   */\n      dup3\n        /* \"#utility.yul\":31214:31228   */\n      add\n        /* \"#utility.yul\":31207:31265   */\n      mstore\n        /* \"#utility.yul\":31299:31302   */\n      0x7200000000000000000000000000000000000000000000000000000000000000\n        /* \"#utility.yul\":31294:31296   */\n      0x20\n        /* \"#utility.yul\":31286:31292   */\n      dup3\n        /* \"#utility.yul\":31282:31297   */\n      add\n        /* \"#utility.yul\":31275:31303   */\n      mstore\n        /* \"#utility.yul\":31090:31310   */\n      pop\n      jump\t// out\n        /* \"#utility.yul\":31316:31552   */\n    tag_498:\n        /* \"#utility.yul\":31456:31490   */\n      0x4552433732313a207472616e736665722063616c6c6572206973206e6f74206f\n        /* \"#utility.yul\":31452:31453   */\n      0x00\n        /* \"#utility.yul\":31444:31450   */\n      dup3\n        /* \"#utility.yul\":31440:31454   */\n      add\n        /* \"#utility.yul\":31433:31491   */\n      mstore\n        /* \"#utility.yul\":31525:31544   */\n      0x776e6572206e6f7220617070726f766564000000000000000000000000000000\n        /* \"#utility.yul\":31520:31522   */\n      0x20\n        /* \"#utility.yul\":31512:31518   */\n      dup3\n        /* \"#utility.yul\":31508:31523   */\n      add\n        /* \"#utility.yul\":31501:31545   */\n      mstore\n        /* \"#utility.yul\":31316:31552   */\n      pop\n      jump\t// out\n        /* \"#utility.yul\":31558:31727   */\n    tag_503:\n        /* \"#utility.yul\":31698:31719   */\n      0x496e646578206f7574206f6620626f756e647300000000000000000000000000\n        /* \"#utility.yul\":31694:31695   */\n      0x00\n        /* \"#utility.yul\":31686:31692   */\n      dup3\n        /* \"#utility.yul\":31682:31696   */\n      add\n        /* \"#utility.yul\":31675:31720   */\n      mstore\n        /* \"#utility.yul\":31558:31727   */\n      pop\n      jump\t// out\n        /* \"#utility.yul\":31733:31907   */\n    tag_508:\n        /* \"#utility.yul\":31873:31899   */\n      0x4552433732313a20616472657373203020696e76616c69640000000000000000\n        /* \"#utility.yul\":31869:31870   */\n      0x00\n        /* \"#utility.yul\":31861:31867   */\n      dup3\n        /* \"#utility.yul\":31857:31871   */\n      add\n        /* \"#utility.yul\":31850:31900   */\n      mstore\n        /* \"#utility.yul\":31733:31907   */\n      pop\n      jump\t// out\n        /* \"#utility.yul\":31913:32035   */\n    tag_302:\n        /* \"#utility.yul\":31986:32010   */\n      tag_646\n        /* \"#utility.yul\":32004:32009   */\n      dup2\n        /* \"#utility.yul\":31986:32010   */\n      tag_408\n      jump\t// in\n    tag_646:\n        /* \"#utility.yul\":31979:31984   */\n      dup2\n        /* \"#utility.yul\":31976:32011   */\n      eq\n        /* \"#utility.yul\":31966:32029   */\n      tag_647\n      jumpi\n        /* \"#utility.yul\":32025:32026   */\n      0x00\n        /* \"#utility.yul\":32022:32023   */\n      dup1\n        /* \"#utility.yul\":32015:32027   */\n      revert\n        /* \"#utility.yul\":31966:32029   */\n    tag_647:\n        /* \"#utility.yul\":31913:32035   */\n      pop\n      jump\t// out\n        /* \"#utility.yul\":32041:32157   */\n    tag_314:\n        /* \"#utility.yul\":32111:32132   */\n      tag_649\n        /* \"#utility.yul\":32126:32131   */\n      dup2\n        /* \"#utility.yul\":32111:32132   */\n      tag_426\n      jump\t// in\n    tag_649:\n        /* \"#utility.yul\":32104:32109   */\n      dup2\n        /* \"#utility.yul\":32101:32133   */\n      eq\n        /* \"#utility.yul\":32091:32151   */\n      tag_650\n      jumpi\n        /* \"#utility.yul\":32147:32148   */\n      0x00\n        /* \"#utility.yul\":32144:32145   */\n      dup1\n        /* \"#utility.yul\":32137:32149   */\n      revert\n        /* \"#utility.yul\":32091:32151   */\n    tag_650:\n        /* \"#utility.yul\":32041:32157   */\n      pop\n      jump\t// out\n        /* \"#utility.yul\":32163:32283   */\n    tag_318:\n        /* \"#utility.yul\":32235:32258   */\n      tag_652\n        /* \"#utility.yul\":32252:32257   */\n      dup2\n        /* \"#utility.yul\":32235:32258   */\n      tag_599\n      jump\t// in\n    tag_652:\n        /* \"#utility.yul\":32228:32233   */\n      dup2\n        /* \"#utility.yul\":32225:32259   */\n      eq\n        /* \"#utility.yul\":32215:32277   */\n      tag_653\n      jumpi\n        /* \"#utility.yul\":32273:32274   */\n      0x00\n        /* \"#utility.yul\":32270:32271   */\n      dup1\n        /* \"#utility.yul\":32263:32275   */\n      revert\n        /* \"#utility.yul\":32215:32277   */\n    tag_653:\n        /* \"#utility.yul\":32163:32283   */\n      pop\n      jump\t// out\n        /* \"#utility.yul\":32289:32411   */\n    tag_334:\n        /* \"#utility.yul\":32362:32386   */\n      tag_655\n        /* \"#utility.yul\":32380:32385   */\n      dup2\n        /* \"#utility.yul\":32362:32386   */\n      tag_512\n      jump\t// in\n    tag_655:\n        /* \"#utility.yul\":32355:32360   */\n      dup2\n        /* \"#utility.yul\":32352:32387   */\n      eq\n        /* \"#utility.yul\":32342:32405   */\n      tag_656\n      jumpi\n        /* \"#utility.yul\":32401:32402   */\n      0x00\n        /* \"#utility.yul\":32398:32399   */\n      dup1\n        /* \"#utility.yul\":32391:32403   */\n      revert\n        /* \"#utility.yul\":32342:32405   */\n    tag_656:\n        /* \"#utility.yul\":32289:32411   */\n      pop\n      jump\t// out\n\n    auxdata: 0xa264697066735822122028c01856209ed656484442468d1591136502c24618343a5113ca6c4fbf98d7a164736f6c63430008070033\n}\n",
				"bytecode": {
					"linkReferences": {},
					"object": "608060405234801561001057600080fd5b50612a20806100206000396000f3fe6080604052600436106100e85760003560e01c80636352211e1161008a5780637fcb2989116100595780637fcb298914610303578063a22cb46514610340578063b88d4fde14610369578063e985e9c514610385576100e8565b80636352211e146102355780636ba367a31461027257806370a082311461029d5780637360cbba146102da576100e8565b806323b872dd116100c657806323b872dd146101835780633d02d0c91461019f57806342842e0e146101dc5780634802693d146101f8576100e8565b806301ffc9a7146100ed578063081812fc1461012a578063095ea7b314610167575b600080fd5b3480156100f957600080fd5b50610114600480360381019061010f9190611cbd565b6103c2565b604051610121919061218d565b60405180910390f35b34801561013657600080fd5b50610151600480360381019061014c9190611d17565b61042c565b60405161015e9190612104565b60405180910390f35b610181600480360381019061017c9190611c7d565b610469565b005b61019d60048036038101906101989190611b0b565b61057d565b005b3480156101ab57600080fd5b506101c660048036038101906101c19190611c21565b61058d565b6040516101d391906122ca565b60405180910390f35b6101f660048036038101906101f19190611b0b565b610888565b005b34801561020457600080fd5b5061021f600480360381019061021a9190611a71565b6108a8565b60405161022c91906121a8565b60405180910390f35b34801561024157600080fd5b5061025c60048036038101906102579190611d17565b610991565b6040516102699190612104565b60405180910390f35b34801561027e57600080fd5b50610287610a76565b60405161029491906122ca565b60405180910390f35b3480156102a957600080fd5b506102c460048036038101906102bf9190611a71565b610a82565b6040516102d191906122ca565b60405180910390f35b3480156102e657600080fd5b5061030160048036038101906102fc9190611d44565b610ae9565b005b34801561030f57600080fd5b5061032a60048036038101906103259190611a71565b610bd0565b604051610337919061216b565b60405180910390f35b34801561034c57600080fd5b5061036760048036038101906103629190611be1565b610ce8565b005b610383600480360381019061037e9190611b5e565b610e54565b005b34801561039157600080fd5b506103ac60048036038101906103a79190611acb565b610eaf565b6040516103b9919061218d565b60405180910390f35b60007f80ac58cd000000000000000000000000000000000000000000000000000000007bffffffffffffffffffffffffffffffffffffffffffffffffffffffff1916827bffffffffffffffffffffffffffffffffffffffffffffffffffffffff1916149050919050565b60006005600083815260200190815260200160002060009054906101000a900473ffffffffffffffffffffffffffffffffffffffff169050919050565b61047281610991565b73ffffffffffffffffffffffffffffffffffffffff168273ffffffffffffffffffffffffffffffffffffffff1614156104e0576040517f08c379a00000000000000000000000000000000000000000000000000000000081526004016104d79061224a565b60405180910390fd5b6104e981610991565b73ffffffffffffffffffffffffffffffffffffffff163373ffffffffffffffffffffffffffffffffffffffff161480610530575061052f61052982610991565b33610eaf565b5b61056f576040517f08c379a00000000000000000000000000000000000000000000000000000000081526004016105669061220a565b60405180910390fd5b6105798282610f43565b5050565b610588838383610888565b505050565b60008060405180604001604052803373ffffffffffffffffffffffffffffffffffffffff1681526020014267ffffffffffffffff168152509050600073ffffffffffffffffffffffffffffffffffffffff168473ffffffffffffffffffffffffffffffffffffffff16141561060157600080fd5b6000819080600181540180825580915050600190039060005260206000200160009091909190915060008201518160000160006101000a81548173ffffffffffffffffffffffffffffffffffffffff021916908373ffffffffffffffffffffffffffffffffffffffff16021790555060208201518160000160146101000a81548167ffffffffffffffff021916908367ffffffffffffffff16021790555050506000805490509150826002600084815260200190815260200160002090805190602001906106d0929190611774565b50600160008573ffffffffffffffffffffffffffffffffffffffff1673ffffffffffffffffffffffffffffffffffffffff16815260200190815260200160002083908060018154018082558091505060019003906000526020600020016000909190919091509080519060200190610749929190611774565b506001600460008673ffffffffffffffffffffffffffffffffffffffff1673ffffffffffffffffffffffffffffffffffffffff16815260200190815260200160002060008282829054906101000a900467ffffffffffffffff166107ad9190612490565b92506101000a81548167ffffffffffffffff021916908367ffffffffffffffff160217905550836003600084815260200190815260200160002060006101000a81548173ffffffffffffffffffffffffffffffffffffffff021916908373ffffffffffffffffffffffffffffffffffffffff160217905550818473ffffffffffffffffffffffffffffffffffffffff16600073ffffffffffffffffffffffffffffffffffffffff167fddf252ad1be2c89b69c2b068fc378daa952ba7f163c4a11628f55a4df523b3ef60405160405180910390a45092915050565b6108a383838360405180602001604052806000815250610e54565b505050565b606060006040518060200160405280600081525090506000600190505b6000805490508111610987578373ffffffffffffffffffffffffffffffffffffffff166003600083815260200190815260200160002060009054906101000a900473ffffffffffffffffffffffffffffffffffffffff1673ffffffffffffffffffffffffffffffffffffffff16141561097357816002600083815260200190815260200160002060405160200161095d9291906120c9565b6040516020818303038152906040529150610974565b5b808061097f90612659565b9150506108c5565b5080915050919050565b6000806003600084815260200190815260200160002060009054906101000a900473ffffffffffffffffffffffffffffffffffffffff169050600073ffffffffffffffffffffffffffffffffffffffff168173ffffffffffffffffffffffffffffffffffffffff161415610a3a576040517f08c379a0000000000000000000000000000000000000000000000000000000008152600401610a31906122aa565b60405180910390fd5b6003600084815260200190815260200160002060009054906101000a900473ffffffffffffffffffffffffffffffffffffffff16915050919050565b60008080549050905090565b6000600460008373ffffffffffffffffffffffffffffffffffffffff1673ffffffffffffffffffffffffffffffffffffffff16815260200190815260200160002060009054906101000a900467ffffffffffffffff1667ffffffffffffffff169050919050565b80518210610b2c576040517f08c379a0000000000000000000000000000000000000000000000000000000008152600401610b239061228a565b60405180910390fd5b60008290505b60018251610b4091906124ce565b811015610b9f5781600182610b55919061243a565b81518110610b6657610b65612700565b5b6020026020010151828281518110610b8157610b80612700565b5b60200260200101819052508080610b9790612659565b915050610b32565b508060018251610baf91906124ce565b81518110610bc057610bbf612700565b5b6020026020010160608152505050565b6060600160008373ffffffffffffffffffffffffffffffffffffffff1673ffffffffffffffffffffffffffffffffffffffff168152602001908152602001600020805480602002602001604051908101604052809291908181526020016000905b82821015610cdd578382906000526020600020018054610c50906125f6565b80601f0160208091040260200160405190810160405280929190818152602001828054610c7c906125f6565b8015610cc95780601f10610c9e57610100808354040283529160200191610cc9565b820191906000526020600020905b815481529060010190602001808311610cac57829003601f168201915b505050505081526020019060010190610c31565b505050509050919050565b3373ffffffffffffffffffffffffffffffffffffffff168273ffffffffffffffffffffffffffffffffffffffff161415610d57576040517f08c379a0000000000000000000000000000000000000000000000000000000008152600401610d4e906121ea565b60405180910390fd5b80600660003373ffffffffffffffffffffffffffffffffffffffff1673ffffffffffffffffffffffffffffffffffffffff16815260200190815260200160002060008473ffffffffffffffffffffffffffffffffffffffff1673ffffffffffffffffffffffffffffffffffffffff16815260200190815260200160002060006101000a81548160ff0219169083151502179055508173ffffffffffffffffffffffffffffffffffffffff163373ffffffffffffffffffffffffffffffffffffffff167f17307eab39ab6107e8899845ad3d59bd9653f200f220920489ca2b5937696c3183604051610e48919061218d565b60405180910390a35050565b610e5e338361107d565b610e9d576040517f08c379a0000000000000000000000000000000000000000000000000000000008152600401610e949061226a565b60405180910390fd5b610ea984848484611115565b50505050565b6000600660008473ffffffffffffffffffffffffffffffffffffffff1673ffffffffffffffffffffffffffffffffffffffff16815260200190815260200160002060008373ffffffffffffffffffffffffffffffffffffffff1673ffffffffffffffffffffffffffffffffffffffff16815260200190815260200160002060009054906101000a900460ff16905092915050565b816005600083815260200190815260200160002060006101000a81548173ffffffffffffffffffffffffffffffffffffffff021916908373ffffffffffffffffffffffffffffffffffffffff16021790555060008273ffffffffffffffffffffffffffffffffffffffff163073ffffffffffffffffffffffffffffffffffffffff16636352211e846040518263ffffffff1660e01b8152600401610fe791906122ca565b60206040518083038186803b158015610fff57600080fd5b505afa158015611013573d6000803e3d6000fd5b505050506040513d601f19601f820116820180604052508101906110379190611a9e565b73ffffffffffffffffffffffffffffffffffffffff167f8c5be1e5ebec7d5bd14f71427d1e84f3dd0314c0f7b2291e5b200ac8c7c3b92560405160405180910390a45050565b60008273ffffffffffffffffffffffffffffffffffffffff1661109f83610991565b73ffffffffffffffffffffffffffffffffffffffff1614806110f457508273ffffffffffffffffffffffffffffffffffffffff166110dc8361042c565b73ffffffffffffffffffffffffffffffffffffffff16145b8061110d575061110c61110683610991565b84610eaf565b5b905092915050565b611120848484611298565b6000833b905060008163ffffffff1611156112915760008490507f150b7a023d4804d13e8c85fb27262cb750cf6ba9f9dd3bb30d90f482ceeb4b1f7bffffffffffffffffffffffffffffffffffffffffffffffffffffffff19168173ffffffffffffffffffffffffffffffffffffffff1663150b7a02338988886040518563ffffffff1660e01b81526004016111b9949392919061211f565b602060405180830381600087803b1580156111d357600080fd5b505af11580156111e7573d6000803e3d6000fd5b505050506040513d601f19601f8201168201806040525081019061120b9190611cea565b7bffffffffffffffffffffffffffffffffffffffffffffffffffffffff19161461123457600080fd5b838573ffffffffffffffffffffffffffffffffffffffff168773ffffffffffffffffffffffffffffffffffffffff167fddf252ad1be2c89b69c2b068fc378daa952ba7f163c4a11628f55a4df523b3ef60405160405180910390a4505b5050505050565b8273ffffffffffffffffffffffffffffffffffffffff166112b882610991565b73ffffffffffffffffffffffffffffffffffffffff161461130e576040517f08c379a00000000000000000000000000000000000000000000000000000000081526004016113059061222a565b60405180910390fd5b600073ffffffffffffffffffffffffffffffffffffffff168273ffffffffffffffffffffffffffffffffffffffff16141561137e576040517f08c379a0000000000000000000000000000000000000000000000000000000008152600401611375906121ca565b60405180910390fd5b611389600082610f43565b816003600083815260200190815260200160002060006101000a81548173ffffffffffffffffffffffffffffffffffffffff021916908373ffffffffffffffffffffffffffffffffffffffff1602179055506000600160008573ffffffffffffffffffffffffffffffffffffffff1673ffffffffffffffffffffffffffffffffffffffff168152602001908152602001600020805490509050600460008573ffffffffffffffffffffffffffffffffffffffff1673ffffffffffffffffffffffffffffffffffffffff168152602001908152602001600020600081819054906101000a900467ffffffffffffffff1680929190611485906125cc565b91906101000a81548167ffffffffffffffff021916908367ffffffffffffffff1602179055505060005b8181101561171257600260008481526020019081526020016000206040516020016114da91906120ed565b60405160208183030381529060405280519060200120600160008773ffffffffffffffffffffffffffffffffffffffff1673ffffffffffffffffffffffffffffffffffffffff168152602001908152602001600020828154811061154157611540612700565b5b9060005260206000200160405160200161155b91906120ed565b6040516020818303038152906040528051906020012014156116fe57600160008673ffffffffffffffffffffffffffffffffffffffff1673ffffffffffffffffffffffffffffffffffffffff16815260200190815260200160002081815481106115c8576115c7612700565b5b9060005260206000200160006115de91906117fa565b6116f681600160008873ffffffffffffffffffffffffffffffffffffffff1673ffffffffffffffffffffffffffffffffffffffff168152602001908152602001600020805480602002602001604051908101604052809291908181526020016000905b828210156116ed578382906000526020600020018054611660906125f6565b80601f016020809104026020016040519081016040528092919081815260200182805461168c906125f6565b80156116d95780601f106116ae576101008083540402835291602001916116d9565b820191906000526020600020905b8154815290600101906020018083116116bc57829003601f168201915b505050505081526020019060010190611641565b50505050610ae9565b81905061170d565b808061170990612659565b9150505b6114af565b828473ffffffffffffffffffffffffffffffffffffffff168673ffffffffffffffffffffffffffffffffffffffff167fddf252ad1be2c89b69c2b068fc378daa952ba7f163c4a11628f55a4df523b3ef60405160405180910390a45050505050565b828054611780906125f6565b90600052602060002090601f0160209004810192826117a257600085556117e9565b82601f106117bb57805160ff19168380011785556117e9565b828001600101855582156117e9579182015b828111156117e85782518255916020019190600101906117cd565b5b5090506117f6919061183a565b5090565b508054611806906125f6565b6000825580601f106118185750611837565b601f016020900490600052602060002090810190611836919061183a565b5b50565b5b8082111561185357600081600090555060010161183b565b5090565b600061186a6118658461230a565b6122e5565b9050808382526020820190508285602086028201111561188d5761188c612763565b5b60005b858110156118db57813567ffffffffffffffff8111156118b3576118b261275e565b5b8086016118c08982611a2e565b85526020850194506020840193505050600181019050611890565b5050509392505050565b60006118f86118f384612336565b6122e5565b90508281526020810184848401111561191457611913612768565b5b61191f84828561258a565b509392505050565b600061193a61193584612367565b6122e5565b90508281526020810184848401111561195657611955612768565b5b61196184828561258a565b509392505050565b6000813590506119788161298e565b92915050565b60008151905061198d8161298e565b92915050565b600082601f8301126119a8576119a761275e565b5b81356119b8848260208601611857565b91505092915050565b6000813590506119d0816129a5565b92915050565b6000813590506119e5816129bc565b92915050565b6000815190506119fa816129bc565b92915050565b600082601f830112611a1557611a1461275e565b5b8135611a258482602086016118e5565b91505092915050565b600082601f830112611a4357611a4261275e565b5b8135611a53848260208601611927565b91505092915050565b600081359050611a6b816129d3565b92915050565b600060208284031215611a8757611a86612772565b5b6000611a9584828501611969565b91505092915050565b600060208284031215611ab457611ab3612772565b5b6000611ac28482850161197e565b91505092915050565b60008060408385031215611ae257611ae1612772565b5b6000611af085828601611969565b9250506020611b0185828601611969565b9150509250929050565b600080600060608486031215611b2457611b23612772565b5b6000611b3286828701611969565b9350506020611b4386828701611969565b9250506040611b5486828701611a5c565b9150509250925092565b60008060008060808587031215611b7857611b77612772565b5b6000611b8687828801611969565b9450506020611b9787828801611969565b9350506040611ba887828801611a5c565b925050606085013567ffffffffffffffff811115611bc957611bc861276d565b5b611bd587828801611a00565b91505092959194509250565b60008060408385031215611bf857611bf7612772565b5b6000611c0685828601611969565b9250506020611c17858286016119c1565b9150509250929050565b60008060408385031215611c3857611c37612772565b5b6000611c4685828601611969565b925050602083013567ffffffffffffffff811115611c6757611c6661276d565b5b611c7385828601611a2e565b9150509250929050565b60008060408385031215611c9457611c93612772565b5b6000611ca285828601611969565b9250506020611cb385828601611a5c565b9150509250929050565b600060208284031215611cd357611cd2612772565b5b6000611ce1848285016119d6565b91505092915050565b600060208284031215611d0057611cff612772565b5b6000611d0e848285016119eb565b91505092915050565b600060208284031215611d2d57611d2c612772565b5b6000611d3b84828501611a5c565b91505092915050565b60008060408385031215611d5b57611d5a612772565b5b6000611d6985828601611a5c565b925050602083013567ffffffffffffffff811115611d8a57611d8961276d565b5b611d9685828601611993565b9150509250929050565b6000611dac8383611e80565b905092915050565b611dbd81612502565b82525050565b6000611dce826123bd565b611dd881856123eb565b935083602082028501611dea85612398565b8060005b85811015611e265784840389528151611e078582611da0565b9450611e12836123de565b925060208a01995050600181019050611dee565b50829750879550505050505092915050565b611e4181612514565b82525050565b6000611e52826123c8565b611e5c81856123fc565b9350611e6c818560208601612599565b611e7581612777565b840191505092915050565b6000611e8b826123d3565b611e95818561240d565b9350611ea5818560208601612599565b611eae81612777565b840191505092915050565b6000611ec4826123d3565b611ece818561241e565b9350611ede818560208601612599565b611ee781612777565b840191505092915050565b6000611efd826123d3565b611f07818561242f565b9350611f17818560208601612599565b80840191505092915050565b60008154611f30816125f6565b611f3a818661242f565b94506001821660008114611f555760018114611f6657611f99565b60ff19831686528186019350611f99565b611f6f856123a8565b60005b83811015611f9157815481890152600182019150602081019050611f72565b838801955050505b50505092915050565b6000611faf60248361241e565b9150611fba82612788565b604082019050919050565b6000611fd260198361241e565b9150611fdd826127d7565b602082019050919050565b6000611ff560388361241e565b915061200082612800565b604082019050919050565b600061201860298361241e565b91506120238261284f565b604082019050919050565b600061203b60218361241e565b91506120468261289e565b604082019050919050565b600061205e60318361241e565b9150612069826128ed565b604082019050919050565b600061208160138361241e565b915061208c8261293c565b602082019050919050565b60006120a460188361241e565b91506120af82612965565b602082019050919050565b6120c38161256c565b82525050565b60006120d58285611ef2565b91506120e18284611f23565b91508190509392505050565b60006120f98284611f23565b915081905092915050565b60006020820190506121196000830184611db4565b92915050565b60006080820190506121346000830187611db4565b6121416020830186611db4565b61214e60408301856120ba565b81810360608301526121608184611e47565b905095945050505050565b600060208201905081810360008301526121858184611dc3565b905092915050565b60006020820190506121a26000830184611e38565b92915050565b600060208201905081810360008301526121c28184611eb9565b905092915050565b600060208201905081810360008301526121e381611fa2565b9050919050565b6000602082019050818103600083015261220381611fc5565b9050919050565b6000602082019050818103600083015261222381611fe8565b9050919050565b600060208201905081810360008301526122438161200b565b9050919050565b600060208201905081810360008301526122638161202e565b9050919050565b6000602082019050818103600083015261228381612051565b9050919050565b600060208201905081810360008301526122a381612074565b9050919050565b600060208201905081810360008301526122c381612097565b9050919050565b60006020820190506122df60008301846120ba565b92915050565b60006122ef612300565b90506122fb8282612628565b919050565b6000604051905090565b600067ffffffffffffffff8211156123255761232461272f565b5b602082029050602081019050919050565b600067ffffffffffffffff8211156123515761235061272f565b5b61235a82612777565b9050602081019050919050565b600067ffffffffffffffff8211156123825761238161272f565b5b61238b82612777565b9050602081019050919050565b6000819050602082019050919050565b60008190508160005260206000209050919050565b600081519050919050565b600081519050919050565b600081519050919050565b6000602082019050919050565b600082825260208201905092915050565b600082825260208201905092915050565b600082825260208201905092915050565b600082825260208201905092915050565b600081905092915050565b60006124458261256c565b91506124508361256c565b9250827fffffffffffffffffffffffffffffffffffffffffffffffffffffffffffffffff03821115612485576124846126a2565b5b828201905092915050565b600061249b82612576565b91506124a683612576565b92508267ffffffffffffffff038211156124c3576124c26126a2565b5b828201905092915050565b60006124d98261256c565b91506124e48361256c565b9250828210156124f7576124f66126a2565b5b828203905092915050565b600061250d8261254c565b9050919050565b60008115159050919050565b60007fffffffff0000000000000000000000000000000000000000000000000000000082169050919050565b600073ffffffffffffffffffffffffffffffffffffffff82169050919050565b6000819050919050565b600067ffffffffffffffff82169050919050565b82818337600083830152505050565b60005b838110156125b757808201518184015260208101905061259c565b838111156125c6576000848401525b50505050565b60006125d782612576565b915060008214156125eb576125ea6126a2565b5b600182039050919050565b6000600282049050600182168061260e57607f821691505b60208210811415612622576126216126d1565b5b50919050565b61263182612777565b810181811067ffffffffffffffff821117156126505761264f61272f565b5b80604052505050565b60006126648261256c565b91507fffffffffffffffffffffffffffffffffffffffffffffffffffffffffffffffff821415612697576126966126a2565b5b600182019050919050565b7f4e487b7100000000000000000000000000000000000000000000000000000000600052601160045260246000fd5b7f4e487b7100000000000000000000000000000000000000000000000000000000600052602260045260246000fd5b7f4e487b7100000000000000000000000000000000000000000000000000000000600052603260045260246000fd5b7f4e487b7100000000000000000000000000000000000000000000000000000000600052604160045260246000fd5b600080fd5b600080fd5b600080fd5b600080fd5b600080fd5b6000601f19601f8301169050919050565b7f4552433732313a207472616e7366657220746f20746865207a65726f2061646460008201527f7265737300000000000000000000000000000000000000000000000000000000602082015250565b7f4552433732313a20617070726f766520746f2063616c6c657200000000000000600082015250565b7f4552433732313a20617070726f76652063616c6c6572206973206e6f74206f7760008201527f6e6572206e6f7220617070726f76656420666f7220616c6c0000000000000000602082015250565b7f4552433732313a207472616e73666572206f6620746f6b656e2074686174206960008201527f73206e6f74206f776e0000000000000000000000000000000000000000000000602082015250565b7f4552433732313a20617070726f76616c20746f2063757272656e74206f776e6560008201527f7200000000000000000000000000000000000000000000000000000000000000602082015250565b7f4552433732313a207472616e736665722063616c6c6572206973206e6f74206f60008201527f776e6572206e6f7220617070726f766564000000000000000000000000000000602082015250565b7f496e646578206f7574206f6620626f756e647300000000000000000000000000600082015250565b7f4552433732313a20616472657373203020696e76616c69640000000000000000600082015250565b61299781612502565b81146129a257600080fd5b50565b6129ae81612514565b81146129b957600080fd5b50565b6129c581612520565b81146129d057600080fd5b50565b6129dc8161256c565b81146129e757600080fd5b5056fea264697066735822122028c01856209ed656484442468d1591136502c24618343a5113ca6c4fbf98d7a164736f6c63430008070033",
					"opcodes": "PUSH1 0x80 PUSH1 0x40 MSTORE CALLVALUE DUP1 ISZERO PUSH2 0x10 JUMPI PUSH1 0x0 DUP1 REVERT JUMPDEST POP PUSH2 0x2A20 DUP1 PUSH2 0x20 PUSH1 0x0 CODECOPY PUSH1 0x0 RETURN INVALID PUSH1 0x80 PUSH1 0x40 MSTORE PUSH1 0x4 CALLDATASIZE LT PUSH2 0xE8 JUMPI PUSH1 0x0 CALLDATALOAD PUSH1 0xE0 SHR DUP1 PUSH4 0x6352211E GT PUSH2 0x8A JUMPI DUP1 PUSH4 0x7FCB2989 GT PUSH2 0x59 JUMPI DUP1 PUSH4 0x7FCB2989 EQ PUSH2 0x303 JUMPI DUP1 PUSH4 0xA22CB465 EQ PUSH2 0x340 JUMPI DUP1 PUSH4 0xB88D4FDE EQ PUSH2 0x369 JUMPI DUP1 PUSH4 0xE985E9C5 EQ PUSH2 0x385 JUMPI PUSH2 0xE8 JUMP JUMPDEST DUP1 PUSH4 0x6352211E EQ PUSH2 0x235 JUMPI DUP1 PUSH4 0x6BA367A3 EQ PUSH2 0x272 JUMPI DUP1 PUSH4 0x70A08231 EQ PUSH2 0x29D JUMPI DUP1 PUSH4 0x7360CBBA EQ PUSH2 0x2DA JUMPI PUSH2 0xE8 JUMP JUMPDEST DUP1 PUSH4 0x23B872DD GT PUSH2 0xC6 JUMPI DUP1 PUSH4 0x23B872DD EQ PUSH2 0x183 JUMPI DUP1 PUSH4 0x3D02D0C9 EQ PUSH2 0x19F JUMPI DUP1 PUSH4 0x42842E0E EQ PUSH2 0x1DC JUMPI DUP1 PUSH4 0x4802693D EQ PUSH2 0x1F8 JUMPI PUSH2 0xE8 JUMP JUMPDEST DUP1 PUSH4 0x1FFC9A7 EQ PUSH2 0xED JUMPI DUP1 PUSH4 0x81812FC EQ PUSH2 0x12A JUMPI DUP1 PUSH4 0x95EA7B3 EQ PUSH2 0x167 JUMPI JUMPDEST PUSH1 0x0 DUP1 REVERT JUMPDEST CALLVALUE DUP1 ISZERO PUSH2 0xF9 JUMPI PUSH1 0x0 DUP1 REVERT JUMPDEST POP PUSH2 0x114 PUSH1 0x4 DUP1 CALLDATASIZE SUB DUP2 ADD SWAP1 PUSH2 0x10F SWAP2 SWAP1 PUSH2 0x1CBD JUMP JUMPDEST PUSH2 0x3C2 JUMP JUMPDEST PUSH1 0x40 MLOAD PUSH2 0x121 SWAP2 SWAP1 PUSH2 0x218D JUMP JUMPDEST PUSH1 0x40 MLOAD DUP1 SWAP2 SUB SWAP1 RETURN JUMPDEST CALLVALUE DUP1 ISZERO PUSH2 0x136 JUMPI PUSH1 0x0 DUP1 REVERT JUMPDEST POP PUSH2 0x151 PUSH1 0x4 DUP1 CALLDATASIZE SUB DUP2 ADD SWAP1 PUSH2 0x14C SWAP2 SWAP1 PUSH2 0x1D17 JUMP JUMPDEST PUSH2 0x42C JUMP JUMPDEST PUSH1 0x40 MLOAD PUSH2 0x15E SWAP2 SWAP1 PUSH2 0x2104 JUMP JUMPDEST PUSH1 0x40 MLOAD DUP1 SWAP2 SUB SWAP1 RETURN JUMPDEST PUSH2 0x181 PUSH1 0x4 DUP1 CALLDATASIZE SUB DUP2 ADD SWAP1 PUSH2 0x17C SWAP2 SWAP1 PUSH2 0x1C7D JUMP JUMPDEST PUSH2 0x469 JUMP JUMPDEST STOP JUMPDEST PUSH2 0x19D PUSH1 0x4 DUP1 CALLDATASIZE SUB DUP2 ADD SWAP1 PUSH2 0x198 SWAP2 SWAP1 PUSH2 0x1B0B JUMP JUMPDEST PUSH2 0x57D JUMP JUMPDEST STOP JUMPDEST CALLVALUE DUP1 ISZERO PUSH2 0x1AB JUMPI PUSH1 0x0 DUP1 REVERT JUMPDEST POP PUSH2 0x1C6 PUSH1 0x4 DUP1 CALLDATASIZE SUB DUP2 ADD SWAP1 PUSH2 0x1C1 SWAP2 SWAP1 PUSH2 0x1C21 JUMP JUMPDEST PUSH2 0x58D JUMP JUMPDEST PUSH1 0x40 MLOAD PUSH2 0x1D3 SWAP2 SWAP1 PUSH2 0x22CA JUMP JUMPDEST PUSH1 0x40 MLOAD DUP1 SWAP2 SUB SWAP1 RETURN JUMPDEST PUSH2 0x1F6 PUSH1 0x4 DUP1 CALLDATASIZE SUB DUP2 ADD SWAP1 PUSH2 0x1F1 SWAP2 SWAP1 PUSH2 0x1B0B JUMP JUMPDEST PUSH2 0x888 JUMP JUMPDEST STOP JUMPDEST CALLVALUE DUP1 ISZERO PUSH2 0x204 JUMPI PUSH1 0x0 DUP1 REVERT JUMPDEST POP PUSH2 0x21F PUSH1 0x4 DUP1 CALLDATASIZE SUB DUP2 ADD SWAP1 PUSH2 0x21A SWAP2 SWAP1 PUSH2 0x1A71 JUMP JUMPDEST PUSH2 0x8A8 JUMP JUMPDEST PUSH1 0x40 MLOAD PUSH2 0x22C SWAP2 SWAP1 PUSH2 0x21A8 JUMP JUMPDEST PUSH1 0x40 MLOAD DUP1 SWAP2 SUB SWAP1 RETURN JUMPDEST CALLVALUE DUP1 ISZERO PUSH2 0x241 JUMPI PUSH1 0x0 DUP1 REVERT JUMPDEST POP PUSH2 0x25C PUSH1 0x4 DUP1 CALLDATASIZE SUB DUP2 ADD SWAP1 PUSH2 0x257 SWAP2 SWAP1 PUSH2 0x1D17 JUMP JUMPDEST PUSH2 0x991 JUMP JUMPDEST PUSH1 0x40 MLOAD PUSH2 0x269 SWAP2 SWAP1 PUSH2 0x2104 JUMP JUMPDEST PUSH1 0x40 MLOAD DUP1 SWAP2 SUB SWAP1 RETURN JUMPDEST CALLVALUE DUP1 ISZERO PUSH2 0x27E JUMPI PUSH1 0x0 DUP1 REVERT JUMPDEST POP PUSH2 0x287 PUSH2 0xA76 JUMP JUMPDEST PUSH1 0x40 MLOAD PUSH2 0x294 SWAP2 SWAP1 PUSH2 0x22CA JUMP JUMPDEST PUSH1 0x40 MLOAD DUP1 SWAP2 SUB SWAP1 RETURN JUMPDEST CALLVALUE DUP1 ISZERO PUSH2 0x2A9 JUMPI PUSH1 0x0 DUP1 REVERT JUMPDEST POP PUSH2 0x2C4 PUSH1 0x4 DUP1 CALLDATASIZE SUB DUP2 ADD SWAP1 PUSH2 0x2BF SWAP2 SWAP1 PUSH2 0x1A71 JUMP JUMPDEST PUSH2 0xA82 JUMP JUMPDEST PUSH1 0x40 MLOAD PUSH2 0x2D1 SWAP2 SWAP1 PUSH2 0x22CA JUMP JUMPDEST PUSH1 0x40 MLOAD DUP1 SWAP2 SUB SWAP1 RETURN JUMPDEST CALLVALUE DUP1 ISZERO PUSH2 0x2E6 JUMPI PUSH1 0x0 DUP1 REVERT JUMPDEST POP PUSH2 0x301 PUSH1 0x4 DUP1 CALLDATASIZE SUB DUP2 ADD SWAP1 PUSH2 0x2FC SWAP2 SWAP1 PUSH2 0x1D44 JUMP JUMPDEST PUSH2 0xAE9 JUMP JUMPDEST STOP JUMPDEST CALLVALUE DUP1 ISZERO PUSH2 0x30F JUMPI PUSH1 0x0 DUP1 REVERT JUMPDEST POP PUSH2 0x32A PUSH1 0x4 DUP1 CALLDATASIZE SUB DUP2 ADD SWAP1 PUSH2 0x325 SWAP2 SWAP1 PUSH2 0x1A71 JUMP JUMPDEST PUSH2 0xBD0 JUMP JUMPDEST PUSH1 0x40 MLOAD PUSH2 0x337 SWAP2 SWAP1 PUSH2 0x216B JUMP JUMPDEST PUSH1 0x40 MLOAD DUP1 SWAP2 SUB SWAP1 RETURN JUMPDEST CALLVALUE DUP1 ISZERO PUSH2 0x34C JUMPI PUSH1 0x0 DUP1 REVERT JUMPDEST POP PUSH2 0x367 PUSH1 0x4 DUP1 CALLDATASIZE SUB DUP2 ADD SWAP1 PUSH2 0x362 SWAP2 SWAP1 PUSH2 0x1BE1 JUMP JUMPDEST PUSH2 0xCE8 JUMP JUMPDEST STOP JUMPDEST PUSH2 0x383 PUSH1 0x4 DUP1 CALLDATASIZE SUB DUP2 ADD SWAP1 PUSH2 0x37E SWAP2 SWAP1 PUSH2 0x1B5E JUMP JUMPDEST PUSH2 0xE54 JUMP JUMPDEST STOP JUMPDEST CALLVALUE DUP1 ISZERO PUSH2 0x391 JUMPI PUSH1 0x0 DUP1 REVERT JUMPDEST POP PUSH2 0x3AC PUSH1 0x4 DUP1 CALLDATASIZE SUB DUP2 ADD SWAP1 PUSH2 0x3A7 SWAP2 SWAP1 PUSH2 0x1ACB JUMP JUMPDEST PUSH2 0xEAF JUMP JUMPDEST PUSH1 0x40 MLOAD PUSH2 0x3B9 SWAP2 SWAP1 PUSH2 0x218D JUMP JUMPDEST PUSH1 0x40 MLOAD DUP1 SWAP2 SUB SWAP1 RETURN JUMPDEST PUSH1 0x0 PUSH32 0x80AC58CD00000000000000000000000000000000000000000000000000000000 PUSH28 0xFFFFFFFFFFFFFFFFFFFFFFFFFFFFFFFFFFFFFFFFFFFFFFFFFFFFFFFF NOT AND DUP3 PUSH28 0xFFFFFFFFFFFFFFFFFFFFFFFFFFFFFFFFFFFFFFFFFFFFFFFFFFFFFFFF NOT AND EQ SWAP1 POP SWAP2 SWAP1 POP JUMP JUMPDEST PUSH1 0x0 PUSH1 0x5 PUSH1 0x0 DUP4 DUP2 MSTORE PUSH1 0x20 ADD SWAP1 DUP2 MSTORE PUSH1 0x20 ADD PUSH1 0x0 KECCAK256 PUSH1 0x0 SWAP1 SLOAD SWAP1 PUSH2 0x100 EXP SWAP1 DIV PUSH20 0xFFFFFFFFFFFFFFFFFFFFFFFFFFFFFFFFFFFFFFFF AND SWAP1 POP SWAP2 SWAP1 POP JUMP JUMPDEST PUSH2 0x472 DUP2 PUSH2 0x991 JUMP JUMPDEST PUSH20 0xFFFFFFFFFFFFFFFFFFFFFFFFFFFFFFFFFFFFFFFF AND DUP3 PUSH20 0xFFFFFFFFFFFFFFFFFFFFFFFFFFFFFFFFFFFFFFFF AND EQ ISZERO PUSH2 0x4E0 JUMPI PUSH1 0x40 MLOAD PUSH32 0x8C379A000000000000000000000000000000000000000000000000000000000 DUP2 MSTORE PUSH1 0x4 ADD PUSH2 0x4D7 SWAP1 PUSH2 0x224A JUMP JUMPDEST PUSH1 0x40 MLOAD DUP1 SWAP2 SUB SWAP1 REVERT JUMPDEST PUSH2 0x4E9 DUP2 PUSH2 0x991 JUMP JUMPDEST PUSH20 0xFFFFFFFFFFFFFFFFFFFFFFFFFFFFFFFFFFFFFFFF AND CALLER PUSH20 0xFFFFFFFFFFFFFFFFFFFFFFFFFFFFFFFFFFFFFFFF AND EQ DUP1 PUSH2 0x530 JUMPI POP PUSH2 0x52F PUSH2 0x529 DUP3 PUSH2 0x991 JUMP JUMPDEST CALLER PUSH2 0xEAF JUMP JUMPDEST JUMPDEST PUSH2 0x56F JUMPI PUSH1 0x40 MLOAD PUSH32 0x8C379A000000000000000000000000000000000000000000000000000000000 DUP2 MSTORE PUSH1 0x4 ADD PUSH2 0x566 SWAP1 PUSH2 0x220A JUMP JUMPDEST PUSH1 0x40 MLOAD DUP1 SWAP2 SUB SWAP1 REVERT JUMPDEST PUSH2 0x579 DUP3 DUP3 PUSH2 0xF43 JUMP JUMPDEST POP POP JUMP JUMPDEST PUSH2 0x588 DUP4 DUP4 DUP4 PUSH2 0x888 JUMP JUMPDEST POP POP POP JUMP JUMPDEST PUSH1 0x0 DUP1 PUSH1 0x40 MLOAD DUP1 PUSH1 0x40 ADD PUSH1 0x40 MSTORE DUP1 CALLER PUSH20 0xFFFFFFFFFFFFFFFFFFFFFFFFFFFFFFFFFFFFFFFF AND DUP2 MSTORE PUSH1 0x20 ADD TIMESTAMP PUSH8 0xFFFFFFFFFFFFFFFF AND DUP2 MSTORE POP SWAP1 POP PUSH1 0x0 PUSH20 0xFFFFFFFFFFFFFFFFFFFFFFFFFFFFFFFFFFFFFFFF AND DUP5 PUSH20 0xFFFFFFFFFFFFFFFFFFFFFFFFFFFFFFFFFFFFFFFF AND EQ ISZERO PUSH2 0x601 JUMPI PUSH1 0x0 DUP1 REVERT JUMPDEST PUSH1 0x0 DUP2 SWAP1 DUP1 PUSH1 0x1 DUP2 SLOAD ADD DUP1 DUP3 SSTORE DUP1 SWAP2 POP POP PUSH1 0x1 SWAP1 SUB SWAP1 PUSH1 0x0 MSTORE PUSH1 0x20 PUSH1 0x0 KECCAK256 ADD PUSH1 0x0 SWAP1 SWAP2 SWAP1 SWAP2 SWAP1 SWAP2 POP PUSH1 0x0 DUP3 ADD MLOAD DUP2 PUSH1 0x0 ADD PUSH1 0x0 PUSH2 0x100 EXP DUP2 SLOAD DUP2 PUSH20 0xFFFFFFFFFFFFFFFFFFFFFFFFFFFFFFFFFFFFFFFF MUL NOT AND SWAP1 DUP4 PUSH20 0xFFFFFFFFFFFFFFFFFFFFFFFFFFFFFFFFFFFFFFFF AND MUL OR SWAP1 SSTORE POP PUSH1 0x20 DUP3 ADD MLOAD DUP2 PUSH1 0x0 ADD PUSH1 0x14 PUSH2 0x100 EXP DUP2 SLOAD DUP2 PUSH8 0xFFFFFFFFFFFFFFFF MUL NOT AND SWAP1 DUP4 PUSH8 0xFFFFFFFFFFFFFFFF AND MUL OR SWAP1 SSTORE POP POP POP PUSH1 0x0 DUP1 SLOAD SWAP1 POP SWAP2 POP DUP3 PUSH1 0x2 PUSH1 0x0 DUP5 DUP2 MSTORE PUSH1 0x20 ADD SWAP1 DUP2 MSTORE PUSH1 0x20 ADD PUSH1 0x0 KECCAK256 SWAP1 DUP1 MLOAD SWAP1 PUSH1 0x20 ADD SWAP1 PUSH2 0x6D0 SWAP3 SWAP2 SWAP1 PUSH2 0x1774 JUMP JUMPDEST POP PUSH1 0x1 PUSH1 0x0 DUP6 PUSH20 0xFFFFFFFFFFFFFFFFFFFFFFFFFFFFFFFFFFFFFFFF AND PUSH20 0xFFFFFFFFFFFFFFFFFFFFFFFFFFFFFFFFFFFFFFFF AND DUP2 MSTORE PUSH1 0x20 ADD SWAP1 DUP2 MSTORE PUSH1 0x20 ADD PUSH1 0x0 KECCAK256 DUP4 SWAP1 DUP1 PUSH1 0x1 DUP2 SLOAD ADD DUP1 DUP3 SSTORE DUP1 SWAP2 POP POP PUSH1 0x1 SWAP1 SUB SWAP1 PUSH1 0x0 MSTORE PUSH1 0x20 PUSH1 0x0 KECCAK256 ADD PUSH1 0x0 SWAP1 SWAP2 SWAP1 SWAP2 SWAP1 SWAP2 POP SWAP1 DUP1 MLOAD SWAP1 PUSH1 0x20 ADD SWAP1 PUSH2 0x749 SWAP3 SWAP2 SWAP1 PUSH2 0x1774 JUMP JUMPDEST POP PUSH1 0x1 PUSH1 0x4 PUSH1 0x0 DUP7 PUSH20 0xFFFFFFFFFFFFFFFFFFFFFFFFFFFFFFFFFFFFFFFF AND PUSH20 0xFFFFFFFFFFFFFFFFFFFFFFFFFFFFFFFFFFFFFFFF AND DUP2 MSTORE PUSH1 0x20 ADD SWAP1 DUP2 MSTORE PUSH1 0x20 ADD PUSH1 0x0 KECCAK256 PUSH1 0x0 DUP3 DUP3 DUP3 SWAP1 SLOAD SWAP1 PUSH2 0x100 EXP SWAP1 DIV PUSH8 0xFFFFFFFFFFFFFFFF AND PUSH2 0x7AD SWAP2 SWAP1 PUSH2 0x2490 JUMP JUMPDEST SWAP3 POP PUSH2 0x100 EXP DUP2 SLOAD DUP2 PUSH8 0xFFFFFFFFFFFFFFFF MUL NOT AND SWAP1 DUP4 PUSH8 0xFFFFFFFFFFFFFFFF AND MUL OR SWAP1 SSTORE POP DUP4 PUSH1 0x3 PUSH1 0x0 DUP5 DUP2 MSTORE PUSH1 0x20 ADD SWAP1 DUP2 MSTORE PUSH1 0x20 ADD PUSH1 0x0 KECCAK256 PUSH1 0x0 PUSH2 0x100 EXP DUP2 SLOAD DUP2 PUSH20 0xFFFFFFFFFFFFFFFFFFFFFFFFFFFFFFFFFFFFFFFF MUL NOT AND SWAP1 DUP4 PUSH20 0xFFFFFFFFFFFFFFFFFFFFFFFFFFFFFFFFFFFFFFFF AND MUL OR SWAP1 SSTORE POP DUP2 DUP5 PUSH20 0xFFFFFFFFFFFFFFFFFFFFFFFFFFFFFFFFFFFFFFFF AND PUSH1 0x0 PUSH20 0xFFFFFFFFFFFFFFFFFFFFFFFFFFFFFFFFFFFFFFFF AND PUSH32 0xDDF252AD1BE2C89B69C2B068FC378DAA952BA7F163C4A11628F55A4DF523B3EF PUSH1 0x40 MLOAD PUSH1 0x40 MLOAD DUP1 SWAP2 SUB SWAP1 LOG4 POP SWAP3 SWAP2 POP POP JUMP JUMPDEST PUSH2 0x8A3 DUP4 DUP4 DUP4 PUSH1 0x40 MLOAD DUP1 PUSH1 0x20 ADD PUSH1 0x40 MSTORE DUP1 PUSH1 0x0 DUP2 MSTORE POP PUSH2 0xE54 JUMP JUMPDEST POP POP POP JUMP JUMPDEST PUSH1 0x60 PUSH1 0x0 PUSH1 0x40 MLOAD DUP1 PUSH1 0x20 ADD PUSH1 0x40 MSTORE DUP1 PUSH1 0x0 DUP2 MSTORE POP SWAP1 POP PUSH1 0x0 PUSH1 0x1 SWAP1 POP JUMPDEST PUSH1 0x0 DUP1 SLOAD SWAP1 POP DUP2 GT PUSH2 0x987 JUMPI DUP4 PUSH20 0xFFFFFFFFFFFFFFFFFFFFFFFFFFFFFFFFFFFFFFFF AND PUSH1 0x3 PUSH1 0x0 DUP4 DUP2 MSTORE PUSH1 0x20 ADD SWAP1 DUP2 MSTORE PUSH1 0x20 ADD PUSH1 0x0 KECCAK256 PUSH1 0x0 SWAP1 SLOAD SWAP1 PUSH2 0x100 EXP SWAP1 DIV PUSH20 0xFFFFFFFFFFFFFFFFFFFFFFFFFFFFFFFFFFFFFFFF AND PUSH20 0xFFFFFFFFFFFFFFFFFFFFFFFFFFFFFFFFFFFFFFFF AND EQ ISZERO PUSH2 0x973 JUMPI DUP2 PUSH1 0x2 PUSH1 0x0 DUP4 DUP2 MSTORE PUSH1 0x20 ADD SWAP1 DUP2 MSTORE PUSH1 0x20 ADD PUSH1 0x0 KECCAK256 PUSH1 0x40 MLOAD PUSH1 0x20 ADD PUSH2 0x95D SWAP3 SWAP2 SWAP1 PUSH2 0x20C9 JUMP JUMPDEST PUSH1 0x40 MLOAD PUSH1 0x20 DUP2 DUP4 SUB SUB DUP2 MSTORE SWAP1 PUSH1 0x40 MSTORE SWAP2 POP PUSH2 0x974 JUMP JUMPDEST JUMPDEST DUP1 DUP1 PUSH2 0x97F SWAP1 PUSH2 0x2659 JUMP JUMPDEST SWAP2 POP POP PUSH2 0x8C5 JUMP JUMPDEST POP DUP1 SWAP2 POP POP SWAP2 SWAP1 POP JUMP JUMPDEST PUSH1 0x0 DUP1 PUSH1 0x3 PUSH1 0x0 DUP5 DUP2 MSTORE PUSH1 0x20 ADD SWAP1 DUP2 MSTORE PUSH1 0x20 ADD PUSH1 0x0 KECCAK256 PUSH1 0x0 SWAP1 SLOAD SWAP1 PUSH2 0x100 EXP SWAP1 DIV PUSH20 0xFFFFFFFFFFFFFFFFFFFFFFFFFFFFFFFFFFFFFFFF AND SWAP1 POP PUSH1 0x0 PUSH20 0xFFFFFFFFFFFFFFFFFFFFFFFFFFFFFFFFFFFFFFFF AND DUP2 PUSH20 0xFFFFFFFFFFFFFFFFFFFFFFFFFFFFFFFFFFFFFFFF AND EQ ISZERO PUSH2 0xA3A JUMPI PUSH1 0x40 MLOAD PUSH32 0x8C379A000000000000000000000000000000000000000000000000000000000 DUP2 MSTORE PUSH1 0x4 ADD PUSH2 0xA31 SWAP1 PUSH2 0x22AA JUMP JUMPDEST PUSH1 0x40 MLOAD DUP1 SWAP2 SUB SWAP1 REVERT JUMPDEST PUSH1 0x3 PUSH1 0x0 DUP5 DUP2 MSTORE PUSH1 0x20 ADD SWAP1 DUP2 MSTORE PUSH1 0x20 ADD PUSH1 0x0 KECCAK256 PUSH1 0x0 SWAP1 SLOAD SWAP1 PUSH2 0x100 EXP SWAP1 DIV PUSH20 0xFFFFFFFFFFFFFFFFFFFFFFFFFFFFFFFFFFFFFFFF AND SWAP2 POP POP SWAP2 SWAP1 POP JUMP JUMPDEST PUSH1 0x0 DUP1 DUP1 SLOAD SWAP1 POP SWAP1 POP SWAP1 JUMP JUMPDEST PUSH1 0x0 PUSH1 0x4 PUSH1 0x0 DUP4 PUSH20 0xFFFFFFFFFFFFFFFFFFFFFFFFFFFFFFFFFFFFFFFF AND PUSH20 0xFFFFFFFFFFFFFFFFFFFFFFFFFFFFFFFFFFFFFFFF AND DUP2 MSTORE PUSH1 0x20 ADD SWAP1 DUP2 MSTORE PUSH1 0x20 ADD PUSH1 0x0 KECCAK256 PUSH1 0x0 SWAP1 SLOAD SWAP1 PUSH2 0x100 EXP SWAP1 DIV PUSH8 0xFFFFFFFFFFFFFFFF AND PUSH8 0xFFFFFFFFFFFFFFFF AND SWAP1 POP SWAP2 SWAP1 POP JUMP JUMPDEST DUP1 MLOAD DUP3 LT PUSH2 0xB2C JUMPI PUSH1 0x40 MLOAD PUSH32 0x8C379A000000000000000000000000000000000000000000000000000000000 DUP2 MSTORE PUSH1 0x4 ADD PUSH2 0xB23 SWAP1 PUSH2 0x228A JUMP JUMPDEST PUSH1 0x40 MLOAD DUP1 SWAP2 SUB SWAP1 REVERT JUMPDEST PUSH1 0x0 DUP3 SWAP1 POP JUMPDEST PUSH1 0x1 DUP3 MLOAD PUSH2 0xB40 SWAP2 SWAP1 PUSH2 0x24CE JUMP JUMPDEST DUP2 LT ISZERO PUSH2 0xB9F JUMPI DUP2 PUSH1 0x1 DUP3 PUSH2 0xB55 SWAP2 SWAP1 PUSH2 0x243A JUMP JUMPDEST DUP2 MLOAD DUP2 LT PUSH2 0xB66 JUMPI PUSH2 0xB65 PUSH2 0x2700 JUMP JUMPDEST JUMPDEST PUSH1 0x20 MUL PUSH1 0x20 ADD ADD MLOAD DUP3 DUP3 DUP2 MLOAD DUP2 LT PUSH2 0xB81 JUMPI PUSH2 0xB80 PUSH2 0x2700 JUMP JUMPDEST JUMPDEST PUSH1 0x20 MUL PUSH1 0x20 ADD ADD DUP2 SWAP1 MSTORE POP DUP1 DUP1 PUSH2 0xB97 SWAP1 PUSH2 0x2659 JUMP JUMPDEST SWAP2 POP POP PUSH2 0xB32 JUMP JUMPDEST POP DUP1 PUSH1 0x1 DUP3 MLOAD PUSH2 0xBAF SWAP2 SWAP1 PUSH2 0x24CE JUMP JUMPDEST DUP2 MLOAD DUP2 LT PUSH2 0xBC0 JUMPI PUSH2 0xBBF PUSH2 0x2700 JUMP JUMPDEST JUMPDEST PUSH1 0x20 MUL PUSH1 0x20 ADD ADD PUSH1 0x60 DUP2 MSTORE POP POP POP JUMP JUMPDEST PUSH1 0x60 PUSH1 0x1 PUSH1 0x0 DUP4 PUSH20 0xFFFFFFFFFFFFFFFFFFFFFFFFFFFFFFFFFFFFFFFF AND PUSH20 0xFFFFFFFFFFFFFFFFFFFFFFFFFFFFFFFFFFFFFFFF AND DUP2 MSTORE PUSH1 0x20 ADD SWAP1 DUP2 MSTORE PUSH1 0x20 ADD PUSH1 0x0 KECCAK256 DUP1 SLOAD DUP1 PUSH1 0x20 MUL PUSH1 0x20 ADD PUSH1 0x40 MLOAD SWAP1 DUP2 ADD PUSH1 0x40 MSTORE DUP1 SWAP3 SWAP2 SWAP1 DUP2 DUP2 MSTORE PUSH1 0x20 ADD PUSH1 0x0 SWAP1 JUMPDEST DUP3 DUP3 LT ISZERO PUSH2 0xCDD JUMPI DUP4 DUP3 SWAP1 PUSH1 0x0 MSTORE PUSH1 0x20 PUSH1 0x0 KECCAK256 ADD DUP1 SLOAD PUSH2 0xC50 SWAP1 PUSH2 0x25F6 JUMP JUMPDEST DUP1 PUSH1 0x1F ADD PUSH1 0x20 DUP1 SWAP2 DIV MUL PUSH1 0x20 ADD PUSH1 0x40 MLOAD SWAP1 DUP2 ADD PUSH1 0x40 MSTORE DUP1 SWAP3 SWAP2 SWAP1 DUP2 DUP2 MSTORE PUSH1 0x20 ADD DUP3 DUP1 SLOAD PUSH2 0xC7C SWAP1 PUSH2 0x25F6 JUMP JUMPDEST DUP1 ISZERO PUSH2 0xCC9 JUMPI DUP1 PUSH1 0x1F LT PUSH2 0xC9E JUMPI PUSH2 0x100 DUP1 DUP4 SLOAD DIV MUL DUP4 MSTORE SWAP2 PUSH1 0x20 ADD SWAP2 PUSH2 0xCC9 JUMP JUMPDEST DUP3 ADD SWAP2 SWAP1 PUSH1 0x0 MSTORE PUSH1 0x20 PUSH1 0x0 KECCAK256 SWAP1 JUMPDEST DUP2 SLOAD DUP2 MSTORE SWAP1 PUSH1 0x1 ADD SWAP1 PUSH1 0x20 ADD DUP1 DUP4 GT PUSH2 0xCAC JUMPI DUP3 SWAP1 SUB PUSH1 0x1F AND DUP3 ADD SWAP2 JUMPDEST POP POP POP POP POP DUP2 MSTORE PUSH1 0x20 ADD SWAP1 PUSH1 0x1 ADD SWAP1 PUSH2 0xC31 JUMP JUMPDEST POP POP POP POP SWAP1 POP SWAP2 SWAP1 POP JUMP JUMPDEST CALLER PUSH20 0xFFFFFFFFFFFFFFFFFFFFFFFFFFFFFFFFFFFFFFFF AND DUP3 PUSH20 0xFFFFFFFFFFFFFFFFFFFFFFFFFFFFFFFFFFFFFFFF AND EQ ISZERO PUSH2 0xD57 JUMPI PUSH1 0x40 MLOAD PUSH32 0x8C379A000000000000000000000000000000000000000000000000000000000 DUP2 MSTORE PUSH1 0x4 ADD PUSH2 0xD4E SWAP1 PUSH2 0x21EA JUMP JUMPDEST PUSH1 0x40 MLOAD DUP1 SWAP2 SUB SWAP1 REVERT JUMPDEST DUP1 PUSH1 0x6 PUSH1 0x0 CALLER PUSH20 0xFFFFFFFFFFFFFFFFFFFFFFFFFFFFFFFFFFFFFFFF AND PUSH20 0xFFFFFFFFFFFFFFFFFFFFFFFFFFFFFFFFFFFFFFFF AND DUP2 MSTORE PUSH1 0x20 ADD SWAP1 DUP2 MSTORE PUSH1 0x20 ADD PUSH1 0x0 KECCAK256 PUSH1 0x0 DUP5 PUSH20 0xFFFFFFFFFFFFFFFFFFFFFFFFFFFFFFFFFFFFFFFF AND PUSH20 0xFFFFFFFFFFFFFFFFFFFFFFFFFFFFFFFFFFFFFFFF AND DUP2 MSTORE PUSH1 0x20 ADD SWAP1 DUP2 MSTORE PUSH1 0x20 ADD PUSH1 0x0 KECCAK256 PUSH1 0x0 PUSH2 0x100 EXP DUP2 SLOAD DUP2 PUSH1 0xFF MUL NOT AND SWAP1 DUP4 ISZERO ISZERO MUL OR SWAP1 SSTORE POP DUP2 PUSH20 0xFFFFFFFFFFFFFFFFFFFFFFFFFFFFFFFFFFFFFFFF AND CALLER PUSH20 0xFFFFFFFFFFFFFFFFFFFFFFFFFFFFFFFFFFFFFFFF AND PUSH32 0x17307EAB39AB6107E8899845AD3D59BD9653F200F220920489CA2B5937696C31 DUP4 PUSH1 0x40 MLOAD PUSH2 0xE48 SWAP2 SWAP1 PUSH2 0x218D JUMP JUMPDEST PUSH1 0x40 MLOAD DUP1 SWAP2 SUB SWAP1 LOG3 POP POP JUMP JUMPDEST PUSH2 0xE5E CALLER DUP4 PUSH2 0x107D JUMP JUMPDEST PUSH2 0xE9D JUMPI PUSH1 0x40 MLOAD PUSH32 0x8C379A000000000000000000000000000000000000000000000000000000000 DUP2 MSTORE PUSH1 0x4 ADD PUSH2 0xE94 SWAP1 PUSH2 0x226A JUMP JUMPDEST PUSH1 0x40 MLOAD DUP1 SWAP2 SUB SWAP1 REVERT JUMPDEST PUSH2 0xEA9 DUP5 DUP5 DUP5 DUP5 PUSH2 0x1115 JUMP JUMPDEST POP POP POP POP JUMP JUMPDEST PUSH1 0x0 PUSH1 0x6 PUSH1 0x0 DUP5 PUSH20 0xFFFFFFFFFFFFFFFFFFFFFFFFFFFFFFFFFFFFFFFF AND PUSH20 0xFFFFFFFFFFFFFFFFFFFFFFFFFFFFFFFFFFFFFFFF AND DUP2 MSTORE PUSH1 0x20 ADD SWAP1 DUP2 MSTORE PUSH1 0x20 ADD PUSH1 0x0 KECCAK256 PUSH1 0x0 DUP4 PUSH20 0xFFFFFFFFFFFFFFFFFFFFFFFFFFFFFFFFFFFFFFFF AND PUSH20 0xFFFFFFFFFFFFFFFFFFFFFFFFFFFFFFFFFFFFFFFF AND DUP2 MSTORE PUSH1 0x20 ADD SWAP1 DUP2 MSTORE PUSH1 0x20 ADD PUSH1 0x0 KECCAK256 PUSH1 0x0 SWAP1 SLOAD SWAP1 PUSH2 0x100 EXP SWAP1 DIV PUSH1 0xFF AND SWAP1 POP SWAP3 SWAP2 POP POP JUMP JUMPDEST DUP2 PUSH1 0x5 PUSH1 0x0 DUP4 DUP2 MSTORE PUSH1 0x20 ADD SWAP1 DUP2 MSTORE PUSH1 0x20 ADD PUSH1 0x0 KECCAK256 PUSH1 0x0 PUSH2 0x100 EXP DUP2 SLOAD DUP2 PUSH20 0xFFFFFFFFFFFFFFFFFFFFFFFFFFFFFFFFFFFFFFFF MUL NOT AND SWAP1 DUP4 PUSH20 0xFFFFFFFFFFFFFFFFFFFFFFFFFFFFFFFFFFFFFFFF AND MUL OR SWAP1 SSTORE POP PUSH1 0x0 DUP3 PUSH20 0xFFFFFFFFFFFFFFFFFFFFFFFFFFFFFFFFFFFFFFFF AND ADDRESS PUSH20 0xFFFFFFFFFFFFFFFFFFFFFFFFFFFFFFFFFFFFFFFF AND PUSH4 0x6352211E DUP5 PUSH1 0x40 MLOAD DUP3 PUSH4 0xFFFFFFFF AND PUSH1 0xE0 SHL DUP2 MSTORE PUSH1 0x4 ADD PUSH2 0xFE7 SWAP2 SWAP1 PUSH2 0x22CA JUMP JUMPDEST PUSH1 0x20 PUSH1 0x40 MLOAD DUP1 DUP4 SUB DUP2 DUP7 DUP1 EXTCODESIZE ISZERO DUP1 ISZERO PUSH2 0xFFF JUMPI PUSH1 0x0 DUP1 REVERT JUMPDEST POP GAS STATICCALL ISZERO DUP1 ISZERO PUSH2 0x1013 JUMPI RETURNDATASIZE PUSH1 0x0 DUP1 RETURNDATACOPY RETURNDATASIZE PUSH1 0x0 REVERT JUMPDEST POP POP POP POP PUSH1 0x40 MLOAD RETURNDATASIZE PUSH1 0x1F NOT PUSH1 0x1F DUP3 ADD AND DUP3 ADD DUP1 PUSH1 0x40 MSTORE POP DUP2 ADD SWAP1 PUSH2 0x1037 SWAP2 SWAP1 PUSH2 0x1A9E JUMP JUMPDEST PUSH20 0xFFFFFFFFFFFFFFFFFFFFFFFFFFFFFFFFFFFFFFFF AND PUSH32 0x8C5BE1E5EBEC7D5BD14F71427D1E84F3DD0314C0F7B2291E5B200AC8C7C3B925 PUSH1 0x40 MLOAD PUSH1 0x40 MLOAD DUP1 SWAP2 SUB SWAP1 LOG4 POP POP JUMP JUMPDEST PUSH1 0x0 DUP3 PUSH20 0xFFFFFFFFFFFFFFFFFFFFFFFFFFFFFFFFFFFFFFFF AND PUSH2 0x109F DUP4 PUSH2 0x991 JUMP JUMPDEST PUSH20 0xFFFFFFFFFFFFFFFFFFFFFFFFFFFFFFFFFFFFFFFF AND EQ DUP1 PUSH2 0x10F4 JUMPI POP DUP3 PUSH20 0xFFFFFFFFFFFFFFFFFFFFFFFFFFFFFFFFFFFFFFFF AND PUSH2 0x10DC DUP4 PUSH2 0x42C JUMP JUMPDEST PUSH20 0xFFFFFFFFFFFFFFFFFFFFFFFFFFFFFFFFFFFFFFFF AND EQ JUMPDEST DUP1 PUSH2 0x110D JUMPI POP PUSH2 0x110C PUSH2 0x1106 DUP4 PUSH2 0x991 JUMP JUMPDEST DUP5 PUSH2 0xEAF JUMP JUMPDEST JUMPDEST SWAP1 POP SWAP3 SWAP2 POP POP JUMP JUMPDEST PUSH2 0x1120 DUP5 DUP5 DUP5 PUSH2 0x1298 JUMP JUMPDEST PUSH1 0x0 DUP4 EXTCODESIZE SWAP1 POP PUSH1 0x0 DUP2 PUSH4 0xFFFFFFFF AND GT ISZERO PUSH2 0x1291 JUMPI PUSH1 0x0 DUP5 SWAP1 POP PUSH32 0x150B7A023D4804D13E8C85FB27262CB750CF6BA9F9DD3BB30D90F482CEEB4B1F PUSH28 0xFFFFFFFFFFFFFFFFFFFFFFFFFFFFFFFFFFFFFFFFFFFFFFFFFFFFFFFF NOT AND DUP2 PUSH20 0xFFFFFFFFFFFFFFFFFFFFFFFFFFFFFFFFFFFFFFFF AND PUSH4 0x150B7A02 CALLER DUP10 DUP9 DUP9 PUSH1 0x40 MLOAD DUP6 PUSH4 0xFFFFFFFF AND PUSH1 0xE0 SHL DUP2 MSTORE PUSH1 0x4 ADD PUSH2 0x11B9 SWAP5 SWAP4 SWAP3 SWAP2 SWAP1 PUSH2 0x211F JUMP JUMPDEST PUSH1 0x20 PUSH1 0x40 MLOAD DUP1 DUP4 SUB DUP2 PUSH1 0x0 DUP8 DUP1 EXTCODESIZE ISZERO DUP1 ISZERO PUSH2 0x11D3 JUMPI PUSH1 0x0 DUP1 REVERT JUMPDEST POP GAS CALL ISZERO DUP1 ISZERO PUSH2 0x11E7 JUMPI RETURNDATASIZE PUSH1 0x0 DUP1 RETURNDATACOPY RETURNDATASIZE PUSH1 0x0 REVERT JUMPDEST POP POP POP POP PUSH1 0x40 MLOAD RETURNDATASIZE PUSH1 0x1F NOT PUSH1 0x1F DUP3 ADD AND DUP3 ADD DUP1 PUSH1 0x40 MSTORE POP DUP2 ADD SWAP1 PUSH2 0x120B SWAP2 SWAP1 PUSH2 0x1CEA JUMP JUMPDEST PUSH28 0xFFFFFFFFFFFFFFFFFFFFFFFFFFFFFFFFFFFFFFFFFFFFFFFFFFFFFFFF NOT AND EQ PUSH2 0x1234 JUMPI PUSH1 0x0 DUP1 REVERT JUMPDEST DUP4 DUP6 PUSH20 0xFFFFFFFFFFFFFFFFFFFFFFFFFFFFFFFFFFFFFFFF AND DUP8 PUSH20 0xFFFFFFFFFFFFFFFFFFFFFFFFFFFFFFFFFFFFFFFF AND PUSH32 0xDDF252AD1BE2C89B69C2B068FC378DAA952BA7F163C4A11628F55A4DF523B3EF PUSH1 0x40 MLOAD PUSH1 0x40 MLOAD DUP1 SWAP2 SUB SWAP1 LOG4 POP JUMPDEST POP POP POP POP POP JUMP JUMPDEST DUP3 PUSH20 0xFFFFFFFFFFFFFFFFFFFFFFFFFFFFFFFFFFFFFFFF AND PUSH2 0x12B8 DUP3 PUSH2 0x991 JUMP JUMPDEST PUSH20 0xFFFFFFFFFFFFFFFFFFFFFFFFFFFFFFFFFFFFFFFF AND EQ PUSH2 0x130E JUMPI PUSH1 0x40 MLOAD PUSH32 0x8C379A000000000000000000000000000000000000000000000000000000000 DUP2 MSTORE PUSH1 0x4 ADD PUSH2 0x1305 SWAP1 PUSH2 0x222A JUMP JUMPDEST PUSH1 0x40 MLOAD DUP1 SWAP2 SUB SWAP1 REVERT JUMPDEST PUSH1 0x0 PUSH20 0xFFFFFFFFFFFFFFFFFFFFFFFFFFFFFFFFFFFFFFFF AND DUP3 PUSH20 0xFFFFFFFFFFFFFFFFFFFFFFFFFFFFFFFFFFFFFFFF AND EQ ISZERO PUSH2 0x137E JUMPI PUSH1 0x40 MLOAD PUSH32 0x8C379A000000000000000000000000000000000000000000000000000000000 DUP2 MSTORE PUSH1 0x4 ADD PUSH2 0x1375 SWAP1 PUSH2 0x21CA JUMP JUMPDEST PUSH1 0x40 MLOAD DUP1 SWAP2 SUB SWAP1 REVERT JUMPDEST PUSH2 0x1389 PUSH1 0x0 DUP3 PUSH2 0xF43 JUMP JUMPDEST DUP2 PUSH1 0x3 PUSH1 0x0 DUP4 DUP2 MSTORE PUSH1 0x20 ADD SWAP1 DUP2 MSTORE PUSH1 0x20 ADD PUSH1 0x0 KECCAK256 PUSH1 0x0 PUSH2 0x100 EXP DUP2 SLOAD DUP2 PUSH20 0xFFFFFFFFFFFFFFFFFFFFFFFFFFFFFFFFFFFFFFFF MUL NOT AND SWAP1 DUP4 PUSH20 0xFFFFFFFFFFFFFFFFFFFFFFFFFFFFFFFFFFFFFFFF AND MUL OR SWAP1 SSTORE POP PUSH1 0x0 PUSH1 0x1 PUSH1 0x0 DUP6 PUSH20 0xFFFFFFFFFFFFFFFFFFFFFFFFFFFFFFFFFFFFFFFF AND PUSH20 0xFFFFFFFFFFFFFFFFFFFFFFFFFFFFFFFFFFFFFFFF AND DUP2 MSTORE PUSH1 0x20 ADD SWAP1 DUP2 MSTORE PUSH1 0x20 ADD PUSH1 0x0 KECCAK256 DUP1 SLOAD SWAP1 POP SWAP1 POP PUSH1 0x4 PUSH1 0x0 DUP6 PUSH20 0xFFFFFFFFFFFFFFFFFFFFFFFFFFFFFFFFFFFFFFFF AND PUSH20 0xFFFFFFFFFFFFFFFFFFFFFFFFFFFFFFFFFFFFFFFF AND DUP2 MSTORE PUSH1 0x20 ADD SWAP1 DUP2 MSTORE PUSH1 0x20 ADD PUSH1 0x0 KECCAK256 PUSH1 0x0 DUP2 DUP2 SWAP1 SLOAD SWAP1 PUSH2 0x100 EXP SWAP1 DIV PUSH8 0xFFFFFFFFFFFFFFFF AND DUP1 SWAP3 SWAP2 SWAP1 PUSH2 0x1485 SWAP1 PUSH2 0x25CC JUMP JUMPDEST SWAP2 SWAP1 PUSH2 0x100 EXP DUP2 SLOAD DUP2 PUSH8 0xFFFFFFFFFFFFFFFF MUL NOT AND SWAP1 DUP4 PUSH8 0xFFFFFFFFFFFFFFFF AND MUL OR SWAP1 SSTORE POP POP PUSH1 0x0 JUMPDEST DUP2 DUP2 LT ISZERO PUSH2 0x1712 JUMPI PUSH1 0x2 PUSH1 0x0 DUP5 DUP2 MSTORE PUSH1 0x20 ADD SWAP1 DUP2 MSTORE PUSH1 0x20 ADD PUSH1 0x0 KECCAK256 PUSH1 0x40 MLOAD PUSH1 0x20 ADD PUSH2 0x14DA SWAP2 SWAP1 PUSH2 0x20ED JUMP JUMPDEST PUSH1 0x40 MLOAD PUSH1 0x20 DUP2 DUP4 SUB SUB DUP2 MSTORE SWAP1 PUSH1 0x40 MSTORE DUP1 MLOAD SWAP1 PUSH1 0x20 ADD KECCAK256 PUSH1 0x1 PUSH1 0x0 DUP8 PUSH20 0xFFFFFFFFFFFFFFFFFFFFFFFFFFFFFFFFFFFFFFFF AND PUSH20 0xFFFFFFFFFFFFFFFFFFFFFFFFFFFFFFFFFFFFFFFF AND DUP2 MSTORE PUSH1 0x20 ADD SWAP1 DUP2 MSTORE PUSH1 0x20 ADD PUSH1 0x0 KECCAK256 DUP3 DUP2 SLOAD DUP2 LT PUSH2 0x1541 JUMPI PUSH2 0x1540 PUSH2 0x2700 JUMP JUMPDEST JUMPDEST SWAP1 PUSH1 0x0 MSTORE PUSH1 0x20 PUSH1 0x0 KECCAK256 ADD PUSH1 0x40 MLOAD PUSH1 0x20 ADD PUSH2 0x155B SWAP2 SWAP1 PUSH2 0x20ED JUMP JUMPDEST PUSH1 0x40 MLOAD PUSH1 0x20 DUP2 DUP4 SUB SUB DUP2 MSTORE SWAP1 PUSH1 0x40 MSTORE DUP1 MLOAD SWAP1 PUSH1 0x20 ADD KECCAK256 EQ ISZERO PUSH2 0x16FE JUMPI PUSH1 0x1 PUSH1 0x0 DUP7 PUSH20 0xFFFFFFFFFFFFFFFFFFFFFFFFFFFFFFFFFFFFFFFF AND PUSH20 0xFFFFFFFFFFFFFFFFFFFFFFFFFFFFFFFFFFFFFFFF AND DUP2 MSTORE PUSH1 0x20 ADD SWAP1 DUP2 MSTORE PUSH1 0x20 ADD PUSH1 0x0 KECCAK256 DUP2 DUP2 SLOAD DUP2 LT PUSH2 0x15C8 JUMPI PUSH2 0x15C7 PUSH2 0x2700 JUMP JUMPDEST JUMPDEST SWAP1 PUSH1 0x0 MSTORE PUSH1 0x20 PUSH1 0x0 KECCAK256 ADD PUSH1 0x0 PUSH2 0x15DE SWAP2 SWAP1 PUSH2 0x17FA JUMP JUMPDEST PUSH2 0x16F6 DUP2 PUSH1 0x1 PUSH1 0x0 DUP9 PUSH20 0xFFFFFFFFFFFFFFFFFFFFFFFFFFFFFFFFFFFFFFFF AND PUSH20 0xFFFFFFFFFFFFFFFFFFFFFFFFFFFFFFFFFFFFFFFF AND DUP2 MSTORE PUSH1 0x20 ADD SWAP1 DUP2 MSTORE PUSH1 0x20 ADD PUSH1 0x0 KECCAK256 DUP1 SLOAD DUP1 PUSH1 0x20 MUL PUSH1 0x20 ADD PUSH1 0x40 MLOAD SWAP1 DUP2 ADD PUSH1 0x40 MSTORE DUP1 SWAP3 SWAP2 SWAP1 DUP2 DUP2 MSTORE PUSH1 0x20 ADD PUSH1 0x0 SWAP1 JUMPDEST DUP3 DUP3 LT ISZERO PUSH2 0x16ED JUMPI DUP4 DUP3 SWAP1 PUSH1 0x0 MSTORE PUSH1 0x20 PUSH1 0x0 KECCAK256 ADD DUP1 SLOAD PUSH2 0x1660 SWAP1 PUSH2 0x25F6 JUMP JUMPDEST DUP1 PUSH1 0x1F ADD PUSH1 0x20 DUP1 SWAP2 DIV MUL PUSH1 0x20 ADD PUSH1 0x40 MLOAD SWAP1 DUP2 ADD PUSH1 0x40 MSTORE DUP1 SWAP3 SWAP2 SWAP1 DUP2 DUP2 MSTORE PUSH1 0x20 ADD DUP3 DUP1 SLOAD PUSH2 0x168C SWAP1 PUSH2 0x25F6 JUMP JUMPDEST DUP1 ISZERO PUSH2 0x16D9 JUMPI DUP1 PUSH1 0x1F LT PUSH2 0x16AE JUMPI PUSH2 0x100 DUP1 DUP4 SLOAD DIV MUL DUP4 MSTORE SWAP2 PUSH1 0x20 ADD SWAP2 PUSH2 0x16D9 JUMP JUMPDEST DUP3 ADD SWAP2 SWAP1 PUSH1 0x0 MSTORE PUSH1 0x20 PUSH1 0x0 KECCAK256 SWAP1 JUMPDEST DUP2 SLOAD DUP2 MSTORE SWAP1 PUSH1 0x1 ADD SWAP1 PUSH1 0x20 ADD DUP1 DUP4 GT PUSH2 0x16BC JUMPI DUP3 SWAP1 SUB PUSH1 0x1F AND DUP3 ADD SWAP2 JUMPDEST POP POP POP POP POP DUP2 MSTORE PUSH1 0x20 ADD SWAP1 PUSH1 0x1 ADD SWAP1 PUSH2 0x1641 JUMP JUMPDEST POP POP POP POP PUSH2 0xAE9 JUMP JUMPDEST DUP2 SWAP1 POP PUSH2 0x170D JUMP JUMPDEST DUP1 DUP1 PUSH2 0x1709 SWAP1 PUSH2 0x2659 JUMP JUMPDEST SWAP2 POP POP JUMPDEST PUSH2 0x14AF JUMP JUMPDEST DUP3 DUP5 PUSH20 0xFFFFFFFFFFFFFFFFFFFFFFFFFFFFFFFFFFFFFFFF AND DUP7 PUSH20 0xFFFFFFFFFFFFFFFFFFFFFFFFFFFFFFFFFFFFFFFF AND PUSH32 0xDDF252AD1BE2C89B69C2B068FC378DAA952BA7F163C4A11628F55A4DF523B3EF PUSH1 0x40 MLOAD PUSH1 0x40 MLOAD DUP1 SWAP2 SUB SWAP1 LOG4 POP POP POP POP POP JUMP JUMPDEST DUP3 DUP1 SLOAD PUSH2 0x1780 SWAP1 PUSH2 0x25F6 JUMP JUMPDEST SWAP1 PUSH1 0x0 MSTORE PUSH1 0x20 PUSH1 0x0 KECCAK256 SWAP1 PUSH1 0x1F ADD PUSH1 0x20 SWAP1 DIV DUP2 ADD SWAP3 DUP3 PUSH2 0x17A2 JUMPI PUSH1 0x0 DUP6 SSTORE PUSH2 0x17E9 JUMP JUMPDEST DUP3 PUSH1 0x1F LT PUSH2 0x17BB JUMPI DUP1 MLOAD PUSH1 0xFF NOT AND DUP4 DUP1 ADD OR DUP6 SSTORE PUSH2 0x17E9 JUMP JUMPDEST DUP3 DUP1 ADD PUSH1 0x1 ADD DUP6 SSTORE DUP3 ISZERO PUSH2 0x17E9 JUMPI SWAP2 DUP3 ADD JUMPDEST DUP3 DUP2 GT ISZERO PUSH2 0x17E8 JUMPI DUP3 MLOAD DUP3 SSTORE SWAP2 PUSH1 0x20 ADD SWAP2 SWAP1 PUSH1 0x1 ADD SWAP1 PUSH2 0x17CD JUMP JUMPDEST JUMPDEST POP SWAP1 POP PUSH2 0x17F6 SWAP2 SWAP1 PUSH2 0x183A JUMP JUMPDEST POP SWAP1 JUMP JUMPDEST POP DUP1 SLOAD PUSH2 0x1806 SWAP1 PUSH2 0x25F6 JUMP JUMPDEST PUSH1 0x0 DUP3 SSTORE DUP1 PUSH1 0x1F LT PUSH2 0x1818 JUMPI POP PUSH2 0x1837 JUMP JUMPDEST PUSH1 0x1F ADD PUSH1 0x20 SWAP1 DIV SWAP1 PUSH1 0x0 MSTORE PUSH1 0x20 PUSH1 0x0 KECCAK256 SWAP1 DUP2 ADD SWAP1 PUSH2 0x1836 SWAP2 SWAP1 PUSH2 0x183A JUMP JUMPDEST JUMPDEST POP JUMP JUMPDEST JUMPDEST DUP1 DUP3 GT ISZERO PUSH2 0x1853 JUMPI PUSH1 0x0 DUP2 PUSH1 0x0 SWAP1 SSTORE POP PUSH1 0x1 ADD PUSH2 0x183B JUMP JUMPDEST POP SWAP1 JUMP JUMPDEST PUSH1 0x0 PUSH2 0x186A PUSH2 0x1865 DUP5 PUSH2 0x230A JUMP JUMPDEST PUSH2 0x22E5 JUMP JUMPDEST SWAP1 POP DUP1 DUP4 DUP3 MSTORE PUSH1 0x20 DUP3 ADD SWAP1 POP DUP3 DUP6 PUSH1 0x20 DUP7 MUL DUP3 ADD GT ISZERO PUSH2 0x188D JUMPI PUSH2 0x188C PUSH2 0x2763 JUMP JUMPDEST JUMPDEST PUSH1 0x0 JUMPDEST DUP6 DUP2 LT ISZERO PUSH2 0x18DB JUMPI DUP2 CALLDATALOAD PUSH8 0xFFFFFFFFFFFFFFFF DUP2 GT ISZERO PUSH2 0x18B3 JUMPI PUSH2 0x18B2 PUSH2 0x275E JUMP JUMPDEST JUMPDEST DUP1 DUP7 ADD PUSH2 0x18C0 DUP10 DUP3 PUSH2 0x1A2E JUMP JUMPDEST DUP6 MSTORE PUSH1 0x20 DUP6 ADD SWAP5 POP PUSH1 0x20 DUP5 ADD SWAP4 POP POP POP PUSH1 0x1 DUP2 ADD SWAP1 POP PUSH2 0x1890 JUMP JUMPDEST POP POP POP SWAP4 SWAP3 POP POP POP JUMP JUMPDEST PUSH1 0x0 PUSH2 0x18F8 PUSH2 0x18F3 DUP5 PUSH2 0x2336 JUMP JUMPDEST PUSH2 0x22E5 JUMP JUMPDEST SWAP1 POP DUP3 DUP2 MSTORE PUSH1 0x20 DUP2 ADD DUP5 DUP5 DUP5 ADD GT ISZERO PUSH2 0x1914 JUMPI PUSH2 0x1913 PUSH2 0x2768 JUMP JUMPDEST JUMPDEST PUSH2 0x191F DUP5 DUP3 DUP6 PUSH2 0x258A JUMP JUMPDEST POP SWAP4 SWAP3 POP POP POP JUMP JUMPDEST PUSH1 0x0 PUSH2 0x193A PUSH2 0x1935 DUP5 PUSH2 0x2367 JUMP JUMPDEST PUSH2 0x22E5 JUMP JUMPDEST SWAP1 POP DUP3 DUP2 MSTORE PUSH1 0x20 DUP2 ADD DUP5 DUP5 DUP5 ADD GT ISZERO PUSH2 0x1956 JUMPI PUSH2 0x1955 PUSH2 0x2768 JUMP JUMPDEST JUMPDEST PUSH2 0x1961 DUP5 DUP3 DUP6 PUSH2 0x258A JUMP JUMPDEST POP SWAP4 SWAP3 POP POP POP JUMP JUMPDEST PUSH1 0x0 DUP2 CALLDATALOAD SWAP1 POP PUSH2 0x1978 DUP2 PUSH2 0x298E JUMP JUMPDEST SWAP3 SWAP2 POP POP JUMP JUMPDEST PUSH1 0x0 DUP2 MLOAD SWAP1 POP PUSH2 0x198D DUP2 PUSH2 0x298E JUMP JUMPDEST SWAP3 SWAP2 POP POP JUMP JUMPDEST PUSH1 0x0 DUP3 PUSH1 0x1F DUP4 ADD SLT PUSH2 0x19A8 JUMPI PUSH2 0x19A7 PUSH2 0x275E JUMP JUMPDEST JUMPDEST DUP2 CALLDATALOAD PUSH2 0x19B8 DUP5 DUP3 PUSH1 0x20 DUP7 ADD PUSH2 0x1857 JUMP JUMPDEST SWAP2 POP POP SWAP3 SWAP2 POP POP JUMP JUMPDEST PUSH1 0x0 DUP2 CALLDATALOAD SWAP1 POP PUSH2 0x19D0 DUP2 PUSH2 0x29A5 JUMP JUMPDEST SWAP3 SWAP2 POP POP JUMP JUMPDEST PUSH1 0x0 DUP2 CALLDATALOAD SWAP1 POP PUSH2 0x19E5 DUP2 PUSH2 0x29BC JUMP JUMPDEST SWAP3 SWAP2 POP POP JUMP JUMPDEST PUSH1 0x0 DUP2 MLOAD SWAP1 POP PUSH2 0x19FA DUP2 PUSH2 0x29BC JUMP JUMPDEST SWAP3 SWAP2 POP POP JUMP JUMPDEST PUSH1 0x0 DUP3 PUSH1 0x1F DUP4 ADD SLT PUSH2 0x1A15 JUMPI PUSH2 0x1A14 PUSH2 0x275E JUMP JUMPDEST JUMPDEST DUP2 CALLDATALOAD PUSH2 0x1A25 DUP5 DUP3 PUSH1 0x20 DUP7 ADD PUSH2 0x18E5 JUMP JUMPDEST SWAP2 POP POP SWAP3 SWAP2 POP POP JUMP JUMPDEST PUSH1 0x0 DUP3 PUSH1 0x1F DUP4 ADD SLT PUSH2 0x1A43 JUMPI PUSH2 0x1A42 PUSH2 0x275E JUMP JUMPDEST JUMPDEST DUP2 CALLDATALOAD PUSH2 0x1A53 DUP5 DUP3 PUSH1 0x20 DUP7 ADD PUSH2 0x1927 JUMP JUMPDEST SWAP2 POP POP SWAP3 SWAP2 POP POP JUMP JUMPDEST PUSH1 0x0 DUP2 CALLDATALOAD SWAP1 POP PUSH2 0x1A6B DUP2 PUSH2 0x29D3 JUMP JUMPDEST SWAP3 SWAP2 POP POP JUMP JUMPDEST PUSH1 0x0 PUSH1 0x20 DUP3 DUP5 SUB SLT ISZERO PUSH2 0x1A87 JUMPI PUSH2 0x1A86 PUSH2 0x2772 JUMP JUMPDEST JUMPDEST PUSH1 0x0 PUSH2 0x1A95 DUP5 DUP3 DUP6 ADD PUSH2 0x1969 JUMP JUMPDEST SWAP2 POP POP SWAP3 SWAP2 POP POP JUMP JUMPDEST PUSH1 0x0 PUSH1 0x20 DUP3 DUP5 SUB SLT ISZERO PUSH2 0x1AB4 JUMPI PUSH2 0x1AB3 PUSH2 0x2772 JUMP JUMPDEST JUMPDEST PUSH1 0x0 PUSH2 0x1AC2 DUP5 DUP3 DUP6 ADD PUSH2 0x197E JUMP JUMPDEST SWAP2 POP POP SWAP3 SWAP2 POP POP JUMP JUMPDEST PUSH1 0x0 DUP1 PUSH1 0x40 DUP4 DUP6 SUB SLT ISZERO PUSH2 0x1AE2 JUMPI PUSH2 0x1AE1 PUSH2 0x2772 JUMP JUMPDEST JUMPDEST PUSH1 0x0 PUSH2 0x1AF0 DUP6 DUP3 DUP7 ADD PUSH2 0x1969 JUMP JUMPDEST SWAP3 POP POP PUSH1 0x20 PUSH2 0x1B01 DUP6 DUP3 DUP7 ADD PUSH2 0x1969 JUMP JUMPDEST SWAP2 POP POP SWAP3 POP SWAP3 SWAP1 POP JUMP JUMPDEST PUSH1 0x0 DUP1 PUSH1 0x0 PUSH1 0x60 DUP5 DUP7 SUB SLT ISZERO PUSH2 0x1B24 JUMPI PUSH2 0x1B23 PUSH2 0x2772 JUMP JUMPDEST JUMPDEST PUSH1 0x0 PUSH2 0x1B32 DUP7 DUP3 DUP8 ADD PUSH2 0x1969 JUMP JUMPDEST SWAP4 POP POP PUSH1 0x20 PUSH2 0x1B43 DUP7 DUP3 DUP8 ADD PUSH2 0x1969 JUMP JUMPDEST SWAP3 POP POP PUSH1 0x40 PUSH2 0x1B54 DUP7 DUP3 DUP8 ADD PUSH2 0x1A5C JUMP JUMPDEST SWAP2 POP POP SWAP3 POP SWAP3 POP SWAP3 JUMP JUMPDEST PUSH1 0x0 DUP1 PUSH1 0x0 DUP1 PUSH1 0x80 DUP6 DUP8 SUB SLT ISZERO PUSH2 0x1B78 JUMPI PUSH2 0x1B77 PUSH2 0x2772 JUMP JUMPDEST JUMPDEST PUSH1 0x0 PUSH2 0x1B86 DUP8 DUP3 DUP9 ADD PUSH2 0x1969 JUMP JUMPDEST SWAP5 POP POP PUSH1 0x20 PUSH2 0x1B97 DUP8 DUP3 DUP9 ADD PUSH2 0x1969 JUMP JUMPDEST SWAP4 POP POP PUSH1 0x40 PUSH2 0x1BA8 DUP8 DUP3 DUP9 ADD PUSH2 0x1A5C JUMP JUMPDEST SWAP3 POP POP PUSH1 0x60 DUP6 ADD CALLDATALOAD PUSH8 0xFFFFFFFFFFFFFFFF DUP2 GT ISZERO PUSH2 0x1BC9 JUMPI PUSH2 0x1BC8 PUSH2 0x276D JUMP JUMPDEST JUMPDEST PUSH2 0x1BD5 DUP8 DUP3 DUP9 ADD PUSH2 0x1A00 JUMP JUMPDEST SWAP2 POP POP SWAP3 SWAP6 SWAP2 SWAP5 POP SWAP3 POP JUMP JUMPDEST PUSH1 0x0 DUP1 PUSH1 0x40 DUP4 DUP6 SUB SLT ISZERO PUSH2 0x1BF8 JUMPI PUSH2 0x1BF7 PUSH2 0x2772 JUMP JUMPDEST JUMPDEST PUSH1 0x0 PUSH2 0x1C06 DUP6 DUP3 DUP7 ADD PUSH2 0x1969 JUMP JUMPDEST SWAP3 POP POP PUSH1 0x20 PUSH2 0x1C17 DUP6 DUP3 DUP7 ADD PUSH2 0x19C1 JUMP JUMPDEST SWAP2 POP POP SWAP3 POP SWAP3 SWAP1 POP JUMP JUMPDEST PUSH1 0x0 DUP1 PUSH1 0x40 DUP4 DUP6 SUB SLT ISZERO PUSH2 0x1C38 JUMPI PUSH2 0x1C37 PUSH2 0x2772 JUMP JUMPDEST JUMPDEST PUSH1 0x0 PUSH2 0x1C46 DUP6 DUP3 DUP7 ADD PUSH2 0x1969 JUMP JUMPDEST SWAP3 POP POP PUSH1 0x20 DUP4 ADD CALLDATALOAD PUSH8 0xFFFFFFFFFFFFFFFF DUP2 GT ISZERO PUSH2 0x1C67 JUMPI PUSH2 0x1C66 PUSH2 0x276D JUMP JUMPDEST JUMPDEST PUSH2 0x1C73 DUP6 DUP3 DUP7 ADD PUSH2 0x1A2E JUMP JUMPDEST SWAP2 POP POP SWAP3 POP SWAP3 SWAP1 POP JUMP JUMPDEST PUSH1 0x0 DUP1 PUSH1 0x40 DUP4 DUP6 SUB SLT ISZERO PUSH2 0x1C94 JUMPI PUSH2 0x1C93 PUSH2 0x2772 JUMP JUMPDEST JUMPDEST PUSH1 0x0 PUSH2 0x1CA2 DUP6 DUP3 DUP7 ADD PUSH2 0x1969 JUMP JUMPDEST SWAP3 POP POP PUSH1 0x20 PUSH2 0x1CB3 DUP6 DUP3 DUP7 ADD PUSH2 0x1A5C JUMP JUMPDEST SWAP2 POP POP SWAP3 POP SWAP3 SWAP1 POP JUMP JUMPDEST PUSH1 0x0 PUSH1 0x20 DUP3 DUP5 SUB SLT ISZERO PUSH2 0x1CD3 JUMPI PUSH2 0x1CD2 PUSH2 0x2772 JUMP JUMPDEST JUMPDEST PUSH1 0x0 PUSH2 0x1CE1 DUP5 DUP3 DUP6 ADD PUSH2 0x19D6 JUMP JUMPDEST SWAP2 POP POP SWAP3 SWAP2 POP POP JUMP JUMPDEST PUSH1 0x0 PUSH1 0x20 DUP3 DUP5 SUB SLT ISZERO PUSH2 0x1D00 JUMPI PUSH2 0x1CFF PUSH2 0x2772 JUMP JUMPDEST JUMPDEST PUSH1 0x0 PUSH2 0x1D0E DUP5 DUP3 DUP6 ADD PUSH2 0x19EB JUMP JUMPDEST SWAP2 POP POP SWAP3 SWAP2 POP POP JUMP JUMPDEST PUSH1 0x0 PUSH1 0x20 DUP3 DUP5 SUB SLT ISZERO PUSH2 0x1D2D JUMPI PUSH2 0x1D2C PUSH2 0x2772 JUMP JUMPDEST JUMPDEST PUSH1 0x0 PUSH2 0x1D3B DUP5 DUP3 DUP6 ADD PUSH2 0x1A5C JUMP JUMPDEST SWAP2 POP POP SWAP3 SWAP2 POP POP JUMP JUMPDEST PUSH1 0x0 DUP1 PUSH1 0x40 DUP4 DUP6 SUB SLT ISZERO PUSH2 0x1D5B JUMPI PUSH2 0x1D5A PUSH2 0x2772 JUMP JUMPDEST JUMPDEST PUSH1 0x0 PUSH2 0x1D69 DUP6 DUP3 DUP7 ADD PUSH2 0x1A5C JUMP JUMPDEST SWAP3 POP POP PUSH1 0x20 DUP4 ADD CALLDATALOAD PUSH8 0xFFFFFFFFFFFFFFFF DUP2 GT ISZERO PUSH2 0x1D8A JUMPI PUSH2 0x1D89 PUSH2 0x276D JUMP JUMPDEST JUMPDEST PUSH2 0x1D96 DUP6 DUP3 DUP7 ADD PUSH2 0x1993 JUMP JUMPDEST SWAP2 POP POP SWAP3 POP SWAP3 SWAP1 POP JUMP JUMPDEST PUSH1 0x0 PUSH2 0x1DAC DUP4 DUP4 PUSH2 0x1E80 JUMP JUMPDEST SWAP1 POP SWAP3 SWAP2 POP POP JUMP JUMPDEST PUSH2 0x1DBD DUP2 PUSH2 0x2502 JUMP JUMPDEST DUP3 MSTORE POP POP JUMP JUMPDEST PUSH1 0x0 PUSH2 0x1DCE DUP3 PUSH2 0x23BD JUMP JUMPDEST PUSH2 0x1DD8 DUP2 DUP6 PUSH2 0x23EB JUMP JUMPDEST SWAP4 POP DUP4 PUSH1 0x20 DUP3 MUL DUP6 ADD PUSH2 0x1DEA DUP6 PUSH2 0x2398 JUMP JUMPDEST DUP1 PUSH1 0x0 JUMPDEST DUP6 DUP2 LT ISZERO PUSH2 0x1E26 JUMPI DUP5 DUP5 SUB DUP10 MSTORE DUP2 MLOAD PUSH2 0x1E07 DUP6 DUP3 PUSH2 0x1DA0 JUMP JUMPDEST SWAP5 POP PUSH2 0x1E12 DUP4 PUSH2 0x23DE JUMP JUMPDEST SWAP3 POP PUSH1 0x20 DUP11 ADD SWAP10 POP POP PUSH1 0x1 DUP2 ADD SWAP1 POP PUSH2 0x1DEE JUMP JUMPDEST POP DUP3 SWAP8 POP DUP8 SWAP6 POP POP POP POP POP POP SWAP3 SWAP2 POP POP JUMP JUMPDEST PUSH2 0x1E41 DUP2 PUSH2 0x2514 JUMP JUMPDEST DUP3 MSTORE POP POP JUMP JUMPDEST PUSH1 0x0 PUSH2 0x1E52 DUP3 PUSH2 0x23C8 JUMP JUMPDEST PUSH2 0x1E5C DUP2 DUP6 PUSH2 0x23FC JUMP JUMPDEST SWAP4 POP PUSH2 0x1E6C DUP2 DUP6 PUSH1 0x20 DUP7 ADD PUSH2 0x2599 JUMP JUMPDEST PUSH2 0x1E75 DUP2 PUSH2 0x2777 JUMP JUMPDEST DUP5 ADD SWAP2 POP POP SWAP3 SWAP2 POP POP JUMP JUMPDEST PUSH1 0x0 PUSH2 0x1E8B DUP3 PUSH2 0x23D3 JUMP JUMPDEST PUSH2 0x1E95 DUP2 DUP6 PUSH2 0x240D JUMP JUMPDEST SWAP4 POP PUSH2 0x1EA5 DUP2 DUP6 PUSH1 0x20 DUP7 ADD PUSH2 0x2599 JUMP JUMPDEST PUSH2 0x1EAE DUP2 PUSH2 0x2777 JUMP JUMPDEST DUP5 ADD SWAP2 POP POP SWAP3 SWAP2 POP POP JUMP JUMPDEST PUSH1 0x0 PUSH2 0x1EC4 DUP3 PUSH2 0x23D3 JUMP JUMPDEST PUSH2 0x1ECE DUP2 DUP6 PUSH2 0x241E JUMP JUMPDEST SWAP4 POP PUSH2 0x1EDE DUP2 DUP6 PUSH1 0x20 DUP7 ADD PUSH2 0x2599 JUMP JUMPDEST PUSH2 0x1EE7 DUP2 PUSH2 0x2777 JUMP JUMPDEST DUP5 ADD SWAP2 POP POP SWAP3 SWAP2 POP POP JUMP JUMPDEST PUSH1 0x0 PUSH2 0x1EFD DUP3 PUSH2 0x23D3 JUMP JUMPDEST PUSH2 0x1F07 DUP2 DUP6 PUSH2 0x242F JUMP JUMPDEST SWAP4 POP PUSH2 0x1F17 DUP2 DUP6 PUSH1 0x20 DUP7 ADD PUSH2 0x2599 JUMP JUMPDEST DUP1 DUP5 ADD SWAP2 POP POP SWAP3 SWAP2 POP POP JUMP JUMPDEST PUSH1 0x0 DUP2 SLOAD PUSH2 0x1F30 DUP2 PUSH2 0x25F6 JUMP JUMPDEST PUSH2 0x1F3A DUP2 DUP7 PUSH2 0x242F JUMP JUMPDEST SWAP5 POP PUSH1 0x1 DUP3 AND PUSH1 0x0 DUP2 EQ PUSH2 0x1F55 JUMPI PUSH1 0x1 DUP2 EQ PUSH2 0x1F66 JUMPI PUSH2 0x1F99 JUMP JUMPDEST PUSH1 0xFF NOT DUP4 AND DUP7 MSTORE DUP2 DUP7 ADD SWAP4 POP PUSH2 0x1F99 JUMP JUMPDEST PUSH2 0x1F6F DUP6 PUSH2 0x23A8 JUMP JUMPDEST PUSH1 0x0 JUMPDEST DUP4 DUP2 LT ISZERO PUSH2 0x1F91 JUMPI DUP2 SLOAD DUP2 DUP10 ADD MSTORE PUSH1 0x1 DUP3 ADD SWAP2 POP PUSH1 0x20 DUP2 ADD SWAP1 POP PUSH2 0x1F72 JUMP JUMPDEST DUP4 DUP9 ADD SWAP6 POP POP POP JUMPDEST POP POP POP SWAP3 SWAP2 POP POP JUMP JUMPDEST PUSH1 0x0 PUSH2 0x1FAF PUSH1 0x24 DUP4 PUSH2 0x241E JUMP JUMPDEST SWAP2 POP PUSH2 0x1FBA DUP3 PUSH2 0x2788 JUMP JUMPDEST PUSH1 0x40 DUP3 ADD SWAP1 POP SWAP2 SWAP1 POP JUMP JUMPDEST PUSH1 0x0 PUSH2 0x1FD2 PUSH1 0x19 DUP4 PUSH2 0x241E JUMP JUMPDEST SWAP2 POP PUSH2 0x1FDD DUP3 PUSH2 0x27D7 JUMP JUMPDEST PUSH1 0x20 DUP3 ADD SWAP1 POP SWAP2 SWAP1 POP JUMP JUMPDEST PUSH1 0x0 PUSH2 0x1FF5 PUSH1 0x38 DUP4 PUSH2 0x241E JUMP JUMPDEST SWAP2 POP PUSH2 0x2000 DUP3 PUSH2 0x2800 JUMP JUMPDEST PUSH1 0x40 DUP3 ADD SWAP1 POP SWAP2 SWAP1 POP JUMP JUMPDEST PUSH1 0x0 PUSH2 0x2018 PUSH1 0x29 DUP4 PUSH2 0x241E JUMP JUMPDEST SWAP2 POP PUSH2 0x2023 DUP3 PUSH2 0x284F JUMP JUMPDEST PUSH1 0x40 DUP3 ADD SWAP1 POP SWAP2 SWAP1 POP JUMP JUMPDEST PUSH1 0x0 PUSH2 0x203B PUSH1 0x21 DUP4 PUSH2 0x241E JUMP JUMPDEST SWAP2 POP PUSH2 0x2046 DUP3 PUSH2 0x289E JUMP JUMPDEST PUSH1 0x40 DUP3 ADD SWAP1 POP SWAP2 SWAP1 POP JUMP JUMPDEST PUSH1 0x0 PUSH2 0x205E PUSH1 0x31 DUP4 PUSH2 0x241E JUMP JUMPDEST SWAP2 POP PUSH2 0x2069 DUP3 PUSH2 0x28ED JUMP JUMPDEST PUSH1 0x40 DUP3 ADD SWAP1 POP SWAP2 SWAP1 POP JUMP JUMPDEST PUSH1 0x0 PUSH2 0x2081 PUSH1 0x13 DUP4 PUSH2 0x241E JUMP JUMPDEST SWAP2 POP PUSH2 0x208C DUP3 PUSH2 0x293C JUMP JUMPDEST PUSH1 0x20 DUP3 ADD SWAP1 POP SWAP2 SWAP1 POP JUMP JUMPDEST PUSH1 0x0 PUSH2 0x20A4 PUSH1 0x18 DUP4 PUSH2 0x241E JUMP JUMPDEST SWAP2 POP PUSH2 0x20AF DUP3 PUSH2 0x2965 JUMP JUMPDEST PUSH1 0x20 DUP3 ADD SWAP1 POP SWAP2 SWAP1 POP JUMP JUMPDEST PUSH2 0x20C3 DUP2 PUSH2 0x256C JUMP JUMPDEST DUP3 MSTORE POP POP JUMP JUMPDEST PUSH1 0x0 PUSH2 0x20D5 DUP3 DUP6 PUSH2 0x1EF2 JUMP JUMPDEST SWAP2 POP PUSH2 0x20E1 DUP3 DUP5 PUSH2 0x1F23 JUMP JUMPDEST SWAP2 POP DUP2 SWAP1 POP SWAP4 SWAP3 POP POP POP JUMP JUMPDEST PUSH1 0x0 PUSH2 0x20F9 DUP3 DUP5 PUSH2 0x1F23 JUMP JUMPDEST SWAP2 POP DUP2 SWAP1 POP SWAP3 SWAP2 POP POP JUMP JUMPDEST PUSH1 0x0 PUSH1 0x20 DUP3 ADD SWAP1 POP PUSH2 0x2119 PUSH1 0x0 DUP4 ADD DUP5 PUSH2 0x1DB4 JUMP JUMPDEST SWAP3 SWAP2 POP POP JUMP JUMPDEST PUSH1 0x0 PUSH1 0x80 DUP3 ADD SWAP1 POP PUSH2 0x2134 PUSH1 0x0 DUP4 ADD DUP8 PUSH2 0x1DB4 JUMP JUMPDEST PUSH2 0x2141 PUSH1 0x20 DUP4 ADD DUP7 PUSH2 0x1DB4 JUMP JUMPDEST PUSH2 0x214E PUSH1 0x40 DUP4 ADD DUP6 PUSH2 0x20BA JUMP JUMPDEST DUP2 DUP2 SUB PUSH1 0x60 DUP4 ADD MSTORE PUSH2 0x2160 DUP2 DUP5 PUSH2 0x1E47 JUMP JUMPDEST SWAP1 POP SWAP6 SWAP5 POP POP POP POP POP JUMP JUMPDEST PUSH1 0x0 PUSH1 0x20 DUP3 ADD SWAP1 POP DUP2 DUP2 SUB PUSH1 0x0 DUP4 ADD MSTORE PUSH2 0x2185 DUP2 DUP5 PUSH2 0x1DC3 JUMP JUMPDEST SWAP1 POP SWAP3 SWAP2 POP POP JUMP JUMPDEST PUSH1 0x0 PUSH1 0x20 DUP3 ADD SWAP1 POP PUSH2 0x21A2 PUSH1 0x0 DUP4 ADD DUP5 PUSH2 0x1E38 JUMP JUMPDEST SWAP3 SWAP2 POP POP JUMP JUMPDEST PUSH1 0x0 PUSH1 0x20 DUP3 ADD SWAP1 POP DUP2 DUP2 SUB PUSH1 0x0 DUP4 ADD MSTORE PUSH2 0x21C2 DUP2 DUP5 PUSH2 0x1EB9 JUMP JUMPDEST SWAP1 POP SWAP3 SWAP2 POP POP JUMP JUMPDEST PUSH1 0x0 PUSH1 0x20 DUP3 ADD SWAP1 POP DUP2 DUP2 SUB PUSH1 0x0 DUP4 ADD MSTORE PUSH2 0x21E3 DUP2 PUSH2 0x1FA2 JUMP JUMPDEST SWAP1 POP SWAP2 SWAP1 POP JUMP JUMPDEST PUSH1 0x0 PUSH1 0x20 DUP3 ADD SWAP1 POP DUP2 DUP2 SUB PUSH1 0x0 DUP4 ADD MSTORE PUSH2 0x2203 DUP2 PUSH2 0x1FC5 JUMP JUMPDEST SWAP1 POP SWAP2 SWAP1 POP JUMP JUMPDEST PUSH1 0x0 PUSH1 0x20 DUP3 ADD SWAP1 POP DUP2 DUP2 SUB PUSH1 0x0 DUP4 ADD MSTORE PUSH2 0x2223 DUP2 PUSH2 0x1FE8 JUMP JUMPDEST SWAP1 POP SWAP2 SWAP1 POP JUMP JUMPDEST PUSH1 0x0 PUSH1 0x20 DUP3 ADD SWAP1 POP DUP2 DUP2 SUB PUSH1 0x0 DUP4 ADD MSTORE PUSH2 0x2243 DUP2 PUSH2 0x200B JUMP JUMPDEST SWAP1 POP SWAP2 SWAP1 POP JUMP JUMPDEST PUSH1 0x0 PUSH1 0x20 DUP3 ADD SWAP1 POP DUP2 DUP2 SUB PUSH1 0x0 DUP4 ADD MSTORE PUSH2 0x2263 DUP2 PUSH2 0x202E JUMP JUMPDEST SWAP1 POP SWAP2 SWAP1 POP JUMP JUMPDEST PUSH1 0x0 PUSH1 0x20 DUP3 ADD SWAP1 POP DUP2 DUP2 SUB PUSH1 0x0 DUP4 ADD MSTORE PUSH2 0x2283 DUP2 PUSH2 0x2051 JUMP JUMPDEST SWAP1 POP SWAP2 SWAP1 POP JUMP JUMPDEST PUSH1 0x0 PUSH1 0x20 DUP3 ADD SWAP1 POP DUP2 DUP2 SUB PUSH1 0x0 DUP4 ADD MSTORE PUSH2 0x22A3 DUP2 PUSH2 0x2074 JUMP JUMPDEST SWAP1 POP SWAP2 SWAP1 POP JUMP JUMPDEST PUSH1 0x0 PUSH1 0x20 DUP3 ADD SWAP1 POP DUP2 DUP2 SUB PUSH1 0x0 DUP4 ADD MSTORE PUSH2 0x22C3 DUP2 PUSH2 0x2097 JUMP JUMPDEST SWAP1 POP SWAP2 SWAP1 POP JUMP JUMPDEST PUSH1 0x0 PUSH1 0x20 DUP3 ADD SWAP1 POP PUSH2 0x22DF PUSH1 0x0 DUP4 ADD DUP5 PUSH2 0x20BA JUMP JUMPDEST SWAP3 SWAP2 POP POP JUMP JUMPDEST PUSH1 0x0 PUSH2 0x22EF PUSH2 0x2300 JUMP JUMPDEST SWAP1 POP PUSH2 0x22FB DUP3 DUP3 PUSH2 0x2628 JUMP JUMPDEST SWAP2 SWAP1 POP JUMP JUMPDEST PUSH1 0x0 PUSH1 0x40 MLOAD SWAP1 POP SWAP1 JUMP JUMPDEST PUSH1 0x0 PUSH8 0xFFFFFFFFFFFFFFFF DUP3 GT ISZERO PUSH2 0x2325 JUMPI PUSH2 0x2324 PUSH2 0x272F JUMP JUMPDEST JUMPDEST PUSH1 0x20 DUP3 MUL SWAP1 POP PUSH1 0x20 DUP2 ADD SWAP1 POP SWAP2 SWAP1 POP JUMP JUMPDEST PUSH1 0x0 PUSH8 0xFFFFFFFFFFFFFFFF DUP3 GT ISZERO PUSH2 0x2351 JUMPI PUSH2 0x2350 PUSH2 0x272F JUMP JUMPDEST JUMPDEST PUSH2 0x235A DUP3 PUSH2 0x2777 JUMP JUMPDEST SWAP1 POP PUSH1 0x20 DUP2 ADD SWAP1 POP SWAP2 SWAP1 POP JUMP JUMPDEST PUSH1 0x0 PUSH8 0xFFFFFFFFFFFFFFFF DUP3 GT ISZERO PUSH2 0x2382 JUMPI PUSH2 0x2381 PUSH2 0x272F JUMP JUMPDEST JUMPDEST PUSH2 0x238B DUP3 PUSH2 0x2777 JUMP JUMPDEST SWAP1 POP PUSH1 0x20 DUP2 ADD SWAP1 POP SWAP2 SWAP1 POP JUMP JUMPDEST PUSH1 0x0 DUP2 SWAP1 POP PUSH1 0x20 DUP3 ADD SWAP1 POP SWAP2 SWAP1 POP JUMP JUMPDEST PUSH1 0x0 DUP2 SWAP1 POP DUP2 PUSH1 0x0 MSTORE PUSH1 0x20 PUSH1 0x0 KECCAK256 SWAP1 POP SWAP2 SWAP1 POP JUMP JUMPDEST PUSH1 0x0 DUP2 MLOAD SWAP1 POP SWAP2 SWAP1 POP JUMP JUMPDEST PUSH1 0x0 DUP2 MLOAD SWAP1 POP SWAP2 SWAP1 POP JUMP JUMPDEST PUSH1 0x0 DUP2 MLOAD SWAP1 POP SWAP2 SWAP1 POP JUMP JUMPDEST PUSH1 0x0 PUSH1 0x20 DUP3 ADD SWAP1 POP SWAP2 SWAP1 POP JUMP JUMPDEST PUSH1 0x0 DUP3 DUP3 MSTORE PUSH1 0x20 DUP3 ADD SWAP1 POP SWAP3 SWAP2 POP POP JUMP JUMPDEST PUSH1 0x0 DUP3 DUP3 MSTORE PUSH1 0x20 DUP3 ADD SWAP1 POP SWAP3 SWAP2 POP POP JUMP JUMPDEST PUSH1 0x0 DUP3 DUP3 MSTORE PUSH1 0x20 DUP3 ADD SWAP1 POP SWAP3 SWAP2 POP POP JUMP JUMPDEST PUSH1 0x0 DUP3 DUP3 MSTORE PUSH1 0x20 DUP3 ADD SWAP1 POP SWAP3 SWAP2 POP POP JUMP JUMPDEST PUSH1 0x0 DUP2 SWAP1 POP SWAP3 SWAP2 POP POP JUMP JUMPDEST PUSH1 0x0 PUSH2 0x2445 DUP3 PUSH2 0x256C JUMP JUMPDEST SWAP2 POP PUSH2 0x2450 DUP4 PUSH2 0x256C JUMP JUMPDEST SWAP3 POP DUP3 PUSH32 0xFFFFFFFFFFFFFFFFFFFFFFFFFFFFFFFFFFFFFFFFFFFFFFFFFFFFFFFFFFFFFFFF SUB DUP3 GT ISZERO PUSH2 0x2485 JUMPI PUSH2 0x2484 PUSH2 0x26A2 JUMP JUMPDEST JUMPDEST DUP3 DUP3 ADD SWAP1 POP SWAP3 SWAP2 POP POP JUMP JUMPDEST PUSH1 0x0 PUSH2 0x249B DUP3 PUSH2 0x2576 JUMP JUMPDEST SWAP2 POP PUSH2 0x24A6 DUP4 PUSH2 0x2576 JUMP JUMPDEST SWAP3 POP DUP3 PUSH8 0xFFFFFFFFFFFFFFFF SUB DUP3 GT ISZERO PUSH2 0x24C3 JUMPI PUSH2 0x24C2 PUSH2 0x26A2 JUMP JUMPDEST JUMPDEST DUP3 DUP3 ADD SWAP1 POP SWAP3 SWAP2 POP POP JUMP JUMPDEST PUSH1 0x0 PUSH2 0x24D9 DUP3 PUSH2 0x256C JUMP JUMPDEST SWAP2 POP PUSH2 0x24E4 DUP4 PUSH2 0x256C JUMP JUMPDEST SWAP3 POP DUP3 DUP3 LT ISZERO PUSH2 0x24F7 JUMPI PUSH2 0x24F6 PUSH2 0x26A2 JUMP JUMPDEST JUMPDEST DUP3 DUP3 SUB SWAP1 POP SWAP3 SWAP2 POP POP JUMP JUMPDEST PUSH1 0x0 PUSH2 0x250D DUP3 PUSH2 0x254C JUMP JUMPDEST SWAP1 POP SWAP2 SWAP1 POP JUMP JUMPDEST PUSH1 0x0 DUP2 ISZERO ISZERO SWAP1 POP SWAP2 SWAP1 POP JUMP JUMPDEST PUSH1 0x0 PUSH32 0xFFFFFFFF00000000000000000000000000000000000000000000000000000000 DUP3 AND SWAP1 POP SWAP2 SWAP1 POP JUMP JUMPDEST PUSH1 0x0 PUSH20 0xFFFFFFFFFFFFFFFFFFFFFFFFFFFFFFFFFFFFFFFF DUP3 AND SWAP1 POP SWAP2 SWAP1 POP JUMP JUMPDEST PUSH1 0x0 DUP2 SWAP1 POP SWAP2 SWAP1 POP JUMP JUMPDEST PUSH1 0x0 PUSH8 0xFFFFFFFFFFFFFFFF DUP3 AND SWAP1 POP SWAP2 SWAP1 POP JUMP JUMPDEST DUP3 DUP2 DUP4 CALLDATACOPY PUSH1 0x0 DUP4 DUP4 ADD MSTORE POP POP POP JUMP JUMPDEST PUSH1 0x0 JUMPDEST DUP4 DUP2 LT ISZERO PUSH2 0x25B7 JUMPI DUP1 DUP3 ADD MLOAD DUP2 DUP5 ADD MSTORE PUSH1 0x20 DUP2 ADD SWAP1 POP PUSH2 0x259C JUMP JUMPDEST DUP4 DUP2 GT ISZERO PUSH2 0x25C6 JUMPI PUSH1 0x0 DUP5 DUP5 ADD MSTORE JUMPDEST POP POP POP POP JUMP JUMPDEST PUSH1 0x0 PUSH2 0x25D7 DUP3 PUSH2 0x2576 JUMP JUMPDEST SWAP2 POP PUSH1 0x0 DUP3 EQ ISZERO PUSH2 0x25EB JUMPI PUSH2 0x25EA PUSH2 0x26A2 JUMP JUMPDEST JUMPDEST PUSH1 0x1 DUP3 SUB SWAP1 POP SWAP2 SWAP1 POP JUMP JUMPDEST PUSH1 0x0 PUSH1 0x2 DUP3 DIV SWAP1 POP PUSH1 0x1 DUP3 AND DUP1 PUSH2 0x260E JUMPI PUSH1 0x7F DUP3 AND SWAP2 POP JUMPDEST PUSH1 0x20 DUP3 LT DUP2 EQ ISZERO PUSH2 0x2622 JUMPI PUSH2 0x2621 PUSH2 0x26D1 JUMP JUMPDEST JUMPDEST POP SWAP2 SWAP1 POP JUMP JUMPDEST PUSH2 0x2631 DUP3 PUSH2 0x2777 JUMP JUMPDEST DUP2 ADD DUP2 DUP2 LT PUSH8 0xFFFFFFFFFFFFFFFF DUP3 GT OR ISZERO PUSH2 0x2650 JUMPI PUSH2 0x264F PUSH2 0x272F JUMP JUMPDEST JUMPDEST DUP1 PUSH1 0x40 MSTORE POP POP POP JUMP JUMPDEST PUSH1 0x0 PUSH2 0x2664 DUP3 PUSH2 0x256C JUMP JUMPDEST SWAP2 POP PUSH32 0xFFFFFFFFFFFFFFFFFFFFFFFFFFFFFFFFFFFFFFFFFFFFFFFFFFFFFFFFFFFFFFFF DUP3 EQ ISZERO PUSH2 0x2697 JUMPI PUSH2 0x2696 PUSH2 0x26A2 JUMP JUMPDEST JUMPDEST PUSH1 0x1 DUP3 ADD SWAP1 POP SWAP2 SWAP1 POP JUMP JUMPDEST PUSH32 0x4E487B7100000000000000000000000000000000000000000000000000000000 PUSH1 0x0 MSTORE PUSH1 0x11 PUSH1 0x4 MSTORE PUSH1 0x24 PUSH1 0x0 REVERT JUMPDEST PUSH32 0x4E487B7100000000000000000000000000000000000000000000000000000000 PUSH1 0x0 MSTORE PUSH1 0x22 PUSH1 0x4 MSTORE PUSH1 0x24 PUSH1 0x0 REVERT JUMPDEST PUSH32 0x4E487B7100000000000000000000000000000000000000000000000000000000 PUSH1 0x0 MSTORE PUSH1 0x32 PUSH1 0x4 MSTORE PUSH1 0x24 PUSH1 0x0 REVERT JUMPDEST PUSH32 0x4E487B7100000000000000000000000000000000000000000000000000000000 PUSH1 0x0 MSTORE PUSH1 0x41 PUSH1 0x4 MSTORE PUSH1 0x24 PUSH1 0x0 REVERT JUMPDEST PUSH1 0x0 DUP1 REVERT JUMPDEST PUSH1 0x0 DUP1 REVERT JUMPDEST PUSH1 0x0 DUP1 REVERT JUMPDEST PUSH1 0x0 DUP1 REVERT JUMPDEST PUSH1 0x0 DUP1 REVERT JUMPDEST PUSH1 0x0 PUSH1 0x1F NOT PUSH1 0x1F DUP4 ADD AND SWAP1 POP SWAP2 SWAP1 POP JUMP JUMPDEST PUSH32 0x4552433732313A207472616E7366657220746F20746865207A65726F20616464 PUSH1 0x0 DUP3 ADD MSTORE PUSH32 0x7265737300000000000000000000000000000000000000000000000000000000 PUSH1 0x20 DUP3 ADD MSTORE POP JUMP JUMPDEST PUSH32 0x4552433732313A20617070726F766520746F2063616C6C657200000000000000 PUSH1 0x0 DUP3 ADD MSTORE POP JUMP JUMPDEST PUSH32 0x4552433732313A20617070726F76652063616C6C6572206973206E6F74206F77 PUSH1 0x0 DUP3 ADD MSTORE PUSH32 0x6E6572206E6F7220617070726F76656420666F7220616C6C0000000000000000 PUSH1 0x20 DUP3 ADD MSTORE POP JUMP JUMPDEST PUSH32 0x4552433732313A207472616E73666572206F6620746F6B656E20746861742069 PUSH1 0x0 DUP3 ADD MSTORE PUSH32 0x73206E6F74206F776E0000000000000000000000000000000000000000000000 PUSH1 0x20 DUP3 ADD MSTORE POP JUMP JUMPDEST PUSH32 0x4552433732313A20617070726F76616C20746F2063757272656E74206F776E65 PUSH1 0x0 DUP3 ADD MSTORE PUSH32 0x7200000000000000000000000000000000000000000000000000000000000000 PUSH1 0x20 DUP3 ADD MSTORE POP JUMP JUMPDEST PUSH32 0x4552433732313A207472616E736665722063616C6C6572206973206E6F74206F PUSH1 0x0 DUP3 ADD MSTORE PUSH32 0x776E6572206E6F7220617070726F766564000000000000000000000000000000 PUSH1 0x20 DUP3 ADD MSTORE POP JUMP JUMPDEST PUSH32 0x496E646578206F7574206F6620626F756E647300000000000000000000000000 PUSH1 0x0 DUP3 ADD MSTORE POP JUMP JUMPDEST PUSH32 0x4552433732313A20616472657373203020696E76616C69640000000000000000 PUSH1 0x0 DUP3 ADD MSTORE POP JUMP JUMPDEST PUSH2 0x2997 DUP2 PUSH2 0x2502 JUMP JUMPDEST DUP2 EQ PUSH2 0x29A2 JUMPI PUSH1 0x0 DUP1 REVERT JUMPDEST POP JUMP JUMPDEST PUSH2 0x29AE DUP2 PUSH2 0x2514 JUMP JUMPDEST DUP2 EQ PUSH2 0x29B9 JUMPI PUSH1 0x0 DUP1 REVERT JUMPDEST POP JUMP JUMPDEST PUSH2 0x29C5 DUP2 PUSH2 0x2520 JUMP JUMPDEST DUP2 EQ PUSH2 0x29D0 JUMPI PUSH1 0x0 DUP1 REVERT JUMPDEST POP JUMP JUMPDEST PUSH2 0x29DC DUP2 PUSH2 0x256C JUMP JUMPDEST DUP2 EQ PUSH2 0x29E7 JUMPI PUSH1 0x0 DUP1 REVERT JUMPDEST POP JUMP INVALID LOG2 PUSH5 0x6970667358 0x22 SLT KECCAK256 0x28 0xC0 XOR JUMP KECCAK256 SWAP15 0xD6 JUMP BASEFEE DIFFICULTY TIMESTAMP CHAINID DUP14 ISZERO SWAP2 SGT PUSH6 0x2C24618343A MLOAD SGT 0xCA PUSH13 0x4FBF98D7A164736F6C63430008 SMOD STOP CALLER "
				},
				"gasEstimates": {
					"creation": {
						"codeDepositCost": "2156800",
						"executionCost": "2294",
						"totalCost": "2159094"
					},
					"external": {
						"approve(address,uint256)": "infinite",
						"balanceOf(address)": "2950",
						"getApproved(uint256)": "2911",
						"getTokenID()": "2490",
						"getURIList(address)": "infinite",
						"getURIs(address)": "infinite",
						"isApprovedForAll(address,address)": "infinite",
						"mintToken(address,string)": "infinite",
						"ownerOf(uint256)": "5153",
						"remove(uint256,string[])": "infinite",
						"safeTransferFrom(address,address,uint256)": "infinite",
						"safeTransferFrom(address,address,uint256,bytes)": "infinite",
						"setApprovalForAll(address,bool)": "infinite",
						"supportsInterface(bytes4)": "662",
						"transferFrom(address,address,uint256)": "infinite"
					},
					"internal": {
						"_approve(address,uint256)": "infinite",
						"_isApprovedOrOwner(address,uint256)": "infinite",
						"_safeTransfer(address,address,uint256,bytes memory)": "infinite",
						"_transfer(address,address,uint256)": "infinite"
					}
				},
				"methodIdentifiers": {
					"approve(address,uint256)": "095ea7b3",
					"balanceOf(address)": "70a08231",
					"getApproved(uint256)": "081812fc",
					"getTokenID()": "6ba367a3",
					"getURIList(address)": "7fcb2989",
					"getURIs(address)": "4802693d",
					"isApprovedForAll(address,address)": "e985e9c5",
					"mintToken(address,string)": "3d02d0c9",
					"ownerOf(uint256)": "6352211e",
					"remove(uint256,string[])": "7360cbba",
					"safeTransferFrom(address,address,uint256)": "42842e0e",
					"safeTransferFrom(address,address,uint256,bytes)": "b88d4fde",
					"setApprovalForAll(address,bool)": "a22cb465",
					"supportsInterface(bytes4)": "01ffc9a7",
					"transferFrom(address,address,uint256)": "23b872dd"
				}
			},
			"storageLayout": {
				"storage": [
					{
						"astId": 806,
						"contract": "contracts/ERC721Contract.sol:tokenTest",
						"label": "tokenList",
						"offset": 0,
						"slot": "0",
						"type": "t_array(t_struct(Token)802_storage)dyn_storage"
					},
					{
						"astId": 811,
						"contract": "contracts/ERC721Contract.sol:tokenTest",
						"label": "tokenCollection",
						"offset": 0,
						"slot": "1",
						"type": "t_mapping(t_address,t_array(t_string_storage)dyn_storage)"
					},
					{
						"astId": 815,
						"contract": "contracts/ERC721Contract.sol:tokenTest",
						"label": "tokenURIs",
						"offset": 0,
						"slot": "2",
						"type": "t_mapping(t_uint256,t_string_storage)"
					},
					{
						"astId": 819,
						"contract": "contracts/ERC721Contract.sol:tokenTest",
						"label": "tokenOwner",
						"offset": 0,
						"slot": "3",
						"type": "t_mapping(t_uint256,t_address)"
					},
					{
						"astId": 823,
						"contract": "contracts/ERC721Contract.sol:tokenTest",
						"label": "tokenBalance",
						"offset": 0,
						"slot": "4",
						"type": "t_mapping(t_address,t_uint64)"
					},
					{
						"astId": 827,
						"contract": "contracts/ERC721Contract.sol:tokenTest",
						"label": "tokenApprovals",
						"offset": 0,
						"slot": "5",
						"type": "t_mapping(t_uint256,t_address)"
					},
					{
						"astId": 833,
						"contract": "contracts/ERC721Contract.sol:tokenTest",
						"label": "operatorApprovals",
						"offset": 0,
						"slot": "6",
						"type": "t_mapping(t_address,t_mapping(t_address,t_bool))"
					}
				],
				"types": {
					"t_address": {
						"encoding": "inplace",
						"label": "address",
						"numberOfBytes": "20"
					},
					"t_array(t_string_storage)dyn_storage": {
						"base": "t_string_storage",
						"encoding": "dynamic_array",
						"label": "string[]",
						"numberOfBytes": "32"
					},
					"t_array(t_struct(Token)802_storage)dyn_storage": {
						"base": "t_struct(Token)802_storage",
						"encoding": "dynamic_array",
						"label": "struct tokenData.Token[]",
						"numberOfBytes": "32"
					},
					"t_bool": {
						"encoding": "inplace",
						"label": "bool",
						"numberOfBytes": "1"
					},
					"t_mapping(t_address,t_array(t_string_storage)dyn_storage)": {
						"encoding": "mapping",
						"key": "t_address",
						"label": "mapping(address => string[])",
						"numberOfBytes": "32",
						"value": "t_array(t_string_storage)dyn_storage"
					},
					"t_mapping(t_address,t_bool)": {
						"encoding": "mapping",
						"key": "t_address",
						"label": "mapping(address => bool)",
						"numberOfBytes": "32",
						"value": "t_bool"
					},
					"t_mapping(t_address,t_mapping(t_address,t_bool))": {
						"encoding": "mapping",
						"key": "t_address",
						"label": "mapping(address => mapping(address => bool))",
						"numberOfBytes": "32",
						"value": "t_mapping(t_address,t_bool)"
					},
					"t_mapping(t_address,t_uint64)": {
						"encoding": "mapping",
						"key": "t_address",
						"label": "mapping(address => uint64)",
						"numberOfBytes": "32",
						"value": "t_uint64"
					},
					"t_mapping(t_uint256,t_address)": {
						"encoding": "mapping",
						"key": "t_uint256",
						"label": "mapping(uint256 => address)",
						"numberOfBytes": "32",
						"value": "t_address"
					},
					"t_mapping(t_uint256,t_string_storage)": {
						"encoding": "mapping",
						"key": "t_uint256",
						"label": "mapping(uint256 => string)",
						"numberOfBytes": "32",
						"value": "t_string_storage"
					},
					"t_string_storage": {
						"encoding": "bytes",
						"label": "string",
						"numberOfBytes": "32"
					},
					"t_struct(Token)802_storage": {
						"encoding": "inplace",
						"label": "struct tokenData.Token",
						"members": [
							{
								"astId": 799,
								"contract": "contracts/ERC721Contract.sol:tokenTest",
								"label": "mintedBy",
								"offset": 0,
								"slot": "0",
								"type": "t_address"
							},
							{
								"astId": 801,
								"contract": "contracts/ERC721Contract.sol:tokenTest",
								"label": "mintedAt",
								"offset": 20,
								"slot": "0",
								"type": "t_uint64"
							}
						],
						"numberOfBytes": "32"
					},
					"t_uint256": {
						"encoding": "inplace",
						"label": "uint256",
						"numberOfBytes": "32"
					},
					"t_uint64": {
						"encoding": "inplace",
						"label": "uint64",
						"numberOfBytes": "8"
					}
				}
			},
			"userdoc": {
				"kind": "user",
				"methods": {
					"balanceOf(address)": {
						"notice": "Count all NFTs assigned to an owner"
					},
					"getApproved(uint256)": {
						"notice": "Get the approved address for a single NFT"
					},
					"isApprovedForAll(address,address)": {
						"notice": "Query if an address is an authorized operator for another address"
					},
					"ownerOf(uint256)": {
						"notice": "Find the owner of an NFT"
					},
					"safeTransferFrom(address,address,uint256)": {
						"notice": "Transfers the ownership of an NFT from one address to another address"
					},
					"setApprovalForAll(address,bool)": {
						"notice": "Enable or disable approval for a third party (\"operator\") to manage  all of `msg.sender`'s assets"
					},
					"transferFrom(address,address,uint256)": {
						"notice": "Transfer ownership of an NFT -- THE CALLER IS RESPONSIBLE  TO CONFIRM THAT `_to` IS CAPABLE OF RECEIVING NFTS OR ELSE  THEY MAY BE PERMANENTLY LOST"
					}
				},
				"version": 1
			}
		}
	}
}