{
	"contracts/ERC721Contract.sol": {
		"ERC721Contract": {
			"abi": [
				{
					"anonymous": false,
					"inputs": [
						{
							"indexed": true,
							"internalType": "address",
							"name": "_owner",
							"type": "address"
						},
						{
							"indexed": true,
							"internalType": "address",
							"name": "_approved",
							"type": "address"
						},
						{
							"indexed": true,
							"internalType": "uint256",
							"name": "_tokenId",
							"type": "uint256"
						}
					],
					"name": "Approval",
					"type": "event"
				},
				{
					"anonymous": false,
					"inputs": [
						{
							"indexed": true,
							"internalType": "address",
							"name": "_owner",
							"type": "address"
						},
						{
							"indexed": true,
							"internalType": "address",
							"name": "_operator",
							"type": "address"
						},
						{
							"indexed": false,
							"internalType": "bool",
							"name": "_approved",
							"type": "bool"
						}
					],
					"name": "ApprovalForAll",
					"type": "event"
				},
				{
					"anonymous": false,
					"inputs": [
						{
							"indexed": true,
							"internalType": "address",
							"name": "_from",
							"type": "address"
						},
						{
							"indexed": true,
							"internalType": "address",
							"name": "_to",
							"type": "address"
						},
						{
							"indexed": true,
							"internalType": "uint256",
							"name": "_tokenId",
							"type": "uint256"
						}
					],
					"name": "Transfer",
					"type": "event"
				},
				{
					"inputs": [
						{
							"internalType": "address",
							"name": "_approveTo",
							"type": "address"
						},
						{
							"internalType": "uint256",
							"name": "_tokenId",
							"type": "uint256"
						}
					],
					"name": "approve",
					"outputs": [],
					"stateMutability": "payable",
					"type": "function"
				},
				{
					"inputs": [
						{
							"internalType": "address",
							"name": "_owner",
							"type": "address"
						}
					],
					"name": "balanceOf",
					"outputs": [
						{
							"internalType": "uint256",
							"name": "",
							"type": "uint256"
						}
					],
					"stateMutability": "view",
					"type": "function"
				},
				{
					"inputs": [
						{
							"internalType": "uint256",
							"name": "tokenId",
							"type": "uint256"
						}
					],
					"name": "burn",
					"outputs": [],
					"stateMutability": "nonpayable",
					"type": "function"
				},
				{
					"inputs": [
						{
							"internalType": "uint256",
							"name": "_tokenId",
							"type": "uint256"
						}
					],
					"name": "getApproved",
					"outputs": [
						{
							"internalType": "address",
							"name": "",
							"type": "address"
						}
					],
					"stateMutability": "view",
					"type": "function"
				},
				{
					"inputs": [],
					"name": "getTokenID",
					"outputs": [
						{
							"internalType": "uint256",
							"name": "",
							"type": "uint256"
						}
					],
					"stateMutability": "view",
					"type": "function"
				},
				{
					"inputs": [
						{
							"internalType": "address",
							"name": "owner",
							"type": "address"
						}
					],
					"name": "getURIList",
					"outputs": [
						{
							"internalType": "string[]",
							"name": "",
							"type": "string[]"
						}
					],
					"stateMutability": "view",
					"type": "function"
				},
				{
					"inputs": [
						{
							"internalType": "address",
							"name": "owner",
							"type": "address"
						}
					],
					"name": "getURIs",
					"outputs": [
						{
							"internalType": "string",
							"name": "",
							"type": "string"
						}
					],
					"stateMutability": "view",
					"type": "function"
				},
				{
					"inputs": [
						{
							"internalType": "address",
							"name": "_owner",
							"type": "address"
						},
						{
							"internalType": "address",
							"name": "_operator",
							"type": "address"
						}
					],
					"name": "isApprovedForAll",
					"outputs": [
						{
							"internalType": "bool",
							"name": "",
							"type": "bool"
						}
					],
					"stateMutability": "view",
					"type": "function"
				},
				{
					"inputs": [
						{
							"internalType": "address",
							"name": "to",
							"type": "address"
						},
						{
							"internalType": "string",
							"name": "tokenURI",
							"type": "string"
						}
					],
					"name": "mintToken",
					"outputs": [
						{
							"internalType": "uint256",
							"name": "tokenId",
							"type": "uint256"
						}
					],
					"stateMutability": "nonpayable",
					"type": "function"
				},
				{
					"inputs": [
						{
							"internalType": "uint256",
							"name": "_tokenId",
							"type": "uint256"
						}
					],
					"name": "ownerOf",
					"outputs": [
						{
							"internalType": "address",
							"name": "",
							"type": "address"
						}
					],
					"stateMutability": "view",
					"type": "function"
				},
				{
					"inputs": [
						{
							"internalType": "uint256",
							"name": "index",
							"type": "uint256"
						},
						{
							"internalType": "string[]",
							"name": "array",
							"type": "string[]"
						}
					],
					"name": "remove",
					"outputs": [],
					"stateMutability": "pure",
					"type": "function"
				},
				{
					"inputs": [
						{
							"internalType": "address",
							"name": "_from",
							"type": "address"
						},
						{
							"internalType": "address",
							"name": "_to",
							"type": "address"
						},
						{
							"internalType": "uint256",
							"name": "_tokenId",
							"type": "uint256"
						}
					],
					"name": "safeTransferFrom",
					"outputs": [],
					"stateMutability": "payable",
					"type": "function"
				},
				{
					"inputs": [
						{
							"internalType": "address",
							"name": "from",
							"type": "address"
						},
						{
							"internalType": "address",
							"name": "to",
							"type": "address"
						},
						{
							"internalType": "uint256",
							"name": "tokenId",
							"type": "uint256"
						},
						{
							"internalType": "bytes",
							"name": "_data",
							"type": "bytes"
						}
					],
					"name": "safeTransferFrom",
					"outputs": [],
					"stateMutability": "payable",
					"type": "function"
				},
				{
					"inputs": [
						{
							"internalType": "address",
							"name": "_operator",
							"type": "address"
						},
						{
							"internalType": "bool",
							"name": "_approved",
							"type": "bool"
						}
					],
					"name": "setApprovalForAll",
					"outputs": [],
					"stateMutability": "nonpayable",
					"type": "function"
				},
				{
					"inputs": [
						{
							"internalType": "bytes4",
							"name": "interfaceId",
							"type": "bytes4"
						}
					],
					"name": "supportsInterface",
					"outputs": [
						{
							"internalType": "bool",
							"name": "",
							"type": "bool"
						}
					],
					"stateMutability": "view",
					"type": "function"
				},
				{
					"inputs": [
						{
							"internalType": "address",
							"name": "_owner",
							"type": "address"
						}
					],
					"name": "tokensOfOwner",
					"outputs": [
						{
							"internalType": "uint256[]",
							"name": "ownerTokens",
							"type": "uint256[]"
						}
					],
					"stateMutability": "view",
					"type": "function"
				},
				{
					"inputs": [
						{
							"internalType": "address",
							"name": "_from",
							"type": "address"
						},
						{
							"internalType": "address",
							"name": "_to",
							"type": "address"
						},
						{
							"internalType": "uint256",
							"name": "_tokenId",
							"type": "uint256"
						}
					],
					"name": "transferFrom",
					"outputs": [],
					"stateMutability": "payable",
					"type": "function"
				}
			],
			"devdoc": {
				"kind": "dev",
				"methods": {
					"balanceOf(address)": {
						"details": "NFTs assigned to the zero address are considered invalid, and this  function throws for queries about the zero address.",
						"params": {
							"_owner": "An address for whom to query the balance"
						},
						"returns": {
							"_0": "The number of NFTs owned by `_owner`, possibly zero"
						}
					},
					"getApproved(uint256)": {
						"details": "Throws if `_tokenId` is not a valid NFT.",
						"params": {
							"_tokenId": "The NFT to find the approved address for"
						},
						"returns": {
							"_0": "The approved address for this NFT, or the zero address if there is none"
						}
					},
					"isApprovedForAll(address,address)": {
						"params": {
							"_operator": "The address that acts on behalf of the owner",
							"_owner": "The address that owns the NFTs"
						},
						"returns": {
							"_0": "True if `_operator` is an approved operator for `_owner`, false otherwise"
						}
					},
					"ownerOf(uint256)": {
						"details": "NFTs assigned to zero address are considered invalid, and queries  about them do throw.",
						"params": {
							"_tokenId": "The identifier for an NFT"
						},
						"returns": {
							"_0": "The address of the owner of the NFT"
						}
					},
					"safeTransferFrom(address,address,uint256)": {
						"details": "This works identically to the other function with an extra data parameter,  except this function just sets data to \"\".",
						"params": {
							"_from": "The current owner of the NFT",
							"_to": "The new owner",
							"_tokenId": "The NFT to transfer"
						}
					},
					"setApprovalForAll(address,bool)": {
						"details": "Emits the ApprovalForAll event. The contract MUST allow  multiple operators per owner.",
						"params": {
							"_approved": "True if the operator is approved, false to revoke approval",
							"_operator": "Address to add to the set of authorized operators"
						}
					},
					"tokensOfOwner(address)": {
						"details": "This method MUST NEVER be called by smart contract code. First, it's fairly  expensive ",
						"params": {
							"_owner": "The owner whose tokens we are interested in."
						}
					},
					"transferFrom(address,address,uint256)": {
						"details": "Throws unless `msg.sender` is the current owner, an authorized  operator, or the approved address for this NFT. Throws if `_from` is  not the current owner. Throws if `_to` is the zero address. Throws if  `_tokenId` is not a valid NFT.",
						"params": {
							"_from": "The current owner of the NFT",
							"_to": "The new owner",
							"_tokenId": "The NFT to transfer"
						}
					}
				},
				"version": 1
			},
			"evm": {
				"assembly": "    /* \"contracts/ERC721Contract.sol\":83:6798  contract ERC721Contract is tokenData, ERC721, ERC165 {... */\n  mstore(0x40, 0x80)\n  callvalue\n  dup1\n  iszero\n  tag_1\n  jumpi\n  0x00\n  dup1\n  revert\ntag_1:\n  pop\n  dataSize(sub_0)\n  dup1\n  dataOffset(sub_0)\n  0x00\n  codecopy\n  0x00\n  return\nstop\n\nsub_0: assembly {\n        /* \"contracts/ERC721Contract.sol\":83:6798  contract ERC721Contract is tokenData, ERC721, ERC165 {... */\n      mstore(0x40, 0x80)\n      jumpi(tag_1, lt(calldatasize, 0x04))\n      shr(0xe0, calldataload(0x00))\n      dup1\n      0x6352211e\n      gt\n      tag_19\n      jumpi\n      dup1\n      0x7fcb2989\n      gt\n      tag_20\n      jumpi\n      dup1\n      0x7fcb2989\n      eq\n      tag_14\n      jumpi\n      dup1\n      0x8462151c\n      eq\n      tag_15\n      jumpi\n      dup1\n      0xa22cb465\n      eq\n      tag_16\n      jumpi\n      dup1\n      0xb88d4fde\n      eq\n      tag_17\n      jumpi\n      dup1\n      0xe985e9c5\n      eq\n      tag_18\n      jumpi\n      jump(tag_1)\n    tag_20:\n      dup1\n      0x6352211e\n      eq\n      tag_10\n      jumpi\n      dup1\n      0x6ba367a3\n      eq\n      tag_11\n      jumpi\n      dup1\n      0x70a08231\n      eq\n      tag_12\n      jumpi\n      dup1\n      0x7360cbba\n      eq\n      tag_13\n      jumpi\n      jump(tag_1)\n    tag_19:\n      dup1\n      0x3d02d0c9\n      gt\n      tag_21\n      jumpi\n      dup1\n      0x3d02d0c9\n      eq\n      tag_6\n      jumpi\n      dup1\n      0x42842e0e\n      eq\n      tag_7\n      jumpi\n      dup1\n      0x42966c68\n      eq\n      tag_8\n      jumpi\n      dup1\n      0x4802693d\n      eq\n      tag_9\n      jumpi\n      jump(tag_1)\n    tag_21:\n      dup1\n      0x01ffc9a7\n      eq\n      tag_2\n      jumpi\n      dup1\n      0x081812fc\n      eq\n      tag_3\n      jumpi\n      dup1\n      0x095ea7b3\n      eq\n      tag_4\n      jumpi\n      dup1\n      0x23b872dd\n      eq\n      tag_5\n      jumpi\n    tag_1:\n      0x00\n      dup1\n      revert\n        /* \"contracts/ERC721Contract.sol\":4500:4662  function supportsInterface(bytes4 interfaceId) public view virtual override(ERC165) returns (bool) {... */\n    tag_2:\n      callvalue\n      dup1\n      iszero\n      tag_22\n      jumpi\n      0x00\n      dup1\n      revert\n    tag_22:\n      pop\n      tag_23\n      0x04\n      dup1\n      calldatasize\n      sub\n      dup2\n      add\n      swap1\n      tag_24\n      swap2\n      swap1\n      tag_25\n      jump\t// in\n    tag_24:\n      tag_26\n      jump\t// in\n    tag_23:\n      mload(0x40)\n      tag_27\n      swap2\n      swap1\n      tag_28\n      jump\t// in\n    tag_27:\n      mload(0x40)\n      dup1\n      swap2\n      sub\n      swap1\n      return\n        /* \"contracts/ERC721Contract.sol\":3489:3623  function getApproved(uint256 _tokenId) public view virtual override returns (address) {... */\n    tag_3:\n      callvalue\n      dup1\n      iszero\n      tag_29\n      jumpi\n      0x00\n      dup1\n      revert\n    tag_29:\n      pop\n      tag_30\n      0x04\n      dup1\n      calldatasize\n      sub\n      dup2\n      add\n      swap1\n      tag_31\n      swap2\n      swap1\n      tag_32\n      jump\t// in\n    tag_31:\n      tag_33\n      jump\t// in\n    tag_30:\n      mload(0x40)\n      tag_34\n      swap2\n      swap1\n      tag_35\n      jump\t// in\n    tag_34:\n      mload(0x40)\n      dup1\n      swap2\n      sub\n      swap1\n      return\n        /* \"contracts/ERC721Contract.sol\":3078:3483  function approve(address _approveTo, uint256 _tokenId) public virtual payable override {... */\n    tag_4:\n      tag_36\n      0x04\n      dup1\n      calldatasize\n      sub\n      dup2\n      add\n      swap1\n      tag_37\n      swap2\n      swap1\n      tag_38\n      jump\t// in\n    tag_37:\n      tag_39\n      jump\t// in\n    tag_36:\n      stop\n        /* \"contracts/ERC721Contract.sol\":985:1125  function transferFrom(address _from, address _to, uint _tokenId) public virtual payable override{... */\n    tag_5:\n      tag_40\n      0x04\n      dup1\n      calldatasize\n      sub\n      dup2\n      add\n      swap1\n      tag_41\n      swap2\n      swap1\n      tag_42\n      jump\t// in\n    tag_41:\n      tag_43\n      jump\t// in\n    tag_40:\n      stop\n        /* \"contracts/ERC721Contract.sol\":4671:5151  function mintToken(address to, string memory tokenURI) external returns (uint tokenId) {... */\n    tag_6:\n      callvalue\n      dup1\n      iszero\n      tag_44\n      jumpi\n      0x00\n      dup1\n      revert\n    tag_44:\n      pop\n      tag_45\n      0x04\n      dup1\n      calldatasize\n      sub\n      dup2\n      add\n      swap1\n      tag_46\n      swap2\n      swap1\n      tag_47\n      jump\t// in\n    tag_46:\n      tag_48\n      jump\t// in\n    tag_45:\n      mload(0x40)\n      tag_49\n      swap2\n      swap1\n      tag_50\n      jump\t// in\n    tag_49:\n      mload(0x40)\n      dup1\n      swap2\n      sub\n      swap1\n      return\n        /* \"contracts/ERC721Contract.sol\":522:685  function safeTransferFrom(address _from, address _to, uint256 _tokenId) public virtual payable override {... */\n    tag_7:\n      tag_51\n      0x04\n      dup1\n      calldatasize\n      sub\n      dup2\n      add\n      swap1\n      tag_52\n      swap2\n      swap1\n      tag_42\n      jump\t// in\n    tag_52:\n      tag_53\n      jump\t// in\n    tag_51:\n      stop\n        /* \"contracts/ERC721Contract.sol\":1999:2136  function burn(uint256 tokenId) public {... */\n    tag_8:\n      callvalue\n      dup1\n      iszero\n      tag_54\n      jumpi\n      0x00\n      dup1\n      revert\n    tag_54:\n      pop\n      tag_55\n      0x04\n      dup1\n      calldatasize\n      sub\n      dup2\n      add\n      swap1\n      tag_56\n      swap2\n      swap1\n      tag_32\n      jump\t// in\n    tag_56:\n      tag_57\n      jump\t// in\n    tag_55:\n      stop\n        /* \"contracts/ERC721Contract.sol\":5158:5494  function getURIs(address owner) public view returns(string memory){... */\n    tag_9:\n      callvalue\n      dup1\n      iszero\n      tag_58\n      jumpi\n      0x00\n      dup1\n      revert\n    tag_58:\n      pop\n      tag_59\n      0x04\n      dup1\n      calldatasize\n      sub\n      dup2\n      add\n      swap1\n      tag_60\n      swap2\n      swap1\n      tag_61\n      jump\t// in\n    tag_60:\n      tag_62\n      jump\t// in\n    tag_59:\n      mload(0x40)\n      tag_63\n      swap2\n      swap1\n      tag_64\n      jump\t// in\n    tag_63:\n      mload(0x40)\n      dup1\n      swap2\n      sub\n      swap1\n      return\n        /* \"contracts/ERC721Contract.sol\":279:516  function ownerOf(uint256 _tokenId) public view virtual override returns (address){... */\n    tag_10:\n      callvalue\n      dup1\n      iszero\n      tag_65\n      jumpi\n      0x00\n      dup1\n      revert\n    tag_65:\n      pop\n      tag_66\n      0x04\n      dup1\n      calldatasize\n      sub\n      dup2\n      add\n      swap1\n      tag_67\n      swap2\n      swap1\n      tag_32\n      jump\t// in\n    tag_67:\n      tag_68\n      jump\t// in\n    tag_66:\n      mload(0x40)\n      tag_69\n      swap2\n      swap1\n      tag_35\n      jump\t// in\n    tag_69:\n      mload(0x40)\n      dup1\n      swap2\n      sub\n      swap1\n      return\n        /* \"contracts/ERC721Contract.sol\":5624:5715  function getTokenID() public view returns (uint256){... */\n    tag_11:\n      callvalue\n      dup1\n      iszero\n      tag_70\n      jumpi\n      0x00\n      dup1\n      revert\n    tag_70:\n      pop\n      tag_71\n      tag_72\n      jump\t// in\n    tag_71:\n      mload(0x40)\n      tag_73\n      swap2\n      swap1\n      tag_50\n      jump\t// in\n    tag_73:\n      mload(0x40)\n      dup1\n      swap2\n      sub\n      swap1\n      return\n        /* \"contracts/ERC721Contract.sol\":148:273  function balanceOf(address _owner) public view virtual override returns (uint256){... */\n    tag_12:\n      callvalue\n      dup1\n      iszero\n      tag_74\n      jumpi\n      0x00\n      dup1\n      revert\n    tag_74:\n      pop\n      tag_75\n      0x04\n      dup1\n      calldatasize\n      sub\n      dup2\n      add\n      swap1\n      tag_76\n      swap2\n      swap1\n      tag_61\n      jump\t// in\n    tag_76:\n      tag_77\n      jump\t// in\n    tag_75:\n      mload(0x40)\n      tag_78\n      swap2\n      swap1\n      tag_50\n      jump\t// in\n    tag_78:\n      mload(0x40)\n      dup1\n      swap2\n      sub\n      swap1\n      return\n        /* \"contracts/ERC721Contract.sol\":1723:1993  function remove(uint index, string[] memory array )  public pure  {... */\n    tag_13:\n      callvalue\n      dup1\n      iszero\n      tag_79\n      jumpi\n      0x00\n      dup1\n      revert\n    tag_79:\n      pop\n      tag_80\n      0x04\n      dup1\n      calldatasize\n      sub\n      dup2\n      add\n      swap1\n      tag_81\n      swap2\n      swap1\n      tag_82\n      jump\t// in\n    tag_81:\n      tag_83\n      jump\t// in\n    tag_80:\n      stop\n        /* \"contracts/ERC721Contract.sol\":5500:5618  function getURIList(address owner) public view returns(string[] memory){... */\n    tag_14:\n      callvalue\n      dup1\n      iszero\n      tag_84\n      jumpi\n      0x00\n      dup1\n      revert\n    tag_84:\n      pop\n      tag_85\n      0x04\n      dup1\n      calldatasize\n      sub\n      dup2\n      add\n      swap1\n      tag_86\n      swap2\n      swap1\n      tag_61\n      jump\t// in\n    tag_86:\n      tag_87\n      jump\t// in\n    tag_85:\n      mload(0x40)\n      tag_88\n      swap2\n      swap1\n      tag_89\n      jump\t// in\n    tag_88:\n      mload(0x40)\n      dup1\n      swap2\n      sub\n      swap1\n      return\n        /* \"contracts/ERC721Contract.sol\":5969:6795  function tokensOfOwner(address _owner) external view returns(uint256[] memory ownerTokens) {... */\n    tag_15:\n      callvalue\n      dup1\n      iszero\n      tag_90\n      jumpi\n      0x00\n      dup1\n      revert\n    tag_90:\n      pop\n      tag_91\n      0x04\n      dup1\n      calldatasize\n      sub\n      dup2\n      add\n      swap1\n      tag_92\n      swap2\n      swap1\n      tag_61\n      jump\t// in\n    tag_92:\n      tag_93\n      jump\t// in\n    tag_91:\n      mload(0x40)\n      tag_94\n      swap2\n      swap1\n      tag_95\n      jump\t// in\n    tag_94:\n      mload(0x40)\n      dup1\n      swap2\n      sub\n      swap1\n      return\n        /* \"contracts/ERC721Contract.sol\":3629:3918  function setApprovalForAll(address _operator, bool _approved) public virtual override {... */\n    tag_16:\n      callvalue\n      dup1\n      iszero\n      tag_96\n      jumpi\n      0x00\n      dup1\n      revert\n    tag_96:\n      pop\n      tag_97\n      0x04\n      dup1\n      calldatasize\n      sub\n      dup2\n      add\n      swap1\n      tag_98\n      swap2\n      swap1\n      tag_99\n      jump\t// in\n    tag_98:\n      tag_100\n      jump\t// in\n    tag_97:\n      stop\n        /* \"contracts/ERC721Contract.sol\":691:979  function safeTransferFrom(address from, address to, uint256 tokenId, bytes memory _data) public virtual payable override {... */\n    tag_17:\n      tag_101\n      0x04\n      dup1\n      calldatasize\n      sub\n      dup2\n      add\n      swap1\n      tag_102\n      swap2\n      swap1\n      tag_103\n      jump\t// in\n    tag_102:\n      tag_104\n      jump\t// in\n    tag_101:\n      stop\n        /* \"contracts/ERC721Contract.sol\":3924:4088  function isApprovedForAll(address _owner, address _operator) public view virtual override returns (bool){... */\n    tag_18:\n      callvalue\n      dup1\n      iszero\n      tag_105\n      jumpi\n      0x00\n      dup1\n      revert\n    tag_105:\n      pop\n      tag_106\n      0x04\n      dup1\n      calldatasize\n      sub\n      dup2\n      add\n      swap1\n      tag_107\n      swap2\n      swap1\n      tag_108\n      jump\t// in\n    tag_107:\n      tag_109\n      jump\t// in\n    tag_106:\n      mload(0x40)\n      tag_110\n      swap2\n      swap1\n      tag_28\n      jump\t// in\n    tag_110:\n      mload(0x40)\n      dup1\n      swap2\n      sub\n      swap1\n      return\n        /* \"contracts/ERC721Contract.sol\":4500:4662  function supportsInterface(bytes4 interfaceId) public view virtual override(ERC165) returns (bool) {... */\n    tag_26:\n        /* \"contracts/ERC721Contract.sol\":4593:4597  bool */\n      0x00\n        /* \"contracts/ERC721Contract.sol\":4631:4655  type(ERC721).interfaceId */\n      0x80ac58cd00000000000000000000000000000000000000000000000000000000\n        /* \"contracts/ERC721Contract.sol\":4616:4655  interfaceId == type(ERC721).interfaceId */\n      not(0xffffffffffffffffffffffffffffffffffffffffffffffffffffffff)\n      and\n        /* \"contracts/ERC721Contract.sol\":4616:4627  interfaceId */\n      dup3\n        /* \"contracts/ERC721Contract.sol\":4616:4655  interfaceId == type(ERC721).interfaceId */\n      not(0xffffffffffffffffffffffffffffffffffffffffffffffffffffffff)\n      and\n      eq\n        /* \"contracts/ERC721Contract.sol\":4609:4655  return interfaceId == type(ERC721).interfaceId */\n      swap1\n      pop\n        /* \"contracts/ERC721Contract.sol\":4500:4662  function supportsInterface(bytes4 interfaceId) public view virtual override(ERC165) returns (bool) {... */\n      swap2\n      swap1\n      pop\n      jump\t// out\n        /* \"contracts/ERC721Contract.sol\":3489:3623  function getApproved(uint256 _tokenId) public view virtual override returns (address) {... */\n    tag_33:\n        /* \"contracts/ERC721Contract.sol\":3566:3573  address */\n      0x00\n        /* \"contracts/ERC721Contract.sol\":3592:3606  tokenApprovals */\n      0x05\n        /* \"contracts/ERC721Contract.sol\":3592:3616  tokenApprovals[_tokenId] */\n      0x00\n        /* \"contracts/ERC721Contract.sol\":3607:3615  _tokenId */\n      dup4\n        /* \"contracts/ERC721Contract.sol\":3592:3616  tokenApprovals[_tokenId] */\n      dup2\n      mstore\n      0x20\n      add\n      swap1\n      dup2\n      mstore\n      0x20\n      add\n      0x00\n      keccak256\n      0x00\n      swap1\n      sload\n      swap1\n      0x0100\n      exp\n      swap1\n      div\n      0xffffffffffffffffffffffffffffffffffffffff\n      and\n        /* \"contracts/ERC721Contract.sol\":3585:3616  return tokenApprovals[_tokenId] */\n      swap1\n      pop\n        /* \"contracts/ERC721Contract.sol\":3489:3623  function getApproved(uint256 _tokenId) public view virtual override returns (address) {... */\n      swap2\n      swap1\n      pop\n      jump\t// out\n        /* \"contracts/ERC721Contract.sol\":3078:3483  function approve(address _approveTo, uint256 _tokenId) public virtual payable override {... */\n    tag_39:\n        /* \"contracts/ERC721Contract.sol\":3197:3214  ownerOf(_tokenId) */\n      tag_114\n        /* \"contracts/ERC721Contract.sol\":3205:3213  _tokenId */\n      dup2\n        /* \"contracts/ERC721Contract.sol\":3197:3204  ownerOf */\n      tag_68\n        /* \"contracts/ERC721Contract.sol\":3197:3214  ownerOf(_tokenId) */\n      jump\t// in\n    tag_114:\n        /* \"contracts/ERC721Contract.sol\":3183:3214  _approveTo != ownerOf(_tokenId) */\n      0xffffffffffffffffffffffffffffffffffffffff\n      and\n        /* \"contracts/ERC721Contract.sol\":3183:3193  _approveTo */\n      dup3\n        /* \"contracts/ERC721Contract.sol\":3183:3214  _approveTo != ownerOf(_tokenId) */\n      0xffffffffffffffffffffffffffffffffffffffff\n      and\n      eq\n      iszero\n        /* \"contracts/ERC721Contract.sol\":3175:3253  require(_approveTo != ownerOf(_tokenId) , \"ERC721: approval to current owner\") */\n      tag_115\n      jumpi\n      mload(0x40)\n      0x08c379a000000000000000000000000000000000000000000000000000000000\n      dup2\n      mstore\n      0x04\n      add\n      tag_116\n      swap1\n      tag_117\n      jump\t// in\n    tag_116:\n      mload(0x40)\n      dup1\n      swap2\n      sub\n      swap1\n      revert\n    tag_115:\n        /* \"contracts/ERC721Contract.sol\":3286:3303  ownerOf(_tokenId) */\n      tag_118\n        /* \"contracts/ERC721Contract.sol\":3294:3302  _tokenId */\n      dup2\n        /* \"contracts/ERC721Contract.sol\":3286:3293  ownerOf */\n      tag_68\n        /* \"contracts/ERC721Contract.sol\":3286:3303  ownerOf(_tokenId) */\n      jump\t// in\n    tag_118:\n        /* \"contracts/ERC721Contract.sol\":3272:3303  msg.sender == ownerOf(_tokenId) */\n      0xffffffffffffffffffffffffffffffffffffffff\n      and\n        /* \"contracts/ERC721Contract.sol\":3272:3282  msg.sender */\n      caller\n        /* \"contracts/ERC721Contract.sol\":3272:3303  msg.sender == ownerOf(_tokenId) */\n      0xffffffffffffffffffffffffffffffffffffffff\n      and\n      eq\n        /* \"contracts/ERC721Contract.sol\":3272:3354  msg.sender == ownerOf(_tokenId) || isApprovedForAll(ownerOf(_tokenId), msg.sender) */\n      dup1\n      tag_119\n      jumpi\n      pop\n        /* \"contracts/ERC721Contract.sol\":3307:3354  isApprovedForAll(ownerOf(_tokenId), msg.sender) */\n      tag_120\n        /* \"contracts/ERC721Contract.sol\":3324:3341  ownerOf(_tokenId) */\n      tag_121\n        /* \"contracts/ERC721Contract.sol\":3332:3340  _tokenId */\n      dup3\n        /* \"contracts/ERC721Contract.sol\":3324:3331  ownerOf */\n      tag_68\n        /* \"contracts/ERC721Contract.sol\":3324:3341  ownerOf(_tokenId) */\n      jump\t// in\n    tag_121:\n        /* \"contracts/ERC721Contract.sol\":3343:3353  msg.sender */\n      caller\n        /* \"contracts/ERC721Contract.sol\":3307:3323  isApprovedForAll */\n      tag_109\n        /* \"contracts/ERC721Contract.sol\":3307:3354  isApprovedForAll(ownerOf(_tokenId), msg.sender) */\n      jump\t// in\n    tag_120:\n        /* \"contracts/ERC721Contract.sol\":3272:3354  msg.sender == ownerOf(_tokenId) || isApprovedForAll(ownerOf(_tokenId), msg.sender) */\n    tag_119:\n        /* \"contracts/ERC721Contract.sol\":3264:3436  require(msg.sender == ownerOf(_tokenId) || isApprovedForAll(ownerOf(_tokenId), msg.sender),... */\n      tag_122\n      jumpi\n      mload(0x40)\n      0x08c379a000000000000000000000000000000000000000000000000000000000\n      dup2\n      mstore\n      0x04\n      add\n      tag_123\n      swap1\n      tag_124\n      jump\t// in\n    tag_123:\n      mload(0x40)\n      dup1\n      swap2\n      sub\n      swap1\n      revert\n    tag_122:\n        /* \"contracts/ERC721Contract.sol\":3446:3476  _approve(_approveTo, _tokenId) */\n      tag_125\n        /* \"contracts/ERC721Contract.sol\":3455:3465  _approveTo */\n      dup3\n        /* \"contracts/ERC721Contract.sol\":3467:3475  _tokenId */\n      dup3\n        /* \"contracts/ERC721Contract.sol\":3446:3454  _approve */\n      tag_126\n        /* \"contracts/ERC721Contract.sol\":3446:3476  _approve(_approveTo, _tokenId) */\n      jump\t// in\n    tag_125:\n        /* \"contracts/ERC721Contract.sol\":3078:3483  function approve(address _approveTo, uint256 _tokenId) public virtual payable override {... */\n      pop\n      pop\n      jump\t// out\n        /* \"contracts/ERC721Contract.sol\":985:1125  function transferFrom(address _from, address _to, uint _tokenId) public virtual payable override{... */\n    tag_43:\n        /* \"contracts/ERC721Contract.sol\":1085:1121  safeTransferFrom(_from,_to,_tokenId) */\n      tag_128\n        /* \"contracts/ERC721Contract.sol\":1102:1107  _from */\n      dup4\n        /* \"contracts/ERC721Contract.sol\":1108:1111  _to */\n      dup4\n        /* \"contracts/ERC721Contract.sol\":1112:1120  _tokenId */\n      dup4\n        /* \"contracts/ERC721Contract.sol\":1085:1101  safeTransferFrom */\n      tag_53\n        /* \"contracts/ERC721Contract.sol\":1085:1121  safeTransferFrom(_from,_to,_tokenId) */\n      jump\t// in\n    tag_128:\n        /* \"contracts/ERC721Contract.sol\":985:1125  function transferFrom(address _from, address _to, uint _tokenId) public virtual payable override{... */\n      pop\n      pop\n      pop\n      jump\t// out\n        /* \"contracts/ERC721Contract.sol\":4671:5151  function mintToken(address to, string memory tokenURI) external returns (uint tokenId) {... */\n    tag_48:\n        /* \"contracts/ERC721Contract.sol\":4744:4756  uint tokenId */\n      0x00\n        /* \"contracts/ERC721Contract.sol\":4762:4780  Token memory token */\n      dup1\n        /* \"contracts/ERC721Contract.sol\":4783:4860  Token({... */\n      mload(0x40)\n      dup1\n      0x40\n      add\n      0x40\n      mstore\n      dup1\n        /* \"contracts/ERC721Contract.sol\":4804:4814  msg.sender */\n      caller\n        /* \"contracts/ERC721Contract.sol\":4783:4860  Token({... */\n      0xffffffffffffffffffffffffffffffffffffffff\n      and\n      dup2\n      mstore\n      0x20\n      add\n        /* \"contracts/ERC721Contract.sol\":4836:4851  block.timestamp */\n      timestamp\n        /* \"contracts/ERC721Contract.sol\":4783:4860  Token({... */\n      0xffffffffffffffff\n      and\n      dup2\n      mstore\n      pop\n        /* \"contracts/ERC721Contract.sol\":4762:4860  Token memory token = Token({... */\n      swap1\n      pop\n        /* \"contracts/ERC721Contract.sol\":4892:4893  0 */\n      0x00\n        /* \"contracts/ERC721Contract.sol\":4878:4894  to != address(0) */\n      0xffffffffffffffffffffffffffffffffffffffff\n      and\n        /* \"contracts/ERC721Contract.sol\":4878:4880  to */\n      dup5\n        /* \"contracts/ERC721Contract.sol\":4878:4894  to != address(0) */\n      0xffffffffffffffffffffffffffffffffffffffff\n      and\n      eq\n      iszero\n        /* \"contracts/ERC721Contract.sol\":4870:4895  require(to != address(0)) */\n      tag_130\n      jumpi\n      0x00\n      dup1\n      revert\n    tag_130:\n        /* \"contracts/ERC721Contract.sol\":4899:4908  tokenList */\n      0x00\n        /* \"contracts/ERC721Contract.sol\":4914:4919  token */\n      dup2\n        /* \"contracts/ERC721Contract.sol\":4899:4920  tokenList.push(token) */\n      swap1\n      dup1\n      0x01\n      dup2\n      sload\n      add\n      dup1\n      dup3\n      sstore\n      dup1\n      swap2\n      pop\n      pop\n      0x01\n      swap1\n      sub\n      swap1\n      0x00\n      mstore\n      keccak256(0x00, 0x20)\n      add\n      0x00\n      swap1\n      swap2\n      swap1\n      swap2\n      swap1\n      swap2\n      pop\n      0x00\n      dup3\n      add\n      mload\n      dup2\n      0x00\n      add\n      exp(0x0100, 0x00)\n      dup2\n      sload\n      dup2\n      0xffffffffffffffffffffffffffffffffffffffff\n      mul\n      not\n      and\n      swap1\n      dup4\n      0xffffffffffffffffffffffffffffffffffffffff\n      and\n      mul\n      or\n      swap1\n      sstore\n      pop\n      0x20\n      dup3\n      add\n      mload\n      dup2\n      0x00\n      add\n      exp(0x0100, 0x14)\n      dup2\n      sload\n      dup2\n      0xffffffffffffffff\n      mul\n      not\n      and\n      swap1\n      dup4\n      0xffffffffffffffff\n      and\n      mul\n      or\n      swap1\n      sstore\n      pop\n      pop\n      pop\n        /* \"contracts/ERC721Contract.sol\":4934:4943  tokenList */\n      0x00\n        /* \"contracts/ERC721Contract.sol\":4934:4950  tokenList.length */\n      dup1\n      sload\n      swap1\n      pop\n        /* \"contracts/ERC721Contract.sol\":4924:4950  tokenId = tokenList.length */\n      swap2\n      pop\n        /* \"contracts/ERC721Contract.sol\":4979:4987  tokenURI */\n      dup3\n        /* \"contracts/ERC721Contract.sol\":4960:4969  tokenURIs */\n      0x02\n        /* \"contracts/ERC721Contract.sol\":4960:4978  tokenURIs[tokenId] */\n      0x00\n        /* \"contracts/ERC721Contract.sol\":4970:4977  tokenId */\n      dup5\n        /* \"contracts/ERC721Contract.sol\":4960:4978  tokenURIs[tokenId] */\n      dup2\n      mstore\n      0x20\n      add\n      swap1\n      dup2\n      mstore\n      0x20\n      add\n      0x00\n      keccak256\n        /* \"contracts/ERC721Contract.sol\":4960:4987  tokenURIs[tokenId]=tokenURI */\n      swap1\n      dup1\n      mload\n      swap1\n      0x20\n      add\n      swap1\n      tag_132\n      swap3\n      swap2\n      swap1\n      tag_133\n      jump\t// in\n    tag_132:\n      pop\n        /* \"contracts/ERC721Contract.sol\":4997:5012  tokenCollection */\n      0x01\n        /* \"contracts/ERC721Contract.sol\":4997:5016  tokenCollection[to] */\n      0x00\n        /* \"contracts/ERC721Contract.sol\":5013:5015  to */\n      dup6\n        /* \"contracts/ERC721Contract.sol\":4997:5016  tokenCollection[to] */\n      0xffffffffffffffffffffffffffffffffffffffff\n      and\n      0xffffffffffffffffffffffffffffffffffffffff\n      and\n      dup2\n      mstore\n      0x20\n      add\n      swap1\n      dup2\n      mstore\n      0x20\n      add\n      0x00\n      keccak256\n        /* \"contracts/ERC721Contract.sol\":5022:5030  tokenURI */\n      dup4\n        /* \"contracts/ERC721Contract.sol\":4997:5031  tokenCollection[to].push(tokenURI) */\n      swap1\n      dup1\n      0x01\n      dup2\n      sload\n      add\n      dup1\n      dup3\n      sstore\n      dup1\n      swap2\n      pop\n      pop\n      0x01\n      swap1\n      sub\n      swap1\n      0x00\n      mstore\n      keccak256(0x00, 0x20)\n      add\n      0x00\n      swap1\n      swap2\n      swap1\n      swap2\n      swap1\n      swap2\n      pop\n      swap1\n      dup1\n      mload\n      swap1\n      0x20\n      add\n      swap1\n      tag_135\n      swap3\n      swap2\n      swap1\n      tag_133\n      jump\t// in\n    tag_135:\n      pop\n        /* \"contracts/ERC721Contract.sol\":5061:5062  1 */\n      0x01\n        /* \"contracts/ERC721Contract.sol\":5041:5053  tokenBalance */\n      0x04\n        /* \"contracts/ERC721Contract.sol\":5041:5057  tokenBalance[to] */\n      0x00\n        /* \"contracts/ERC721Contract.sol\":5054:5056  to */\n      dup7\n        /* \"contracts/ERC721Contract.sol\":5041:5057  tokenBalance[to] */\n      0xffffffffffffffffffffffffffffffffffffffff\n      and\n      0xffffffffffffffffffffffffffffffffffffffff\n      and\n      dup2\n      mstore\n      0x20\n      add\n      swap1\n      dup2\n      mstore\n      0x20\n      add\n      0x00\n      keccak256\n      0x00\n        /* \"contracts/ERC721Contract.sol\":5041:5062  tokenBalance[to] += 1 */\n      dup3\n      dup3\n      dup3\n      swap1\n      sload\n      swap1\n      0x0100\n      exp\n      swap1\n      div\n      0xffffffffffffffff\n      and\n      tag_136\n      swap2\n      swap1\n      tag_137\n      jump\t// in\n    tag_136:\n      swap3\n      pop\n      0x0100\n      exp\n      dup2\n      sload\n      dup2\n      0xffffffffffffffff\n      mul\n      not\n      and\n      swap1\n      dup4\n      0xffffffffffffffff\n      and\n      mul\n      or\n      swap1\n      sstore\n      pop\n        /* \"contracts/ERC721Contract.sol\":5094:5096  to */\n      dup4\n        /* \"contracts/ERC721Contract.sol\":5072:5082  tokenOwner */\n      0x03\n        /* \"contracts/ERC721Contract.sol\":5072:5091  tokenOwner[tokenId] */\n      0x00\n        /* \"contracts/ERC721Contract.sol\":5083:5090  tokenId */\n      dup5\n        /* \"contracts/ERC721Contract.sol\":5072:5091  tokenOwner[tokenId] */\n      dup2\n      mstore\n      0x20\n      add\n      swap1\n      dup2\n      mstore\n      0x20\n      add\n      0x00\n      keccak256\n      0x00\n        /* \"contracts/ERC721Contract.sol\":5072:5096  tokenOwner[tokenId] = to */\n      0x0100\n      exp\n      dup2\n      sload\n      dup2\n      0xffffffffffffffffffffffffffffffffffffffff\n      mul\n      not\n      and\n      swap1\n      dup4\n      0xffffffffffffffffffffffffffffffffffffffff\n      and\n      mul\n      or\n      swap1\n      sstore\n      pop\n        /* \"contracts/ERC721Contract.sol\":5136:5143  tokenId */\n      dup2\n        /* \"contracts/ERC721Contract.sol\":5132:5134  to */\n      dup5\n        /* \"contracts/ERC721Contract.sol\":5111:5144  Transfer(address(0), to, tokenId) */\n      0xffffffffffffffffffffffffffffffffffffffff\n      and\n        /* \"contracts/ERC721Contract.sol\":5128:5129  0 */\n      0x00\n        /* \"contracts/ERC721Contract.sol\":5111:5144  Transfer(address(0), to, tokenId) */\n      0xffffffffffffffffffffffffffffffffffffffff\n      and\n      0xddf252ad1be2c89b69c2b068fc378daa952ba7f163c4a11628f55a4df523b3ef\n      mload(0x40)\n      mload(0x40)\n      dup1\n      swap2\n      sub\n      swap1\n      log4\n        /* \"contracts/ERC721Contract.sol\":4758:5151  {... */\n      pop\n        /* \"contracts/ERC721Contract.sol\":4671:5151  function mintToken(address to, string memory tokenURI) external returns (uint tokenId) {... */\n      swap3\n      swap2\n      pop\n      pop\n      jump\t// out\n        /* \"contracts/ERC721Contract.sol\":522:685  function safeTransferFrom(address _from, address _to, uint256 _tokenId) public virtual payable override {... */\n    tag_53:\n        /* \"contracts/ERC721Contract.sol\":636:678  safeTransferFrom(_from, _to, _tokenId, \"\") */\n      tag_139\n        /* \"contracts/ERC721Contract.sol\":653:658  _from */\n      dup4\n        /* \"contracts/ERC721Contract.sol\":660:663  _to */\n      dup4\n        /* \"contracts/ERC721Contract.sol\":665:673  _tokenId */\n      dup4\n        /* \"contracts/ERC721Contract.sol\":636:678  safeTransferFrom(_from, _to, _tokenId, \"\") */\n      mload(0x40)\n      dup1\n      0x20\n      add\n      0x40\n      mstore\n      dup1\n      0x00\n      dup2\n      mstore\n      pop\n        /* \"contracts/ERC721Contract.sol\":636:652  safeTransferFrom */\n      tag_104\n        /* \"contracts/ERC721Contract.sol\":636:678  safeTransferFrom(_from, _to, _tokenId, \"\") */\n      jump\t// in\n    tag_139:\n        /* \"contracts/ERC721Contract.sol\":522:685  function safeTransferFrom(address _from, address _to, uint256 _tokenId) public virtual payable override {... */\n      pop\n      pop\n      pop\n      jump\t// out\n        /* \"contracts/ERC721Contract.sol\":1999:2136  function burn(uint256 tokenId) public {... */\n    tag_57:\n        /* \"contracts/ERC721Contract.sol\":2051:2090  _isApprovedOrOwner(msg.sender, tokenId) */\n      tag_141\n        /* \"contracts/ERC721Contract.sol\":2070:2080  msg.sender */\n      caller\n        /* \"contracts/ERC721Contract.sol\":2082:2089  tokenId */\n      dup3\n        /* \"contracts/ERC721Contract.sol\":2051:2069  _isApprovedOrOwner */\n      tag_142\n        /* \"contracts/ERC721Contract.sol\":2051:2090  _isApprovedOrOwner(msg.sender, tokenId) */\n      jump\t// in\n    tag_141:\n        /* \"contracts/ERC721Contract.sol\":2043:2091  require(_isApprovedOrOwner(msg.sender, tokenId)) */\n      tag_143\n      jumpi\n      0x00\n      dup1\n      revert\n    tag_143:\n        /* \"contracts/ERC721Contract.sol\":2097:2129  _burn(ownerOf(tokenId), tokenId) */\n      tag_144\n        /* \"contracts/ERC721Contract.sol\":2103:2119  ownerOf(tokenId) */\n      tag_145\n        /* \"contracts/ERC721Contract.sol\":2111:2118  tokenId */\n      dup3\n        /* \"contracts/ERC721Contract.sol\":2103:2110  ownerOf */\n      tag_68\n        /* \"contracts/ERC721Contract.sol\":2103:2119  ownerOf(tokenId) */\n      jump\t// in\n    tag_145:\n        /* \"contracts/ERC721Contract.sol\":2121:2128  tokenId */\n      dup3\n        /* \"contracts/ERC721Contract.sol\":2097:2102  _burn */\n      tag_146\n        /* \"contracts/ERC721Contract.sol\":2097:2129  _burn(ownerOf(tokenId), tokenId) */\n      jump\t// in\n    tag_144:\n        /* \"contracts/ERC721Contract.sol\":1999:2136  function burn(uint256 tokenId) public {... */\n      pop\n      jump\t// out\n        /* \"contracts/ERC721Contract.sol\":5158:5494  function getURIs(address owner) public view returns(string memory){... */\n    tag_62:\n        /* \"contracts/ERC721Contract.sol\":5210:5223  string memory */\n      0x60\n        /* \"contracts/ERC721Contract.sol\":5234:5251  string memory uri */\n      0x00\n        /* \"contracts/ERC721Contract.sol\":5234:5254  string memory uri=\"\" */\n      mload(0x40)\n      dup1\n      0x20\n      add\n      0x40\n      mstore\n      dup1\n      0x00\n      dup2\n      mstore\n      pop\n      swap1\n      pop\n        /* \"contracts/ERC721Contract.sol\":5269:5275  uint i */\n      0x00\n        /* \"contracts/ERC721Contract.sol\":5278:5279  1 */\n      0x01\n        /* \"contracts/ERC721Contract.sol\":5269:5279  uint i = 1 */\n      swap1\n      pop\n        /* \"contracts/ERC721Contract.sol\":5264:5464  for (uint i = 1; i <= tokenList.length; i++) {... */\n    tag_148:\n        /* \"contracts/ERC721Contract.sol\":5286:5295  tokenList */\n      0x00\n        /* \"contracts/ERC721Contract.sol\":5286:5302  tokenList.length */\n      dup1\n      sload\n      swap1\n      pop\n        /* \"contracts/ERC721Contract.sol\":5281:5282  i */\n      dup2\n        /* \"contracts/ERC721Contract.sol\":5281:5302  i <= tokenList.length */\n      gt\n        /* \"contracts/ERC721Contract.sol\":5264:5464  for (uint i = 1; i <= tokenList.length; i++) {... */\n      tag_149\n      jumpi\n        /* \"contracts/ERC721Contract.sol\":5342:5347  owner */\n      dup4\n        /* \"contracts/ERC721Contract.sol\":5327:5347  tokenOwner[i]==owner */\n      0xffffffffffffffffffffffffffffffffffffffff\n      and\n        /* \"contracts/ERC721Contract.sol\":5327:5337  tokenOwner */\n      0x03\n        /* \"contracts/ERC721Contract.sol\":5327:5340  tokenOwner[i] */\n      0x00\n        /* \"contracts/ERC721Contract.sol\":5338:5339  i */\n      dup4\n        /* \"contracts/ERC721Contract.sol\":5327:5340  tokenOwner[i] */\n      dup2\n      mstore\n      0x20\n      add\n      swap1\n      dup2\n      mstore\n      0x20\n      add\n      0x00\n      keccak256\n      0x00\n      swap1\n      sload\n      swap1\n      0x0100\n      exp\n      swap1\n      div\n      0xffffffffffffffffffffffffffffffffffffffff\n      and\n        /* \"contracts/ERC721Contract.sol\":5327:5347  tokenOwner[i]==owner */\n      0xffffffffffffffffffffffffffffffffffffffff\n      and\n      eq\n        /* \"contracts/ERC721Contract.sol\":5323:5454  if (tokenOwner[i]==owner) {... */\n      iszero\n      tag_151\n      jumpi\n        /* \"contracts/ERC721Contract.sol\":5395:5398  uri */\n      dup2\n        /* \"contracts/ERC721Contract.sol\":5399:5408  tokenURIs */\n      0x02\n        /* \"contracts/ERC721Contract.sol\":5399:5411  tokenURIs[i] */\n      0x00\n        /* \"contracts/ERC721Contract.sol\":5409:5410  i */\n      dup4\n        /* \"contracts/ERC721Contract.sol\":5399:5411  tokenURIs[i] */\n      dup2\n      mstore\n      0x20\n      add\n      swap1\n      dup2\n      mstore\n      0x20\n      add\n      0x00\n      keccak256\n        /* \"contracts/ERC721Contract.sol\":5378:5412  abi.encodePacked(uri,tokenURIs[i]) */\n      add(0x20, mload(0x40))\n      tag_152\n      swap3\n      swap2\n      swap1\n      tag_153\n      jump\t// in\n    tag_152:\n      mload(0x40)\n      0x20\n      dup2\n      dup4\n      sub\n      sub\n      dup2\n      mstore\n      swap1\n      0x40\n      mstore\n        /* \"contracts/ERC721Contract.sol\":5367:5413  uri=string(abi.encodePacked(uri,tokenURIs[i])) */\n      swap2\n      pop\n        /* \"contracts/ERC721Contract.sol\":5431:5439  continue */\n      jump(tag_150)\n        /* \"contracts/ERC721Contract.sol\":5323:5454  if (tokenOwner[i]==owner) {... */\n    tag_151:\n        /* \"contracts/ERC721Contract.sol\":5264:5464  for (uint i = 1; i <= tokenList.length; i++) {... */\n    tag_150:\n        /* \"contracts/ERC721Contract.sol\":5304:5307  i++ */\n      dup1\n      dup1\n      tag_154\n      swap1\n      tag_155\n      jump\t// in\n    tag_154:\n      swap2\n      pop\n      pop\n        /* \"contracts/ERC721Contract.sol\":5264:5464  for (uint i = 1; i <= tokenList.length; i++) {... */\n      jump(tag_148)\n    tag_149:\n      pop\n        /* \"contracts/ERC721Contract.sol\":5484:5487  uri */\n      dup1\n        /* \"contracts/ERC721Contract.sol\":5477:5487  return uri */\n      swap2\n      pop\n      pop\n        /* \"contracts/ERC721Contract.sol\":5158:5494  function getURIs(address owner) public view returns(string memory){... */\n      swap2\n      swap1\n      pop\n      jump\t// out\n        /* \"contracts/ERC721Contract.sol\":279:516  function ownerOf(uint256 _tokenId) public view virtual override returns (address){... */\n    tag_68:\n        /* \"contracts/ERC721Contract.sol\":352:359  address */\n      0x00\n        /* \"contracts/ERC721Contract.sol\":370:383  address owner */\n      dup1\n        /* \"contracts/ERC721Contract.sol\":386:396  tokenOwner */\n      0x03\n        /* \"contracts/ERC721Contract.sol\":386:406  tokenOwner[_tokenId] */\n      0x00\n        /* \"contracts/ERC721Contract.sol\":397:405  _tokenId */\n      dup5\n        /* \"contracts/ERC721Contract.sol\":386:406  tokenOwner[_tokenId] */\n      dup2\n      mstore\n      0x20\n      add\n      swap1\n      dup2\n      mstore\n      0x20\n      add\n      0x00\n      keccak256\n      0x00\n      swap1\n      sload\n      swap1\n      0x0100\n      exp\n      swap1\n      div\n      0xffffffffffffffffffffffffffffffffffffffff\n      and\n        /* \"contracts/ERC721Contract.sol\":370:406  address owner = tokenOwner[_tokenId] */\n      swap1\n      pop\n        /* \"contracts/ERC721Contract.sol\":441:442  0 */\n      0x00\n        /* \"contracts/ERC721Contract.sol\":424:443  owner != address(0) */\n      0xffffffffffffffffffffffffffffffffffffffff\n      and\n        /* \"contracts/ERC721Contract.sol\":424:429  owner */\n      dup2\n        /* \"contracts/ERC721Contract.sol\":424:443  owner != address(0) */\n      0xffffffffffffffffffffffffffffffffffffffff\n      and\n      eq\n      iszero\n        /* \"contracts/ERC721Contract.sol\":416:472  require(owner != address(0), \"ERC721: adress 0 invalid\") */\n      tag_157\n      jumpi\n      mload(0x40)\n      0x08c379a000000000000000000000000000000000000000000000000000000000\n      dup2\n      mstore\n      0x04\n      add\n      tag_158\n      swap1\n      tag_159\n      jump\t// in\n    tag_158:\n      mload(0x40)\n      dup1\n      swap2\n      sub\n      swap1\n      revert\n    tag_157:\n        /* \"contracts/ERC721Contract.sol\":489:499  tokenOwner */\n      0x03\n        /* \"contracts/ERC721Contract.sol\":489:509  tokenOwner[_tokenId] */\n      0x00\n        /* \"contracts/ERC721Contract.sol\":500:508  _tokenId */\n      dup5\n        /* \"contracts/ERC721Contract.sol\":489:509  tokenOwner[_tokenId] */\n      dup2\n      mstore\n      0x20\n      add\n      swap1\n      dup2\n      mstore\n      0x20\n      add\n      0x00\n      keccak256\n      0x00\n      swap1\n      sload\n      swap1\n      0x0100\n      exp\n      swap1\n      div\n      0xffffffffffffffffffffffffffffffffffffffff\n      and\n        /* \"contracts/ERC721Contract.sol\":482:509  return tokenOwner[_tokenId] */\n      swap2\n      pop\n      pop\n        /* \"contracts/ERC721Contract.sol\":279:516  function ownerOf(uint256 _tokenId) public view virtual override returns (address){... */\n      swap2\n      swap1\n      pop\n      jump\t// out\n        /* \"contracts/ERC721Contract.sol\":5624:5715  function getTokenID() public view returns (uint256){... */\n    tag_72:\n        /* \"contracts/ERC721Contract.sol\":5667:5674  uint256 */\n      0x00\n        /* \"contracts/ERC721Contract.sol\":5692:5701  tokenList */\n      dup1\n        /* \"contracts/ERC721Contract.sol\":5692:5708  tokenList.length */\n      dup1\n      sload\n      swap1\n      pop\n        /* \"contracts/ERC721Contract.sol\":5685:5708  return tokenList.length */\n      swap1\n      pop\n        /* \"contracts/ERC721Contract.sol\":5624:5715  function getTokenID() public view returns (uint256){... */\n      swap1\n      jump\t// out\n        /* \"contracts/ERC721Contract.sol\":148:273  function balanceOf(address _owner) public view virtual override returns (uint256){... */\n    tag_77:\n        /* \"contracts/ERC721Contract.sol\":221:228  uint256 */\n      0x00\n        /* \"contracts/ERC721Contract.sol\":246:258  tokenBalance */\n      0x04\n        /* \"contracts/ERC721Contract.sol\":246:266  tokenBalance[_owner] */\n      0x00\n        /* \"contracts/ERC721Contract.sol\":259:265  _owner */\n      dup4\n        /* \"contracts/ERC721Contract.sol\":246:266  tokenBalance[_owner] */\n      0xffffffffffffffffffffffffffffffffffffffff\n      and\n      0xffffffffffffffffffffffffffffffffffffffff\n      and\n      dup2\n      mstore\n      0x20\n      add\n      swap1\n      dup2\n      mstore\n      0x20\n      add\n      0x00\n      keccak256\n      0x00\n      swap1\n      sload\n      swap1\n      0x0100\n      exp\n      swap1\n      div\n      0xffffffffffffffff\n      and\n        /* \"contracts/ERC721Contract.sol\":239:266  return tokenBalance[_owner] */\n      0xffffffffffffffff\n      and\n      swap1\n      pop\n        /* \"contracts/ERC721Contract.sol\":148:273  function balanceOf(address _owner) public view virtual override returns (uint256){... */\n      swap2\n      swap1\n      pop\n      jump\t// out\n        /* \"contracts/ERC721Contract.sol\":1723:1993  function remove(uint index, string[] memory array )  public pure  {... */\n    tag_83:\n        /* \"contracts/ERC721Contract.sol\":1813:1818  array */\n      dup1\n        /* \"contracts/ERC721Contract.sol\":1813:1825  array.length */\n      mload\n        /* \"contracts/ERC721Contract.sol\":1807:1812  index */\n      dup3\n        /* \"contracts/ERC721Contract.sol\":1807:1825  index<array.length */\n      lt\n        /* \"contracts/ERC721Contract.sol\":1799:1849  require(index<array.length, \"Index out of bounds\") */\n      tag_163\n      jumpi\n      mload(0x40)\n      0x08c379a000000000000000000000000000000000000000000000000000000000\n      dup2\n      mstore\n      0x04\n      add\n      tag_164\n      swap1\n      tag_165\n      jump\t// in\n    tag_164:\n      mload(0x40)\n      dup1\n      swap2\n      sub\n      swap1\n      revert\n    tag_163:\n        /* \"contracts/ERC721Contract.sol\":1865:1871  uint i */\n      0x00\n        /* \"contracts/ERC721Contract.sol\":1874:1879  index */\n      dup3\n        /* \"contracts/ERC721Contract.sol\":1865:1879  uint i = index */\n      swap1\n      pop\n        /* \"contracts/ERC721Contract.sol\":1860:1949  for (uint i = index; i<array.length-1; i++){... */\n    tag_166:\n        /* \"contracts/ERC721Contract.sol\":1896:1897  1 */\n      0x01\n        /* \"contracts/ERC721Contract.sol\":1883:1888  array */\n      dup3\n        /* \"contracts/ERC721Contract.sol\":1883:1895  array.length */\n      mload\n        /* \"contracts/ERC721Contract.sol\":1883:1897  array.length-1 */\n      tag_169\n      swap2\n      swap1\n      tag_170\n      jump\t// in\n    tag_169:\n        /* \"contracts/ERC721Contract.sol\":1881:1882  i */\n      dup2\n        /* \"contracts/ERC721Contract.sol\":1881:1897  i<array.length-1 */\n      lt\n        /* \"contracts/ERC721Contract.sol\":1860:1949  for (uint i = index; i<array.length-1; i++){... */\n      iszero\n      tag_167\n      jumpi\n        /* \"contracts/ERC721Contract.sol\":1928:1933  array */\n      dup2\n        /* \"contracts/ERC721Contract.sol\":1936:1937  1 */\n      0x01\n        /* \"contracts/ERC721Contract.sol\":1934:1935  i */\n      dup3\n        /* \"contracts/ERC721Contract.sol\":1934:1937  i+1 */\n      tag_171\n      swap2\n      swap1\n      tag_172\n      jump\t// in\n    tag_171:\n        /* \"contracts/ERC721Contract.sol\":1928:1938  array[i+1] */\n      dup2\n      mload\n      dup2\n      lt\n      tag_173\n      jumpi\n      tag_174\n      tag_175\n      jump\t// in\n    tag_174:\n    tag_173:\n      0x20\n      mul\n      0x20\n      add\n      add\n      mload\n        /* \"contracts/ERC721Contract.sol\":1917:1922  array */\n      dup3\n        /* \"contracts/ERC721Contract.sol\":1923:1924  i */\n      dup3\n        /* \"contracts/ERC721Contract.sol\":1917:1925  array[i] */\n      dup2\n      mload\n      dup2\n      lt\n      tag_176\n      jumpi\n      tag_177\n      tag_175\n      jump\t// in\n    tag_177:\n    tag_176:\n      0x20\n      mul\n      0x20\n      add\n      add\n        /* \"contracts/ERC721Contract.sol\":1917:1938  array[i] = array[i+1] */\n      dup2\n      swap1\n      mstore\n      pop\n        /* \"contracts/ERC721Contract.sol\":1899:1902  i++ */\n      dup1\n      dup1\n      tag_178\n      swap1\n      tag_155\n      jump\t// in\n    tag_178:\n      swap2\n      pop\n      pop\n        /* \"contracts/ERC721Contract.sol\":1860:1949  for (uint i = index; i<array.length-1; i++){... */\n      jump(tag_166)\n    tag_167:\n      pop\n        /* \"contracts/ERC721Contract.sol\":1965:1970  array */\n      dup1\n        /* \"contracts/ERC721Contract.sol\":1984:1985  1 */\n      0x01\n        /* \"contracts/ERC721Contract.sol\":1971:1976  array */\n      dup3\n        /* \"contracts/ERC721Contract.sol\":1971:1983  array.length */\n      mload\n        /* \"contracts/ERC721Contract.sol\":1971:1985  array.length-1 */\n      tag_179\n      swap2\n      swap1\n      tag_170\n      jump\t// in\n    tag_179:\n        /* \"contracts/ERC721Contract.sol\":1965:1986  array[array.length-1] */\n      dup2\n      mload\n      dup2\n      lt\n      tag_180\n      jumpi\n      tag_181\n      tag_175\n      jump\t// in\n    tag_181:\n    tag_180:\n      0x20\n      mul\n      0x20\n      add\n      add\n        /* \"contracts/ERC721Contract.sol\":1958:1986  delete array[array.length-1] */\n      0x60\n      dup2\n      mstore\n      pop\n        /* \"contracts/ERC721Contract.sol\":1723:1993  function remove(uint index, string[] memory array )  public pure  {... */\n      pop\n      pop\n      jump\t// out\n        /* \"contracts/ERC721Contract.sol\":5500:5618  function getURIList(address owner) public view returns(string[] memory){... */\n    tag_87:\n        /* \"contracts/ERC721Contract.sol\":5555:5570  string[] memory */\n      0x60\n        /* \"contracts/ERC721Contract.sol\":5588:5603  tokenCollection */\n      0x01\n        /* \"contracts/ERC721Contract.sol\":5588:5610  tokenCollection[owner] */\n      0x00\n        /* \"contracts/ERC721Contract.sol\":5604:5609  owner */\n      dup4\n        /* \"contracts/ERC721Contract.sol\":5588:5610  tokenCollection[owner] */\n      0xffffffffffffffffffffffffffffffffffffffff\n      and\n      0xffffffffffffffffffffffffffffffffffffffff\n      and\n      dup2\n      mstore\n      0x20\n      add\n      swap1\n      dup2\n      mstore\n      0x20\n      add\n      0x00\n      keccak256\n        /* \"contracts/ERC721Contract.sol\":5581:5610  return tokenCollection[owner] */\n      dup1\n      sload\n      dup1\n      0x20\n      mul\n      0x20\n      add\n      mload(0x40)\n      swap1\n      dup2\n      add\n      0x40\n      mstore\n      dup1\n      swap3\n      swap2\n      swap1\n      dup2\n      dup2\n      mstore\n      0x20\n      add\n      0x00\n      swap1\n    tag_183:\n      dup3\n      dup3\n      lt\n      iszero\n      tag_184\n      jumpi\n      dup4\n      dup3\n      swap1\n      0x00\n      mstore\n      keccak256(0x00, 0x20)\n      add\n      dup1\n      sload\n      tag_186\n      swap1\n      tag_187\n      jump\t// in\n    tag_186:\n      dup1\n      0x1f\n      add\n      0x20\n      dup1\n      swap2\n      div\n      mul\n      0x20\n      add\n      mload(0x40)\n      swap1\n      dup2\n      add\n      0x40\n      mstore\n      dup1\n      swap3\n      swap2\n      swap1\n      dup2\n      dup2\n      mstore\n      0x20\n      add\n      dup3\n      dup1\n      sload\n      tag_188\n      swap1\n      tag_187\n      jump\t// in\n    tag_188:\n      dup1\n      iszero\n      tag_189\n      jumpi\n      dup1\n      0x1f\n      lt\n      tag_190\n      jumpi\n      0x0100\n      dup1\n      dup4\n      sload\n      div\n      mul\n      dup4\n      mstore\n      swap2\n      0x20\n      add\n      swap2\n      jump(tag_189)\n    tag_190:\n      dup3\n      add\n      swap2\n      swap1\n      0x00\n      mstore\n      keccak256(0x00, 0x20)\n      swap1\n    tag_191:\n      dup2\n      sload\n      dup2\n      mstore\n      swap1\n      0x01\n      add\n      swap1\n      0x20\n      add\n      dup1\n      dup4\n      gt\n      tag_191\n      jumpi\n      dup3\n      swap1\n      sub\n      0x1f\n      and\n      dup3\n      add\n      swap2\n    tag_189:\n      pop\n      pop\n      pop\n      pop\n      pop\n      dup2\n      mstore\n      0x20\n      add\n      swap1\n      0x01\n      add\n      swap1\n      jump(tag_183)\n    tag_184:\n      pop\n      pop\n      pop\n      pop\n      swap1\n      pop\n        /* \"contracts/ERC721Contract.sol\":5500:5618  function getURIList(address owner) public view returns(string[] memory){... */\n      swap2\n      swap1\n      pop\n      jump\t// out\n        /* \"contracts/ERC721Contract.sol\":5969:6795  function tokensOfOwner(address _owner) external view returns(uint256[] memory ownerTokens) {... */\n    tag_93:\n        /* \"contracts/ERC721Contract.sol\":6030:6058  uint256[] memory ownerTokens */\n      0x60\n        /* \"contracts/ERC721Contract.sol\":6070:6088  uint256 tokenCount */\n      0x00\n        /* \"contracts/ERC721Contract.sol\":6091:6108  balanceOf(_owner) */\n      tag_193\n        /* \"contracts/ERC721Contract.sol\":6101:6107  _owner */\n      dup4\n        /* \"contracts/ERC721Contract.sol\":6091:6100  balanceOf */\n      tag_77\n        /* \"contracts/ERC721Contract.sol\":6091:6108  balanceOf(_owner) */\n      jump\t// in\n    tag_193:\n        /* \"contracts/ERC721Contract.sol\":6070:6108  uint256 tokenCount = balanceOf(_owner) */\n      swap1\n      pop\n        /* \"contracts/ERC721Contract.sol\":6137:6138  0 */\n      0x00\n        /* \"contracts/ERC721Contract.sol\":6123:6133  tokenCount */\n      dup2\n        /* \"contracts/ERC721Contract.sol\":6123:6138  tokenCount == 0 */\n      eq\n        /* \"contracts/ERC721Contract.sol\":6119:6789  if (tokenCount == 0) {... */\n      iszero\n      tag_194\n      jumpi\n        /* \"contracts/ERC721Contract.sol\":6212:6213  0 */\n      0x00\n        /* \"contracts/ERC721Contract.sol\":6198:6214  new uint256[](0) */\n      0xffffffffffffffff\n      dup2\n      gt\n      iszero\n      tag_195\n      jumpi\n      tag_196\n      tag_197\n      jump\t// in\n    tag_196:\n    tag_195:\n      mload(0x40)\n      swap1\n      dup1\n      dup3\n      mstore\n      dup1\n      0x20\n      mul\n      0x20\n      add\n      dup3\n      add\n      0x40\n      mstore\n      dup1\n      iszero\n      tag_198\n      jumpi\n      dup2\n      0x20\n      add\n      0x20\n      dup3\n      mul\n      dup1\n      calldatasize\n      dup4\n      calldatacopy\n      dup1\n      dup3\n      add\n      swap2\n      pop\n      pop\n      swap1\n      pop\n    tag_198:\n      pop\n        /* \"contracts/ERC721Contract.sol\":6191:6214  return new uint256[](0) */\n      swap2\n      pop\n      pop\n      jump(tag_192)\n        /* \"contracts/ERC721Contract.sol\":6119:6789  if (tokenCount == 0) {... */\n    tag_194:\n        /* \"contracts/ERC721Contract.sol\":6245:6268  uint256[] memory result */\n      0x00\n        /* \"contracts/ERC721Contract.sol\":6285:6295  tokenCount */\n      dup2\n        /* \"contracts/ERC721Contract.sol\":6271:6296  new uint256[](tokenCount) */\n      0xffffffffffffffff\n      dup2\n      gt\n      iszero\n      tag_200\n      jumpi\n      tag_201\n      tag_197\n      jump\t// in\n    tag_201:\n    tag_200:\n      mload(0x40)\n      swap1\n      dup1\n      dup3\n      mstore\n      dup1\n      0x20\n      mul\n      0x20\n      add\n      dup3\n      add\n      0x40\n      mstore\n      dup1\n      iszero\n      tag_202\n      jumpi\n      dup2\n      0x20\n      add\n      0x20\n      dup3\n      mul\n      dup1\n      calldatasize\n      dup4\n      calldatacopy\n      dup1\n      dup3\n      add\n      swap2\n      pop\n      pop\n      swap1\n      pop\n    tag_202:\n      pop\n        /* \"contracts/ERC721Contract.sol\":6245:6296  uint256[] memory result = new uint256[](tokenCount) */\n      swap1\n      pop\n        /* \"contracts/ERC721Contract.sol\":6310:6323  uint256 maxId */\n      0x00\n        /* \"contracts/ERC721Contract.sol\":6326:6338  getTokenID() */\n      tag_203\n        /* \"contracts/ERC721Contract.sol\":6326:6336  getTokenID */\n      tag_72\n        /* \"contracts/ERC721Contract.sol\":6326:6338  getTokenID() */\n      jump\t// in\n    tag_203:\n        /* \"contracts/ERC721Contract.sol\":6310:6338  uint256 maxId = getTokenID() */\n      swap1\n      pop\n        /* \"contracts/ERC721Contract.sol\":6352:6371  uint256 resultIndex */\n      0x00\n        /* \"contracts/ERC721Contract.sol\":6532:6542  uint256 id */\n      dup1\n        /* \"contracts/ERC721Contract.sol\":6567:6568  1 */\n      0x01\n        /* \"contracts/ERC721Contract.sol\":6562:6568  id = 1 */\n      swap1\n      pop\n        /* \"contracts/ERC721Contract.sol\":6557:6751  for (id = 1; id <= maxId; id++) {... */\n    tag_204:\n        /* \"contracts/ERC721Contract.sol\":6576:6581  maxId */\n      dup3\n        /* \"contracts/ERC721Contract.sol\":6570:6572  id */\n      dup2\n        /* \"contracts/ERC721Contract.sol\":6570:6581  id <= maxId */\n      gt\n        /* \"contracts/ERC721Contract.sol\":6557:6751  for (id = 1; id <= maxId; id++) {... */\n      tag_205\n      jumpi\n        /* \"contracts/ERC721Contract.sol\":6629:6635  _owner */\n      dup7\n        /* \"contracts/ERC721Contract.sol\":6611:6635  tokenOwner[id] == _owner */\n      0xffffffffffffffffffffffffffffffffffffffff\n      and\n        /* \"contracts/ERC721Contract.sol\":6611:6621  tokenOwner */\n      0x03\n        /* \"contracts/ERC721Contract.sol\":6611:6625  tokenOwner[id] */\n      0x00\n        /* \"contracts/ERC721Contract.sol\":6622:6624  id */\n      dup4\n        /* \"contracts/ERC721Contract.sol\":6611:6625  tokenOwner[id] */\n      dup2\n      mstore\n      0x20\n      add\n      swap1\n      dup2\n      mstore\n      0x20\n      add\n      0x00\n      keccak256\n      0x00\n      swap1\n      sload\n      swap1\n      0x0100\n      exp\n      swap1\n      div\n      0xffffffffffffffffffffffffffffffffffffffff\n      and\n        /* \"contracts/ERC721Contract.sol\":6611:6635  tokenOwner[id] == _owner */\n      0xffffffffffffffffffffffffffffffffffffffff\n      and\n      eq\n        /* \"contracts/ERC721Contract.sol\":6607:6737  if (tokenOwner[id] == _owner) {... */\n      iszero\n      tag_207\n      jumpi\n        /* \"contracts/ERC721Contract.sol\":6681:6683  id */\n      dup1\n        /* \"contracts/ERC721Contract.sol\":6659:6665  result */\n      dup5\n        /* \"contracts/ERC721Contract.sol\":6666:6677  resultIndex */\n      dup4\n        /* \"contracts/ERC721Contract.sol\":6659:6678  result[resultIndex] */\n      dup2\n      mload\n      dup2\n      lt\n      tag_208\n      jumpi\n      tag_209\n      tag_175\n      jump\t// in\n    tag_209:\n    tag_208:\n      0x20\n      mul\n      0x20\n      add\n      add\n        /* \"contracts/ERC721Contract.sol\":6659:6683  result[resultIndex] = id */\n      dup2\n      dup2\n      mstore\n      pop\n      pop\n        /* \"contracts/ERC721Contract.sol\":6705:6718  resultIndex++ */\n      dup2\n      dup1\n      tag_210\n      swap1\n      tag_155\n      jump\t// in\n    tag_210:\n      swap3\n      pop\n      pop\n        /* \"contracts/ERC721Contract.sol\":6607:6737  if (tokenOwner[id] == _owner) {... */\n    tag_207:\n        /* \"contracts/ERC721Contract.sol\":6583:6587  id++ */\n      dup1\n      dup1\n      tag_211\n      swap1\n      tag_155\n      jump\t// in\n    tag_211:\n      swap2\n      pop\n      pop\n        /* \"contracts/ERC721Contract.sol\":6557:6751  for (id = 1; id <= maxId; id++) {... */\n      jump(tag_204)\n    tag_205:\n        /* \"contracts/ERC721Contract.sol\":6772:6778  result */\n      dup4\n        /* \"contracts/ERC721Contract.sol\":6765:6778  return result */\n      swap6\n      pop\n      pop\n      pop\n      pop\n      pop\n      pop\n        /* \"contracts/ERC721Contract.sol\":5969:6795  function tokensOfOwner(address _owner) external view returns(uint256[] memory ownerTokens) {... */\n    tag_192:\n      swap2\n      swap1\n      pop\n      jump\t// out\n        /* \"contracts/ERC721Contract.sol\":3629:3918  function setApprovalForAll(address _operator, bool _approved) public virtual override {... */\n    tag_100:\n        /* \"contracts/ERC721Contract.sol\":3746:3756  msg.sender */\n      caller\n        /* \"contracts/ERC721Contract.sol\":3733:3756  _operator != msg.sender */\n      0xffffffffffffffffffffffffffffffffffffffff\n      and\n        /* \"contracts/ERC721Contract.sol\":3733:3742  _operator */\n      dup3\n        /* \"contracts/ERC721Contract.sol\":3733:3756  _operator != msg.sender */\n      0xffffffffffffffffffffffffffffffffffffffff\n      and\n      eq\n      iszero\n        /* \"contracts/ERC721Contract.sol\":3725:3786  require(_operator != msg.sender, \"ERC721: approve to caller\") */\n      tag_213\n      jumpi\n      mload(0x40)\n      0x08c379a000000000000000000000000000000000000000000000000000000000\n      dup2\n      mstore\n      0x04\n      add\n      tag_214\n      swap1\n      tag_215\n      jump\t// in\n    tag_214:\n      mload(0x40)\n      dup1\n      swap2\n      sub\n      swap1\n      revert\n    tag_213:\n        /* \"contracts/ERC721Contract.sol\":3839:3848  _approved */\n      dup1\n        /* \"contracts/ERC721Contract.sol\":3796:3813  operatorApprovals */\n      0x06\n        /* \"contracts/ERC721Contract.sol\":3796:3825  operatorApprovals[msg.sender] */\n      0x00\n        /* \"contracts/ERC721Contract.sol\":3814:3824  msg.sender */\n      caller\n        /* \"contracts/ERC721Contract.sol\":3796:3825  operatorApprovals[msg.sender] */\n      0xffffffffffffffffffffffffffffffffffffffff\n      and\n      0xffffffffffffffffffffffffffffffffffffffff\n      and\n      dup2\n      mstore\n      0x20\n      add\n      swap1\n      dup2\n      mstore\n      0x20\n      add\n      0x00\n      keccak256\n        /* \"contracts/ERC721Contract.sol\":3796:3836  operatorApprovals[msg.sender][_operator] */\n      0x00\n        /* \"contracts/ERC721Contract.sol\":3826:3835  _operator */\n      dup5\n        /* \"contracts/ERC721Contract.sol\":3796:3836  operatorApprovals[msg.sender][_operator] */\n      0xffffffffffffffffffffffffffffffffffffffff\n      and\n      0xffffffffffffffffffffffffffffffffffffffff\n      and\n      dup2\n      mstore\n      0x20\n      add\n      swap1\n      dup2\n      mstore\n      0x20\n      add\n      0x00\n      keccak256\n      0x00\n        /* \"contracts/ERC721Contract.sol\":3796:3848  operatorApprovals[msg.sender][_operator] = _approved */\n      0x0100\n      exp\n      dup2\n      sload\n      dup2\n      0xff\n      mul\n      not\n      and\n      swap1\n      dup4\n      iszero\n      iszero\n      mul\n      or\n      swap1\n      sstore\n      pop\n        /* \"contracts/ERC721Contract.sol\":3890:3899  _operator */\n      dup2\n        /* \"contracts/ERC721Contract.sol\":3863:3911  ApprovalForAll(msg.sender, _operator, _approved) */\n      0xffffffffffffffffffffffffffffffffffffffff\n      and\n        /* \"contracts/ERC721Contract.sol\":3878:3888  msg.sender */\n      caller\n        /* \"contracts/ERC721Contract.sol\":3863:3911  ApprovalForAll(msg.sender, _operator, _approved) */\n      0xffffffffffffffffffffffffffffffffffffffff\n      and\n      0x17307eab39ab6107e8899845ad3d59bd9653f200f220920489ca2b5937696c31\n        /* \"contracts/ERC721Contract.sol\":3901:3910  _approved */\n      dup4\n        /* \"contracts/ERC721Contract.sol\":3863:3911  ApprovalForAll(msg.sender, _operator, _approved) */\n      mload(0x40)\n      tag_216\n      swap2\n      swap1\n      tag_28\n      jump\t// in\n    tag_216:\n      mload(0x40)\n      dup1\n      swap2\n      sub\n      swap1\n      log3\n        /* \"contracts/ERC721Contract.sol\":3629:3918  function setApprovalForAll(address _operator, bool _approved) public virtual override {... */\n      pop\n      pop\n      jump\t// out\n        /* \"contracts/ERC721Contract.sol\":691:979  function safeTransferFrom(address from, address to, uint256 tokenId, bytes memory _data) public virtual payable override {... */\n    tag_104:\n        /* \"contracts/ERC721Contract.sol\":830:869  _isApprovedOrOwner(msg.sender, tokenId) */\n      tag_218\n        /* \"contracts/ERC721Contract.sol\":849:859  msg.sender */\n      caller\n        /* \"contracts/ERC721Contract.sol\":861:868  tokenId */\n      dup4\n        /* \"contracts/ERC721Contract.sol\":830:848  _isApprovedOrOwner */\n      tag_142\n        /* \"contracts/ERC721Contract.sol\":830:869  _isApprovedOrOwner(msg.sender, tokenId) */\n      jump\t// in\n    tag_218:\n        /* \"contracts/ERC721Contract.sol\":822:923  require(_isApprovedOrOwner(msg.sender, tokenId), \"ERC721: transfer caller is not owner nor approved\") */\n      tag_219\n      jumpi\n      mload(0x40)\n      0x08c379a000000000000000000000000000000000000000000000000000000000\n      dup2\n      mstore\n      0x04\n      add\n      tag_220\n      swap1\n      tag_221\n      jump\t// in\n    tag_220:\n      mload(0x40)\n      dup1\n      swap2\n      sub\n      swap1\n      revert\n    tag_219:\n        /* \"contracts/ERC721Contract.sol\":933:972  _safeTransfer(from, to, tokenId, _data) */\n      tag_222\n        /* \"contracts/ERC721Contract.sol\":947:951  from */\n      dup5\n        /* \"contracts/ERC721Contract.sol\":953:955  to */\n      dup5\n        /* \"contracts/ERC721Contract.sol\":957:964  tokenId */\n      dup5\n        /* \"contracts/ERC721Contract.sol\":966:971  _data */\n      dup5\n        /* \"contracts/ERC721Contract.sol\":933:946  _safeTransfer */\n      tag_223\n        /* \"contracts/ERC721Contract.sol\":933:972  _safeTransfer(from, to, tokenId, _data) */\n      jump\t// in\n    tag_222:\n        /* \"contracts/ERC721Contract.sol\":691:979  function safeTransferFrom(address from, address to, uint256 tokenId, bytes memory _data) public virtual payable override {... */\n      pop\n      pop\n      pop\n      pop\n      jump\t// out\n        /* \"contracts/ERC721Contract.sol\":3924:4088  function isApprovedForAll(address _owner, address _operator) public view virtual override returns (bool){... */\n    tag_109:\n        /* \"contracts/ERC721Contract.sol\":4023:4027  bool */\n      0x00\n        /* \"contracts/ERC721Contract.sol\":4045:4062  operatorApprovals */\n      0x06\n        /* \"contracts/ERC721Contract.sol\":4045:4070  operatorApprovals[_owner] */\n      0x00\n        /* \"contracts/ERC721Contract.sol\":4063:4069  _owner */\n      dup5\n        /* \"contracts/ERC721Contract.sol\":4045:4070  operatorApprovals[_owner] */\n      0xffffffffffffffffffffffffffffffffffffffff\n      and\n      0xffffffffffffffffffffffffffffffffffffffff\n      and\n      dup2\n      mstore\n      0x20\n      add\n      swap1\n      dup2\n      mstore\n      0x20\n      add\n      0x00\n      keccak256\n        /* \"contracts/ERC721Contract.sol\":4045:4081  operatorApprovals[_owner][_operator] */\n      0x00\n        /* \"contracts/ERC721Contract.sol\":4071:4080  _operator */\n      dup4\n        /* \"contracts/ERC721Contract.sol\":4045:4081  operatorApprovals[_owner][_operator] */\n      0xffffffffffffffffffffffffffffffffffffffff\n      and\n      0xffffffffffffffffffffffffffffffffffffffff\n      and\n      dup2\n      mstore\n      0x20\n      add\n      swap1\n      dup2\n      mstore\n      0x20\n      add\n      0x00\n      keccak256\n      0x00\n      swap1\n      sload\n      swap1\n      0x0100\n      exp\n      swap1\n      div\n      0xff\n      and\n        /* \"contracts/ERC721Contract.sol\":4038:4081  return operatorApprovals[_owner][_operator] */\n      swap1\n      pop\n        /* \"contracts/ERC721Contract.sol\":3924:4088  function isApprovedForAll(address _owner, address _operator) public view virtual override returns (bool){... */\n      swap3\n      swap2\n      pop\n      pop\n      jump\t// out\n        /* \"contracts/ERC721Contract.sol\":4332:4494  function _approve(address to, uint256 tokenId) internal virtual {... */\n    tag_126:\n        /* \"contracts/ERC721Contract.sol\":4432:4434  to */\n      dup2\n        /* \"contracts/ERC721Contract.sol\":4406:4420  tokenApprovals */\n      0x05\n        /* \"contracts/ERC721Contract.sol\":4406:4429  tokenApprovals[tokenId] */\n      0x00\n        /* \"contracts/ERC721Contract.sol\":4421:4428  tokenId */\n      dup4\n        /* \"contracts/ERC721Contract.sol\":4406:4429  tokenApprovals[tokenId] */\n      dup2\n      mstore\n      0x20\n      add\n      swap1\n      dup2\n      mstore\n      0x20\n      add\n      0x00\n      keccak256\n      0x00\n        /* \"contracts/ERC721Contract.sol\":4406:4434  tokenApprovals[tokenId] = to */\n      0x0100\n      exp\n      dup2\n      sload\n      dup2\n      0xffffffffffffffffffffffffffffffffffffffff\n      mul\n      not\n      and\n      swap1\n      dup4\n      0xffffffffffffffffffffffffffffffffffffffff\n      and\n      mul\n      or\n      swap1\n      sstore\n      pop\n        /* \"contracts/ERC721Contract.sol\":4485:4486  0 */\n      0x00\n        /* \"contracts/ERC721Contract.sol\":4481:4483  to */\n      dup3\n        /* \"contracts/ERC721Contract.sol\":4449:4487  Approval(this.ownerOf(tokenId), to, 0) */\n      0xffffffffffffffffffffffffffffffffffffffff\n      and\n        /* \"contracts/ERC721Contract.sol\":4458:4462  this */\n      address\n        /* \"contracts/ERC721Contract.sol\":4458:4470  this.ownerOf */\n      0xffffffffffffffffffffffffffffffffffffffff\n      and\n      0x6352211e\n        /* \"contracts/ERC721Contract.sol\":4471:4478  tokenId */\n      dup5\n        /* \"contracts/ERC721Contract.sol\":4458:4479  this.ownerOf(tokenId) */\n      mload(0x40)\n      dup3\n      0xffffffff\n      and\n      0xe0\n      shl\n      dup2\n      mstore\n      0x04\n      add\n      tag_226\n      swap2\n      swap1\n      tag_50\n      jump\t// in\n    tag_226:\n      0x20\n      mload(0x40)\n      dup1\n      dup4\n      sub\n      dup2\n      dup7\n      dup1\n      extcodesize\n      iszero\n      dup1\n      iszero\n      tag_227\n      jumpi\n      0x00\n      dup1\n      revert\n    tag_227:\n      pop\n      gas\n      staticcall\n      iszero\n      dup1\n      iszero\n      tag_229\n      jumpi\n      returndatasize\n      0x00\n      dup1\n      returndatacopy\n      revert(0x00, returndatasize)\n    tag_229:\n      pop\n      pop\n      pop\n      pop\n      mload(0x40)\n      returndatasize\n      not(0x1f)\n      0x1f\n      dup3\n      add\n      and\n      dup3\n      add\n      dup1\n      0x40\n      mstore\n      pop\n      dup2\n      add\n      swap1\n      tag_230\n      swap2\n      swap1\n      tag_231\n      jump\t// in\n    tag_230:\n        /* \"contracts/ERC721Contract.sol\":4449:4487  Approval(this.ownerOf(tokenId), to, 0) */\n      0xffffffffffffffffffffffffffffffffffffffff\n      and\n      0x8c5be1e5ebec7d5bd14f71427d1e84f3dd0314c0f7b2291e5b200ac8c7c3b925\n      mload(0x40)\n      mload(0x40)\n      dup1\n      swap2\n      sub\n      swap1\n      log4\n        /* \"contracts/ERC721Contract.sol\":4332:4494  function _approve(address to, uint256 tokenId) internal virtual {... */\n      pop\n      pop\n      jump\t// out\n        /* \"contracts/ERC721Contract.sol\":4094:4326  function _isApprovedOrOwner(address spender, uint256 tokenId) internal view virtual returns (bool) {... */\n    tag_142:\n        /* \"contracts/ERC721Contract.sol\":4187:4191  bool */\n      0x00\n        /* \"contracts/ERC721Contract.sol\":4229:4236  spender */\n      dup3\n        /* \"contracts/ERC721Contract.sol\":4211:4236  ownerOf(tokenId)==spender */\n      0xffffffffffffffffffffffffffffffffffffffff\n      and\n        /* \"contracts/ERC721Contract.sol\":4211:4227  ownerOf(tokenId) */\n      tag_233\n        /* \"contracts/ERC721Contract.sol\":4219:4226  tokenId */\n      dup4\n        /* \"contracts/ERC721Contract.sol\":4211:4218  ownerOf */\n      tag_68\n        /* \"contracts/ERC721Contract.sol\":4211:4227  ownerOf(tokenId) */\n      jump\t// in\n    tag_233:\n        /* \"contracts/ERC721Contract.sol\":4211:4236  ownerOf(tokenId)==spender */\n      0xffffffffffffffffffffffffffffffffffffffff\n      and\n      eq\n        /* \"contracts/ERC721Contract.sol\":4210:4270  (ownerOf(tokenId)==spender) || getApproved(tokenId)==spender */\n      dup1\n      tag_234\n      jumpi\n      pop\n        /* \"contracts/ERC721Contract.sol\":4263:4270  spender */\n      dup3\n        /* \"contracts/ERC721Contract.sol\":4241:4270  getApproved(tokenId)==spender */\n      0xffffffffffffffffffffffffffffffffffffffff\n      and\n        /* \"contracts/ERC721Contract.sol\":4241:4261  getApproved(tokenId) */\n      tag_235\n        /* \"contracts/ERC721Contract.sol\":4253:4260  tokenId */\n      dup4\n        /* \"contracts/ERC721Contract.sol\":4241:4252  getApproved */\n      tag_33\n        /* \"contracts/ERC721Contract.sol\":4241:4261  getApproved(tokenId) */\n      jump\t// in\n    tag_235:\n        /* \"contracts/ERC721Contract.sol\":4241:4270  getApproved(tokenId)==spender */\n      0xffffffffffffffffffffffffffffffffffffffff\n      and\n      eq\n        /* \"contracts/ERC721Contract.sol\":4210:4270  (ownerOf(tokenId)==spender) || getApproved(tokenId)==spender */\n    tag_234:\n        /* \"contracts/ERC721Contract.sol\":4210:4317  (ownerOf(tokenId)==spender) || getApproved(tokenId)==spender || isApprovedForAll(ownerOf(tokenId), spender) */\n      dup1\n      tag_236\n      jumpi\n      pop\n        /* \"contracts/ERC721Contract.sol\":4274:4317  isApprovedForAll(ownerOf(tokenId), spender) */\n      tag_237\n        /* \"contracts/ERC721Contract.sol\":4291:4307  ownerOf(tokenId) */\n      tag_238\n        /* \"contracts/ERC721Contract.sol\":4299:4306  tokenId */\n      dup4\n        /* \"contracts/ERC721Contract.sol\":4291:4298  ownerOf */\n      tag_68\n        /* \"contracts/ERC721Contract.sol\":4291:4307  ownerOf(tokenId) */\n      jump\t// in\n    tag_238:\n        /* \"contracts/ERC721Contract.sol\":4309:4316  spender */\n      dup5\n        /* \"contracts/ERC721Contract.sol\":4274:4290  isApprovedForAll */\n      tag_109\n        /* \"contracts/ERC721Contract.sol\":4274:4317  isApprovedForAll(ownerOf(tokenId), spender) */\n      jump\t// in\n    tag_237:\n        /* \"contracts/ERC721Contract.sol\":4210:4317  (ownerOf(tokenId)==spender) || getApproved(tokenId)==spender || isApprovedForAll(ownerOf(tokenId), spender) */\n    tag_236:\n        /* \"contracts/ERC721Contract.sol\":4203:4319  return((ownerOf(tokenId)==spender) || getApproved(tokenId)==spender || isApprovedForAll(ownerOf(tokenId), spender) ) */\n      swap1\n      pop\n        /* \"contracts/ERC721Contract.sol\":4094:4326  function _isApprovedOrOwner(address spender, uint256 tokenId) internal view virtual returns (bool) {... */\n      swap3\n      swap2\n      pop\n      pop\n      jump\t// out\n        /* \"contracts/ERC721Contract.sol\":2142:2250  function _burn(address owner, uint256 tokenId) internal {... */\n    tag_146:\n        /* \"contracts/ERC721Contract.sol\":2208:2243  _transfer(owner,address(0),tokenId) */\n      tag_240\n        /* \"contracts/ERC721Contract.sol\":2218:2223  owner */\n      dup3\n        /* \"contracts/ERC721Contract.sol\":2232:2233  0 */\n      0x00\n        /* \"contracts/ERC721Contract.sol\":2235:2242  tokenId */\n      dup4\n        /* \"contracts/ERC721Contract.sol\":2208:2217  _transfer */\n      tag_241\n        /* \"contracts/ERC721Contract.sol\":2208:2243  _transfer(owner,address(0),tokenId) */\n      jump\t// in\n    tag_240:\n        /* \"contracts/ERC721Contract.sol\":2142:2250  function _burn(address owner, uint256 tokenId) internal {... */\n      pop\n      pop\n      jump\t// out\n        /* \"contracts/ERC721Contract.sol\":1131:1717  function _safeTransfer(address from, address to, uint256 tokenId, bytes memory _data) internal virtual {... */\n    tag_223:\n        /* \"contracts/ERC721Contract.sol\":1244:1272  _transfer(from, to, tokenId) */\n      tag_243\n        /* \"contracts/ERC721Contract.sol\":1254:1258  from */\n      dup5\n        /* \"contracts/ERC721Contract.sol\":1260:1262  to */\n      dup5\n        /* \"contracts/ERC721Contract.sol\":1264:1271  tokenId */\n      dup5\n        /* \"contracts/ERC721Contract.sol\":1244:1253  _transfer */\n      tag_241\n        /* \"contracts/ERC721Contract.sol\":1244:1272  _transfer(from, to, tokenId) */\n      jump\t// in\n    tag_243:\n        /* \"contracts/ERC721Contract.sol\":1338:1349  uint32 size */\n      0x00\n        /* \"contracts/ERC721Contract.sol\":1402:1404  to */\n      dup4\n        /* \"contracts/ERC721Contract.sol\":1390:1405  extcodesize(to) */\n      extcodesize\n        /* \"contracts/ERC721Contract.sol\":1382:1405  size := extcodesize(to) */\n      swap1\n      pop\n        /* \"contracts/ERC721Contract.sol\":1434:1435  0 */\n      0x00\n        /* \"contracts/ERC721Contract.sol\":1427:1431  size */\n      dup2\n        /* \"contracts/ERC721Contract.sol\":1427:1435  size > 0 */\n      0xffffffff\n      and\n      gt\n        /* \"contracts/ERC721Contract.sol\":1424:1711  if(size > 0){... */\n      iszero\n      tag_244\n      jumpi\n        /* \"contracts/ERC721Contract.sol\":1450:1478  ERC721TokenReceiver receiver */\n      0x00\n        /* \"contracts/ERC721Contract.sol\":1501:1503  to */\n      dup5\n        /* \"contracts/ERC721Contract.sol\":1450:1504  ERC721TokenReceiver receiver = ERC721TokenReceiver(to) */\n      swap1\n      pop\n        /* \"contracts/ERC721Contract.sol\":1592:1652  keccak256(\"onERC721Received(address,address,uint256,bytes)\") */\n      0x150b7a023d4804d13e8c85fb27262cb750cf6ba9f9dd3bb30d90f482ceeb4b1f\n        /* \"contracts/ERC721Contract.sol\":1526:1653  receiver.onERC721Received(msg.sender,from,tokenId,_data)== bytes4(keccak256(\"onERC721Received(address,address,uint256,bytes)\")) */\n      not(0xffffffffffffffffffffffffffffffffffffffffffffffffffffffff)\n      and\n        /* \"contracts/ERC721Contract.sol\":1526:1534  receiver */\n      dup2\n        /* \"contracts/ERC721Contract.sol\":1526:1551  receiver.onERC721Received */\n      0xffffffffffffffffffffffffffffffffffffffff\n      and\n      0x150b7a02\n        /* \"contracts/ERC721Contract.sol\":1552:1562  msg.sender */\n      caller\n        /* \"contracts/ERC721Contract.sol\":1563:1567  from */\n      dup10\n        /* \"contracts/ERC721Contract.sol\":1568:1575  tokenId */\n      dup9\n        /* \"contracts/ERC721Contract.sol\":1576:1581  _data */\n      dup9\n        /* \"contracts/ERC721Contract.sol\":1526:1582  receiver.onERC721Received(msg.sender,from,tokenId,_data) */\n      mload(0x40)\n      dup6\n      0xffffffff\n      and\n      0xe0\n      shl\n      dup2\n      mstore\n      0x04\n      add\n      tag_245\n      swap5\n      swap4\n      swap3\n      swap2\n      swap1\n      tag_246\n      jump\t// in\n    tag_245:\n      0x20\n      mload(0x40)\n      dup1\n      dup4\n      sub\n      dup2\n      0x00\n      dup8\n      dup1\n      extcodesize\n      iszero\n      dup1\n      iszero\n      tag_247\n      jumpi\n      0x00\n      dup1\n      revert\n    tag_247:\n      pop\n      gas\n      call\n      iszero\n      dup1\n      iszero\n      tag_249\n      jumpi\n      returndatasize\n      0x00\n      dup1\n      returndatacopy\n      revert(0x00, returndatasize)\n    tag_249:\n      pop\n      pop\n      pop\n      pop\n      mload(0x40)\n      returndatasize\n      not(0x1f)\n      0x1f\n      dup3\n      add\n      and\n      dup3\n      add\n      dup1\n      0x40\n      mstore\n      pop\n      dup2\n      add\n      swap1\n      tag_250\n      swap2\n      swap1\n      tag_251\n      jump\t// in\n    tag_250:\n        /* \"contracts/ERC721Contract.sol\":1526:1653  receiver.onERC721Received(msg.sender,from,tokenId,_data)== bytes4(keccak256(\"onERC721Received(address,address,uint256,bytes)\")) */\n      not(0xffffffffffffffffffffffffffffffffffffffffffffffffffffffff)\n      and\n      eq\n        /* \"contracts/ERC721Contract.sol\":1518:1654  require(receiver.onERC721Received(msg.sender,from,tokenId,_data)== bytes4(keccak256(\"onERC721Received(address,address,uint256,bytes)\"))) */\n      tag_252\n      jumpi\n      0x00\n      dup1\n      revert\n    tag_252:\n        /* \"contracts/ERC721Contract.sol\":1692:1699  tokenId */\n      dup4\n        /* \"contracts/ERC721Contract.sol\":1688:1690  to */\n      dup6\n        /* \"contracts/ERC721Contract.sol\":1673:1700  Transfer(from, to, tokenId) */\n      0xffffffffffffffffffffffffffffffffffffffff\n      and\n        /* \"contracts/ERC721Contract.sol\":1682:1686  from */\n      dup8\n        /* \"contracts/ERC721Contract.sol\":1673:1700  Transfer(from, to, tokenId) */\n      0xffffffffffffffffffffffffffffffffffffffff\n      and\n      0xddf252ad1be2c89b69c2b068fc378daa952ba7f163c4a11628f55a4df523b3ef\n      mload(0x40)\n      mload(0x40)\n      dup1\n      swap2\n      sub\n      swap1\n      log4\n        /* \"contracts/ERC721Contract.sol\":1436:1711  {... */\n      pop\n        /* \"contracts/ERC721Contract.sol\":1424:1711  if(size > 0){... */\n    tag_244:\n        /* \"contracts/ERC721Contract.sol\":1234:1717  {... */\n      pop\n        /* \"contracts/ERC721Contract.sol\":1131:1717  function _safeTransfer(address from, address to, uint256 tokenId, bytes memory _data) internal virtual {... */\n      pop\n      pop\n      pop\n      pop\n      jump\t// out\n        /* \"contracts/ERC721Contract.sol\":2256:3072  function _transfer(address from, address to, uint256 tokenId) internal virtual {... */\n    tag_241:\n        /* \"contracts/ERC721Contract.sol\":2382:2386  from */\n      dup3\n        /* \"contracts/ERC721Contract.sol\":2362:2386  ownerOf(tokenId) == from */\n      0xffffffffffffffffffffffffffffffffffffffff\n      and\n        /* \"contracts/ERC721Contract.sol\":2362:2378  ownerOf(tokenId) */\n      tag_254\n        /* \"contracts/ERC721Contract.sol\":2370:2377  tokenId */\n      dup3\n        /* \"contracts/ERC721Contract.sol\":2362:2369  ownerOf */\n      tag_68\n        /* \"contracts/ERC721Contract.sol\":2362:2378  ownerOf(tokenId) */\n      jump\t// in\n    tag_254:\n        /* \"contracts/ERC721Contract.sol\":2362:2386  ownerOf(tokenId) == from */\n      0xffffffffffffffffffffffffffffffffffffffff\n      and\n      eq\n        /* \"contracts/ERC721Contract.sol\":2354:2432  require(ownerOf(tokenId) == from, \"ERC721: transfer of token that is not own\") */\n      tag_255\n      jumpi\n      mload(0x40)\n      0x08c379a000000000000000000000000000000000000000000000000000000000\n      dup2\n      mstore\n      0x04\n      add\n      tag_256\n      swap1\n      tag_257\n      jump\t// in\n    tag_256:\n      mload(0x40)\n      dup1\n      swap2\n      sub\n      swap1\n      revert\n    tag_255:\n        /* \"contracts/ERC721Contract.sol\":2570:2599  _approve(address(0), tokenId) */\n      tag_258\n        /* \"contracts/ERC721Contract.sol\":2587:2588  0 */\n      0x00\n        /* \"contracts/ERC721Contract.sol\":2591:2598  tokenId */\n      dup3\n        /* \"contracts/ERC721Contract.sol\":2570:2578  _approve */\n      tag_126\n        /* \"contracts/ERC721Contract.sol\":2570:2599  _approve(address(0), tokenId) */\n      jump\t// in\n    tag_258:\n        /* \"contracts/ERC721Contract.sol\":2630:2632  to */\n      dup2\n        /* \"contracts/ERC721Contract.sol\":2608:2618  tokenOwner */\n      0x03\n        /* \"contracts/ERC721Contract.sol\":2608:2627  tokenOwner[tokenId] */\n      0x00\n        /* \"contracts/ERC721Contract.sol\":2619:2626  tokenId */\n      dup4\n        /* \"contracts/ERC721Contract.sol\":2608:2627  tokenOwner[tokenId] */\n      dup2\n      mstore\n      0x20\n      add\n      swap1\n      dup2\n      mstore\n      0x20\n      add\n      0x00\n      keccak256\n      0x00\n        /* \"contracts/ERC721Contract.sol\":2608:2632  tokenOwner[tokenId] = to */\n      0x0100\n      exp\n      dup2\n      sload\n      dup2\n      0xffffffffffffffffffffffffffffffffffffffff\n      mul\n      not\n      and\n      swap1\n      dup4\n      0xffffffffffffffffffffffffffffffffffffffff\n      and\n      mul\n      or\n      swap1\n      sstore\n      pop\n        /* \"contracts/ERC721Contract.sol\":2641:2647  uint n */\n      0x00\n        /* \"contracts/ERC721Contract.sol\":2648:2663  tokenCollection */\n      0x01\n        /* \"contracts/ERC721Contract.sol\":2648:2669  tokenCollection[from] */\n      0x00\n        /* \"contracts/ERC721Contract.sol\":2664:2668  from */\n      dup6\n        /* \"contracts/ERC721Contract.sol\":2648:2669  tokenCollection[from] */\n      0xffffffffffffffffffffffffffffffffffffffff\n      and\n      0xffffffffffffffffffffffffffffffffffffffff\n      and\n      dup2\n      mstore\n      0x20\n      add\n      swap1\n      dup2\n      mstore\n      0x20\n      add\n      0x00\n      keccak256\n        /* \"contracts/ERC721Contract.sol\":2648:2676  tokenCollection[from].length */\n      dup1\n      sload\n      swap1\n      pop\n        /* \"contracts/ERC721Contract.sol\":2641:2676  uint n=tokenCollection[from].length */\n      swap1\n      pop\n        /* \"contracts/ERC721Contract.sol\":2685:2697  tokenBalance */\n      0x04\n        /* \"contracts/ERC721Contract.sol\":2685:2703  tokenBalance[from] */\n      0x00\n        /* \"contracts/ERC721Contract.sol\":2698:2702  from */\n      dup6\n        /* \"contracts/ERC721Contract.sol\":2685:2703  tokenBalance[from] */\n      0xffffffffffffffffffffffffffffffffffffffff\n      and\n      0xffffffffffffffffffffffffffffffffffffffff\n      and\n      dup2\n      mstore\n      0x20\n      add\n      swap1\n      dup2\n      mstore\n      0x20\n      add\n      0x00\n      keccak256\n      0x00\n        /* \"contracts/ERC721Contract.sol\":2685:2705  tokenBalance[from]-- */\n      dup2\n      dup2\n      swap1\n      sload\n      swap1\n      0x0100\n      exp\n      swap1\n      div\n      0xffffffffffffffff\n      and\n      dup1\n      swap3\n      swap2\n      swap1\n      tag_259\n      swap1\n      tag_260\n      jump\t// in\n    tag_259:\n      swap2\n      swap1\n      0x0100\n      exp\n      dup2\n      sload\n      dup2\n      0xffffffffffffffff\n      mul\n      not\n      and\n      swap1\n      dup4\n      0xffffffffffffffff\n      and\n      mul\n      or\n      swap1\n      sstore\n      pop\n      pop\n        /* \"contracts/ERC721Contract.sol\":2714:2720  uint i */\n      0x00\n        /* \"contracts/ERC721Contract.sol\":2731:3024  while (i<n){... */\n    tag_261:\n        /* \"contracts/ERC721Contract.sol\":2740:2741  n */\n      dup2\n        /* \"contracts/ERC721Contract.sol\":2738:2739  i */\n      dup2\n        /* \"contracts/ERC721Contract.sol\":2738:2741  i<n */\n      lt\n        /* \"contracts/ERC721Contract.sol\":2731:3024  while (i<n){... */\n      iszero\n      tag_262\n      jumpi\n        /* \"contracts/ERC721Contract.sol\":2842:2851  tokenURIs */\n      0x02\n        /* \"contracts/ERC721Contract.sol\":2842:2860  tokenURIs[tokenId] */\n      0x00\n        /* \"contracts/ERC721Contract.sol\":2852:2859  tokenId */\n      dup5\n        /* \"contracts/ERC721Contract.sol\":2842:2860  tokenURIs[tokenId] */\n      dup2\n      mstore\n      0x20\n      add\n      swap1\n      dup2\n      mstore\n      0x20\n      add\n      0x00\n      keccak256\n        /* \"contracts/ERC721Contract.sol\":2825:2861  abi.encodePacked(tokenURIs[tokenId]) */\n      add(0x20, mload(0x40))\n      tag_263\n      swap2\n      swap1\n      tag_264\n      jump\t// in\n    tag_263:\n      mload(0x40)\n      0x20\n      dup2\n      dup4\n      sub\n      sub\n      dup2\n      mstore\n      swap1\n      0x40\n      mstore\n        /* \"contracts/ERC721Contract.sol\":2815:2862  keccak256(abi.encodePacked(tokenURIs[tokenId])) */\n      dup1\n      mload\n      swap1\n      0x20\n      add\n      keccak256\n        /* \"contracts/ERC721Contract.sol\":2785:2800  tokenCollection */\n      0x01\n        /* \"contracts/ERC721Contract.sol\":2785:2806  tokenCollection[from] */\n      0x00\n        /* \"contracts/ERC721Contract.sol\":2801:2805  from */\n      dup8\n        /* \"contracts/ERC721Contract.sol\":2785:2806  tokenCollection[from] */\n      0xffffffffffffffffffffffffffffffffffffffff\n      and\n      0xffffffffffffffffffffffffffffffffffffffff\n      and\n      dup2\n      mstore\n      0x20\n      add\n      swap1\n      dup2\n      mstore\n      0x20\n      add\n      0x00\n      keccak256\n        /* \"contracts/ERC721Contract.sol\":2807:2808  i */\n      dup3\n        /* \"contracts/ERC721Contract.sol\":2785:2809  tokenCollection[from][i] */\n      dup2\n      sload\n      dup2\n      lt\n      tag_265\n      jumpi\n      tag_266\n      tag_175\n      jump\t// in\n    tag_266:\n    tag_265:\n      swap1\n      0x00\n      mstore\n      keccak256(0x00, 0x20)\n      add\n        /* \"contracts/ERC721Contract.sol\":2768:2810  abi.encodePacked(tokenCollection[from][i]) */\n      add(0x20, mload(0x40))\n      tag_268\n      swap2\n      swap1\n      tag_264\n      jump\t// in\n    tag_268:\n      mload(0x40)\n      0x20\n      dup2\n      dup4\n      sub\n      sub\n      dup2\n      mstore\n      swap1\n      0x40\n      mstore\n        /* \"contracts/ERC721Contract.sol\":2758:2811  keccak256(abi.encodePacked(tokenCollection[from][i])) */\n      dup1\n      mload\n      swap1\n      0x20\n      add\n      keccak256\n        /* \"contracts/ERC721Contract.sol\":2758:2862  keccak256(abi.encodePacked(tokenCollection[from][i])) == keccak256(abi.encodePacked(tokenURIs[tokenId])) */\n      eq\n        /* \"contracts/ERC721Contract.sol\":2755:3015  if(keccak256(abi.encodePacked(tokenCollection[from][i])) == keccak256(abi.encodePacked(tokenURIs[tokenId]))){... */\n      iszero\n      tag_269\n      jumpi\n        /* \"contracts/ERC721Contract.sol\":2887:2902  tokenCollection */\n      0x01\n        /* \"contracts/ERC721Contract.sol\":2887:2908  tokenCollection[from] */\n      0x00\n        /* \"contracts/ERC721Contract.sol\":2903:2907  from */\n      dup7\n        /* \"contracts/ERC721Contract.sol\":2887:2908  tokenCollection[from] */\n      0xffffffffffffffffffffffffffffffffffffffff\n      and\n      0xffffffffffffffffffffffffffffffffffffffff\n      and\n      dup2\n      mstore\n      0x20\n      add\n      swap1\n      dup2\n      mstore\n      0x20\n      add\n      0x00\n      keccak256\n        /* \"contracts/ERC721Contract.sol\":2909:2910  i */\n      dup2\n        /* \"contracts/ERC721Contract.sol\":2887:2911  tokenCollection[from][i] */\n      dup2\n      sload\n      dup2\n      lt\n      tag_270\n      jumpi\n      tag_271\n      tag_175\n      jump\t// in\n    tag_271:\n    tag_270:\n      swap1\n      0x00\n      mstore\n      keccak256(0x00, 0x20)\n      add\n      0x00\n        /* \"contracts/ERC721Contract.sol\":2880:2911  delete tokenCollection[from][i] */\n      tag_273\n      swap2\n      swap1\n      tag_274\n      jump\t// in\n    tag_273:\n        /* \"contracts/ERC721Contract.sol\":2928:2959  remove(i,tokenCollection[from]) */\n      tag_275\n        /* \"contracts/ERC721Contract.sol\":2935:2936  i */\n      dup2\n        /* \"contracts/ERC721Contract.sol\":2937:2952  tokenCollection */\n      0x01\n        /* \"contracts/ERC721Contract.sol\":2937:2958  tokenCollection[from] */\n      0x00\n        /* \"contracts/ERC721Contract.sol\":2953:2957  from */\n      dup9\n        /* \"contracts/ERC721Contract.sol\":2937:2958  tokenCollection[from] */\n      0xffffffffffffffffffffffffffffffffffffffff\n      and\n      0xffffffffffffffffffffffffffffffffffffffff\n      and\n      dup2\n      mstore\n      0x20\n      add\n      swap1\n      dup2\n      mstore\n      0x20\n      add\n      0x00\n      keccak256\n        /* \"contracts/ERC721Contract.sol\":2928:2959  remove(i,tokenCollection[from]) */\n      dup1\n      sload\n      dup1\n      0x20\n      mul\n      0x20\n      add\n      mload(0x40)\n      swap1\n      dup2\n      add\n      0x40\n      mstore\n      dup1\n      swap3\n      swap2\n      swap1\n      dup2\n      dup2\n      mstore\n      0x20\n      add\n      0x00\n      swap1\n    tag_276:\n      dup3\n      dup3\n      lt\n      iszero\n      tag_277\n      jumpi\n      dup4\n      dup3\n      swap1\n      0x00\n      mstore\n      keccak256(0x00, 0x20)\n      add\n      dup1\n      sload\n      tag_279\n      swap1\n      tag_187\n      jump\t// in\n    tag_279:\n      dup1\n      0x1f\n      add\n      0x20\n      dup1\n      swap2\n      div\n      mul\n      0x20\n      add\n      mload(0x40)\n      swap1\n      dup2\n      add\n      0x40\n      mstore\n      dup1\n      swap3\n      swap2\n      swap1\n      dup2\n      dup2\n      mstore\n      0x20\n      add\n      dup3\n      dup1\n      sload\n      tag_280\n      swap1\n      tag_187\n      jump\t// in\n    tag_280:\n      dup1\n      iszero\n      tag_281\n      jumpi\n      dup1\n      0x1f\n      lt\n      tag_282\n      jumpi\n      0x0100\n      dup1\n      dup4\n      sload\n      div\n      mul\n      dup4\n      mstore\n      swap2\n      0x20\n      add\n      swap2\n      jump(tag_281)\n    tag_282:\n      dup3\n      add\n      swap2\n      swap1\n      0x00\n      mstore\n      keccak256(0x00, 0x20)\n      swap1\n    tag_283:\n      dup2\n      sload\n      dup2\n      mstore\n      swap1\n      0x01\n      add\n      swap1\n      0x20\n      add\n      dup1\n      dup4\n      gt\n      tag_283\n      jumpi\n      dup3\n      swap1\n      sub\n      0x1f\n      and\n      dup3\n      add\n      swap2\n    tag_281:\n      pop\n      pop\n      pop\n      pop\n      pop\n      dup2\n      mstore\n      0x20\n      add\n      swap1\n      0x01\n      add\n      swap1\n      jump(tag_276)\n    tag_277:\n      pop\n      pop\n      pop\n      pop\n        /* \"contracts/ERC721Contract.sol\":2928:2934  remove */\n      tag_83\n        /* \"contracts/ERC721Contract.sol\":2928:2959  remove(i,tokenCollection[from]) */\n      jump\t// in\n    tag_275:\n        /* \"contracts/ERC721Contract.sol\":2978:2979  n */\n      dup2\n        /* \"contracts/ERC721Contract.sol\":2976:2979  i=n */\n      swap1\n      pop\n        /* \"contracts/ERC721Contract.sol\":2755:3015  if(keccak256(abi.encodePacked(tokenCollection[from][i])) == keccak256(abi.encodePacked(tokenURIs[tokenId]))){... */\n      jump(tag_284)\n    tag_269:\n        /* \"contracts/ERC721Contract.sol\":3010:3013  i++ */\n      dup1\n      dup1\n      tag_285\n      swap1\n      tag_155\n      jump\t// in\n    tag_285:\n      swap2\n      pop\n      pop\n        /* \"contracts/ERC721Contract.sol\":2755:3015  if(keccak256(abi.encodePacked(tokenCollection[from][i])) == keccak256(abi.encodePacked(tokenURIs[tokenId]))){... */\n    tag_284:\n        /* \"contracts/ERC721Contract.sol\":2731:3024  while (i<n){... */\n      jump(tag_261)\n    tag_262:\n        /* \"contracts/ERC721Contract.sol\":3057:3064  tokenId */\n      dup3\n        /* \"contracts/ERC721Contract.sol\":3053:3055  to */\n      dup5\n        /* \"contracts/ERC721Contract.sol\":3038:3065  Transfer(from, to, tokenId) */\n      0xffffffffffffffffffffffffffffffffffffffff\n      and\n        /* \"contracts/ERC721Contract.sol\":3047:3051  from */\n      dup7\n        /* \"contracts/ERC721Contract.sol\":3038:3065  Transfer(from, to, tokenId) */\n      0xffffffffffffffffffffffffffffffffffffffff\n      and\n      0xddf252ad1be2c89b69c2b068fc378daa952ba7f163c4a11628f55a4df523b3ef\n      mload(0x40)\n      mload(0x40)\n      dup1\n      swap2\n      sub\n      swap1\n      log4\n        /* \"contracts/ERC721Contract.sol\":2335:3072  {... */\n      pop\n      pop\n        /* \"contracts/ERC721Contract.sol\":2256:3072  function _transfer(address from, address to, uint256 tokenId) internal virtual {... */\n      pop\n      pop\n      pop\n      jump\t// out\n    tag_133:\n      dup3\n      dup1\n      sload\n      tag_286\n      swap1\n      tag_187\n      jump\t// in\n    tag_286:\n      swap1\n      0x00\n      mstore\n      keccak256(0x00, 0x20)\n      swap1\n      0x1f\n      add\n      0x20\n      swap1\n      div\n      dup2\n      add\n      swap3\n      dup3\n      tag_288\n      jumpi\n      0x00\n      dup6\n      sstore\n      jump(tag_287)\n    tag_288:\n      dup3\n      0x1f\n      lt\n      tag_289\n      jumpi\n      dup1\n      mload\n      not(0xff)\n      and\n      dup4\n      dup1\n      add\n      or\n      dup6\n      sstore\n      jump(tag_287)\n    tag_289:\n      dup3\n      dup1\n      add\n      0x01\n      add\n      dup6\n      sstore\n      dup3\n      iszero\n      tag_287\n      jumpi\n      swap2\n      dup3\n      add\n    tag_290:\n      dup3\n      dup2\n      gt\n      iszero\n      tag_291\n      jumpi\n      dup3\n      mload\n      dup3\n      sstore\n      swap2\n      0x20\n      add\n      swap2\n      swap1\n      0x01\n      add\n      swap1\n      jump(tag_290)\n    tag_291:\n    tag_287:\n      pop\n      swap1\n      pop\n      tag_292\n      swap2\n      swap1\n      tag_293\n      jump\t// in\n    tag_292:\n      pop\n      swap1\n      jump\t// out\n    tag_274:\n      pop\n      dup1\n      sload\n      tag_294\n      swap1\n      tag_187\n      jump\t// in\n    tag_294:\n      0x00\n      dup3\n      sstore\n      dup1\n      0x1f\n      lt\n      tag_296\n      jumpi\n      pop\n      jump(tag_295)\n    tag_296:\n      0x1f\n      add\n      0x20\n      swap1\n      div\n      swap1\n      0x00\n      mstore\n      keccak256(0x00, 0x20)\n      swap1\n      dup2\n      add\n      swap1\n      tag_297\n      swap2\n      swap1\n      tag_293\n      jump\t// in\n    tag_297:\n    tag_295:\n      pop\n      jump\t// out\n    tag_293:\n    tag_298:\n      dup1\n      dup3\n      gt\n      iszero\n      tag_299\n      jumpi\n      0x00\n      dup2\n      0x00\n      swap1\n      sstore\n      pop\n      0x01\n      add\n      jump(tag_298)\n    tag_299:\n      pop\n      swap1\n      jump\t// out\n        /* \"#utility.yul\":23:980   */\n    tag_301:\n        /* \"#utility.yul\":129:134   */\n      0x00\n        /* \"#utility.yul\":154:245   */\n      tag_303\n        /* \"#utility.yul\":170:244   */\n      tag_304\n        /* \"#utility.yul\":237:243   */\n      dup5\n        /* \"#utility.yul\":170:244   */\n      tag_305\n      jump\t// in\n    tag_304:\n        /* \"#utility.yul\":154:245   */\n      tag_306\n      jump\t// in\n    tag_303:\n        /* \"#utility.yul\":145:245   */\n      swap1\n      pop\n        /* \"#utility.yul\":265:270   */\n      dup1\n        /* \"#utility.yul\":294:300   */\n      dup4\n        /* \"#utility.yul\":287:292   */\n      dup3\n        /* \"#utility.yul\":280:301   */\n      mstore\n        /* \"#utility.yul\":328:332   */\n      0x20\n        /* \"#utility.yul\":321:326   */\n      dup3\n        /* \"#utility.yul\":317:333   */\n      add\n        /* \"#utility.yul\":310:333   */\n      swap1\n      pop\n        /* \"#utility.yul\":354:360   */\n      dup3\n        /* \"#utility.yul\":404:407   */\n      dup6\n        /* \"#utility.yul\":396:400   */\n      0x20\n        /* \"#utility.yul\":388:394   */\n      dup7\n        /* \"#utility.yul\":384:401   */\n      mul\n        /* \"#utility.yul\":379:382   */\n      dup3\n        /* \"#utility.yul\":375:402   */\n      add\n        /* \"#utility.yul\":372:408   */\n      gt\n        /* \"#utility.yul\":369:512   */\n      iszero\n      tag_307\n      jumpi\n        /* \"#utility.yul\":423:502   */\n      tag_308\n      tag_309\n      jump\t// in\n    tag_308:\n        /* \"#utility.yul\":369:512   */\n    tag_307:\n        /* \"#utility.yul\":536:537   */\n      0x00\n        /* \"#utility.yul\":521:974   */\n    tag_310:\n        /* \"#utility.yul\":546:552   */\n      dup6\n        /* \"#utility.yul\":543:544   */\n      dup2\n        /* \"#utility.yul\":540:553   */\n      lt\n        /* \"#utility.yul\":521:974   */\n      iszero\n      tag_312\n      jumpi\n        /* \"#utility.yul\":628:631   */\n      dup2\n        /* \"#utility.yul\":615:632   */\n      calldataload\n        /* \"#utility.yul\":664:682   */\n      0xffffffffffffffff\n        /* \"#utility.yul\":651:662   */\n      dup2\n        /* \"#utility.yul\":648:683   */\n      gt\n        /* \"#utility.yul\":645:767   */\n      iszero\n      tag_313\n      jumpi\n        /* \"#utility.yul\":686:765   */\n      tag_314\n      tag_315\n      jump\t// in\n    tag_314:\n        /* \"#utility.yul\":645:767   */\n    tag_313:\n        /* \"#utility.yul\":810:821   */\n      dup1\n        /* \"#utility.yul\":802:808   */\n      dup7\n        /* \"#utility.yul\":798:822   */\n      add\n        /* \"#utility.yul\":848:895   */\n      tag_316\n        /* \"#utility.yul\":891:894   */\n      dup10\n        /* \"#utility.yul\":879:889   */\n      dup3\n        /* \"#utility.yul\":848:895   */\n      tag_317\n      jump\t// in\n    tag_316:\n        /* \"#utility.yul\":843:846   */\n      dup6\n        /* \"#utility.yul\":836:896   */\n      mstore\n        /* \"#utility.yul\":925:929   */\n      0x20\n        /* \"#utility.yul\":920:923   */\n      dup6\n        /* \"#utility.yul\":916:930   */\n      add\n        /* \"#utility.yul\":909:930   */\n      swap5\n      pop\n        /* \"#utility.yul\":959:963   */\n      0x20\n        /* \"#utility.yul\":954:957   */\n      dup5\n        /* \"#utility.yul\":950:964   */\n      add\n        /* \"#utility.yul\":943:964   */\n      swap4\n      pop\n        /* \"#utility.yul\":581:974   */\n      pop\n      pop\n        /* \"#utility.yul\":568:569   */\n      0x01\n        /* \"#utility.yul\":565:566   */\n      dup2\n        /* \"#utility.yul\":561:570   */\n      add\n        /* \"#utility.yul\":556:570   */\n      swap1\n      pop\n        /* \"#utility.yul\":521:974   */\n      jump(tag_310)\n    tag_312:\n        /* \"#utility.yul\":525:539   */\n      pop\n        /* \"#utility.yul\":135:980   */\n      pop\n      pop\n        /* \"#utility.yul\":23:980   */\n      swap4\n      swap3\n      pop\n      pop\n      pop\n      jump\t// out\n        /* \"#utility.yul\":986:1396   */\n    tag_318:\n        /* \"#utility.yul\":1063:1068   */\n      0x00\n        /* \"#utility.yul\":1088:1153   */\n      tag_320\n        /* \"#utility.yul\":1104:1152   */\n      tag_321\n        /* \"#utility.yul\":1145:1151   */\n      dup5\n        /* \"#utility.yul\":1104:1152   */\n      tag_322\n      jump\t// in\n    tag_321:\n        /* \"#utility.yul\":1088:1153   */\n      tag_306\n      jump\t// in\n    tag_320:\n        /* \"#utility.yul\":1079:1153   */\n      swap1\n      pop\n        /* \"#utility.yul\":1176:1182   */\n      dup3\n        /* \"#utility.yul\":1169:1174   */\n      dup2\n        /* \"#utility.yul\":1162:1183   */\n      mstore\n        /* \"#utility.yul\":1214:1218   */\n      0x20\n        /* \"#utility.yul\":1207:1212   */\n      dup2\n        /* \"#utility.yul\":1203:1219   */\n      add\n        /* \"#utility.yul\":1252:1255   */\n      dup5\n        /* \"#utility.yul\":1243:1249   */\n      dup5\n        /* \"#utility.yul\":1238:1241   */\n      dup5\n        /* \"#utility.yul\":1234:1250   */\n      add\n        /* \"#utility.yul\":1231:1256   */\n      gt\n        /* \"#utility.yul\":1228:1340   */\n      iszero\n      tag_323\n      jumpi\n        /* \"#utility.yul\":1259:1338   */\n      tag_324\n      tag_325\n      jump\t// in\n    tag_324:\n        /* \"#utility.yul\":1228:1340   */\n    tag_323:\n        /* \"#utility.yul\":1349:1390   */\n      tag_326\n        /* \"#utility.yul\":1383:1389   */\n      dup5\n        /* \"#utility.yul\":1378:1381   */\n      dup3\n        /* \"#utility.yul\":1373:1376   */\n      dup6\n        /* \"#utility.yul\":1349:1390   */\n      tag_327\n      jump\t// in\n    tag_326:\n        /* \"#utility.yul\":1069:1396   */\n      pop\n        /* \"#utility.yul\":986:1396   */\n      swap4\n      swap3\n      pop\n      pop\n      pop\n      jump\t// out\n        /* \"#utility.yul\":1402:1814   */\n    tag_328:\n        /* \"#utility.yul\":1480:1485   */\n      0x00\n        /* \"#utility.yul\":1505:1571   */\n      tag_330\n        /* \"#utility.yul\":1521:1570   */\n      tag_331\n        /* \"#utility.yul\":1563:1569   */\n      dup5\n        /* \"#utility.yul\":1521:1570   */\n      tag_332\n      jump\t// in\n    tag_331:\n        /* \"#utility.yul\":1505:1571   */\n      tag_306\n      jump\t// in\n    tag_330:\n        /* \"#utility.yul\":1496:1571   */\n      swap1\n      pop\n        /* \"#utility.yul\":1594:1600   */\n      dup3\n        /* \"#utility.yul\":1587:1592   */\n      dup2\n        /* \"#utility.yul\":1580:1601   */\n      mstore\n        /* \"#utility.yul\":1632:1636   */\n      0x20\n        /* \"#utility.yul\":1625:1630   */\n      dup2\n        /* \"#utility.yul\":1621:1637   */\n      add\n        /* \"#utility.yul\":1670:1673   */\n      dup5\n        /* \"#utility.yul\":1661:1667   */\n      dup5\n        /* \"#utility.yul\":1656:1659   */\n      dup5\n        /* \"#utility.yul\":1652:1668   */\n      add\n        /* \"#utility.yul\":1649:1674   */\n      gt\n        /* \"#utility.yul\":1646:1758   */\n      iszero\n      tag_333\n      jumpi\n        /* \"#utility.yul\":1677:1756   */\n      tag_334\n      tag_325\n      jump\t// in\n    tag_334:\n        /* \"#utility.yul\":1646:1758   */\n    tag_333:\n        /* \"#utility.yul\":1767:1808   */\n      tag_335\n        /* \"#utility.yul\":1801:1807   */\n      dup5\n        /* \"#utility.yul\":1796:1799   */\n      dup3\n        /* \"#utility.yul\":1791:1794   */\n      dup6\n        /* \"#utility.yul\":1767:1808   */\n      tag_327\n      jump\t// in\n    tag_335:\n        /* \"#utility.yul\":1486:1814   */\n      pop\n        /* \"#utility.yul\":1402:1814   */\n      swap4\n      swap3\n      pop\n      pop\n      pop\n      jump\t// out\n        /* \"#utility.yul\":1820:1959   */\n    tag_336:\n        /* \"#utility.yul\":1866:1871   */\n      0x00\n        /* \"#utility.yul\":1904:1910   */\n      dup2\n        /* \"#utility.yul\":1891:1911   */\n      calldataload\n        /* \"#utility.yul\":1882:1911   */\n      swap1\n      pop\n        /* \"#utility.yul\":1920:1953   */\n      tag_338\n        /* \"#utility.yul\":1947:1952   */\n      dup2\n        /* \"#utility.yul\":1920:1953   */\n      tag_339\n      jump\t// in\n    tag_338:\n        /* \"#utility.yul\":1820:1959   */\n      swap3\n      swap2\n      pop\n      pop\n      jump\t// out\n        /* \"#utility.yul\":1965:2108   */\n    tag_340:\n        /* \"#utility.yul\":2022:2027   */\n      0x00\n        /* \"#utility.yul\":2053:2059   */\n      dup2\n        /* \"#utility.yul\":2047:2060   */\n      mload\n        /* \"#utility.yul\":2038:2060   */\n      swap1\n      pop\n        /* \"#utility.yul\":2069:2102   */\n      tag_342\n        /* \"#utility.yul\":2096:2101   */\n      dup2\n        /* \"#utility.yul\":2069:2102   */\n      tag_339\n      jump\t// in\n    tag_342:\n        /* \"#utility.yul\":1965:2108   */\n      swap3\n      swap2\n      pop\n      pop\n      jump\t// out\n        /* \"#utility.yul\":2130:2520   */\n    tag_343:\n        /* \"#utility.yul\":2211:2216   */\n      0x00\n        /* \"#utility.yul\":2260:2263   */\n      dup3\n        /* \"#utility.yul\":2253:2257   */\n      0x1f\n        /* \"#utility.yul\":2245:2251   */\n      dup4\n        /* \"#utility.yul\":2241:2258   */\n      add\n        /* \"#utility.yul\":2237:2264   */\n      slt\n        /* \"#utility.yul\":2227:2349   */\n      tag_345\n      jumpi\n        /* \"#utility.yul\":2268:2347   */\n      tag_346\n      tag_315\n      jump\t// in\n    tag_346:\n        /* \"#utility.yul\":2227:2349   */\n    tag_345:\n        /* \"#utility.yul\":2385:2391   */\n      dup2\n        /* \"#utility.yul\":2372:2392   */\n      calldataload\n        /* \"#utility.yul\":2410:2514   */\n      tag_347\n        /* \"#utility.yul\":2510:2513   */\n      dup5\n        /* \"#utility.yul\":2502:2508   */\n      dup3\n        /* \"#utility.yul\":2495:2499   */\n      0x20\n        /* \"#utility.yul\":2487:2493   */\n      dup7\n        /* \"#utility.yul\":2483:2500   */\n      add\n        /* \"#utility.yul\":2410:2514   */\n      tag_301\n      jump\t// in\n    tag_347:\n        /* \"#utility.yul\":2401:2514   */\n      swap2\n      pop\n        /* \"#utility.yul\":2217:2520   */\n      pop\n        /* \"#utility.yul\":2130:2520   */\n      swap3\n      swap2\n      pop\n      pop\n      jump\t// out\n        /* \"#utility.yul\":2526:2659   */\n    tag_348:\n        /* \"#utility.yul\":2569:2574   */\n      0x00\n        /* \"#utility.yul\":2607:2613   */\n      dup2\n        /* \"#utility.yul\":2594:2614   */\n      calldataload\n        /* \"#utility.yul\":2585:2614   */\n      swap1\n      pop\n        /* \"#utility.yul\":2623:2653   */\n      tag_350\n        /* \"#utility.yul\":2647:2652   */\n      dup2\n        /* \"#utility.yul\":2623:2653   */\n      tag_351\n      jump\t// in\n    tag_350:\n        /* \"#utility.yul\":2526:2659   */\n      swap3\n      swap2\n      pop\n      pop\n      jump\t// out\n        /* \"#utility.yul\":2665:2802   */\n    tag_352:\n        /* \"#utility.yul\":2710:2715   */\n      0x00\n        /* \"#utility.yul\":2748:2754   */\n      dup2\n        /* \"#utility.yul\":2735:2755   */\n      calldataload\n        /* \"#utility.yul\":2726:2755   */\n      swap1\n      pop\n        /* \"#utility.yul\":2764:2796   */\n      tag_354\n        /* \"#utility.yul\":2790:2795   */\n      dup2\n        /* \"#utility.yul\":2764:2796   */\n      tag_355\n      jump\t// in\n    tag_354:\n        /* \"#utility.yul\":2665:2802   */\n      swap3\n      swap2\n      pop\n      pop\n      jump\t// out\n        /* \"#utility.yul\":2808:2949   */\n    tag_356:\n        /* \"#utility.yul\":2864:2869   */\n      0x00\n        /* \"#utility.yul\":2895:2901   */\n      dup2\n        /* \"#utility.yul\":2889:2902   */\n      mload\n        /* \"#utility.yul\":2880:2902   */\n      swap1\n      pop\n        /* \"#utility.yul\":2911:2943   */\n      tag_358\n        /* \"#utility.yul\":2937:2942   */\n      dup2\n        /* \"#utility.yul\":2911:2943   */\n      tag_355\n      jump\t// in\n    tag_358:\n        /* \"#utility.yul\":2808:2949   */\n      swap3\n      swap2\n      pop\n      pop\n      jump\t// out\n        /* \"#utility.yul\":2968:3306   */\n    tag_359:\n        /* \"#utility.yul\":3023:3028   */\n      0x00\n        /* \"#utility.yul\":3072:3075   */\n      dup3\n        /* \"#utility.yul\":3065:3069   */\n      0x1f\n        /* \"#utility.yul\":3057:3063   */\n      dup4\n        /* \"#utility.yul\":3053:3070   */\n      add\n        /* \"#utility.yul\":3049:3076   */\n      slt\n        /* \"#utility.yul\":3039:3161   */\n      tag_361\n      jumpi\n        /* \"#utility.yul\":3080:3159   */\n      tag_362\n      tag_315\n      jump\t// in\n    tag_362:\n        /* \"#utility.yul\":3039:3161   */\n    tag_361:\n        /* \"#utility.yul\":3197:3203   */\n      dup2\n        /* \"#utility.yul\":3184:3204   */\n      calldataload\n        /* \"#utility.yul\":3222:3300   */\n      tag_363\n        /* \"#utility.yul\":3296:3299   */\n      dup5\n        /* \"#utility.yul\":3288:3294   */\n      dup3\n        /* \"#utility.yul\":3281:3285   */\n      0x20\n        /* \"#utility.yul\":3273:3279   */\n      dup7\n        /* \"#utility.yul\":3269:3286   */\n      add\n        /* \"#utility.yul\":3222:3300   */\n      tag_318\n      jump\t// in\n    tag_363:\n        /* \"#utility.yul\":3213:3300   */\n      swap2\n      pop\n        /* \"#utility.yul\":3029:3306   */\n      pop\n        /* \"#utility.yul\":2968:3306   */\n      swap3\n      swap2\n      pop\n      pop\n      jump\t// out\n        /* \"#utility.yul\":3326:3666   */\n    tag_317:\n        /* \"#utility.yul\":3382:3387   */\n      0x00\n        /* \"#utility.yul\":3431:3434   */\n      dup3\n        /* \"#utility.yul\":3424:3428   */\n      0x1f\n        /* \"#utility.yul\":3416:3422   */\n      dup4\n        /* \"#utility.yul\":3412:3429   */\n      add\n        /* \"#utility.yul\":3408:3435   */\n      slt\n        /* \"#utility.yul\":3398:3520   */\n      tag_365\n      jumpi\n        /* \"#utility.yul\":3439:3518   */\n      tag_366\n      tag_315\n      jump\t// in\n    tag_366:\n        /* \"#utility.yul\":3398:3520   */\n    tag_365:\n        /* \"#utility.yul\":3556:3562   */\n      dup2\n        /* \"#utility.yul\":3543:3563   */\n      calldataload\n        /* \"#utility.yul\":3581:3660   */\n      tag_367\n        /* \"#utility.yul\":3656:3659   */\n      dup5\n        /* \"#utility.yul\":3648:3654   */\n      dup3\n        /* \"#utility.yul\":3641:3645   */\n      0x20\n        /* \"#utility.yul\":3633:3639   */\n      dup7\n        /* \"#utility.yul\":3629:3646   */\n      add\n        /* \"#utility.yul\":3581:3660   */\n      tag_328\n      jump\t// in\n    tag_367:\n        /* \"#utility.yul\":3572:3660   */\n      swap2\n      pop\n        /* \"#utility.yul\":3388:3666   */\n      pop\n        /* \"#utility.yul\":3326:3666   */\n      swap3\n      swap2\n      pop\n      pop\n      jump\t// out\n        /* \"#utility.yul\":3672:3811   */\n    tag_368:\n        /* \"#utility.yul\":3718:3723   */\n      0x00\n        /* \"#utility.yul\":3756:3762   */\n      dup2\n        /* \"#utility.yul\":3743:3763   */\n      calldataload\n        /* \"#utility.yul\":3734:3763   */\n      swap1\n      pop\n        /* \"#utility.yul\":3772:3805   */\n      tag_370\n        /* \"#utility.yul\":3799:3804   */\n      dup2\n        /* \"#utility.yul\":3772:3805   */\n      tag_371\n      jump\t// in\n    tag_370:\n        /* \"#utility.yul\":3672:3811   */\n      swap3\n      swap2\n      pop\n      pop\n      jump\t// out\n        /* \"#utility.yul\":3817:4146   */\n    tag_61:\n        /* \"#utility.yul\":3876:3882   */\n      0x00\n        /* \"#utility.yul\":3925:3927   */\n      0x20\n        /* \"#utility.yul\":3913:3922   */\n      dup3\n        /* \"#utility.yul\":3904:3911   */\n      dup5\n        /* \"#utility.yul\":3900:3923   */\n      sub\n        /* \"#utility.yul\":3896:3928   */\n      slt\n        /* \"#utility.yul\":3893:4012   */\n      iszero\n      tag_373\n      jumpi\n        /* \"#utility.yul\":3931:4010   */\n      tag_374\n      tag_375\n      jump\t// in\n    tag_374:\n        /* \"#utility.yul\":3893:4012   */\n    tag_373:\n        /* \"#utility.yul\":4051:4052   */\n      0x00\n        /* \"#utility.yul\":4076:4129   */\n      tag_376\n        /* \"#utility.yul\":4121:4128   */\n      dup5\n        /* \"#utility.yul\":4112:4118   */\n      dup3\n        /* \"#utility.yul\":4101:4110   */\n      dup6\n        /* \"#utility.yul\":4097:4119   */\n      add\n        /* \"#utility.yul\":4076:4129   */\n      tag_336\n      jump\t// in\n    tag_376:\n        /* \"#utility.yul\":4066:4129   */\n      swap2\n      pop\n        /* \"#utility.yul\":4022:4139   */\n      pop\n        /* \"#utility.yul\":3817:4146   */\n      swap3\n      swap2\n      pop\n      pop\n      jump\t// out\n        /* \"#utility.yul\":4152:4503   */\n    tag_231:\n        /* \"#utility.yul\":4222:4228   */\n      0x00\n        /* \"#utility.yul\":4271:4273   */\n      0x20\n        /* \"#utility.yul\":4259:4268   */\n      dup3\n        /* \"#utility.yul\":4250:4257   */\n      dup5\n        /* \"#utility.yul\":4246:4269   */\n      sub\n        /* \"#utility.yul\":4242:4274   */\n      slt\n        /* \"#utility.yul\":4239:4358   */\n      iszero\n      tag_378\n      jumpi\n        /* \"#utility.yul\":4277:4356   */\n      tag_379\n      tag_375\n      jump\t// in\n    tag_379:\n        /* \"#utility.yul\":4239:4358   */\n    tag_378:\n        /* \"#utility.yul\":4397:4398   */\n      0x00\n        /* \"#utility.yul\":4422:4486   */\n      tag_380\n        /* \"#utility.yul\":4478:4485   */\n      dup5\n        /* \"#utility.yul\":4469:4475   */\n      dup3\n        /* \"#utility.yul\":4458:4467   */\n      dup6\n        /* \"#utility.yul\":4454:4476   */\n      add\n        /* \"#utility.yul\":4422:4486   */\n      tag_340\n      jump\t// in\n    tag_380:\n        /* \"#utility.yul\":4412:4486   */\n      swap2\n      pop\n        /* \"#utility.yul\":4368:4496   */\n      pop\n        /* \"#utility.yul\":4152:4503   */\n      swap3\n      swap2\n      pop\n      pop\n      jump\t// out\n        /* \"#utility.yul\":4509:4983   */\n    tag_108:\n        /* \"#utility.yul\":4577:4583   */\n      0x00\n        /* \"#utility.yul\":4585:4591   */\n      dup1\n        /* \"#utility.yul\":4634:4636   */\n      0x40\n        /* \"#utility.yul\":4622:4631   */\n      dup4\n        /* \"#utility.yul\":4613:4620   */\n      dup6\n        /* \"#utility.yul\":4609:4632   */\n      sub\n        /* \"#utility.yul\":4605:4637   */\n      slt\n        /* \"#utility.yul\":4602:4721   */\n      iszero\n      tag_382\n      jumpi\n        /* \"#utility.yul\":4640:4719   */\n      tag_383\n      tag_375\n      jump\t// in\n    tag_383:\n        /* \"#utility.yul\":4602:4721   */\n    tag_382:\n        /* \"#utility.yul\":4760:4761   */\n      0x00\n        /* \"#utility.yul\":4785:4838   */\n      tag_384\n        /* \"#utility.yul\":4830:4837   */\n      dup6\n        /* \"#utility.yul\":4821:4827   */\n      dup3\n        /* \"#utility.yul\":4810:4819   */\n      dup7\n        /* \"#utility.yul\":4806:4828   */\n      add\n        /* \"#utility.yul\":4785:4838   */\n      tag_336\n      jump\t// in\n    tag_384:\n        /* \"#utility.yul\":4775:4838   */\n      swap3\n      pop\n        /* \"#utility.yul\":4731:4848   */\n      pop\n        /* \"#utility.yul\":4887:4889   */\n      0x20\n        /* \"#utility.yul\":4913:4966   */\n      tag_385\n        /* \"#utility.yul\":4958:4965   */\n      dup6\n        /* \"#utility.yul\":4949:4955   */\n      dup3\n        /* \"#utility.yul\":4938:4947   */\n      dup7\n        /* \"#utility.yul\":4934:4956   */\n      add\n        /* \"#utility.yul\":4913:4966   */\n      tag_336\n      jump\t// in\n    tag_385:\n        /* \"#utility.yul\":4903:4966   */\n      swap2\n      pop\n        /* \"#utility.yul\":4858:4976   */\n      pop\n        /* \"#utility.yul\":4509:4983   */\n      swap3\n      pop\n      swap3\n      swap1\n      pop\n      jump\t// out\n        /* \"#utility.yul\":4989:5608   */\n    tag_42:\n        /* \"#utility.yul\":5066:5072   */\n      0x00\n        /* \"#utility.yul\":5074:5080   */\n      dup1\n        /* \"#utility.yul\":5082:5088   */\n      0x00\n        /* \"#utility.yul\":5131:5133   */\n      0x60\n        /* \"#utility.yul\":5119:5128   */\n      dup5\n        /* \"#utility.yul\":5110:5117   */\n      dup7\n        /* \"#utility.yul\":5106:5129   */\n      sub\n        /* \"#utility.yul\":5102:5134   */\n      slt\n        /* \"#utility.yul\":5099:5218   */\n      iszero\n      tag_387\n      jumpi\n        /* \"#utility.yul\":5137:5216   */\n      tag_388\n      tag_375\n      jump\t// in\n    tag_388:\n        /* \"#utility.yul\":5099:5218   */\n    tag_387:\n        /* \"#utility.yul\":5257:5258   */\n      0x00\n        /* \"#utility.yul\":5282:5335   */\n      tag_389\n        /* \"#utility.yul\":5327:5334   */\n      dup7\n        /* \"#utility.yul\":5318:5324   */\n      dup3\n        /* \"#utility.yul\":5307:5316   */\n      dup8\n        /* \"#utility.yul\":5303:5325   */\n      add\n        /* \"#utility.yul\":5282:5335   */\n      tag_336\n      jump\t// in\n    tag_389:\n        /* \"#utility.yul\":5272:5335   */\n      swap4\n      pop\n        /* \"#utility.yul\":5228:5345   */\n      pop\n        /* \"#utility.yul\":5384:5386   */\n      0x20\n        /* \"#utility.yul\":5410:5463   */\n      tag_390\n        /* \"#utility.yul\":5455:5462   */\n      dup7\n        /* \"#utility.yul\":5446:5452   */\n      dup3\n        /* \"#utility.yul\":5435:5444   */\n      dup8\n        /* \"#utility.yul\":5431:5453   */\n      add\n        /* \"#utility.yul\":5410:5463   */\n      tag_336\n      jump\t// in\n    tag_390:\n        /* \"#utility.yul\":5400:5463   */\n      swap3\n      pop\n        /* \"#utility.yul\":5355:5473   */\n      pop\n        /* \"#utility.yul\":5512:5514   */\n      0x40\n        /* \"#utility.yul\":5538:5591   */\n      tag_391\n        /* \"#utility.yul\":5583:5590   */\n      dup7\n        /* \"#utility.yul\":5574:5580   */\n      dup3\n        /* \"#utility.yul\":5563:5572   */\n      dup8\n        /* \"#utility.yul\":5559:5581   */\n      add\n        /* \"#utility.yul\":5538:5591   */\n      tag_368\n      jump\t// in\n    tag_391:\n        /* \"#utility.yul\":5528:5591   */\n      swap2\n      pop\n        /* \"#utility.yul\":5483:5601   */\n      pop\n        /* \"#utility.yul\":4989:5608   */\n      swap3\n      pop\n      swap3\n      pop\n      swap3\n      jump\t// out\n        /* \"#utility.yul\":5614:6557   */\n    tag_103:\n        /* \"#utility.yul\":5709:5715   */\n      0x00\n        /* \"#utility.yul\":5717:5723   */\n      dup1\n        /* \"#utility.yul\":5725:5731   */\n      0x00\n        /* \"#utility.yul\":5733:5739   */\n      dup1\n        /* \"#utility.yul\":5782:5785   */\n      0x80\n        /* \"#utility.yul\":5770:5779   */\n      dup6\n        /* \"#utility.yul\":5761:5768   */\n      dup8\n        /* \"#utility.yul\":5757:5780   */\n      sub\n        /* \"#utility.yul\":5753:5786   */\n      slt\n        /* \"#utility.yul\":5750:5870   */\n      iszero\n      tag_393\n      jumpi\n        /* \"#utility.yul\":5789:5868   */\n      tag_394\n      tag_375\n      jump\t// in\n    tag_394:\n        /* \"#utility.yul\":5750:5870   */\n    tag_393:\n        /* \"#utility.yul\":5909:5910   */\n      0x00\n        /* \"#utility.yul\":5934:5987   */\n      tag_395\n        /* \"#utility.yul\":5979:5986   */\n      dup8\n        /* \"#utility.yul\":5970:5976   */\n      dup3\n        /* \"#utility.yul\":5959:5968   */\n      dup9\n        /* \"#utility.yul\":5955:5977   */\n      add\n        /* \"#utility.yul\":5934:5987   */\n      tag_336\n      jump\t// in\n    tag_395:\n        /* \"#utility.yul\":5924:5987   */\n      swap5\n      pop\n        /* \"#utility.yul\":5880:5997   */\n      pop\n        /* \"#utility.yul\":6036:6038   */\n      0x20\n        /* \"#utility.yul\":6062:6115   */\n      tag_396\n        /* \"#utility.yul\":6107:6114   */\n      dup8\n        /* \"#utility.yul\":6098:6104   */\n      dup3\n        /* \"#utility.yul\":6087:6096   */\n      dup9\n        /* \"#utility.yul\":6083:6105   */\n      add\n        /* \"#utility.yul\":6062:6115   */\n      tag_336\n      jump\t// in\n    tag_396:\n        /* \"#utility.yul\":6052:6115   */\n      swap4\n      pop\n        /* \"#utility.yul\":6007:6125   */\n      pop\n        /* \"#utility.yul\":6164:6166   */\n      0x40\n        /* \"#utility.yul\":6190:6243   */\n      tag_397\n        /* \"#utility.yul\":6235:6242   */\n      dup8\n        /* \"#utility.yul\":6226:6232   */\n      dup3\n        /* \"#utility.yul\":6215:6224   */\n      dup9\n        /* \"#utility.yul\":6211:6233   */\n      add\n        /* \"#utility.yul\":6190:6243   */\n      tag_368\n      jump\t// in\n    tag_397:\n        /* \"#utility.yul\":6180:6243   */\n      swap3\n      pop\n        /* \"#utility.yul\":6135:6253   */\n      pop\n        /* \"#utility.yul\":6320:6322   */\n      0x60\n        /* \"#utility.yul\":6309:6318   */\n      dup6\n        /* \"#utility.yul\":6305:6323   */\n      add\n        /* \"#utility.yul\":6292:6324   */\n      calldataload\n        /* \"#utility.yul\":6351:6369   */\n      0xffffffffffffffff\n        /* \"#utility.yul\":6343:6349   */\n      dup2\n        /* \"#utility.yul\":6340:6370   */\n      gt\n        /* \"#utility.yul\":6337:6454   */\n      iszero\n      tag_398\n      jumpi\n        /* \"#utility.yul\":6373:6452   */\n      tag_399\n      tag_400\n      jump\t// in\n    tag_399:\n        /* \"#utility.yul\":6337:6454   */\n    tag_398:\n        /* \"#utility.yul\":6478:6540   */\n      tag_401\n        /* \"#utility.yul\":6532:6539   */\n      dup8\n        /* \"#utility.yul\":6523:6529   */\n      dup3\n        /* \"#utility.yul\":6512:6521   */\n      dup9\n        /* \"#utility.yul\":6508:6530   */\n      add\n        /* \"#utility.yul\":6478:6540   */\n      tag_359\n      jump\t// in\n    tag_401:\n        /* \"#utility.yul\":6468:6540   */\n      swap2\n      pop\n        /* \"#utility.yul\":6263:6550   */\n      pop\n        /* \"#utility.yul\":5614:6557   */\n      swap3\n      swap6\n      swap2\n      swap5\n      pop\n      swap3\n      pop\n      jump\t// out\n        /* \"#utility.yul\":6563:7031   */\n    tag_99:\n        /* \"#utility.yul\":6628:6634   */\n      0x00\n        /* \"#utility.yul\":6636:6642   */\n      dup1\n        /* \"#utility.yul\":6685:6687   */\n      0x40\n        /* \"#utility.yul\":6673:6682   */\n      dup4\n        /* \"#utility.yul\":6664:6671   */\n      dup6\n        /* \"#utility.yul\":6660:6683   */\n      sub\n        /* \"#utility.yul\":6656:6688   */\n      slt\n        /* \"#utility.yul\":6653:6772   */\n      iszero\n      tag_403\n      jumpi\n        /* \"#utility.yul\":6691:6770   */\n      tag_404\n      tag_375\n      jump\t// in\n    tag_404:\n        /* \"#utility.yul\":6653:6772   */\n    tag_403:\n        /* \"#utility.yul\":6811:6812   */\n      0x00\n        /* \"#utility.yul\":6836:6889   */\n      tag_405\n        /* \"#utility.yul\":6881:6888   */\n      dup6\n        /* \"#utility.yul\":6872:6878   */\n      dup3\n        /* \"#utility.yul\":6861:6870   */\n      dup7\n        /* \"#utility.yul\":6857:6879   */\n      add\n        /* \"#utility.yul\":6836:6889   */\n      tag_336\n      jump\t// in\n    tag_405:\n        /* \"#utility.yul\":6826:6889   */\n      swap3\n      pop\n        /* \"#utility.yul\":6782:6899   */\n      pop\n        /* \"#utility.yul\":6938:6940   */\n      0x20\n        /* \"#utility.yul\":6964:7014   */\n      tag_406\n        /* \"#utility.yul\":7006:7013   */\n      dup6\n        /* \"#utility.yul\":6997:7003   */\n      dup3\n        /* \"#utility.yul\":6986:6995   */\n      dup7\n        /* \"#utility.yul\":6982:7004   */\n      add\n        /* \"#utility.yul\":6964:7014   */\n      tag_348\n      jump\t// in\n    tag_406:\n        /* \"#utility.yul\":6954:7014   */\n      swap2\n      pop\n        /* \"#utility.yul\":6909:7024   */\n      pop\n        /* \"#utility.yul\":6563:7031   */\n      swap3\n      pop\n      swap3\n      swap1\n      pop\n      jump\t// out\n        /* \"#utility.yul\":7037:7691   */\n    tag_47:\n        /* \"#utility.yul\":7115:7121   */\n      0x00\n        /* \"#utility.yul\":7123:7129   */\n      dup1\n        /* \"#utility.yul\":7172:7174   */\n      0x40\n        /* \"#utility.yul\":7160:7169   */\n      dup4\n        /* \"#utility.yul\":7151:7158   */\n      dup6\n        /* \"#utility.yul\":7147:7170   */\n      sub\n        /* \"#utility.yul\":7143:7175   */\n      slt\n        /* \"#utility.yul\":7140:7259   */\n      iszero\n      tag_408\n      jumpi\n        /* \"#utility.yul\":7178:7257   */\n      tag_409\n      tag_375\n      jump\t// in\n    tag_409:\n        /* \"#utility.yul\":7140:7259   */\n    tag_408:\n        /* \"#utility.yul\":7298:7299   */\n      0x00\n        /* \"#utility.yul\":7323:7376   */\n      tag_410\n        /* \"#utility.yul\":7368:7375   */\n      dup6\n        /* \"#utility.yul\":7359:7365   */\n      dup3\n        /* \"#utility.yul\":7348:7357   */\n      dup7\n        /* \"#utility.yul\":7344:7366   */\n      add\n        /* \"#utility.yul\":7323:7376   */\n      tag_336\n      jump\t// in\n    tag_410:\n        /* \"#utility.yul\":7313:7376   */\n      swap3\n      pop\n        /* \"#utility.yul\":7269:7386   */\n      pop\n        /* \"#utility.yul\":7453:7455   */\n      0x20\n        /* \"#utility.yul\":7442:7451   */\n      dup4\n        /* \"#utility.yul\":7438:7456   */\n      add\n        /* \"#utility.yul\":7425:7457   */\n      calldataload\n        /* \"#utility.yul\":7484:7502   */\n      0xffffffffffffffff\n        /* \"#utility.yul\":7476:7482   */\n      dup2\n        /* \"#utility.yul\":7473:7503   */\n      gt\n        /* \"#utility.yul\":7470:7587   */\n      iszero\n      tag_411\n      jumpi\n        /* \"#utility.yul\":7506:7585   */\n      tag_412\n      tag_400\n      jump\t// in\n    tag_412:\n        /* \"#utility.yul\":7470:7587   */\n    tag_411:\n        /* \"#utility.yul\":7611:7674   */\n      tag_413\n        /* \"#utility.yul\":7666:7673   */\n      dup6\n        /* \"#utility.yul\":7657:7663   */\n      dup3\n        /* \"#utility.yul\":7646:7655   */\n      dup7\n        /* \"#utility.yul\":7642:7664   */\n      add\n        /* \"#utility.yul\":7611:7674   */\n      tag_317\n      jump\t// in\n    tag_413:\n        /* \"#utility.yul\":7601:7674   */\n      swap2\n      pop\n        /* \"#utility.yul\":7396:7684   */\n      pop\n        /* \"#utility.yul\":7037:7691   */\n      swap3\n      pop\n      swap3\n      swap1\n      pop\n      jump\t// out\n        /* \"#utility.yul\":7697:8171   */\n    tag_38:\n        /* \"#utility.yul\":7765:7771   */\n      0x00\n        /* \"#utility.yul\":7773:7779   */\n      dup1\n        /* \"#utility.yul\":7822:7824   */\n      0x40\n        /* \"#utility.yul\":7810:7819   */\n      dup4\n        /* \"#utility.yul\":7801:7808   */\n      dup6\n        /* \"#utility.yul\":7797:7820   */\n      sub\n        /* \"#utility.yul\":7793:7825   */\n      slt\n        /* \"#utility.yul\":7790:7909   */\n      iszero\n      tag_415\n      jumpi\n        /* \"#utility.yul\":7828:7907   */\n      tag_416\n      tag_375\n      jump\t// in\n    tag_416:\n        /* \"#utility.yul\":7790:7909   */\n    tag_415:\n        /* \"#utility.yul\":7948:7949   */\n      0x00\n        /* \"#utility.yul\":7973:8026   */\n      tag_417\n        /* \"#utility.yul\":8018:8025   */\n      dup6\n        /* \"#utility.yul\":8009:8015   */\n      dup3\n        /* \"#utility.yul\":7998:8007   */\n      dup7\n        /* \"#utility.yul\":7994:8016   */\n      add\n        /* \"#utility.yul\":7973:8026   */\n      tag_336\n      jump\t// in\n    tag_417:\n        /* \"#utility.yul\":7963:8026   */\n      swap3\n      pop\n        /* \"#utility.yul\":7919:8036   */\n      pop\n        /* \"#utility.yul\":8075:8077   */\n      0x20\n        /* \"#utility.yul\":8101:8154   */\n      tag_418\n        /* \"#utility.yul\":8146:8153   */\n      dup6\n        /* \"#utility.yul\":8137:8143   */\n      dup3\n        /* \"#utility.yul\":8126:8135   */\n      dup7\n        /* \"#utility.yul\":8122:8144   */\n      add\n        /* \"#utility.yul\":8101:8154   */\n      tag_368\n      jump\t// in\n    tag_418:\n        /* \"#utility.yul\":8091:8154   */\n      swap2\n      pop\n        /* \"#utility.yul\":8046:8164   */\n      pop\n        /* \"#utility.yul\":7697:8171   */\n      swap3\n      pop\n      swap3\n      swap1\n      pop\n      jump\t// out\n        /* \"#utility.yul\":8177:8504   */\n    tag_25:\n        /* \"#utility.yul\":8235:8241   */\n      0x00\n        /* \"#utility.yul\":8284:8286   */\n      0x20\n        /* \"#utility.yul\":8272:8281   */\n      dup3\n        /* \"#utility.yul\":8263:8270   */\n      dup5\n        /* \"#utility.yul\":8259:8282   */\n      sub\n        /* \"#utility.yul\":8255:8287   */\n      slt\n        /* \"#utility.yul\":8252:8371   */\n      iszero\n      tag_420\n      jumpi\n        /* \"#utility.yul\":8290:8369   */\n      tag_421\n      tag_375\n      jump\t// in\n    tag_421:\n        /* \"#utility.yul\":8252:8371   */\n    tag_420:\n        /* \"#utility.yul\":8410:8411   */\n      0x00\n        /* \"#utility.yul\":8435:8487   */\n      tag_422\n        /* \"#utility.yul\":8479:8486   */\n      dup5\n        /* \"#utility.yul\":8470:8476   */\n      dup3\n        /* \"#utility.yul\":8459:8468   */\n      dup6\n        /* \"#utility.yul\":8455:8477   */\n      add\n        /* \"#utility.yul\":8435:8487   */\n      tag_352\n      jump\t// in\n    tag_422:\n        /* \"#utility.yul\":8425:8487   */\n      swap2\n      pop\n        /* \"#utility.yul\":8381:8497   */\n      pop\n        /* \"#utility.yul\":8177:8504   */\n      swap3\n      swap2\n      pop\n      pop\n      jump\t// out\n        /* \"#utility.yul\":8510:8859   */\n    tag_251:\n        /* \"#utility.yul\":8579:8585   */\n      0x00\n        /* \"#utility.yul\":8628:8630   */\n      0x20\n        /* \"#utility.yul\":8616:8625   */\n      dup3\n        /* \"#utility.yul\":8607:8614   */\n      dup5\n        /* \"#utility.yul\":8603:8626   */\n      sub\n        /* \"#utility.yul\":8599:8631   */\n      slt\n        /* \"#utility.yul\":8596:8715   */\n      iszero\n      tag_424\n      jumpi\n        /* \"#utility.yul\":8634:8713   */\n      tag_425\n      tag_375\n      jump\t// in\n    tag_425:\n        /* \"#utility.yul\":8596:8715   */\n    tag_424:\n        /* \"#utility.yul\":8754:8755   */\n      0x00\n        /* \"#utility.yul\":8779:8842   */\n      tag_426\n        /* \"#utility.yul\":8834:8841   */\n      dup5\n        /* \"#utility.yul\":8825:8831   */\n      dup3\n        /* \"#utility.yul\":8814:8823   */\n      dup6\n        /* \"#utility.yul\":8810:8832   */\n      add\n        /* \"#utility.yul\":8779:8842   */\n      tag_356\n      jump\t// in\n    tag_426:\n        /* \"#utility.yul\":8769:8842   */\n      swap2\n      pop\n        /* \"#utility.yul\":8725:8852   */\n      pop\n        /* \"#utility.yul\":8510:8859   */\n      swap3\n      swap2\n      pop\n      pop\n      jump\t// out\n        /* \"#utility.yul\":8865:9194   */\n    tag_32:\n        /* \"#utility.yul\":8924:8930   */\n      0x00\n        /* \"#utility.yul\":8973:8975   */\n      0x20\n        /* \"#utility.yul\":8961:8970   */\n      dup3\n        /* \"#utility.yul\":8952:8959   */\n      dup5\n        /* \"#utility.yul\":8948:8971   */\n      sub\n        /* \"#utility.yul\":8944:8976   */\n      slt\n        /* \"#utility.yul\":8941:9060   */\n      iszero\n      tag_428\n      jumpi\n        /* \"#utility.yul\":8979:9058   */\n      tag_429\n      tag_375\n      jump\t// in\n    tag_429:\n        /* \"#utility.yul\":8941:9060   */\n    tag_428:\n        /* \"#utility.yul\":9099:9100   */\n      0x00\n        /* \"#utility.yul\":9124:9177   */\n      tag_430\n        /* \"#utility.yul\":9169:9176   */\n      dup5\n        /* \"#utility.yul\":9160:9166   */\n      dup3\n        /* \"#utility.yul\":9149:9158   */\n      dup6\n        /* \"#utility.yul\":9145:9167   */\n      add\n        /* \"#utility.yul\":9124:9177   */\n      tag_368\n      jump\t// in\n    tag_430:\n        /* \"#utility.yul\":9114:9177   */\n      swap2\n      pop\n        /* \"#utility.yul\":9070:9187   */\n      pop\n        /* \"#utility.yul\":8865:9194   */\n      swap3\n      swap2\n      pop\n      pop\n      jump\t// out\n        /* \"#utility.yul\":9200:9904   */\n    tag_82:\n        /* \"#utility.yul\":9303:9309   */\n      0x00\n        /* \"#utility.yul\":9311:9317   */\n      dup1\n        /* \"#utility.yul\":9360:9362   */\n      0x40\n        /* \"#utility.yul\":9348:9357   */\n      dup4\n        /* \"#utility.yul\":9339:9346   */\n      dup6\n        /* \"#utility.yul\":9335:9358   */\n      sub\n        /* \"#utility.yul\":9331:9363   */\n      slt\n        /* \"#utility.yul\":9328:9447   */\n      iszero\n      tag_432\n      jumpi\n        /* \"#utility.yul\":9366:9445   */\n      tag_433\n      tag_375\n      jump\t// in\n    tag_433:\n        /* \"#utility.yul\":9328:9447   */\n    tag_432:\n        /* \"#utility.yul\":9486:9487   */\n      0x00\n        /* \"#utility.yul\":9511:9564   */\n      tag_434\n        /* \"#utility.yul\":9556:9563   */\n      dup6\n        /* \"#utility.yul\":9547:9553   */\n      dup3\n        /* \"#utility.yul\":9536:9545   */\n      dup7\n        /* \"#utility.yul\":9532:9554   */\n      add\n        /* \"#utility.yul\":9511:9564   */\n      tag_368\n      jump\t// in\n    tag_434:\n        /* \"#utility.yul\":9501:9564   */\n      swap3\n      pop\n        /* \"#utility.yul\":9457:9574   */\n      pop\n        /* \"#utility.yul\":9641:9643   */\n      0x20\n        /* \"#utility.yul\":9630:9639   */\n      dup4\n        /* \"#utility.yul\":9626:9644   */\n      add\n        /* \"#utility.yul\":9613:9645   */\n      calldataload\n        /* \"#utility.yul\":9672:9690   */\n      0xffffffffffffffff\n        /* \"#utility.yul\":9664:9670   */\n      dup2\n        /* \"#utility.yul\":9661:9691   */\n      gt\n        /* \"#utility.yul\":9658:9775   */\n      iszero\n      tag_435\n      jumpi\n        /* \"#utility.yul\":9694:9773   */\n      tag_436\n      tag_400\n      jump\t// in\n    tag_436:\n        /* \"#utility.yul\":9658:9775   */\n    tag_435:\n        /* \"#utility.yul\":9799:9887   */\n      tag_437\n        /* \"#utility.yul\":9879:9886   */\n      dup6\n        /* \"#utility.yul\":9870:9876   */\n      dup3\n        /* \"#utility.yul\":9859:9868   */\n      dup7\n        /* \"#utility.yul\":9855:9877   */\n      add\n        /* \"#utility.yul\":9799:9887   */\n      tag_343\n      jump\t// in\n    tag_437:\n        /* \"#utility.yul\":9789:9887   */\n      swap2\n      pop\n        /* \"#utility.yul\":9584:9897   */\n      pop\n        /* \"#utility.yul\":9200:9904   */\n      swap3\n      pop\n      swap3\n      swap1\n      pop\n      jump\t// out\n        /* \"#utility.yul\":9910:10106   */\n    tag_438:\n        /* \"#utility.yul\":9999:10009   */\n      0x00\n        /* \"#utility.yul\":10034:10100   */\n      tag_440\n        /* \"#utility.yul\":10096:10099   */\n      dup4\n        /* \"#utility.yul\":10088:10094   */\n      dup4\n        /* \"#utility.yul\":10034:10100   */\n      tag_441\n      jump\t// in\n    tag_440:\n        /* \"#utility.yul\":10020:10100   */\n      swap1\n      pop\n        /* \"#utility.yul\":9910:10106   */\n      swap3\n      swap2\n      pop\n      pop\n      jump\t// out\n        /* \"#utility.yul\":10112:10291   */\n    tag_442:\n        /* \"#utility.yul\":10181:10191   */\n      0x00\n        /* \"#utility.yul\":10202:10248   */\n      tag_444\n        /* \"#utility.yul\":10244:10247   */\n      dup4\n        /* \"#utility.yul\":10236:10242   */\n      dup4\n        /* \"#utility.yul\":10202:10248   */\n      tag_445\n      jump\t// in\n    tag_444:\n        /* \"#utility.yul\":10280:10284   */\n      0x20\n        /* \"#utility.yul\":10275:10278   */\n      dup4\n        /* \"#utility.yul\":10271:10285   */\n      add\n        /* \"#utility.yul\":10257:10285   */\n      swap1\n      pop\n        /* \"#utility.yul\":10112:10291   */\n      swap3\n      swap2\n      pop\n      pop\n      jump\t// out\n        /* \"#utility.yul\":10297:10415   */\n    tag_446:\n        /* \"#utility.yul\":10384:10408   */\n      tag_448\n        /* \"#utility.yul\":10402:10407   */\n      dup2\n        /* \"#utility.yul\":10384:10408   */\n      tag_449\n      jump\t// in\n    tag_448:\n        /* \"#utility.yul\":10379:10382   */\n      dup3\n        /* \"#utility.yul\":10372:10409   */\n      mstore\n        /* \"#utility.yul\":10297:10415   */\n      pop\n      pop\n      jump\t// out\n        /* \"#utility.yul\":10449:11440   */\n    tag_450:\n        /* \"#utility.yul\":10588:10591   */\n      0x00\n        /* \"#utility.yul\":10617:10681   */\n      tag_452\n        /* \"#utility.yul\":10675:10680   */\n      dup3\n        /* \"#utility.yul\":10617:10681   */\n      tag_453\n      jump\t// in\n    tag_452:\n        /* \"#utility.yul\":10697:10793   */\n      tag_454\n        /* \"#utility.yul\":10786:10792   */\n      dup2\n        /* \"#utility.yul\":10781:10784   */\n      dup6\n        /* \"#utility.yul\":10697:10793   */\n      tag_455\n      jump\t// in\n    tag_454:\n        /* \"#utility.yul\":10690:10793   */\n      swap4\n      pop\n        /* \"#utility.yul\":10819:10822   */\n      dup4\n        /* \"#utility.yul\":10864:10868   */\n      0x20\n        /* \"#utility.yul\":10856:10862   */\n      dup3\n        /* \"#utility.yul\":10852:10869   */\n      mul\n        /* \"#utility.yul\":10847:10850   */\n      dup6\n        /* \"#utility.yul\":10843:10870   */\n      add\n        /* \"#utility.yul\":10894:10960   */\n      tag_456\n        /* \"#utility.yul\":10954:10959   */\n      dup6\n        /* \"#utility.yul\":10894:10960   */\n      tag_457\n      jump\t// in\n    tag_456:\n        /* \"#utility.yul\":10983:10990   */\n      dup1\n        /* \"#utility.yul\":11014:11015   */\n      0x00\n        /* \"#utility.yul\":10999:11395   */\n    tag_458:\n        /* \"#utility.yul\":11024:11030   */\n      dup6\n        /* \"#utility.yul\":11021:11022   */\n      dup2\n        /* \"#utility.yul\":11018:11031   */\n      lt\n        /* \"#utility.yul\":10999:11395   */\n      iszero\n      tag_460\n      jumpi\n        /* \"#utility.yul\":11095:11104   */\n      dup5\n        /* \"#utility.yul\":11089:11093   */\n      dup5\n        /* \"#utility.yul\":11085:11105   */\n      sub\n        /* \"#utility.yul\":11080:11083   */\n      dup10\n        /* \"#utility.yul\":11073:11106   */\n      mstore\n        /* \"#utility.yul\":11146:11152   */\n      dup2\n        /* \"#utility.yul\":11140:11153   */\n      mload\n        /* \"#utility.yul\":11174:11258   */\n      tag_461\n        /* \"#utility.yul\":11253:11257   */\n      dup6\n        /* \"#utility.yul\":11238:11251   */\n      dup3\n        /* \"#utility.yul\":11174:11258   */\n      tag_438\n      jump\t// in\n    tag_461:\n        /* \"#utility.yul\":11166:11258   */\n      swap5\n      pop\n        /* \"#utility.yul\":11281:11351   */\n      tag_462\n        /* \"#utility.yul\":11344:11350   */\n      dup4\n        /* \"#utility.yul\":11281:11351   */\n      tag_463\n      jump\t// in\n    tag_462:\n        /* \"#utility.yul\":11271:11351   */\n      swap3\n      pop\n        /* \"#utility.yul\":11380:11384   */\n      0x20\n        /* \"#utility.yul\":11375:11378   */\n      dup11\n        /* \"#utility.yul\":11371:11385   */\n      add\n        /* \"#utility.yul\":11364:11385   */\n      swap10\n      pop\n        /* \"#utility.yul\":11059:11395   */\n      pop\n        /* \"#utility.yul\":11046:11047   */\n      0x01\n        /* \"#utility.yul\":11043:11044   */\n      dup2\n        /* \"#utility.yul\":11039:11048   */\n      add\n        /* \"#utility.yul\":11034:11048   */\n      swap1\n      pop\n        /* \"#utility.yul\":10999:11395   */\n      jump(tag_458)\n    tag_460:\n        /* \"#utility.yul\":11003:11017   */\n      pop\n        /* \"#utility.yul\":11411:11415   */\n      dup3\n        /* \"#utility.yul\":11404:11415   */\n      swap8\n      pop\n        /* \"#utility.yul\":11431:11434   */\n      dup8\n        /* \"#utility.yul\":11424:11434   */\n      swap6\n      pop\n        /* \"#utility.yul\":10593:11440   */\n      pop\n      pop\n      pop\n      pop\n      pop\n        /* \"#utility.yul\":10449:11440   */\n      swap3\n      swap2\n      pop\n      pop\n      jump\t// out\n        /* \"#utility.yul\":11476:12208   */\n    tag_464:\n        /* \"#utility.yul\":11595:11598   */\n      0x00\n        /* \"#utility.yul\":11624:11678   */\n      tag_466\n        /* \"#utility.yul\":11672:11677   */\n      dup3\n        /* \"#utility.yul\":11624:11678   */\n      tag_467\n      jump\t// in\n    tag_466:\n        /* \"#utility.yul\":11694:11780   */\n      tag_468\n        /* \"#utility.yul\":11773:11779   */\n      dup2\n        /* \"#utility.yul\":11768:11771   */\n      dup6\n        /* \"#utility.yul\":11694:11780   */\n      tag_469\n      jump\t// in\n    tag_468:\n        /* \"#utility.yul\":11687:11780   */\n      swap4\n      pop\n        /* \"#utility.yul\":11804:11860   */\n      tag_470\n        /* \"#utility.yul\":11854:11859   */\n      dup4\n        /* \"#utility.yul\":11804:11860   */\n      tag_471\n      jump\t// in\n    tag_470:\n        /* \"#utility.yul\":11883:11890   */\n      dup1\n        /* \"#utility.yul\":11914:11915   */\n      0x00\n        /* \"#utility.yul\":11899:12183   */\n    tag_472:\n        /* \"#utility.yul\":11924:11930   */\n      dup4\n        /* \"#utility.yul\":11921:11922   */\n      dup2\n        /* \"#utility.yul\":11918:11931   */\n      lt\n        /* \"#utility.yul\":11899:12183   */\n      iszero\n      tag_474\n      jumpi\n        /* \"#utility.yul\":12000:12006   */\n      dup2\n        /* \"#utility.yul\":11994:12007   */\n      mload\n        /* \"#utility.yul\":12027:12090   */\n      tag_475\n        /* \"#utility.yul\":12086:12089   */\n      dup9\n        /* \"#utility.yul\":12071:12084   */\n      dup3\n        /* \"#utility.yul\":12027:12090   */\n      tag_442\n      jump\t// in\n    tag_475:\n        /* \"#utility.yul\":12020:12090   */\n      swap8\n      pop\n        /* \"#utility.yul\":12113:12173   */\n      tag_476\n        /* \"#utility.yul\":12166:12172   */\n      dup4\n        /* \"#utility.yul\":12113:12173   */\n      tag_477\n      jump\t// in\n    tag_476:\n        /* \"#utility.yul\":12103:12173   */\n      swap3\n      pop\n        /* \"#utility.yul\":11959:12183   */\n      pop\n        /* \"#utility.yul\":11946:11947   */\n      0x01\n        /* \"#utility.yul\":11943:11944   */\n      dup2\n        /* \"#utility.yul\":11939:11948   */\n      add\n        /* \"#utility.yul\":11934:11948   */\n      swap1\n      pop\n        /* \"#utility.yul\":11899:12183   */\n      jump(tag_472)\n    tag_474:\n        /* \"#utility.yul\":11903:11917   */\n      pop\n        /* \"#utility.yul\":12199:12202   */\n      dup6\n        /* \"#utility.yul\":12192:12202   */\n      swap4\n      pop\n        /* \"#utility.yul\":11600:12208   */\n      pop\n      pop\n      pop\n        /* \"#utility.yul\":11476:12208   */\n      swap3\n      swap2\n      pop\n      pop\n      jump\t// out\n        /* \"#utility.yul\":12214:12323   */\n    tag_478:\n        /* \"#utility.yul\":12295:12316   */\n      tag_480\n        /* \"#utility.yul\":12310:12315   */\n      dup2\n        /* \"#utility.yul\":12295:12316   */\n      tag_481\n      jump\t// in\n    tag_480:\n        /* \"#utility.yul\":12290:12293   */\n      dup3\n        /* \"#utility.yul\":12283:12317   */\n      mstore\n        /* \"#utility.yul\":12214:12323   */\n      pop\n      pop\n      jump\t// out\n        /* \"#utility.yul\":12329:12689   */\n    tag_482:\n        /* \"#utility.yul\":12415:12418   */\n      0x00\n        /* \"#utility.yul\":12443:12481   */\n      tag_484\n        /* \"#utility.yul\":12475:12480   */\n      dup3\n        /* \"#utility.yul\":12443:12481   */\n      tag_485\n      jump\t// in\n    tag_484:\n        /* \"#utility.yul\":12497:12567   */\n      tag_486\n        /* \"#utility.yul\":12560:12566   */\n      dup2\n        /* \"#utility.yul\":12555:12558   */\n      dup6\n        /* \"#utility.yul\":12497:12567   */\n      tag_487\n      jump\t// in\n    tag_486:\n        /* \"#utility.yul\":12490:12567   */\n      swap4\n      pop\n        /* \"#utility.yul\":12576:12628   */\n      tag_488\n        /* \"#utility.yul\":12621:12627   */\n      dup2\n        /* \"#utility.yul\":12616:12619   */\n      dup6\n        /* \"#utility.yul\":12609:12613   */\n      0x20\n        /* \"#utility.yul\":12602:12607   */\n      dup7\n        /* \"#utility.yul\":12598:12614   */\n      add\n        /* \"#utility.yul\":12576:12628   */\n      tag_489\n      jump\t// in\n    tag_488:\n        /* \"#utility.yul\":12653:12682   */\n      tag_490\n        /* \"#utility.yul\":12675:12681   */\n      dup2\n        /* \"#utility.yul\":12653:12682   */\n      tag_491\n      jump\t// in\n    tag_490:\n        /* \"#utility.yul\":12648:12651   */\n      dup5\n        /* \"#utility.yul\":12644:12683   */\n      add\n        /* \"#utility.yul\":12637:12683   */\n      swap2\n      pop\n        /* \"#utility.yul\":12419:12689   */\n      pop\n        /* \"#utility.yul\":12329:12689   */\n      swap3\n      swap2\n      pop\n      pop\n      jump\t// out\n        /* \"#utility.yul\":12695:13039   */\n    tag_441:\n        /* \"#utility.yul\":12773:12776   */\n      0x00\n        /* \"#utility.yul\":12801:12840   */\n      tag_493\n        /* \"#utility.yul\":12834:12839   */\n      dup3\n        /* \"#utility.yul\":12801:12840   */\n      tag_494\n      jump\t// in\n    tag_493:\n        /* \"#utility.yul\":12856:12917   */\n      tag_495\n        /* \"#utility.yul\":12910:12916   */\n      dup2\n        /* \"#utility.yul\":12905:12908   */\n      dup6\n        /* \"#utility.yul\":12856:12917   */\n      tag_496\n      jump\t// in\n    tag_495:\n        /* \"#utility.yul\":12849:12917   */\n      swap4\n      pop\n        /* \"#utility.yul\":12926:12978   */\n      tag_497\n        /* \"#utility.yul\":12971:12977   */\n      dup2\n        /* \"#utility.yul\":12966:12969   */\n      dup6\n        /* \"#utility.yul\":12959:12963   */\n      0x20\n        /* \"#utility.yul\":12952:12957   */\n      dup7\n        /* \"#utility.yul\":12948:12964   */\n      add\n        /* \"#utility.yul\":12926:12978   */\n      tag_489\n      jump\t// in\n    tag_497:\n        /* \"#utility.yul\":13003:13032   */\n      tag_498\n        /* \"#utility.yul\":13025:13031   */\n      dup2\n        /* \"#utility.yul\":13003:13032   */\n      tag_491\n      jump\t// in\n    tag_498:\n        /* \"#utility.yul\":12998:13001   */\n      dup5\n        /* \"#utility.yul\":12994:13033   */\n      add\n        /* \"#utility.yul\":12987:13033   */\n      swap2\n      pop\n        /* \"#utility.yul\":12777:13039   */\n      pop\n        /* \"#utility.yul\":12695:13039   */\n      swap3\n      swap2\n      pop\n      pop\n      jump\t// out\n        /* \"#utility.yul\":13045:13409   */\n    tag_499:\n        /* \"#utility.yul\":13133:13136   */\n      0x00\n        /* \"#utility.yul\":13161:13200   */\n      tag_501\n        /* \"#utility.yul\":13194:13199   */\n      dup3\n        /* \"#utility.yul\":13161:13200   */\n      tag_494\n      jump\t// in\n    tag_501:\n        /* \"#utility.yul\":13216:13287   */\n      tag_502\n        /* \"#utility.yul\":13280:13286   */\n      dup2\n        /* \"#utility.yul\":13275:13278   */\n      dup6\n        /* \"#utility.yul\":13216:13287   */\n      tag_503\n      jump\t// in\n    tag_502:\n        /* \"#utility.yul\":13209:13287   */\n      swap4\n      pop\n        /* \"#utility.yul\":13296:13348   */\n      tag_504\n        /* \"#utility.yul\":13341:13347   */\n      dup2\n        /* \"#utility.yul\":13336:13339   */\n      dup6\n        /* \"#utility.yul\":13329:13333   */\n      0x20\n        /* \"#utility.yul\":13322:13327   */\n      dup7\n        /* \"#utility.yul\":13318:13334   */\n      add\n        /* \"#utility.yul\":13296:13348   */\n      tag_489\n      jump\t// in\n    tag_504:\n        /* \"#utility.yul\":13373:13402   */\n      tag_505\n        /* \"#utility.yul\":13395:13401   */\n      dup2\n        /* \"#utility.yul\":13373:13402   */\n      tag_491\n      jump\t// in\n    tag_505:\n        /* \"#utility.yul\":13368:13371   */\n      dup5\n        /* \"#utility.yul\":13364:13403   */\n      add\n        /* \"#utility.yul\":13357:13403   */\n      swap2\n      pop\n        /* \"#utility.yul\":13137:13409   */\n      pop\n        /* \"#utility.yul\":13045:13409   */\n      swap3\n      swap2\n      pop\n      pop\n      jump\t// out\n        /* \"#utility.yul\":13415:13792   */\n    tag_506:\n        /* \"#utility.yul\":13521:13524   */\n      0x00\n        /* \"#utility.yul\":13549:13588   */\n      tag_508\n        /* \"#utility.yul\":13582:13587   */\n      dup3\n        /* \"#utility.yul\":13549:13588   */\n      tag_494\n      jump\t// in\n    tag_508:\n        /* \"#utility.yul\":13604:13693   */\n      tag_509\n        /* \"#utility.yul\":13686:13692   */\n      dup2\n        /* \"#utility.yul\":13681:13684   */\n      dup6\n        /* \"#utility.yul\":13604:13693   */\n      tag_510\n      jump\t// in\n    tag_509:\n        /* \"#utility.yul\":13597:13693   */\n      swap4\n      pop\n        /* \"#utility.yul\":13702:13754   */\n      tag_511\n        /* \"#utility.yul\":13747:13753   */\n      dup2\n        /* \"#utility.yul\":13742:13745   */\n      dup6\n        /* \"#utility.yul\":13735:13739   */\n      0x20\n        /* \"#utility.yul\":13728:13733   */\n      dup7\n        /* \"#utility.yul\":13724:13740   */\n      add\n        /* \"#utility.yul\":13702:13754   */\n      tag_489\n      jump\t// in\n    tag_511:\n        /* \"#utility.yul\":13779:13785   */\n      dup1\n        /* \"#utility.yul\":13774:13777   */\n      dup5\n        /* \"#utility.yul\":13770:13786   */\n      add\n        /* \"#utility.yul\":13763:13786   */\n      swap2\n      pop\n        /* \"#utility.yul\":13525:13792   */\n      pop\n        /* \"#utility.yul\":13415:13792   */\n      swap3\n      swap2\n      pop\n      pop\n      jump\t// out\n        /* \"#utility.yul\":13822:14667   */\n    tag_512:\n        /* \"#utility.yul\":13925:13928   */\n      0x00\n        /* \"#utility.yul\":13962:13967   */\n      dup2\n        /* \"#utility.yul\":13956:13968   */\n      sload\n        /* \"#utility.yul\":13991:14027   */\n      tag_514\n        /* \"#utility.yul\":14017:14026   */\n      dup2\n        /* \"#utility.yul\":13991:14027   */\n      tag_187\n      jump\t// in\n    tag_514:\n        /* \"#utility.yul\":14043:14132   */\n      tag_515\n        /* \"#utility.yul\":14125:14131   */\n      dup2\n        /* \"#utility.yul\":14120:14123   */\n      dup7\n        /* \"#utility.yul\":14043:14132   */\n      tag_510\n      jump\t// in\n    tag_515:\n        /* \"#utility.yul\":14036:14132   */\n      swap5\n      pop\n        /* \"#utility.yul\":14163:14164   */\n      0x01\n        /* \"#utility.yul\":14152:14161   */\n      dup3\n        /* \"#utility.yul\":14148:14165   */\n      and\n        /* \"#utility.yul\":14179:14180   */\n      0x00\n        /* \"#utility.yul\":14174:14311   */\n      dup2\n      eq\n      tag_517\n      jumpi\n        /* \"#utility.yul\":14325:14326   */\n      0x01\n        /* \"#utility.yul\":14320:14661   */\n      dup2\n      eq\n      tag_518\n      jumpi\n        /* \"#utility.yul\":14141:14661   */\n      jump(tag_516)\n        /* \"#utility.yul\":14174:14311   */\n    tag_517:\n        /* \"#utility.yul\":14258:14262   */\n      0xff\n        /* \"#utility.yul\":14254:14263   */\n      not\n        /* \"#utility.yul\":14243:14252   */\n      dup4\n        /* \"#utility.yul\":14239:14264   */\n      and\n        /* \"#utility.yul\":14234:14237   */\n      dup7\n        /* \"#utility.yul\":14227:14265   */\n      mstore\n        /* \"#utility.yul\":14294:14300   */\n      dup2\n        /* \"#utility.yul\":14289:14292   */\n      dup7\n        /* \"#utility.yul\":14285:14301   */\n      add\n        /* \"#utility.yul\":14278:14301   */\n      swap4\n      pop\n        /* \"#utility.yul\":14174:14311   */\n      jump(tag_516)\n        /* \"#utility.yul\":14320:14661   */\n    tag_518:\n        /* \"#utility.yul\":14387:14425   */\n      tag_519\n        /* \"#utility.yul\":14419:14424   */\n      dup6\n        /* \"#utility.yul\":14387:14425   */\n      tag_520\n      jump\t// in\n    tag_519:\n        /* \"#utility.yul\":14447:14448   */\n      0x00\n        /* \"#utility.yul\":14461:14615   */\n    tag_521:\n        /* \"#utility.yul\":14475:14481   */\n      dup4\n        /* \"#utility.yul\":14472:14473   */\n      dup2\n        /* \"#utility.yul\":14469:14482   */\n      lt\n        /* \"#utility.yul\":14461:14615   */\n      iszero\n      tag_523\n      jumpi\n        /* \"#utility.yul\":14549:14556   */\n      dup2\n        /* \"#utility.yul\":14543:14557   */\n      sload\n        /* \"#utility.yul\":14539:14540   */\n      dup2\n        /* \"#utility.yul\":14534:14537   */\n      dup10\n        /* \"#utility.yul\":14530:14541   */\n      add\n        /* \"#utility.yul\":14523:14558   */\n      mstore\n        /* \"#utility.yul\":14599:14600   */\n      0x01\n        /* \"#utility.yul\":14590:14597   */\n      dup3\n        /* \"#utility.yul\":14586:14601   */\n      add\n        /* \"#utility.yul\":14575:14601   */\n      swap2\n      pop\n        /* \"#utility.yul\":14497:14501   */\n      0x20\n        /* \"#utility.yul\":14494:14495   */\n      dup2\n        /* \"#utility.yul\":14490:14502   */\n      add\n        /* \"#utility.yul\":14485:14502   */\n      swap1\n      pop\n        /* \"#utility.yul\":14461:14615   */\n      jump(tag_521)\n    tag_523:\n        /* \"#utility.yul\":14644:14650   */\n      dup4\n        /* \"#utility.yul\":14639:14642   */\n      dup9\n        /* \"#utility.yul\":14635:14651   */\n      add\n        /* \"#utility.yul\":14628:14651   */\n      swap6\n      pop\n        /* \"#utility.yul\":14327:14661   */\n      pop\n      pop\n        /* \"#utility.yul\":14141:14661   */\n    tag_516:\n      pop\n        /* \"#utility.yul\":13929:14667   */\n      pop\n      pop\n        /* \"#utility.yul\":13822:14667   */\n      swap3\n      swap2\n      pop\n      pop\n      jump\t// out\n        /* \"#utility.yul\":14673:15039   */\n    tag_524:\n        /* \"#utility.yul\":14815:14818   */\n      0x00\n        /* \"#utility.yul\":14836:14903   */\n      tag_526\n        /* \"#utility.yul\":14900:14902   */\n      0x19\n        /* \"#utility.yul\":14895:14898   */\n      dup4\n        /* \"#utility.yul\":14836:14903   */\n      tag_503\n      jump\t// in\n    tag_526:\n        /* \"#utility.yul\":14829:14903   */\n      swap2\n      pop\n        /* \"#utility.yul\":14912:15005   */\n      tag_527\n        /* \"#utility.yul\":15001:15004   */\n      dup3\n        /* \"#utility.yul\":14912:15005   */\n      tag_528\n      jump\t// in\n    tag_527:\n        /* \"#utility.yul\":15030:15032   */\n      0x20\n        /* \"#utility.yul\":15025:15028   */\n      dup3\n        /* \"#utility.yul\":15021:15033   */\n      add\n        /* \"#utility.yul\":15014:15033   */\n      swap1\n      pop\n        /* \"#utility.yul\":14673:15039   */\n      swap2\n      swap1\n      pop\n      jump\t// out\n        /* \"#utility.yul\":15045:15411   */\n    tag_529:\n        /* \"#utility.yul\":15187:15190   */\n      0x00\n        /* \"#utility.yul\":15208:15275   */\n      tag_531\n        /* \"#utility.yul\":15272:15274   */\n      0x38\n        /* \"#utility.yul\":15267:15270   */\n      dup4\n        /* \"#utility.yul\":15208:15275   */\n      tag_503\n      jump\t// in\n    tag_531:\n        /* \"#utility.yul\":15201:15275   */\n      swap2\n      pop\n        /* \"#utility.yul\":15284:15377   */\n      tag_532\n        /* \"#utility.yul\":15373:15376   */\n      dup3\n        /* \"#utility.yul\":15284:15377   */\n      tag_533\n      jump\t// in\n    tag_532:\n        /* \"#utility.yul\":15402:15404   */\n      0x40\n        /* \"#utility.yul\":15397:15400   */\n      dup3\n        /* \"#utility.yul\":15393:15405   */\n      add\n        /* \"#utility.yul\":15386:15405   */\n      swap1\n      pop\n        /* \"#utility.yul\":15045:15411   */\n      swap2\n      swap1\n      pop\n      jump\t// out\n        /* \"#utility.yul\":15417:15783   */\n    tag_534:\n        /* \"#utility.yul\":15559:15562   */\n      0x00\n        /* \"#utility.yul\":15580:15647   */\n      tag_536\n        /* \"#utility.yul\":15644:15646   */\n      0x29\n        /* \"#utility.yul\":15639:15642   */\n      dup4\n        /* \"#utility.yul\":15580:15647   */\n      tag_503\n      jump\t// in\n    tag_536:\n        /* \"#utility.yul\":15573:15647   */\n      swap2\n      pop\n        /* \"#utility.yul\":15656:15749   */\n      tag_537\n        /* \"#utility.yul\":15745:15748   */\n      dup3\n        /* \"#utility.yul\":15656:15749   */\n      tag_538\n      jump\t// in\n    tag_537:\n        /* \"#utility.yul\":15774:15776   */\n      0x40\n        /* \"#utility.yul\":15769:15772   */\n      dup3\n        /* \"#utility.yul\":15765:15777   */\n      add\n        /* \"#utility.yul\":15758:15777   */\n      swap1\n      pop\n        /* \"#utility.yul\":15417:15783   */\n      swap2\n      swap1\n      pop\n      jump\t// out\n        /* \"#utility.yul\":15789:16155   */\n    tag_539:\n        /* \"#utility.yul\":15931:15934   */\n      0x00\n        /* \"#utility.yul\":15952:16019   */\n      tag_541\n        /* \"#utility.yul\":16016:16018   */\n      0x21\n        /* \"#utility.yul\":16011:16014   */\n      dup4\n        /* \"#utility.yul\":15952:16019   */\n      tag_503\n      jump\t// in\n    tag_541:\n        /* \"#utility.yul\":15945:16019   */\n      swap2\n      pop\n        /* \"#utility.yul\":16028:16121   */\n      tag_542\n        /* \"#utility.yul\":16117:16120   */\n      dup3\n        /* \"#utility.yul\":16028:16121   */\n      tag_543\n      jump\t// in\n    tag_542:\n        /* \"#utility.yul\":16146:16148   */\n      0x40\n        /* \"#utility.yul\":16141:16144   */\n      dup3\n        /* \"#utility.yul\":16137:16149   */\n      add\n        /* \"#utility.yul\":16130:16149   */\n      swap1\n      pop\n        /* \"#utility.yul\":15789:16155   */\n      swap2\n      swap1\n      pop\n      jump\t// out\n        /* \"#utility.yul\":16161:16527   */\n    tag_544:\n        /* \"#utility.yul\":16303:16306   */\n      0x00\n        /* \"#utility.yul\":16324:16391   */\n      tag_546\n        /* \"#utility.yul\":16388:16390   */\n      0x31\n        /* \"#utility.yul\":16383:16386   */\n      dup4\n        /* \"#utility.yul\":16324:16391   */\n      tag_503\n      jump\t// in\n    tag_546:\n        /* \"#utility.yul\":16317:16391   */\n      swap2\n      pop\n        /* \"#utility.yul\":16400:16493   */\n      tag_547\n        /* \"#utility.yul\":16489:16492   */\n      dup3\n        /* \"#utility.yul\":16400:16493   */\n      tag_548\n      jump\t// in\n    tag_547:\n        /* \"#utility.yul\":16518:16520   */\n      0x40\n        /* \"#utility.yul\":16513:16516   */\n      dup3\n        /* \"#utility.yul\":16509:16521   */\n      add\n        /* \"#utility.yul\":16502:16521   */\n      swap1\n      pop\n        /* \"#utility.yul\":16161:16527   */\n      swap2\n      swap1\n      pop\n      jump\t// out\n        /* \"#utility.yul\":16533:16899   */\n    tag_549:\n        /* \"#utility.yul\":16675:16678   */\n      0x00\n        /* \"#utility.yul\":16696:16763   */\n      tag_551\n        /* \"#utility.yul\":16760:16762   */\n      0x13\n        /* \"#utility.yul\":16755:16758   */\n      dup4\n        /* \"#utility.yul\":16696:16763   */\n      tag_503\n      jump\t// in\n    tag_551:\n        /* \"#utility.yul\":16689:16763   */\n      swap2\n      pop\n        /* \"#utility.yul\":16772:16865   */\n      tag_552\n        /* \"#utility.yul\":16861:16864   */\n      dup3\n        /* \"#utility.yul\":16772:16865   */\n      tag_553\n      jump\t// in\n    tag_552:\n        /* \"#utility.yul\":16890:16892   */\n      0x20\n        /* \"#utility.yul\":16885:16888   */\n      dup3\n        /* \"#utility.yul\":16881:16893   */\n      add\n        /* \"#utility.yul\":16874:16893   */\n      swap1\n      pop\n        /* \"#utility.yul\":16533:16899   */\n      swap2\n      swap1\n      pop\n      jump\t// out\n        /* \"#utility.yul\":16905:17271   */\n    tag_554:\n        /* \"#utility.yul\":17047:17050   */\n      0x00\n        /* \"#utility.yul\":17068:17135   */\n      tag_556\n        /* \"#utility.yul\":17132:17134   */\n      0x18\n        /* \"#utility.yul\":17127:17130   */\n      dup4\n        /* \"#utility.yul\":17068:17135   */\n      tag_503\n      jump\t// in\n    tag_556:\n        /* \"#utility.yul\":17061:17135   */\n      swap2\n      pop\n        /* \"#utility.yul\":17144:17237   */\n      tag_557\n        /* \"#utility.yul\":17233:17236   */\n      dup3\n        /* \"#utility.yul\":17144:17237   */\n      tag_558\n      jump\t// in\n    tag_557:\n        /* \"#utility.yul\":17262:17264   */\n      0x20\n        /* \"#utility.yul\":17257:17260   */\n      dup3\n        /* \"#utility.yul\":17253:17265   */\n      add\n        /* \"#utility.yul\":17246:17265   */\n      swap1\n      pop\n        /* \"#utility.yul\":16905:17271   */\n      swap2\n      swap1\n      pop\n      jump\t// out\n        /* \"#utility.yul\":17277:17385   */\n    tag_445:\n        /* \"#utility.yul\":17354:17378   */\n      tag_560\n        /* \"#utility.yul\":17372:17377   */\n      dup2\n        /* \"#utility.yul\":17354:17378   */\n      tag_561\n      jump\t// in\n    tag_560:\n        /* \"#utility.yul\":17349:17352   */\n      dup3\n        /* \"#utility.yul\":17342:17379   */\n      mstore\n        /* \"#utility.yul\":17277:17385   */\n      pop\n      pop\n      jump\t// out\n        /* \"#utility.yul\":17391:17509   */\n    tag_562:\n        /* \"#utility.yul\":17478:17502   */\n      tag_564\n        /* \"#utility.yul\":17496:17501   */\n      dup2\n        /* \"#utility.yul\":17478:17502   */\n      tag_561\n      jump\t// in\n    tag_564:\n        /* \"#utility.yul\":17473:17476   */\n      dup3\n        /* \"#utility.yul\":17466:17503   */\n      mstore\n        /* \"#utility.yul\":17391:17509   */\n      pop\n      pop\n      jump\t// out\n        /* \"#utility.yul\":17515:17944   */\n    tag_153:\n        /* \"#utility.yul\":17692:17695   */\n      0x00\n        /* \"#utility.yul\":17714:17809   */\n      tag_566\n        /* \"#utility.yul\":17805:17808   */\n      dup3\n        /* \"#utility.yul\":17796:17802   */\n      dup6\n        /* \"#utility.yul\":17714:17809   */\n      tag_506\n      jump\t// in\n    tag_566:\n        /* \"#utility.yul\":17707:17809   */\n      swap2\n      pop\n        /* \"#utility.yul\":17826:17918   */\n      tag_567\n        /* \"#utility.yul\":17914:17917   */\n      dup3\n        /* \"#utility.yul\":17905:17911   */\n      dup5\n        /* \"#utility.yul\":17826:17918   */\n      tag_512\n      jump\t// in\n    tag_567:\n        /* \"#utility.yul\":17819:17918   */\n      swap2\n      pop\n        /* \"#utility.yul\":17935:17938   */\n      dup2\n        /* \"#utility.yul\":17928:17938   */\n      swap1\n      pop\n        /* \"#utility.yul\":17515:17944   */\n      swap4\n      swap3\n      pop\n      pop\n      pop\n      jump\t// out\n        /* \"#utility.yul\":17950:18219   */\n    tag_264:\n        /* \"#utility.yul\":18079:18082   */\n      0x00\n        /* \"#utility.yul\":18101:18193   */\n      tag_569\n        /* \"#utility.yul\":18189:18192   */\n      dup3\n        /* \"#utility.yul\":18180:18186   */\n      dup5\n        /* \"#utility.yul\":18101:18193   */\n      tag_512\n      jump\t// in\n    tag_569:\n        /* \"#utility.yul\":18094:18193   */\n      swap2\n      pop\n        /* \"#utility.yul\":18210:18213   */\n      dup2\n        /* \"#utility.yul\":18203:18213   */\n      swap1\n      pop\n        /* \"#utility.yul\":17950:18219   */\n      swap3\n      swap2\n      pop\n      pop\n      jump\t// out\n        /* \"#utility.yul\":18225:18447   */\n    tag_35:\n        /* \"#utility.yul\":18318:18322   */\n      0x00\n        /* \"#utility.yul\":18356:18358   */\n      0x20\n        /* \"#utility.yul\":18345:18354   */\n      dup3\n        /* \"#utility.yul\":18341:18359   */\n      add\n        /* \"#utility.yul\":18333:18359   */\n      swap1\n      pop\n        /* \"#utility.yul\":18369:18440   */\n      tag_571\n        /* \"#utility.yul\":18437:18438   */\n      0x00\n        /* \"#utility.yul\":18426:18435   */\n      dup4\n        /* \"#utility.yul\":18422:18439   */\n      add\n        /* \"#utility.yul\":18413:18419   */\n      dup5\n        /* \"#utility.yul\":18369:18440   */\n      tag_446\n      jump\t// in\n    tag_571:\n        /* \"#utility.yul\":18225:18447   */\n      swap3\n      swap2\n      pop\n      pop\n      jump\t// out\n        /* \"#utility.yul\":18453:19093   */\n    tag_246:\n        /* \"#utility.yul\":18648:18652   */\n      0x00\n        /* \"#utility.yul\":18686:18689   */\n      0x80\n        /* \"#utility.yul\":18675:18684   */\n      dup3\n        /* \"#utility.yul\":18671:18690   */\n      add\n        /* \"#utility.yul\":18663:18690   */\n      swap1\n      pop\n        /* \"#utility.yul\":18700:18771   */\n      tag_573\n        /* \"#utility.yul\":18768:18769   */\n      0x00\n        /* \"#utility.yul\":18757:18766   */\n      dup4\n        /* \"#utility.yul\":18753:18770   */\n      add\n        /* \"#utility.yul\":18744:18750   */\n      dup8\n        /* \"#utility.yul\":18700:18771   */\n      tag_446\n      jump\t// in\n    tag_573:\n        /* \"#utility.yul\":18781:18853   */\n      tag_574\n        /* \"#utility.yul\":18849:18851   */\n      0x20\n        /* \"#utility.yul\":18838:18847   */\n      dup4\n        /* \"#utility.yul\":18834:18852   */\n      add\n        /* \"#utility.yul\":18825:18831   */\n      dup7\n        /* \"#utility.yul\":18781:18853   */\n      tag_446\n      jump\t// in\n    tag_574:\n        /* \"#utility.yul\":18863:18935   */\n      tag_575\n        /* \"#utility.yul\":18931:18933   */\n      0x40\n        /* \"#utility.yul\":18920:18929   */\n      dup4\n        /* \"#utility.yul\":18916:18934   */\n      add\n        /* \"#utility.yul\":18907:18913   */\n      dup6\n        /* \"#utility.yul\":18863:18935   */\n      tag_562\n      jump\t// in\n    tag_575:\n        /* \"#utility.yul\":18982:18991   */\n      dup2\n        /* \"#utility.yul\":18976:18980   */\n      dup2\n        /* \"#utility.yul\":18972:18992   */\n      sub\n        /* \"#utility.yul\":18967:18969   */\n      0x60\n        /* \"#utility.yul\":18956:18965   */\n      dup4\n        /* \"#utility.yul\":18952:18970   */\n      add\n        /* \"#utility.yul\":18945:18993   */\n      mstore\n        /* \"#utility.yul\":19010:19086   */\n      tag_576\n        /* \"#utility.yul\":19081:19085   */\n      dup2\n        /* \"#utility.yul\":19072:19078   */\n      dup5\n        /* \"#utility.yul\":19010:19086   */\n      tag_482\n      jump\t// in\n    tag_576:\n        /* \"#utility.yul\":19002:19086   */\n      swap1\n      pop\n        /* \"#utility.yul\":18453:19093   */\n      swap6\n      swap5\n      pop\n      pop\n      pop\n      pop\n      pop\n      jump\t// out\n        /* \"#utility.yul\":19099:19512   */\n    tag_89:\n        /* \"#utility.yul\":19262:19266   */\n      0x00\n        /* \"#utility.yul\":19300:19302   */\n      0x20\n        /* \"#utility.yul\":19289:19298   */\n      dup3\n        /* \"#utility.yul\":19285:19303   */\n      add\n        /* \"#utility.yul\":19277:19303   */\n      swap1\n      pop\n        /* \"#utility.yul\":19349:19358   */\n      dup2\n        /* \"#utility.yul\":19343:19347   */\n      dup2\n        /* \"#utility.yul\":19339:19359   */\n      sub\n        /* \"#utility.yul\":19335:19336   */\n      0x00\n        /* \"#utility.yul\":19324:19333   */\n      dup4\n        /* \"#utility.yul\":19320:19337   */\n      add\n        /* \"#utility.yul\":19313:19360   */\n      mstore\n        /* \"#utility.yul\":19377:19505   */\n      tag_578\n        /* \"#utility.yul\":19500:19504   */\n      dup2\n        /* \"#utility.yul\":19491:19497   */\n      dup5\n        /* \"#utility.yul\":19377:19505   */\n      tag_450\n      jump\t// in\n    tag_578:\n        /* \"#utility.yul\":19369:19505   */\n      swap1\n      pop\n        /* \"#utility.yul\":19099:19512   */\n      swap3\n      swap2\n      pop\n      pop\n      jump\t// out\n        /* \"#utility.yul\":19518:19891   */\n    tag_95:\n        /* \"#utility.yul\":19661:19665   */\n      0x00\n        /* \"#utility.yul\":19699:19701   */\n      0x20\n        /* \"#utility.yul\":19688:19697   */\n      dup3\n        /* \"#utility.yul\":19684:19702   */\n      add\n        /* \"#utility.yul\":19676:19702   */\n      swap1\n      pop\n        /* \"#utility.yul\":19748:19757   */\n      dup2\n        /* \"#utility.yul\":19742:19746   */\n      dup2\n        /* \"#utility.yul\":19738:19758   */\n      sub\n        /* \"#utility.yul\":19734:19735   */\n      0x00\n        /* \"#utility.yul\":19723:19732   */\n      dup4\n        /* \"#utility.yul\":19719:19736   */\n      add\n        /* \"#utility.yul\":19712:19759   */\n      mstore\n        /* \"#utility.yul\":19776:19884   */\n      tag_580\n        /* \"#utility.yul\":19879:19883   */\n      dup2\n        /* \"#utility.yul\":19870:19876   */\n      dup5\n        /* \"#utility.yul\":19776:19884   */\n      tag_464\n      jump\t// in\n    tag_580:\n        /* \"#utility.yul\":19768:19884   */\n      swap1\n      pop\n        /* \"#utility.yul\":19518:19891   */\n      swap3\n      swap2\n      pop\n      pop\n      jump\t// out\n        /* \"#utility.yul\":19897:20107   */\n    tag_28:\n        /* \"#utility.yul\":19984:19988   */\n      0x00\n        /* \"#utility.yul\":20022:20024   */\n      0x20\n        /* \"#utility.yul\":20011:20020   */\n      dup3\n        /* \"#utility.yul\":20007:20025   */\n      add\n        /* \"#utility.yul\":19999:20025   */\n      swap1\n      pop\n        /* \"#utility.yul\":20035:20100   */\n      tag_582\n        /* \"#utility.yul\":20097:20098   */\n      0x00\n        /* \"#utility.yul\":20086:20095   */\n      dup4\n        /* \"#utility.yul\":20082:20099   */\n      add\n        /* \"#utility.yul\":20073:20079   */\n      dup5\n        /* \"#utility.yul\":20035:20100   */\n      tag_478\n      jump\t// in\n    tag_582:\n        /* \"#utility.yul\":19897:20107   */\n      swap3\n      swap2\n      pop\n      pop\n      jump\t// out\n        /* \"#utility.yul\":20113:20426   */\n    tag_64:\n        /* \"#utility.yul\":20226:20230   */\n      0x00\n        /* \"#utility.yul\":20264:20266   */\n      0x20\n        /* \"#utility.yul\":20253:20262   */\n      dup3\n        /* \"#utility.yul\":20249:20267   */\n      add\n        /* \"#utility.yul\":20241:20267   */\n      swap1\n      pop\n        /* \"#utility.yul\":20313:20322   */\n      dup2\n        /* \"#utility.yul\":20307:20311   */\n      dup2\n        /* \"#utility.yul\":20303:20323   */\n      sub\n        /* \"#utility.yul\":20299:20300   */\n      0x00\n        /* \"#utility.yul\":20288:20297   */\n      dup4\n        /* \"#utility.yul\":20284:20301   */\n      add\n        /* \"#utility.yul\":20277:20324   */\n      mstore\n        /* \"#utility.yul\":20341:20419   */\n      tag_584\n        /* \"#utility.yul\":20414:20418   */\n      dup2\n        /* \"#utility.yul\":20405:20411   */\n      dup5\n        /* \"#utility.yul\":20341:20419   */\n      tag_499\n      jump\t// in\n    tag_584:\n        /* \"#utility.yul\":20333:20419   */\n      swap1\n      pop\n        /* \"#utility.yul\":20113:20426   */\n      swap3\n      swap2\n      pop\n      pop\n      jump\t// out\n        /* \"#utility.yul\":20432:20851   */\n    tag_215:\n        /* \"#utility.yul\":20598:20602   */\n      0x00\n        /* \"#utility.yul\":20636:20638   */\n      0x20\n        /* \"#utility.yul\":20625:20634   */\n      dup3\n        /* \"#utility.yul\":20621:20639   */\n      add\n        /* \"#utility.yul\":20613:20639   */\n      swap1\n      pop\n        /* \"#utility.yul\":20685:20694   */\n      dup2\n        /* \"#utility.yul\":20679:20683   */\n      dup2\n        /* \"#utility.yul\":20675:20695   */\n      sub\n        /* \"#utility.yul\":20671:20672   */\n      0x00\n        /* \"#utility.yul\":20660:20669   */\n      dup4\n        /* \"#utility.yul\":20656:20673   */\n      add\n        /* \"#utility.yul\":20649:20696   */\n      mstore\n        /* \"#utility.yul\":20713:20844   */\n      tag_586\n        /* \"#utility.yul\":20839:20843   */\n      dup2\n        /* \"#utility.yul\":20713:20844   */\n      tag_524\n      jump\t// in\n    tag_586:\n        /* \"#utility.yul\":20705:20844   */\n      swap1\n      pop\n        /* \"#utility.yul\":20432:20851   */\n      swap2\n      swap1\n      pop\n      jump\t// out\n        /* \"#utility.yul\":20857:21276   */\n    tag_124:\n        /* \"#utility.yul\":21023:21027   */\n      0x00\n        /* \"#utility.yul\":21061:21063   */\n      0x20\n        /* \"#utility.yul\":21050:21059   */\n      dup3\n        /* \"#utility.yul\":21046:21064   */\n      add\n        /* \"#utility.yul\":21038:21064   */\n      swap1\n      pop\n        /* \"#utility.yul\":21110:21119   */\n      dup2\n        /* \"#utility.yul\":21104:21108   */\n      dup2\n        /* \"#utility.yul\":21100:21120   */\n      sub\n        /* \"#utility.yul\":21096:21097   */\n      0x00\n        /* \"#utility.yul\":21085:21094   */\n      dup4\n        /* \"#utility.yul\":21081:21098   */\n      add\n        /* \"#utility.yul\":21074:21121   */\n      mstore\n        /* \"#utility.yul\":21138:21269   */\n      tag_588\n        /* \"#utility.yul\":21264:21268   */\n      dup2\n        /* \"#utility.yul\":21138:21269   */\n      tag_529\n      jump\t// in\n    tag_588:\n        /* \"#utility.yul\":21130:21269   */\n      swap1\n      pop\n        /* \"#utility.yul\":20857:21276   */\n      swap2\n      swap1\n      pop\n      jump\t// out\n        /* \"#utility.yul\":21282:21701   */\n    tag_257:\n        /* \"#utility.yul\":21448:21452   */\n      0x00\n        /* \"#utility.yul\":21486:21488   */\n      0x20\n        /* \"#utility.yul\":21475:21484   */\n      dup3\n        /* \"#utility.yul\":21471:21489   */\n      add\n        /* \"#utility.yul\":21463:21489   */\n      swap1\n      pop\n        /* \"#utility.yul\":21535:21544   */\n      dup2\n        /* \"#utility.yul\":21529:21533   */\n      dup2\n        /* \"#utility.yul\":21525:21545   */\n      sub\n        /* \"#utility.yul\":21521:21522   */\n      0x00\n        /* \"#utility.yul\":21510:21519   */\n      dup4\n        /* \"#utility.yul\":21506:21523   */\n      add\n        /* \"#utility.yul\":21499:21546   */\n      mstore\n        /* \"#utility.yul\":21563:21694   */\n      tag_590\n        /* \"#utility.yul\":21689:21693   */\n      dup2\n        /* \"#utility.yul\":21563:21694   */\n      tag_534\n      jump\t// in\n    tag_590:\n        /* \"#utility.yul\":21555:21694   */\n      swap1\n      pop\n        /* \"#utility.yul\":21282:21701   */\n      swap2\n      swap1\n      pop\n      jump\t// out\n        /* \"#utility.yul\":21707:22126   */\n    tag_117:\n        /* \"#utility.yul\":21873:21877   */\n      0x00\n        /* \"#utility.yul\":21911:21913   */\n      0x20\n        /* \"#utility.yul\":21900:21909   */\n      dup3\n        /* \"#utility.yul\":21896:21914   */\n      add\n        /* \"#utility.yul\":21888:21914   */\n      swap1\n      pop\n        /* \"#utility.yul\":21960:21969   */\n      dup2\n        /* \"#utility.yul\":21954:21958   */\n      dup2\n        /* \"#utility.yul\":21950:21970   */\n      sub\n        /* \"#utility.yul\":21946:21947   */\n      0x00\n        /* \"#utility.yul\":21935:21944   */\n      dup4\n        /* \"#utility.yul\":21931:21948   */\n      add\n        /* \"#utility.yul\":21924:21971   */\n      mstore\n        /* \"#utility.yul\":21988:22119   */\n      tag_592\n        /* \"#utility.yul\":22114:22118   */\n      dup2\n        /* \"#utility.yul\":21988:22119   */\n      tag_539\n      jump\t// in\n    tag_592:\n        /* \"#utility.yul\":21980:22119   */\n      swap1\n      pop\n        /* \"#utility.yul\":21707:22126   */\n      swap2\n      swap1\n      pop\n      jump\t// out\n        /* \"#utility.yul\":22132:22551   */\n    tag_221:\n        /* \"#utility.yul\":22298:22302   */\n      0x00\n        /* \"#utility.yul\":22336:22338   */\n      0x20\n        /* \"#utility.yul\":22325:22334   */\n      dup3\n        /* \"#utility.yul\":22321:22339   */\n      add\n        /* \"#utility.yul\":22313:22339   */\n      swap1\n      pop\n        /* \"#utility.yul\":22385:22394   */\n      dup2\n        /* \"#utility.yul\":22379:22383   */\n      dup2\n        /* \"#utility.yul\":22375:22395   */\n      sub\n        /* \"#utility.yul\":22371:22372   */\n      0x00\n        /* \"#utility.yul\":22360:22369   */\n      dup4\n        /* \"#utility.yul\":22356:22373   */\n      add\n        /* \"#utility.yul\":22349:22396   */\n      mstore\n        /* \"#utility.yul\":22413:22544   */\n      tag_594\n        /* \"#utility.yul\":22539:22543   */\n      dup2\n        /* \"#utility.yul\":22413:22544   */\n      tag_544\n      jump\t// in\n    tag_594:\n        /* \"#utility.yul\":22405:22544   */\n      swap1\n      pop\n        /* \"#utility.yul\":22132:22551   */\n      swap2\n      swap1\n      pop\n      jump\t// out\n        /* \"#utility.yul\":22557:22976   */\n    tag_165:\n        /* \"#utility.yul\":22723:22727   */\n      0x00\n        /* \"#utility.yul\":22761:22763   */\n      0x20\n        /* \"#utility.yul\":22750:22759   */\n      dup3\n        /* \"#utility.yul\":22746:22764   */\n      add\n        /* \"#utility.yul\":22738:22764   */\n      swap1\n      pop\n        /* \"#utility.yul\":22810:22819   */\n      dup2\n        /* \"#utility.yul\":22804:22808   */\n      dup2\n        /* \"#utility.yul\":22800:22820   */\n      sub\n        /* \"#utility.yul\":22796:22797   */\n      0x00\n        /* \"#utility.yul\":22785:22794   */\n      dup4\n        /* \"#utility.yul\":22781:22798   */\n      add\n        /* \"#utility.yul\":22774:22821   */\n      mstore\n        /* \"#utility.yul\":22838:22969   */\n      tag_596\n        /* \"#utility.yul\":22964:22968   */\n      dup2\n        /* \"#utility.yul\":22838:22969   */\n      tag_549\n      jump\t// in\n    tag_596:\n        /* \"#utility.yul\":22830:22969   */\n      swap1\n      pop\n        /* \"#utility.yul\":22557:22976   */\n      swap2\n      swap1\n      pop\n      jump\t// out\n        /* \"#utility.yul\":22982:23401   */\n    tag_159:\n        /* \"#utility.yul\":23148:23152   */\n      0x00\n        /* \"#utility.yul\":23186:23188   */\n      0x20\n        /* \"#utility.yul\":23175:23184   */\n      dup3\n        /* \"#utility.yul\":23171:23189   */\n      add\n        /* \"#utility.yul\":23163:23189   */\n      swap1\n      pop\n        /* \"#utility.yul\":23235:23244   */\n      dup2\n        /* \"#utility.yul\":23229:23233   */\n      dup2\n        /* \"#utility.yul\":23225:23245   */\n      sub\n        /* \"#utility.yul\":23221:23222   */\n      0x00\n        /* \"#utility.yul\":23210:23219   */\n      dup4\n        /* \"#utility.yul\":23206:23223   */\n      add\n        /* \"#utility.yul\":23199:23246   */\n      mstore\n        /* \"#utility.yul\":23263:23394   */\n      tag_598\n        /* \"#utility.yul\":23389:23393   */\n      dup2\n        /* \"#utility.yul\":23263:23394   */\n      tag_554\n      jump\t// in\n    tag_598:\n        /* \"#utility.yul\":23255:23394   */\n      swap1\n      pop\n        /* \"#utility.yul\":22982:23401   */\n      swap2\n      swap1\n      pop\n      jump\t// out\n        /* \"#utility.yul\":23407:23629   */\n    tag_50:\n        /* \"#utility.yul\":23500:23504   */\n      0x00\n        /* \"#utility.yul\":23538:23540   */\n      0x20\n        /* \"#utility.yul\":23527:23536   */\n      dup3\n        /* \"#utility.yul\":23523:23541   */\n      add\n        /* \"#utility.yul\":23515:23541   */\n      swap1\n      pop\n        /* \"#utility.yul\":23551:23622   */\n      tag_600\n        /* \"#utility.yul\":23619:23620   */\n      0x00\n        /* \"#utility.yul\":23608:23617   */\n      dup4\n        /* \"#utility.yul\":23604:23621   */\n      add\n        /* \"#utility.yul\":23595:23601   */\n      dup5\n        /* \"#utility.yul\":23551:23622   */\n      tag_562\n      jump\t// in\n    tag_600:\n        /* \"#utility.yul\":23407:23629   */\n      swap3\n      swap2\n      pop\n      pop\n      jump\t// out\n        /* \"#utility.yul\":23635:23764   */\n    tag_306:\n        /* \"#utility.yul\":23669:23675   */\n      0x00\n        /* \"#utility.yul\":23696:23716   */\n      tag_602\n      tag_603\n      jump\t// in\n    tag_602:\n        /* \"#utility.yul\":23686:23716   */\n      swap1\n      pop\n        /* \"#utility.yul\":23725:23758   */\n      tag_604\n        /* \"#utility.yul\":23753:23757   */\n      dup3\n        /* \"#utility.yul\":23745:23751   */\n      dup3\n        /* \"#utility.yul\":23725:23758   */\n      tag_605\n      jump\t// in\n    tag_604:\n        /* \"#utility.yul\":23635:23764   */\n      swap2\n      swap1\n      pop\n      jump\t// out\n        /* \"#utility.yul\":23770:23845   */\n    tag_603:\n        /* \"#utility.yul\":23803:23809   */\n      0x00\n        /* \"#utility.yul\":23836:23838   */\n      0x40\n        /* \"#utility.yul\":23830:23839   */\n      mload\n        /* \"#utility.yul\":23820:23839   */\n      swap1\n      pop\n        /* \"#utility.yul\":23770:23845   */\n      swap1\n      jump\t// out\n        /* \"#utility.yul\":23851:24172   */\n    tag_305:\n        /* \"#utility.yul\":23938:23942   */\n      0x00\n        /* \"#utility.yul\":24028:24046   */\n      0xffffffffffffffff\n        /* \"#utility.yul\":24020:24026   */\n      dup3\n        /* \"#utility.yul\":24017:24047   */\n      gt\n        /* \"#utility.yul\":24014:24070   */\n      iszero\n      tag_608\n      jumpi\n        /* \"#utility.yul\":24050:24068   */\n      tag_609\n      tag_197\n      jump\t// in\n    tag_609:\n        /* \"#utility.yul\":24014:24070   */\n    tag_608:\n        /* \"#utility.yul\":24100:24104   */\n      0x20\n        /* \"#utility.yul\":24092:24098   */\n      dup3\n        /* \"#utility.yul\":24088:24105   */\n      mul\n        /* \"#utility.yul\":24080:24105   */\n      swap1\n      pop\n        /* \"#utility.yul\":24160:24164   */\n      0x20\n        /* \"#utility.yul\":24154:24158   */\n      dup2\n        /* \"#utility.yul\":24150:24165   */\n      add\n        /* \"#utility.yul\":24142:24165   */\n      swap1\n      pop\n        /* \"#utility.yul\":23851:24172   */\n      swap2\n      swap1\n      pop\n      jump\t// out\n        /* \"#utility.yul\":24178:24485   */\n    tag_322:\n        /* \"#utility.yul\":24239:24243   */\n      0x00\n        /* \"#utility.yul\":24329:24347   */\n      0xffffffffffffffff\n        /* \"#utility.yul\":24321:24327   */\n      dup3\n        /* \"#utility.yul\":24318:24348   */\n      gt\n        /* \"#utility.yul\":24315:24371   */\n      iszero\n      tag_611\n      jumpi\n        /* \"#utility.yul\":24351:24369   */\n      tag_612\n      tag_197\n      jump\t// in\n    tag_612:\n        /* \"#utility.yul\":24315:24371   */\n    tag_611:\n        /* \"#utility.yul\":24389:24418   */\n      tag_613\n        /* \"#utility.yul\":24411:24417   */\n      dup3\n        /* \"#utility.yul\":24389:24418   */\n      tag_491\n      jump\t// in\n    tag_613:\n        /* \"#utility.yul\":24381:24418   */\n      swap1\n      pop\n        /* \"#utility.yul\":24473:24477   */\n      0x20\n        /* \"#utility.yul\":24467:24471   */\n      dup2\n        /* \"#utility.yul\":24463:24478   */\n      add\n        /* \"#utility.yul\":24455:24478   */\n      swap1\n      pop\n        /* \"#utility.yul\":24178:24485   */\n      swap2\n      swap1\n      pop\n      jump\t// out\n        /* \"#utility.yul\":24491:24799   */\n    tag_332:\n        /* \"#utility.yul\":24553:24557   */\n      0x00\n        /* \"#utility.yul\":24643:24661   */\n      0xffffffffffffffff\n        /* \"#utility.yul\":24635:24641   */\n      dup3\n        /* \"#utility.yul\":24632:24662   */\n      gt\n        /* \"#utility.yul\":24629:24685   */\n      iszero\n      tag_615\n      jumpi\n        /* \"#utility.yul\":24665:24683   */\n      tag_616\n      tag_197\n      jump\t// in\n    tag_616:\n        /* \"#utility.yul\":24629:24685   */\n    tag_615:\n        /* \"#utility.yul\":24703:24732   */\n      tag_617\n        /* \"#utility.yul\":24725:24731   */\n      dup3\n        /* \"#utility.yul\":24703:24732   */\n      tag_491\n      jump\t// in\n    tag_617:\n        /* \"#utility.yul\":24695:24732   */\n      swap1\n      pop\n        /* \"#utility.yul\":24787:24791   */\n      0x20\n        /* \"#utility.yul\":24781:24785   */\n      dup2\n        /* \"#utility.yul\":24777:24792   */\n      add\n        /* \"#utility.yul\":24769:24792   */\n      swap1\n      pop\n        /* \"#utility.yul\":24491:24799   */\n      swap2\n      swap1\n      pop\n      jump\t// out\n        /* \"#utility.yul\":24805:24947   */\n    tag_457:\n        /* \"#utility.yul\":24882:24886   */\n      0x00\n        /* \"#utility.yul\":24905:24908   */\n      dup2\n        /* \"#utility.yul\":24897:24908   */\n      swap1\n      pop\n        /* \"#utility.yul\":24935:24939   */\n      0x20\n        /* \"#utility.yul\":24930:24933   */\n      dup3\n        /* \"#utility.yul\":24926:24940   */\n      add\n        /* \"#utility.yul\":24918:24940   */\n      swap1\n      pop\n        /* \"#utility.yul\":24805:24947   */\n      swap2\n      swap1\n      pop\n      jump\t// out\n        /* \"#utility.yul\":24953:25085   */\n    tag_471:\n        /* \"#utility.yul\":25020:25024   */\n      0x00\n        /* \"#utility.yul\":25043:25046   */\n      dup2\n        /* \"#utility.yul\":25035:25046   */\n      swap1\n      pop\n        /* \"#utility.yul\":25073:25077   */\n      0x20\n        /* \"#utility.yul\":25068:25071   */\n      dup3\n        /* \"#utility.yul\":25064:25078   */\n      add\n        /* \"#utility.yul\":25056:25078   */\n      swap1\n      pop\n        /* \"#utility.yul\":24953:25085   */\n      swap2\n      swap1\n      pop\n      jump\t// out\n        /* \"#utility.yul\":25091:25232   */\n    tag_520:\n        /* \"#utility.yul\":25140:25144   */\n      0x00\n        /* \"#utility.yul\":25163:25166   */\n      dup2\n        /* \"#utility.yul\":25155:25166   */\n      swap1\n      pop\n        /* \"#utility.yul\":25186:25189   */\n      dup2\n        /* \"#utility.yul\":25183:25184   */\n      0x00\n        /* \"#utility.yul\":25176:25190   */\n      mstore\n        /* \"#utility.yul\":25220:25224   */\n      0x20\n        /* \"#utility.yul\":25217:25218   */\n      0x00\n        /* \"#utility.yul\":25207:25225   */\n      keccak256\n        /* \"#utility.yul\":25199:25225   */\n      swap1\n      pop\n        /* \"#utility.yul\":25091:25232   */\n      swap2\n      swap1\n      pop\n      jump\t// out\n        /* \"#utility.yul\":25238:25362   */\n    tag_453:\n        /* \"#utility.yul\":25315:25321   */\n      0x00\n        /* \"#utility.yul\":25349:25354   */\n      dup2\n        /* \"#utility.yul\":25343:25355   */\n      mload\n        /* \"#utility.yul\":25333:25355   */\n      swap1\n      pop\n        /* \"#utility.yul\":25238:25362   */\n      swap2\n      swap1\n      pop\n      jump\t// out\n        /* \"#utility.yul\":25368:25482   */\n    tag_467:\n        /* \"#utility.yul\":25435:25441   */\n      0x00\n        /* \"#utility.yul\":25469:25474   */\n      dup2\n        /* \"#utility.yul\":25463:25475   */\n      mload\n        /* \"#utility.yul\":25453:25475   */\n      swap1\n      pop\n        /* \"#utility.yul\":25368:25482   */\n      swap2\n      swap1\n      pop\n      jump\t// out\n        /* \"#utility.yul\":25488:25586   */\n    tag_485:\n        /* \"#utility.yul\":25539:25545   */\n      0x00\n        /* \"#utility.yul\":25573:25578   */\n      dup2\n        /* \"#utility.yul\":25567:25579   */\n      mload\n        /* \"#utility.yul\":25557:25579   */\n      swap1\n      pop\n        /* \"#utility.yul\":25488:25586   */\n      swap2\n      swap1\n      pop\n      jump\t// out\n        /* \"#utility.yul\":25592:25691   */\n    tag_494:\n        /* \"#utility.yul\":25644:25650   */\n      0x00\n        /* \"#utility.yul\":25678:25683   */\n      dup2\n        /* \"#utility.yul\":25672:25684   */\n      mload\n        /* \"#utility.yul\":25662:25684   */\n      swap1\n      pop\n        /* \"#utility.yul\":25592:25691   */\n      swap2\n      swap1\n      pop\n      jump\t// out\n        /* \"#utility.yul\":25697:25820   */\n    tag_463:\n        /* \"#utility.yul\":25777:25781   */\n      0x00\n        /* \"#utility.yul\":25809:25813   */\n      0x20\n        /* \"#utility.yul\":25804:25807   */\n      dup3\n        /* \"#utility.yul\":25800:25814   */\n      add\n        /* \"#utility.yul\":25792:25814   */\n      swap1\n      pop\n        /* \"#utility.yul\":25697:25820   */\n      swap2\n      swap1\n      pop\n      jump\t// out\n        /* \"#utility.yul\":25826:25939   */\n    tag_477:\n        /* \"#utility.yul\":25896:25900   */\n      0x00\n        /* \"#utility.yul\":25928:25932   */\n      0x20\n        /* \"#utility.yul\":25923:25926   */\n      dup3\n        /* \"#utility.yul\":25919:25933   */\n      add\n        /* \"#utility.yul\":25911:25933   */\n      swap1\n      pop\n        /* \"#utility.yul\":25826:25939   */\n      swap2\n      swap1\n      pop\n      jump\t// out\n        /* \"#utility.yul\":25945:26139   */\n    tag_455:\n        /* \"#utility.yul\":26054:26065   */\n      0x00\n        /* \"#utility.yul\":26088:26094   */\n      dup3\n        /* \"#utility.yul\":26083:26086   */\n      dup3\n        /* \"#utility.yul\":26076:26095   */\n      mstore\n        /* \"#utility.yul\":26128:26132   */\n      0x20\n        /* \"#utility.yul\":26123:26126   */\n      dup3\n        /* \"#utility.yul\":26119:26133   */\n      add\n        /* \"#utility.yul\":26104:26133   */\n      swap1\n      pop\n        /* \"#utility.yul\":25945:26139   */\n      swap3\n      swap2\n      pop\n      pop\n      jump\t// out\n        /* \"#utility.yul\":26145:26329   */\n    tag_469:\n        /* \"#utility.yul\":26244:26255   */\n      0x00\n        /* \"#utility.yul\":26278:26284   */\n      dup3\n        /* \"#utility.yul\":26273:26276   */\n      dup3\n        /* \"#utility.yul\":26266:26285   */\n      mstore\n        /* \"#utility.yul\":26318:26322   */\n      0x20\n        /* \"#utility.yul\":26313:26316   */\n      dup3\n        /* \"#utility.yul\":26309:26323   */\n      add\n        /* \"#utility.yul\":26294:26323   */\n      swap1\n      pop\n        /* \"#utility.yul\":26145:26329   */\n      swap3\n      swap2\n      pop\n      pop\n      jump\t// out\n        /* \"#utility.yul\":26335:26503   */\n    tag_487:\n        /* \"#utility.yul\":26418:26429   */\n      0x00\n        /* \"#utility.yul\":26452:26458   */\n      dup3\n        /* \"#utility.yul\":26447:26450   */\n      dup3\n        /* \"#utility.yul\":26440:26459   */\n      mstore\n        /* \"#utility.yul\":26492:26496   */\n      0x20\n        /* \"#utility.yul\":26487:26490   */\n      dup3\n        /* \"#utility.yul\":26483:26497   */\n      add\n        /* \"#utility.yul\":26468:26497   */\n      swap1\n      pop\n        /* \"#utility.yul\":26335:26503   */\n      swap3\n      swap2\n      pop\n      pop\n      jump\t// out\n        /* \"#utility.yul\":26509:26668   */\n    tag_496:\n        /* \"#utility.yul\":26583:26594   */\n      0x00\n        /* \"#utility.yul\":26617:26623   */\n      dup3\n        /* \"#utility.yul\":26612:26615   */\n      dup3\n        /* \"#utility.yul\":26605:26624   */\n      mstore\n        /* \"#utility.yul\":26657:26661   */\n      0x20\n        /* \"#utility.yul\":26652:26655   */\n      dup3\n        /* \"#utility.yul\":26648:26662   */\n      add\n        /* \"#utility.yul\":26633:26662   */\n      swap1\n      pop\n        /* \"#utility.yul\":26509:26668   */\n      swap3\n      swap2\n      pop\n      pop\n      jump\t// out\n        /* \"#utility.yul\":26674:26843   */\n    tag_503:\n        /* \"#utility.yul\":26758:26769   */\n      0x00\n        /* \"#utility.yul\":26792:26798   */\n      dup3\n        /* \"#utility.yul\":26787:26790   */\n      dup3\n        /* \"#utility.yul\":26780:26799   */\n      mstore\n        /* \"#utility.yul\":26832:26836   */\n      0x20\n        /* \"#utility.yul\":26827:26830   */\n      dup3\n        /* \"#utility.yul\":26823:26837   */\n      add\n        /* \"#utility.yul\":26808:26837   */\n      swap1\n      pop\n        /* \"#utility.yul\":26674:26843   */\n      swap3\n      swap2\n      pop\n      pop\n      jump\t// out\n        /* \"#utility.yul\":26849:26997   */\n    tag_510:\n        /* \"#utility.yul\":26951:26962   */\n      0x00\n        /* \"#utility.yul\":26988:26991   */\n      dup2\n        /* \"#utility.yul\":26973:26991   */\n      swap1\n      pop\n        /* \"#utility.yul\":26849:26997   */\n      swap3\n      swap2\n      pop\n      pop\n      jump\t// out\n        /* \"#utility.yul\":27003:27308   */\n    tag_172:\n        /* \"#utility.yul\":27043:27046   */\n      0x00\n        /* \"#utility.yul\":27062:27082   */\n      tag_634\n        /* \"#utility.yul\":27080:27081   */\n      dup3\n        /* \"#utility.yul\":27062:27082   */\n      tag_561\n      jump\t// in\n    tag_634:\n        /* \"#utility.yul\":27057:27082   */\n      swap2\n      pop\n        /* \"#utility.yul\":27096:27116   */\n      tag_635\n        /* \"#utility.yul\":27114:27115   */\n      dup4\n        /* \"#utility.yul\":27096:27116   */\n      tag_561\n      jump\t// in\n    tag_635:\n        /* \"#utility.yul\":27091:27116   */\n      swap3\n      pop\n        /* \"#utility.yul\":27250:27251   */\n      dup3\n        /* \"#utility.yul\":27182:27248   */\n      0xffffffffffffffffffffffffffffffffffffffffffffffffffffffffffffffff\n        /* \"#utility.yul\":27178:27252   */\n      sub\n        /* \"#utility.yul\":27175:27176   */\n      dup3\n        /* \"#utility.yul\":27172:27253   */\n      gt\n        /* \"#utility.yul\":27169:27276   */\n      iszero\n      tag_636\n      jumpi\n        /* \"#utility.yul\":27256:27274   */\n      tag_637\n      tag_638\n      jump\t// in\n    tag_637:\n        /* \"#utility.yul\":27169:27276   */\n    tag_636:\n        /* \"#utility.yul\":27300:27301   */\n      dup3\n        /* \"#utility.yul\":27297:27298   */\n      dup3\n        /* \"#utility.yul\":27293:27302   */\n      add\n        /* \"#utility.yul\":27286:27302   */\n      swap1\n      pop\n        /* \"#utility.yul\":27003:27308   */\n      swap3\n      swap2\n      pop\n      pop\n      jump\t// out\n        /* \"#utility.yul\":27314:27568   */\n    tag_137:\n        /* \"#utility.yul\":27353:27356   */\n      0x00\n        /* \"#utility.yul\":27372:27391   */\n      tag_640\n        /* \"#utility.yul\":27389:27390   */\n      dup3\n        /* \"#utility.yul\":27372:27391   */\n      tag_641\n      jump\t// in\n    tag_640:\n        /* \"#utility.yul\":27367:27391   */\n      swap2\n      pop\n        /* \"#utility.yul\":27405:27424   */\n      tag_642\n        /* \"#utility.yul\":27422:27423   */\n      dup4\n        /* \"#utility.yul\":27405:27424   */\n      tag_641\n      jump\t// in\n    tag_642:\n        /* \"#utility.yul\":27400:27424   */\n      swap3\n      pop\n        /* \"#utility.yul\":27510:27511   */\n      dup3\n        /* \"#utility.yul\":27490:27508   */\n      0xffffffffffffffff\n        /* \"#utility.yul\":27486:27512   */\n      sub\n        /* \"#utility.yul\":27483:27484   */\n      dup3\n        /* \"#utility.yul\":27480:27513   */\n      gt\n        /* \"#utility.yul\":27477:27536   */\n      iszero\n      tag_643\n      jumpi\n        /* \"#utility.yul\":27516:27534   */\n      tag_644\n      tag_638\n      jump\t// in\n    tag_644:\n        /* \"#utility.yul\":27477:27536   */\n    tag_643:\n        /* \"#utility.yul\":27560:27561   */\n      dup3\n        /* \"#utility.yul\":27557:27558   */\n      dup3\n        /* \"#utility.yul\":27553:27562   */\n      add\n        /* \"#utility.yul\":27546:27562   */\n      swap1\n      pop\n        /* \"#utility.yul\":27314:27568   */\n      swap3\n      swap2\n      pop\n      pop\n      jump\t// out\n        /* \"#utility.yul\":27574:27765   */\n    tag_170:\n        /* \"#utility.yul\":27614:27618   */\n      0x00\n        /* \"#utility.yul\":27634:27654   */\n      tag_646\n        /* \"#utility.yul\":27652:27653   */\n      dup3\n        /* \"#utility.yul\":27634:27654   */\n      tag_561\n      jump\t// in\n    tag_646:\n        /* \"#utility.yul\":27629:27654   */\n      swap2\n      pop\n        /* \"#utility.yul\":27668:27688   */\n      tag_647\n        /* \"#utility.yul\":27686:27687   */\n      dup4\n        /* \"#utility.yul\":27668:27688   */\n      tag_561\n      jump\t// in\n    tag_647:\n        /* \"#utility.yul\":27663:27688   */\n      swap3\n      pop\n        /* \"#utility.yul\":27707:27708   */\n      dup3\n        /* \"#utility.yul\":27704:27705   */\n      dup3\n        /* \"#utility.yul\":27701:27709   */\n      lt\n        /* \"#utility.yul\":27698:27732   */\n      iszero\n      tag_648\n      jumpi\n        /* \"#utility.yul\":27712:27730   */\n      tag_649\n      tag_638\n      jump\t// in\n    tag_649:\n        /* \"#utility.yul\":27698:27732   */\n    tag_648:\n        /* \"#utility.yul\":27757:27758   */\n      dup3\n        /* \"#utility.yul\":27754:27755   */\n      dup3\n        /* \"#utility.yul\":27750:27759   */\n      sub\n        /* \"#utility.yul\":27742:27759   */\n      swap1\n      pop\n        /* \"#utility.yul\":27574:27765   */\n      swap3\n      swap2\n      pop\n      pop\n      jump\t// out\n        /* \"#utility.yul\":27771:27867   */\n    tag_449:\n        /* \"#utility.yul\":27808:27815   */\n      0x00\n        /* \"#utility.yul\":27837:27861   */\n      tag_651\n        /* \"#utility.yul\":27855:27860   */\n      dup3\n        /* \"#utility.yul\":27837:27861   */\n      tag_652\n      jump\t// in\n    tag_651:\n        /* \"#utility.yul\":27826:27861   */\n      swap1\n      pop\n        /* \"#utility.yul\":27771:27867   */\n      swap2\n      swap1\n      pop\n      jump\t// out\n        /* \"#utility.yul\":27873:27963   */\n    tag_481:\n        /* \"#utility.yul\":27907:27914   */\n      0x00\n        /* \"#utility.yul\":27950:27955   */\n      dup2\n        /* \"#utility.yul\":27943:27956   */\n      iszero\n        /* \"#utility.yul\":27936:27957   */\n      iszero\n        /* \"#utility.yul\":27925:27957   */\n      swap1\n      pop\n        /* \"#utility.yul\":27873:27963   */\n      swap2\n      swap1\n      pop\n      jump\t// out\n        /* \"#utility.yul\":27969:28118   */\n    tag_654:\n        /* \"#utility.yul\":28005:28012   */\n      0x00\n        /* \"#utility.yul\":28045:28111   */\n      0xffffffff00000000000000000000000000000000000000000000000000000000\n        /* \"#utility.yul\":28038:28043   */\n      dup3\n        /* \"#utility.yul\":28034:28112   */\n      and\n        /* \"#utility.yul\":28023:28112   */\n      swap1\n      pop\n        /* \"#utility.yul\":27969:28118   */\n      swap2\n      swap1\n      pop\n      jump\t// out\n        /* \"#utility.yul\":28124:28250   */\n    tag_652:\n        /* \"#utility.yul\":28161:28168   */\n      0x00\n        /* \"#utility.yul\":28201:28243   */\n      0xffffffffffffffffffffffffffffffffffffffff\n        /* \"#utility.yul\":28194:28199   */\n      dup3\n        /* \"#utility.yul\":28190:28244   */\n      and\n        /* \"#utility.yul\":28179:28244   */\n      swap1\n      pop\n        /* \"#utility.yul\":28124:28250   */\n      swap2\n      swap1\n      pop\n      jump\t// out\n        /* \"#utility.yul\":28256:28333   */\n    tag_561:\n        /* \"#utility.yul\":28293:28300   */\n      0x00\n        /* \"#utility.yul\":28322:28327   */\n      dup2\n        /* \"#utility.yul\":28311:28327   */\n      swap1\n      pop\n        /* \"#utility.yul\":28256:28333   */\n      swap2\n      swap1\n      pop\n      jump\t// out\n        /* \"#utility.yul\":28339:28440   */\n    tag_641:\n        /* \"#utility.yul\":28375:28382   */\n      0x00\n        /* \"#utility.yul\":28415:28433   */\n      0xffffffffffffffff\n        /* \"#utility.yul\":28408:28413   */\n      dup3\n        /* \"#utility.yul\":28404:28434   */\n      and\n        /* \"#utility.yul\":28393:28434   */\n      swap1\n      pop\n        /* \"#utility.yul\":28339:28440   */\n      swap2\n      swap1\n      pop\n      jump\t// out\n        /* \"#utility.yul\":28446:28600   */\n    tag_327:\n        /* \"#utility.yul\":28530:28536   */\n      dup3\n        /* \"#utility.yul\":28525:28528   */\n      dup2\n        /* \"#utility.yul\":28520:28523   */\n      dup4\n        /* \"#utility.yul\":28507:28537   */\n      calldatacopy\n        /* \"#utility.yul\":28592:28593   */\n      0x00\n        /* \"#utility.yul\":28583:28589   */\n      dup4\n        /* \"#utility.yul\":28578:28581   */\n      dup4\n        /* \"#utility.yul\":28574:28590   */\n      add\n        /* \"#utility.yul\":28567:28594   */\n      mstore\n        /* \"#utility.yul\":28446:28600   */\n      pop\n      pop\n      pop\n      jump\t// out\n        /* \"#utility.yul\":28606:28913   */\n    tag_489:\n        /* \"#utility.yul\":28674:28675   */\n      0x00\n        /* \"#utility.yul\":28684:28797   */\n    tag_661:\n        /* \"#utility.yul\":28698:28704   */\n      dup4\n        /* \"#utility.yul\":28695:28696   */\n      dup2\n        /* \"#utility.yul\":28692:28705   */\n      lt\n        /* \"#utility.yul\":28684:28797   */\n      iszero\n      tag_663\n      jumpi\n        /* \"#utility.yul\":28783:28784   */\n      dup1\n        /* \"#utility.yul\":28778:28781   */\n      dup3\n        /* \"#utility.yul\":28774:28785   */\n      add\n        /* \"#utility.yul\":28768:28786   */\n      mload\n        /* \"#utility.yul\":28764:28765   */\n      dup2\n        /* \"#utility.yul\":28759:28762   */\n      dup5\n        /* \"#utility.yul\":28755:28766   */\n      add\n        /* \"#utility.yul\":28748:28787   */\n      mstore\n        /* \"#utility.yul\":28720:28722   */\n      0x20\n        /* \"#utility.yul\":28717:28718   */\n      dup2\n        /* \"#utility.yul\":28713:28723   */\n      add\n        /* \"#utility.yul\":28708:28723   */\n      swap1\n      pop\n        /* \"#utility.yul\":28684:28797   */\n      jump(tag_661)\n    tag_663:\n        /* \"#utility.yul\":28815:28821   */\n      dup4\n        /* \"#utility.yul\":28812:28813   */\n      dup2\n        /* \"#utility.yul\":28809:28822   */\n      gt\n        /* \"#utility.yul\":28806:28907   */\n      iszero\n      tag_664\n      jumpi\n        /* \"#utility.yul\":28895:28896   */\n      0x00\n        /* \"#utility.yul\":28886:28892   */\n      dup5\n        /* \"#utility.yul\":28881:28884   */\n      dup5\n        /* \"#utility.yul\":28877:28893   */\n      add\n        /* \"#utility.yul\":28870:28897   */\n      mstore\n        /* \"#utility.yul\":28806:28907   */\n    tag_664:\n        /* \"#utility.yul\":28655:28913   */\n      pop\n        /* \"#utility.yul\":28606:28913   */\n      pop\n      pop\n      pop\n      jump\t// out\n        /* \"#utility.yul\":28919:29088   */\n    tag_260:\n        /* \"#utility.yul\":28957:28960   */\n      0x00\n        /* \"#utility.yul\":28980:29003   */\n      tag_666\n        /* \"#utility.yul\":28997:29002   */\n      dup3\n        /* \"#utility.yul\":28980:29003   */\n      tag_641\n      jump\t// in\n    tag_666:\n        /* \"#utility.yul\":28971:29003   */\n      swap2\n      pop\n        /* \"#utility.yul\":29025:29029   */\n      0x00\n        /* \"#utility.yul\":29018:29023   */\n      dup3\n        /* \"#utility.yul\":29015:29030   */\n      eq\n        /* \"#utility.yul\":29012:29053   */\n      iszero\n      tag_667\n      jumpi\n        /* \"#utility.yul\":29033:29051   */\n      tag_668\n      tag_638\n      jump\t// in\n    tag_668:\n        /* \"#utility.yul\":29012:29053   */\n    tag_667:\n        /* \"#utility.yul\":29080:29081   */\n      0x01\n        /* \"#utility.yul\":29073:29078   */\n      dup3\n        /* \"#utility.yul\":29069:29082   */\n      sub\n        /* \"#utility.yul\":29062:29082   */\n      swap1\n      pop\n        /* \"#utility.yul\":28919:29088   */\n      swap2\n      swap1\n      pop\n      jump\t// out\n        /* \"#utility.yul\":29094:29414   */\n    tag_187:\n        /* \"#utility.yul\":29138:29144   */\n      0x00\n        /* \"#utility.yul\":29175:29176   */\n      0x02\n        /* \"#utility.yul\":29169:29173   */\n      dup3\n        /* \"#utility.yul\":29165:29177   */\n      div\n        /* \"#utility.yul\":29155:29177   */\n      swap1\n      pop\n        /* \"#utility.yul\":29222:29223   */\n      0x01\n        /* \"#utility.yul\":29216:29220   */\n      dup3\n        /* \"#utility.yul\":29212:29224   */\n      and\n        /* \"#utility.yul\":29243:29261   */\n      dup1\n        /* \"#utility.yul\":29233:29314   */\n      tag_670\n      jumpi\n        /* \"#utility.yul\":29299:29303   */\n      0x7f\n        /* \"#utility.yul\":29291:29297   */\n      dup3\n        /* \"#utility.yul\":29287:29304   */\n      and\n        /* \"#utility.yul\":29277:29304   */\n      swap2\n      pop\n        /* \"#utility.yul\":29233:29314   */\n    tag_670:\n        /* \"#utility.yul\":29361:29363   */\n      0x20\n        /* \"#utility.yul\":29353:29359   */\n      dup3\n        /* \"#utility.yul\":29350:29364   */\n      lt\n        /* \"#utility.yul\":29330:29348   */\n      dup2\n        /* \"#utility.yul\":29327:29365   */\n      eq\n        /* \"#utility.yul\":29324:29408   */\n      iszero\n      tag_671\n      jumpi\n        /* \"#utility.yul\":29380:29398   */\n      tag_672\n      tag_673\n      jump\t// in\n    tag_672:\n        /* \"#utility.yul\":29324:29408   */\n    tag_671:\n        /* \"#utility.yul\":29145:29414   */\n      pop\n        /* \"#utility.yul\":29094:29414   */\n      swap2\n      swap1\n      pop\n      jump\t// out\n        /* \"#utility.yul\":29420:29701   */\n    tag_605:\n        /* \"#utility.yul\":29503:29530   */\n      tag_675\n        /* \"#utility.yul\":29525:29529   */\n      dup3\n        /* \"#utility.yul\":29503:29530   */\n      tag_491\n      jump\t// in\n    tag_675:\n        /* \"#utility.yul\":29495:29501   */\n      dup2\n        /* \"#utility.yul\":29491:29531   */\n      add\n        /* \"#utility.yul\":29633:29639   */\n      dup2\n        /* \"#utility.yul\":29621:29631   */\n      dup2\n        /* \"#utility.yul\":29618:29640   */\n      lt\n        /* \"#utility.yul\":29597:29615   */\n      0xffffffffffffffff\n        /* \"#utility.yul\":29585:29595   */\n      dup3\n        /* \"#utility.yul\":29582:29616   */\n      gt\n        /* \"#utility.yul\":29579:29641   */\n      or\n        /* \"#utility.yul\":29576:29664   */\n      iszero\n      tag_676\n      jumpi\n        /* \"#utility.yul\":29644:29662   */\n      tag_677\n      tag_197\n      jump\t// in\n    tag_677:\n        /* \"#utility.yul\":29576:29664   */\n    tag_676:\n        /* \"#utility.yul\":29684:29694   */\n      dup1\n        /* \"#utility.yul\":29680:29682   */\n      0x40\n        /* \"#utility.yul\":29673:29695   */\n      mstore\n        /* \"#utility.yul\":29463:29701   */\n      pop\n        /* \"#utility.yul\":29420:29701   */\n      pop\n      pop\n      jump\t// out\n        /* \"#utility.yul\":29707:29940   */\n    tag_155:\n        /* \"#utility.yul\":29746:29749   */\n      0x00\n        /* \"#utility.yul\":29769:29793   */\n      tag_679\n        /* \"#utility.yul\":29787:29792   */\n      dup3\n        /* \"#utility.yul\":29769:29793   */\n      tag_561\n      jump\t// in\n    tag_679:\n        /* \"#utility.yul\":29760:29793   */\n      swap2\n      pop\n        /* \"#utility.yul\":29815:29881   */\n      0xffffffffffffffffffffffffffffffffffffffffffffffffffffffffffffffff\n        /* \"#utility.yul\":29808:29813   */\n      dup3\n        /* \"#utility.yul\":29805:29882   */\n      eq\n        /* \"#utility.yul\":29802:29905   */\n      iszero\n      tag_680\n      jumpi\n        /* \"#utility.yul\":29885:29903   */\n      tag_681\n      tag_638\n      jump\t// in\n    tag_681:\n        /* \"#utility.yul\":29802:29905   */\n    tag_680:\n        /* \"#utility.yul\":29932:29933   */\n      0x01\n        /* \"#utility.yul\":29925:29930   */\n      dup3\n        /* \"#utility.yul\":29921:29934   */\n      add\n        /* \"#utility.yul\":29914:29934   */\n      swap1\n      pop\n        /* \"#utility.yul\":29707:29940   */\n      swap2\n      swap1\n      pop\n      jump\t// out\n        /* \"#utility.yul\":29946:30126   */\n    tag_638:\n        /* \"#utility.yul\":29994:30071   */\n      0x4e487b7100000000000000000000000000000000000000000000000000000000\n        /* \"#utility.yul\":29991:29992   */\n      0x00\n        /* \"#utility.yul\":29984:30072   */\n      mstore\n        /* \"#utility.yul\":30091:30095   */\n      0x11\n        /* \"#utility.yul\":30088:30089   */\n      0x04\n        /* \"#utility.yul\":30081:30096   */\n      mstore\n        /* \"#utility.yul\":30115:30119   */\n      0x24\n        /* \"#utility.yul\":30112:30113   */\n      0x00\n        /* \"#utility.yul\":30105:30120   */\n      revert\n        /* \"#utility.yul\":30132:30312   */\n    tag_673:\n        /* \"#utility.yul\":30180:30257   */\n      0x4e487b7100000000000000000000000000000000000000000000000000000000\n        /* \"#utility.yul\":30177:30178   */\n      0x00\n        /* \"#utility.yul\":30170:30258   */\n      mstore\n        /* \"#utility.yul\":30277:30281   */\n      0x22\n        /* \"#utility.yul\":30274:30275   */\n      0x04\n        /* \"#utility.yul\":30267:30282   */\n      mstore\n        /* \"#utility.yul\":30301:30305   */\n      0x24\n        /* \"#utility.yul\":30298:30299   */\n      0x00\n        /* \"#utility.yul\":30291:30306   */\n      revert\n        /* \"#utility.yul\":30318:30498   */\n    tag_175:\n        /* \"#utility.yul\":30366:30443   */\n      0x4e487b7100000000000000000000000000000000000000000000000000000000\n        /* \"#utility.yul\":30363:30364   */\n      0x00\n        /* \"#utility.yul\":30356:30444   */\n      mstore\n        /* \"#utility.yul\":30463:30467   */\n      0x32\n        /* \"#utility.yul\":30460:30461   */\n      0x04\n        /* \"#utility.yul\":30453:30468   */\n      mstore\n        /* \"#utility.yul\":30487:30491   */\n      0x24\n        /* \"#utility.yul\":30484:30485   */\n      0x00\n        /* \"#utility.yul\":30477:30492   */\n      revert\n        /* \"#utility.yul\":30504:30684   */\n    tag_197:\n        /* \"#utility.yul\":30552:30629   */\n      0x4e487b7100000000000000000000000000000000000000000000000000000000\n        /* \"#utility.yul\":30549:30550   */\n      0x00\n        /* \"#utility.yul\":30542:30630   */\n      mstore\n        /* \"#utility.yul\":30649:30653   */\n      0x41\n        /* \"#utility.yul\":30646:30647   */\n      0x04\n        /* \"#utility.yul\":30639:30654   */\n      mstore\n        /* \"#utility.yul\":30673:30677   */\n      0x24\n        /* \"#utility.yul\":30670:30671   */\n      0x00\n        /* \"#utility.yul\":30663:30678   */\n      revert\n        /* \"#utility.yul\":30690:30807   */\n    tag_315:\n        /* \"#utility.yul\":30799:30800   */\n      0x00\n        /* \"#utility.yul\":30796:30797   */\n      dup1\n        /* \"#utility.yul\":30789:30801   */\n      revert\n        /* \"#utility.yul\":30813:30930   */\n    tag_309:\n        /* \"#utility.yul\":30922:30923   */\n      0x00\n        /* \"#utility.yul\":30919:30920   */\n      dup1\n        /* \"#utility.yul\":30912:30924   */\n      revert\n        /* \"#utility.yul\":30936:31053   */\n    tag_325:\n        /* \"#utility.yul\":31045:31046   */\n      0x00\n        /* \"#utility.yul\":31042:31043   */\n      dup1\n        /* \"#utility.yul\":31035:31047   */\n      revert\n        /* \"#utility.yul\":31059:31176   */\n    tag_400:\n        /* \"#utility.yul\":31168:31169   */\n      0x00\n        /* \"#utility.yul\":31165:31166   */\n      dup1\n        /* \"#utility.yul\":31158:31170   */\n      revert\n        /* \"#utility.yul\":31182:31299   */\n    tag_375:\n        /* \"#utility.yul\":31291:31292   */\n      0x00\n        /* \"#utility.yul\":31288:31289   */\n      dup1\n        /* \"#utility.yul\":31281:31293   */\n      revert\n        /* \"#utility.yul\":31305:31407   */\n    tag_491:\n        /* \"#utility.yul\":31346:31352   */\n      0x00\n        /* \"#utility.yul\":31397:31399   */\n      0x1f\n        /* \"#utility.yul\":31393:31400   */\n      not\n        /* \"#utility.yul\":31388:31390   */\n      0x1f\n        /* \"#utility.yul\":31381:31386   */\n      dup4\n        /* \"#utility.yul\":31377:31391   */\n      add\n        /* \"#utility.yul\":31373:31401   */\n      and\n        /* \"#utility.yul\":31363:31401   */\n      swap1\n      pop\n        /* \"#utility.yul\":31305:31407   */\n      swap2\n      swap1\n      pop\n      jump\t// out\n        /* \"#utility.yul\":31413:31588   */\n    tag_528:\n        /* \"#utility.yul\":31553:31580   */\n      0x4552433732313a20617070726f766520746f2063616c6c657200000000000000\n        /* \"#utility.yul\":31549:31550   */\n      0x00\n        /* \"#utility.yul\":31541:31547   */\n      dup3\n        /* \"#utility.yul\":31537:31551   */\n      add\n        /* \"#utility.yul\":31530:31581   */\n      mstore\n        /* \"#utility.yul\":31413:31588   */\n      pop\n      jump\t// out\n        /* \"#utility.yul\":31594:31837   */\n    tag_533:\n        /* \"#utility.yul\":31734:31768   */\n      0x4552433732313a20617070726f76652063616c6c6572206973206e6f74206f77\n        /* \"#utility.yul\":31730:31731   */\n      0x00\n        /* \"#utility.yul\":31722:31728   */\n      dup3\n        /* \"#utility.yul\":31718:31732   */\n      add\n        /* \"#utility.yul\":31711:31769   */\n      mstore\n        /* \"#utility.yul\":31803:31829   */\n      0x6e6572206e6f7220617070726f76656420666f7220616c6c0000000000000000\n        /* \"#utility.yul\":31798:31800   */\n      0x20\n        /* \"#utility.yul\":31790:31796   */\n      dup3\n        /* \"#utility.yul\":31786:31801   */\n      add\n        /* \"#utility.yul\":31779:31830   */\n      mstore\n        /* \"#utility.yul\":31594:31837   */\n      pop\n      jump\t// out\n        /* \"#utility.yul\":31843:32071   */\n    tag_538:\n        /* \"#utility.yul\":31983:32017   */\n      0x4552433732313a207472616e73666572206f6620746f6b656e20746861742069\n        /* \"#utility.yul\":31979:31980   */\n      0x00\n        /* \"#utility.yul\":31971:31977   */\n      dup3\n        /* \"#utility.yul\":31967:31981   */\n      add\n        /* \"#utility.yul\":31960:32018   */\n      mstore\n        /* \"#utility.yul\":32052:32063   */\n      0x73206e6f74206f776e0000000000000000000000000000000000000000000000\n        /* \"#utility.yul\":32047:32049   */\n      0x20\n        /* \"#utility.yul\":32039:32045   */\n      dup3\n        /* \"#utility.yul\":32035:32050   */\n      add\n        /* \"#utility.yul\":32028:32064   */\n      mstore\n        /* \"#utility.yul\":31843:32071   */\n      pop\n      jump\t// out\n        /* \"#utility.yul\":32077:32297   */\n    tag_543:\n        /* \"#utility.yul\":32217:32251   */\n      0x4552433732313a20617070726f76616c20746f2063757272656e74206f776e65\n        /* \"#utility.yul\":32213:32214   */\n      0x00\n        /* \"#utility.yul\":32205:32211   */\n      dup3\n        /* \"#utility.yul\":32201:32215   */\n      add\n        /* \"#utility.yul\":32194:32252   */\n      mstore\n        /* \"#utility.yul\":32286:32289   */\n      0x7200000000000000000000000000000000000000000000000000000000000000\n        /* \"#utility.yul\":32281:32283   */\n      0x20\n        /* \"#utility.yul\":32273:32279   */\n      dup3\n        /* \"#utility.yul\":32269:32284   */\n      add\n        /* \"#utility.yul\":32262:32290   */\n      mstore\n        /* \"#utility.yul\":32077:32297   */\n      pop\n      jump\t// out\n        /* \"#utility.yul\":32303:32539   */\n    tag_548:\n        /* \"#utility.yul\":32443:32477   */\n      0x4552433732313a207472616e736665722063616c6c6572206973206e6f74206f\n        /* \"#utility.yul\":32439:32440   */\n      0x00\n        /* \"#utility.yul\":32431:32437   */\n      dup3\n        /* \"#utility.yul\":32427:32441   */\n      add\n        /* \"#utility.yul\":32420:32478   */\n      mstore\n        /* \"#utility.yul\":32512:32531   */\n      0x776e6572206e6f7220617070726f766564000000000000000000000000000000\n        /* \"#utility.yul\":32507:32509   */\n      0x20\n        /* \"#utility.yul\":32499:32505   */\n      dup3\n        /* \"#utility.yul\":32495:32510   */\n      add\n        /* \"#utility.yul\":32488:32532   */\n      mstore\n        /* \"#utility.yul\":32303:32539   */\n      pop\n      jump\t// out\n        /* \"#utility.yul\":32545:32714   */\n    tag_553:\n        /* \"#utility.yul\":32685:32706   */\n      0x496e646578206f7574206f6620626f756e647300000000000000000000000000\n        /* \"#utility.yul\":32681:32682   */\n      0x00\n        /* \"#utility.yul\":32673:32679   */\n      dup3\n        /* \"#utility.yul\":32669:32683   */\n      add\n        /* \"#utility.yul\":32662:32707   */\n      mstore\n        /* \"#utility.yul\":32545:32714   */\n      pop\n      jump\t// out\n        /* \"#utility.yul\":32720:32894   */\n    tag_558:\n        /* \"#utility.yul\":32860:32886   */\n      0x4552433732313a20616472657373203020696e76616c69640000000000000000\n        /* \"#utility.yul\":32856:32857   */\n      0x00\n        /* \"#utility.yul\":32848:32854   */\n      dup3\n        /* \"#utility.yul\":32844:32858   */\n      add\n        /* \"#utility.yul\":32837:32887   */\n      mstore\n        /* \"#utility.yul\":32720:32894   */\n      pop\n      jump\t// out\n        /* \"#utility.yul\":32900:33022   */\n    tag_339:\n        /* \"#utility.yul\":32973:32997   */\n      tag_700\n        /* \"#utility.yul\":32991:32996   */\n      dup2\n        /* \"#utility.yul\":32973:32997   */\n      tag_449\n      jump\t// in\n    tag_700:\n        /* \"#utility.yul\":32966:32971   */\n      dup2\n        /* \"#utility.yul\":32963:32998   */\n      eq\n        /* \"#utility.yul\":32953:33016   */\n      tag_701\n      jumpi\n        /* \"#utility.yul\":33012:33013   */\n      0x00\n        /* \"#utility.yul\":33009:33010   */\n      dup1\n        /* \"#utility.yul\":33002:33014   */\n      revert\n        /* \"#utility.yul\":32953:33016   */\n    tag_701:\n        /* \"#utility.yul\":32900:33022   */\n      pop\n      jump\t// out\n        /* \"#utility.yul\":33028:33144   */\n    tag_351:\n        /* \"#utility.yul\":33098:33119   */\n      tag_703\n        /* \"#utility.yul\":33113:33118   */\n      dup2\n        /* \"#utility.yul\":33098:33119   */\n      tag_481\n      jump\t// in\n    tag_703:\n        /* \"#utility.yul\":33091:33096   */\n      dup2\n        /* \"#utility.yul\":33088:33120   */\n      eq\n        /* \"#utility.yul\":33078:33138   */\n      tag_704\n      jumpi\n        /* \"#utility.yul\":33134:33135   */\n      0x00\n        /* \"#utility.yul\":33131:33132   */\n      dup1\n        /* \"#utility.yul\":33124:33136   */\n      revert\n        /* \"#utility.yul\":33078:33138   */\n    tag_704:\n        /* \"#utility.yul\":33028:33144   */\n      pop\n      jump\t// out\n        /* \"#utility.yul\":33150:33270   */\n    tag_355:\n        /* \"#utility.yul\":33222:33245   */\n      tag_706\n        /* \"#utility.yul\":33239:33244   */\n      dup2\n        /* \"#utility.yul\":33222:33245   */\n      tag_654\n      jump\t// in\n    tag_706:\n        /* \"#utility.yul\":33215:33220   */\n      dup2\n        /* \"#utility.yul\":33212:33246   */\n      eq\n        /* \"#utility.yul\":33202:33264   */\n      tag_707\n      jumpi\n        /* \"#utility.yul\":33260:33261   */\n      0x00\n        /* \"#utility.yul\":33257:33258   */\n      dup1\n        /* \"#utility.yul\":33250:33262   */\n      revert\n        /* \"#utility.yul\":33202:33264   */\n    tag_707:\n        /* \"#utility.yul\":33150:33270   */\n      pop\n      jump\t// out\n        /* \"#utility.yul\":33276:33398   */\n    tag_371:\n        /* \"#utility.yul\":33349:33373   */\n      tag_709\n        /* \"#utility.yul\":33367:33372   */\n      dup2\n        /* \"#utility.yul\":33349:33373   */\n      tag_561\n      jump\t// in\n    tag_709:\n        /* \"#utility.yul\":33342:33347   */\n      dup2\n        /* \"#utility.yul\":33339:33374   */\n      eq\n        /* \"#utility.yul\":33329:33392   */\n      tag_710\n      jumpi\n        /* \"#utility.yul\":33388:33389   */\n      0x00\n        /* \"#utility.yul\":33385:33386   */\n      dup1\n        /* \"#utility.yul\":33378:33390   */\n      revert\n        /* \"#utility.yul\":33329:33392   */\n    tag_710:\n        /* \"#utility.yul\":33276:33398   */\n      pop\n      jump\t// out\n\n    auxdata: 0xa26469706673582212200026df293aa92052d9d2823b80a129add4df865cda84c8c3b9db360336408cc264736f6c63430008070033\n}\n",
				"bytecode": {
					"linkReferences": {},
					"object": "608060405234801561001057600080fd5b50612c3b806100206000396000f3fe6080604052600436106100fe5760003560e01c80636352211e116100955780637fcb2989116100645780637fcb2989146103425780638462151c1461037f578063a22cb465146103bc578063b88d4fde146103e5578063e985e9c514610401576100fe565b80636352211e146102745780636ba367a3146102b157806370a08231146102dc5780637360cbba14610319576100fe565b80633d02d0c9116100d15780633d02d0c9146101b557806342842e0e146101f257806342966c681461020e5780634802693d14610237576100fe565b806301ffc9a714610103578063081812fc14610140578063095ea7b31461017d57806323b872dd14610199575b600080fd5b34801561010f57600080fd5b5061012a60048036038101906101259190611e8a565b61043e565b60405161013791906123de565b60405180910390f35b34801561014c57600080fd5b5061016760048036038101906101629190611ee4565b6104a8565b6040516101749190612333565b60405180910390f35b61019760048036038101906101929190611e4a565b6104e5565b005b6101b360048036038101906101ae9190611cd8565b6105f9565b005b3480156101c157600080fd5b506101dc60048036038101906101d79190611dee565b610609565b6040516101e991906124fb565b60405180910390f35b61020c60048036038101906102079190611cd8565b610904565b005b34801561021a57600080fd5b5061023560048036038101906102309190611ee4565b610924565b005b34801561024357600080fd5b5061025e60048036038101906102599190611c3e565b61094c565b60405161026b91906123f9565b60405180910390f35b34801561028057600080fd5b5061029b60048036038101906102969190611ee4565b610a35565b6040516102a89190612333565b60405180910390f35b3480156102bd57600080fd5b506102c6610b1a565b6040516102d391906124fb565b60405180910390f35b3480156102e857600080fd5b5061030360048036038101906102fe9190611c3e565b610b26565b60405161031091906124fb565b60405180910390f35b34801561032557600080fd5b50610340600480360381019061033b9190611f11565b610b8d565b005b34801561034e57600080fd5b5061036960048036038101906103649190611c3e565b610c74565b604051610376919061239a565b60405180910390f35b34801561038b57600080fd5b506103a660048036038101906103a19190611c3e565b610d8c565b6040516103b391906123bc565b60405180910390f35b3480156103c857600080fd5b506103e360048036038101906103de9190611dae565b610f15565b005b6103ff60048036038101906103fa9190611d2b565b611081565b005b34801561040d57600080fd5b5061042860048036038101906104239190611c98565b6110dc565b60405161043591906123de565b60405180910390f35b60007f80ac58cd000000000000000000000000000000000000000000000000000000007bffffffffffffffffffffffffffffffffffffffffffffffffffffffff1916827bffffffffffffffffffffffffffffffffffffffffffffffffffffffff1916149050919050565b60006005600083815260200190815260200160002060009054906101000a900473ffffffffffffffffffffffffffffffffffffffff169050919050565b6104ee81610a35565b73ffffffffffffffffffffffffffffffffffffffff168273ffffffffffffffffffffffffffffffffffffffff16141561055c576040517f08c379a00000000000000000000000000000000000000000000000000000000081526004016105539061247b565b60405180910390fd5b61056581610a35565b73ffffffffffffffffffffffffffffffffffffffff163373ffffffffffffffffffffffffffffffffffffffff1614806105ac57506105ab6105a582610a35565b336110dc565b5b6105eb576040517f08c379a00000000000000000000000000000000000000000000000000000000081526004016105e29061243b565b60405180910390fd5b6105f58282611170565b5050565b610604838383610904565b505050565b60008060405180604001604052803373ffffffffffffffffffffffffffffffffffffffff1681526020014267ffffffffffffffff168152509050600073ffffffffffffffffffffffffffffffffffffffff168473ffffffffffffffffffffffffffffffffffffffff16141561067d57600080fd5b6000819080600181540180825580915050600190039060005260206000200160009091909190915060008201518160000160006101000a81548173ffffffffffffffffffffffffffffffffffffffff021916908373ffffffffffffffffffffffffffffffffffffffff16021790555060208201518160000160146101000a81548167ffffffffffffffff021916908367ffffffffffffffff160217905550505060008054905091508260026000848152602001908152602001600020908051906020019061074c929190611941565b50600160008573ffffffffffffffffffffffffffffffffffffffff1673ffffffffffffffffffffffffffffffffffffffff168152602001908152602001600020839080600181540180825580915050600190039060005260206000200160009091909190915090805190602001906107c5929190611941565b506001600460008673ffffffffffffffffffffffffffffffffffffffff1673ffffffffffffffffffffffffffffffffffffffff16815260200190815260200160002060008282829054906101000a900467ffffffffffffffff1661082991906126fa565b92506101000a81548167ffffffffffffffff021916908367ffffffffffffffff160217905550836003600084815260200190815260200160002060006101000a81548173ffffffffffffffffffffffffffffffffffffffff021916908373ffffffffffffffffffffffffffffffffffffffff160217905550818473ffffffffffffffffffffffffffffffffffffffff16600073ffffffffffffffffffffffffffffffffffffffff167fddf252ad1be2c89b69c2b068fc378daa952ba7f163c4a11628f55a4df523b3ef60405160405180910390a45092915050565b61091f83838360405180602001604052806000815250611081565b505050565b61092e33826112aa565b61093757600080fd5b61094961094382610a35565b82611342565b50565b606060006040518060200160405280600081525090506000600190505b6000805490508111610a2b578373ffffffffffffffffffffffffffffffffffffffff166003600083815260200190815260200160002060009054906101000a900473ffffffffffffffffffffffffffffffffffffffff1673ffffffffffffffffffffffffffffffffffffffff161415610a17578160026000838152602001908152602001600020604051602001610a019291906122f8565b6040516020818303038152906040529150610a18565b5b8080610a23906128c3565b915050610969565b5080915050919050565b6000806003600084815260200190815260200160002060009054906101000a900473ffffffffffffffffffffffffffffffffffffffff169050600073ffffffffffffffffffffffffffffffffffffffff168173ffffffffffffffffffffffffffffffffffffffff161415610ade576040517f08c379a0000000000000000000000000000000000000000000000000000000008152600401610ad5906124db565b60405180910390fd5b6003600084815260200190815260200160002060009054906101000a900473ffffffffffffffffffffffffffffffffffffffff16915050919050565b60008080549050905090565b6000600460008373ffffffffffffffffffffffffffffffffffffffff1673ffffffffffffffffffffffffffffffffffffffff16815260200190815260200160002060009054906101000a900467ffffffffffffffff1667ffffffffffffffff169050919050565b80518210610bd0576040517f08c379a0000000000000000000000000000000000000000000000000000000008152600401610bc7906124bb565b60405180910390fd5b60008290505b60018251610be49190612738565b811015610c435781600182610bf991906126a4565b81518110610c0a57610c0961296a565b5b6020026020010151828281518110610c2557610c2461296a565b5b60200260200101819052508080610c3b906128c3565b915050610bd6565b508060018251610c539190612738565b81518110610c6457610c6361296a565b5b6020026020010160608152505050565b6060600160008373ffffffffffffffffffffffffffffffffffffffff1673ffffffffffffffffffffffffffffffffffffffff168152602001908152602001600020805480602002602001604051908101604052809291908181526020016000905b82821015610d81578382906000526020600020018054610cf490612860565b80601f0160208091040260200160405190810160405280929190818152602001828054610d2090612860565b8015610d6d5780601f10610d4257610100808354040283529160200191610d6d565b820191906000526020600020905b815481529060010190602001808311610d5057829003601f168201915b505050505081526020019060010190610cd5565b505050509050919050565b60606000610d9983610b26565b90506000811415610df657600067ffffffffffffffff811115610dbf57610dbe612999565b5b604051908082528060200260200182016040528015610ded5781602001602082028036833780820191505090505b50915050610f10565b60008167ffffffffffffffff811115610e1257610e11612999565b5b604051908082528060200260200182016040528015610e405781602001602082028036833780820191505090505b5090506000610e4d610b1a565b9050600080600190505b828111610f07578673ffffffffffffffffffffffffffffffffffffffff166003600083815260200190815260200160002060009054906101000a900473ffffffffffffffffffffffffffffffffffffffff1673ffffffffffffffffffffffffffffffffffffffff161415610ef45780848381518110610ed957610ed861296a565b5b6020026020010181815250508180610ef0906128c3565b9250505b8080610eff906128c3565b915050610e57565b83955050505050505b919050565b3373ffffffffffffffffffffffffffffffffffffffff168273ffffffffffffffffffffffffffffffffffffffff161415610f84576040517f08c379a0000000000000000000000000000000000000000000000000000000008152600401610f7b9061241b565b60405180910390fd5b80600660003373ffffffffffffffffffffffffffffffffffffffff1673ffffffffffffffffffffffffffffffffffffffff16815260200190815260200160002060008473ffffffffffffffffffffffffffffffffffffffff1673ffffffffffffffffffffffffffffffffffffffff16815260200190815260200160002060006101000a81548160ff0219169083151502179055508173ffffffffffffffffffffffffffffffffffffffff163373ffffffffffffffffffffffffffffffffffffffff167f17307eab39ab6107e8899845ad3d59bd9653f200f220920489ca2b5937696c318360405161107591906123de565b60405180910390a35050565b61108b33836112aa565b6110ca576040517f08c379a00000000000000000000000000000000000000000000000000000000081526004016110c19061249b565b60405180910390fd5b6110d684848484611352565b50505050565b6000600660008473ffffffffffffffffffffffffffffffffffffffff1673ffffffffffffffffffffffffffffffffffffffff16815260200190815260200160002060008373ffffffffffffffffffffffffffffffffffffffff1673ffffffffffffffffffffffffffffffffffffffff16815260200190815260200160002060009054906101000a900460ff16905092915050565b816005600083815260200190815260200160002060006101000a81548173ffffffffffffffffffffffffffffffffffffffff021916908373ffffffffffffffffffffffffffffffffffffffff16021790555060008273ffffffffffffffffffffffffffffffffffffffff163073ffffffffffffffffffffffffffffffffffffffff16636352211e846040518263ffffffff1660e01b815260040161121491906124fb565b60206040518083038186803b15801561122c57600080fd5b505afa158015611240573d6000803e3d6000fd5b505050506040513d601f19601f820116820180604052508101906112649190611c6b565b73ffffffffffffffffffffffffffffffffffffffff167f8c5be1e5ebec7d5bd14f71427d1e84f3dd0314c0f7b2291e5b200ac8c7c3b92560405160405180910390a45050565b60008273ffffffffffffffffffffffffffffffffffffffff166112cc83610a35565b73ffffffffffffffffffffffffffffffffffffffff16148061132157508273ffffffffffffffffffffffffffffffffffffffff16611309836104a8565b73ffffffffffffffffffffffffffffffffffffffff16145b8061133a575061133961133383610a35565b846110dc565b5b905092915050565b61134e826000836114d5565b5050565b61135d8484846114d5565b6000833b905060008163ffffffff1611156114ce5760008490507f150b7a023d4804d13e8c85fb27262cb750cf6ba9f9dd3bb30d90f482ceeb4b1f7bffffffffffffffffffffffffffffffffffffffffffffffffffffffff19168173ffffffffffffffffffffffffffffffffffffffff1663150b7a02338988886040518563ffffffff1660e01b81526004016113f6949392919061234e565b602060405180830381600087803b15801561141057600080fd5b505af1158015611424573d6000803e3d6000fd5b505050506040513d601f19601f820116820180604052508101906114489190611eb7565b7bffffffffffffffffffffffffffffffffffffffffffffffffffffffff19161461147157600080fd5b838573ffffffffffffffffffffffffffffffffffffffff168773ffffffffffffffffffffffffffffffffffffffff167fddf252ad1be2c89b69c2b068fc378daa952ba7f163c4a11628f55a4df523b3ef60405160405180910390a4505b5050505050565b8273ffffffffffffffffffffffffffffffffffffffff166114f582610a35565b73ffffffffffffffffffffffffffffffffffffffff161461154b576040517f08c379a00000000000000000000000000000000000000000000000000000000081526004016115429061245b565b60405180910390fd5b611556600082611170565b816003600083815260200190815260200160002060006101000a81548173ffffffffffffffffffffffffffffffffffffffff021916908373ffffffffffffffffffffffffffffffffffffffff1602179055506000600160008573ffffffffffffffffffffffffffffffffffffffff1673ffffffffffffffffffffffffffffffffffffffff168152602001908152602001600020805490509050600460008573ffffffffffffffffffffffffffffffffffffffff1673ffffffffffffffffffffffffffffffffffffffff168152602001908152602001600020600081819054906101000a900467ffffffffffffffff168092919061165290612836565b91906101000a81548167ffffffffffffffff021916908367ffffffffffffffff1602179055505060005b818110156118df57600260008481526020019081526020016000206040516020016116a7919061231c565b60405160208183030381529060405280519060200120600160008773ffffffffffffffffffffffffffffffffffffffff1673ffffffffffffffffffffffffffffffffffffffff168152602001908152602001600020828154811061170e5761170d61296a565b5b90600052602060002001604051602001611728919061231c565b6040516020818303038152906040528051906020012014156118cb57600160008673ffffffffffffffffffffffffffffffffffffffff1673ffffffffffffffffffffffffffffffffffffffff16815260200190815260200160002081815481106117955761179461296a565b5b9060005260206000200160006117ab91906119c7565b6118c381600160008873ffffffffffffffffffffffffffffffffffffffff1673ffffffffffffffffffffffffffffffffffffffff168152602001908152602001600020805480602002602001604051908101604052809291908181526020016000905b828210156118ba57838290600052602060002001805461182d90612860565b80601f016020809104026020016040519081016040528092919081815260200182805461185990612860565b80156118a65780601f1061187b576101008083540402835291602001916118a6565b820191906000526020600020905b81548152906001019060200180831161188957829003601f168201915b50505050508152602001906001019061180e565b50505050610b8d565b8190506118da565b80806118d6906128c3565b9150505b61167c565b828473ffffffffffffffffffffffffffffffffffffffff168673ffffffffffffffffffffffffffffffffffffffff167fddf252ad1be2c89b69c2b068fc378daa952ba7f163c4a11628f55a4df523b3ef60405160405180910390a45050505050565b82805461194d90612860565b90600052602060002090601f01602090048101928261196f57600085556119b6565b82601f1061198857805160ff19168380011785556119b6565b828001600101855582156119b6579182015b828111156119b557825182559160200191906001019061199a565b5b5090506119c39190611a07565b5090565b5080546119d390612860565b6000825580601f106119e55750611a04565b601f016020900490600052602060002090810190611a039190611a07565b5b50565b5b80821115611a20576000816000905550600101611a08565b5090565b6000611a37611a328461253b565b612516565b90508083825260208201905082856020860282011115611a5a57611a596129cd565b5b60005b85811015611aa857813567ffffffffffffffff811115611a8057611a7f6129c8565b5b808601611a8d8982611bfb565b85526020850194506020840193505050600181019050611a5d565b5050509392505050565b6000611ac5611ac084612567565b612516565b905082815260208101848484011115611ae157611ae06129d2565b5b611aec8482856127f4565b509392505050565b6000611b07611b0284612598565b612516565b905082815260208101848484011115611b2357611b226129d2565b5b611b2e8482856127f4565b509392505050565b600081359050611b4581612ba9565b92915050565b600081519050611b5a81612ba9565b92915050565b600082601f830112611b7557611b746129c8565b5b8135611b85848260208601611a24565b91505092915050565b600081359050611b9d81612bc0565b92915050565b600081359050611bb281612bd7565b92915050565b600081519050611bc781612bd7565b92915050565b600082601f830112611be257611be16129c8565b5b8135611bf2848260208601611ab2565b91505092915050565b600082601f830112611c1057611c0f6129c8565b5b8135611c20848260208601611af4565b91505092915050565b600081359050611c3881612bee565b92915050565b600060208284031215611c5457611c536129dc565b5b6000611c6284828501611b36565b91505092915050565b600060208284031215611c8157611c806129dc565b5b6000611c8f84828501611b4b565b91505092915050565b60008060408385031215611caf57611cae6129dc565b5b6000611cbd85828601611b36565b9250506020611cce85828601611b36565b9150509250929050565b600080600060608486031215611cf157611cf06129dc565b5b6000611cff86828701611b36565b9350506020611d1086828701611b36565b9250506040611d2186828701611c29565b9150509250925092565b60008060008060808587031215611d4557611d446129dc565b5b6000611d5387828801611b36565b9450506020611d6487828801611b36565b9350506040611d7587828801611c29565b925050606085013567ffffffffffffffff811115611d9657611d956129d7565b5b611da287828801611bcd565b91505092959194509250565b60008060408385031215611dc557611dc46129dc565b5b6000611dd385828601611b36565b9250506020611de485828601611b8e565b9150509250929050565b60008060408385031215611e0557611e046129dc565b5b6000611e1385828601611b36565b925050602083013567ffffffffffffffff811115611e3457611e336129d7565b5b611e4085828601611bfb565b9150509250929050565b60008060408385031215611e6157611e606129dc565b5b6000611e6f85828601611b36565b9250506020611e8085828601611c29565b9150509250929050565b600060208284031215611ea057611e9f6129dc565b5b6000611eae84828501611ba3565b91505092915050565b600060208284031215611ecd57611ecc6129dc565b5b6000611edb84828501611bb8565b91505092915050565b600060208284031215611efa57611ef96129dc565b5b6000611f0884828501611c29565b91505092915050565b60008060408385031215611f2857611f276129dc565b5b6000611f3685828601611c29565b925050602083013567ffffffffffffffff811115611f5757611f566129d7565b5b611f6385828601611b60565b9150509250929050565b6000611f7983836120c3565b905092915050565b6000611f8d83836122da565b60208301905092915050565b611fa28161276c565b82525050565b6000611fb3826125fe565b611fbd8185612644565b935083602082028501611fcf856125c9565b8060005b8581101561200b5784840389528151611fec8582611f6d565b9450611ff78361262a565b925060208a01995050600181019050611fd3565b50829750879550505050505092915050565b600061202882612609565b6120328185612655565b935061203d836125d9565b8060005b8381101561206e5781516120558882611f81565b975061206083612637565b925050600181019050612041565b5085935050505092915050565b6120848161277e565b82525050565b600061209582612614565b61209f8185612666565b93506120af818560208601612803565b6120b8816129e1565b840191505092915050565b60006120ce8261261f565b6120d88185612677565b93506120e8818560208601612803565b6120f1816129e1565b840191505092915050565b60006121078261261f565b6121118185612688565b9350612121818560208601612803565b61212a816129e1565b840191505092915050565b60006121408261261f565b61214a8185612699565b935061215a818560208601612803565b80840191505092915050565b6000815461217381612860565b61217d8186612699565b9450600182166000811461219857600181146121a9576121dc565b60ff198316865281860193506121dc565b6121b2856125e9565b60005b838110156121d4578154818901526001820191506020810190506121b5565b838801955050505b50505092915050565b60006121f2601983612688565b91506121fd826129f2565b602082019050919050565b6000612215603883612688565b915061222082612a1b565b604082019050919050565b6000612238602983612688565b915061224382612a6a565b604082019050919050565b600061225b602183612688565b915061226682612ab9565b604082019050919050565b600061227e603183612688565b915061228982612b08565b604082019050919050565b60006122a1601383612688565b91506122ac82612b57565b602082019050919050565b60006122c4601883612688565b91506122cf82612b80565b602082019050919050565b6122e3816127d6565b82525050565b6122f2816127d6565b82525050565b60006123048285612135565b91506123108284612166565b91508190509392505050565b60006123288284612166565b915081905092915050565b60006020820190506123486000830184611f99565b92915050565b60006080820190506123636000830187611f99565b6123706020830186611f99565b61237d60408301856122e9565b818103606083015261238f818461208a565b905095945050505050565b600060208201905081810360008301526123b48184611fa8565b905092915050565b600060208201905081810360008301526123d6818461201d565b905092915050565b60006020820190506123f3600083018461207b565b92915050565b6000602082019050818103600083015261241381846120fc565b905092915050565b60006020820190508181036000830152612434816121e5565b9050919050565b6000602082019050818103600083015261245481612208565b9050919050565b600060208201905081810360008301526124748161222b565b9050919050565b600060208201905081810360008301526124948161224e565b9050919050565b600060208201905081810360008301526124b481612271565b9050919050565b600060208201905081810360008301526124d481612294565b9050919050565b600060208201905081810360008301526124f4816122b7565b9050919050565b600060208201905061251060008301846122e9565b92915050565b6000612520612531565b905061252c8282612892565b919050565b6000604051905090565b600067ffffffffffffffff82111561255657612555612999565b5b602082029050602081019050919050565b600067ffffffffffffffff82111561258257612581612999565b5b61258b826129e1565b9050602081019050919050565b600067ffffffffffffffff8211156125b3576125b2612999565b5b6125bc826129e1565b9050602081019050919050565b6000819050602082019050919050565b6000819050602082019050919050565b60008190508160005260206000209050919050565b600081519050919050565b600081519050919050565b600081519050919050565b600081519050919050565b6000602082019050919050565b6000602082019050919050565b600082825260208201905092915050565b600082825260208201905092915050565b600082825260208201905092915050565b600082825260208201905092915050565b600082825260208201905092915050565b600081905092915050565b60006126af826127d6565b91506126ba836127d6565b9250827fffffffffffffffffffffffffffffffffffffffffffffffffffffffffffffffff038211156126ef576126ee61290c565b5b828201905092915050565b6000612705826127e0565b9150612710836127e0565b92508267ffffffffffffffff0382111561272d5761272c61290c565b5b828201905092915050565b6000612743826127d6565b915061274e836127d6565b9250828210156127615761276061290c565b5b828203905092915050565b6000612777826127b6565b9050919050565b60008115159050919050565b60007fffffffff0000000000000000000000000000000000000000000000000000000082169050919050565b600073ffffffffffffffffffffffffffffffffffffffff82169050919050565b6000819050919050565b600067ffffffffffffffff82169050919050565b82818337600083830152505050565b60005b83811015612821578082015181840152602081019050612806565b83811115612830576000848401525b50505050565b6000612841826127e0565b915060008214156128555761285461290c565b5b600182039050919050565b6000600282049050600182168061287857607f821691505b6020821081141561288c5761288b61293b565b5b50919050565b61289b826129e1565b810181811067ffffffffffffffff821117156128ba576128b9612999565b5b80604052505050565b60006128ce826127d6565b91507fffffffffffffffffffffffffffffffffffffffffffffffffffffffffffffffff8214156129015761290061290c565b5b600182019050919050565b7f4e487b7100000000000000000000000000000000000000000000000000000000600052601160045260246000fd5b7f4e487b7100000000000000000000000000000000000000000000000000000000600052602260045260246000fd5b7f4e487b7100000000000000000000000000000000000000000000000000000000600052603260045260246000fd5b7f4e487b7100000000000000000000000000000000000000000000000000000000600052604160045260246000fd5b600080fd5b600080fd5b600080fd5b600080fd5b600080fd5b6000601f19601f8301169050919050565b7f4552433732313a20617070726f766520746f2063616c6c657200000000000000600082015250565b7f4552433732313a20617070726f76652063616c6c6572206973206e6f74206f7760008201527f6e6572206e6f7220617070726f76656420666f7220616c6c0000000000000000602082015250565b7f4552433732313a207472616e73666572206f6620746f6b656e2074686174206960008201527f73206e6f74206f776e0000000000000000000000000000000000000000000000602082015250565b7f4552433732313a20617070726f76616c20746f2063757272656e74206f776e6560008201527f7200000000000000000000000000000000000000000000000000000000000000602082015250565b7f4552433732313a207472616e736665722063616c6c6572206973206e6f74206f60008201527f776e6572206e6f7220617070726f766564000000000000000000000000000000602082015250565b7f496e646578206f7574206f6620626f756e647300000000000000000000000000600082015250565b7f4552433732313a20616472657373203020696e76616c69640000000000000000600082015250565b612bb28161276c565b8114612bbd57600080fd5b50565b612bc98161277e565b8114612bd457600080fd5b50565b612be08161278a565b8114612beb57600080fd5b50565b612bf7816127d6565b8114612c0257600080fd5b5056fea26469706673582212200026df293aa92052d9d2823b80a129add4df865cda84c8c3b9db360336408cc264736f6c63430008070033",
					"opcodes": "PUSH1 0x80 PUSH1 0x40 MSTORE CALLVALUE DUP1 ISZERO PUSH2 0x10 JUMPI PUSH1 0x0 DUP1 REVERT JUMPDEST POP PUSH2 0x2C3B DUP1 PUSH2 0x20 PUSH1 0x0 CODECOPY PUSH1 0x0 RETURN INVALID PUSH1 0x80 PUSH1 0x40 MSTORE PUSH1 0x4 CALLDATASIZE LT PUSH2 0xFE JUMPI PUSH1 0x0 CALLDATALOAD PUSH1 0xE0 SHR DUP1 PUSH4 0x6352211E GT PUSH2 0x95 JUMPI DUP1 PUSH4 0x7FCB2989 GT PUSH2 0x64 JUMPI DUP1 PUSH4 0x7FCB2989 EQ PUSH2 0x342 JUMPI DUP1 PUSH4 0x8462151C EQ PUSH2 0x37F JUMPI DUP1 PUSH4 0xA22CB465 EQ PUSH2 0x3BC JUMPI DUP1 PUSH4 0xB88D4FDE EQ PUSH2 0x3E5 JUMPI DUP1 PUSH4 0xE985E9C5 EQ PUSH2 0x401 JUMPI PUSH2 0xFE JUMP JUMPDEST DUP1 PUSH4 0x6352211E EQ PUSH2 0x274 JUMPI DUP1 PUSH4 0x6BA367A3 EQ PUSH2 0x2B1 JUMPI DUP1 PUSH4 0x70A08231 EQ PUSH2 0x2DC JUMPI DUP1 PUSH4 0x7360CBBA EQ PUSH2 0x319 JUMPI PUSH2 0xFE JUMP JUMPDEST DUP1 PUSH4 0x3D02D0C9 GT PUSH2 0xD1 JUMPI DUP1 PUSH4 0x3D02D0C9 EQ PUSH2 0x1B5 JUMPI DUP1 PUSH4 0x42842E0E EQ PUSH2 0x1F2 JUMPI DUP1 PUSH4 0x42966C68 EQ PUSH2 0x20E JUMPI DUP1 PUSH4 0x4802693D EQ PUSH2 0x237 JUMPI PUSH2 0xFE JUMP JUMPDEST DUP1 PUSH4 0x1FFC9A7 EQ PUSH2 0x103 JUMPI DUP1 PUSH4 0x81812FC EQ PUSH2 0x140 JUMPI DUP1 PUSH4 0x95EA7B3 EQ PUSH2 0x17D JUMPI DUP1 PUSH4 0x23B872DD EQ PUSH2 0x199 JUMPI JUMPDEST PUSH1 0x0 DUP1 REVERT JUMPDEST CALLVALUE DUP1 ISZERO PUSH2 0x10F JUMPI PUSH1 0x0 DUP1 REVERT JUMPDEST POP PUSH2 0x12A PUSH1 0x4 DUP1 CALLDATASIZE SUB DUP2 ADD SWAP1 PUSH2 0x125 SWAP2 SWAP1 PUSH2 0x1E8A JUMP JUMPDEST PUSH2 0x43E JUMP JUMPDEST PUSH1 0x40 MLOAD PUSH2 0x137 SWAP2 SWAP1 PUSH2 0x23DE JUMP JUMPDEST PUSH1 0x40 MLOAD DUP1 SWAP2 SUB SWAP1 RETURN JUMPDEST CALLVALUE DUP1 ISZERO PUSH2 0x14C JUMPI PUSH1 0x0 DUP1 REVERT JUMPDEST POP PUSH2 0x167 PUSH1 0x4 DUP1 CALLDATASIZE SUB DUP2 ADD SWAP1 PUSH2 0x162 SWAP2 SWAP1 PUSH2 0x1EE4 JUMP JUMPDEST PUSH2 0x4A8 JUMP JUMPDEST PUSH1 0x40 MLOAD PUSH2 0x174 SWAP2 SWAP1 PUSH2 0x2333 JUMP JUMPDEST PUSH1 0x40 MLOAD DUP1 SWAP2 SUB SWAP1 RETURN JUMPDEST PUSH2 0x197 PUSH1 0x4 DUP1 CALLDATASIZE SUB DUP2 ADD SWAP1 PUSH2 0x192 SWAP2 SWAP1 PUSH2 0x1E4A JUMP JUMPDEST PUSH2 0x4E5 JUMP JUMPDEST STOP JUMPDEST PUSH2 0x1B3 PUSH1 0x4 DUP1 CALLDATASIZE SUB DUP2 ADD SWAP1 PUSH2 0x1AE SWAP2 SWAP1 PUSH2 0x1CD8 JUMP JUMPDEST PUSH2 0x5F9 JUMP JUMPDEST STOP JUMPDEST CALLVALUE DUP1 ISZERO PUSH2 0x1C1 JUMPI PUSH1 0x0 DUP1 REVERT JUMPDEST POP PUSH2 0x1DC PUSH1 0x4 DUP1 CALLDATASIZE SUB DUP2 ADD SWAP1 PUSH2 0x1D7 SWAP2 SWAP1 PUSH2 0x1DEE JUMP JUMPDEST PUSH2 0x609 JUMP JUMPDEST PUSH1 0x40 MLOAD PUSH2 0x1E9 SWAP2 SWAP1 PUSH2 0x24FB JUMP JUMPDEST PUSH1 0x40 MLOAD DUP1 SWAP2 SUB SWAP1 RETURN JUMPDEST PUSH2 0x20C PUSH1 0x4 DUP1 CALLDATASIZE SUB DUP2 ADD SWAP1 PUSH2 0x207 SWAP2 SWAP1 PUSH2 0x1CD8 JUMP JUMPDEST PUSH2 0x904 JUMP JUMPDEST STOP JUMPDEST CALLVALUE DUP1 ISZERO PUSH2 0x21A JUMPI PUSH1 0x0 DUP1 REVERT JUMPDEST POP PUSH2 0x235 PUSH1 0x4 DUP1 CALLDATASIZE SUB DUP2 ADD SWAP1 PUSH2 0x230 SWAP2 SWAP1 PUSH2 0x1EE4 JUMP JUMPDEST PUSH2 0x924 JUMP JUMPDEST STOP JUMPDEST CALLVALUE DUP1 ISZERO PUSH2 0x243 JUMPI PUSH1 0x0 DUP1 REVERT JUMPDEST POP PUSH2 0x25E PUSH1 0x4 DUP1 CALLDATASIZE SUB DUP2 ADD SWAP1 PUSH2 0x259 SWAP2 SWAP1 PUSH2 0x1C3E JUMP JUMPDEST PUSH2 0x94C JUMP JUMPDEST PUSH1 0x40 MLOAD PUSH2 0x26B SWAP2 SWAP1 PUSH2 0x23F9 JUMP JUMPDEST PUSH1 0x40 MLOAD DUP1 SWAP2 SUB SWAP1 RETURN JUMPDEST CALLVALUE DUP1 ISZERO PUSH2 0x280 JUMPI PUSH1 0x0 DUP1 REVERT JUMPDEST POP PUSH2 0x29B PUSH1 0x4 DUP1 CALLDATASIZE SUB DUP2 ADD SWAP1 PUSH2 0x296 SWAP2 SWAP1 PUSH2 0x1EE4 JUMP JUMPDEST PUSH2 0xA35 JUMP JUMPDEST PUSH1 0x40 MLOAD PUSH2 0x2A8 SWAP2 SWAP1 PUSH2 0x2333 JUMP JUMPDEST PUSH1 0x40 MLOAD DUP1 SWAP2 SUB SWAP1 RETURN JUMPDEST CALLVALUE DUP1 ISZERO PUSH2 0x2BD JUMPI PUSH1 0x0 DUP1 REVERT JUMPDEST POP PUSH2 0x2C6 PUSH2 0xB1A JUMP JUMPDEST PUSH1 0x40 MLOAD PUSH2 0x2D3 SWAP2 SWAP1 PUSH2 0x24FB JUMP JUMPDEST PUSH1 0x40 MLOAD DUP1 SWAP2 SUB SWAP1 RETURN JUMPDEST CALLVALUE DUP1 ISZERO PUSH2 0x2E8 JUMPI PUSH1 0x0 DUP1 REVERT JUMPDEST POP PUSH2 0x303 PUSH1 0x4 DUP1 CALLDATASIZE SUB DUP2 ADD SWAP1 PUSH2 0x2FE SWAP2 SWAP1 PUSH2 0x1C3E JUMP JUMPDEST PUSH2 0xB26 JUMP JUMPDEST PUSH1 0x40 MLOAD PUSH2 0x310 SWAP2 SWAP1 PUSH2 0x24FB JUMP JUMPDEST PUSH1 0x40 MLOAD DUP1 SWAP2 SUB SWAP1 RETURN JUMPDEST CALLVALUE DUP1 ISZERO PUSH2 0x325 JUMPI PUSH1 0x0 DUP1 REVERT JUMPDEST POP PUSH2 0x340 PUSH1 0x4 DUP1 CALLDATASIZE SUB DUP2 ADD SWAP1 PUSH2 0x33B SWAP2 SWAP1 PUSH2 0x1F11 JUMP JUMPDEST PUSH2 0xB8D JUMP JUMPDEST STOP JUMPDEST CALLVALUE DUP1 ISZERO PUSH2 0x34E JUMPI PUSH1 0x0 DUP1 REVERT JUMPDEST POP PUSH2 0x369 PUSH1 0x4 DUP1 CALLDATASIZE SUB DUP2 ADD SWAP1 PUSH2 0x364 SWAP2 SWAP1 PUSH2 0x1C3E JUMP JUMPDEST PUSH2 0xC74 JUMP JUMPDEST PUSH1 0x40 MLOAD PUSH2 0x376 SWAP2 SWAP1 PUSH2 0x239A JUMP JUMPDEST PUSH1 0x40 MLOAD DUP1 SWAP2 SUB SWAP1 RETURN JUMPDEST CALLVALUE DUP1 ISZERO PUSH2 0x38B JUMPI PUSH1 0x0 DUP1 REVERT JUMPDEST POP PUSH2 0x3A6 PUSH1 0x4 DUP1 CALLDATASIZE SUB DUP2 ADD SWAP1 PUSH2 0x3A1 SWAP2 SWAP1 PUSH2 0x1C3E JUMP JUMPDEST PUSH2 0xD8C JUMP JUMPDEST PUSH1 0x40 MLOAD PUSH2 0x3B3 SWAP2 SWAP1 PUSH2 0x23BC JUMP JUMPDEST PUSH1 0x40 MLOAD DUP1 SWAP2 SUB SWAP1 RETURN JUMPDEST CALLVALUE DUP1 ISZERO PUSH2 0x3C8 JUMPI PUSH1 0x0 DUP1 REVERT JUMPDEST POP PUSH2 0x3E3 PUSH1 0x4 DUP1 CALLDATASIZE SUB DUP2 ADD SWAP1 PUSH2 0x3DE SWAP2 SWAP1 PUSH2 0x1DAE JUMP JUMPDEST PUSH2 0xF15 JUMP JUMPDEST STOP JUMPDEST PUSH2 0x3FF PUSH1 0x4 DUP1 CALLDATASIZE SUB DUP2 ADD SWAP1 PUSH2 0x3FA SWAP2 SWAP1 PUSH2 0x1D2B JUMP JUMPDEST PUSH2 0x1081 JUMP JUMPDEST STOP JUMPDEST CALLVALUE DUP1 ISZERO PUSH2 0x40D JUMPI PUSH1 0x0 DUP1 REVERT JUMPDEST POP PUSH2 0x428 PUSH1 0x4 DUP1 CALLDATASIZE SUB DUP2 ADD SWAP1 PUSH2 0x423 SWAP2 SWAP1 PUSH2 0x1C98 JUMP JUMPDEST PUSH2 0x10DC JUMP JUMPDEST PUSH1 0x40 MLOAD PUSH2 0x435 SWAP2 SWAP1 PUSH2 0x23DE JUMP JUMPDEST PUSH1 0x40 MLOAD DUP1 SWAP2 SUB SWAP1 RETURN JUMPDEST PUSH1 0x0 PUSH32 0x80AC58CD00000000000000000000000000000000000000000000000000000000 PUSH28 0xFFFFFFFFFFFFFFFFFFFFFFFFFFFFFFFFFFFFFFFFFFFFFFFFFFFFFFFF NOT AND DUP3 PUSH28 0xFFFFFFFFFFFFFFFFFFFFFFFFFFFFFFFFFFFFFFFFFFFFFFFFFFFFFFFF NOT AND EQ SWAP1 POP SWAP2 SWAP1 POP JUMP JUMPDEST PUSH1 0x0 PUSH1 0x5 PUSH1 0x0 DUP4 DUP2 MSTORE PUSH1 0x20 ADD SWAP1 DUP2 MSTORE PUSH1 0x20 ADD PUSH1 0x0 KECCAK256 PUSH1 0x0 SWAP1 SLOAD SWAP1 PUSH2 0x100 EXP SWAP1 DIV PUSH20 0xFFFFFFFFFFFFFFFFFFFFFFFFFFFFFFFFFFFFFFFF AND SWAP1 POP SWAP2 SWAP1 POP JUMP JUMPDEST PUSH2 0x4EE DUP2 PUSH2 0xA35 JUMP JUMPDEST PUSH20 0xFFFFFFFFFFFFFFFFFFFFFFFFFFFFFFFFFFFFFFFF AND DUP3 PUSH20 0xFFFFFFFFFFFFFFFFFFFFFFFFFFFFFFFFFFFFFFFF AND EQ ISZERO PUSH2 0x55C JUMPI PUSH1 0x40 MLOAD PUSH32 0x8C379A000000000000000000000000000000000000000000000000000000000 DUP2 MSTORE PUSH1 0x4 ADD PUSH2 0x553 SWAP1 PUSH2 0x247B JUMP JUMPDEST PUSH1 0x40 MLOAD DUP1 SWAP2 SUB SWAP1 REVERT JUMPDEST PUSH2 0x565 DUP2 PUSH2 0xA35 JUMP JUMPDEST PUSH20 0xFFFFFFFFFFFFFFFFFFFFFFFFFFFFFFFFFFFFFFFF AND CALLER PUSH20 0xFFFFFFFFFFFFFFFFFFFFFFFFFFFFFFFFFFFFFFFF AND EQ DUP1 PUSH2 0x5AC JUMPI POP PUSH2 0x5AB PUSH2 0x5A5 DUP3 PUSH2 0xA35 JUMP JUMPDEST CALLER PUSH2 0x10DC JUMP JUMPDEST JUMPDEST PUSH2 0x5EB JUMPI PUSH1 0x40 MLOAD PUSH32 0x8C379A000000000000000000000000000000000000000000000000000000000 DUP2 MSTORE PUSH1 0x4 ADD PUSH2 0x5E2 SWAP1 PUSH2 0x243B JUMP JUMPDEST PUSH1 0x40 MLOAD DUP1 SWAP2 SUB SWAP1 REVERT JUMPDEST PUSH2 0x5F5 DUP3 DUP3 PUSH2 0x1170 JUMP JUMPDEST POP POP JUMP JUMPDEST PUSH2 0x604 DUP4 DUP4 DUP4 PUSH2 0x904 JUMP JUMPDEST POP POP POP JUMP JUMPDEST PUSH1 0x0 DUP1 PUSH1 0x40 MLOAD DUP1 PUSH1 0x40 ADD PUSH1 0x40 MSTORE DUP1 CALLER PUSH20 0xFFFFFFFFFFFFFFFFFFFFFFFFFFFFFFFFFFFFFFFF AND DUP2 MSTORE PUSH1 0x20 ADD TIMESTAMP PUSH8 0xFFFFFFFFFFFFFFFF AND DUP2 MSTORE POP SWAP1 POP PUSH1 0x0 PUSH20 0xFFFFFFFFFFFFFFFFFFFFFFFFFFFFFFFFFFFFFFFF AND DUP5 PUSH20 0xFFFFFFFFFFFFFFFFFFFFFFFFFFFFFFFFFFFFFFFF AND EQ ISZERO PUSH2 0x67D JUMPI PUSH1 0x0 DUP1 REVERT JUMPDEST PUSH1 0x0 DUP2 SWAP1 DUP1 PUSH1 0x1 DUP2 SLOAD ADD DUP1 DUP3 SSTORE DUP1 SWAP2 POP POP PUSH1 0x1 SWAP1 SUB SWAP1 PUSH1 0x0 MSTORE PUSH1 0x20 PUSH1 0x0 KECCAK256 ADD PUSH1 0x0 SWAP1 SWAP2 SWAP1 SWAP2 SWAP1 SWAP2 POP PUSH1 0x0 DUP3 ADD MLOAD DUP2 PUSH1 0x0 ADD PUSH1 0x0 PUSH2 0x100 EXP DUP2 SLOAD DUP2 PUSH20 0xFFFFFFFFFFFFFFFFFFFFFFFFFFFFFFFFFFFFFFFF MUL NOT AND SWAP1 DUP4 PUSH20 0xFFFFFFFFFFFFFFFFFFFFFFFFFFFFFFFFFFFFFFFF AND MUL OR SWAP1 SSTORE POP PUSH1 0x20 DUP3 ADD MLOAD DUP2 PUSH1 0x0 ADD PUSH1 0x14 PUSH2 0x100 EXP DUP2 SLOAD DUP2 PUSH8 0xFFFFFFFFFFFFFFFF MUL NOT AND SWAP1 DUP4 PUSH8 0xFFFFFFFFFFFFFFFF AND MUL OR SWAP1 SSTORE POP POP POP PUSH1 0x0 DUP1 SLOAD SWAP1 POP SWAP2 POP DUP3 PUSH1 0x2 PUSH1 0x0 DUP5 DUP2 MSTORE PUSH1 0x20 ADD SWAP1 DUP2 MSTORE PUSH1 0x20 ADD PUSH1 0x0 KECCAK256 SWAP1 DUP1 MLOAD SWAP1 PUSH1 0x20 ADD SWAP1 PUSH2 0x74C SWAP3 SWAP2 SWAP1 PUSH2 0x1941 JUMP JUMPDEST POP PUSH1 0x1 PUSH1 0x0 DUP6 PUSH20 0xFFFFFFFFFFFFFFFFFFFFFFFFFFFFFFFFFFFFFFFF AND PUSH20 0xFFFFFFFFFFFFFFFFFFFFFFFFFFFFFFFFFFFFFFFF AND DUP2 MSTORE PUSH1 0x20 ADD SWAP1 DUP2 MSTORE PUSH1 0x20 ADD PUSH1 0x0 KECCAK256 DUP4 SWAP1 DUP1 PUSH1 0x1 DUP2 SLOAD ADD DUP1 DUP3 SSTORE DUP1 SWAP2 POP POP PUSH1 0x1 SWAP1 SUB SWAP1 PUSH1 0x0 MSTORE PUSH1 0x20 PUSH1 0x0 KECCAK256 ADD PUSH1 0x0 SWAP1 SWAP2 SWAP1 SWAP2 SWAP1 SWAP2 POP SWAP1 DUP1 MLOAD SWAP1 PUSH1 0x20 ADD SWAP1 PUSH2 0x7C5 SWAP3 SWAP2 SWAP1 PUSH2 0x1941 JUMP JUMPDEST POP PUSH1 0x1 PUSH1 0x4 PUSH1 0x0 DUP7 PUSH20 0xFFFFFFFFFFFFFFFFFFFFFFFFFFFFFFFFFFFFFFFF AND PUSH20 0xFFFFFFFFFFFFFFFFFFFFFFFFFFFFFFFFFFFFFFFF AND DUP2 MSTORE PUSH1 0x20 ADD SWAP1 DUP2 MSTORE PUSH1 0x20 ADD PUSH1 0x0 KECCAK256 PUSH1 0x0 DUP3 DUP3 DUP3 SWAP1 SLOAD SWAP1 PUSH2 0x100 EXP SWAP1 DIV PUSH8 0xFFFFFFFFFFFFFFFF AND PUSH2 0x829 SWAP2 SWAP1 PUSH2 0x26FA JUMP JUMPDEST SWAP3 POP PUSH2 0x100 EXP DUP2 SLOAD DUP2 PUSH8 0xFFFFFFFFFFFFFFFF MUL NOT AND SWAP1 DUP4 PUSH8 0xFFFFFFFFFFFFFFFF AND MUL OR SWAP1 SSTORE POP DUP4 PUSH1 0x3 PUSH1 0x0 DUP5 DUP2 MSTORE PUSH1 0x20 ADD SWAP1 DUP2 MSTORE PUSH1 0x20 ADD PUSH1 0x0 KECCAK256 PUSH1 0x0 PUSH2 0x100 EXP DUP2 SLOAD DUP2 PUSH20 0xFFFFFFFFFFFFFFFFFFFFFFFFFFFFFFFFFFFFFFFF MUL NOT AND SWAP1 DUP4 PUSH20 0xFFFFFFFFFFFFFFFFFFFFFFFFFFFFFFFFFFFFFFFF AND MUL OR SWAP1 SSTORE POP DUP2 DUP5 PUSH20 0xFFFFFFFFFFFFFFFFFFFFFFFFFFFFFFFFFFFFFFFF AND PUSH1 0x0 PUSH20 0xFFFFFFFFFFFFFFFFFFFFFFFFFFFFFFFFFFFFFFFF AND PUSH32 0xDDF252AD1BE2C89B69C2B068FC378DAA952BA7F163C4A11628F55A4DF523B3EF PUSH1 0x40 MLOAD PUSH1 0x40 MLOAD DUP1 SWAP2 SUB SWAP1 LOG4 POP SWAP3 SWAP2 POP POP JUMP JUMPDEST PUSH2 0x91F DUP4 DUP4 DUP4 PUSH1 0x40 MLOAD DUP1 PUSH1 0x20 ADD PUSH1 0x40 MSTORE DUP1 PUSH1 0x0 DUP2 MSTORE POP PUSH2 0x1081 JUMP JUMPDEST POP POP POP JUMP JUMPDEST PUSH2 0x92E CALLER DUP3 PUSH2 0x12AA JUMP JUMPDEST PUSH2 0x937 JUMPI PUSH1 0x0 DUP1 REVERT JUMPDEST PUSH2 0x949 PUSH2 0x943 DUP3 PUSH2 0xA35 JUMP JUMPDEST DUP3 PUSH2 0x1342 JUMP JUMPDEST POP JUMP JUMPDEST PUSH1 0x60 PUSH1 0x0 PUSH1 0x40 MLOAD DUP1 PUSH1 0x20 ADD PUSH1 0x40 MSTORE DUP1 PUSH1 0x0 DUP2 MSTORE POP SWAP1 POP PUSH1 0x0 PUSH1 0x1 SWAP1 POP JUMPDEST PUSH1 0x0 DUP1 SLOAD SWAP1 POP DUP2 GT PUSH2 0xA2B JUMPI DUP4 PUSH20 0xFFFFFFFFFFFFFFFFFFFFFFFFFFFFFFFFFFFFFFFF AND PUSH1 0x3 PUSH1 0x0 DUP4 DUP2 MSTORE PUSH1 0x20 ADD SWAP1 DUP2 MSTORE PUSH1 0x20 ADD PUSH1 0x0 KECCAK256 PUSH1 0x0 SWAP1 SLOAD SWAP1 PUSH2 0x100 EXP SWAP1 DIV PUSH20 0xFFFFFFFFFFFFFFFFFFFFFFFFFFFFFFFFFFFFFFFF AND PUSH20 0xFFFFFFFFFFFFFFFFFFFFFFFFFFFFFFFFFFFFFFFF AND EQ ISZERO PUSH2 0xA17 JUMPI DUP2 PUSH1 0x2 PUSH1 0x0 DUP4 DUP2 MSTORE PUSH1 0x20 ADD SWAP1 DUP2 MSTORE PUSH1 0x20 ADD PUSH1 0x0 KECCAK256 PUSH1 0x40 MLOAD PUSH1 0x20 ADD PUSH2 0xA01 SWAP3 SWAP2 SWAP1 PUSH2 0x22F8 JUMP JUMPDEST PUSH1 0x40 MLOAD PUSH1 0x20 DUP2 DUP4 SUB SUB DUP2 MSTORE SWAP1 PUSH1 0x40 MSTORE SWAP2 POP PUSH2 0xA18 JUMP JUMPDEST JUMPDEST DUP1 DUP1 PUSH2 0xA23 SWAP1 PUSH2 0x28C3 JUMP JUMPDEST SWAP2 POP POP PUSH2 0x969 JUMP JUMPDEST POP DUP1 SWAP2 POP POP SWAP2 SWAP1 POP JUMP JUMPDEST PUSH1 0x0 DUP1 PUSH1 0x3 PUSH1 0x0 DUP5 DUP2 MSTORE PUSH1 0x20 ADD SWAP1 DUP2 MSTORE PUSH1 0x20 ADD PUSH1 0x0 KECCAK256 PUSH1 0x0 SWAP1 SLOAD SWAP1 PUSH2 0x100 EXP SWAP1 DIV PUSH20 0xFFFFFFFFFFFFFFFFFFFFFFFFFFFFFFFFFFFFFFFF AND SWAP1 POP PUSH1 0x0 PUSH20 0xFFFFFFFFFFFFFFFFFFFFFFFFFFFFFFFFFFFFFFFF AND DUP2 PUSH20 0xFFFFFFFFFFFFFFFFFFFFFFFFFFFFFFFFFFFFFFFF AND EQ ISZERO PUSH2 0xADE JUMPI PUSH1 0x40 MLOAD PUSH32 0x8C379A000000000000000000000000000000000000000000000000000000000 DUP2 MSTORE PUSH1 0x4 ADD PUSH2 0xAD5 SWAP1 PUSH2 0x24DB JUMP JUMPDEST PUSH1 0x40 MLOAD DUP1 SWAP2 SUB SWAP1 REVERT JUMPDEST PUSH1 0x3 PUSH1 0x0 DUP5 DUP2 MSTORE PUSH1 0x20 ADD SWAP1 DUP2 MSTORE PUSH1 0x20 ADD PUSH1 0x0 KECCAK256 PUSH1 0x0 SWAP1 SLOAD SWAP1 PUSH2 0x100 EXP SWAP1 DIV PUSH20 0xFFFFFFFFFFFFFFFFFFFFFFFFFFFFFFFFFFFFFFFF AND SWAP2 POP POP SWAP2 SWAP1 POP JUMP JUMPDEST PUSH1 0x0 DUP1 DUP1 SLOAD SWAP1 POP SWAP1 POP SWAP1 JUMP JUMPDEST PUSH1 0x0 PUSH1 0x4 PUSH1 0x0 DUP4 PUSH20 0xFFFFFFFFFFFFFFFFFFFFFFFFFFFFFFFFFFFFFFFF AND PUSH20 0xFFFFFFFFFFFFFFFFFFFFFFFFFFFFFFFFFFFFFFFF AND DUP2 MSTORE PUSH1 0x20 ADD SWAP1 DUP2 MSTORE PUSH1 0x20 ADD PUSH1 0x0 KECCAK256 PUSH1 0x0 SWAP1 SLOAD SWAP1 PUSH2 0x100 EXP SWAP1 DIV PUSH8 0xFFFFFFFFFFFFFFFF AND PUSH8 0xFFFFFFFFFFFFFFFF AND SWAP1 POP SWAP2 SWAP1 POP JUMP JUMPDEST DUP1 MLOAD DUP3 LT PUSH2 0xBD0 JUMPI PUSH1 0x40 MLOAD PUSH32 0x8C379A000000000000000000000000000000000000000000000000000000000 DUP2 MSTORE PUSH1 0x4 ADD PUSH2 0xBC7 SWAP1 PUSH2 0x24BB JUMP JUMPDEST PUSH1 0x40 MLOAD DUP1 SWAP2 SUB SWAP1 REVERT JUMPDEST PUSH1 0x0 DUP3 SWAP1 POP JUMPDEST PUSH1 0x1 DUP3 MLOAD PUSH2 0xBE4 SWAP2 SWAP1 PUSH2 0x2738 JUMP JUMPDEST DUP2 LT ISZERO PUSH2 0xC43 JUMPI DUP2 PUSH1 0x1 DUP3 PUSH2 0xBF9 SWAP2 SWAP1 PUSH2 0x26A4 JUMP JUMPDEST DUP2 MLOAD DUP2 LT PUSH2 0xC0A JUMPI PUSH2 0xC09 PUSH2 0x296A JUMP JUMPDEST JUMPDEST PUSH1 0x20 MUL PUSH1 0x20 ADD ADD MLOAD DUP3 DUP3 DUP2 MLOAD DUP2 LT PUSH2 0xC25 JUMPI PUSH2 0xC24 PUSH2 0x296A JUMP JUMPDEST JUMPDEST PUSH1 0x20 MUL PUSH1 0x20 ADD ADD DUP2 SWAP1 MSTORE POP DUP1 DUP1 PUSH2 0xC3B SWAP1 PUSH2 0x28C3 JUMP JUMPDEST SWAP2 POP POP PUSH2 0xBD6 JUMP JUMPDEST POP DUP1 PUSH1 0x1 DUP3 MLOAD PUSH2 0xC53 SWAP2 SWAP1 PUSH2 0x2738 JUMP JUMPDEST DUP2 MLOAD DUP2 LT PUSH2 0xC64 JUMPI PUSH2 0xC63 PUSH2 0x296A JUMP JUMPDEST JUMPDEST PUSH1 0x20 MUL PUSH1 0x20 ADD ADD PUSH1 0x60 DUP2 MSTORE POP POP POP JUMP JUMPDEST PUSH1 0x60 PUSH1 0x1 PUSH1 0x0 DUP4 PUSH20 0xFFFFFFFFFFFFFFFFFFFFFFFFFFFFFFFFFFFFFFFF AND PUSH20 0xFFFFFFFFFFFFFFFFFFFFFFFFFFFFFFFFFFFFFFFF AND DUP2 MSTORE PUSH1 0x20 ADD SWAP1 DUP2 MSTORE PUSH1 0x20 ADD PUSH1 0x0 KECCAK256 DUP1 SLOAD DUP1 PUSH1 0x20 MUL PUSH1 0x20 ADD PUSH1 0x40 MLOAD SWAP1 DUP2 ADD PUSH1 0x40 MSTORE DUP1 SWAP3 SWAP2 SWAP1 DUP2 DUP2 MSTORE PUSH1 0x20 ADD PUSH1 0x0 SWAP1 JUMPDEST DUP3 DUP3 LT ISZERO PUSH2 0xD81 JUMPI DUP4 DUP3 SWAP1 PUSH1 0x0 MSTORE PUSH1 0x20 PUSH1 0x0 KECCAK256 ADD DUP1 SLOAD PUSH2 0xCF4 SWAP1 PUSH2 0x2860 JUMP JUMPDEST DUP1 PUSH1 0x1F ADD PUSH1 0x20 DUP1 SWAP2 DIV MUL PUSH1 0x20 ADD PUSH1 0x40 MLOAD SWAP1 DUP2 ADD PUSH1 0x40 MSTORE DUP1 SWAP3 SWAP2 SWAP1 DUP2 DUP2 MSTORE PUSH1 0x20 ADD DUP3 DUP1 SLOAD PUSH2 0xD20 SWAP1 PUSH2 0x2860 JUMP JUMPDEST DUP1 ISZERO PUSH2 0xD6D JUMPI DUP1 PUSH1 0x1F LT PUSH2 0xD42 JUMPI PUSH2 0x100 DUP1 DUP4 SLOAD DIV MUL DUP4 MSTORE SWAP2 PUSH1 0x20 ADD SWAP2 PUSH2 0xD6D JUMP JUMPDEST DUP3 ADD SWAP2 SWAP1 PUSH1 0x0 MSTORE PUSH1 0x20 PUSH1 0x0 KECCAK256 SWAP1 JUMPDEST DUP2 SLOAD DUP2 MSTORE SWAP1 PUSH1 0x1 ADD SWAP1 PUSH1 0x20 ADD DUP1 DUP4 GT PUSH2 0xD50 JUMPI DUP3 SWAP1 SUB PUSH1 0x1F AND DUP3 ADD SWAP2 JUMPDEST POP POP POP POP POP DUP2 MSTORE PUSH1 0x20 ADD SWAP1 PUSH1 0x1 ADD SWAP1 PUSH2 0xCD5 JUMP JUMPDEST POP POP POP POP SWAP1 POP SWAP2 SWAP1 POP JUMP JUMPDEST PUSH1 0x60 PUSH1 0x0 PUSH2 0xD99 DUP4 PUSH2 0xB26 JUMP JUMPDEST SWAP1 POP PUSH1 0x0 DUP2 EQ ISZERO PUSH2 0xDF6 JUMPI PUSH1 0x0 PUSH8 0xFFFFFFFFFFFFFFFF DUP2 GT ISZERO PUSH2 0xDBF JUMPI PUSH2 0xDBE PUSH2 0x2999 JUMP JUMPDEST JUMPDEST PUSH1 0x40 MLOAD SWAP1 DUP1 DUP3 MSTORE DUP1 PUSH1 0x20 MUL PUSH1 0x20 ADD DUP3 ADD PUSH1 0x40 MSTORE DUP1 ISZERO PUSH2 0xDED JUMPI DUP2 PUSH1 0x20 ADD PUSH1 0x20 DUP3 MUL DUP1 CALLDATASIZE DUP4 CALLDATACOPY DUP1 DUP3 ADD SWAP2 POP POP SWAP1 POP JUMPDEST POP SWAP2 POP POP PUSH2 0xF10 JUMP JUMPDEST PUSH1 0x0 DUP2 PUSH8 0xFFFFFFFFFFFFFFFF DUP2 GT ISZERO PUSH2 0xE12 JUMPI PUSH2 0xE11 PUSH2 0x2999 JUMP JUMPDEST JUMPDEST PUSH1 0x40 MLOAD SWAP1 DUP1 DUP3 MSTORE DUP1 PUSH1 0x20 MUL PUSH1 0x20 ADD DUP3 ADD PUSH1 0x40 MSTORE DUP1 ISZERO PUSH2 0xE40 JUMPI DUP2 PUSH1 0x20 ADD PUSH1 0x20 DUP3 MUL DUP1 CALLDATASIZE DUP4 CALLDATACOPY DUP1 DUP3 ADD SWAP2 POP POP SWAP1 POP JUMPDEST POP SWAP1 POP PUSH1 0x0 PUSH2 0xE4D PUSH2 0xB1A JUMP JUMPDEST SWAP1 POP PUSH1 0x0 DUP1 PUSH1 0x1 SWAP1 POP JUMPDEST DUP3 DUP2 GT PUSH2 0xF07 JUMPI DUP7 PUSH20 0xFFFFFFFFFFFFFFFFFFFFFFFFFFFFFFFFFFFFFFFF AND PUSH1 0x3 PUSH1 0x0 DUP4 DUP2 MSTORE PUSH1 0x20 ADD SWAP1 DUP2 MSTORE PUSH1 0x20 ADD PUSH1 0x0 KECCAK256 PUSH1 0x0 SWAP1 SLOAD SWAP1 PUSH2 0x100 EXP SWAP1 DIV PUSH20 0xFFFFFFFFFFFFFFFFFFFFFFFFFFFFFFFFFFFFFFFF AND PUSH20 0xFFFFFFFFFFFFFFFFFFFFFFFFFFFFFFFFFFFFFFFF AND EQ ISZERO PUSH2 0xEF4 JUMPI DUP1 DUP5 DUP4 DUP2 MLOAD DUP2 LT PUSH2 0xED9 JUMPI PUSH2 0xED8 PUSH2 0x296A JUMP JUMPDEST JUMPDEST PUSH1 0x20 MUL PUSH1 0x20 ADD ADD DUP2 DUP2 MSTORE POP POP DUP2 DUP1 PUSH2 0xEF0 SWAP1 PUSH2 0x28C3 JUMP JUMPDEST SWAP3 POP POP JUMPDEST DUP1 DUP1 PUSH2 0xEFF SWAP1 PUSH2 0x28C3 JUMP JUMPDEST SWAP2 POP POP PUSH2 0xE57 JUMP JUMPDEST DUP4 SWAP6 POP POP POP POP POP POP JUMPDEST SWAP2 SWAP1 POP JUMP JUMPDEST CALLER PUSH20 0xFFFFFFFFFFFFFFFFFFFFFFFFFFFFFFFFFFFFFFFF AND DUP3 PUSH20 0xFFFFFFFFFFFFFFFFFFFFFFFFFFFFFFFFFFFFFFFF AND EQ ISZERO PUSH2 0xF84 JUMPI PUSH1 0x40 MLOAD PUSH32 0x8C379A000000000000000000000000000000000000000000000000000000000 DUP2 MSTORE PUSH1 0x4 ADD PUSH2 0xF7B SWAP1 PUSH2 0x241B JUMP JUMPDEST PUSH1 0x40 MLOAD DUP1 SWAP2 SUB SWAP1 REVERT JUMPDEST DUP1 PUSH1 0x6 PUSH1 0x0 CALLER PUSH20 0xFFFFFFFFFFFFFFFFFFFFFFFFFFFFFFFFFFFFFFFF AND PUSH20 0xFFFFFFFFFFFFFFFFFFFFFFFFFFFFFFFFFFFFFFFF AND DUP2 MSTORE PUSH1 0x20 ADD SWAP1 DUP2 MSTORE PUSH1 0x20 ADD PUSH1 0x0 KECCAK256 PUSH1 0x0 DUP5 PUSH20 0xFFFFFFFFFFFFFFFFFFFFFFFFFFFFFFFFFFFFFFFF AND PUSH20 0xFFFFFFFFFFFFFFFFFFFFFFFFFFFFFFFFFFFFFFFF AND DUP2 MSTORE PUSH1 0x20 ADD SWAP1 DUP2 MSTORE PUSH1 0x20 ADD PUSH1 0x0 KECCAK256 PUSH1 0x0 PUSH2 0x100 EXP DUP2 SLOAD DUP2 PUSH1 0xFF MUL NOT AND SWAP1 DUP4 ISZERO ISZERO MUL OR SWAP1 SSTORE POP DUP2 PUSH20 0xFFFFFFFFFFFFFFFFFFFFFFFFFFFFFFFFFFFFFFFF AND CALLER PUSH20 0xFFFFFFFFFFFFFFFFFFFFFFFFFFFFFFFFFFFFFFFF AND PUSH32 0x17307EAB39AB6107E8899845AD3D59BD9653F200F220920489CA2B5937696C31 DUP4 PUSH1 0x40 MLOAD PUSH2 0x1075 SWAP2 SWAP1 PUSH2 0x23DE JUMP JUMPDEST PUSH1 0x40 MLOAD DUP1 SWAP2 SUB SWAP1 LOG3 POP POP JUMP JUMPDEST PUSH2 0x108B CALLER DUP4 PUSH2 0x12AA JUMP JUMPDEST PUSH2 0x10CA JUMPI PUSH1 0x40 MLOAD PUSH32 0x8C379A000000000000000000000000000000000000000000000000000000000 DUP2 MSTORE PUSH1 0x4 ADD PUSH2 0x10C1 SWAP1 PUSH2 0x249B JUMP JUMPDEST PUSH1 0x40 MLOAD DUP1 SWAP2 SUB SWAP1 REVERT JUMPDEST PUSH2 0x10D6 DUP5 DUP5 DUP5 DUP5 PUSH2 0x1352 JUMP JUMPDEST POP POP POP POP JUMP JUMPDEST PUSH1 0x0 PUSH1 0x6 PUSH1 0x0 DUP5 PUSH20 0xFFFFFFFFFFFFFFFFFFFFFFFFFFFFFFFFFFFFFFFF AND PUSH20 0xFFFFFFFFFFFFFFFFFFFFFFFFFFFFFFFFFFFFFFFF AND DUP2 MSTORE PUSH1 0x20 ADD SWAP1 DUP2 MSTORE PUSH1 0x20 ADD PUSH1 0x0 KECCAK256 PUSH1 0x0 DUP4 PUSH20 0xFFFFFFFFFFFFFFFFFFFFFFFFFFFFFFFFFFFFFFFF AND PUSH20 0xFFFFFFFFFFFFFFFFFFFFFFFFFFFFFFFFFFFFFFFF AND DUP2 MSTORE PUSH1 0x20 ADD SWAP1 DUP2 MSTORE PUSH1 0x20 ADD PUSH1 0x0 KECCAK256 PUSH1 0x0 SWAP1 SLOAD SWAP1 PUSH2 0x100 EXP SWAP1 DIV PUSH1 0xFF AND SWAP1 POP SWAP3 SWAP2 POP POP JUMP JUMPDEST DUP2 PUSH1 0x5 PUSH1 0x0 DUP4 DUP2 MSTORE PUSH1 0x20 ADD SWAP1 DUP2 MSTORE PUSH1 0x20 ADD PUSH1 0x0 KECCAK256 PUSH1 0x0 PUSH2 0x100 EXP DUP2 SLOAD DUP2 PUSH20 0xFFFFFFFFFFFFFFFFFFFFFFFFFFFFFFFFFFFFFFFF MUL NOT AND SWAP1 DUP4 PUSH20 0xFFFFFFFFFFFFFFFFFFFFFFFFFFFFFFFFFFFFFFFF AND MUL OR SWAP1 SSTORE POP PUSH1 0x0 DUP3 PUSH20 0xFFFFFFFFFFFFFFFFFFFFFFFFFFFFFFFFFFFFFFFF AND ADDRESS PUSH20 0xFFFFFFFFFFFFFFFFFFFFFFFFFFFFFFFFFFFFFFFF AND PUSH4 0x6352211E DUP5 PUSH1 0x40 MLOAD DUP3 PUSH4 0xFFFFFFFF AND PUSH1 0xE0 SHL DUP2 MSTORE PUSH1 0x4 ADD PUSH2 0x1214 SWAP2 SWAP1 PUSH2 0x24FB JUMP JUMPDEST PUSH1 0x20 PUSH1 0x40 MLOAD DUP1 DUP4 SUB DUP2 DUP7 DUP1 EXTCODESIZE ISZERO DUP1 ISZERO PUSH2 0x122C JUMPI PUSH1 0x0 DUP1 REVERT JUMPDEST POP GAS STATICCALL ISZERO DUP1 ISZERO PUSH2 0x1240 JUMPI RETURNDATASIZE PUSH1 0x0 DUP1 RETURNDATACOPY RETURNDATASIZE PUSH1 0x0 REVERT JUMPDEST POP POP POP POP PUSH1 0x40 MLOAD RETURNDATASIZE PUSH1 0x1F NOT PUSH1 0x1F DUP3 ADD AND DUP3 ADD DUP1 PUSH1 0x40 MSTORE POP DUP2 ADD SWAP1 PUSH2 0x1264 SWAP2 SWAP1 PUSH2 0x1C6B JUMP JUMPDEST PUSH20 0xFFFFFFFFFFFFFFFFFFFFFFFFFFFFFFFFFFFFFFFF AND PUSH32 0x8C5BE1E5EBEC7D5BD14F71427D1E84F3DD0314C0F7B2291E5B200AC8C7C3B925 PUSH1 0x40 MLOAD PUSH1 0x40 MLOAD DUP1 SWAP2 SUB SWAP1 LOG4 POP POP JUMP JUMPDEST PUSH1 0x0 DUP3 PUSH20 0xFFFFFFFFFFFFFFFFFFFFFFFFFFFFFFFFFFFFFFFF AND PUSH2 0x12CC DUP4 PUSH2 0xA35 JUMP JUMPDEST PUSH20 0xFFFFFFFFFFFFFFFFFFFFFFFFFFFFFFFFFFFFFFFF AND EQ DUP1 PUSH2 0x1321 JUMPI POP DUP3 PUSH20 0xFFFFFFFFFFFFFFFFFFFFFFFFFFFFFFFFFFFFFFFF AND PUSH2 0x1309 DUP4 PUSH2 0x4A8 JUMP JUMPDEST PUSH20 0xFFFFFFFFFFFFFFFFFFFFFFFFFFFFFFFFFFFFFFFF AND EQ JUMPDEST DUP1 PUSH2 0x133A JUMPI POP PUSH2 0x1339 PUSH2 0x1333 DUP4 PUSH2 0xA35 JUMP JUMPDEST DUP5 PUSH2 0x10DC JUMP JUMPDEST JUMPDEST SWAP1 POP SWAP3 SWAP2 POP POP JUMP JUMPDEST PUSH2 0x134E DUP3 PUSH1 0x0 DUP4 PUSH2 0x14D5 JUMP JUMPDEST POP POP JUMP JUMPDEST PUSH2 0x135D DUP5 DUP5 DUP5 PUSH2 0x14D5 JUMP JUMPDEST PUSH1 0x0 DUP4 EXTCODESIZE SWAP1 POP PUSH1 0x0 DUP2 PUSH4 0xFFFFFFFF AND GT ISZERO PUSH2 0x14CE JUMPI PUSH1 0x0 DUP5 SWAP1 POP PUSH32 0x150B7A023D4804D13E8C85FB27262CB750CF6BA9F9DD3BB30D90F482CEEB4B1F PUSH28 0xFFFFFFFFFFFFFFFFFFFFFFFFFFFFFFFFFFFFFFFFFFFFFFFFFFFFFFFF NOT AND DUP2 PUSH20 0xFFFFFFFFFFFFFFFFFFFFFFFFFFFFFFFFFFFFFFFF AND PUSH4 0x150B7A02 CALLER DUP10 DUP9 DUP9 PUSH1 0x40 MLOAD DUP6 PUSH4 0xFFFFFFFF AND PUSH1 0xE0 SHL DUP2 MSTORE PUSH1 0x4 ADD PUSH2 0x13F6 SWAP5 SWAP4 SWAP3 SWAP2 SWAP1 PUSH2 0x234E JUMP JUMPDEST PUSH1 0x20 PUSH1 0x40 MLOAD DUP1 DUP4 SUB DUP2 PUSH1 0x0 DUP8 DUP1 EXTCODESIZE ISZERO DUP1 ISZERO PUSH2 0x1410 JUMPI PUSH1 0x0 DUP1 REVERT JUMPDEST POP GAS CALL ISZERO DUP1 ISZERO PUSH2 0x1424 JUMPI RETURNDATASIZE PUSH1 0x0 DUP1 RETURNDATACOPY RETURNDATASIZE PUSH1 0x0 REVERT JUMPDEST POP POP POP POP PUSH1 0x40 MLOAD RETURNDATASIZE PUSH1 0x1F NOT PUSH1 0x1F DUP3 ADD AND DUP3 ADD DUP1 PUSH1 0x40 MSTORE POP DUP2 ADD SWAP1 PUSH2 0x1448 SWAP2 SWAP1 PUSH2 0x1EB7 JUMP JUMPDEST PUSH28 0xFFFFFFFFFFFFFFFFFFFFFFFFFFFFFFFFFFFFFFFFFFFFFFFFFFFFFFFF NOT AND EQ PUSH2 0x1471 JUMPI PUSH1 0x0 DUP1 REVERT JUMPDEST DUP4 DUP6 PUSH20 0xFFFFFFFFFFFFFFFFFFFFFFFFFFFFFFFFFFFFFFFF AND DUP8 PUSH20 0xFFFFFFFFFFFFFFFFFFFFFFFFFFFFFFFFFFFFFFFF AND PUSH32 0xDDF252AD1BE2C89B69C2B068FC378DAA952BA7F163C4A11628F55A4DF523B3EF PUSH1 0x40 MLOAD PUSH1 0x40 MLOAD DUP1 SWAP2 SUB SWAP1 LOG4 POP JUMPDEST POP POP POP POP POP JUMP JUMPDEST DUP3 PUSH20 0xFFFFFFFFFFFFFFFFFFFFFFFFFFFFFFFFFFFFFFFF AND PUSH2 0x14F5 DUP3 PUSH2 0xA35 JUMP JUMPDEST PUSH20 0xFFFFFFFFFFFFFFFFFFFFFFFFFFFFFFFFFFFFFFFF AND EQ PUSH2 0x154B JUMPI PUSH1 0x40 MLOAD PUSH32 0x8C379A000000000000000000000000000000000000000000000000000000000 DUP2 MSTORE PUSH1 0x4 ADD PUSH2 0x1542 SWAP1 PUSH2 0x245B JUMP JUMPDEST PUSH1 0x40 MLOAD DUP1 SWAP2 SUB SWAP1 REVERT JUMPDEST PUSH2 0x1556 PUSH1 0x0 DUP3 PUSH2 0x1170 JUMP JUMPDEST DUP2 PUSH1 0x3 PUSH1 0x0 DUP4 DUP2 MSTORE PUSH1 0x20 ADD SWAP1 DUP2 MSTORE PUSH1 0x20 ADD PUSH1 0x0 KECCAK256 PUSH1 0x0 PUSH2 0x100 EXP DUP2 SLOAD DUP2 PUSH20 0xFFFFFFFFFFFFFFFFFFFFFFFFFFFFFFFFFFFFFFFF MUL NOT AND SWAP1 DUP4 PUSH20 0xFFFFFFFFFFFFFFFFFFFFFFFFFFFFFFFFFFFFFFFF AND MUL OR SWAP1 SSTORE POP PUSH1 0x0 PUSH1 0x1 PUSH1 0x0 DUP6 PUSH20 0xFFFFFFFFFFFFFFFFFFFFFFFFFFFFFFFFFFFFFFFF AND PUSH20 0xFFFFFFFFFFFFFFFFFFFFFFFFFFFFFFFFFFFFFFFF AND DUP2 MSTORE PUSH1 0x20 ADD SWAP1 DUP2 MSTORE PUSH1 0x20 ADD PUSH1 0x0 KECCAK256 DUP1 SLOAD SWAP1 POP SWAP1 POP PUSH1 0x4 PUSH1 0x0 DUP6 PUSH20 0xFFFFFFFFFFFFFFFFFFFFFFFFFFFFFFFFFFFFFFFF AND PUSH20 0xFFFFFFFFFFFFFFFFFFFFFFFFFFFFFFFFFFFFFFFF AND DUP2 MSTORE PUSH1 0x20 ADD SWAP1 DUP2 MSTORE PUSH1 0x20 ADD PUSH1 0x0 KECCAK256 PUSH1 0x0 DUP2 DUP2 SWAP1 SLOAD SWAP1 PUSH2 0x100 EXP SWAP1 DIV PUSH8 0xFFFFFFFFFFFFFFFF AND DUP1 SWAP3 SWAP2 SWAP1 PUSH2 0x1652 SWAP1 PUSH2 0x2836 JUMP JUMPDEST SWAP2 SWAP1 PUSH2 0x100 EXP DUP2 SLOAD DUP2 PUSH8 0xFFFFFFFFFFFFFFFF MUL NOT AND SWAP1 DUP4 PUSH8 0xFFFFFFFFFFFFFFFF AND MUL OR SWAP1 SSTORE POP POP PUSH1 0x0 JUMPDEST DUP2 DUP2 LT ISZERO PUSH2 0x18DF JUMPI PUSH1 0x2 PUSH1 0x0 DUP5 DUP2 MSTORE PUSH1 0x20 ADD SWAP1 DUP2 MSTORE PUSH1 0x20 ADD PUSH1 0x0 KECCAK256 PUSH1 0x40 MLOAD PUSH1 0x20 ADD PUSH2 0x16A7 SWAP2 SWAP1 PUSH2 0x231C JUMP JUMPDEST PUSH1 0x40 MLOAD PUSH1 0x20 DUP2 DUP4 SUB SUB DUP2 MSTORE SWAP1 PUSH1 0x40 MSTORE DUP1 MLOAD SWAP1 PUSH1 0x20 ADD KECCAK256 PUSH1 0x1 PUSH1 0x0 DUP8 PUSH20 0xFFFFFFFFFFFFFFFFFFFFFFFFFFFFFFFFFFFFFFFF AND PUSH20 0xFFFFFFFFFFFFFFFFFFFFFFFFFFFFFFFFFFFFFFFF AND DUP2 MSTORE PUSH1 0x20 ADD SWAP1 DUP2 MSTORE PUSH1 0x20 ADD PUSH1 0x0 KECCAK256 DUP3 DUP2 SLOAD DUP2 LT PUSH2 0x170E JUMPI PUSH2 0x170D PUSH2 0x296A JUMP JUMPDEST JUMPDEST SWAP1 PUSH1 0x0 MSTORE PUSH1 0x20 PUSH1 0x0 KECCAK256 ADD PUSH1 0x40 MLOAD PUSH1 0x20 ADD PUSH2 0x1728 SWAP2 SWAP1 PUSH2 0x231C JUMP JUMPDEST PUSH1 0x40 MLOAD PUSH1 0x20 DUP2 DUP4 SUB SUB DUP2 MSTORE SWAP1 PUSH1 0x40 MSTORE DUP1 MLOAD SWAP1 PUSH1 0x20 ADD KECCAK256 EQ ISZERO PUSH2 0x18CB JUMPI PUSH1 0x1 PUSH1 0x0 DUP7 PUSH20 0xFFFFFFFFFFFFFFFFFFFFFFFFFFFFFFFFFFFFFFFF AND PUSH20 0xFFFFFFFFFFFFFFFFFFFFFFFFFFFFFFFFFFFFFFFF AND DUP2 MSTORE PUSH1 0x20 ADD SWAP1 DUP2 MSTORE PUSH1 0x20 ADD PUSH1 0x0 KECCAK256 DUP2 DUP2 SLOAD DUP2 LT PUSH2 0x1795 JUMPI PUSH2 0x1794 PUSH2 0x296A JUMP JUMPDEST JUMPDEST SWAP1 PUSH1 0x0 MSTORE PUSH1 0x20 PUSH1 0x0 KECCAK256 ADD PUSH1 0x0 PUSH2 0x17AB SWAP2 SWAP1 PUSH2 0x19C7 JUMP JUMPDEST PUSH2 0x18C3 DUP2 PUSH1 0x1 PUSH1 0x0 DUP9 PUSH20 0xFFFFFFFFFFFFFFFFFFFFFFFFFFFFFFFFFFFFFFFF AND PUSH20 0xFFFFFFFFFFFFFFFFFFFFFFFFFFFFFFFFFFFFFFFF AND DUP2 MSTORE PUSH1 0x20 ADD SWAP1 DUP2 MSTORE PUSH1 0x20 ADD PUSH1 0x0 KECCAK256 DUP1 SLOAD DUP1 PUSH1 0x20 MUL PUSH1 0x20 ADD PUSH1 0x40 MLOAD SWAP1 DUP2 ADD PUSH1 0x40 MSTORE DUP1 SWAP3 SWAP2 SWAP1 DUP2 DUP2 MSTORE PUSH1 0x20 ADD PUSH1 0x0 SWAP1 JUMPDEST DUP3 DUP3 LT ISZERO PUSH2 0x18BA JUMPI DUP4 DUP3 SWAP1 PUSH1 0x0 MSTORE PUSH1 0x20 PUSH1 0x0 KECCAK256 ADD DUP1 SLOAD PUSH2 0x182D SWAP1 PUSH2 0x2860 JUMP JUMPDEST DUP1 PUSH1 0x1F ADD PUSH1 0x20 DUP1 SWAP2 DIV MUL PUSH1 0x20 ADD PUSH1 0x40 MLOAD SWAP1 DUP2 ADD PUSH1 0x40 MSTORE DUP1 SWAP3 SWAP2 SWAP1 DUP2 DUP2 MSTORE PUSH1 0x20 ADD DUP3 DUP1 SLOAD PUSH2 0x1859 SWAP1 PUSH2 0x2860 JUMP JUMPDEST DUP1 ISZERO PUSH2 0x18A6 JUMPI DUP1 PUSH1 0x1F LT PUSH2 0x187B JUMPI PUSH2 0x100 DUP1 DUP4 SLOAD DIV MUL DUP4 MSTORE SWAP2 PUSH1 0x20 ADD SWAP2 PUSH2 0x18A6 JUMP JUMPDEST DUP3 ADD SWAP2 SWAP1 PUSH1 0x0 MSTORE PUSH1 0x20 PUSH1 0x0 KECCAK256 SWAP1 JUMPDEST DUP2 SLOAD DUP2 MSTORE SWAP1 PUSH1 0x1 ADD SWAP1 PUSH1 0x20 ADD DUP1 DUP4 GT PUSH2 0x1889 JUMPI DUP3 SWAP1 SUB PUSH1 0x1F AND DUP3 ADD SWAP2 JUMPDEST POP POP POP POP POP DUP2 MSTORE PUSH1 0x20 ADD SWAP1 PUSH1 0x1 ADD SWAP1 PUSH2 0x180E JUMP JUMPDEST POP POP POP POP PUSH2 0xB8D JUMP JUMPDEST DUP2 SWAP1 POP PUSH2 0x18DA JUMP JUMPDEST DUP1 DUP1 PUSH2 0x18D6 SWAP1 PUSH2 0x28C3 JUMP JUMPDEST SWAP2 POP POP JUMPDEST PUSH2 0x167C JUMP JUMPDEST DUP3 DUP5 PUSH20 0xFFFFFFFFFFFFFFFFFFFFFFFFFFFFFFFFFFFFFFFF AND DUP7 PUSH20 0xFFFFFFFFFFFFFFFFFFFFFFFFFFFFFFFFFFFFFFFF AND PUSH32 0xDDF252AD1BE2C89B69C2B068FC378DAA952BA7F163C4A11628F55A4DF523B3EF PUSH1 0x40 MLOAD PUSH1 0x40 MLOAD DUP1 SWAP2 SUB SWAP1 LOG4 POP POP POP POP POP JUMP JUMPDEST DUP3 DUP1 SLOAD PUSH2 0x194D SWAP1 PUSH2 0x2860 JUMP JUMPDEST SWAP1 PUSH1 0x0 MSTORE PUSH1 0x20 PUSH1 0x0 KECCAK256 SWAP1 PUSH1 0x1F ADD PUSH1 0x20 SWAP1 DIV DUP2 ADD SWAP3 DUP3 PUSH2 0x196F JUMPI PUSH1 0x0 DUP6 SSTORE PUSH2 0x19B6 JUMP JUMPDEST DUP3 PUSH1 0x1F LT PUSH2 0x1988 JUMPI DUP1 MLOAD PUSH1 0xFF NOT AND DUP4 DUP1 ADD OR DUP6 SSTORE PUSH2 0x19B6 JUMP JUMPDEST DUP3 DUP1 ADD PUSH1 0x1 ADD DUP6 SSTORE DUP3 ISZERO PUSH2 0x19B6 JUMPI SWAP2 DUP3 ADD JUMPDEST DUP3 DUP2 GT ISZERO PUSH2 0x19B5 JUMPI DUP3 MLOAD DUP3 SSTORE SWAP2 PUSH1 0x20 ADD SWAP2 SWAP1 PUSH1 0x1 ADD SWAP1 PUSH2 0x199A JUMP JUMPDEST JUMPDEST POP SWAP1 POP PUSH2 0x19C3 SWAP2 SWAP1 PUSH2 0x1A07 JUMP JUMPDEST POP SWAP1 JUMP JUMPDEST POP DUP1 SLOAD PUSH2 0x19D3 SWAP1 PUSH2 0x2860 JUMP JUMPDEST PUSH1 0x0 DUP3 SSTORE DUP1 PUSH1 0x1F LT PUSH2 0x19E5 JUMPI POP PUSH2 0x1A04 JUMP JUMPDEST PUSH1 0x1F ADD PUSH1 0x20 SWAP1 DIV SWAP1 PUSH1 0x0 MSTORE PUSH1 0x20 PUSH1 0x0 KECCAK256 SWAP1 DUP2 ADD SWAP1 PUSH2 0x1A03 SWAP2 SWAP1 PUSH2 0x1A07 JUMP JUMPDEST JUMPDEST POP JUMP JUMPDEST JUMPDEST DUP1 DUP3 GT ISZERO PUSH2 0x1A20 JUMPI PUSH1 0x0 DUP2 PUSH1 0x0 SWAP1 SSTORE POP PUSH1 0x1 ADD PUSH2 0x1A08 JUMP JUMPDEST POP SWAP1 JUMP JUMPDEST PUSH1 0x0 PUSH2 0x1A37 PUSH2 0x1A32 DUP5 PUSH2 0x253B JUMP JUMPDEST PUSH2 0x2516 JUMP JUMPDEST SWAP1 POP DUP1 DUP4 DUP3 MSTORE PUSH1 0x20 DUP3 ADD SWAP1 POP DUP3 DUP6 PUSH1 0x20 DUP7 MUL DUP3 ADD GT ISZERO PUSH2 0x1A5A JUMPI PUSH2 0x1A59 PUSH2 0x29CD JUMP JUMPDEST JUMPDEST PUSH1 0x0 JUMPDEST DUP6 DUP2 LT ISZERO PUSH2 0x1AA8 JUMPI DUP2 CALLDATALOAD PUSH8 0xFFFFFFFFFFFFFFFF DUP2 GT ISZERO PUSH2 0x1A80 JUMPI PUSH2 0x1A7F PUSH2 0x29C8 JUMP JUMPDEST JUMPDEST DUP1 DUP7 ADD PUSH2 0x1A8D DUP10 DUP3 PUSH2 0x1BFB JUMP JUMPDEST DUP6 MSTORE PUSH1 0x20 DUP6 ADD SWAP5 POP PUSH1 0x20 DUP5 ADD SWAP4 POP POP POP PUSH1 0x1 DUP2 ADD SWAP1 POP PUSH2 0x1A5D JUMP JUMPDEST POP POP POP SWAP4 SWAP3 POP POP POP JUMP JUMPDEST PUSH1 0x0 PUSH2 0x1AC5 PUSH2 0x1AC0 DUP5 PUSH2 0x2567 JUMP JUMPDEST PUSH2 0x2516 JUMP JUMPDEST SWAP1 POP DUP3 DUP2 MSTORE PUSH1 0x20 DUP2 ADD DUP5 DUP5 DUP5 ADD GT ISZERO PUSH2 0x1AE1 JUMPI PUSH2 0x1AE0 PUSH2 0x29D2 JUMP JUMPDEST JUMPDEST PUSH2 0x1AEC DUP5 DUP3 DUP6 PUSH2 0x27F4 JUMP JUMPDEST POP SWAP4 SWAP3 POP POP POP JUMP JUMPDEST PUSH1 0x0 PUSH2 0x1B07 PUSH2 0x1B02 DUP5 PUSH2 0x2598 JUMP JUMPDEST PUSH2 0x2516 JUMP JUMPDEST SWAP1 POP DUP3 DUP2 MSTORE PUSH1 0x20 DUP2 ADD DUP5 DUP5 DUP5 ADD GT ISZERO PUSH2 0x1B23 JUMPI PUSH2 0x1B22 PUSH2 0x29D2 JUMP JUMPDEST JUMPDEST PUSH2 0x1B2E DUP5 DUP3 DUP6 PUSH2 0x27F4 JUMP JUMPDEST POP SWAP4 SWAP3 POP POP POP JUMP JUMPDEST PUSH1 0x0 DUP2 CALLDATALOAD SWAP1 POP PUSH2 0x1B45 DUP2 PUSH2 0x2BA9 JUMP JUMPDEST SWAP3 SWAP2 POP POP JUMP JUMPDEST PUSH1 0x0 DUP2 MLOAD SWAP1 POP PUSH2 0x1B5A DUP2 PUSH2 0x2BA9 JUMP JUMPDEST SWAP3 SWAP2 POP POP JUMP JUMPDEST PUSH1 0x0 DUP3 PUSH1 0x1F DUP4 ADD SLT PUSH2 0x1B75 JUMPI PUSH2 0x1B74 PUSH2 0x29C8 JUMP JUMPDEST JUMPDEST DUP2 CALLDATALOAD PUSH2 0x1B85 DUP5 DUP3 PUSH1 0x20 DUP7 ADD PUSH2 0x1A24 JUMP JUMPDEST SWAP2 POP POP SWAP3 SWAP2 POP POP JUMP JUMPDEST PUSH1 0x0 DUP2 CALLDATALOAD SWAP1 POP PUSH2 0x1B9D DUP2 PUSH2 0x2BC0 JUMP JUMPDEST SWAP3 SWAP2 POP POP JUMP JUMPDEST PUSH1 0x0 DUP2 CALLDATALOAD SWAP1 POP PUSH2 0x1BB2 DUP2 PUSH2 0x2BD7 JUMP JUMPDEST SWAP3 SWAP2 POP POP JUMP JUMPDEST PUSH1 0x0 DUP2 MLOAD SWAP1 POP PUSH2 0x1BC7 DUP2 PUSH2 0x2BD7 JUMP JUMPDEST SWAP3 SWAP2 POP POP JUMP JUMPDEST PUSH1 0x0 DUP3 PUSH1 0x1F DUP4 ADD SLT PUSH2 0x1BE2 JUMPI PUSH2 0x1BE1 PUSH2 0x29C8 JUMP JUMPDEST JUMPDEST DUP2 CALLDATALOAD PUSH2 0x1BF2 DUP5 DUP3 PUSH1 0x20 DUP7 ADD PUSH2 0x1AB2 JUMP JUMPDEST SWAP2 POP POP SWAP3 SWAP2 POP POP JUMP JUMPDEST PUSH1 0x0 DUP3 PUSH1 0x1F DUP4 ADD SLT PUSH2 0x1C10 JUMPI PUSH2 0x1C0F PUSH2 0x29C8 JUMP JUMPDEST JUMPDEST DUP2 CALLDATALOAD PUSH2 0x1C20 DUP5 DUP3 PUSH1 0x20 DUP7 ADD PUSH2 0x1AF4 JUMP JUMPDEST SWAP2 POP POP SWAP3 SWAP2 POP POP JUMP JUMPDEST PUSH1 0x0 DUP2 CALLDATALOAD SWAP1 POP PUSH2 0x1C38 DUP2 PUSH2 0x2BEE JUMP JUMPDEST SWAP3 SWAP2 POP POP JUMP JUMPDEST PUSH1 0x0 PUSH1 0x20 DUP3 DUP5 SUB SLT ISZERO PUSH2 0x1C54 JUMPI PUSH2 0x1C53 PUSH2 0x29DC JUMP JUMPDEST JUMPDEST PUSH1 0x0 PUSH2 0x1C62 DUP5 DUP3 DUP6 ADD PUSH2 0x1B36 JUMP JUMPDEST SWAP2 POP POP SWAP3 SWAP2 POP POP JUMP JUMPDEST PUSH1 0x0 PUSH1 0x20 DUP3 DUP5 SUB SLT ISZERO PUSH2 0x1C81 JUMPI PUSH2 0x1C80 PUSH2 0x29DC JUMP JUMPDEST JUMPDEST PUSH1 0x0 PUSH2 0x1C8F DUP5 DUP3 DUP6 ADD PUSH2 0x1B4B JUMP JUMPDEST SWAP2 POP POP SWAP3 SWAP2 POP POP JUMP JUMPDEST PUSH1 0x0 DUP1 PUSH1 0x40 DUP4 DUP6 SUB SLT ISZERO PUSH2 0x1CAF JUMPI PUSH2 0x1CAE PUSH2 0x29DC JUMP JUMPDEST JUMPDEST PUSH1 0x0 PUSH2 0x1CBD DUP6 DUP3 DUP7 ADD PUSH2 0x1B36 JUMP JUMPDEST SWAP3 POP POP PUSH1 0x20 PUSH2 0x1CCE DUP6 DUP3 DUP7 ADD PUSH2 0x1B36 JUMP JUMPDEST SWAP2 POP POP SWAP3 POP SWAP3 SWAP1 POP JUMP JUMPDEST PUSH1 0x0 DUP1 PUSH1 0x0 PUSH1 0x60 DUP5 DUP7 SUB SLT ISZERO PUSH2 0x1CF1 JUMPI PUSH2 0x1CF0 PUSH2 0x29DC JUMP JUMPDEST JUMPDEST PUSH1 0x0 PUSH2 0x1CFF DUP7 DUP3 DUP8 ADD PUSH2 0x1B36 JUMP JUMPDEST SWAP4 POP POP PUSH1 0x20 PUSH2 0x1D10 DUP7 DUP3 DUP8 ADD PUSH2 0x1B36 JUMP JUMPDEST SWAP3 POP POP PUSH1 0x40 PUSH2 0x1D21 DUP7 DUP3 DUP8 ADD PUSH2 0x1C29 JUMP JUMPDEST SWAP2 POP POP SWAP3 POP SWAP3 POP SWAP3 JUMP JUMPDEST PUSH1 0x0 DUP1 PUSH1 0x0 DUP1 PUSH1 0x80 DUP6 DUP8 SUB SLT ISZERO PUSH2 0x1D45 JUMPI PUSH2 0x1D44 PUSH2 0x29DC JUMP JUMPDEST JUMPDEST PUSH1 0x0 PUSH2 0x1D53 DUP8 DUP3 DUP9 ADD PUSH2 0x1B36 JUMP JUMPDEST SWAP5 POP POP PUSH1 0x20 PUSH2 0x1D64 DUP8 DUP3 DUP9 ADD PUSH2 0x1B36 JUMP JUMPDEST SWAP4 POP POP PUSH1 0x40 PUSH2 0x1D75 DUP8 DUP3 DUP9 ADD PUSH2 0x1C29 JUMP JUMPDEST SWAP3 POP POP PUSH1 0x60 DUP6 ADD CALLDATALOAD PUSH8 0xFFFFFFFFFFFFFFFF DUP2 GT ISZERO PUSH2 0x1D96 JUMPI PUSH2 0x1D95 PUSH2 0x29D7 JUMP JUMPDEST JUMPDEST PUSH2 0x1DA2 DUP8 DUP3 DUP9 ADD PUSH2 0x1BCD JUMP JUMPDEST SWAP2 POP POP SWAP3 SWAP6 SWAP2 SWAP5 POP SWAP3 POP JUMP JUMPDEST PUSH1 0x0 DUP1 PUSH1 0x40 DUP4 DUP6 SUB SLT ISZERO PUSH2 0x1DC5 JUMPI PUSH2 0x1DC4 PUSH2 0x29DC JUMP JUMPDEST JUMPDEST PUSH1 0x0 PUSH2 0x1DD3 DUP6 DUP3 DUP7 ADD PUSH2 0x1B36 JUMP JUMPDEST SWAP3 POP POP PUSH1 0x20 PUSH2 0x1DE4 DUP6 DUP3 DUP7 ADD PUSH2 0x1B8E JUMP JUMPDEST SWAP2 POP POP SWAP3 POP SWAP3 SWAP1 POP JUMP JUMPDEST PUSH1 0x0 DUP1 PUSH1 0x40 DUP4 DUP6 SUB SLT ISZERO PUSH2 0x1E05 JUMPI PUSH2 0x1E04 PUSH2 0x29DC JUMP JUMPDEST JUMPDEST PUSH1 0x0 PUSH2 0x1E13 DUP6 DUP3 DUP7 ADD PUSH2 0x1B36 JUMP JUMPDEST SWAP3 POP POP PUSH1 0x20 DUP4 ADD CALLDATALOAD PUSH8 0xFFFFFFFFFFFFFFFF DUP2 GT ISZERO PUSH2 0x1E34 JUMPI PUSH2 0x1E33 PUSH2 0x29D7 JUMP JUMPDEST JUMPDEST PUSH2 0x1E40 DUP6 DUP3 DUP7 ADD PUSH2 0x1BFB JUMP JUMPDEST SWAP2 POP POP SWAP3 POP SWAP3 SWAP1 POP JUMP JUMPDEST PUSH1 0x0 DUP1 PUSH1 0x40 DUP4 DUP6 SUB SLT ISZERO PUSH2 0x1E61 JUMPI PUSH2 0x1E60 PUSH2 0x29DC JUMP JUMPDEST JUMPDEST PUSH1 0x0 PUSH2 0x1E6F DUP6 DUP3 DUP7 ADD PUSH2 0x1B36 JUMP JUMPDEST SWAP3 POP POP PUSH1 0x20 PUSH2 0x1E80 DUP6 DUP3 DUP7 ADD PUSH2 0x1C29 JUMP JUMPDEST SWAP2 POP POP SWAP3 POP SWAP3 SWAP1 POP JUMP JUMPDEST PUSH1 0x0 PUSH1 0x20 DUP3 DUP5 SUB SLT ISZERO PUSH2 0x1EA0 JUMPI PUSH2 0x1E9F PUSH2 0x29DC JUMP JUMPDEST JUMPDEST PUSH1 0x0 PUSH2 0x1EAE DUP5 DUP3 DUP6 ADD PUSH2 0x1BA3 JUMP JUMPDEST SWAP2 POP POP SWAP3 SWAP2 POP POP JUMP JUMPDEST PUSH1 0x0 PUSH1 0x20 DUP3 DUP5 SUB SLT ISZERO PUSH2 0x1ECD JUMPI PUSH2 0x1ECC PUSH2 0x29DC JUMP JUMPDEST JUMPDEST PUSH1 0x0 PUSH2 0x1EDB DUP5 DUP3 DUP6 ADD PUSH2 0x1BB8 JUMP JUMPDEST SWAP2 POP POP SWAP3 SWAP2 POP POP JUMP JUMPDEST PUSH1 0x0 PUSH1 0x20 DUP3 DUP5 SUB SLT ISZERO PUSH2 0x1EFA JUMPI PUSH2 0x1EF9 PUSH2 0x29DC JUMP JUMPDEST JUMPDEST PUSH1 0x0 PUSH2 0x1F08 DUP5 DUP3 DUP6 ADD PUSH2 0x1C29 JUMP JUMPDEST SWAP2 POP POP SWAP3 SWAP2 POP POP JUMP JUMPDEST PUSH1 0x0 DUP1 PUSH1 0x40 DUP4 DUP6 SUB SLT ISZERO PUSH2 0x1F28 JUMPI PUSH2 0x1F27 PUSH2 0x29DC JUMP JUMPDEST JUMPDEST PUSH1 0x0 PUSH2 0x1F36 DUP6 DUP3 DUP7 ADD PUSH2 0x1C29 JUMP JUMPDEST SWAP3 POP POP PUSH1 0x20 DUP4 ADD CALLDATALOAD PUSH8 0xFFFFFFFFFFFFFFFF DUP2 GT ISZERO PUSH2 0x1F57 JUMPI PUSH2 0x1F56 PUSH2 0x29D7 JUMP JUMPDEST JUMPDEST PUSH2 0x1F63 DUP6 DUP3 DUP7 ADD PUSH2 0x1B60 JUMP JUMPDEST SWAP2 POP POP SWAP3 POP SWAP3 SWAP1 POP JUMP JUMPDEST PUSH1 0x0 PUSH2 0x1F79 DUP4 DUP4 PUSH2 0x20C3 JUMP JUMPDEST SWAP1 POP SWAP3 SWAP2 POP POP JUMP JUMPDEST PUSH1 0x0 PUSH2 0x1F8D DUP4 DUP4 PUSH2 0x22DA JUMP JUMPDEST PUSH1 0x20 DUP4 ADD SWAP1 POP SWAP3 SWAP2 POP POP JUMP JUMPDEST PUSH2 0x1FA2 DUP2 PUSH2 0x276C JUMP JUMPDEST DUP3 MSTORE POP POP JUMP JUMPDEST PUSH1 0x0 PUSH2 0x1FB3 DUP3 PUSH2 0x25FE JUMP JUMPDEST PUSH2 0x1FBD DUP2 DUP6 PUSH2 0x2644 JUMP JUMPDEST SWAP4 POP DUP4 PUSH1 0x20 DUP3 MUL DUP6 ADD PUSH2 0x1FCF DUP6 PUSH2 0x25C9 JUMP JUMPDEST DUP1 PUSH1 0x0 JUMPDEST DUP6 DUP2 LT ISZERO PUSH2 0x200B JUMPI DUP5 DUP5 SUB DUP10 MSTORE DUP2 MLOAD PUSH2 0x1FEC DUP6 DUP3 PUSH2 0x1F6D JUMP JUMPDEST SWAP5 POP PUSH2 0x1FF7 DUP4 PUSH2 0x262A JUMP JUMPDEST SWAP3 POP PUSH1 0x20 DUP11 ADD SWAP10 POP POP PUSH1 0x1 DUP2 ADD SWAP1 POP PUSH2 0x1FD3 JUMP JUMPDEST POP DUP3 SWAP8 POP DUP8 SWAP6 POP POP POP POP POP POP SWAP3 SWAP2 POP POP JUMP JUMPDEST PUSH1 0x0 PUSH2 0x2028 DUP3 PUSH2 0x2609 JUMP JUMPDEST PUSH2 0x2032 DUP2 DUP6 PUSH2 0x2655 JUMP JUMPDEST SWAP4 POP PUSH2 0x203D DUP4 PUSH2 0x25D9 JUMP JUMPDEST DUP1 PUSH1 0x0 JUMPDEST DUP4 DUP2 LT ISZERO PUSH2 0x206E JUMPI DUP2 MLOAD PUSH2 0x2055 DUP9 DUP3 PUSH2 0x1F81 JUMP JUMPDEST SWAP8 POP PUSH2 0x2060 DUP4 PUSH2 0x2637 JUMP JUMPDEST SWAP3 POP POP PUSH1 0x1 DUP2 ADD SWAP1 POP PUSH2 0x2041 JUMP JUMPDEST POP DUP6 SWAP4 POP POP POP POP SWAP3 SWAP2 POP POP JUMP JUMPDEST PUSH2 0x2084 DUP2 PUSH2 0x277E JUMP JUMPDEST DUP3 MSTORE POP POP JUMP JUMPDEST PUSH1 0x0 PUSH2 0x2095 DUP3 PUSH2 0x2614 JUMP JUMPDEST PUSH2 0x209F DUP2 DUP6 PUSH2 0x2666 JUMP JUMPDEST SWAP4 POP PUSH2 0x20AF DUP2 DUP6 PUSH1 0x20 DUP7 ADD PUSH2 0x2803 JUMP JUMPDEST PUSH2 0x20B8 DUP2 PUSH2 0x29E1 JUMP JUMPDEST DUP5 ADD SWAP2 POP POP SWAP3 SWAP2 POP POP JUMP JUMPDEST PUSH1 0x0 PUSH2 0x20CE DUP3 PUSH2 0x261F JUMP JUMPDEST PUSH2 0x20D8 DUP2 DUP6 PUSH2 0x2677 JUMP JUMPDEST SWAP4 POP PUSH2 0x20E8 DUP2 DUP6 PUSH1 0x20 DUP7 ADD PUSH2 0x2803 JUMP JUMPDEST PUSH2 0x20F1 DUP2 PUSH2 0x29E1 JUMP JUMPDEST DUP5 ADD SWAP2 POP POP SWAP3 SWAP2 POP POP JUMP JUMPDEST PUSH1 0x0 PUSH2 0x2107 DUP3 PUSH2 0x261F JUMP JUMPDEST PUSH2 0x2111 DUP2 DUP6 PUSH2 0x2688 JUMP JUMPDEST SWAP4 POP PUSH2 0x2121 DUP2 DUP6 PUSH1 0x20 DUP7 ADD PUSH2 0x2803 JUMP JUMPDEST PUSH2 0x212A DUP2 PUSH2 0x29E1 JUMP JUMPDEST DUP5 ADD SWAP2 POP POP SWAP3 SWAP2 POP POP JUMP JUMPDEST PUSH1 0x0 PUSH2 0x2140 DUP3 PUSH2 0x261F JUMP JUMPDEST PUSH2 0x214A DUP2 DUP6 PUSH2 0x2699 JUMP JUMPDEST SWAP4 POP PUSH2 0x215A DUP2 DUP6 PUSH1 0x20 DUP7 ADD PUSH2 0x2803 JUMP JUMPDEST DUP1 DUP5 ADD SWAP2 POP POP SWAP3 SWAP2 POP POP JUMP JUMPDEST PUSH1 0x0 DUP2 SLOAD PUSH2 0x2173 DUP2 PUSH2 0x2860 JUMP JUMPDEST PUSH2 0x217D DUP2 DUP7 PUSH2 0x2699 JUMP JUMPDEST SWAP5 POP PUSH1 0x1 DUP3 AND PUSH1 0x0 DUP2 EQ PUSH2 0x2198 JUMPI PUSH1 0x1 DUP2 EQ PUSH2 0x21A9 JUMPI PUSH2 0x21DC JUMP JUMPDEST PUSH1 0xFF NOT DUP4 AND DUP7 MSTORE DUP2 DUP7 ADD SWAP4 POP PUSH2 0x21DC JUMP JUMPDEST PUSH2 0x21B2 DUP6 PUSH2 0x25E9 JUMP JUMPDEST PUSH1 0x0 JUMPDEST DUP4 DUP2 LT ISZERO PUSH2 0x21D4 JUMPI DUP2 SLOAD DUP2 DUP10 ADD MSTORE PUSH1 0x1 DUP3 ADD SWAP2 POP PUSH1 0x20 DUP2 ADD SWAP1 POP PUSH2 0x21B5 JUMP JUMPDEST DUP4 DUP9 ADD SWAP6 POP POP POP JUMPDEST POP POP POP SWAP3 SWAP2 POP POP JUMP JUMPDEST PUSH1 0x0 PUSH2 0x21F2 PUSH1 0x19 DUP4 PUSH2 0x2688 JUMP JUMPDEST SWAP2 POP PUSH2 0x21FD DUP3 PUSH2 0x29F2 JUMP JUMPDEST PUSH1 0x20 DUP3 ADD SWAP1 POP SWAP2 SWAP1 POP JUMP JUMPDEST PUSH1 0x0 PUSH2 0x2215 PUSH1 0x38 DUP4 PUSH2 0x2688 JUMP JUMPDEST SWAP2 POP PUSH2 0x2220 DUP3 PUSH2 0x2A1B JUMP JUMPDEST PUSH1 0x40 DUP3 ADD SWAP1 POP SWAP2 SWAP1 POP JUMP JUMPDEST PUSH1 0x0 PUSH2 0x2238 PUSH1 0x29 DUP4 PUSH2 0x2688 JUMP JUMPDEST SWAP2 POP PUSH2 0x2243 DUP3 PUSH2 0x2A6A JUMP JUMPDEST PUSH1 0x40 DUP3 ADD SWAP1 POP SWAP2 SWAP1 POP JUMP JUMPDEST PUSH1 0x0 PUSH2 0x225B PUSH1 0x21 DUP4 PUSH2 0x2688 JUMP JUMPDEST SWAP2 POP PUSH2 0x2266 DUP3 PUSH2 0x2AB9 JUMP JUMPDEST PUSH1 0x40 DUP3 ADD SWAP1 POP SWAP2 SWAP1 POP JUMP JUMPDEST PUSH1 0x0 PUSH2 0x227E PUSH1 0x31 DUP4 PUSH2 0x2688 JUMP JUMPDEST SWAP2 POP PUSH2 0x2289 DUP3 PUSH2 0x2B08 JUMP JUMPDEST PUSH1 0x40 DUP3 ADD SWAP1 POP SWAP2 SWAP1 POP JUMP JUMPDEST PUSH1 0x0 PUSH2 0x22A1 PUSH1 0x13 DUP4 PUSH2 0x2688 JUMP JUMPDEST SWAP2 POP PUSH2 0x22AC DUP3 PUSH2 0x2B57 JUMP JUMPDEST PUSH1 0x20 DUP3 ADD SWAP1 POP SWAP2 SWAP1 POP JUMP JUMPDEST PUSH1 0x0 PUSH2 0x22C4 PUSH1 0x18 DUP4 PUSH2 0x2688 JUMP JUMPDEST SWAP2 POP PUSH2 0x22CF DUP3 PUSH2 0x2B80 JUMP JUMPDEST PUSH1 0x20 DUP3 ADD SWAP1 POP SWAP2 SWAP1 POP JUMP JUMPDEST PUSH2 0x22E3 DUP2 PUSH2 0x27D6 JUMP JUMPDEST DUP3 MSTORE POP POP JUMP JUMPDEST PUSH2 0x22F2 DUP2 PUSH2 0x27D6 JUMP JUMPDEST DUP3 MSTORE POP POP JUMP JUMPDEST PUSH1 0x0 PUSH2 0x2304 DUP3 DUP6 PUSH2 0x2135 JUMP JUMPDEST SWAP2 POP PUSH2 0x2310 DUP3 DUP5 PUSH2 0x2166 JUMP JUMPDEST SWAP2 POP DUP2 SWAP1 POP SWAP4 SWAP3 POP POP POP JUMP JUMPDEST PUSH1 0x0 PUSH2 0x2328 DUP3 DUP5 PUSH2 0x2166 JUMP JUMPDEST SWAP2 POP DUP2 SWAP1 POP SWAP3 SWAP2 POP POP JUMP JUMPDEST PUSH1 0x0 PUSH1 0x20 DUP3 ADD SWAP1 POP PUSH2 0x2348 PUSH1 0x0 DUP4 ADD DUP5 PUSH2 0x1F99 JUMP JUMPDEST SWAP3 SWAP2 POP POP JUMP JUMPDEST PUSH1 0x0 PUSH1 0x80 DUP3 ADD SWAP1 POP PUSH2 0x2363 PUSH1 0x0 DUP4 ADD DUP8 PUSH2 0x1F99 JUMP JUMPDEST PUSH2 0x2370 PUSH1 0x20 DUP4 ADD DUP7 PUSH2 0x1F99 JUMP JUMPDEST PUSH2 0x237D PUSH1 0x40 DUP4 ADD DUP6 PUSH2 0x22E9 JUMP JUMPDEST DUP2 DUP2 SUB PUSH1 0x60 DUP4 ADD MSTORE PUSH2 0x238F DUP2 DUP5 PUSH2 0x208A JUMP JUMPDEST SWAP1 POP SWAP6 SWAP5 POP POP POP POP POP JUMP JUMPDEST PUSH1 0x0 PUSH1 0x20 DUP3 ADD SWAP1 POP DUP2 DUP2 SUB PUSH1 0x0 DUP4 ADD MSTORE PUSH2 0x23B4 DUP2 DUP5 PUSH2 0x1FA8 JUMP JUMPDEST SWAP1 POP SWAP3 SWAP2 POP POP JUMP JUMPDEST PUSH1 0x0 PUSH1 0x20 DUP3 ADD SWAP1 POP DUP2 DUP2 SUB PUSH1 0x0 DUP4 ADD MSTORE PUSH2 0x23D6 DUP2 DUP5 PUSH2 0x201D JUMP JUMPDEST SWAP1 POP SWAP3 SWAP2 POP POP JUMP JUMPDEST PUSH1 0x0 PUSH1 0x20 DUP3 ADD SWAP1 POP PUSH2 0x23F3 PUSH1 0x0 DUP4 ADD DUP5 PUSH2 0x207B JUMP JUMPDEST SWAP3 SWAP2 POP POP JUMP JUMPDEST PUSH1 0x0 PUSH1 0x20 DUP3 ADD SWAP1 POP DUP2 DUP2 SUB PUSH1 0x0 DUP4 ADD MSTORE PUSH2 0x2413 DUP2 DUP5 PUSH2 0x20FC JUMP JUMPDEST SWAP1 POP SWAP3 SWAP2 POP POP JUMP JUMPDEST PUSH1 0x0 PUSH1 0x20 DUP3 ADD SWAP1 POP DUP2 DUP2 SUB PUSH1 0x0 DUP4 ADD MSTORE PUSH2 0x2434 DUP2 PUSH2 0x21E5 JUMP JUMPDEST SWAP1 POP SWAP2 SWAP1 POP JUMP JUMPDEST PUSH1 0x0 PUSH1 0x20 DUP3 ADD SWAP1 POP DUP2 DUP2 SUB PUSH1 0x0 DUP4 ADD MSTORE PUSH2 0x2454 DUP2 PUSH2 0x2208 JUMP JUMPDEST SWAP1 POP SWAP2 SWAP1 POP JUMP JUMPDEST PUSH1 0x0 PUSH1 0x20 DUP3 ADD SWAP1 POP DUP2 DUP2 SUB PUSH1 0x0 DUP4 ADD MSTORE PUSH2 0x2474 DUP2 PUSH2 0x222B JUMP JUMPDEST SWAP1 POP SWAP2 SWAP1 POP JUMP JUMPDEST PUSH1 0x0 PUSH1 0x20 DUP3 ADD SWAP1 POP DUP2 DUP2 SUB PUSH1 0x0 DUP4 ADD MSTORE PUSH2 0x2494 DUP2 PUSH2 0x224E JUMP JUMPDEST SWAP1 POP SWAP2 SWAP1 POP JUMP JUMPDEST PUSH1 0x0 PUSH1 0x20 DUP3 ADD SWAP1 POP DUP2 DUP2 SUB PUSH1 0x0 DUP4 ADD MSTORE PUSH2 0x24B4 DUP2 PUSH2 0x2271 JUMP JUMPDEST SWAP1 POP SWAP2 SWAP1 POP JUMP JUMPDEST PUSH1 0x0 PUSH1 0x20 DUP3 ADD SWAP1 POP DUP2 DUP2 SUB PUSH1 0x0 DUP4 ADD MSTORE PUSH2 0x24D4 DUP2 PUSH2 0x2294 JUMP JUMPDEST SWAP1 POP SWAP2 SWAP1 POP JUMP JUMPDEST PUSH1 0x0 PUSH1 0x20 DUP3 ADD SWAP1 POP DUP2 DUP2 SUB PUSH1 0x0 DUP4 ADD MSTORE PUSH2 0x24F4 DUP2 PUSH2 0x22B7 JUMP JUMPDEST SWAP1 POP SWAP2 SWAP1 POP JUMP JUMPDEST PUSH1 0x0 PUSH1 0x20 DUP3 ADD SWAP1 POP PUSH2 0x2510 PUSH1 0x0 DUP4 ADD DUP5 PUSH2 0x22E9 JUMP JUMPDEST SWAP3 SWAP2 POP POP JUMP JUMPDEST PUSH1 0x0 PUSH2 0x2520 PUSH2 0x2531 JUMP JUMPDEST SWAP1 POP PUSH2 0x252C DUP3 DUP3 PUSH2 0x2892 JUMP JUMPDEST SWAP2 SWAP1 POP JUMP JUMPDEST PUSH1 0x0 PUSH1 0x40 MLOAD SWAP1 POP SWAP1 JUMP JUMPDEST PUSH1 0x0 PUSH8 0xFFFFFFFFFFFFFFFF DUP3 GT ISZERO PUSH2 0x2556 JUMPI PUSH2 0x2555 PUSH2 0x2999 JUMP JUMPDEST JUMPDEST PUSH1 0x20 DUP3 MUL SWAP1 POP PUSH1 0x20 DUP2 ADD SWAP1 POP SWAP2 SWAP1 POP JUMP JUMPDEST PUSH1 0x0 PUSH8 0xFFFFFFFFFFFFFFFF DUP3 GT ISZERO PUSH2 0x2582 JUMPI PUSH2 0x2581 PUSH2 0x2999 JUMP JUMPDEST JUMPDEST PUSH2 0x258B DUP3 PUSH2 0x29E1 JUMP JUMPDEST SWAP1 POP PUSH1 0x20 DUP2 ADD SWAP1 POP SWAP2 SWAP1 POP JUMP JUMPDEST PUSH1 0x0 PUSH8 0xFFFFFFFFFFFFFFFF DUP3 GT ISZERO PUSH2 0x25B3 JUMPI PUSH2 0x25B2 PUSH2 0x2999 JUMP JUMPDEST JUMPDEST PUSH2 0x25BC DUP3 PUSH2 0x29E1 JUMP JUMPDEST SWAP1 POP PUSH1 0x20 DUP2 ADD SWAP1 POP SWAP2 SWAP1 POP JUMP JUMPDEST PUSH1 0x0 DUP2 SWAP1 POP PUSH1 0x20 DUP3 ADD SWAP1 POP SWAP2 SWAP1 POP JUMP JUMPDEST PUSH1 0x0 DUP2 SWAP1 POP PUSH1 0x20 DUP3 ADD SWAP1 POP SWAP2 SWAP1 POP JUMP JUMPDEST PUSH1 0x0 DUP2 SWAP1 POP DUP2 PUSH1 0x0 MSTORE PUSH1 0x20 PUSH1 0x0 KECCAK256 SWAP1 POP SWAP2 SWAP1 POP JUMP JUMPDEST PUSH1 0x0 DUP2 MLOAD SWAP1 POP SWAP2 SWAP1 POP JUMP JUMPDEST PUSH1 0x0 DUP2 MLOAD SWAP1 POP SWAP2 SWAP1 POP JUMP JUMPDEST PUSH1 0x0 DUP2 MLOAD SWAP1 POP SWAP2 SWAP1 POP JUMP JUMPDEST PUSH1 0x0 DUP2 MLOAD SWAP1 POP SWAP2 SWAP1 POP JUMP JUMPDEST PUSH1 0x0 PUSH1 0x20 DUP3 ADD SWAP1 POP SWAP2 SWAP1 POP JUMP JUMPDEST PUSH1 0x0 PUSH1 0x20 DUP3 ADD SWAP1 POP SWAP2 SWAP1 POP JUMP JUMPDEST PUSH1 0x0 DUP3 DUP3 MSTORE PUSH1 0x20 DUP3 ADD SWAP1 POP SWAP3 SWAP2 POP POP JUMP JUMPDEST PUSH1 0x0 DUP3 DUP3 MSTORE PUSH1 0x20 DUP3 ADD SWAP1 POP SWAP3 SWAP2 POP POP JUMP JUMPDEST PUSH1 0x0 DUP3 DUP3 MSTORE PUSH1 0x20 DUP3 ADD SWAP1 POP SWAP3 SWAP2 POP POP JUMP JUMPDEST PUSH1 0x0 DUP3 DUP3 MSTORE PUSH1 0x20 DUP3 ADD SWAP1 POP SWAP3 SWAP2 POP POP JUMP JUMPDEST PUSH1 0x0 DUP3 DUP3 MSTORE PUSH1 0x20 DUP3 ADD SWAP1 POP SWAP3 SWAP2 POP POP JUMP JUMPDEST PUSH1 0x0 DUP2 SWAP1 POP SWAP3 SWAP2 POP POP JUMP JUMPDEST PUSH1 0x0 PUSH2 0x26AF DUP3 PUSH2 0x27D6 JUMP JUMPDEST SWAP2 POP PUSH2 0x26BA DUP4 PUSH2 0x27D6 JUMP JUMPDEST SWAP3 POP DUP3 PUSH32 0xFFFFFFFFFFFFFFFFFFFFFFFFFFFFFFFFFFFFFFFFFFFFFFFFFFFFFFFFFFFFFFFF SUB DUP3 GT ISZERO PUSH2 0x26EF JUMPI PUSH2 0x26EE PUSH2 0x290C JUMP JUMPDEST JUMPDEST DUP3 DUP3 ADD SWAP1 POP SWAP3 SWAP2 POP POP JUMP JUMPDEST PUSH1 0x0 PUSH2 0x2705 DUP3 PUSH2 0x27E0 JUMP JUMPDEST SWAP2 POP PUSH2 0x2710 DUP4 PUSH2 0x27E0 JUMP JUMPDEST SWAP3 POP DUP3 PUSH8 0xFFFFFFFFFFFFFFFF SUB DUP3 GT ISZERO PUSH2 0x272D JUMPI PUSH2 0x272C PUSH2 0x290C JUMP JUMPDEST JUMPDEST DUP3 DUP3 ADD SWAP1 POP SWAP3 SWAP2 POP POP JUMP JUMPDEST PUSH1 0x0 PUSH2 0x2743 DUP3 PUSH2 0x27D6 JUMP JUMPDEST SWAP2 POP PUSH2 0x274E DUP4 PUSH2 0x27D6 JUMP JUMPDEST SWAP3 POP DUP3 DUP3 LT ISZERO PUSH2 0x2761 JUMPI PUSH2 0x2760 PUSH2 0x290C JUMP JUMPDEST JUMPDEST DUP3 DUP3 SUB SWAP1 POP SWAP3 SWAP2 POP POP JUMP JUMPDEST PUSH1 0x0 PUSH2 0x2777 DUP3 PUSH2 0x27B6 JUMP JUMPDEST SWAP1 POP SWAP2 SWAP1 POP JUMP JUMPDEST PUSH1 0x0 DUP2 ISZERO ISZERO SWAP1 POP SWAP2 SWAP1 POP JUMP JUMPDEST PUSH1 0x0 PUSH32 0xFFFFFFFF00000000000000000000000000000000000000000000000000000000 DUP3 AND SWAP1 POP SWAP2 SWAP1 POP JUMP JUMPDEST PUSH1 0x0 PUSH20 0xFFFFFFFFFFFFFFFFFFFFFFFFFFFFFFFFFFFFFFFF DUP3 AND SWAP1 POP SWAP2 SWAP1 POP JUMP JUMPDEST PUSH1 0x0 DUP2 SWAP1 POP SWAP2 SWAP1 POP JUMP JUMPDEST PUSH1 0x0 PUSH8 0xFFFFFFFFFFFFFFFF DUP3 AND SWAP1 POP SWAP2 SWAP1 POP JUMP JUMPDEST DUP3 DUP2 DUP4 CALLDATACOPY PUSH1 0x0 DUP4 DUP4 ADD MSTORE POP POP POP JUMP JUMPDEST PUSH1 0x0 JUMPDEST DUP4 DUP2 LT ISZERO PUSH2 0x2821 JUMPI DUP1 DUP3 ADD MLOAD DUP2 DUP5 ADD MSTORE PUSH1 0x20 DUP2 ADD SWAP1 POP PUSH2 0x2806 JUMP JUMPDEST DUP4 DUP2 GT ISZERO PUSH2 0x2830 JUMPI PUSH1 0x0 DUP5 DUP5 ADD MSTORE JUMPDEST POP POP POP POP JUMP JUMPDEST PUSH1 0x0 PUSH2 0x2841 DUP3 PUSH2 0x27E0 JUMP JUMPDEST SWAP2 POP PUSH1 0x0 DUP3 EQ ISZERO PUSH2 0x2855 JUMPI PUSH2 0x2854 PUSH2 0x290C JUMP JUMPDEST JUMPDEST PUSH1 0x1 DUP3 SUB SWAP1 POP SWAP2 SWAP1 POP JUMP JUMPDEST PUSH1 0x0 PUSH1 0x2 DUP3 DIV SWAP1 POP PUSH1 0x1 DUP3 AND DUP1 PUSH2 0x2878 JUMPI PUSH1 0x7F DUP3 AND SWAP2 POP JUMPDEST PUSH1 0x20 DUP3 LT DUP2 EQ ISZERO PUSH2 0x288C JUMPI PUSH2 0x288B PUSH2 0x293B JUMP JUMPDEST JUMPDEST POP SWAP2 SWAP1 POP JUMP JUMPDEST PUSH2 0x289B DUP3 PUSH2 0x29E1 JUMP JUMPDEST DUP2 ADD DUP2 DUP2 LT PUSH8 0xFFFFFFFFFFFFFFFF DUP3 GT OR ISZERO PUSH2 0x28BA JUMPI PUSH2 0x28B9 PUSH2 0x2999 JUMP JUMPDEST JUMPDEST DUP1 PUSH1 0x40 MSTORE POP POP POP JUMP JUMPDEST PUSH1 0x0 PUSH2 0x28CE DUP3 PUSH2 0x27D6 JUMP JUMPDEST SWAP2 POP PUSH32 0xFFFFFFFFFFFFFFFFFFFFFFFFFFFFFFFFFFFFFFFFFFFFFFFFFFFFFFFFFFFFFFFF DUP3 EQ ISZERO PUSH2 0x2901 JUMPI PUSH2 0x2900 PUSH2 0x290C JUMP JUMPDEST JUMPDEST PUSH1 0x1 DUP3 ADD SWAP1 POP SWAP2 SWAP1 POP JUMP JUMPDEST PUSH32 0x4E487B7100000000000000000000000000000000000000000000000000000000 PUSH1 0x0 MSTORE PUSH1 0x11 PUSH1 0x4 MSTORE PUSH1 0x24 PUSH1 0x0 REVERT JUMPDEST PUSH32 0x4E487B7100000000000000000000000000000000000000000000000000000000 PUSH1 0x0 MSTORE PUSH1 0x22 PUSH1 0x4 MSTORE PUSH1 0x24 PUSH1 0x0 REVERT JUMPDEST PUSH32 0x4E487B7100000000000000000000000000000000000000000000000000000000 PUSH1 0x0 MSTORE PUSH1 0x32 PUSH1 0x4 MSTORE PUSH1 0x24 PUSH1 0x0 REVERT JUMPDEST PUSH32 0x4E487B7100000000000000000000000000000000000000000000000000000000 PUSH1 0x0 MSTORE PUSH1 0x41 PUSH1 0x4 MSTORE PUSH1 0x24 PUSH1 0x0 REVERT JUMPDEST PUSH1 0x0 DUP1 REVERT JUMPDEST PUSH1 0x0 DUP1 REVERT JUMPDEST PUSH1 0x0 DUP1 REVERT JUMPDEST PUSH1 0x0 DUP1 REVERT JUMPDEST PUSH1 0x0 DUP1 REVERT JUMPDEST PUSH1 0x0 PUSH1 0x1F NOT PUSH1 0x1F DUP4 ADD AND SWAP1 POP SWAP2 SWAP1 POP JUMP JUMPDEST PUSH32 0x4552433732313A20617070726F766520746F2063616C6C657200000000000000 PUSH1 0x0 DUP3 ADD MSTORE POP JUMP JUMPDEST PUSH32 0x4552433732313A20617070726F76652063616C6C6572206973206E6F74206F77 PUSH1 0x0 DUP3 ADD MSTORE PUSH32 0x6E6572206E6F7220617070726F76656420666F7220616C6C0000000000000000 PUSH1 0x20 DUP3 ADD MSTORE POP JUMP JUMPDEST PUSH32 0x4552433732313A207472616E73666572206F6620746F6B656E20746861742069 PUSH1 0x0 DUP3 ADD MSTORE PUSH32 0x73206E6F74206F776E0000000000000000000000000000000000000000000000 PUSH1 0x20 DUP3 ADD MSTORE POP JUMP JUMPDEST PUSH32 0x4552433732313A20617070726F76616C20746F2063757272656E74206F776E65 PUSH1 0x0 DUP3 ADD MSTORE PUSH32 0x7200000000000000000000000000000000000000000000000000000000000000 PUSH1 0x20 DUP3 ADD MSTORE POP JUMP JUMPDEST PUSH32 0x4552433732313A207472616E736665722063616C6C6572206973206E6F74206F PUSH1 0x0 DUP3 ADD MSTORE PUSH32 0x776E6572206E6F7220617070726F766564000000000000000000000000000000 PUSH1 0x20 DUP3 ADD MSTORE POP JUMP JUMPDEST PUSH32 0x496E646578206F7574206F6620626F756E647300000000000000000000000000 PUSH1 0x0 DUP3 ADD MSTORE POP JUMP JUMPDEST PUSH32 0x4552433732313A20616472657373203020696E76616C69640000000000000000 PUSH1 0x0 DUP3 ADD MSTORE POP JUMP JUMPDEST PUSH2 0x2BB2 DUP2 PUSH2 0x276C JUMP JUMPDEST DUP2 EQ PUSH2 0x2BBD JUMPI PUSH1 0x0 DUP1 REVERT JUMPDEST POP JUMP JUMPDEST PUSH2 0x2BC9 DUP2 PUSH2 0x277E JUMP JUMPDEST DUP2 EQ PUSH2 0x2BD4 JUMPI PUSH1 0x0 DUP1 REVERT JUMPDEST POP JUMP JUMPDEST PUSH2 0x2BE0 DUP2 PUSH2 0x278A JUMP JUMPDEST DUP2 EQ PUSH2 0x2BEB JUMPI PUSH1 0x0 DUP1 REVERT JUMPDEST POP JUMP JUMPDEST PUSH2 0x2BF7 DUP2 PUSH2 0x27D6 JUMP JUMPDEST DUP2 EQ PUSH2 0x2C02 JUMPI PUSH1 0x0 DUP1 REVERT JUMPDEST POP JUMP INVALID LOG2 PUSH5 0x6970667358 0x22 SLT KECCAK256 STOP 0x26 0xDF 0x29 GASPRICE 0xA9 KECCAK256 MSTORE 0xD9 0xD2 DUP3 EXTCODESIZE DUP1 LOG1 0x29 0xAD 0xD4 0xDF DUP7 0x5C 0xDA DUP5 0xC8 0xC3 0xB9 0xDB CALLDATASIZE SUB CALLDATASIZE BLOCKHASH DUP13 0xC2 PUSH5 0x736F6C6343 STOP ADDMOD SMOD STOP CALLER "
				},
				"gasEstimates": {
					"creation": {
						"codeDepositCost": "2264600",
						"executionCost": "2419",
						"totalCost": "2267019"
					},
					"external": {
						"approve(address,uint256)": "infinite",
						"balanceOf(address)": "2950",
						"burn(uint256)": "infinite",
						"getApproved(uint256)": "2911",
						"getTokenID()": "2490",
						"getURIList(address)": "infinite",
						"getURIs(address)": "infinite",
						"isApprovedForAll(address,address)": "infinite",
						"mintToken(address,string)": "infinite",
						"ownerOf(uint256)": "5153",
						"remove(uint256,string[])": "infinite",
						"safeTransferFrom(address,address,uint256)": "infinite",
						"safeTransferFrom(address,address,uint256,bytes)": "infinite",
						"setApprovalForAll(address,bool)": "infinite",
						"supportsInterface(bytes4)": "662",
						"tokensOfOwner(address)": "infinite",
						"transferFrom(address,address,uint256)": "infinite"
					},
					"internal": {
						"_approve(address,uint256)": "infinite",
						"_burn(address,uint256)": "infinite",
						"_isApprovedOrOwner(address,uint256)": "infinite",
						"_safeTransfer(address,address,uint256,bytes memory)": "infinite",
						"_transfer(address,address,uint256)": "infinite"
					}
				},
				"methodIdentifiers": {
					"approve(address,uint256)": "095ea7b3",
					"balanceOf(address)": "70a08231",
					"burn(uint256)": "42966c68",
					"getApproved(uint256)": "081812fc",
					"getTokenID()": "6ba367a3",
					"getURIList(address)": "7fcb2989",
					"getURIs(address)": "4802693d",
					"isApprovedForAll(address,address)": "e985e9c5",
					"mintToken(address,string)": "3d02d0c9",
					"ownerOf(uint256)": "6352211e",
					"remove(uint256,string[])": "7360cbba",
					"safeTransferFrom(address,address,uint256)": "42842e0e",
					"safeTransferFrom(address,address,uint256,bytes)": "b88d4fde",
					"setApprovalForAll(address,bool)": "a22cb465",
					"supportsInterface(bytes4)": "01ffc9a7",
					"tokensOfOwner(address)": "8462151c",
					"transferFrom(address,address,uint256)": "23b872dd"
				}
			},
			"storageLayout": {
				"storage": [
					{
						"astId": 915,
						"contract": "contracts/ERC721Contract.sol:ERC721Contract",
						"label": "tokenList",
						"offset": 0,
						"slot": "0",
						"type": "t_array(t_struct(Token)911_storage)dyn_storage"
					},
					{
						"astId": 920,
						"contract": "contracts/ERC721Contract.sol:ERC721Contract",
						"label": "tokenCollection",
						"offset": 0,
						"slot": "1",
						"type": "t_mapping(t_address,t_array(t_string_storage)dyn_storage)"
					},
					{
						"astId": 924,
						"contract": "contracts/ERC721Contract.sol:ERC721Contract",
						"label": "tokenURIs",
						"offset": 0,
						"slot": "2",
						"type": "t_mapping(t_uint256,t_string_storage)"
					},
					{
						"astId": 928,
						"contract": "contracts/ERC721Contract.sol:ERC721Contract",
						"label": "tokenOwner",
						"offset": 0,
						"slot": "3",
						"type": "t_mapping(t_uint256,t_address)"
					},
					{
						"astId": 932,
						"contract": "contracts/ERC721Contract.sol:ERC721Contract",
						"label": "tokenBalance",
						"offset": 0,
						"slot": "4",
						"type": "t_mapping(t_address,t_uint64)"
					},
					{
						"astId": 936,
						"contract": "contracts/ERC721Contract.sol:ERC721Contract",
						"label": "tokenApprovals",
						"offset": 0,
						"slot": "5",
						"type": "t_mapping(t_uint256,t_address)"
					},
					{
						"astId": 942,
						"contract": "contracts/ERC721Contract.sol:ERC721Contract",
						"label": "operatorApprovals",
						"offset": 0,
						"slot": "6",
						"type": "t_mapping(t_address,t_mapping(t_address,t_bool))"
					}
				],
				"types": {
					"t_address": {
						"encoding": "inplace",
						"label": "address",
						"numberOfBytes": "20"
					},
					"t_array(t_string_storage)dyn_storage": {
						"base": "t_string_storage",
						"encoding": "dynamic_array",
						"label": "string[]",
						"numberOfBytes": "32"
					},
					"t_array(t_struct(Token)911_storage)dyn_storage": {
						"base": "t_struct(Token)911_storage",
						"encoding": "dynamic_array",
						"label": "struct tokenData.Token[]",
						"numberOfBytes": "32"
					},
					"t_bool": {
						"encoding": "inplace",
						"label": "bool",
						"numberOfBytes": "1"
					},
					"t_mapping(t_address,t_array(t_string_storage)dyn_storage)": {
						"encoding": "mapping",
						"key": "t_address",
						"label": "mapping(address => string[])",
						"numberOfBytes": "32",
						"value": "t_array(t_string_storage)dyn_storage"
					},
					"t_mapping(t_address,t_bool)": {
						"encoding": "mapping",
						"key": "t_address",
						"label": "mapping(address => bool)",
						"numberOfBytes": "32",
						"value": "t_bool"
					},
					"t_mapping(t_address,t_mapping(t_address,t_bool))": {
						"encoding": "mapping",
						"key": "t_address",
						"label": "mapping(address => mapping(address => bool))",
						"numberOfBytes": "32",
						"value": "t_mapping(t_address,t_bool)"
					},
					"t_mapping(t_address,t_uint64)": {
						"encoding": "mapping",
						"key": "t_address",
						"label": "mapping(address => uint64)",
						"numberOfBytes": "32",
						"value": "t_uint64"
					},
					"t_mapping(t_uint256,t_address)": {
						"encoding": "mapping",
						"key": "t_uint256",
						"label": "mapping(uint256 => address)",
						"numberOfBytes": "32",
						"value": "t_address"
					},
					"t_mapping(t_uint256,t_string_storage)": {
						"encoding": "mapping",
						"key": "t_uint256",
						"label": "mapping(uint256 => string)",
						"numberOfBytes": "32",
						"value": "t_string_storage"
					},
					"t_string_storage": {
						"encoding": "bytes",
						"label": "string",
						"numberOfBytes": "32"
					},
					"t_struct(Token)911_storage": {
						"encoding": "inplace",
						"label": "struct tokenData.Token",
						"members": [
							{
								"astId": 908,
								"contract": "contracts/ERC721Contract.sol:ERC721Contract",
								"label": "mintedBy",
								"offset": 0,
								"slot": "0",
								"type": "t_address"
							},
							{
								"astId": 910,
								"contract": "contracts/ERC721Contract.sol:ERC721Contract",
								"label": "mintedAt",
								"offset": 20,
								"slot": "0",
								"type": "t_uint64"
							}
						],
						"numberOfBytes": "32"
					},
					"t_uint256": {
						"encoding": "inplace",
						"label": "uint256",
						"numberOfBytes": "32"
					},
					"t_uint64": {
						"encoding": "inplace",
						"label": "uint64",
						"numberOfBytes": "8"
					}
				}
			},
			"userdoc": {
				"kind": "user",
				"methods": {
					"balanceOf(address)": {
						"notice": "Count all NFTs assigned to an owner"
					},
					"getApproved(uint256)": {
						"notice": "Get the approved address for a single NFT"
					},
					"isApprovedForAll(address,address)": {
						"notice": "Query if an address is an authorized operator for another address"
					},
					"ownerOf(uint256)": {
						"notice": "Find the owner of an NFT"
					},
					"safeTransferFrom(address,address,uint256)": {
						"notice": "Transfers the ownership of an NFT from one address to another address"
					},
					"setApprovalForAll(address,bool)": {
						"notice": "Enable or disable approval for a third party (\"operator\") to manage  all of `msg.sender`'s assets"
					},
					"tokensOfOwner(address)": {
						"notice": "Returns a list of all token IDs assigned to an address."
					},
					"transferFrom(address,address,uint256)": {
						"notice": "Transfer ownership of an NFT -- THE CALLER IS RESPONSIBLE  TO CONFIRM THAT `_to` IS CAPABLE OF RECEIVING NFTS OR ELSE  THEY MAY BE PERMANENTLY LOST"
					}
				},
				"version": 1
			}
		}
	}
}