{
	"contracts/ERC721Contract.sol": {
		"ERC721Contract": {
			"abi": [
				{
					"anonymous": false,
					"inputs": [
						{
							"indexed": true,
							"internalType": "address",
							"name": "_owner",
							"type": "address"
						},
						{
							"indexed": true,
							"internalType": "address",
							"name": "_approved",
							"type": "address"
						},
						{
							"indexed": true,
							"internalType": "uint256",
							"name": "_tokenId",
							"type": "uint256"
						}
					],
					"name": "Approval",
					"type": "event"
				},
				{
					"anonymous": false,
					"inputs": [
						{
							"indexed": true,
							"internalType": "address",
							"name": "_owner",
							"type": "address"
						},
						{
							"indexed": true,
							"internalType": "address",
							"name": "_operator",
							"type": "address"
						},
						{
							"indexed": false,
							"internalType": "bool",
							"name": "_approved",
							"type": "bool"
						}
					],
					"name": "ApprovalForAll",
					"type": "event"
				},
				{
					"anonymous": false,
					"inputs": [
						{
							"indexed": true,
							"internalType": "address",
							"name": "_from",
							"type": "address"
						},
						{
							"indexed": true,
							"internalType": "address",
							"name": "_to",
							"type": "address"
						},
						{
							"indexed": true,
							"internalType": "uint256",
							"name": "_tokenId",
							"type": "uint256"
						}
					],
					"name": "Transfer",
					"type": "event"
				},
				{
					"inputs": [
						{
							"internalType": "address",
							"name": "_approveTo",
							"type": "address"
						},
						{
							"internalType": "uint256",
							"name": "_tokenId",
							"type": "uint256"
						}
					],
					"name": "approve",
					"outputs": [],
					"stateMutability": "payable",
					"type": "function"
				},
				{
					"inputs": [
						{
							"internalType": "address",
							"name": "_owner",
							"type": "address"
						}
					],
					"name": "balanceOf",
					"outputs": [
						{
							"internalType": "uint256",
							"name": "",
							"type": "uint256"
						}
					],
					"stateMutability": "view",
					"type": "function"
				},
				{
					"inputs": [
						{
							"internalType": "uint256",
							"name": "tokenId",
							"type": "uint256"
						}
					],
					"name": "burn",
					"outputs": [],
					"stateMutability": "nonpayable",
					"type": "function"
				},
				{
					"inputs": [
						{
							"internalType": "uint256",
							"name": "_tokenId",
							"type": "uint256"
						}
					],
					"name": "getApproved",
					"outputs": [
						{
							"internalType": "address",
							"name": "",
							"type": "address"
						}
					],
					"stateMutability": "view",
					"type": "function"
				},
				{
					"inputs": [],
					"name": "getTokenID",
					"outputs": [
						{
							"internalType": "uint256",
							"name": "",
							"type": "uint256"
						}
					],
					"stateMutability": "view",
					"type": "function"
				},
				{
					"inputs": [
						{
							"internalType": "address",
							"name": "owner",
							"type": "address"
						}
					],
					"name": "getURIList",
					"outputs": [
						{
							"internalType": "string[]",
							"name": "",
							"type": "string[]"
						}
					],
					"stateMutability": "view",
					"type": "function"
				},
				{
					"inputs": [
						{
							"internalType": "address",
							"name": "owner",
							"type": "address"
						}
					],
					"name": "getURIs",
					"outputs": [
						{
							"internalType": "string",
							"name": "",
							"type": "string"
						}
					],
					"stateMutability": "view",
					"type": "function"
				},
				{
					"inputs": [
						{
							"internalType": "address",
							"name": "_owner",
							"type": "address"
						},
						{
							"internalType": "address",
							"name": "_operator",
							"type": "address"
						}
					],
					"name": "isApprovedForAll",
					"outputs": [
						{
							"internalType": "bool",
							"name": "",
							"type": "bool"
						}
					],
					"stateMutability": "view",
					"type": "function"
				},
				{
					"inputs": [
						{
							"internalType": "address",
							"name": "to",
							"type": "address"
						},
						{
							"internalType": "string",
							"name": "tokenURI",
							"type": "string"
						}
					],
					"name": "mintToken",
					"outputs": [
						{
							"internalType": "uint256",
							"name": "tokenId",
							"type": "uint256"
						}
					],
					"stateMutability": "nonpayable",
					"type": "function"
				},
				{
					"inputs": [
						{
							"internalType": "uint256",
							"name": "_tokenId",
							"type": "uint256"
						}
					],
					"name": "ownerOf",
					"outputs": [
						{
							"internalType": "address",
							"name": "",
							"type": "address"
						}
					],
					"stateMutability": "view",
					"type": "function"
				},
				{
					"inputs": [
						{
							"internalType": "uint256",
							"name": "index",
							"type": "uint256"
						},
						{
							"internalType": "string[]",
							"name": "array",
							"type": "string[]"
						}
					],
					"name": "remove",
					"outputs": [],
					"stateMutability": "pure",
					"type": "function"
				},
				{
					"inputs": [
						{
							"internalType": "address",
							"name": "_from",
							"type": "address"
						},
						{
							"internalType": "address",
							"name": "_to",
							"type": "address"
						},
						{
							"internalType": "uint256",
							"name": "_tokenId",
							"type": "uint256"
						}
					],
					"name": "safeTransferFrom",
					"outputs": [],
					"stateMutability": "payable",
					"type": "function"
				},
				{
					"inputs": [
						{
							"internalType": "address",
							"name": "from",
							"type": "address"
						},
						{
							"internalType": "address",
							"name": "to",
							"type": "address"
						},
						{
							"internalType": "uint256",
							"name": "tokenId",
							"type": "uint256"
						},
						{
							"internalType": "bytes",
							"name": "_data",
							"type": "bytes"
						}
					],
					"name": "safeTransferFrom",
					"outputs": [],
					"stateMutability": "payable",
					"type": "function"
				},
				{
					"inputs": [
						{
							"internalType": "address",
							"name": "_operator",
							"type": "address"
						},
						{
							"internalType": "bool",
							"name": "_approved",
							"type": "bool"
						}
					],
					"name": "setApprovalForAll",
					"outputs": [],
					"stateMutability": "nonpayable",
					"type": "function"
				},
				{
					"inputs": [
						{
							"internalType": "bytes4",
							"name": "interfaceId",
							"type": "bytes4"
						}
					],
					"name": "supportsInterface",
					"outputs": [
						{
							"internalType": "bool",
							"name": "",
							"type": "bool"
						}
					],
					"stateMutability": "view",
					"type": "function"
				},
				{
					"inputs": [
						{
							"internalType": "address",
							"name": "_owner",
							"type": "address"
						}
					],
					"name": "tokensOfOwner",
					"outputs": [
						{
							"internalType": "uint256[]",
							"name": "ownerTokens",
							"type": "uint256[]"
						}
					],
					"stateMutability": "view",
					"type": "function"
				},
				{
					"inputs": [
						{
							"internalType": "address",
							"name": "_from",
							"type": "address"
						},
						{
							"internalType": "address",
							"name": "_to",
							"type": "address"
						},
						{
							"internalType": "uint256",
							"name": "_tokenId",
							"type": "uint256"
						}
					],
					"name": "transferFrom",
					"outputs": [],
					"stateMutability": "payable",
					"type": "function"
				}
			],
			"devdoc": {
				"kind": "dev",
				"methods": {
					"balanceOf(address)": {
						"details": "NFTs assigned to the zero address are considered invalid, and this  function throws for queries about the zero address.",
						"params": {
							"_owner": "An address for whom to query the balance"
						},
						"returns": {
							"_0": "The number of NFTs owned by `_owner`, possibly zero"
						}
					},
					"getApproved(uint256)": {
						"details": "Throws if `_tokenId` is not a valid NFT.",
						"params": {
							"_tokenId": "The NFT to find the approved address for"
						},
						"returns": {
							"_0": "The approved address for this NFT, or the zero address if there is none"
						}
					},
					"isApprovedForAll(address,address)": {
						"params": {
							"_operator": "The address that acts on behalf of the owner",
							"_owner": "The address that owns the NFTs"
						},
						"returns": {
							"_0": "True if `_operator` is an approved operator for `_owner`, false otherwise"
						}
					},
					"ownerOf(uint256)": {
						"details": "NFTs assigned to zero address are considered invalid, and queries  about them do throw.",
						"params": {
							"_tokenId": "The identifier for an NFT"
						},
						"returns": {
							"_0": "The address of the owner of the NFT"
						}
					},
					"safeTransferFrom(address,address,uint256)": {
						"details": "This works identically to the other function with an extra data parameter,  except this function just sets data to \"\".",
						"params": {
							"_from": "The current owner of the NFT",
							"_to": "The new owner",
							"_tokenId": "The NFT to transfer"
						}
					},
					"setApprovalForAll(address,bool)": {
						"details": "Emits the ApprovalForAll event. The contract MUST allow  multiple operators per owner.",
						"params": {
							"_approved": "True if the operator is approved, false to revoke approval",
							"_operator": "Address to add to the set of authorized operators"
						}
					},
					"tokensOfOwner(address)": {
						"details": "This method MUST NEVER be called by smart contract code. First, it's fairly  expensive ",
						"params": {
							"_owner": "The owner whose tokens we are interested in."
						}
					},
					"transferFrom(address,address,uint256)": {
						"details": "Throws unless `msg.sender` is the current owner, an authorized  operator, or the approved address for this NFT. Throws if `_from` is  not the current owner. Throws if `_to` is the zero address. Throws if  `_tokenId` is not a valid NFT.",
						"params": {
							"_from": "The current owner of the NFT",
							"_to": "The new owner",
							"_tokenId": "The NFT to transfer"
						}
					}
				},
				"version": 1
			},
			"evm": {
				"assembly": "    /* \"contracts/ERC721Contract.sol\":83:6796  contract ERC721Contract is tokenData, ERC721, ERC165 {... */\n  mstore(0x40, 0x80)\n  callvalue\n  dup1\n  iszero\n  tag_1\n  jumpi\n  0x00\n  dup1\n  revert\ntag_1:\n  pop\n  dataSize(sub_0)\n  dup1\n  dataOffset(sub_0)\n  0x00\n  codecopy\n  0x00\n  return\nstop\n\nsub_0: assembly {\n        /* \"contracts/ERC721Contract.sol\":83:6796  contract ERC721Contract is tokenData, ERC721, ERC165 {... */\n      mstore(0x40, 0x80)\n      jumpi(tag_1, lt(calldatasize, 0x04))\n      shr(0xe0, calldataload(0x00))\n      dup1\n      0x6352211e\n      gt\n      tag_19\n      jumpi\n      dup1\n      0x7fcb2989\n      gt\n      tag_20\n      jumpi\n      dup1\n      0x7fcb2989\n      eq\n      tag_14\n      jumpi\n      dup1\n      0x8462151c\n      eq\n      tag_15\n      jumpi\n      dup1\n      0xa22cb465\n      eq\n      tag_16\n      jumpi\n      dup1\n      0xb88d4fde\n      eq\n      tag_17\n      jumpi\n      dup1\n      0xe985e9c5\n      eq\n      tag_18\n      jumpi\n      jump(tag_1)\n    tag_20:\n      dup1\n      0x6352211e\n      eq\n      tag_10\n      jumpi\n      dup1\n      0x6ba367a3\n      eq\n      tag_11\n      jumpi\n      dup1\n      0x70a08231\n      eq\n      tag_12\n      jumpi\n      dup1\n      0x7360cbba\n      eq\n      tag_13\n      jumpi\n      jump(tag_1)\n    tag_19:\n      dup1\n      0x3d02d0c9\n      gt\n      tag_21\n      jumpi\n      dup1\n      0x3d02d0c9\n      eq\n      tag_6\n      jumpi\n      dup1\n      0x42842e0e\n      eq\n      tag_7\n      jumpi\n      dup1\n      0x42966c68\n      eq\n      tag_8\n      jumpi\n      dup1\n      0x4802693d\n      eq\n      tag_9\n      jumpi\n      jump(tag_1)\n    tag_21:\n      dup1\n      0x01ffc9a7\n      eq\n      tag_2\n      jumpi\n      dup1\n      0x081812fc\n      eq\n      tag_3\n      jumpi\n      dup1\n      0x095ea7b3\n      eq\n      tag_4\n      jumpi\n      dup1\n      0x23b872dd\n      eq\n      tag_5\n      jumpi\n    tag_1:\n      0x00\n      dup1\n      revert\n        /* \"contracts/ERC721Contract.sol\":4498:4660  function supportsInterface(bytes4 interfaceId) public view virtual override(ERC165) returns (bool) {... */\n    tag_2:\n      callvalue\n      dup1\n      iszero\n      tag_22\n      jumpi\n      0x00\n      dup1\n      revert\n    tag_22:\n      pop\n      tag_23\n      0x04\n      dup1\n      calldatasize\n      sub\n      dup2\n      add\n      swap1\n      tag_24\n      swap2\n      swap1\n      tag_25\n      jump\t// in\n    tag_24:\n      tag_26\n      jump\t// in\n    tag_23:\n      mload(0x40)\n      tag_27\n      swap2\n      swap1\n      tag_28\n      jump\t// in\n    tag_27:\n      mload(0x40)\n      dup1\n      swap2\n      sub\n      swap1\n      return\n        /* \"contracts/ERC721Contract.sol\":3487:3621  function getApproved(uint256 _tokenId) public view virtual override returns (address) {... */\n    tag_3:\n      callvalue\n      dup1\n      iszero\n      tag_29\n      jumpi\n      0x00\n      dup1\n      revert\n    tag_29:\n      pop\n      tag_30\n      0x04\n      dup1\n      calldatasize\n      sub\n      dup2\n      add\n      swap1\n      tag_31\n      swap2\n      swap1\n      tag_32\n      jump\t// in\n    tag_31:\n      tag_33\n      jump\t// in\n    tag_30:\n      mload(0x40)\n      tag_34\n      swap2\n      swap1\n      tag_35\n      jump\t// in\n    tag_34:\n      mload(0x40)\n      dup1\n      swap2\n      sub\n      swap1\n      return\n        /* \"contracts/ERC721Contract.sol\":3076:3481  function approve(address _approveTo, uint256 _tokenId) public virtual payable override {... */\n    tag_4:\n      tag_36\n      0x04\n      dup1\n      calldatasize\n      sub\n      dup2\n      add\n      swap1\n      tag_37\n      swap2\n      swap1\n      tag_38\n      jump\t// in\n    tag_37:\n      tag_39\n      jump\t// in\n    tag_36:\n      stop\n        /* \"contracts/ERC721Contract.sol\":985:1125  function transferFrom(address _from, address _to, uint _tokenId) public virtual payable override{... */\n    tag_5:\n      tag_40\n      0x04\n      dup1\n      calldatasize\n      sub\n      dup2\n      add\n      swap1\n      tag_41\n      swap2\n      swap1\n      tag_42\n      jump\t// in\n    tag_41:\n      tag_43\n      jump\t// in\n    tag_40:\n      stop\n        /* \"contracts/ERC721Contract.sol\":4669:5149  function mintToken(address to, string memory tokenURI) external returns (uint tokenId) {... */\n    tag_6:\n      callvalue\n      dup1\n      iszero\n      tag_44\n      jumpi\n      0x00\n      dup1\n      revert\n    tag_44:\n      pop\n      tag_45\n      0x04\n      dup1\n      calldatasize\n      sub\n      dup2\n      add\n      swap1\n      tag_46\n      swap2\n      swap1\n      tag_47\n      jump\t// in\n    tag_46:\n      tag_48\n      jump\t// in\n    tag_45:\n      mload(0x40)\n      tag_49\n      swap2\n      swap1\n      tag_50\n      jump\t// in\n    tag_49:\n      mload(0x40)\n      dup1\n      swap2\n      sub\n      swap1\n      return\n        /* \"contracts/ERC721Contract.sol\":522:685  function safeTransferFrom(address _from, address _to, uint256 _tokenId) public virtual payable override {... */\n    tag_7:\n      tag_51\n      0x04\n      dup1\n      calldatasize\n      sub\n      dup2\n      add\n      swap1\n      tag_52\n      swap2\n      swap1\n      tag_42\n      jump\t// in\n    tag_52:\n      tag_53\n      jump\t// in\n    tag_51:\n      stop\n        /* \"contracts/ERC721Contract.sol\":1999:2136  function burn(uint256 tokenId) public {... */\n    tag_8:\n      callvalue\n      dup1\n      iszero\n      tag_54\n      jumpi\n      0x00\n      dup1\n      revert\n    tag_54:\n      pop\n      tag_55\n      0x04\n      dup1\n      calldatasize\n      sub\n      dup2\n      add\n      swap1\n      tag_56\n      swap2\n      swap1\n      tag_32\n      jump\t// in\n    tag_56:\n      tag_57\n      jump\t// in\n    tag_55:\n      stop\n        /* \"contracts/ERC721Contract.sol\":5156:5492  function getURIs(address owner) public view returns(string memory){... */\n    tag_9:\n      callvalue\n      dup1\n      iszero\n      tag_58\n      jumpi\n      0x00\n      dup1\n      revert\n    tag_58:\n      pop\n      tag_59\n      0x04\n      dup1\n      calldatasize\n      sub\n      dup2\n      add\n      swap1\n      tag_60\n      swap2\n      swap1\n      tag_61\n      jump\t// in\n    tag_60:\n      tag_62\n      jump\t// in\n    tag_59:\n      mload(0x40)\n      tag_63\n      swap2\n      swap1\n      tag_64\n      jump\t// in\n    tag_63:\n      mload(0x40)\n      dup1\n      swap2\n      sub\n      swap1\n      return\n        /* \"contracts/ERC721Contract.sol\":279:516  function ownerOf(uint256 _tokenId) public view virtual override returns (address){... */\n    tag_10:\n      callvalue\n      dup1\n      iszero\n      tag_65\n      jumpi\n      0x00\n      dup1\n      revert\n    tag_65:\n      pop\n      tag_66\n      0x04\n      dup1\n      calldatasize\n      sub\n      dup2\n      add\n      swap1\n      tag_67\n      swap2\n      swap1\n      tag_32\n      jump\t// in\n    tag_67:\n      tag_68\n      jump\t// in\n    tag_66:\n      mload(0x40)\n      tag_69\n      swap2\n      swap1\n      tag_35\n      jump\t// in\n    tag_69:\n      mload(0x40)\n      dup1\n      swap2\n      sub\n      swap1\n      return\n        /* \"contracts/ERC721Contract.sol\":5622:5713  function getTokenID() public view returns (uint256){... */\n    tag_11:\n      callvalue\n      dup1\n      iszero\n      tag_70\n      jumpi\n      0x00\n      dup1\n      revert\n    tag_70:\n      pop\n      tag_71\n      tag_72\n      jump\t// in\n    tag_71:\n      mload(0x40)\n      tag_73\n      swap2\n      swap1\n      tag_50\n      jump\t// in\n    tag_73:\n      mload(0x40)\n      dup1\n      swap2\n      sub\n      swap1\n      return\n        /* \"contracts/ERC721Contract.sol\":148:273  function balanceOf(address _owner) public view virtual override returns (uint256){... */\n    tag_12:\n      callvalue\n      dup1\n      iszero\n      tag_74\n      jumpi\n      0x00\n      dup1\n      revert\n    tag_74:\n      pop\n      tag_75\n      0x04\n      dup1\n      calldatasize\n      sub\n      dup2\n      add\n      swap1\n      tag_76\n      swap2\n      swap1\n      tag_61\n      jump\t// in\n    tag_76:\n      tag_77\n      jump\t// in\n    tag_75:\n      mload(0x40)\n      tag_78\n      swap2\n      swap1\n      tag_50\n      jump\t// in\n    tag_78:\n      mload(0x40)\n      dup1\n      swap2\n      sub\n      swap1\n      return\n        /* \"contracts/ERC721Contract.sol\":1723:1993  function remove(uint index, string[] memory array )  public pure  {... */\n    tag_13:\n      callvalue\n      dup1\n      iszero\n      tag_79\n      jumpi\n      0x00\n      dup1\n      revert\n    tag_79:\n      pop\n      tag_80\n      0x04\n      dup1\n      calldatasize\n      sub\n      dup2\n      add\n      swap1\n      tag_81\n      swap2\n      swap1\n      tag_82\n      jump\t// in\n    tag_81:\n      tag_83\n      jump\t// in\n    tag_80:\n      stop\n        /* \"contracts/ERC721Contract.sol\":5498:5616  function getURIList(address owner) public view returns(string[] memory){... */\n    tag_14:\n      callvalue\n      dup1\n      iszero\n      tag_84\n      jumpi\n      0x00\n      dup1\n      revert\n    tag_84:\n      pop\n      tag_85\n      0x04\n      dup1\n      calldatasize\n      sub\n      dup2\n      add\n      swap1\n      tag_86\n      swap2\n      swap1\n      tag_61\n      jump\t// in\n    tag_86:\n      tag_87\n      jump\t// in\n    tag_85:\n      mload(0x40)\n      tag_88\n      swap2\n      swap1\n      tag_89\n      jump\t// in\n    tag_88:\n      mload(0x40)\n      dup1\n      swap2\n      sub\n      swap1\n      return\n        /* \"contracts/ERC721Contract.sol\":5967:6793  function tokensOfOwner(address _owner) external view returns(uint256[] memory ownerTokens) {... */\n    tag_15:\n      callvalue\n      dup1\n      iszero\n      tag_90\n      jumpi\n      0x00\n      dup1\n      revert\n    tag_90:\n      pop\n      tag_91\n      0x04\n      dup1\n      calldatasize\n      sub\n      dup2\n      add\n      swap1\n      tag_92\n      swap2\n      swap1\n      tag_61\n      jump\t// in\n    tag_92:\n      tag_93\n      jump\t// in\n    tag_91:\n      mload(0x40)\n      tag_94\n      swap2\n      swap1\n      tag_95\n      jump\t// in\n    tag_94:\n      mload(0x40)\n      dup1\n      swap2\n      sub\n      swap1\n      return\n        /* \"contracts/ERC721Contract.sol\":3627:3916  function setApprovalForAll(address _operator, bool _approved) public virtual override {... */\n    tag_16:\n      callvalue\n      dup1\n      iszero\n      tag_96\n      jumpi\n      0x00\n      dup1\n      revert\n    tag_96:\n      pop\n      tag_97\n      0x04\n      dup1\n      calldatasize\n      sub\n      dup2\n      add\n      swap1\n      tag_98\n      swap2\n      swap1\n      tag_99\n      jump\t// in\n    tag_98:\n      tag_100\n      jump\t// in\n    tag_97:\n      stop\n        /* \"contracts/ERC721Contract.sol\":691:979  function safeTransferFrom(address from, address to, uint256 tokenId, bytes memory _data) public virtual payable override {... */\n    tag_17:\n      tag_101\n      0x04\n      dup1\n      calldatasize\n      sub\n      dup2\n      add\n      swap1\n      tag_102\n      swap2\n      swap1\n      tag_103\n      jump\t// in\n    tag_102:\n      tag_104\n      jump\t// in\n    tag_101:\n      stop\n        /* \"contracts/ERC721Contract.sol\":3922:4086  function isApprovedForAll(address _owner, address _operator) public view virtual override returns (bool){... */\n    tag_18:\n      callvalue\n      dup1\n      iszero\n      tag_105\n      jumpi\n      0x00\n      dup1\n      revert\n    tag_105:\n      pop\n      tag_106\n      0x04\n      dup1\n      calldatasize\n      sub\n      dup2\n      add\n      swap1\n      tag_107\n      swap2\n      swap1\n      tag_108\n      jump\t// in\n    tag_107:\n      tag_109\n      jump\t// in\n    tag_106:\n      mload(0x40)\n      tag_110\n      swap2\n      swap1\n      tag_28\n      jump\t// in\n    tag_110:\n      mload(0x40)\n      dup1\n      swap2\n      sub\n      swap1\n      return\n        /* \"contracts/ERC721Contract.sol\":4498:4660  function supportsInterface(bytes4 interfaceId) public view virtual override(ERC165) returns (bool) {... */\n    tag_26:\n        /* \"contracts/ERC721Contract.sol\":4591:4595  bool */\n      0x00\n        /* \"contracts/ERC721Contract.sol\":4629:4653  type(ERC721).interfaceId */\n      0x80ac58cd00000000000000000000000000000000000000000000000000000000\n        /* \"contracts/ERC721Contract.sol\":4614:4653  interfaceId == type(ERC721).interfaceId */\n      not(0xffffffffffffffffffffffffffffffffffffffffffffffffffffffff)\n      and\n        /* \"contracts/ERC721Contract.sol\":4614:4625  interfaceId */\n      dup3\n        /* \"contracts/ERC721Contract.sol\":4614:4653  interfaceId == type(ERC721).interfaceId */\n      not(0xffffffffffffffffffffffffffffffffffffffffffffffffffffffff)\n      and\n      eq\n        /* \"contracts/ERC721Contract.sol\":4607:4653  return interfaceId == type(ERC721).interfaceId */\n      swap1\n      pop\n        /* \"contracts/ERC721Contract.sol\":4498:4660  function supportsInterface(bytes4 interfaceId) public view virtual override(ERC165) returns (bool) {... */\n      swap2\n      swap1\n      pop\n      jump\t// out\n        /* \"contracts/ERC721Contract.sol\":3487:3621  function getApproved(uint256 _tokenId) public view virtual override returns (address) {... */\n    tag_33:\n        /* \"contracts/ERC721Contract.sol\":3564:3571  address */\n      0x00\n        /* \"contracts/ERC721Contract.sol\":3590:3604  tokenApprovals */\n      0x05\n        /* \"contracts/ERC721Contract.sol\":3590:3614  tokenApprovals[_tokenId] */\n      0x00\n        /* \"contracts/ERC721Contract.sol\":3605:3613  _tokenId */\n      dup4\n        /* \"contracts/ERC721Contract.sol\":3590:3614  tokenApprovals[_tokenId] */\n      dup2\n      mstore\n      0x20\n      add\n      swap1\n      dup2\n      mstore\n      0x20\n      add\n      0x00\n      keccak256\n      0x00\n      swap1\n      sload\n      swap1\n      0x0100\n      exp\n      swap1\n      div\n      0xffffffffffffffffffffffffffffffffffffffff\n      and\n        /* \"contracts/ERC721Contract.sol\":3583:3614  return tokenApprovals[_tokenId] */\n      swap1\n      pop\n        /* \"contracts/ERC721Contract.sol\":3487:3621  function getApproved(uint256 _tokenId) public view virtual override returns (address) {... */\n      swap2\n      swap1\n      pop\n      jump\t// out\n        /* \"contracts/ERC721Contract.sol\":3076:3481  function approve(address _approveTo, uint256 _tokenId) public virtual payable override {... */\n    tag_39:\n        /* \"contracts/ERC721Contract.sol\":3195:3212  ownerOf(_tokenId) */\n      tag_114\n        /* \"contracts/ERC721Contract.sol\":3203:3211  _tokenId */\n      dup2\n        /* \"contracts/ERC721Contract.sol\":3195:3202  ownerOf */\n      tag_68\n        /* \"contracts/ERC721Contract.sol\":3195:3212  ownerOf(_tokenId) */\n      jump\t// in\n    tag_114:\n        /* \"contracts/ERC721Contract.sol\":3181:3212  _approveTo != ownerOf(_tokenId) */\n      0xffffffffffffffffffffffffffffffffffffffff\n      and\n        /* \"contracts/ERC721Contract.sol\":3181:3191  _approveTo */\n      dup3\n        /* \"contracts/ERC721Contract.sol\":3181:3212  _approveTo != ownerOf(_tokenId) */\n      0xffffffffffffffffffffffffffffffffffffffff\n      and\n      eq\n      iszero\n        /* \"contracts/ERC721Contract.sol\":3173:3251  require(_approveTo != ownerOf(_tokenId) , \"ERC721: approval to current owner\") */\n      tag_115\n      jumpi\n      mload(0x40)\n      0x08c379a000000000000000000000000000000000000000000000000000000000\n      dup2\n      mstore\n      0x04\n      add\n      tag_116\n      swap1\n      tag_117\n      jump\t// in\n    tag_116:\n      mload(0x40)\n      dup1\n      swap2\n      sub\n      swap1\n      revert\n    tag_115:\n        /* \"contracts/ERC721Contract.sol\":3284:3301  ownerOf(_tokenId) */\n      tag_118\n        /* \"contracts/ERC721Contract.sol\":3292:3300  _tokenId */\n      dup2\n        /* \"contracts/ERC721Contract.sol\":3284:3291  ownerOf */\n      tag_68\n        /* \"contracts/ERC721Contract.sol\":3284:3301  ownerOf(_tokenId) */\n      jump\t// in\n    tag_118:\n        /* \"contracts/ERC721Contract.sol\":3270:3301  msg.sender == ownerOf(_tokenId) */\n      0xffffffffffffffffffffffffffffffffffffffff\n      and\n        /* \"contracts/ERC721Contract.sol\":3270:3280  msg.sender */\n      caller\n        /* \"contracts/ERC721Contract.sol\":3270:3301  msg.sender == ownerOf(_tokenId) */\n      0xffffffffffffffffffffffffffffffffffffffff\n      and\n      eq\n        /* \"contracts/ERC721Contract.sol\":3270:3352  msg.sender == ownerOf(_tokenId) || isApprovedForAll(ownerOf(_tokenId), msg.sender) */\n      dup1\n      tag_119\n      jumpi\n      pop\n        /* \"contracts/ERC721Contract.sol\":3305:3352  isApprovedForAll(ownerOf(_tokenId), msg.sender) */\n      tag_120\n        /* \"contracts/ERC721Contract.sol\":3322:3339  ownerOf(_tokenId) */\n      tag_121\n        /* \"contracts/ERC721Contract.sol\":3330:3338  _tokenId */\n      dup3\n        /* \"contracts/ERC721Contract.sol\":3322:3329  ownerOf */\n      tag_68\n        /* \"contracts/ERC721Contract.sol\":3322:3339  ownerOf(_tokenId) */\n      jump\t// in\n    tag_121:\n        /* \"contracts/ERC721Contract.sol\":3341:3351  msg.sender */\n      caller\n        /* \"contracts/ERC721Contract.sol\":3305:3321  isApprovedForAll */\n      tag_109\n        /* \"contracts/ERC721Contract.sol\":3305:3352  isApprovedForAll(ownerOf(_tokenId), msg.sender) */\n      jump\t// in\n    tag_120:\n        /* \"contracts/ERC721Contract.sol\":3270:3352  msg.sender == ownerOf(_tokenId) || isApprovedForAll(ownerOf(_tokenId), msg.sender) */\n    tag_119:\n        /* \"contracts/ERC721Contract.sol\":3262:3434  require(msg.sender == ownerOf(_tokenId) || isApprovedForAll(ownerOf(_tokenId), msg.sender),... */\n      tag_122\n      jumpi\n      mload(0x40)\n      0x08c379a000000000000000000000000000000000000000000000000000000000\n      dup2\n      mstore\n      0x04\n      add\n      tag_123\n      swap1\n      tag_124\n      jump\t// in\n    tag_123:\n      mload(0x40)\n      dup1\n      swap2\n      sub\n      swap1\n      revert\n    tag_122:\n        /* \"contracts/ERC721Contract.sol\":3444:3474  _approve(_approveTo, _tokenId) */\n      tag_125\n        /* \"contracts/ERC721Contract.sol\":3453:3463  _approveTo */\n      dup3\n        /* \"contracts/ERC721Contract.sol\":3465:3473  _tokenId */\n      dup3\n        /* \"contracts/ERC721Contract.sol\":3444:3452  _approve */\n      tag_126\n        /* \"contracts/ERC721Contract.sol\":3444:3474  _approve(_approveTo, _tokenId) */\n      jump\t// in\n    tag_125:\n        /* \"contracts/ERC721Contract.sol\":3076:3481  function approve(address _approveTo, uint256 _tokenId) public virtual payable override {... */\n      pop\n      pop\n      jump\t// out\n        /* \"contracts/ERC721Contract.sol\":985:1125  function transferFrom(address _from, address _to, uint _tokenId) public virtual payable override{... */\n    tag_43:\n        /* \"contracts/ERC721Contract.sol\":1085:1121  safeTransferFrom(_from,_to,_tokenId) */\n      tag_128\n        /* \"contracts/ERC721Contract.sol\":1102:1107  _from */\n      dup4\n        /* \"contracts/ERC721Contract.sol\":1108:1111  _to */\n      dup4\n        /* \"contracts/ERC721Contract.sol\":1112:1120  _tokenId */\n      dup4\n        /* \"contracts/ERC721Contract.sol\":1085:1101  safeTransferFrom */\n      tag_53\n        /* \"contracts/ERC721Contract.sol\":1085:1121  safeTransferFrom(_from,_to,_tokenId) */\n      jump\t// in\n    tag_128:\n        /* \"contracts/ERC721Contract.sol\":985:1125  function transferFrom(address _from, address _to, uint _tokenId) public virtual payable override{... */\n      pop\n      pop\n      pop\n      jump\t// out\n        /* \"contracts/ERC721Contract.sol\":4669:5149  function mintToken(address to, string memory tokenURI) external returns (uint tokenId) {... */\n    tag_48:\n        /* \"contracts/ERC721Contract.sol\":4742:4754  uint tokenId */\n      0x00\n        /* \"contracts/ERC721Contract.sol\":4760:4778  Token memory token */\n      dup1\n        /* \"contracts/ERC721Contract.sol\":4781:4858  Token({... */\n      mload(0x40)\n      dup1\n      0x40\n      add\n      0x40\n      mstore\n      dup1\n        /* \"contracts/ERC721Contract.sol\":4802:4812  msg.sender */\n      caller\n        /* \"contracts/ERC721Contract.sol\":4781:4858  Token({... */\n      0xffffffffffffffffffffffffffffffffffffffff\n      and\n      dup2\n      mstore\n      0x20\n      add\n        /* \"contracts/ERC721Contract.sol\":4834:4849  block.timestamp */\n      timestamp\n        /* \"contracts/ERC721Contract.sol\":4781:4858  Token({... */\n      0xffffffffffffffff\n      and\n      dup2\n      mstore\n      pop\n        /* \"contracts/ERC721Contract.sol\":4760:4858  Token memory token = Token({... */\n      swap1\n      pop\n        /* \"contracts/ERC721Contract.sol\":4890:4891  0 */\n      0x00\n        /* \"contracts/ERC721Contract.sol\":4876:4892  to != address(0) */\n      0xffffffffffffffffffffffffffffffffffffffff\n      and\n        /* \"contracts/ERC721Contract.sol\":4876:4878  to */\n      dup5\n        /* \"contracts/ERC721Contract.sol\":4876:4892  to != address(0) */\n      0xffffffffffffffffffffffffffffffffffffffff\n      and\n      eq\n      iszero\n        /* \"contracts/ERC721Contract.sol\":4868:4893  require(to != address(0)) */\n      tag_130\n      jumpi\n      0x00\n      dup1\n      revert\n    tag_130:\n        /* \"contracts/ERC721Contract.sol\":4897:4906  tokenList */\n      0x00\n        /* \"contracts/ERC721Contract.sol\":4912:4917  token */\n      dup2\n        /* \"contracts/ERC721Contract.sol\":4897:4918  tokenList.push(token) */\n      swap1\n      dup1\n      0x01\n      dup2\n      sload\n      add\n      dup1\n      dup3\n      sstore\n      dup1\n      swap2\n      pop\n      pop\n      0x01\n      swap1\n      sub\n      swap1\n      0x00\n      mstore\n      keccak256(0x00, 0x20)\n      add\n      0x00\n      swap1\n      swap2\n      swap1\n      swap2\n      swap1\n      swap2\n      pop\n      0x00\n      dup3\n      add\n      mload\n      dup2\n      0x00\n      add\n      exp(0x0100, 0x00)\n      dup2\n      sload\n      dup2\n      0xffffffffffffffffffffffffffffffffffffffff\n      mul\n      not\n      and\n      swap1\n      dup4\n      0xffffffffffffffffffffffffffffffffffffffff\n      and\n      mul\n      or\n      swap1\n      sstore\n      pop\n      0x20\n      dup3\n      add\n      mload\n      dup2\n      0x00\n      add\n      exp(0x0100, 0x14)\n      dup2\n      sload\n      dup2\n      0xffffffffffffffff\n      mul\n      not\n      and\n      swap1\n      dup4\n      0xffffffffffffffff\n      and\n      mul\n      or\n      swap1\n      sstore\n      pop\n      pop\n      pop\n        /* \"contracts/ERC721Contract.sol\":4932:4941  tokenList */\n      0x00\n        /* \"contracts/ERC721Contract.sol\":4932:4948  tokenList.length */\n      dup1\n      sload\n      swap1\n      pop\n        /* \"contracts/ERC721Contract.sol\":4922:4948  tokenId = tokenList.length */\n      swap2\n      pop\n        /* \"contracts/ERC721Contract.sol\":4977:4985  tokenURI */\n      dup3\n        /* \"contracts/ERC721Contract.sol\":4958:4967  tokenURIs */\n      0x02\n        /* \"contracts/ERC721Contract.sol\":4958:4976  tokenURIs[tokenId] */\n      0x00\n        /* \"contracts/ERC721Contract.sol\":4968:4975  tokenId */\n      dup5\n        /* \"contracts/ERC721Contract.sol\":4958:4976  tokenURIs[tokenId] */\n      dup2\n      mstore\n      0x20\n      add\n      swap1\n      dup2\n      mstore\n      0x20\n      add\n      0x00\n      keccak256\n        /* \"contracts/ERC721Contract.sol\":4958:4985  tokenURIs[tokenId]=tokenURI */\n      swap1\n      dup1\n      mload\n      swap1\n      0x20\n      add\n      swap1\n      tag_132\n      swap3\n      swap2\n      swap1\n      tag_133\n      jump\t// in\n    tag_132:\n      pop\n        /* \"contracts/ERC721Contract.sol\":4995:5010  tokenCollection */\n      0x01\n        /* \"contracts/ERC721Contract.sol\":4995:5014  tokenCollection[to] */\n      0x00\n        /* \"contracts/ERC721Contract.sol\":5011:5013  to */\n      dup6\n        /* \"contracts/ERC721Contract.sol\":4995:5014  tokenCollection[to] */\n      0xffffffffffffffffffffffffffffffffffffffff\n      and\n      0xffffffffffffffffffffffffffffffffffffffff\n      and\n      dup2\n      mstore\n      0x20\n      add\n      swap1\n      dup2\n      mstore\n      0x20\n      add\n      0x00\n      keccak256\n        /* \"contracts/ERC721Contract.sol\":5020:5028  tokenURI */\n      dup4\n        /* \"contracts/ERC721Contract.sol\":4995:5029  tokenCollection[to].push(tokenURI) */\n      swap1\n      dup1\n      0x01\n      dup2\n      sload\n      add\n      dup1\n      dup3\n      sstore\n      dup1\n      swap2\n      pop\n      pop\n      0x01\n      swap1\n      sub\n      swap1\n      0x00\n      mstore\n      keccak256(0x00, 0x20)\n      add\n      0x00\n      swap1\n      swap2\n      swap1\n      swap2\n      swap1\n      swap2\n      pop\n      swap1\n      dup1\n      mload\n      swap1\n      0x20\n      add\n      swap1\n      tag_135\n      swap3\n      swap2\n      swap1\n      tag_133\n      jump\t// in\n    tag_135:\n      pop\n        /* \"contracts/ERC721Contract.sol\":5059:5060  1 */\n      0x01\n        /* \"contracts/ERC721Contract.sol\":5039:5051  tokenBalance */\n      0x04\n        /* \"contracts/ERC721Contract.sol\":5039:5055  tokenBalance[to] */\n      0x00\n        /* \"contracts/ERC721Contract.sol\":5052:5054  to */\n      dup7\n        /* \"contracts/ERC721Contract.sol\":5039:5055  tokenBalance[to] */\n      0xffffffffffffffffffffffffffffffffffffffff\n      and\n      0xffffffffffffffffffffffffffffffffffffffff\n      and\n      dup2\n      mstore\n      0x20\n      add\n      swap1\n      dup2\n      mstore\n      0x20\n      add\n      0x00\n      keccak256\n      0x00\n        /* \"contracts/ERC721Contract.sol\":5039:5060  tokenBalance[to] += 1 */\n      dup3\n      dup3\n      dup3\n      swap1\n      sload\n      swap1\n      0x0100\n      exp\n      swap1\n      div\n      0xffffffffffffffff\n      and\n      tag_136\n      swap2\n      swap1\n      tag_137\n      jump\t// in\n    tag_136:\n      swap3\n      pop\n      0x0100\n      exp\n      dup2\n      sload\n      dup2\n      0xffffffffffffffff\n      mul\n      not\n      and\n      swap1\n      dup4\n      0xffffffffffffffff\n      and\n      mul\n      or\n      swap1\n      sstore\n      pop\n        /* \"contracts/ERC721Contract.sol\":5092:5094  to */\n      dup4\n        /* \"contracts/ERC721Contract.sol\":5070:5080  tokenOwner */\n      0x03\n        /* \"contracts/ERC721Contract.sol\":5070:5089  tokenOwner[tokenId] */\n      0x00\n        /* \"contracts/ERC721Contract.sol\":5081:5088  tokenId */\n      dup5\n        /* \"contracts/ERC721Contract.sol\":5070:5089  tokenOwner[tokenId] */\n      dup2\n      mstore\n      0x20\n      add\n      swap1\n      dup2\n      mstore\n      0x20\n      add\n      0x00\n      keccak256\n      0x00\n        /* \"contracts/ERC721Contract.sol\":5070:5094  tokenOwner[tokenId] = to */\n      0x0100\n      exp\n      dup2\n      sload\n      dup2\n      0xffffffffffffffffffffffffffffffffffffffff\n      mul\n      not\n      and\n      swap1\n      dup4\n      0xffffffffffffffffffffffffffffffffffffffff\n      and\n      mul\n      or\n      swap1\n      sstore\n      pop\n        /* \"contracts/ERC721Contract.sol\":5134:5141  tokenId */\n      dup2\n        /* \"contracts/ERC721Contract.sol\":5130:5132  to */\n      dup5\n        /* \"contracts/ERC721Contract.sol\":5109:5142  Transfer(address(0), to, tokenId) */\n      0xffffffffffffffffffffffffffffffffffffffff\n      and\n        /* \"contracts/ERC721Contract.sol\":5126:5127  0 */\n      0x00\n        /* \"contracts/ERC721Contract.sol\":5109:5142  Transfer(address(0), to, tokenId) */\n      0xffffffffffffffffffffffffffffffffffffffff\n      and\n      0xddf252ad1be2c89b69c2b068fc378daa952ba7f163c4a11628f55a4df523b3ef\n      mload(0x40)\n      mload(0x40)\n      dup1\n      swap2\n      sub\n      swap1\n      log4\n        /* \"contracts/ERC721Contract.sol\":4756:5149  {... */\n      pop\n        /* \"contracts/ERC721Contract.sol\":4669:5149  function mintToken(address to, string memory tokenURI) external returns (uint tokenId) {... */\n      swap3\n      swap2\n      pop\n      pop\n      jump\t// out\n        /* \"contracts/ERC721Contract.sol\":522:685  function safeTransferFrom(address _from, address _to, uint256 _tokenId) public virtual payable override {... */\n    tag_53:\n        /* \"contracts/ERC721Contract.sol\":636:678  safeTransferFrom(_from, _to, _tokenId, \"\") */\n      tag_139\n        /* \"contracts/ERC721Contract.sol\":653:658  _from */\n      dup4\n        /* \"contracts/ERC721Contract.sol\":660:663  _to */\n      dup4\n        /* \"contracts/ERC721Contract.sol\":665:673  _tokenId */\n      dup4\n        /* \"contracts/ERC721Contract.sol\":636:678  safeTransferFrom(_from, _to, _tokenId, \"\") */\n      mload(0x40)\n      dup1\n      0x20\n      add\n      0x40\n      mstore\n      dup1\n      0x00\n      dup2\n      mstore\n      pop\n        /* \"contracts/ERC721Contract.sol\":636:652  safeTransferFrom */\n      tag_104\n        /* \"contracts/ERC721Contract.sol\":636:678  safeTransferFrom(_from, _to, _tokenId, \"\") */\n      jump\t// in\n    tag_139:\n        /* \"contracts/ERC721Contract.sol\":522:685  function safeTransferFrom(address _from, address _to, uint256 _tokenId) public virtual payable override {... */\n      pop\n      pop\n      pop\n      jump\t// out\n        /* \"contracts/ERC721Contract.sol\":1999:2136  function burn(uint256 tokenId) public {... */\n    tag_57:\n        /* \"contracts/ERC721Contract.sol\":2051:2090  _isApprovedOrOwner(msg.sender, tokenId) */\n      tag_141\n        /* \"contracts/ERC721Contract.sol\":2070:2080  msg.sender */\n      caller\n        /* \"contracts/ERC721Contract.sol\":2082:2089  tokenId */\n      dup3\n        /* \"contracts/ERC721Contract.sol\":2051:2069  _isApprovedOrOwner */\n      tag_142\n        /* \"contracts/ERC721Contract.sol\":2051:2090  _isApprovedOrOwner(msg.sender, tokenId) */\n      jump\t// in\n    tag_141:\n        /* \"contracts/ERC721Contract.sol\":2043:2091  require(_isApprovedOrOwner(msg.sender, tokenId)) */\n      tag_143\n      jumpi\n      0x00\n      dup1\n      revert\n    tag_143:\n        /* \"contracts/ERC721Contract.sol\":2097:2129  _burn(ownerOf(tokenId), tokenId) */\n      tag_144\n        /* \"contracts/ERC721Contract.sol\":2103:2119  ownerOf(tokenId) */\n      tag_145\n        /* \"contracts/ERC721Contract.sol\":2111:2118  tokenId */\n      dup3\n        /* \"contracts/ERC721Contract.sol\":2103:2110  ownerOf */\n      tag_68\n        /* \"contracts/ERC721Contract.sol\":2103:2119  ownerOf(tokenId) */\n      jump\t// in\n    tag_145:\n        /* \"contracts/ERC721Contract.sol\":2121:2128  tokenId */\n      dup3\n        /* \"contracts/ERC721Contract.sol\":2097:2102  _burn */\n      tag_146\n        /* \"contracts/ERC721Contract.sol\":2097:2129  _burn(ownerOf(tokenId), tokenId) */\n      jump\t// in\n    tag_144:\n        /* \"contracts/ERC721Contract.sol\":1999:2136  function burn(uint256 tokenId) public {... */\n      pop\n      jump\t// out\n        /* \"contracts/ERC721Contract.sol\":5156:5492  function getURIs(address owner) public view returns(string memory){... */\n    tag_62:\n        /* \"contracts/ERC721Contract.sol\":5208:5221  string memory */\n      0x60\n        /* \"contracts/ERC721Contract.sol\":5232:5249  string memory uri */\n      0x00\n        /* \"contracts/ERC721Contract.sol\":5232:5252  string memory uri=\"\" */\n      mload(0x40)\n      dup1\n      0x20\n      add\n      0x40\n      mstore\n      dup1\n      0x00\n      dup2\n      mstore\n      pop\n      swap1\n      pop\n        /* \"contracts/ERC721Contract.sol\":5267:5273  uint i */\n      0x00\n        /* \"contracts/ERC721Contract.sol\":5276:5277  1 */\n      0x01\n        /* \"contracts/ERC721Contract.sol\":5267:5277  uint i = 1 */\n      swap1\n      pop\n        /* \"contracts/ERC721Contract.sol\":5262:5462  for (uint i = 1; i <= tokenList.length; i++) {... */\n    tag_148:\n        /* \"contracts/ERC721Contract.sol\":5284:5293  tokenList */\n      0x00\n        /* \"contracts/ERC721Contract.sol\":5284:5300  tokenList.length */\n      dup1\n      sload\n      swap1\n      pop\n        /* \"contracts/ERC721Contract.sol\":5279:5280  i */\n      dup2\n        /* \"contracts/ERC721Contract.sol\":5279:5300  i <= tokenList.length */\n      gt\n        /* \"contracts/ERC721Contract.sol\":5262:5462  for (uint i = 1; i <= tokenList.length; i++) {... */\n      tag_149\n      jumpi\n        /* \"contracts/ERC721Contract.sol\":5340:5345  owner */\n      dup4\n        /* \"contracts/ERC721Contract.sol\":5325:5345  tokenOwner[i]==owner */\n      0xffffffffffffffffffffffffffffffffffffffff\n      and\n        /* \"contracts/ERC721Contract.sol\":5325:5335  tokenOwner */\n      0x03\n        /* \"contracts/ERC721Contract.sol\":5325:5338  tokenOwner[i] */\n      0x00\n        /* \"contracts/ERC721Contract.sol\":5336:5337  i */\n      dup4\n        /* \"contracts/ERC721Contract.sol\":5325:5338  tokenOwner[i] */\n      dup2\n      mstore\n      0x20\n      add\n      swap1\n      dup2\n      mstore\n      0x20\n      add\n      0x00\n      keccak256\n      0x00\n      swap1\n      sload\n      swap1\n      0x0100\n      exp\n      swap1\n      div\n      0xffffffffffffffffffffffffffffffffffffffff\n      and\n        /* \"contracts/ERC721Contract.sol\":5325:5345  tokenOwner[i]==owner */\n      0xffffffffffffffffffffffffffffffffffffffff\n      and\n      eq\n        /* \"contracts/ERC721Contract.sol\":5321:5452  if (tokenOwner[i]==owner) {... */\n      iszero\n      tag_151\n      jumpi\n        /* \"contracts/ERC721Contract.sol\":5393:5396  uri */\n      dup2\n        /* \"contracts/ERC721Contract.sol\":5397:5406  tokenURIs */\n      0x02\n        /* \"contracts/ERC721Contract.sol\":5397:5409  tokenURIs[i] */\n      0x00\n        /* \"contracts/ERC721Contract.sol\":5407:5408  i */\n      dup4\n        /* \"contracts/ERC721Contract.sol\":5397:5409  tokenURIs[i] */\n      dup2\n      mstore\n      0x20\n      add\n      swap1\n      dup2\n      mstore\n      0x20\n      add\n      0x00\n      keccak256\n        /* \"contracts/ERC721Contract.sol\":5376:5410  abi.encodePacked(uri,tokenURIs[i]) */\n      add(0x20, mload(0x40))\n      tag_152\n      swap3\n      swap2\n      swap1\n      tag_153\n      jump\t// in\n    tag_152:\n      mload(0x40)\n      0x20\n      dup2\n      dup4\n      sub\n      sub\n      dup2\n      mstore\n      swap1\n      0x40\n      mstore\n        /* \"contracts/ERC721Contract.sol\":5365:5411  uri=string(abi.encodePacked(uri,tokenURIs[i])) */\n      swap2\n      pop\n        /* \"contracts/ERC721Contract.sol\":5429:5437  continue */\n      jump(tag_150)\n        /* \"contracts/ERC721Contract.sol\":5321:5452  if (tokenOwner[i]==owner) {... */\n    tag_151:\n        /* \"contracts/ERC721Contract.sol\":5262:5462  for (uint i = 1; i <= tokenList.length; i++) {... */\n    tag_150:\n        /* \"contracts/ERC721Contract.sol\":5302:5305  i++ */\n      dup1\n      dup1\n      tag_154\n      swap1\n      tag_155\n      jump\t// in\n    tag_154:\n      swap2\n      pop\n      pop\n        /* \"contracts/ERC721Contract.sol\":5262:5462  for (uint i = 1; i <= tokenList.length; i++) {... */\n      jump(tag_148)\n    tag_149:\n      pop\n        /* \"contracts/ERC721Contract.sol\":5482:5485  uri */\n      dup1\n        /* \"contracts/ERC721Contract.sol\":5475:5485  return uri */\n      swap2\n      pop\n      pop\n        /* \"contracts/ERC721Contract.sol\":5156:5492  function getURIs(address owner) public view returns(string memory){... */\n      swap2\n      swap1\n      pop\n      jump\t// out\n        /* \"contracts/ERC721Contract.sol\":279:516  function ownerOf(uint256 _tokenId) public view virtual override returns (address){... */\n    tag_68:\n        /* \"contracts/ERC721Contract.sol\":352:359  address */\n      0x00\n        /* \"contracts/ERC721Contract.sol\":370:383  address owner */\n      dup1\n        /* \"contracts/ERC721Contract.sol\":386:396  tokenOwner */\n      0x03\n        /* \"contracts/ERC721Contract.sol\":386:406  tokenOwner[_tokenId] */\n      0x00\n        /* \"contracts/ERC721Contract.sol\":397:405  _tokenId */\n      dup5\n        /* \"contracts/ERC721Contract.sol\":386:406  tokenOwner[_tokenId] */\n      dup2\n      mstore\n      0x20\n      add\n      swap1\n      dup2\n      mstore\n      0x20\n      add\n      0x00\n      keccak256\n      0x00\n      swap1\n      sload\n      swap1\n      0x0100\n      exp\n      swap1\n      div\n      0xffffffffffffffffffffffffffffffffffffffff\n      and\n        /* \"contracts/ERC721Contract.sol\":370:406  address owner = tokenOwner[_tokenId] */\n      swap1\n      pop\n        /* \"contracts/ERC721Contract.sol\":441:442  0 */\n      0x00\n        /* \"contracts/ERC721Contract.sol\":424:443  owner != address(0) */\n      0xffffffffffffffffffffffffffffffffffffffff\n      and\n        /* \"contracts/ERC721Contract.sol\":424:429  owner */\n      dup2\n        /* \"contracts/ERC721Contract.sol\":424:443  owner != address(0) */\n      0xffffffffffffffffffffffffffffffffffffffff\n      and\n      eq\n      iszero\n        /* \"contracts/ERC721Contract.sol\":416:472  require(owner != address(0), \"ERC721: adress 0 invalid\") */\n      tag_157\n      jumpi\n      mload(0x40)\n      0x08c379a000000000000000000000000000000000000000000000000000000000\n      dup2\n      mstore\n      0x04\n      add\n      tag_158\n      swap1\n      tag_159\n      jump\t// in\n    tag_158:\n      mload(0x40)\n      dup1\n      swap2\n      sub\n      swap1\n      revert\n    tag_157:\n        /* \"contracts/ERC721Contract.sol\":489:499  tokenOwner */\n      0x03\n        /* \"contracts/ERC721Contract.sol\":489:509  tokenOwner[_tokenId] */\n      0x00\n        /* \"contracts/ERC721Contract.sol\":500:508  _tokenId */\n      dup5\n        /* \"contracts/ERC721Contract.sol\":489:509  tokenOwner[_tokenId] */\n      dup2\n      mstore\n      0x20\n      add\n      swap1\n      dup2\n      mstore\n      0x20\n      add\n      0x00\n      keccak256\n      0x00\n      swap1\n      sload\n      swap1\n      0x0100\n      exp\n      swap1\n      div\n      0xffffffffffffffffffffffffffffffffffffffff\n      and\n        /* \"contracts/ERC721Contract.sol\":482:509  return tokenOwner[_tokenId] */\n      swap2\n      pop\n      pop\n        /* \"contracts/ERC721Contract.sol\":279:516  function ownerOf(uint256 _tokenId) public view virtual override returns (address){... */\n      swap2\n      swap1\n      pop\n      jump\t// out\n        /* \"contracts/ERC721Contract.sol\":5622:5713  function getTokenID() public view returns (uint256){... */\n    tag_72:\n        /* \"contracts/ERC721Contract.sol\":5665:5672  uint256 */\n      0x00\n        /* \"contracts/ERC721Contract.sol\":5690:5699  tokenList */\n      dup1\n        /* \"contracts/ERC721Contract.sol\":5690:5706  tokenList.length */\n      dup1\n      sload\n      swap1\n      pop\n        /* \"contracts/ERC721Contract.sol\":5683:5706  return tokenList.length */\n      swap1\n      pop\n        /* \"contracts/ERC721Contract.sol\":5622:5713  function getTokenID() public view returns (uint256){... */\n      swap1\n      jump\t// out\n        /* \"contracts/ERC721Contract.sol\":148:273  function balanceOf(address _owner) public view virtual override returns (uint256){... */\n    tag_77:\n        /* \"contracts/ERC721Contract.sol\":221:228  uint256 */\n      0x00\n        /* \"contracts/ERC721Contract.sol\":246:258  tokenBalance */\n      0x04\n        /* \"contracts/ERC721Contract.sol\":246:266  tokenBalance[_owner] */\n      0x00\n        /* \"contracts/ERC721Contract.sol\":259:265  _owner */\n      dup4\n        /* \"contracts/ERC721Contract.sol\":246:266  tokenBalance[_owner] */\n      0xffffffffffffffffffffffffffffffffffffffff\n      and\n      0xffffffffffffffffffffffffffffffffffffffff\n      and\n      dup2\n      mstore\n      0x20\n      add\n      swap1\n      dup2\n      mstore\n      0x20\n      add\n      0x00\n      keccak256\n      0x00\n      swap1\n      sload\n      swap1\n      0x0100\n      exp\n      swap1\n      div\n      0xffffffffffffffff\n      and\n        /* \"contracts/ERC721Contract.sol\":239:266  return tokenBalance[_owner] */\n      0xffffffffffffffff\n      and\n      swap1\n      pop\n        /* \"contracts/ERC721Contract.sol\":148:273  function balanceOf(address _owner) public view virtual override returns (uint256){... */\n      swap2\n      swap1\n      pop\n      jump\t// out\n        /* \"contracts/ERC721Contract.sol\":1723:1993  function remove(uint index, string[] memory array )  public pure  {... */\n    tag_83:\n        /* \"contracts/ERC721Contract.sol\":1813:1818  array */\n      dup1\n        /* \"contracts/ERC721Contract.sol\":1813:1825  array.length */\n      mload\n        /* \"contracts/ERC721Contract.sol\":1807:1812  index */\n      dup3\n        /* \"contracts/ERC721Contract.sol\":1807:1825  index<array.length */\n      lt\n        /* \"contracts/ERC721Contract.sol\":1799:1849  require(index<array.length, \"Index out of bounds\") */\n      tag_163\n      jumpi\n      mload(0x40)\n      0x08c379a000000000000000000000000000000000000000000000000000000000\n      dup2\n      mstore\n      0x04\n      add\n      tag_164\n      swap1\n      tag_165\n      jump\t// in\n    tag_164:\n      mload(0x40)\n      dup1\n      swap2\n      sub\n      swap1\n      revert\n    tag_163:\n        /* \"contracts/ERC721Contract.sol\":1865:1871  uint i */\n      0x00\n        /* \"contracts/ERC721Contract.sol\":1874:1879  index */\n      dup3\n        /* \"contracts/ERC721Contract.sol\":1865:1879  uint i = index */\n      swap1\n      pop\n        /* \"contracts/ERC721Contract.sol\":1860:1949  for (uint i = index; i<array.length-1; i++){... */\n    tag_166:\n        /* \"contracts/ERC721Contract.sol\":1896:1897  1 */\n      0x01\n        /* \"contracts/ERC721Contract.sol\":1883:1888  array */\n      dup3\n        /* \"contracts/ERC721Contract.sol\":1883:1895  array.length */\n      mload\n        /* \"contracts/ERC721Contract.sol\":1883:1897  array.length-1 */\n      tag_169\n      swap2\n      swap1\n      tag_170\n      jump\t// in\n    tag_169:\n        /* \"contracts/ERC721Contract.sol\":1881:1882  i */\n      dup2\n        /* \"contracts/ERC721Contract.sol\":1881:1897  i<array.length-1 */\n      lt\n        /* \"contracts/ERC721Contract.sol\":1860:1949  for (uint i = index; i<array.length-1; i++){... */\n      iszero\n      tag_167\n      jumpi\n        /* \"contracts/ERC721Contract.sol\":1928:1933  array */\n      dup2\n        /* \"contracts/ERC721Contract.sol\":1936:1937  1 */\n      0x01\n        /* \"contracts/ERC721Contract.sol\":1934:1935  i */\n      dup3\n        /* \"contracts/ERC721Contract.sol\":1934:1937  i+1 */\n      tag_171\n      swap2\n      swap1\n      tag_172\n      jump\t// in\n    tag_171:\n        /* \"contracts/ERC721Contract.sol\":1928:1938  array[i+1] */\n      dup2\n      mload\n      dup2\n      lt\n      tag_173\n      jumpi\n      tag_174\n      tag_175\n      jump\t// in\n    tag_174:\n    tag_173:\n      0x20\n      mul\n      0x20\n      add\n      add\n      mload\n        /* \"contracts/ERC721Contract.sol\":1917:1922  array */\n      dup3\n        /* \"contracts/ERC721Contract.sol\":1923:1924  i */\n      dup3\n        /* \"contracts/ERC721Contract.sol\":1917:1925  array[i] */\n      dup2\n      mload\n      dup2\n      lt\n      tag_176\n      jumpi\n      tag_177\n      tag_175\n      jump\t// in\n    tag_177:\n    tag_176:\n      0x20\n      mul\n      0x20\n      add\n      add\n        /* \"contracts/ERC721Contract.sol\":1917:1938  array[i] = array[i+1] */\n      dup2\n      swap1\n      mstore\n      pop\n        /* \"contracts/ERC721Contract.sol\":1899:1902  i++ */\n      dup1\n      dup1\n      tag_178\n      swap1\n      tag_155\n      jump\t// in\n    tag_178:\n      swap2\n      pop\n      pop\n        /* \"contracts/ERC721Contract.sol\":1860:1949  for (uint i = index; i<array.length-1; i++){... */\n      jump(tag_166)\n    tag_167:\n      pop\n        /* \"contracts/ERC721Contract.sol\":1965:1970  array */\n      dup1\n        /* \"contracts/ERC721Contract.sol\":1984:1985  1 */\n      0x01\n        /* \"contracts/ERC721Contract.sol\":1971:1976  array */\n      dup3\n        /* \"contracts/ERC721Contract.sol\":1971:1983  array.length */\n      mload\n        /* \"contracts/ERC721Contract.sol\":1971:1985  array.length-1 */\n      tag_179\n      swap2\n      swap1\n      tag_170\n      jump\t// in\n    tag_179:\n        /* \"contracts/ERC721Contract.sol\":1965:1986  array[array.length-1] */\n      dup2\n      mload\n      dup2\n      lt\n      tag_180\n      jumpi\n      tag_181\n      tag_175\n      jump\t// in\n    tag_181:\n    tag_180:\n      0x20\n      mul\n      0x20\n      add\n      add\n        /* \"contracts/ERC721Contract.sol\":1958:1986  delete array[array.length-1] */\n      0x60\n      dup2\n      mstore\n      pop\n        /* \"contracts/ERC721Contract.sol\":1723:1993  function remove(uint index, string[] memory array )  public pure  {... */\n      pop\n      pop\n      jump\t// out\n        /* \"contracts/ERC721Contract.sol\":5498:5616  function getURIList(address owner) public view returns(string[] memory){... */\n    tag_87:\n        /* \"contracts/ERC721Contract.sol\":5553:5568  string[] memory */\n      0x60\n        /* \"contracts/ERC721Contract.sol\":5586:5601  tokenCollection */\n      0x01\n        /* \"contracts/ERC721Contract.sol\":5586:5608  tokenCollection[owner] */\n      0x00\n        /* \"contracts/ERC721Contract.sol\":5602:5607  owner */\n      dup4\n        /* \"contracts/ERC721Contract.sol\":5586:5608  tokenCollection[owner] */\n      0xffffffffffffffffffffffffffffffffffffffff\n      and\n      0xffffffffffffffffffffffffffffffffffffffff\n      and\n      dup2\n      mstore\n      0x20\n      add\n      swap1\n      dup2\n      mstore\n      0x20\n      add\n      0x00\n      keccak256\n        /* \"contracts/ERC721Contract.sol\":5579:5608  return tokenCollection[owner] */\n      dup1\n      sload\n      dup1\n      0x20\n      mul\n      0x20\n      add\n      mload(0x40)\n      swap1\n      dup2\n      add\n      0x40\n      mstore\n      dup1\n      swap3\n      swap2\n      swap1\n      dup2\n      dup2\n      mstore\n      0x20\n      add\n      0x00\n      swap1\n    tag_183:\n      dup3\n      dup3\n      lt\n      iszero\n      tag_184\n      jumpi\n      dup4\n      dup3\n      swap1\n      0x00\n      mstore\n      keccak256(0x00, 0x20)\n      add\n      dup1\n      sload\n      tag_186\n      swap1\n      tag_187\n      jump\t// in\n    tag_186:\n      dup1\n      0x1f\n      add\n      0x20\n      dup1\n      swap2\n      div\n      mul\n      0x20\n      add\n      mload(0x40)\n      swap1\n      dup2\n      add\n      0x40\n      mstore\n      dup1\n      swap3\n      swap2\n      swap1\n      dup2\n      dup2\n      mstore\n      0x20\n      add\n      dup3\n      dup1\n      sload\n      tag_188\n      swap1\n      tag_187\n      jump\t// in\n    tag_188:\n      dup1\n      iszero\n      tag_189\n      jumpi\n      dup1\n      0x1f\n      lt\n      tag_190\n      jumpi\n      0x0100\n      dup1\n      dup4\n      sload\n      div\n      mul\n      dup4\n      mstore\n      swap2\n      0x20\n      add\n      swap2\n      jump(tag_189)\n    tag_190:\n      dup3\n      add\n      swap2\n      swap1\n      0x00\n      mstore\n      keccak256(0x00, 0x20)\n      swap1\n    tag_191:\n      dup2\n      sload\n      dup2\n      mstore\n      swap1\n      0x01\n      add\n      swap1\n      0x20\n      add\n      dup1\n      dup4\n      gt\n      tag_191\n      jumpi\n      dup3\n      swap1\n      sub\n      0x1f\n      and\n      dup3\n      add\n      swap2\n    tag_189:\n      pop\n      pop\n      pop\n      pop\n      pop\n      dup2\n      mstore\n      0x20\n      add\n      swap1\n      0x01\n      add\n      swap1\n      jump(tag_183)\n    tag_184:\n      pop\n      pop\n      pop\n      pop\n      swap1\n      pop\n        /* \"contracts/ERC721Contract.sol\":5498:5616  function getURIList(address owner) public view returns(string[] memory){... */\n      swap2\n      swap1\n      pop\n      jump\t// out\n        /* \"contracts/ERC721Contract.sol\":5967:6793  function tokensOfOwner(address _owner) external view returns(uint256[] memory ownerTokens) {... */\n    tag_93:\n        /* \"contracts/ERC721Contract.sol\":6028:6056  uint256[] memory ownerTokens */\n      0x60\n        /* \"contracts/ERC721Contract.sol\":6068:6086  uint256 tokenCount */\n      0x00\n        /* \"contracts/ERC721Contract.sol\":6089:6106  balanceOf(_owner) */\n      tag_193\n        /* \"contracts/ERC721Contract.sol\":6099:6105  _owner */\n      dup4\n        /* \"contracts/ERC721Contract.sol\":6089:6098  balanceOf */\n      tag_77\n        /* \"contracts/ERC721Contract.sol\":6089:6106  balanceOf(_owner) */\n      jump\t// in\n    tag_193:\n        /* \"contracts/ERC721Contract.sol\":6068:6106  uint256 tokenCount = balanceOf(_owner) */\n      swap1\n      pop\n        /* \"contracts/ERC721Contract.sol\":6135:6136  0 */\n      0x00\n        /* \"contracts/ERC721Contract.sol\":6121:6131  tokenCount */\n      dup2\n        /* \"contracts/ERC721Contract.sol\":6121:6136  tokenCount == 0 */\n      eq\n        /* \"contracts/ERC721Contract.sol\":6117:6787  if (tokenCount == 0) {... */\n      iszero\n      tag_194\n      jumpi\n        /* \"contracts/ERC721Contract.sol\":6210:6211  0 */\n      0x00\n        /* \"contracts/ERC721Contract.sol\":6196:6212  new uint256[](0) */\n      0xffffffffffffffff\n      dup2\n      gt\n      iszero\n      tag_195\n      jumpi\n      tag_196\n      tag_197\n      jump\t// in\n    tag_196:\n    tag_195:\n      mload(0x40)\n      swap1\n      dup1\n      dup3\n      mstore\n      dup1\n      0x20\n      mul\n      0x20\n      add\n      dup3\n      add\n      0x40\n      mstore\n      dup1\n      iszero\n      tag_198\n      jumpi\n      dup2\n      0x20\n      add\n      0x20\n      dup3\n      mul\n      dup1\n      calldatasize\n      dup4\n      calldatacopy\n      dup1\n      dup3\n      add\n      swap2\n      pop\n      pop\n      swap1\n      pop\n    tag_198:\n      pop\n        /* \"contracts/ERC721Contract.sol\":6189:6212  return new uint256[](0) */\n      swap2\n      pop\n      pop\n      jump(tag_192)\n        /* \"contracts/ERC721Contract.sol\":6117:6787  if (tokenCount == 0) {... */\n    tag_194:\n        /* \"contracts/ERC721Contract.sol\":6243:6266  uint256[] memory result */\n      0x00\n        /* \"contracts/ERC721Contract.sol\":6283:6293  tokenCount */\n      dup2\n        /* \"contracts/ERC721Contract.sol\":6269:6294  new uint256[](tokenCount) */\n      0xffffffffffffffff\n      dup2\n      gt\n      iszero\n      tag_200\n      jumpi\n      tag_201\n      tag_197\n      jump\t// in\n    tag_201:\n    tag_200:\n      mload(0x40)\n      swap1\n      dup1\n      dup3\n      mstore\n      dup1\n      0x20\n      mul\n      0x20\n      add\n      dup3\n      add\n      0x40\n      mstore\n      dup1\n      iszero\n      tag_202\n      jumpi\n      dup2\n      0x20\n      add\n      0x20\n      dup3\n      mul\n      dup1\n      calldatasize\n      dup4\n      calldatacopy\n      dup1\n      dup3\n      add\n      swap2\n      pop\n      pop\n      swap1\n      pop\n    tag_202:\n      pop\n        /* \"contracts/ERC721Contract.sol\":6243:6294  uint256[] memory result = new uint256[](tokenCount) */\n      swap1\n      pop\n        /* \"contracts/ERC721Contract.sol\":6308:6321  uint256 maxId */\n      0x00\n        /* \"contracts/ERC721Contract.sol\":6324:6336  getTokenID() */\n      tag_203\n        /* \"contracts/ERC721Contract.sol\":6324:6334  getTokenID */\n      tag_72\n        /* \"contracts/ERC721Contract.sol\":6324:6336  getTokenID() */\n      jump\t// in\n    tag_203:\n        /* \"contracts/ERC721Contract.sol\":6308:6336  uint256 maxId = getTokenID() */\n      swap1\n      pop\n        /* \"contracts/ERC721Contract.sol\":6350:6369  uint256 resultIndex */\n      0x00\n        /* \"contracts/ERC721Contract.sol\":6530:6540  uint256 id */\n      dup1\n        /* \"contracts/ERC721Contract.sol\":6565:6566  1 */\n      0x01\n        /* \"contracts/ERC721Contract.sol\":6560:6566  id = 1 */\n      swap1\n      pop\n        /* \"contracts/ERC721Contract.sol\":6555:6749  for (id = 1; id <= maxId; id++) {... */\n    tag_204:\n        /* \"contracts/ERC721Contract.sol\":6574:6579  maxId */\n      dup3\n        /* \"contracts/ERC721Contract.sol\":6568:6570  id */\n      dup2\n        /* \"contracts/ERC721Contract.sol\":6568:6579  id <= maxId */\n      gt\n        /* \"contracts/ERC721Contract.sol\":6555:6749  for (id = 1; id <= maxId; id++) {... */\n      tag_205\n      jumpi\n        /* \"contracts/ERC721Contract.sol\":6627:6633  _owner */\n      dup7\n        /* \"contracts/ERC721Contract.sol\":6609:6633  tokenOwner[id] == _owner */\n      0xffffffffffffffffffffffffffffffffffffffff\n      and\n        /* \"contracts/ERC721Contract.sol\":6609:6619  tokenOwner */\n      0x03\n        /* \"contracts/ERC721Contract.sol\":6609:6623  tokenOwner[id] */\n      0x00\n        /* \"contracts/ERC721Contract.sol\":6620:6622  id */\n      dup4\n        /* \"contracts/ERC721Contract.sol\":6609:6623  tokenOwner[id] */\n      dup2\n      mstore\n      0x20\n      add\n      swap1\n      dup2\n      mstore\n      0x20\n      add\n      0x00\n      keccak256\n      0x00\n      swap1\n      sload\n      swap1\n      0x0100\n      exp\n      swap1\n      div\n      0xffffffffffffffffffffffffffffffffffffffff\n      and\n        /* \"contracts/ERC721Contract.sol\":6609:6633  tokenOwner[id] == _owner */\n      0xffffffffffffffffffffffffffffffffffffffff\n      and\n      eq\n        /* \"contracts/ERC721Contract.sol\":6605:6735  if (tokenOwner[id] == _owner) {... */\n      iszero\n      tag_207\n      jumpi\n        /* \"contracts/ERC721Contract.sol\":6679:6681  id */\n      dup1\n        /* \"contracts/ERC721Contract.sol\":6657:6663  result */\n      dup5\n        /* \"contracts/ERC721Contract.sol\":6664:6675  resultIndex */\n      dup4\n        /* \"contracts/ERC721Contract.sol\":6657:6676  result[resultIndex] */\n      dup2\n      mload\n      dup2\n      lt\n      tag_208\n      jumpi\n      tag_209\n      tag_175\n      jump\t// in\n    tag_209:\n    tag_208:\n      0x20\n      mul\n      0x20\n      add\n      add\n        /* \"contracts/ERC721Contract.sol\":6657:6681  result[resultIndex] = id */\n      dup2\n      dup2\n      mstore\n      pop\n      pop\n        /* \"contracts/ERC721Contract.sol\":6703:6716  resultIndex++ */\n      dup2\n      dup1\n      tag_210\n      swap1\n      tag_155\n      jump\t// in\n    tag_210:\n      swap3\n      pop\n      pop\n        /* \"contracts/ERC721Contract.sol\":6605:6735  if (tokenOwner[id] == _owner) {... */\n    tag_207:\n        /* \"contracts/ERC721Contract.sol\":6581:6585  id++ */\n      dup1\n      dup1\n      tag_211\n      swap1\n      tag_155\n      jump\t// in\n    tag_211:\n      swap2\n      pop\n      pop\n        /* \"contracts/ERC721Contract.sol\":6555:6749  for (id = 1; id <= maxId; id++) {... */\n      jump(tag_204)\n    tag_205:\n        /* \"contracts/ERC721Contract.sol\":6770:6776  result */\n      dup4\n        /* \"contracts/ERC721Contract.sol\":6763:6776  return result */\n      swap6\n      pop\n      pop\n      pop\n      pop\n      pop\n      pop\n        /* \"contracts/ERC721Contract.sol\":5967:6793  function tokensOfOwner(address _owner) external view returns(uint256[] memory ownerTokens) {... */\n    tag_192:\n      swap2\n      swap1\n      pop\n      jump\t// out\n        /* \"contracts/ERC721Contract.sol\":3627:3916  function setApprovalForAll(address _operator, bool _approved) public virtual override {... */\n    tag_100:\n        /* \"contracts/ERC721Contract.sol\":3744:3754  msg.sender */\n      caller\n        /* \"contracts/ERC721Contract.sol\":3731:3754  _operator != msg.sender */\n      0xffffffffffffffffffffffffffffffffffffffff\n      and\n        /* \"contracts/ERC721Contract.sol\":3731:3740  _operator */\n      dup3\n        /* \"contracts/ERC721Contract.sol\":3731:3754  _operator != msg.sender */\n      0xffffffffffffffffffffffffffffffffffffffff\n      and\n      eq\n      iszero\n        /* \"contracts/ERC721Contract.sol\":3723:3784  require(_operator != msg.sender, \"ERC721: approve to caller\") */\n      tag_213\n      jumpi\n      mload(0x40)\n      0x08c379a000000000000000000000000000000000000000000000000000000000\n      dup2\n      mstore\n      0x04\n      add\n      tag_214\n      swap1\n      tag_215\n      jump\t// in\n    tag_214:\n      mload(0x40)\n      dup1\n      swap2\n      sub\n      swap1\n      revert\n    tag_213:\n        /* \"contracts/ERC721Contract.sol\":3837:3846  _approved */\n      dup1\n        /* \"contracts/ERC721Contract.sol\":3794:3811  operatorApprovals */\n      0x06\n        /* \"contracts/ERC721Contract.sol\":3794:3823  operatorApprovals[msg.sender] */\n      0x00\n        /* \"contracts/ERC721Contract.sol\":3812:3822  msg.sender */\n      caller\n        /* \"contracts/ERC721Contract.sol\":3794:3823  operatorApprovals[msg.sender] */\n      0xffffffffffffffffffffffffffffffffffffffff\n      and\n      0xffffffffffffffffffffffffffffffffffffffff\n      and\n      dup2\n      mstore\n      0x20\n      add\n      swap1\n      dup2\n      mstore\n      0x20\n      add\n      0x00\n      keccak256\n        /* \"contracts/ERC721Contract.sol\":3794:3834  operatorApprovals[msg.sender][_operator] */\n      0x00\n        /* \"contracts/ERC721Contract.sol\":3824:3833  _operator */\n      dup5\n        /* \"contracts/ERC721Contract.sol\":3794:3834  operatorApprovals[msg.sender][_operator] */\n      0xffffffffffffffffffffffffffffffffffffffff\n      and\n      0xffffffffffffffffffffffffffffffffffffffff\n      and\n      dup2\n      mstore\n      0x20\n      add\n      swap1\n      dup2\n      mstore\n      0x20\n      add\n      0x00\n      keccak256\n      0x00\n        /* \"contracts/ERC721Contract.sol\":3794:3846  operatorApprovals[msg.sender][_operator] = _approved */\n      0x0100\n      exp\n      dup2\n      sload\n      dup2\n      0xff\n      mul\n      not\n      and\n      swap1\n      dup4\n      iszero\n      iszero\n      mul\n      or\n      swap1\n      sstore\n      pop\n        /* \"contracts/ERC721Contract.sol\":3888:3897  _operator */\n      dup2\n        /* \"contracts/ERC721Contract.sol\":3861:3909  ApprovalForAll(msg.sender, _operator, _approved) */\n      0xffffffffffffffffffffffffffffffffffffffff\n      and\n        /* \"contracts/ERC721Contract.sol\":3876:3886  msg.sender */\n      caller\n        /* \"contracts/ERC721Contract.sol\":3861:3909  ApprovalForAll(msg.sender, _operator, _approved) */\n      0xffffffffffffffffffffffffffffffffffffffff\n      and\n      0x17307eab39ab6107e8899845ad3d59bd9653f200f220920489ca2b5937696c31\n        /* \"contracts/ERC721Contract.sol\":3899:3908  _approved */\n      dup4\n        /* \"contracts/ERC721Contract.sol\":3861:3909  ApprovalForAll(msg.sender, _operator, _approved) */\n      mload(0x40)\n      tag_216\n      swap2\n      swap1\n      tag_28\n      jump\t// in\n    tag_216:\n      mload(0x40)\n      dup1\n      swap2\n      sub\n      swap1\n      log3\n        /* \"contracts/ERC721Contract.sol\":3627:3916  function setApprovalForAll(address _operator, bool _approved) public virtual override {... */\n      pop\n      pop\n      jump\t// out\n        /* \"contracts/ERC721Contract.sol\":691:979  function safeTransferFrom(address from, address to, uint256 tokenId, bytes memory _data) public virtual payable override {... */\n    tag_104:\n        /* \"contracts/ERC721Contract.sol\":830:869  _isApprovedOrOwner(msg.sender, tokenId) */\n      tag_218\n        /* \"contracts/ERC721Contract.sol\":849:859  msg.sender */\n      caller\n        /* \"contracts/ERC721Contract.sol\":861:868  tokenId */\n      dup4\n        /* \"contracts/ERC721Contract.sol\":830:848  _isApprovedOrOwner */\n      tag_142\n        /* \"contracts/ERC721Contract.sol\":830:869  _isApprovedOrOwner(msg.sender, tokenId) */\n      jump\t// in\n    tag_218:\n        /* \"contracts/ERC721Contract.sol\":822:923  require(_isApprovedOrOwner(msg.sender, tokenId), \"ERC721: transfer caller is not owner nor approved\") */\n      tag_219\n      jumpi\n      mload(0x40)\n      0x08c379a000000000000000000000000000000000000000000000000000000000\n      dup2\n      mstore\n      0x04\n      add\n      tag_220\n      swap1\n      tag_221\n      jump\t// in\n    tag_220:\n      mload(0x40)\n      dup1\n      swap2\n      sub\n      swap1\n      revert\n    tag_219:\n        /* \"contracts/ERC721Contract.sol\":933:972  _safeTransfer(from, to, tokenId, _data) */\n      tag_222\n        /* \"contracts/ERC721Contract.sol\":947:951  from */\n      dup5\n        /* \"contracts/ERC721Contract.sol\":953:955  to */\n      dup5\n        /* \"contracts/ERC721Contract.sol\":957:964  tokenId */\n      dup5\n        /* \"contracts/ERC721Contract.sol\":966:971  _data */\n      dup5\n        /* \"contracts/ERC721Contract.sol\":933:946  _safeTransfer */\n      tag_223\n        /* \"contracts/ERC721Contract.sol\":933:972  _safeTransfer(from, to, tokenId, _data) */\n      jump\t// in\n    tag_222:\n        /* \"contracts/ERC721Contract.sol\":691:979  function safeTransferFrom(address from, address to, uint256 tokenId, bytes memory _data) public virtual payable override {... */\n      pop\n      pop\n      pop\n      pop\n      jump\t// out\n        /* \"contracts/ERC721Contract.sol\":3922:4086  function isApprovedForAll(address _owner, address _operator) public view virtual override returns (bool){... */\n    tag_109:\n        /* \"contracts/ERC721Contract.sol\":4021:4025  bool */\n      0x00\n        /* \"contracts/ERC721Contract.sol\":4043:4060  operatorApprovals */\n      0x06\n        /* \"contracts/ERC721Contract.sol\":4043:4068  operatorApprovals[_owner] */\n      0x00\n        /* \"contracts/ERC721Contract.sol\":4061:4067  _owner */\n      dup5\n        /* \"contracts/ERC721Contract.sol\":4043:4068  operatorApprovals[_owner] */\n      0xffffffffffffffffffffffffffffffffffffffff\n      and\n      0xffffffffffffffffffffffffffffffffffffffff\n      and\n      dup2\n      mstore\n      0x20\n      add\n      swap1\n      dup2\n      mstore\n      0x20\n      add\n      0x00\n      keccak256\n        /* \"contracts/ERC721Contract.sol\":4043:4079  operatorApprovals[_owner][_operator] */\n      0x00\n        /* \"contracts/ERC721Contract.sol\":4069:4078  _operator */\n      dup4\n        /* \"contracts/ERC721Contract.sol\":4043:4079  operatorApprovals[_owner][_operator] */\n      0xffffffffffffffffffffffffffffffffffffffff\n      and\n      0xffffffffffffffffffffffffffffffffffffffff\n      and\n      dup2\n      mstore\n      0x20\n      add\n      swap1\n      dup2\n      mstore\n      0x20\n      add\n      0x00\n      keccak256\n      0x00\n      swap1\n      sload\n      swap1\n      0x0100\n      exp\n      swap1\n      div\n      0xff\n      and\n        /* \"contracts/ERC721Contract.sol\":4036:4079  return operatorApprovals[_owner][_operator] */\n      swap1\n      pop\n        /* \"contracts/ERC721Contract.sol\":3922:4086  function isApprovedForAll(address _owner, address _operator) public view virtual override returns (bool){... */\n      swap3\n      swap2\n      pop\n      pop\n      jump\t// out\n        /* \"contracts/ERC721Contract.sol\":4330:4492  function _approve(address to, uint256 tokenId) internal virtual {... */\n    tag_126:\n        /* \"contracts/ERC721Contract.sol\":4430:4432  to */\n      dup2\n        /* \"contracts/ERC721Contract.sol\":4404:4418  tokenApprovals */\n      0x05\n        /* \"contracts/ERC721Contract.sol\":4404:4427  tokenApprovals[tokenId] */\n      0x00\n        /* \"contracts/ERC721Contract.sol\":4419:4426  tokenId */\n      dup4\n        /* \"contracts/ERC721Contract.sol\":4404:4427  tokenApprovals[tokenId] */\n      dup2\n      mstore\n      0x20\n      add\n      swap1\n      dup2\n      mstore\n      0x20\n      add\n      0x00\n      keccak256\n      0x00\n        /* \"contracts/ERC721Contract.sol\":4404:4432  tokenApprovals[tokenId] = to */\n      0x0100\n      exp\n      dup2\n      sload\n      dup2\n      0xffffffffffffffffffffffffffffffffffffffff\n      mul\n      not\n      and\n      swap1\n      dup4\n      0xffffffffffffffffffffffffffffffffffffffff\n      and\n      mul\n      or\n      swap1\n      sstore\n      pop\n        /* \"contracts/ERC721Contract.sol\":4483:4484  0 */\n      0x00\n        /* \"contracts/ERC721Contract.sol\":4479:4481  to */\n      dup3\n        /* \"contracts/ERC721Contract.sol\":4447:4485  Approval(this.ownerOf(tokenId), to, 0) */\n      0xffffffffffffffffffffffffffffffffffffffff\n      and\n        /* \"contracts/ERC721Contract.sol\":4456:4460  this */\n      address\n        /* \"contracts/ERC721Contract.sol\":4456:4468  this.ownerOf */\n      0xffffffffffffffffffffffffffffffffffffffff\n      and\n      0x6352211e\n        /* \"contracts/ERC721Contract.sol\":4469:4476  tokenId */\n      dup5\n        /* \"contracts/ERC721Contract.sol\":4456:4477  this.ownerOf(tokenId) */\n      mload(0x40)\n      dup3\n      0xffffffff\n      and\n      0xe0\n      shl\n      dup2\n      mstore\n      0x04\n      add\n      tag_226\n      swap2\n      swap1\n      tag_50\n      jump\t// in\n    tag_226:\n      0x20\n      mload(0x40)\n      dup1\n      dup4\n      sub\n      dup2\n      dup7\n      dup1\n      extcodesize\n      iszero\n      dup1\n      iszero\n      tag_227\n      jumpi\n      0x00\n      dup1\n      revert\n    tag_227:\n      pop\n      gas\n      staticcall\n      iszero\n      dup1\n      iszero\n      tag_229\n      jumpi\n      returndatasize\n      0x00\n      dup1\n      returndatacopy\n      revert(0x00, returndatasize)\n    tag_229:\n      pop\n      pop\n      pop\n      pop\n      mload(0x40)\n      returndatasize\n      not(0x1f)\n      0x1f\n      dup3\n      add\n      and\n      dup3\n      add\n      dup1\n      0x40\n      mstore\n      pop\n      dup2\n      add\n      swap1\n      tag_230\n      swap2\n      swap1\n      tag_231\n      jump\t// in\n    tag_230:\n        /* \"contracts/ERC721Contract.sol\":4447:4485  Approval(this.ownerOf(tokenId), to, 0) */\n      0xffffffffffffffffffffffffffffffffffffffff\n      and\n      0x8c5be1e5ebec7d5bd14f71427d1e84f3dd0314c0f7b2291e5b200ac8c7c3b925\n      mload(0x40)\n      mload(0x40)\n      dup1\n      swap2\n      sub\n      swap1\n      log4\n        /* \"contracts/ERC721Contract.sol\":4330:4492  function _approve(address to, uint256 tokenId) internal virtual {... */\n      pop\n      pop\n      jump\t// out\n        /* \"contracts/ERC721Contract.sol\":4092:4324  function _isApprovedOrOwner(address spender, uint256 tokenId) internal view virtual returns (bool) {... */\n    tag_142:\n        /* \"contracts/ERC721Contract.sol\":4185:4189  bool */\n      0x00\n        /* \"contracts/ERC721Contract.sol\":4227:4234  spender */\n      dup3\n        /* \"contracts/ERC721Contract.sol\":4209:4234  ownerOf(tokenId)==spender */\n      0xffffffffffffffffffffffffffffffffffffffff\n      and\n        /* \"contracts/ERC721Contract.sol\":4209:4225  ownerOf(tokenId) */\n      tag_233\n        /* \"contracts/ERC721Contract.sol\":4217:4224  tokenId */\n      dup4\n        /* \"contracts/ERC721Contract.sol\":4209:4216  ownerOf */\n      tag_68\n        /* \"contracts/ERC721Contract.sol\":4209:4225  ownerOf(tokenId) */\n      jump\t// in\n    tag_233:\n        /* \"contracts/ERC721Contract.sol\":4209:4234  ownerOf(tokenId)==spender */\n      0xffffffffffffffffffffffffffffffffffffffff\n      and\n      eq\n        /* \"contracts/ERC721Contract.sol\":4208:4268  (ownerOf(tokenId)==spender) || getApproved(tokenId)==spender */\n      dup1\n      tag_234\n      jumpi\n      pop\n        /* \"contracts/ERC721Contract.sol\":4261:4268  spender */\n      dup3\n        /* \"contracts/ERC721Contract.sol\":4239:4268  getApproved(tokenId)==spender */\n      0xffffffffffffffffffffffffffffffffffffffff\n      and\n        /* \"contracts/ERC721Contract.sol\":4239:4259  getApproved(tokenId) */\n      tag_235\n        /* \"contracts/ERC721Contract.sol\":4251:4258  tokenId */\n      dup4\n        /* \"contracts/ERC721Contract.sol\":4239:4250  getApproved */\n      tag_33\n        /* \"contracts/ERC721Contract.sol\":4239:4259  getApproved(tokenId) */\n      jump\t// in\n    tag_235:\n        /* \"contracts/ERC721Contract.sol\":4239:4268  getApproved(tokenId)==spender */\n      0xffffffffffffffffffffffffffffffffffffffff\n      and\n      eq\n        /* \"contracts/ERC721Contract.sol\":4208:4268  (ownerOf(tokenId)==spender) || getApproved(tokenId)==spender */\n    tag_234:\n        /* \"contracts/ERC721Contract.sol\":4208:4315  (ownerOf(tokenId)==spender) || getApproved(tokenId)==spender || isApprovedForAll(ownerOf(tokenId), spender) */\n      dup1\n      tag_236\n      jumpi\n      pop\n        /* \"contracts/ERC721Contract.sol\":4272:4315  isApprovedForAll(ownerOf(tokenId), spender) */\n      tag_237\n        /* \"contracts/ERC721Contract.sol\":4289:4305  ownerOf(tokenId) */\n      tag_238\n        /* \"contracts/ERC721Contract.sol\":4297:4304  tokenId */\n      dup4\n        /* \"contracts/ERC721Contract.sol\":4289:4296  ownerOf */\n      tag_68\n        /* \"contracts/ERC721Contract.sol\":4289:4305  ownerOf(tokenId) */\n      jump\t// in\n    tag_238:\n        /* \"contracts/ERC721Contract.sol\":4307:4314  spender */\n      dup5\n        /* \"contracts/ERC721Contract.sol\":4272:4288  isApprovedForAll */\n      tag_109\n        /* \"contracts/ERC721Contract.sol\":4272:4315  isApprovedForAll(ownerOf(tokenId), spender) */\n      jump\t// in\n    tag_237:\n        /* \"contracts/ERC721Contract.sol\":4208:4315  (ownerOf(tokenId)==spender) || getApproved(tokenId)==spender || isApprovedForAll(ownerOf(tokenId), spender) */\n    tag_236:\n        /* \"contracts/ERC721Contract.sol\":4201:4317  return((ownerOf(tokenId)==spender) || getApproved(tokenId)==spender || isApprovedForAll(ownerOf(tokenId), spender) ) */\n      swap1\n      pop\n        /* \"contracts/ERC721Contract.sol\":4092:4324  function _isApprovedOrOwner(address spender, uint256 tokenId) internal view virtual returns (bool) {... */\n      swap3\n      swap2\n      pop\n      pop\n      jump\t// out\n        /* \"contracts/ERC721Contract.sol\":2142:2250  function _burn(address owner, uint256 tokenId) internal {... */\n    tag_146:\n        /* \"contracts/ERC721Contract.sol\":2208:2243  _transfer(owner,address(0),tokenId) */\n      tag_240\n        /* \"contracts/ERC721Contract.sol\":2218:2223  owner */\n      dup3\n        /* \"contracts/ERC721Contract.sol\":2232:2233  0 */\n      0x00\n        /* \"contracts/ERC721Contract.sol\":2235:2242  tokenId */\n      dup4\n        /* \"contracts/ERC721Contract.sol\":2208:2217  _transfer */\n      tag_241\n        /* \"contracts/ERC721Contract.sol\":2208:2243  _transfer(owner,address(0),tokenId) */\n      jump\t// in\n    tag_240:\n        /* \"contracts/ERC721Contract.sol\":2142:2250  function _burn(address owner, uint256 tokenId) internal {... */\n      pop\n      pop\n      jump\t// out\n        /* \"contracts/ERC721Contract.sol\":1131:1717  function _safeTransfer(address from, address to, uint256 tokenId, bytes memory _data) internal virtual {... */\n    tag_223:\n        /* \"contracts/ERC721Contract.sol\":1244:1272  _transfer(from, to, tokenId) */\n      tag_243\n        /* \"contracts/ERC721Contract.sol\":1254:1258  from */\n      dup5\n        /* \"contracts/ERC721Contract.sol\":1260:1262  to */\n      dup5\n        /* \"contracts/ERC721Contract.sol\":1264:1271  tokenId */\n      dup5\n        /* \"contracts/ERC721Contract.sol\":1244:1253  _transfer */\n      tag_241\n        /* \"contracts/ERC721Contract.sol\":1244:1272  _transfer(from, to, tokenId) */\n      jump\t// in\n    tag_243:\n        /* \"contracts/ERC721Contract.sol\":1338:1349  uint32 size */\n      0x00\n        /* \"contracts/ERC721Contract.sol\":1402:1404  to */\n      dup4\n        /* \"contracts/ERC721Contract.sol\":1390:1405  extcodesize(to) */\n      extcodesize\n        /* \"contracts/ERC721Contract.sol\":1382:1405  size := extcodesize(to) */\n      swap1\n      pop\n        /* \"contracts/ERC721Contract.sol\":1434:1435  0 */\n      0x00\n        /* \"contracts/ERC721Contract.sol\":1427:1431  size */\n      dup2\n        /* \"contracts/ERC721Contract.sol\":1427:1435  size > 0 */\n      0xffffffff\n      and\n      gt\n        /* \"contracts/ERC721Contract.sol\":1424:1711  if(size > 0){... */\n      iszero\n      tag_244\n      jumpi\n        /* \"contracts/ERC721Contract.sol\":1450:1478  ERC721TokenReceiver receiver */\n      0x00\n        /* \"contracts/ERC721Contract.sol\":1501:1503  to */\n      dup5\n        /* \"contracts/ERC721Contract.sol\":1450:1504  ERC721TokenReceiver receiver = ERC721TokenReceiver(to) */\n      swap1\n      pop\n        /* \"contracts/ERC721Contract.sol\":1592:1652  keccak256(\"onERC721Received(address,address,uint256,bytes)\") */\n      0x150b7a023d4804d13e8c85fb27262cb750cf6ba9f9dd3bb30d90f482ceeb4b1f\n        /* \"contracts/ERC721Contract.sol\":1526:1653  receiver.onERC721Received(msg.sender,from,tokenId,_data)== bytes4(keccak256(\"onERC721Received(address,address,uint256,bytes)\")) */\n      not(0xffffffffffffffffffffffffffffffffffffffffffffffffffffffff)\n      and\n        /* \"contracts/ERC721Contract.sol\":1526:1534  receiver */\n      dup2\n        /* \"contracts/ERC721Contract.sol\":1526:1551  receiver.onERC721Received */\n      0xffffffffffffffffffffffffffffffffffffffff\n      and\n      0x150b7a02\n        /* \"contracts/ERC721Contract.sol\":1552:1562  msg.sender */\n      caller\n        /* \"contracts/ERC721Contract.sol\":1563:1567  from */\n      dup10\n        /* \"contracts/ERC721Contract.sol\":1568:1575  tokenId */\n      dup9\n        /* \"contracts/ERC721Contract.sol\":1576:1581  _data */\n      dup9\n        /* \"contracts/ERC721Contract.sol\":1526:1582  receiver.onERC721Received(msg.sender,from,tokenId,_data) */\n      mload(0x40)\n      dup6\n      0xffffffff\n      and\n      0xe0\n      shl\n      dup2\n      mstore\n      0x04\n      add\n      tag_245\n      swap5\n      swap4\n      swap3\n      swap2\n      swap1\n      tag_246\n      jump\t// in\n    tag_245:\n      0x20\n      mload(0x40)\n      dup1\n      dup4\n      sub\n      dup2\n      0x00\n      dup8\n      dup1\n      extcodesize\n      iszero\n      dup1\n      iszero\n      tag_247\n      jumpi\n      0x00\n      dup1\n      revert\n    tag_247:\n      pop\n      gas\n      call\n      iszero\n      dup1\n      iszero\n      tag_249\n      jumpi\n      returndatasize\n      0x00\n      dup1\n      returndatacopy\n      revert(0x00, returndatasize)\n    tag_249:\n      pop\n      pop\n      pop\n      pop\n      mload(0x40)\n      returndatasize\n      not(0x1f)\n      0x1f\n      dup3\n      add\n      and\n      dup3\n      add\n      dup1\n      0x40\n      mstore\n      pop\n      dup2\n      add\n      swap1\n      tag_250\n      swap2\n      swap1\n      tag_251\n      jump\t// in\n    tag_250:\n        /* \"contracts/ERC721Contract.sol\":1526:1653  receiver.onERC721Received(msg.sender,from,tokenId,_data)== bytes4(keccak256(\"onERC721Received(address,address,uint256,bytes)\")) */\n      not(0xffffffffffffffffffffffffffffffffffffffffffffffffffffffff)\n      and\n      eq\n        /* \"contracts/ERC721Contract.sol\":1518:1654  require(receiver.onERC721Received(msg.sender,from,tokenId,_data)== bytes4(keccak256(\"onERC721Received(address,address,uint256,bytes)\"))) */\n      tag_252\n      jumpi\n      0x00\n      dup1\n      revert\n    tag_252:\n        /* \"contracts/ERC721Contract.sol\":1692:1699  tokenId */\n      dup4\n        /* \"contracts/ERC721Contract.sol\":1688:1690  to */\n      dup6\n        /* \"contracts/ERC721Contract.sol\":1673:1700  Transfer(from, to, tokenId) */\n      0xffffffffffffffffffffffffffffffffffffffff\n      and\n        /* \"contracts/ERC721Contract.sol\":1682:1686  from */\n      dup8\n        /* \"contracts/ERC721Contract.sol\":1673:1700  Transfer(from, to, tokenId) */\n      0xffffffffffffffffffffffffffffffffffffffff\n      and\n      0xddf252ad1be2c89b69c2b068fc378daa952ba7f163c4a11628f55a4df523b3ef\n      mload(0x40)\n      mload(0x40)\n      dup1\n      swap2\n      sub\n      swap1\n      log4\n        /* \"contracts/ERC721Contract.sol\":1436:1711  {... */\n      pop\n        /* \"contracts/ERC721Contract.sol\":1424:1711  if(size > 0){... */\n    tag_244:\n        /* \"contracts/ERC721Contract.sol\":1234:1717  {... */\n      pop\n        /* \"contracts/ERC721Contract.sol\":1131:1717  function _safeTransfer(address from, address to, uint256 tokenId, bytes memory _data) internal virtual {... */\n      pop\n      pop\n      pop\n      pop\n      jump\t// out\n        /* \"contracts/ERC721Contract.sol\":2256:3070  function _transfer(address from, address to, uint256 tokenId) internal virtual {... */\n    tag_241:\n        /* \"contracts/ERC721Contract.sol\":2382:2386  from */\n      dup3\n        /* \"contracts/ERC721Contract.sol\":2362:2386  ownerOf(tokenId) == from */\n      0xffffffffffffffffffffffffffffffffffffffff\n      and\n        /* \"contracts/ERC721Contract.sol\":2362:2378  ownerOf(tokenId) */\n      tag_254\n        /* \"contracts/ERC721Contract.sol\":2370:2377  tokenId */\n      dup3\n        /* \"contracts/ERC721Contract.sol\":2362:2369  ownerOf */\n      tag_68\n        /* \"contracts/ERC721Contract.sol\":2362:2378  ownerOf(tokenId) */\n      jump\t// in\n    tag_254:\n        /* \"contracts/ERC721Contract.sol\":2362:2386  ownerOf(tokenId) == from */\n      0xffffffffffffffffffffffffffffffffffffffff\n      and\n      eq\n        /* \"contracts/ERC721Contract.sol\":2354:2432  require(ownerOf(tokenId) == from, \"ERC721: transfer of token that is not own\") */\n      tag_255\n      jumpi\n      mload(0x40)\n      0x08c379a000000000000000000000000000000000000000000000000000000000\n      dup2\n      mstore\n      0x04\n      add\n      tag_256\n      swap1\n      tag_257\n      jump\t// in\n    tag_256:\n      mload(0x40)\n      dup1\n      swap2\n      sub\n      swap1\n      revert\n    tag_255:\n        /* \"contracts/ERC721Contract.sol\":2464:2465  0 */\n      0x00\n        /* \"contracts/ERC721Contract.sol\":2450:2466  to != address(0) */\n      0xffffffffffffffffffffffffffffffffffffffff\n      and\n        /* \"contracts/ERC721Contract.sol\":2450:2452  to */\n      dup3\n        /* \"contracts/ERC721Contract.sol\":2450:2466  to != address(0) */\n      0xffffffffffffffffffffffffffffffffffffffff\n      and\n      eq\n      iszero\n        /* \"contracts/ERC721Contract.sol\":2442:2507  require(to != address(0), \"ERC721: transfer to the zero address\") */\n      tag_258\n      jumpi\n      mload(0x40)\n      0x08c379a000000000000000000000000000000000000000000000000000000000\n      dup2\n      mstore\n      0x04\n      add\n      tag_259\n      swap1\n      tag_260\n      jump\t// in\n    tag_259:\n      mload(0x40)\n      dup1\n      swap2\n      sub\n      swap1\n      revert\n    tag_258:\n        /* \"contracts/ERC721Contract.sol\":2568:2597  _approve(address(0), tokenId) */\n      tag_261\n        /* \"contracts/ERC721Contract.sol\":2585:2586  0 */\n      0x00\n        /* \"contracts/ERC721Contract.sol\":2589:2596  tokenId */\n      dup3\n        /* \"contracts/ERC721Contract.sol\":2568:2576  _approve */\n      tag_126\n        /* \"contracts/ERC721Contract.sol\":2568:2597  _approve(address(0), tokenId) */\n      jump\t// in\n    tag_261:\n        /* \"contracts/ERC721Contract.sol\":2628:2630  to */\n      dup2\n        /* \"contracts/ERC721Contract.sol\":2606:2616  tokenOwner */\n      0x03\n        /* \"contracts/ERC721Contract.sol\":2606:2625  tokenOwner[tokenId] */\n      0x00\n        /* \"contracts/ERC721Contract.sol\":2617:2624  tokenId */\n      dup4\n        /* \"contracts/ERC721Contract.sol\":2606:2625  tokenOwner[tokenId] */\n      dup2\n      mstore\n      0x20\n      add\n      swap1\n      dup2\n      mstore\n      0x20\n      add\n      0x00\n      keccak256\n      0x00\n        /* \"contracts/ERC721Contract.sol\":2606:2630  tokenOwner[tokenId] = to */\n      0x0100\n      exp\n      dup2\n      sload\n      dup2\n      0xffffffffffffffffffffffffffffffffffffffff\n      mul\n      not\n      and\n      swap1\n      dup4\n      0xffffffffffffffffffffffffffffffffffffffff\n      and\n      mul\n      or\n      swap1\n      sstore\n      pop\n        /* \"contracts/ERC721Contract.sol\":2639:2645  uint n */\n      0x00\n        /* \"contracts/ERC721Contract.sol\":2646:2661  tokenCollection */\n      0x01\n        /* \"contracts/ERC721Contract.sol\":2646:2667  tokenCollection[from] */\n      0x00\n        /* \"contracts/ERC721Contract.sol\":2662:2666  from */\n      dup6\n        /* \"contracts/ERC721Contract.sol\":2646:2667  tokenCollection[from] */\n      0xffffffffffffffffffffffffffffffffffffffff\n      and\n      0xffffffffffffffffffffffffffffffffffffffff\n      and\n      dup2\n      mstore\n      0x20\n      add\n      swap1\n      dup2\n      mstore\n      0x20\n      add\n      0x00\n      keccak256\n        /* \"contracts/ERC721Contract.sol\":2646:2674  tokenCollection[from].length */\n      dup1\n      sload\n      swap1\n      pop\n        /* \"contracts/ERC721Contract.sol\":2639:2674  uint n=tokenCollection[from].length */\n      swap1\n      pop\n        /* \"contracts/ERC721Contract.sol\":2683:2695  tokenBalance */\n      0x04\n        /* \"contracts/ERC721Contract.sol\":2683:2701  tokenBalance[from] */\n      0x00\n        /* \"contracts/ERC721Contract.sol\":2696:2700  from */\n      dup6\n        /* \"contracts/ERC721Contract.sol\":2683:2701  tokenBalance[from] */\n      0xffffffffffffffffffffffffffffffffffffffff\n      and\n      0xffffffffffffffffffffffffffffffffffffffff\n      and\n      dup2\n      mstore\n      0x20\n      add\n      swap1\n      dup2\n      mstore\n      0x20\n      add\n      0x00\n      keccak256\n      0x00\n        /* \"contracts/ERC721Contract.sol\":2683:2703  tokenBalance[from]-- */\n      dup2\n      dup2\n      swap1\n      sload\n      swap1\n      0x0100\n      exp\n      swap1\n      div\n      0xffffffffffffffff\n      and\n      dup1\n      swap3\n      swap2\n      swap1\n      tag_262\n      swap1\n      tag_263\n      jump\t// in\n    tag_262:\n      swap2\n      swap1\n      0x0100\n      exp\n      dup2\n      sload\n      dup2\n      0xffffffffffffffff\n      mul\n      not\n      and\n      swap1\n      dup4\n      0xffffffffffffffff\n      and\n      mul\n      or\n      swap1\n      sstore\n      pop\n      pop\n        /* \"contracts/ERC721Contract.sol\":2712:2718  uint i */\n      0x00\n        /* \"contracts/ERC721Contract.sol\":2729:3022  while (i<n){... */\n    tag_264:\n        /* \"contracts/ERC721Contract.sol\":2738:2739  n */\n      dup2\n        /* \"contracts/ERC721Contract.sol\":2736:2737  i */\n      dup2\n        /* \"contracts/ERC721Contract.sol\":2736:2739  i<n */\n      lt\n        /* \"contracts/ERC721Contract.sol\":2729:3022  while (i<n){... */\n      iszero\n      tag_265\n      jumpi\n        /* \"contracts/ERC721Contract.sol\":2840:2849  tokenURIs */\n      0x02\n        /* \"contracts/ERC721Contract.sol\":2840:2858  tokenURIs[tokenId] */\n      0x00\n        /* \"contracts/ERC721Contract.sol\":2850:2857  tokenId */\n      dup5\n        /* \"contracts/ERC721Contract.sol\":2840:2858  tokenURIs[tokenId] */\n      dup2\n      mstore\n      0x20\n      add\n      swap1\n      dup2\n      mstore\n      0x20\n      add\n      0x00\n      keccak256\n        /* \"contracts/ERC721Contract.sol\":2823:2859  abi.encodePacked(tokenURIs[tokenId]) */\n      add(0x20, mload(0x40))\n      tag_266\n      swap2\n      swap1\n      tag_267\n      jump\t// in\n    tag_266:\n      mload(0x40)\n      0x20\n      dup2\n      dup4\n      sub\n      sub\n      dup2\n      mstore\n      swap1\n      0x40\n      mstore\n        /* \"contracts/ERC721Contract.sol\":2813:2860  keccak256(abi.encodePacked(tokenURIs[tokenId])) */\n      dup1\n      mload\n      swap1\n      0x20\n      add\n      keccak256\n        /* \"contracts/ERC721Contract.sol\":2783:2798  tokenCollection */\n      0x01\n        /* \"contracts/ERC721Contract.sol\":2783:2804  tokenCollection[from] */\n      0x00\n        /* \"contracts/ERC721Contract.sol\":2799:2803  from */\n      dup8\n        /* \"contracts/ERC721Contract.sol\":2783:2804  tokenCollection[from] */\n      0xffffffffffffffffffffffffffffffffffffffff\n      and\n      0xffffffffffffffffffffffffffffffffffffffff\n      and\n      dup2\n      mstore\n      0x20\n      add\n      swap1\n      dup2\n      mstore\n      0x20\n      add\n      0x00\n      keccak256\n        /* \"contracts/ERC721Contract.sol\":2805:2806  i */\n      dup3\n        /* \"contracts/ERC721Contract.sol\":2783:2807  tokenCollection[from][i] */\n      dup2\n      sload\n      dup2\n      lt\n      tag_268\n      jumpi\n      tag_269\n      tag_175\n      jump\t// in\n    tag_269:\n    tag_268:\n      swap1\n      0x00\n      mstore\n      keccak256(0x00, 0x20)\n      add\n        /* \"contracts/ERC721Contract.sol\":2766:2808  abi.encodePacked(tokenCollection[from][i]) */\n      add(0x20, mload(0x40))\n      tag_271\n      swap2\n      swap1\n      tag_267\n      jump\t// in\n    tag_271:\n      mload(0x40)\n      0x20\n      dup2\n      dup4\n      sub\n      sub\n      dup2\n      mstore\n      swap1\n      0x40\n      mstore\n        /* \"contracts/ERC721Contract.sol\":2756:2809  keccak256(abi.encodePacked(tokenCollection[from][i])) */\n      dup1\n      mload\n      swap1\n      0x20\n      add\n      keccak256\n        /* \"contracts/ERC721Contract.sol\":2756:2860  keccak256(abi.encodePacked(tokenCollection[from][i])) == keccak256(abi.encodePacked(tokenURIs[tokenId])) */\n      eq\n        /* \"contracts/ERC721Contract.sol\":2753:3013  if(keccak256(abi.encodePacked(tokenCollection[from][i])) == keccak256(abi.encodePacked(tokenURIs[tokenId]))){... */\n      iszero\n      tag_272\n      jumpi\n        /* \"contracts/ERC721Contract.sol\":2885:2900  tokenCollection */\n      0x01\n        /* \"contracts/ERC721Contract.sol\":2885:2906  tokenCollection[from] */\n      0x00\n        /* \"contracts/ERC721Contract.sol\":2901:2905  from */\n      dup7\n        /* \"contracts/ERC721Contract.sol\":2885:2906  tokenCollection[from] */\n      0xffffffffffffffffffffffffffffffffffffffff\n      and\n      0xffffffffffffffffffffffffffffffffffffffff\n      and\n      dup2\n      mstore\n      0x20\n      add\n      swap1\n      dup2\n      mstore\n      0x20\n      add\n      0x00\n      keccak256\n        /* \"contracts/ERC721Contract.sol\":2907:2908  i */\n      dup2\n        /* \"contracts/ERC721Contract.sol\":2885:2909  tokenCollection[from][i] */\n      dup2\n      sload\n      dup2\n      lt\n      tag_273\n      jumpi\n      tag_274\n      tag_175\n      jump\t// in\n    tag_274:\n    tag_273:\n      swap1\n      0x00\n      mstore\n      keccak256(0x00, 0x20)\n      add\n      0x00\n        /* \"contracts/ERC721Contract.sol\":2878:2909  delete tokenCollection[from][i] */\n      tag_276\n      swap2\n      swap1\n      tag_277\n      jump\t// in\n    tag_276:\n        /* \"contracts/ERC721Contract.sol\":2926:2957  remove(i,tokenCollection[from]) */\n      tag_278\n        /* \"contracts/ERC721Contract.sol\":2933:2934  i */\n      dup2\n        /* \"contracts/ERC721Contract.sol\":2935:2950  tokenCollection */\n      0x01\n        /* \"contracts/ERC721Contract.sol\":2935:2956  tokenCollection[from] */\n      0x00\n        /* \"contracts/ERC721Contract.sol\":2951:2955  from */\n      dup9\n        /* \"contracts/ERC721Contract.sol\":2935:2956  tokenCollection[from] */\n      0xffffffffffffffffffffffffffffffffffffffff\n      and\n      0xffffffffffffffffffffffffffffffffffffffff\n      and\n      dup2\n      mstore\n      0x20\n      add\n      swap1\n      dup2\n      mstore\n      0x20\n      add\n      0x00\n      keccak256\n        /* \"contracts/ERC721Contract.sol\":2926:2957  remove(i,tokenCollection[from]) */\n      dup1\n      sload\n      dup1\n      0x20\n      mul\n      0x20\n      add\n      mload(0x40)\n      swap1\n      dup2\n      add\n      0x40\n      mstore\n      dup1\n      swap3\n      swap2\n      swap1\n      dup2\n      dup2\n      mstore\n      0x20\n      add\n      0x00\n      swap1\n    tag_279:\n      dup3\n      dup3\n      lt\n      iszero\n      tag_280\n      jumpi\n      dup4\n      dup3\n      swap1\n      0x00\n      mstore\n      keccak256(0x00, 0x20)\n      add\n      dup1\n      sload\n      tag_282\n      swap1\n      tag_187\n      jump\t// in\n    tag_282:\n      dup1\n      0x1f\n      add\n      0x20\n      dup1\n      swap2\n      div\n      mul\n      0x20\n      add\n      mload(0x40)\n      swap1\n      dup2\n      add\n      0x40\n      mstore\n      dup1\n      swap3\n      swap2\n      swap1\n      dup2\n      dup2\n      mstore\n      0x20\n      add\n      dup3\n      dup1\n      sload\n      tag_283\n      swap1\n      tag_187\n      jump\t// in\n    tag_283:\n      dup1\n      iszero\n      tag_284\n      jumpi\n      dup1\n      0x1f\n      lt\n      tag_285\n      jumpi\n      0x0100\n      dup1\n      dup4\n      sload\n      div\n      mul\n      dup4\n      mstore\n      swap2\n      0x20\n      add\n      swap2\n      jump(tag_284)\n    tag_285:\n      dup3\n      add\n      swap2\n      swap1\n      0x00\n      mstore\n      keccak256(0x00, 0x20)\n      swap1\n    tag_286:\n      dup2\n      sload\n      dup2\n      mstore\n      swap1\n      0x01\n      add\n      swap1\n      0x20\n      add\n      dup1\n      dup4\n      gt\n      tag_286\n      jumpi\n      dup3\n      swap1\n      sub\n      0x1f\n      and\n      dup3\n      add\n      swap2\n    tag_284:\n      pop\n      pop\n      pop\n      pop\n      pop\n      dup2\n      mstore\n      0x20\n      add\n      swap1\n      0x01\n      add\n      swap1\n      jump(tag_279)\n    tag_280:\n      pop\n      pop\n      pop\n      pop\n        /* \"contracts/ERC721Contract.sol\":2926:2932  remove */\n      tag_83\n        /* \"contracts/ERC721Contract.sol\":2926:2957  remove(i,tokenCollection[from]) */\n      jump\t// in\n    tag_278:\n        /* \"contracts/ERC721Contract.sol\":2976:2977  n */\n      dup2\n        /* \"contracts/ERC721Contract.sol\":2974:2977  i=n */\n      swap1\n      pop\n        /* \"contracts/ERC721Contract.sol\":2753:3013  if(keccak256(abi.encodePacked(tokenCollection[from][i])) == keccak256(abi.encodePacked(tokenURIs[tokenId]))){... */\n      jump(tag_287)\n    tag_272:\n        /* \"contracts/ERC721Contract.sol\":3008:3011  i++ */\n      dup1\n      dup1\n      tag_288\n      swap1\n      tag_155\n      jump\t// in\n    tag_288:\n      swap2\n      pop\n      pop\n        /* \"contracts/ERC721Contract.sol\":2753:3013  if(keccak256(abi.encodePacked(tokenCollection[from][i])) == keccak256(abi.encodePacked(tokenURIs[tokenId]))){... */\n    tag_287:\n        /* \"contracts/ERC721Contract.sol\":2729:3022  while (i<n){... */\n      jump(tag_264)\n    tag_265:\n        /* \"contracts/ERC721Contract.sol\":3055:3062  tokenId */\n      dup3\n        /* \"contracts/ERC721Contract.sol\":3051:3053  to */\n      dup5\n        /* \"contracts/ERC721Contract.sol\":3036:3063  Transfer(from, to, tokenId) */\n      0xffffffffffffffffffffffffffffffffffffffff\n      and\n        /* \"contracts/ERC721Contract.sol\":3045:3049  from */\n      dup7\n        /* \"contracts/ERC721Contract.sol\":3036:3063  Transfer(from, to, tokenId) */\n      0xffffffffffffffffffffffffffffffffffffffff\n      and\n      0xddf252ad1be2c89b69c2b068fc378daa952ba7f163c4a11628f55a4df523b3ef\n      mload(0x40)\n      mload(0x40)\n      dup1\n      swap2\n      sub\n      swap1\n      log4\n        /* \"contracts/ERC721Contract.sol\":2335:3070  {... */\n      pop\n      pop\n        /* \"contracts/ERC721Contract.sol\":2256:3070  function _transfer(address from, address to, uint256 tokenId) internal virtual {... */\n      pop\n      pop\n      pop\n      jump\t// out\n    tag_133:\n      dup3\n      dup1\n      sload\n      tag_289\n      swap1\n      tag_187\n      jump\t// in\n    tag_289:\n      swap1\n      0x00\n      mstore\n      keccak256(0x00, 0x20)\n      swap1\n      0x1f\n      add\n      0x20\n      swap1\n      div\n      dup2\n      add\n      swap3\n      dup3\n      tag_291\n      jumpi\n      0x00\n      dup6\n      sstore\n      jump(tag_290)\n    tag_291:\n      dup3\n      0x1f\n      lt\n      tag_292\n      jumpi\n      dup1\n      mload\n      not(0xff)\n      and\n      dup4\n      dup1\n      add\n      or\n      dup6\n      sstore\n      jump(tag_290)\n    tag_292:\n      dup3\n      dup1\n      add\n      0x01\n      add\n      dup6\n      sstore\n      dup3\n      iszero\n      tag_290\n      jumpi\n      swap2\n      dup3\n      add\n    tag_293:\n      dup3\n      dup2\n      gt\n      iszero\n      tag_294\n      jumpi\n      dup3\n      mload\n      dup3\n      sstore\n      swap2\n      0x20\n      add\n      swap2\n      swap1\n      0x01\n      add\n      swap1\n      jump(tag_293)\n    tag_294:\n    tag_290:\n      pop\n      swap1\n      pop\n      tag_295\n      swap2\n      swap1\n      tag_296\n      jump\t// in\n    tag_295:\n      pop\n      swap1\n      jump\t// out\n    tag_277:\n      pop\n      dup1\n      sload\n      tag_297\n      swap1\n      tag_187\n      jump\t// in\n    tag_297:\n      0x00\n      dup3\n      sstore\n      dup1\n      0x1f\n      lt\n      tag_299\n      jumpi\n      pop\n      jump(tag_298)\n    tag_299:\n      0x1f\n      add\n      0x20\n      swap1\n      div\n      swap1\n      0x00\n      mstore\n      keccak256(0x00, 0x20)\n      swap1\n      dup2\n      add\n      swap1\n      tag_300\n      swap2\n      swap1\n      tag_296\n      jump\t// in\n    tag_300:\n    tag_298:\n      pop\n      jump\t// out\n    tag_296:\n    tag_301:\n      dup1\n      dup3\n      gt\n      iszero\n      tag_302\n      jumpi\n      0x00\n      dup2\n      0x00\n      swap1\n      sstore\n      pop\n      0x01\n      add\n      jump(tag_301)\n    tag_302:\n      pop\n      swap1\n      jump\t// out\n        /* \"#utility.yul\":23:980   */\n    tag_304:\n        /* \"#utility.yul\":129:134   */\n      0x00\n        /* \"#utility.yul\":154:245   */\n      tag_306\n        /* \"#utility.yul\":170:244   */\n      tag_307\n        /* \"#utility.yul\":237:243   */\n      dup5\n        /* \"#utility.yul\":170:244   */\n      tag_308\n      jump\t// in\n    tag_307:\n        /* \"#utility.yul\":154:245   */\n      tag_309\n      jump\t// in\n    tag_306:\n        /* \"#utility.yul\":145:245   */\n      swap1\n      pop\n        /* \"#utility.yul\":265:270   */\n      dup1\n        /* \"#utility.yul\":294:300   */\n      dup4\n        /* \"#utility.yul\":287:292   */\n      dup3\n        /* \"#utility.yul\":280:301   */\n      mstore\n        /* \"#utility.yul\":328:332   */\n      0x20\n        /* \"#utility.yul\":321:326   */\n      dup3\n        /* \"#utility.yul\":317:333   */\n      add\n        /* \"#utility.yul\":310:333   */\n      swap1\n      pop\n        /* \"#utility.yul\":354:360   */\n      dup3\n        /* \"#utility.yul\":404:407   */\n      dup6\n        /* \"#utility.yul\":396:400   */\n      0x20\n        /* \"#utility.yul\":388:394   */\n      dup7\n        /* \"#utility.yul\":384:401   */\n      mul\n        /* \"#utility.yul\":379:382   */\n      dup3\n        /* \"#utility.yul\":375:402   */\n      add\n        /* \"#utility.yul\":372:408   */\n      gt\n        /* \"#utility.yul\":369:512   */\n      iszero\n      tag_310\n      jumpi\n        /* \"#utility.yul\":423:502   */\n      tag_311\n      tag_312\n      jump\t// in\n    tag_311:\n        /* \"#utility.yul\":369:512   */\n    tag_310:\n        /* \"#utility.yul\":536:537   */\n      0x00\n        /* \"#utility.yul\":521:974   */\n    tag_313:\n        /* \"#utility.yul\":546:552   */\n      dup6\n        /* \"#utility.yul\":543:544   */\n      dup2\n        /* \"#utility.yul\":540:553   */\n      lt\n        /* \"#utility.yul\":521:974   */\n      iszero\n      tag_315\n      jumpi\n        /* \"#utility.yul\":628:631   */\n      dup2\n        /* \"#utility.yul\":615:632   */\n      calldataload\n        /* \"#utility.yul\":664:682   */\n      0xffffffffffffffff\n        /* \"#utility.yul\":651:662   */\n      dup2\n        /* \"#utility.yul\":648:683   */\n      gt\n        /* \"#utility.yul\":645:767   */\n      iszero\n      tag_316\n      jumpi\n        /* \"#utility.yul\":686:765   */\n      tag_317\n      tag_318\n      jump\t// in\n    tag_317:\n        /* \"#utility.yul\":645:767   */\n    tag_316:\n        /* \"#utility.yul\":810:821   */\n      dup1\n        /* \"#utility.yul\":802:808   */\n      dup7\n        /* \"#utility.yul\":798:822   */\n      add\n        /* \"#utility.yul\":848:895   */\n      tag_319\n        /* \"#utility.yul\":891:894   */\n      dup10\n        /* \"#utility.yul\":879:889   */\n      dup3\n        /* \"#utility.yul\":848:895   */\n      tag_320\n      jump\t// in\n    tag_319:\n        /* \"#utility.yul\":843:846   */\n      dup6\n        /* \"#utility.yul\":836:896   */\n      mstore\n        /* \"#utility.yul\":925:929   */\n      0x20\n        /* \"#utility.yul\":920:923   */\n      dup6\n        /* \"#utility.yul\":916:930   */\n      add\n        /* \"#utility.yul\":909:930   */\n      swap5\n      pop\n        /* \"#utility.yul\":959:963   */\n      0x20\n        /* \"#utility.yul\":954:957   */\n      dup5\n        /* \"#utility.yul\":950:964   */\n      add\n        /* \"#utility.yul\":943:964   */\n      swap4\n      pop\n        /* \"#utility.yul\":581:974   */\n      pop\n      pop\n        /* \"#utility.yul\":568:569   */\n      0x01\n        /* \"#utility.yul\":565:566   */\n      dup2\n        /* \"#utility.yul\":561:570   */\n      add\n        /* \"#utility.yul\":556:570   */\n      swap1\n      pop\n        /* \"#utility.yul\":521:974   */\n      jump(tag_313)\n    tag_315:\n        /* \"#utility.yul\":525:539   */\n      pop\n        /* \"#utility.yul\":135:980   */\n      pop\n      pop\n        /* \"#utility.yul\":23:980   */\n      swap4\n      swap3\n      pop\n      pop\n      pop\n      jump\t// out\n        /* \"#utility.yul\":986:1396   */\n    tag_321:\n        /* \"#utility.yul\":1063:1068   */\n      0x00\n        /* \"#utility.yul\":1088:1153   */\n      tag_323\n        /* \"#utility.yul\":1104:1152   */\n      tag_324\n        /* \"#utility.yul\":1145:1151   */\n      dup5\n        /* \"#utility.yul\":1104:1152   */\n      tag_325\n      jump\t// in\n    tag_324:\n        /* \"#utility.yul\":1088:1153   */\n      tag_309\n      jump\t// in\n    tag_323:\n        /* \"#utility.yul\":1079:1153   */\n      swap1\n      pop\n        /* \"#utility.yul\":1176:1182   */\n      dup3\n        /* \"#utility.yul\":1169:1174   */\n      dup2\n        /* \"#utility.yul\":1162:1183   */\n      mstore\n        /* \"#utility.yul\":1214:1218   */\n      0x20\n        /* \"#utility.yul\":1207:1212   */\n      dup2\n        /* \"#utility.yul\":1203:1219   */\n      add\n        /* \"#utility.yul\":1252:1255   */\n      dup5\n        /* \"#utility.yul\":1243:1249   */\n      dup5\n        /* \"#utility.yul\":1238:1241   */\n      dup5\n        /* \"#utility.yul\":1234:1250   */\n      add\n        /* \"#utility.yul\":1231:1256   */\n      gt\n        /* \"#utility.yul\":1228:1340   */\n      iszero\n      tag_326\n      jumpi\n        /* \"#utility.yul\":1259:1338   */\n      tag_327\n      tag_328\n      jump\t// in\n    tag_327:\n        /* \"#utility.yul\":1228:1340   */\n    tag_326:\n        /* \"#utility.yul\":1349:1390   */\n      tag_329\n        /* \"#utility.yul\":1383:1389   */\n      dup5\n        /* \"#utility.yul\":1378:1381   */\n      dup3\n        /* \"#utility.yul\":1373:1376   */\n      dup6\n        /* \"#utility.yul\":1349:1390   */\n      tag_330\n      jump\t// in\n    tag_329:\n        /* \"#utility.yul\":1069:1396   */\n      pop\n        /* \"#utility.yul\":986:1396   */\n      swap4\n      swap3\n      pop\n      pop\n      pop\n      jump\t// out\n        /* \"#utility.yul\":1402:1814   */\n    tag_331:\n        /* \"#utility.yul\":1480:1485   */\n      0x00\n        /* \"#utility.yul\":1505:1571   */\n      tag_333\n        /* \"#utility.yul\":1521:1570   */\n      tag_334\n        /* \"#utility.yul\":1563:1569   */\n      dup5\n        /* \"#utility.yul\":1521:1570   */\n      tag_335\n      jump\t// in\n    tag_334:\n        /* \"#utility.yul\":1505:1571   */\n      tag_309\n      jump\t// in\n    tag_333:\n        /* \"#utility.yul\":1496:1571   */\n      swap1\n      pop\n        /* \"#utility.yul\":1594:1600   */\n      dup3\n        /* \"#utility.yul\":1587:1592   */\n      dup2\n        /* \"#utility.yul\":1580:1601   */\n      mstore\n        /* \"#utility.yul\":1632:1636   */\n      0x20\n        /* \"#utility.yul\":1625:1630   */\n      dup2\n        /* \"#utility.yul\":1621:1637   */\n      add\n        /* \"#utility.yul\":1670:1673   */\n      dup5\n        /* \"#utility.yul\":1661:1667   */\n      dup5\n        /* \"#utility.yul\":1656:1659   */\n      dup5\n        /* \"#utility.yul\":1652:1668   */\n      add\n        /* \"#utility.yul\":1649:1674   */\n      gt\n        /* \"#utility.yul\":1646:1758   */\n      iszero\n      tag_336\n      jumpi\n        /* \"#utility.yul\":1677:1756   */\n      tag_337\n      tag_328\n      jump\t// in\n    tag_337:\n        /* \"#utility.yul\":1646:1758   */\n    tag_336:\n        /* \"#utility.yul\":1767:1808   */\n      tag_338\n        /* \"#utility.yul\":1801:1807   */\n      dup5\n        /* \"#utility.yul\":1796:1799   */\n      dup3\n        /* \"#utility.yul\":1791:1794   */\n      dup6\n        /* \"#utility.yul\":1767:1808   */\n      tag_330\n      jump\t// in\n    tag_338:\n        /* \"#utility.yul\":1486:1814   */\n      pop\n        /* \"#utility.yul\":1402:1814   */\n      swap4\n      swap3\n      pop\n      pop\n      pop\n      jump\t// out\n        /* \"#utility.yul\":1820:1959   */\n    tag_339:\n        /* \"#utility.yul\":1866:1871   */\n      0x00\n        /* \"#utility.yul\":1904:1910   */\n      dup2\n        /* \"#utility.yul\":1891:1911   */\n      calldataload\n        /* \"#utility.yul\":1882:1911   */\n      swap1\n      pop\n        /* \"#utility.yul\":1920:1953   */\n      tag_341\n        /* \"#utility.yul\":1947:1952   */\n      dup2\n        /* \"#utility.yul\":1920:1953   */\n      tag_342\n      jump\t// in\n    tag_341:\n        /* \"#utility.yul\":1820:1959   */\n      swap3\n      swap2\n      pop\n      pop\n      jump\t// out\n        /* \"#utility.yul\":1965:2108   */\n    tag_343:\n        /* \"#utility.yul\":2022:2027   */\n      0x00\n        /* \"#utility.yul\":2053:2059   */\n      dup2\n        /* \"#utility.yul\":2047:2060   */\n      mload\n        /* \"#utility.yul\":2038:2060   */\n      swap1\n      pop\n        /* \"#utility.yul\":2069:2102   */\n      tag_345\n        /* \"#utility.yul\":2096:2101   */\n      dup2\n        /* \"#utility.yul\":2069:2102   */\n      tag_342\n      jump\t// in\n    tag_345:\n        /* \"#utility.yul\":1965:2108   */\n      swap3\n      swap2\n      pop\n      pop\n      jump\t// out\n        /* \"#utility.yul\":2130:2520   */\n    tag_346:\n        /* \"#utility.yul\":2211:2216   */\n      0x00\n        /* \"#utility.yul\":2260:2263   */\n      dup3\n        /* \"#utility.yul\":2253:2257   */\n      0x1f\n        /* \"#utility.yul\":2245:2251   */\n      dup4\n        /* \"#utility.yul\":2241:2258   */\n      add\n        /* \"#utility.yul\":2237:2264   */\n      slt\n        /* \"#utility.yul\":2227:2349   */\n      tag_348\n      jumpi\n        /* \"#utility.yul\":2268:2347   */\n      tag_349\n      tag_318\n      jump\t// in\n    tag_349:\n        /* \"#utility.yul\":2227:2349   */\n    tag_348:\n        /* \"#utility.yul\":2385:2391   */\n      dup2\n        /* \"#utility.yul\":2372:2392   */\n      calldataload\n        /* \"#utility.yul\":2410:2514   */\n      tag_350\n        /* \"#utility.yul\":2510:2513   */\n      dup5\n        /* \"#utility.yul\":2502:2508   */\n      dup3\n        /* \"#utility.yul\":2495:2499   */\n      0x20\n        /* \"#utility.yul\":2487:2493   */\n      dup7\n        /* \"#utility.yul\":2483:2500   */\n      add\n        /* \"#utility.yul\":2410:2514   */\n      tag_304\n      jump\t// in\n    tag_350:\n        /* \"#utility.yul\":2401:2514   */\n      swap2\n      pop\n        /* \"#utility.yul\":2217:2520   */\n      pop\n        /* \"#utility.yul\":2130:2520   */\n      swap3\n      swap2\n      pop\n      pop\n      jump\t// out\n        /* \"#utility.yul\":2526:2659   */\n    tag_351:\n        /* \"#utility.yul\":2569:2574   */\n      0x00\n        /* \"#utility.yul\":2607:2613   */\n      dup2\n        /* \"#utility.yul\":2594:2614   */\n      calldataload\n        /* \"#utility.yul\":2585:2614   */\n      swap1\n      pop\n        /* \"#utility.yul\":2623:2653   */\n      tag_353\n        /* \"#utility.yul\":2647:2652   */\n      dup2\n        /* \"#utility.yul\":2623:2653   */\n      tag_354\n      jump\t// in\n    tag_353:\n        /* \"#utility.yul\":2526:2659   */\n      swap3\n      swap2\n      pop\n      pop\n      jump\t// out\n        /* \"#utility.yul\":2665:2802   */\n    tag_355:\n        /* \"#utility.yul\":2710:2715   */\n      0x00\n        /* \"#utility.yul\":2748:2754   */\n      dup2\n        /* \"#utility.yul\":2735:2755   */\n      calldataload\n        /* \"#utility.yul\":2726:2755   */\n      swap1\n      pop\n        /* \"#utility.yul\":2764:2796   */\n      tag_357\n        /* \"#utility.yul\":2790:2795   */\n      dup2\n        /* \"#utility.yul\":2764:2796   */\n      tag_358\n      jump\t// in\n    tag_357:\n        /* \"#utility.yul\":2665:2802   */\n      swap3\n      swap2\n      pop\n      pop\n      jump\t// out\n        /* \"#utility.yul\":2808:2949   */\n    tag_359:\n        /* \"#utility.yul\":2864:2869   */\n      0x00\n        /* \"#utility.yul\":2895:2901   */\n      dup2\n        /* \"#utility.yul\":2889:2902   */\n      mload\n        /* \"#utility.yul\":2880:2902   */\n      swap1\n      pop\n        /* \"#utility.yul\":2911:2943   */\n      tag_361\n        /* \"#utility.yul\":2937:2942   */\n      dup2\n        /* \"#utility.yul\":2911:2943   */\n      tag_358\n      jump\t// in\n    tag_361:\n        /* \"#utility.yul\":2808:2949   */\n      swap3\n      swap2\n      pop\n      pop\n      jump\t// out\n        /* \"#utility.yul\":2968:3306   */\n    tag_362:\n        /* \"#utility.yul\":3023:3028   */\n      0x00\n        /* \"#utility.yul\":3072:3075   */\n      dup3\n        /* \"#utility.yul\":3065:3069   */\n      0x1f\n        /* \"#utility.yul\":3057:3063   */\n      dup4\n        /* \"#utility.yul\":3053:3070   */\n      add\n        /* \"#utility.yul\":3049:3076   */\n      slt\n        /* \"#utility.yul\":3039:3161   */\n      tag_364\n      jumpi\n        /* \"#utility.yul\":3080:3159   */\n      tag_365\n      tag_318\n      jump\t// in\n    tag_365:\n        /* \"#utility.yul\":3039:3161   */\n    tag_364:\n        /* \"#utility.yul\":3197:3203   */\n      dup2\n        /* \"#utility.yul\":3184:3204   */\n      calldataload\n        /* \"#utility.yul\":3222:3300   */\n      tag_366\n        /* \"#utility.yul\":3296:3299   */\n      dup5\n        /* \"#utility.yul\":3288:3294   */\n      dup3\n        /* \"#utility.yul\":3281:3285   */\n      0x20\n        /* \"#utility.yul\":3273:3279   */\n      dup7\n        /* \"#utility.yul\":3269:3286   */\n      add\n        /* \"#utility.yul\":3222:3300   */\n      tag_321\n      jump\t// in\n    tag_366:\n        /* \"#utility.yul\":3213:3300   */\n      swap2\n      pop\n        /* \"#utility.yul\":3029:3306   */\n      pop\n        /* \"#utility.yul\":2968:3306   */\n      swap3\n      swap2\n      pop\n      pop\n      jump\t// out\n        /* \"#utility.yul\":3326:3666   */\n    tag_320:\n        /* \"#utility.yul\":3382:3387   */\n      0x00\n        /* \"#utility.yul\":3431:3434   */\n      dup3\n        /* \"#utility.yul\":3424:3428   */\n      0x1f\n        /* \"#utility.yul\":3416:3422   */\n      dup4\n        /* \"#utility.yul\":3412:3429   */\n      add\n        /* \"#utility.yul\":3408:3435   */\n      slt\n        /* \"#utility.yul\":3398:3520   */\n      tag_368\n      jumpi\n        /* \"#utility.yul\":3439:3518   */\n      tag_369\n      tag_318\n      jump\t// in\n    tag_369:\n        /* \"#utility.yul\":3398:3520   */\n    tag_368:\n        /* \"#utility.yul\":3556:3562   */\n      dup2\n        /* \"#utility.yul\":3543:3563   */\n      calldataload\n        /* \"#utility.yul\":3581:3660   */\n      tag_370\n        /* \"#utility.yul\":3656:3659   */\n      dup5\n        /* \"#utility.yul\":3648:3654   */\n      dup3\n        /* \"#utility.yul\":3641:3645   */\n      0x20\n        /* \"#utility.yul\":3633:3639   */\n      dup7\n        /* \"#utility.yul\":3629:3646   */\n      add\n        /* \"#utility.yul\":3581:3660   */\n      tag_331\n      jump\t// in\n    tag_370:\n        /* \"#utility.yul\":3572:3660   */\n      swap2\n      pop\n        /* \"#utility.yul\":3388:3666   */\n      pop\n        /* \"#utility.yul\":3326:3666   */\n      swap3\n      swap2\n      pop\n      pop\n      jump\t// out\n        /* \"#utility.yul\":3672:3811   */\n    tag_371:\n        /* \"#utility.yul\":3718:3723   */\n      0x00\n        /* \"#utility.yul\":3756:3762   */\n      dup2\n        /* \"#utility.yul\":3743:3763   */\n      calldataload\n        /* \"#utility.yul\":3734:3763   */\n      swap1\n      pop\n        /* \"#utility.yul\":3772:3805   */\n      tag_373\n        /* \"#utility.yul\":3799:3804   */\n      dup2\n        /* \"#utility.yul\":3772:3805   */\n      tag_374\n      jump\t// in\n    tag_373:\n        /* \"#utility.yul\":3672:3811   */\n      swap3\n      swap2\n      pop\n      pop\n      jump\t// out\n        /* \"#utility.yul\":3817:4146   */\n    tag_61:\n        /* \"#utility.yul\":3876:3882   */\n      0x00\n        /* \"#utility.yul\":3925:3927   */\n      0x20\n        /* \"#utility.yul\":3913:3922   */\n      dup3\n        /* \"#utility.yul\":3904:3911   */\n      dup5\n        /* \"#utility.yul\":3900:3923   */\n      sub\n        /* \"#utility.yul\":3896:3928   */\n      slt\n        /* \"#utility.yul\":3893:4012   */\n      iszero\n      tag_376\n      jumpi\n        /* \"#utility.yul\":3931:4010   */\n      tag_377\n      tag_378\n      jump\t// in\n    tag_377:\n        /* \"#utility.yul\":3893:4012   */\n    tag_376:\n        /* \"#utility.yul\":4051:4052   */\n      0x00\n        /* \"#utility.yul\":4076:4129   */\n      tag_379\n        /* \"#utility.yul\":4121:4128   */\n      dup5\n        /* \"#utility.yul\":4112:4118   */\n      dup3\n        /* \"#utility.yul\":4101:4110   */\n      dup6\n        /* \"#utility.yul\":4097:4119   */\n      add\n        /* \"#utility.yul\":4076:4129   */\n      tag_339\n      jump\t// in\n    tag_379:\n        /* \"#utility.yul\":4066:4129   */\n      swap2\n      pop\n        /* \"#utility.yul\":4022:4139   */\n      pop\n        /* \"#utility.yul\":3817:4146   */\n      swap3\n      swap2\n      pop\n      pop\n      jump\t// out\n        /* \"#utility.yul\":4152:4503   */\n    tag_231:\n        /* \"#utility.yul\":4222:4228   */\n      0x00\n        /* \"#utility.yul\":4271:4273   */\n      0x20\n        /* \"#utility.yul\":4259:4268   */\n      dup3\n        /* \"#utility.yul\":4250:4257   */\n      dup5\n        /* \"#utility.yul\":4246:4269   */\n      sub\n        /* \"#utility.yul\":4242:4274   */\n      slt\n        /* \"#utility.yul\":4239:4358   */\n      iszero\n      tag_381\n      jumpi\n        /* \"#utility.yul\":4277:4356   */\n      tag_382\n      tag_378\n      jump\t// in\n    tag_382:\n        /* \"#utility.yul\":4239:4358   */\n    tag_381:\n        /* \"#utility.yul\":4397:4398   */\n      0x00\n        /* \"#utility.yul\":4422:4486   */\n      tag_383\n        /* \"#utility.yul\":4478:4485   */\n      dup5\n        /* \"#utility.yul\":4469:4475   */\n      dup3\n        /* \"#utility.yul\":4458:4467   */\n      dup6\n        /* \"#utility.yul\":4454:4476   */\n      add\n        /* \"#utility.yul\":4422:4486   */\n      tag_343\n      jump\t// in\n    tag_383:\n        /* \"#utility.yul\":4412:4486   */\n      swap2\n      pop\n        /* \"#utility.yul\":4368:4496   */\n      pop\n        /* \"#utility.yul\":4152:4503   */\n      swap3\n      swap2\n      pop\n      pop\n      jump\t// out\n        /* \"#utility.yul\":4509:4983   */\n    tag_108:\n        /* \"#utility.yul\":4577:4583   */\n      0x00\n        /* \"#utility.yul\":4585:4591   */\n      dup1\n        /* \"#utility.yul\":4634:4636   */\n      0x40\n        /* \"#utility.yul\":4622:4631   */\n      dup4\n        /* \"#utility.yul\":4613:4620   */\n      dup6\n        /* \"#utility.yul\":4609:4632   */\n      sub\n        /* \"#utility.yul\":4605:4637   */\n      slt\n        /* \"#utility.yul\":4602:4721   */\n      iszero\n      tag_385\n      jumpi\n        /* \"#utility.yul\":4640:4719   */\n      tag_386\n      tag_378\n      jump\t// in\n    tag_386:\n        /* \"#utility.yul\":4602:4721   */\n    tag_385:\n        /* \"#utility.yul\":4760:4761   */\n      0x00\n        /* \"#utility.yul\":4785:4838   */\n      tag_387\n        /* \"#utility.yul\":4830:4837   */\n      dup6\n        /* \"#utility.yul\":4821:4827   */\n      dup3\n        /* \"#utility.yul\":4810:4819   */\n      dup7\n        /* \"#utility.yul\":4806:4828   */\n      add\n        /* \"#utility.yul\":4785:4838   */\n      tag_339\n      jump\t// in\n    tag_387:\n        /* \"#utility.yul\":4775:4838   */\n      swap3\n      pop\n        /* \"#utility.yul\":4731:4848   */\n      pop\n        /* \"#utility.yul\":4887:4889   */\n      0x20\n        /* \"#utility.yul\":4913:4966   */\n      tag_388\n        /* \"#utility.yul\":4958:4965   */\n      dup6\n        /* \"#utility.yul\":4949:4955   */\n      dup3\n        /* \"#utility.yul\":4938:4947   */\n      dup7\n        /* \"#utility.yul\":4934:4956   */\n      add\n        /* \"#utility.yul\":4913:4966   */\n      tag_339\n      jump\t// in\n    tag_388:\n        /* \"#utility.yul\":4903:4966   */\n      swap2\n      pop\n        /* \"#utility.yul\":4858:4976   */\n      pop\n        /* \"#utility.yul\":4509:4983   */\n      swap3\n      pop\n      swap3\n      swap1\n      pop\n      jump\t// out\n        /* \"#utility.yul\":4989:5608   */\n    tag_42:\n        /* \"#utility.yul\":5066:5072   */\n      0x00\n        /* \"#utility.yul\":5074:5080   */\n      dup1\n        /* \"#utility.yul\":5082:5088   */\n      0x00\n        /* \"#utility.yul\":5131:5133   */\n      0x60\n        /* \"#utility.yul\":5119:5128   */\n      dup5\n        /* \"#utility.yul\":5110:5117   */\n      dup7\n        /* \"#utility.yul\":5106:5129   */\n      sub\n        /* \"#utility.yul\":5102:5134   */\n      slt\n        /* \"#utility.yul\":5099:5218   */\n      iszero\n      tag_390\n      jumpi\n        /* \"#utility.yul\":5137:5216   */\n      tag_391\n      tag_378\n      jump\t// in\n    tag_391:\n        /* \"#utility.yul\":5099:5218   */\n    tag_390:\n        /* \"#utility.yul\":5257:5258   */\n      0x00\n        /* \"#utility.yul\":5282:5335   */\n      tag_392\n        /* \"#utility.yul\":5327:5334   */\n      dup7\n        /* \"#utility.yul\":5318:5324   */\n      dup3\n        /* \"#utility.yul\":5307:5316   */\n      dup8\n        /* \"#utility.yul\":5303:5325   */\n      add\n        /* \"#utility.yul\":5282:5335   */\n      tag_339\n      jump\t// in\n    tag_392:\n        /* \"#utility.yul\":5272:5335   */\n      swap4\n      pop\n        /* \"#utility.yul\":5228:5345   */\n      pop\n        /* \"#utility.yul\":5384:5386   */\n      0x20\n        /* \"#utility.yul\":5410:5463   */\n      tag_393\n        /* \"#utility.yul\":5455:5462   */\n      dup7\n        /* \"#utility.yul\":5446:5452   */\n      dup3\n        /* \"#utility.yul\":5435:5444   */\n      dup8\n        /* \"#utility.yul\":5431:5453   */\n      add\n        /* \"#utility.yul\":5410:5463   */\n      tag_339\n      jump\t// in\n    tag_393:\n        /* \"#utility.yul\":5400:5463   */\n      swap3\n      pop\n        /* \"#utility.yul\":5355:5473   */\n      pop\n        /* \"#utility.yul\":5512:5514   */\n      0x40\n        /* \"#utility.yul\":5538:5591   */\n      tag_394\n        /* \"#utility.yul\":5583:5590   */\n      dup7\n        /* \"#utility.yul\":5574:5580   */\n      dup3\n        /* \"#utility.yul\":5563:5572   */\n      dup8\n        /* \"#utility.yul\":5559:5581   */\n      add\n        /* \"#utility.yul\":5538:5591   */\n      tag_371\n      jump\t// in\n    tag_394:\n        /* \"#utility.yul\":5528:5591   */\n      swap2\n      pop\n        /* \"#utility.yul\":5483:5601   */\n      pop\n        /* \"#utility.yul\":4989:5608   */\n      swap3\n      pop\n      swap3\n      pop\n      swap3\n      jump\t// out\n        /* \"#utility.yul\":5614:6557   */\n    tag_103:\n        /* \"#utility.yul\":5709:5715   */\n      0x00\n        /* \"#utility.yul\":5717:5723   */\n      dup1\n        /* \"#utility.yul\":5725:5731   */\n      0x00\n        /* \"#utility.yul\":5733:5739   */\n      dup1\n        /* \"#utility.yul\":5782:5785   */\n      0x80\n        /* \"#utility.yul\":5770:5779   */\n      dup6\n        /* \"#utility.yul\":5761:5768   */\n      dup8\n        /* \"#utility.yul\":5757:5780   */\n      sub\n        /* \"#utility.yul\":5753:5786   */\n      slt\n        /* \"#utility.yul\":5750:5870   */\n      iszero\n      tag_396\n      jumpi\n        /* \"#utility.yul\":5789:5868   */\n      tag_397\n      tag_378\n      jump\t// in\n    tag_397:\n        /* \"#utility.yul\":5750:5870   */\n    tag_396:\n        /* \"#utility.yul\":5909:5910   */\n      0x00\n        /* \"#utility.yul\":5934:5987   */\n      tag_398\n        /* \"#utility.yul\":5979:5986   */\n      dup8\n        /* \"#utility.yul\":5970:5976   */\n      dup3\n        /* \"#utility.yul\":5959:5968   */\n      dup9\n        /* \"#utility.yul\":5955:5977   */\n      add\n        /* \"#utility.yul\":5934:5987   */\n      tag_339\n      jump\t// in\n    tag_398:\n        /* \"#utility.yul\":5924:5987   */\n      swap5\n      pop\n        /* \"#utility.yul\":5880:5997   */\n      pop\n        /* \"#utility.yul\":6036:6038   */\n      0x20\n        /* \"#utility.yul\":6062:6115   */\n      tag_399\n        /* \"#utility.yul\":6107:6114   */\n      dup8\n        /* \"#utility.yul\":6098:6104   */\n      dup3\n        /* \"#utility.yul\":6087:6096   */\n      dup9\n        /* \"#utility.yul\":6083:6105   */\n      add\n        /* \"#utility.yul\":6062:6115   */\n      tag_339\n      jump\t// in\n    tag_399:\n        /* \"#utility.yul\":6052:6115   */\n      swap4\n      pop\n        /* \"#utility.yul\":6007:6125   */\n      pop\n        /* \"#utility.yul\":6164:6166   */\n      0x40\n        /* \"#utility.yul\":6190:6243   */\n      tag_400\n        /* \"#utility.yul\":6235:6242   */\n      dup8\n        /* \"#utility.yul\":6226:6232   */\n      dup3\n        /* \"#utility.yul\":6215:6224   */\n      dup9\n        /* \"#utility.yul\":6211:6233   */\n      add\n        /* \"#utility.yul\":6190:6243   */\n      tag_371\n      jump\t// in\n    tag_400:\n        /* \"#utility.yul\":6180:6243   */\n      swap3\n      pop\n        /* \"#utility.yul\":6135:6253   */\n      pop\n        /* \"#utility.yul\":6320:6322   */\n      0x60\n        /* \"#utility.yul\":6309:6318   */\n      dup6\n        /* \"#utility.yul\":6305:6323   */\n      add\n        /* \"#utility.yul\":6292:6324   */\n      calldataload\n        /* \"#utility.yul\":6351:6369   */\n      0xffffffffffffffff\n        /* \"#utility.yul\":6343:6349   */\n      dup2\n        /* \"#utility.yul\":6340:6370   */\n      gt\n        /* \"#utility.yul\":6337:6454   */\n      iszero\n      tag_401\n      jumpi\n        /* \"#utility.yul\":6373:6452   */\n      tag_402\n      tag_403\n      jump\t// in\n    tag_402:\n        /* \"#utility.yul\":6337:6454   */\n    tag_401:\n        /* \"#utility.yul\":6478:6540   */\n      tag_404\n        /* \"#utility.yul\":6532:6539   */\n      dup8\n        /* \"#utility.yul\":6523:6529   */\n      dup3\n        /* \"#utility.yul\":6512:6521   */\n      dup9\n        /* \"#utility.yul\":6508:6530   */\n      add\n        /* \"#utility.yul\":6478:6540   */\n      tag_362\n      jump\t// in\n    tag_404:\n        /* \"#utility.yul\":6468:6540   */\n      swap2\n      pop\n        /* \"#utility.yul\":6263:6550   */\n      pop\n        /* \"#utility.yul\":5614:6557   */\n      swap3\n      swap6\n      swap2\n      swap5\n      pop\n      swap3\n      pop\n      jump\t// out\n        /* \"#utility.yul\":6563:7031   */\n    tag_99:\n        /* \"#utility.yul\":6628:6634   */\n      0x00\n        /* \"#utility.yul\":6636:6642   */\n      dup1\n        /* \"#utility.yul\":6685:6687   */\n      0x40\n        /* \"#utility.yul\":6673:6682   */\n      dup4\n        /* \"#utility.yul\":6664:6671   */\n      dup6\n        /* \"#utility.yul\":6660:6683   */\n      sub\n        /* \"#utility.yul\":6656:6688   */\n      slt\n        /* \"#utility.yul\":6653:6772   */\n      iszero\n      tag_406\n      jumpi\n        /* \"#utility.yul\":6691:6770   */\n      tag_407\n      tag_378\n      jump\t// in\n    tag_407:\n        /* \"#utility.yul\":6653:6772   */\n    tag_406:\n        /* \"#utility.yul\":6811:6812   */\n      0x00\n        /* \"#utility.yul\":6836:6889   */\n      tag_408\n        /* \"#utility.yul\":6881:6888   */\n      dup6\n        /* \"#utility.yul\":6872:6878   */\n      dup3\n        /* \"#utility.yul\":6861:6870   */\n      dup7\n        /* \"#utility.yul\":6857:6879   */\n      add\n        /* \"#utility.yul\":6836:6889   */\n      tag_339\n      jump\t// in\n    tag_408:\n        /* \"#utility.yul\":6826:6889   */\n      swap3\n      pop\n        /* \"#utility.yul\":6782:6899   */\n      pop\n        /* \"#utility.yul\":6938:6940   */\n      0x20\n        /* \"#utility.yul\":6964:7014   */\n      tag_409\n        /* \"#utility.yul\":7006:7013   */\n      dup6\n        /* \"#utility.yul\":6997:7003   */\n      dup3\n        /* \"#utility.yul\":6986:6995   */\n      dup7\n        /* \"#utility.yul\":6982:7004   */\n      add\n        /* \"#utility.yul\":6964:7014   */\n      tag_351\n      jump\t// in\n    tag_409:\n        /* \"#utility.yul\":6954:7014   */\n      swap2\n      pop\n        /* \"#utility.yul\":6909:7024   */\n      pop\n        /* \"#utility.yul\":6563:7031   */\n      swap3\n      pop\n      swap3\n      swap1\n      pop\n      jump\t// out\n        /* \"#utility.yul\":7037:7691   */\n    tag_47:\n        /* \"#utility.yul\":7115:7121   */\n      0x00\n        /* \"#utility.yul\":7123:7129   */\n      dup1\n        /* \"#utility.yul\":7172:7174   */\n      0x40\n        /* \"#utility.yul\":7160:7169   */\n      dup4\n        /* \"#utility.yul\":7151:7158   */\n      dup6\n        /* \"#utility.yul\":7147:7170   */\n      sub\n        /* \"#utility.yul\":7143:7175   */\n      slt\n        /* \"#utility.yul\":7140:7259   */\n      iszero\n      tag_411\n      jumpi\n        /* \"#utility.yul\":7178:7257   */\n      tag_412\n      tag_378\n      jump\t// in\n    tag_412:\n        /* \"#utility.yul\":7140:7259   */\n    tag_411:\n        /* \"#utility.yul\":7298:7299   */\n      0x00\n        /* \"#utility.yul\":7323:7376   */\n      tag_413\n        /* \"#utility.yul\":7368:7375   */\n      dup6\n        /* \"#utility.yul\":7359:7365   */\n      dup3\n        /* \"#utility.yul\":7348:7357   */\n      dup7\n        /* \"#utility.yul\":7344:7366   */\n      add\n        /* \"#utility.yul\":7323:7376   */\n      tag_339\n      jump\t// in\n    tag_413:\n        /* \"#utility.yul\":7313:7376   */\n      swap3\n      pop\n        /* \"#utility.yul\":7269:7386   */\n      pop\n        /* \"#utility.yul\":7453:7455   */\n      0x20\n        /* \"#utility.yul\":7442:7451   */\n      dup4\n        /* \"#utility.yul\":7438:7456   */\n      add\n        /* \"#utility.yul\":7425:7457   */\n      calldataload\n        /* \"#utility.yul\":7484:7502   */\n      0xffffffffffffffff\n        /* \"#utility.yul\":7476:7482   */\n      dup2\n        /* \"#utility.yul\":7473:7503   */\n      gt\n        /* \"#utility.yul\":7470:7587   */\n      iszero\n      tag_414\n      jumpi\n        /* \"#utility.yul\":7506:7585   */\n      tag_415\n      tag_403\n      jump\t// in\n    tag_415:\n        /* \"#utility.yul\":7470:7587   */\n    tag_414:\n        /* \"#utility.yul\":7611:7674   */\n      tag_416\n        /* \"#utility.yul\":7666:7673   */\n      dup6\n        /* \"#utility.yul\":7657:7663   */\n      dup3\n        /* \"#utility.yul\":7646:7655   */\n      dup7\n        /* \"#utility.yul\":7642:7664   */\n      add\n        /* \"#utility.yul\":7611:7674   */\n      tag_320\n      jump\t// in\n    tag_416:\n        /* \"#utility.yul\":7601:7674   */\n      swap2\n      pop\n        /* \"#utility.yul\":7396:7684   */\n      pop\n        /* \"#utility.yul\":7037:7691   */\n      swap3\n      pop\n      swap3\n      swap1\n      pop\n      jump\t// out\n        /* \"#utility.yul\":7697:8171   */\n    tag_38:\n        /* \"#utility.yul\":7765:7771   */\n      0x00\n        /* \"#utility.yul\":7773:7779   */\n      dup1\n        /* \"#utility.yul\":7822:7824   */\n      0x40\n        /* \"#utility.yul\":7810:7819   */\n      dup4\n        /* \"#utility.yul\":7801:7808   */\n      dup6\n        /* \"#utility.yul\":7797:7820   */\n      sub\n        /* \"#utility.yul\":7793:7825   */\n      slt\n        /* \"#utility.yul\":7790:7909   */\n      iszero\n      tag_418\n      jumpi\n        /* \"#utility.yul\":7828:7907   */\n      tag_419\n      tag_378\n      jump\t// in\n    tag_419:\n        /* \"#utility.yul\":7790:7909   */\n    tag_418:\n        /* \"#utility.yul\":7948:7949   */\n      0x00\n        /* \"#utility.yul\":7973:8026   */\n      tag_420\n        /* \"#utility.yul\":8018:8025   */\n      dup6\n        /* \"#utility.yul\":8009:8015   */\n      dup3\n        /* \"#utility.yul\":7998:8007   */\n      dup7\n        /* \"#utility.yul\":7994:8016   */\n      add\n        /* \"#utility.yul\":7973:8026   */\n      tag_339\n      jump\t// in\n    tag_420:\n        /* \"#utility.yul\":7963:8026   */\n      swap3\n      pop\n        /* \"#utility.yul\":7919:8036   */\n      pop\n        /* \"#utility.yul\":8075:8077   */\n      0x20\n        /* \"#utility.yul\":8101:8154   */\n      tag_421\n        /* \"#utility.yul\":8146:8153   */\n      dup6\n        /* \"#utility.yul\":8137:8143   */\n      dup3\n        /* \"#utility.yul\":8126:8135   */\n      dup7\n        /* \"#utility.yul\":8122:8144   */\n      add\n        /* \"#utility.yul\":8101:8154   */\n      tag_371\n      jump\t// in\n    tag_421:\n        /* \"#utility.yul\":8091:8154   */\n      swap2\n      pop\n        /* \"#utility.yul\":8046:8164   */\n      pop\n        /* \"#utility.yul\":7697:8171   */\n      swap3\n      pop\n      swap3\n      swap1\n      pop\n      jump\t// out\n        /* \"#utility.yul\":8177:8504   */\n    tag_25:\n        /* \"#utility.yul\":8235:8241   */\n      0x00\n        /* \"#utility.yul\":8284:8286   */\n      0x20\n        /* \"#utility.yul\":8272:8281   */\n      dup3\n        /* \"#utility.yul\":8263:8270   */\n      dup5\n        /* \"#utility.yul\":8259:8282   */\n      sub\n        /* \"#utility.yul\":8255:8287   */\n      slt\n        /* \"#utility.yul\":8252:8371   */\n      iszero\n      tag_423\n      jumpi\n        /* \"#utility.yul\":8290:8369   */\n      tag_424\n      tag_378\n      jump\t// in\n    tag_424:\n        /* \"#utility.yul\":8252:8371   */\n    tag_423:\n        /* \"#utility.yul\":8410:8411   */\n      0x00\n        /* \"#utility.yul\":8435:8487   */\n      tag_425\n        /* \"#utility.yul\":8479:8486   */\n      dup5\n        /* \"#utility.yul\":8470:8476   */\n      dup3\n        /* \"#utility.yul\":8459:8468   */\n      dup6\n        /* \"#utility.yul\":8455:8477   */\n      add\n        /* \"#utility.yul\":8435:8487   */\n      tag_355\n      jump\t// in\n    tag_425:\n        /* \"#utility.yul\":8425:8487   */\n      swap2\n      pop\n        /* \"#utility.yul\":8381:8497   */\n      pop\n        /* \"#utility.yul\":8177:8504   */\n      swap3\n      swap2\n      pop\n      pop\n      jump\t// out\n        /* \"#utility.yul\":8510:8859   */\n    tag_251:\n        /* \"#utility.yul\":8579:8585   */\n      0x00\n        /* \"#utility.yul\":8628:8630   */\n      0x20\n        /* \"#utility.yul\":8616:8625   */\n      dup3\n        /* \"#utility.yul\":8607:8614   */\n      dup5\n        /* \"#utility.yul\":8603:8626   */\n      sub\n        /* \"#utility.yul\":8599:8631   */\n      slt\n        /* \"#utility.yul\":8596:8715   */\n      iszero\n      tag_427\n      jumpi\n        /* \"#utility.yul\":8634:8713   */\n      tag_428\n      tag_378\n      jump\t// in\n    tag_428:\n        /* \"#utility.yul\":8596:8715   */\n    tag_427:\n        /* \"#utility.yul\":8754:8755   */\n      0x00\n        /* \"#utility.yul\":8779:8842   */\n      tag_429\n        /* \"#utility.yul\":8834:8841   */\n      dup5\n        /* \"#utility.yul\":8825:8831   */\n      dup3\n        /* \"#utility.yul\":8814:8823   */\n      dup6\n        /* \"#utility.yul\":8810:8832   */\n      add\n        /* \"#utility.yul\":8779:8842   */\n      tag_359\n      jump\t// in\n    tag_429:\n        /* \"#utility.yul\":8769:8842   */\n      swap2\n      pop\n        /* \"#utility.yul\":8725:8852   */\n      pop\n        /* \"#utility.yul\":8510:8859   */\n      swap3\n      swap2\n      pop\n      pop\n      jump\t// out\n        /* \"#utility.yul\":8865:9194   */\n    tag_32:\n        /* \"#utility.yul\":8924:8930   */\n      0x00\n        /* \"#utility.yul\":8973:8975   */\n      0x20\n        /* \"#utility.yul\":8961:8970   */\n      dup3\n        /* \"#utility.yul\":8952:8959   */\n      dup5\n        /* \"#utility.yul\":8948:8971   */\n      sub\n        /* \"#utility.yul\":8944:8976   */\n      slt\n        /* \"#utility.yul\":8941:9060   */\n      iszero\n      tag_431\n      jumpi\n        /* \"#utility.yul\":8979:9058   */\n      tag_432\n      tag_378\n      jump\t// in\n    tag_432:\n        /* \"#utility.yul\":8941:9060   */\n    tag_431:\n        /* \"#utility.yul\":9099:9100   */\n      0x00\n        /* \"#utility.yul\":9124:9177   */\n      tag_433\n        /* \"#utility.yul\":9169:9176   */\n      dup5\n        /* \"#utility.yul\":9160:9166   */\n      dup3\n        /* \"#utility.yul\":9149:9158   */\n      dup6\n        /* \"#utility.yul\":9145:9167   */\n      add\n        /* \"#utility.yul\":9124:9177   */\n      tag_371\n      jump\t// in\n    tag_433:\n        /* \"#utility.yul\":9114:9177   */\n      swap2\n      pop\n        /* \"#utility.yul\":9070:9187   */\n      pop\n        /* \"#utility.yul\":8865:9194   */\n      swap3\n      swap2\n      pop\n      pop\n      jump\t// out\n        /* \"#utility.yul\":9200:9904   */\n    tag_82:\n        /* \"#utility.yul\":9303:9309   */\n      0x00\n        /* \"#utility.yul\":9311:9317   */\n      dup1\n        /* \"#utility.yul\":9360:9362   */\n      0x40\n        /* \"#utility.yul\":9348:9357   */\n      dup4\n        /* \"#utility.yul\":9339:9346   */\n      dup6\n        /* \"#utility.yul\":9335:9358   */\n      sub\n        /* \"#utility.yul\":9331:9363   */\n      slt\n        /* \"#utility.yul\":9328:9447   */\n      iszero\n      tag_435\n      jumpi\n        /* \"#utility.yul\":9366:9445   */\n      tag_436\n      tag_378\n      jump\t// in\n    tag_436:\n        /* \"#utility.yul\":9328:9447   */\n    tag_435:\n        /* \"#utility.yul\":9486:9487   */\n      0x00\n        /* \"#utility.yul\":9511:9564   */\n      tag_437\n        /* \"#utility.yul\":9556:9563   */\n      dup6\n        /* \"#utility.yul\":9547:9553   */\n      dup3\n        /* \"#utility.yul\":9536:9545   */\n      dup7\n        /* \"#utility.yul\":9532:9554   */\n      add\n        /* \"#utility.yul\":9511:9564   */\n      tag_371\n      jump\t// in\n    tag_437:\n        /* \"#utility.yul\":9501:9564   */\n      swap3\n      pop\n        /* \"#utility.yul\":9457:9574   */\n      pop\n        /* \"#utility.yul\":9641:9643   */\n      0x20\n        /* \"#utility.yul\":9630:9639   */\n      dup4\n        /* \"#utility.yul\":9626:9644   */\n      add\n        /* \"#utility.yul\":9613:9645   */\n      calldataload\n        /* \"#utility.yul\":9672:9690   */\n      0xffffffffffffffff\n        /* \"#utility.yul\":9664:9670   */\n      dup2\n        /* \"#utility.yul\":9661:9691   */\n      gt\n        /* \"#utility.yul\":9658:9775   */\n      iszero\n      tag_438\n      jumpi\n        /* \"#utility.yul\":9694:9773   */\n      tag_439\n      tag_403\n      jump\t// in\n    tag_439:\n        /* \"#utility.yul\":9658:9775   */\n    tag_438:\n        /* \"#utility.yul\":9799:9887   */\n      tag_440\n        /* \"#utility.yul\":9879:9886   */\n      dup6\n        /* \"#utility.yul\":9870:9876   */\n      dup3\n        /* \"#utility.yul\":9859:9868   */\n      dup7\n        /* \"#utility.yul\":9855:9877   */\n      add\n        /* \"#utility.yul\":9799:9887   */\n      tag_346\n      jump\t// in\n    tag_440:\n        /* \"#utility.yul\":9789:9887   */\n      swap2\n      pop\n        /* \"#utility.yul\":9584:9897   */\n      pop\n        /* \"#utility.yul\":9200:9904   */\n      swap3\n      pop\n      swap3\n      swap1\n      pop\n      jump\t// out\n        /* \"#utility.yul\":9910:10106   */\n    tag_441:\n        /* \"#utility.yul\":9999:10009   */\n      0x00\n        /* \"#utility.yul\":10034:10100   */\n      tag_443\n        /* \"#utility.yul\":10096:10099   */\n      dup4\n        /* \"#utility.yul\":10088:10094   */\n      dup4\n        /* \"#utility.yul\":10034:10100   */\n      tag_444\n      jump\t// in\n    tag_443:\n        /* \"#utility.yul\":10020:10100   */\n      swap1\n      pop\n        /* \"#utility.yul\":9910:10106   */\n      swap3\n      swap2\n      pop\n      pop\n      jump\t// out\n        /* \"#utility.yul\":10112:10291   */\n    tag_445:\n        /* \"#utility.yul\":10181:10191   */\n      0x00\n        /* \"#utility.yul\":10202:10248   */\n      tag_447\n        /* \"#utility.yul\":10244:10247   */\n      dup4\n        /* \"#utility.yul\":10236:10242   */\n      dup4\n        /* \"#utility.yul\":10202:10248   */\n      tag_448\n      jump\t// in\n    tag_447:\n        /* \"#utility.yul\":10280:10284   */\n      0x20\n        /* \"#utility.yul\":10275:10278   */\n      dup4\n        /* \"#utility.yul\":10271:10285   */\n      add\n        /* \"#utility.yul\":10257:10285   */\n      swap1\n      pop\n        /* \"#utility.yul\":10112:10291   */\n      swap3\n      swap2\n      pop\n      pop\n      jump\t// out\n        /* \"#utility.yul\":10297:10415   */\n    tag_449:\n        /* \"#utility.yul\":10384:10408   */\n      tag_451\n        /* \"#utility.yul\":10402:10407   */\n      dup2\n        /* \"#utility.yul\":10384:10408   */\n      tag_452\n      jump\t// in\n    tag_451:\n        /* \"#utility.yul\":10379:10382   */\n      dup3\n        /* \"#utility.yul\":10372:10409   */\n      mstore\n        /* \"#utility.yul\":10297:10415   */\n      pop\n      pop\n      jump\t// out\n        /* \"#utility.yul\":10449:11440   */\n    tag_453:\n        /* \"#utility.yul\":10588:10591   */\n      0x00\n        /* \"#utility.yul\":10617:10681   */\n      tag_455\n        /* \"#utility.yul\":10675:10680   */\n      dup3\n        /* \"#utility.yul\":10617:10681   */\n      tag_456\n      jump\t// in\n    tag_455:\n        /* \"#utility.yul\":10697:10793   */\n      tag_457\n        /* \"#utility.yul\":10786:10792   */\n      dup2\n        /* \"#utility.yul\":10781:10784   */\n      dup6\n        /* \"#utility.yul\":10697:10793   */\n      tag_458\n      jump\t// in\n    tag_457:\n        /* \"#utility.yul\":10690:10793   */\n      swap4\n      pop\n        /* \"#utility.yul\":10819:10822   */\n      dup4\n        /* \"#utility.yul\":10864:10868   */\n      0x20\n        /* \"#utility.yul\":10856:10862   */\n      dup3\n        /* \"#utility.yul\":10852:10869   */\n      mul\n        /* \"#utility.yul\":10847:10850   */\n      dup6\n        /* \"#utility.yul\":10843:10870   */\n      add\n        /* \"#utility.yul\":10894:10960   */\n      tag_459\n        /* \"#utility.yul\":10954:10959   */\n      dup6\n        /* \"#utility.yul\":10894:10960   */\n      tag_460\n      jump\t// in\n    tag_459:\n        /* \"#utility.yul\":10983:10990   */\n      dup1\n        /* \"#utility.yul\":11014:11015   */\n      0x00\n        /* \"#utility.yul\":10999:11395   */\n    tag_461:\n        /* \"#utility.yul\":11024:11030   */\n      dup6\n        /* \"#utility.yul\":11021:11022   */\n      dup2\n        /* \"#utility.yul\":11018:11031   */\n      lt\n        /* \"#utility.yul\":10999:11395   */\n      iszero\n      tag_463\n      jumpi\n        /* \"#utility.yul\":11095:11104   */\n      dup5\n        /* \"#utility.yul\":11089:11093   */\n      dup5\n        /* \"#utility.yul\":11085:11105   */\n      sub\n        /* \"#utility.yul\":11080:11083   */\n      dup10\n        /* \"#utility.yul\":11073:11106   */\n      mstore\n        /* \"#utility.yul\":11146:11152   */\n      dup2\n        /* \"#utility.yul\":11140:11153   */\n      mload\n        /* \"#utility.yul\":11174:11258   */\n      tag_464\n        /* \"#utility.yul\":11253:11257   */\n      dup6\n        /* \"#utility.yul\":11238:11251   */\n      dup3\n        /* \"#utility.yul\":11174:11258   */\n      tag_441\n      jump\t// in\n    tag_464:\n        /* \"#utility.yul\":11166:11258   */\n      swap5\n      pop\n        /* \"#utility.yul\":11281:11351   */\n      tag_465\n        /* \"#utility.yul\":11344:11350   */\n      dup4\n        /* \"#utility.yul\":11281:11351   */\n      tag_466\n      jump\t// in\n    tag_465:\n        /* \"#utility.yul\":11271:11351   */\n      swap3\n      pop\n        /* \"#utility.yul\":11380:11384   */\n      0x20\n        /* \"#utility.yul\":11375:11378   */\n      dup11\n        /* \"#utility.yul\":11371:11385   */\n      add\n        /* \"#utility.yul\":11364:11385   */\n      swap10\n      pop\n        /* \"#utility.yul\":11059:11395   */\n      pop\n        /* \"#utility.yul\":11046:11047   */\n      0x01\n        /* \"#utility.yul\":11043:11044   */\n      dup2\n        /* \"#utility.yul\":11039:11048   */\n      add\n        /* \"#utility.yul\":11034:11048   */\n      swap1\n      pop\n        /* \"#utility.yul\":10999:11395   */\n      jump(tag_461)\n    tag_463:\n        /* \"#utility.yul\":11003:11017   */\n      pop\n        /* \"#utility.yul\":11411:11415   */\n      dup3\n        /* \"#utility.yul\":11404:11415   */\n      swap8\n      pop\n        /* \"#utility.yul\":11431:11434   */\n      dup8\n        /* \"#utility.yul\":11424:11434   */\n      swap6\n      pop\n        /* \"#utility.yul\":10593:11440   */\n      pop\n      pop\n      pop\n      pop\n      pop\n        /* \"#utility.yul\":10449:11440   */\n      swap3\n      swap2\n      pop\n      pop\n      jump\t// out\n        /* \"#utility.yul\":11476:12208   */\n    tag_467:\n        /* \"#utility.yul\":11595:11598   */\n      0x00\n        /* \"#utility.yul\":11624:11678   */\n      tag_469\n        /* \"#utility.yul\":11672:11677   */\n      dup3\n        /* \"#utility.yul\":11624:11678   */\n      tag_470\n      jump\t// in\n    tag_469:\n        /* \"#utility.yul\":11694:11780   */\n      tag_471\n        /* \"#utility.yul\":11773:11779   */\n      dup2\n        /* \"#utility.yul\":11768:11771   */\n      dup6\n        /* \"#utility.yul\":11694:11780   */\n      tag_472\n      jump\t// in\n    tag_471:\n        /* \"#utility.yul\":11687:11780   */\n      swap4\n      pop\n        /* \"#utility.yul\":11804:11860   */\n      tag_473\n        /* \"#utility.yul\":11854:11859   */\n      dup4\n        /* \"#utility.yul\":11804:11860   */\n      tag_474\n      jump\t// in\n    tag_473:\n        /* \"#utility.yul\":11883:11890   */\n      dup1\n        /* \"#utility.yul\":11914:11915   */\n      0x00\n        /* \"#utility.yul\":11899:12183   */\n    tag_475:\n        /* \"#utility.yul\":11924:11930   */\n      dup4\n        /* \"#utility.yul\":11921:11922   */\n      dup2\n        /* \"#utility.yul\":11918:11931   */\n      lt\n        /* \"#utility.yul\":11899:12183   */\n      iszero\n      tag_477\n      jumpi\n        /* \"#utility.yul\":12000:12006   */\n      dup2\n        /* \"#utility.yul\":11994:12007   */\n      mload\n        /* \"#utility.yul\":12027:12090   */\n      tag_478\n        /* \"#utility.yul\":12086:12089   */\n      dup9\n        /* \"#utility.yul\":12071:12084   */\n      dup3\n        /* \"#utility.yul\":12027:12090   */\n      tag_445\n      jump\t// in\n    tag_478:\n        /* \"#utility.yul\":12020:12090   */\n      swap8\n      pop\n        /* \"#utility.yul\":12113:12173   */\n      tag_479\n        /* \"#utility.yul\":12166:12172   */\n      dup4\n        /* \"#utility.yul\":12113:12173   */\n      tag_480\n      jump\t// in\n    tag_479:\n        /* \"#utility.yul\":12103:12173   */\n      swap3\n      pop\n        /* \"#utility.yul\":11959:12183   */\n      pop\n        /* \"#utility.yul\":11946:11947   */\n      0x01\n        /* \"#utility.yul\":11943:11944   */\n      dup2\n        /* \"#utility.yul\":11939:11948   */\n      add\n        /* \"#utility.yul\":11934:11948   */\n      swap1\n      pop\n        /* \"#utility.yul\":11899:12183   */\n      jump(tag_475)\n    tag_477:\n        /* \"#utility.yul\":11903:11917   */\n      pop\n        /* \"#utility.yul\":12199:12202   */\n      dup6\n        /* \"#utility.yul\":12192:12202   */\n      swap4\n      pop\n        /* \"#utility.yul\":11600:12208   */\n      pop\n      pop\n      pop\n        /* \"#utility.yul\":11476:12208   */\n      swap3\n      swap2\n      pop\n      pop\n      jump\t// out\n        /* \"#utility.yul\":12214:12323   */\n    tag_481:\n        /* \"#utility.yul\":12295:12316   */\n      tag_483\n        /* \"#utility.yul\":12310:12315   */\n      dup2\n        /* \"#utility.yul\":12295:12316   */\n      tag_484\n      jump\t// in\n    tag_483:\n        /* \"#utility.yul\":12290:12293   */\n      dup3\n        /* \"#utility.yul\":12283:12317   */\n      mstore\n        /* \"#utility.yul\":12214:12323   */\n      pop\n      pop\n      jump\t// out\n        /* \"#utility.yul\":12329:12689   */\n    tag_485:\n        /* \"#utility.yul\":12415:12418   */\n      0x00\n        /* \"#utility.yul\":12443:12481   */\n      tag_487\n        /* \"#utility.yul\":12475:12480   */\n      dup3\n        /* \"#utility.yul\":12443:12481   */\n      tag_488\n      jump\t// in\n    tag_487:\n        /* \"#utility.yul\":12497:12567   */\n      tag_489\n        /* \"#utility.yul\":12560:12566   */\n      dup2\n        /* \"#utility.yul\":12555:12558   */\n      dup6\n        /* \"#utility.yul\":12497:12567   */\n      tag_490\n      jump\t// in\n    tag_489:\n        /* \"#utility.yul\":12490:12567   */\n      swap4\n      pop\n        /* \"#utility.yul\":12576:12628   */\n      tag_491\n        /* \"#utility.yul\":12621:12627   */\n      dup2\n        /* \"#utility.yul\":12616:12619   */\n      dup6\n        /* \"#utility.yul\":12609:12613   */\n      0x20\n        /* \"#utility.yul\":12602:12607   */\n      dup7\n        /* \"#utility.yul\":12598:12614   */\n      add\n        /* \"#utility.yul\":12576:12628   */\n      tag_492\n      jump\t// in\n    tag_491:\n        /* \"#utility.yul\":12653:12682   */\n      tag_493\n        /* \"#utility.yul\":12675:12681   */\n      dup2\n        /* \"#utility.yul\":12653:12682   */\n      tag_494\n      jump\t// in\n    tag_493:\n        /* \"#utility.yul\":12648:12651   */\n      dup5\n        /* \"#utility.yul\":12644:12683   */\n      add\n        /* \"#utility.yul\":12637:12683   */\n      swap2\n      pop\n        /* \"#utility.yul\":12419:12689   */\n      pop\n        /* \"#utility.yul\":12329:12689   */\n      swap3\n      swap2\n      pop\n      pop\n      jump\t// out\n        /* \"#utility.yul\":12695:13039   */\n    tag_444:\n        /* \"#utility.yul\":12773:12776   */\n      0x00\n        /* \"#utility.yul\":12801:12840   */\n      tag_496\n        /* \"#utility.yul\":12834:12839   */\n      dup3\n        /* \"#utility.yul\":12801:12840   */\n      tag_497\n      jump\t// in\n    tag_496:\n        /* \"#utility.yul\":12856:12917   */\n      tag_498\n        /* \"#utility.yul\":12910:12916   */\n      dup2\n        /* \"#utility.yul\":12905:12908   */\n      dup6\n        /* \"#utility.yul\":12856:12917   */\n      tag_499\n      jump\t// in\n    tag_498:\n        /* \"#utility.yul\":12849:12917   */\n      swap4\n      pop\n        /* \"#utility.yul\":12926:12978   */\n      tag_500\n        /* \"#utility.yul\":12971:12977   */\n      dup2\n        /* \"#utility.yul\":12966:12969   */\n      dup6\n        /* \"#utility.yul\":12959:12963   */\n      0x20\n        /* \"#utility.yul\":12952:12957   */\n      dup7\n        /* \"#utility.yul\":12948:12964   */\n      add\n        /* \"#utility.yul\":12926:12978   */\n      tag_492\n      jump\t// in\n    tag_500:\n        /* \"#utility.yul\":13003:13032   */\n      tag_501\n        /* \"#utility.yul\":13025:13031   */\n      dup2\n        /* \"#utility.yul\":13003:13032   */\n      tag_494\n      jump\t// in\n    tag_501:\n        /* \"#utility.yul\":12998:13001   */\n      dup5\n        /* \"#utility.yul\":12994:13033   */\n      add\n        /* \"#utility.yul\":12987:13033   */\n      swap2\n      pop\n        /* \"#utility.yul\":12777:13039   */\n      pop\n        /* \"#utility.yul\":12695:13039   */\n      swap3\n      swap2\n      pop\n      pop\n      jump\t// out\n        /* \"#utility.yul\":13045:13409   */\n    tag_502:\n        /* \"#utility.yul\":13133:13136   */\n      0x00\n        /* \"#utility.yul\":13161:13200   */\n      tag_504\n        /* \"#utility.yul\":13194:13199   */\n      dup3\n        /* \"#utility.yul\":13161:13200   */\n      tag_497\n      jump\t// in\n    tag_504:\n        /* \"#utility.yul\":13216:13287   */\n      tag_505\n        /* \"#utility.yul\":13280:13286   */\n      dup2\n        /* \"#utility.yul\":13275:13278   */\n      dup6\n        /* \"#utility.yul\":13216:13287   */\n      tag_506\n      jump\t// in\n    tag_505:\n        /* \"#utility.yul\":13209:13287   */\n      swap4\n      pop\n        /* \"#utility.yul\":13296:13348   */\n      tag_507\n        /* \"#utility.yul\":13341:13347   */\n      dup2\n        /* \"#utility.yul\":13336:13339   */\n      dup6\n        /* \"#utility.yul\":13329:13333   */\n      0x20\n        /* \"#utility.yul\":13322:13327   */\n      dup7\n        /* \"#utility.yul\":13318:13334   */\n      add\n        /* \"#utility.yul\":13296:13348   */\n      tag_492\n      jump\t// in\n    tag_507:\n        /* \"#utility.yul\":13373:13402   */\n      tag_508\n        /* \"#utility.yul\":13395:13401   */\n      dup2\n        /* \"#utility.yul\":13373:13402   */\n      tag_494\n      jump\t// in\n    tag_508:\n        /* \"#utility.yul\":13368:13371   */\n      dup5\n        /* \"#utility.yul\":13364:13403   */\n      add\n        /* \"#utility.yul\":13357:13403   */\n      swap2\n      pop\n        /* \"#utility.yul\":13137:13409   */\n      pop\n        /* \"#utility.yul\":13045:13409   */\n      swap3\n      swap2\n      pop\n      pop\n      jump\t// out\n        /* \"#utility.yul\":13415:13792   */\n    tag_509:\n        /* \"#utility.yul\":13521:13524   */\n      0x00\n        /* \"#utility.yul\":13549:13588   */\n      tag_511\n        /* \"#utility.yul\":13582:13587   */\n      dup3\n        /* \"#utility.yul\":13549:13588   */\n      tag_497\n      jump\t// in\n    tag_511:\n        /* \"#utility.yul\":13604:13693   */\n      tag_512\n        /* \"#utility.yul\":13686:13692   */\n      dup2\n        /* \"#utility.yul\":13681:13684   */\n      dup6\n        /* \"#utility.yul\":13604:13693   */\n      tag_513\n      jump\t// in\n    tag_512:\n        /* \"#utility.yul\":13597:13693   */\n      swap4\n      pop\n        /* \"#utility.yul\":13702:13754   */\n      tag_514\n        /* \"#utility.yul\":13747:13753   */\n      dup2\n        /* \"#utility.yul\":13742:13745   */\n      dup6\n        /* \"#utility.yul\":13735:13739   */\n      0x20\n        /* \"#utility.yul\":13728:13733   */\n      dup7\n        /* \"#utility.yul\":13724:13740   */\n      add\n        /* \"#utility.yul\":13702:13754   */\n      tag_492\n      jump\t// in\n    tag_514:\n        /* \"#utility.yul\":13779:13785   */\n      dup1\n        /* \"#utility.yul\":13774:13777   */\n      dup5\n        /* \"#utility.yul\":13770:13786   */\n      add\n        /* \"#utility.yul\":13763:13786   */\n      swap2\n      pop\n        /* \"#utility.yul\":13525:13792   */\n      pop\n        /* \"#utility.yul\":13415:13792   */\n      swap3\n      swap2\n      pop\n      pop\n      jump\t// out\n        /* \"#utility.yul\":13822:14667   */\n    tag_515:\n        /* \"#utility.yul\":13925:13928   */\n      0x00\n        /* \"#utility.yul\":13962:13967   */\n      dup2\n        /* \"#utility.yul\":13956:13968   */\n      sload\n        /* \"#utility.yul\":13991:14027   */\n      tag_517\n        /* \"#utility.yul\":14017:14026   */\n      dup2\n        /* \"#utility.yul\":13991:14027   */\n      tag_187\n      jump\t// in\n    tag_517:\n        /* \"#utility.yul\":14043:14132   */\n      tag_518\n        /* \"#utility.yul\":14125:14131   */\n      dup2\n        /* \"#utility.yul\":14120:14123   */\n      dup7\n        /* \"#utility.yul\":14043:14132   */\n      tag_513\n      jump\t// in\n    tag_518:\n        /* \"#utility.yul\":14036:14132   */\n      swap5\n      pop\n        /* \"#utility.yul\":14163:14164   */\n      0x01\n        /* \"#utility.yul\":14152:14161   */\n      dup3\n        /* \"#utility.yul\":14148:14165   */\n      and\n        /* \"#utility.yul\":14179:14180   */\n      0x00\n        /* \"#utility.yul\":14174:14311   */\n      dup2\n      eq\n      tag_520\n      jumpi\n        /* \"#utility.yul\":14325:14326   */\n      0x01\n        /* \"#utility.yul\":14320:14661   */\n      dup2\n      eq\n      tag_521\n      jumpi\n        /* \"#utility.yul\":14141:14661   */\n      jump(tag_519)\n        /* \"#utility.yul\":14174:14311   */\n    tag_520:\n        /* \"#utility.yul\":14258:14262   */\n      0xff\n        /* \"#utility.yul\":14254:14263   */\n      not\n        /* \"#utility.yul\":14243:14252   */\n      dup4\n        /* \"#utility.yul\":14239:14264   */\n      and\n        /* \"#utility.yul\":14234:14237   */\n      dup7\n        /* \"#utility.yul\":14227:14265   */\n      mstore\n        /* \"#utility.yul\":14294:14300   */\n      dup2\n        /* \"#utility.yul\":14289:14292   */\n      dup7\n        /* \"#utility.yul\":14285:14301   */\n      add\n        /* \"#utility.yul\":14278:14301   */\n      swap4\n      pop\n        /* \"#utility.yul\":14174:14311   */\n      jump(tag_519)\n        /* \"#utility.yul\":14320:14661   */\n    tag_521:\n        /* \"#utility.yul\":14387:14425   */\n      tag_522\n        /* \"#utility.yul\":14419:14424   */\n      dup6\n        /* \"#utility.yul\":14387:14425   */\n      tag_523\n      jump\t// in\n    tag_522:\n        /* \"#utility.yul\":14447:14448   */\n      0x00\n        /* \"#utility.yul\":14461:14615   */\n    tag_524:\n        /* \"#utility.yul\":14475:14481   */\n      dup4\n        /* \"#utility.yul\":14472:14473   */\n      dup2\n        /* \"#utility.yul\":14469:14482   */\n      lt\n        /* \"#utility.yul\":14461:14615   */\n      iszero\n      tag_526\n      jumpi\n        /* \"#utility.yul\":14549:14556   */\n      dup2\n        /* \"#utility.yul\":14543:14557   */\n      sload\n        /* \"#utility.yul\":14539:14540   */\n      dup2\n        /* \"#utility.yul\":14534:14537   */\n      dup10\n        /* \"#utility.yul\":14530:14541   */\n      add\n        /* \"#utility.yul\":14523:14558   */\n      mstore\n        /* \"#utility.yul\":14599:14600   */\n      0x01\n        /* \"#utility.yul\":14590:14597   */\n      dup3\n        /* \"#utility.yul\":14586:14601   */\n      add\n        /* \"#utility.yul\":14575:14601   */\n      swap2\n      pop\n        /* \"#utility.yul\":14497:14501   */\n      0x20\n        /* \"#utility.yul\":14494:14495   */\n      dup2\n        /* \"#utility.yul\":14490:14502   */\n      add\n        /* \"#utility.yul\":14485:14502   */\n      swap1\n      pop\n        /* \"#utility.yul\":14461:14615   */\n      jump(tag_524)\n    tag_526:\n        /* \"#utility.yul\":14644:14650   */\n      dup4\n        /* \"#utility.yul\":14639:14642   */\n      dup9\n        /* \"#utility.yul\":14635:14651   */\n      add\n        /* \"#utility.yul\":14628:14651   */\n      swap6\n      pop\n        /* \"#utility.yul\":14327:14661   */\n      pop\n      pop\n        /* \"#utility.yul\":14141:14661   */\n    tag_519:\n      pop\n        /* \"#utility.yul\":13929:14667   */\n      pop\n      pop\n        /* \"#utility.yul\":13822:14667   */\n      swap3\n      swap2\n      pop\n      pop\n      jump\t// out\n        /* \"#utility.yul\":14673:15039   */\n    tag_527:\n        /* \"#utility.yul\":14815:14818   */\n      0x00\n        /* \"#utility.yul\":14836:14903   */\n      tag_529\n        /* \"#utility.yul\":14900:14902   */\n      0x24\n        /* \"#utility.yul\":14895:14898   */\n      dup4\n        /* \"#utility.yul\":14836:14903   */\n      tag_506\n      jump\t// in\n    tag_529:\n        /* \"#utility.yul\":14829:14903   */\n      swap2\n      pop\n        /* \"#utility.yul\":14912:15005   */\n      tag_530\n        /* \"#utility.yul\":15001:15004   */\n      dup3\n        /* \"#utility.yul\":14912:15005   */\n      tag_531\n      jump\t// in\n    tag_530:\n        /* \"#utility.yul\":15030:15032   */\n      0x40\n        /* \"#utility.yul\":15025:15028   */\n      dup3\n        /* \"#utility.yul\":15021:15033   */\n      add\n        /* \"#utility.yul\":15014:15033   */\n      swap1\n      pop\n        /* \"#utility.yul\":14673:15039   */\n      swap2\n      swap1\n      pop\n      jump\t// out\n        /* \"#utility.yul\":15045:15411   */\n    tag_532:\n        /* \"#utility.yul\":15187:15190   */\n      0x00\n        /* \"#utility.yul\":15208:15275   */\n      tag_534\n        /* \"#utility.yul\":15272:15274   */\n      0x19\n        /* \"#utility.yul\":15267:15270   */\n      dup4\n        /* \"#utility.yul\":15208:15275   */\n      tag_506\n      jump\t// in\n    tag_534:\n        /* \"#utility.yul\":15201:15275   */\n      swap2\n      pop\n        /* \"#utility.yul\":15284:15377   */\n      tag_535\n        /* \"#utility.yul\":15373:15376   */\n      dup3\n        /* \"#utility.yul\":15284:15377   */\n      tag_536\n      jump\t// in\n    tag_535:\n        /* \"#utility.yul\":15402:15404   */\n      0x20\n        /* \"#utility.yul\":15397:15400   */\n      dup3\n        /* \"#utility.yul\":15393:15405   */\n      add\n        /* \"#utility.yul\":15386:15405   */\n      swap1\n      pop\n        /* \"#utility.yul\":15045:15411   */\n      swap2\n      swap1\n      pop\n      jump\t// out\n        /* \"#utility.yul\":15417:15783   */\n    tag_537:\n        /* \"#utility.yul\":15559:15562   */\n      0x00\n        /* \"#utility.yul\":15580:15647   */\n      tag_539\n        /* \"#utility.yul\":15644:15646   */\n      0x38\n        /* \"#utility.yul\":15639:15642   */\n      dup4\n        /* \"#utility.yul\":15580:15647   */\n      tag_506\n      jump\t// in\n    tag_539:\n        /* \"#utility.yul\":15573:15647   */\n      swap2\n      pop\n        /* \"#utility.yul\":15656:15749   */\n      tag_540\n        /* \"#utility.yul\":15745:15748   */\n      dup3\n        /* \"#utility.yul\":15656:15749   */\n      tag_541\n      jump\t// in\n    tag_540:\n        /* \"#utility.yul\":15774:15776   */\n      0x40\n        /* \"#utility.yul\":15769:15772   */\n      dup3\n        /* \"#utility.yul\":15765:15777   */\n      add\n        /* \"#utility.yul\":15758:15777   */\n      swap1\n      pop\n        /* \"#utility.yul\":15417:15783   */\n      swap2\n      swap1\n      pop\n      jump\t// out\n        /* \"#utility.yul\":15789:16155   */\n    tag_542:\n        /* \"#utility.yul\":15931:15934   */\n      0x00\n        /* \"#utility.yul\":15952:16019   */\n      tag_544\n        /* \"#utility.yul\":16016:16018   */\n      0x29\n        /* \"#utility.yul\":16011:16014   */\n      dup4\n        /* \"#utility.yul\":15952:16019   */\n      tag_506\n      jump\t// in\n    tag_544:\n        /* \"#utility.yul\":15945:16019   */\n      swap2\n      pop\n        /* \"#utility.yul\":16028:16121   */\n      tag_545\n        /* \"#utility.yul\":16117:16120   */\n      dup3\n        /* \"#utility.yul\":16028:16121   */\n      tag_546\n      jump\t// in\n    tag_545:\n        /* \"#utility.yul\":16146:16148   */\n      0x40\n        /* \"#utility.yul\":16141:16144   */\n      dup3\n        /* \"#utility.yul\":16137:16149   */\n      add\n        /* \"#utility.yul\":16130:16149   */\n      swap1\n      pop\n        /* \"#utility.yul\":15789:16155   */\n      swap2\n      swap1\n      pop\n      jump\t// out\n        /* \"#utility.yul\":16161:16527   */\n    tag_547:\n        /* \"#utility.yul\":16303:16306   */\n      0x00\n        /* \"#utility.yul\":16324:16391   */\n      tag_549\n        /* \"#utility.yul\":16388:16390   */\n      0x21\n        /* \"#utility.yul\":16383:16386   */\n      dup4\n        /* \"#utility.yul\":16324:16391   */\n      tag_506\n      jump\t// in\n    tag_549:\n        /* \"#utility.yul\":16317:16391   */\n      swap2\n      pop\n        /* \"#utility.yul\":16400:16493   */\n      tag_550\n        /* \"#utility.yul\":16489:16492   */\n      dup3\n        /* \"#utility.yul\":16400:16493   */\n      tag_551\n      jump\t// in\n    tag_550:\n        /* \"#utility.yul\":16518:16520   */\n      0x40\n        /* \"#utility.yul\":16513:16516   */\n      dup3\n        /* \"#utility.yul\":16509:16521   */\n      add\n        /* \"#utility.yul\":16502:16521   */\n      swap1\n      pop\n        /* \"#utility.yul\":16161:16527   */\n      swap2\n      swap1\n      pop\n      jump\t// out\n        /* \"#utility.yul\":16533:16899   */\n    tag_552:\n        /* \"#utility.yul\":16675:16678   */\n      0x00\n        /* \"#utility.yul\":16696:16763   */\n      tag_554\n        /* \"#utility.yul\":16760:16762   */\n      0x31\n        /* \"#utility.yul\":16755:16758   */\n      dup4\n        /* \"#utility.yul\":16696:16763   */\n      tag_506\n      jump\t// in\n    tag_554:\n        /* \"#utility.yul\":16689:16763   */\n      swap2\n      pop\n        /* \"#utility.yul\":16772:16865   */\n      tag_555\n        /* \"#utility.yul\":16861:16864   */\n      dup3\n        /* \"#utility.yul\":16772:16865   */\n      tag_556\n      jump\t// in\n    tag_555:\n        /* \"#utility.yul\":16890:16892   */\n      0x40\n        /* \"#utility.yul\":16885:16888   */\n      dup3\n        /* \"#utility.yul\":16881:16893   */\n      add\n        /* \"#utility.yul\":16874:16893   */\n      swap1\n      pop\n        /* \"#utility.yul\":16533:16899   */\n      swap2\n      swap1\n      pop\n      jump\t// out\n        /* \"#utility.yul\":16905:17271   */\n    tag_557:\n        /* \"#utility.yul\":17047:17050   */\n      0x00\n        /* \"#utility.yul\":17068:17135   */\n      tag_559\n        /* \"#utility.yul\":17132:17134   */\n      0x13\n        /* \"#utility.yul\":17127:17130   */\n      dup4\n        /* \"#utility.yul\":17068:17135   */\n      tag_506\n      jump\t// in\n    tag_559:\n        /* \"#utility.yul\":17061:17135   */\n      swap2\n      pop\n        /* \"#utility.yul\":17144:17237   */\n      tag_560\n        /* \"#utility.yul\":17233:17236   */\n      dup3\n        /* \"#utility.yul\":17144:17237   */\n      tag_561\n      jump\t// in\n    tag_560:\n        /* \"#utility.yul\":17262:17264   */\n      0x20\n        /* \"#utility.yul\":17257:17260   */\n      dup3\n        /* \"#utility.yul\":17253:17265   */\n      add\n        /* \"#utility.yul\":17246:17265   */\n      swap1\n      pop\n        /* \"#utility.yul\":16905:17271   */\n      swap2\n      swap1\n      pop\n      jump\t// out\n        /* \"#utility.yul\":17277:17643   */\n    tag_562:\n        /* \"#utility.yul\":17419:17422   */\n      0x00\n        /* \"#utility.yul\":17440:17507   */\n      tag_564\n        /* \"#utility.yul\":17504:17506   */\n      0x18\n        /* \"#utility.yul\":17499:17502   */\n      dup4\n        /* \"#utility.yul\":17440:17507   */\n      tag_506\n      jump\t// in\n    tag_564:\n        /* \"#utility.yul\":17433:17507   */\n      swap2\n      pop\n        /* \"#utility.yul\":17516:17609   */\n      tag_565\n        /* \"#utility.yul\":17605:17608   */\n      dup3\n        /* \"#utility.yul\":17516:17609   */\n      tag_566\n      jump\t// in\n    tag_565:\n        /* \"#utility.yul\":17634:17636   */\n      0x20\n        /* \"#utility.yul\":17629:17632   */\n      dup3\n        /* \"#utility.yul\":17625:17637   */\n      add\n        /* \"#utility.yul\":17618:17637   */\n      swap1\n      pop\n        /* \"#utility.yul\":17277:17643   */\n      swap2\n      swap1\n      pop\n      jump\t// out\n        /* \"#utility.yul\":17649:17757   */\n    tag_448:\n        /* \"#utility.yul\":17726:17750   */\n      tag_568\n        /* \"#utility.yul\":17744:17749   */\n      dup2\n        /* \"#utility.yul\":17726:17750   */\n      tag_569\n      jump\t// in\n    tag_568:\n        /* \"#utility.yul\":17721:17724   */\n      dup3\n        /* \"#utility.yul\":17714:17751   */\n      mstore\n        /* \"#utility.yul\":17649:17757   */\n      pop\n      pop\n      jump\t// out\n        /* \"#utility.yul\":17763:17881   */\n    tag_570:\n        /* \"#utility.yul\":17850:17874   */\n      tag_572\n        /* \"#utility.yul\":17868:17873   */\n      dup2\n        /* \"#utility.yul\":17850:17874   */\n      tag_569\n      jump\t// in\n    tag_572:\n        /* \"#utility.yul\":17845:17848   */\n      dup3\n        /* \"#utility.yul\":17838:17875   */\n      mstore\n        /* \"#utility.yul\":17763:17881   */\n      pop\n      pop\n      jump\t// out\n        /* \"#utility.yul\":17887:18316   */\n    tag_153:\n        /* \"#utility.yul\":18064:18067   */\n      0x00\n        /* \"#utility.yul\":18086:18181   */\n      tag_574\n        /* \"#utility.yul\":18177:18180   */\n      dup3\n        /* \"#utility.yul\":18168:18174   */\n      dup6\n        /* \"#utility.yul\":18086:18181   */\n      tag_509\n      jump\t// in\n    tag_574:\n        /* \"#utility.yul\":18079:18181   */\n      swap2\n      pop\n        /* \"#utility.yul\":18198:18290   */\n      tag_575\n        /* \"#utility.yul\":18286:18289   */\n      dup3\n        /* \"#utility.yul\":18277:18283   */\n      dup5\n        /* \"#utility.yul\":18198:18290   */\n      tag_515\n      jump\t// in\n    tag_575:\n        /* \"#utility.yul\":18191:18290   */\n      swap2\n      pop\n        /* \"#utility.yul\":18307:18310   */\n      dup2\n        /* \"#utility.yul\":18300:18310   */\n      swap1\n      pop\n        /* \"#utility.yul\":17887:18316   */\n      swap4\n      swap3\n      pop\n      pop\n      pop\n      jump\t// out\n        /* \"#utility.yul\":18322:18591   */\n    tag_267:\n        /* \"#utility.yul\":18451:18454   */\n      0x00\n        /* \"#utility.yul\":18473:18565   */\n      tag_577\n        /* \"#utility.yul\":18561:18564   */\n      dup3\n        /* \"#utility.yul\":18552:18558   */\n      dup5\n        /* \"#utility.yul\":18473:18565   */\n      tag_515\n      jump\t// in\n    tag_577:\n        /* \"#utility.yul\":18466:18565   */\n      swap2\n      pop\n        /* \"#utility.yul\":18582:18585   */\n      dup2\n        /* \"#utility.yul\":18575:18585   */\n      swap1\n      pop\n        /* \"#utility.yul\":18322:18591   */\n      swap3\n      swap2\n      pop\n      pop\n      jump\t// out\n        /* \"#utility.yul\":18597:18819   */\n    tag_35:\n        /* \"#utility.yul\":18690:18694   */\n      0x00\n        /* \"#utility.yul\":18728:18730   */\n      0x20\n        /* \"#utility.yul\":18717:18726   */\n      dup3\n        /* \"#utility.yul\":18713:18731   */\n      add\n        /* \"#utility.yul\":18705:18731   */\n      swap1\n      pop\n        /* \"#utility.yul\":18741:18812   */\n      tag_579\n        /* \"#utility.yul\":18809:18810   */\n      0x00\n        /* \"#utility.yul\":18798:18807   */\n      dup4\n        /* \"#utility.yul\":18794:18811   */\n      add\n        /* \"#utility.yul\":18785:18791   */\n      dup5\n        /* \"#utility.yul\":18741:18812   */\n      tag_449\n      jump\t// in\n    tag_579:\n        /* \"#utility.yul\":18597:18819   */\n      swap3\n      swap2\n      pop\n      pop\n      jump\t// out\n        /* \"#utility.yul\":18825:19465   */\n    tag_246:\n        /* \"#utility.yul\":19020:19024   */\n      0x00\n        /* \"#utility.yul\":19058:19061   */\n      0x80\n        /* \"#utility.yul\":19047:19056   */\n      dup3\n        /* \"#utility.yul\":19043:19062   */\n      add\n        /* \"#utility.yul\":19035:19062   */\n      swap1\n      pop\n        /* \"#utility.yul\":19072:19143   */\n      tag_581\n        /* \"#utility.yul\":19140:19141   */\n      0x00\n        /* \"#utility.yul\":19129:19138   */\n      dup4\n        /* \"#utility.yul\":19125:19142   */\n      add\n        /* \"#utility.yul\":19116:19122   */\n      dup8\n        /* \"#utility.yul\":19072:19143   */\n      tag_449\n      jump\t// in\n    tag_581:\n        /* \"#utility.yul\":19153:19225   */\n      tag_582\n        /* \"#utility.yul\":19221:19223   */\n      0x20\n        /* \"#utility.yul\":19210:19219   */\n      dup4\n        /* \"#utility.yul\":19206:19224   */\n      add\n        /* \"#utility.yul\":19197:19203   */\n      dup7\n        /* \"#utility.yul\":19153:19225   */\n      tag_449\n      jump\t// in\n    tag_582:\n        /* \"#utility.yul\":19235:19307   */\n      tag_583\n        /* \"#utility.yul\":19303:19305   */\n      0x40\n        /* \"#utility.yul\":19292:19301   */\n      dup4\n        /* \"#utility.yul\":19288:19306   */\n      add\n        /* \"#utility.yul\":19279:19285   */\n      dup6\n        /* \"#utility.yul\":19235:19307   */\n      tag_570\n      jump\t// in\n    tag_583:\n        /* \"#utility.yul\":19354:19363   */\n      dup2\n        /* \"#utility.yul\":19348:19352   */\n      dup2\n        /* \"#utility.yul\":19344:19364   */\n      sub\n        /* \"#utility.yul\":19339:19341   */\n      0x60\n        /* \"#utility.yul\":19328:19337   */\n      dup4\n        /* \"#utility.yul\":19324:19342   */\n      add\n        /* \"#utility.yul\":19317:19365   */\n      mstore\n        /* \"#utility.yul\":19382:19458   */\n      tag_584\n        /* \"#utility.yul\":19453:19457   */\n      dup2\n        /* \"#utility.yul\":19444:19450   */\n      dup5\n        /* \"#utility.yul\":19382:19458   */\n      tag_485\n      jump\t// in\n    tag_584:\n        /* \"#utility.yul\":19374:19458   */\n      swap1\n      pop\n        /* \"#utility.yul\":18825:19465   */\n      swap6\n      swap5\n      pop\n      pop\n      pop\n      pop\n      pop\n      jump\t// out\n        /* \"#utility.yul\":19471:19884   */\n    tag_89:\n        /* \"#utility.yul\":19634:19638   */\n      0x00\n        /* \"#utility.yul\":19672:19674   */\n      0x20\n        /* \"#utility.yul\":19661:19670   */\n      dup3\n        /* \"#utility.yul\":19657:19675   */\n      add\n        /* \"#utility.yul\":19649:19675   */\n      swap1\n      pop\n        /* \"#utility.yul\":19721:19730   */\n      dup2\n        /* \"#utility.yul\":19715:19719   */\n      dup2\n        /* \"#utility.yul\":19711:19731   */\n      sub\n        /* \"#utility.yul\":19707:19708   */\n      0x00\n        /* \"#utility.yul\":19696:19705   */\n      dup4\n        /* \"#utility.yul\":19692:19709   */\n      add\n        /* \"#utility.yul\":19685:19732   */\n      mstore\n        /* \"#utility.yul\":19749:19877   */\n      tag_586\n        /* \"#utility.yul\":19872:19876   */\n      dup2\n        /* \"#utility.yul\":19863:19869   */\n      dup5\n        /* \"#utility.yul\":19749:19877   */\n      tag_453\n      jump\t// in\n    tag_586:\n        /* \"#utility.yul\":19741:19877   */\n      swap1\n      pop\n        /* \"#utility.yul\":19471:19884   */\n      swap3\n      swap2\n      pop\n      pop\n      jump\t// out\n        /* \"#utility.yul\":19890:20263   */\n    tag_95:\n        /* \"#utility.yul\":20033:20037   */\n      0x00\n        /* \"#utility.yul\":20071:20073   */\n      0x20\n        /* \"#utility.yul\":20060:20069   */\n      dup3\n        /* \"#utility.yul\":20056:20074   */\n      add\n        /* \"#utility.yul\":20048:20074   */\n      swap1\n      pop\n        /* \"#utility.yul\":20120:20129   */\n      dup2\n        /* \"#utility.yul\":20114:20118   */\n      dup2\n        /* \"#utility.yul\":20110:20130   */\n      sub\n        /* \"#utility.yul\":20106:20107   */\n      0x00\n        /* \"#utility.yul\":20095:20104   */\n      dup4\n        /* \"#utility.yul\":20091:20108   */\n      add\n        /* \"#utility.yul\":20084:20131   */\n      mstore\n        /* \"#utility.yul\":20148:20256   */\n      tag_588\n        /* \"#utility.yul\":20251:20255   */\n      dup2\n        /* \"#utility.yul\":20242:20248   */\n      dup5\n        /* \"#utility.yul\":20148:20256   */\n      tag_467\n      jump\t// in\n    tag_588:\n        /* \"#utility.yul\":20140:20256   */\n      swap1\n      pop\n        /* \"#utility.yul\":19890:20263   */\n      swap3\n      swap2\n      pop\n      pop\n      jump\t// out\n        /* \"#utility.yul\":20269:20479   */\n    tag_28:\n        /* \"#utility.yul\":20356:20360   */\n      0x00\n        /* \"#utility.yul\":20394:20396   */\n      0x20\n        /* \"#utility.yul\":20383:20392   */\n      dup3\n        /* \"#utility.yul\":20379:20397   */\n      add\n        /* \"#utility.yul\":20371:20397   */\n      swap1\n      pop\n        /* \"#utility.yul\":20407:20472   */\n      tag_590\n        /* \"#utility.yul\":20469:20470   */\n      0x00\n        /* \"#utility.yul\":20458:20467   */\n      dup4\n        /* \"#utility.yul\":20454:20471   */\n      add\n        /* \"#utility.yul\":20445:20451   */\n      dup5\n        /* \"#utility.yul\":20407:20472   */\n      tag_481\n      jump\t// in\n    tag_590:\n        /* \"#utility.yul\":20269:20479   */\n      swap3\n      swap2\n      pop\n      pop\n      jump\t// out\n        /* \"#utility.yul\":20485:20798   */\n    tag_64:\n        /* \"#utility.yul\":20598:20602   */\n      0x00\n        /* \"#utility.yul\":20636:20638   */\n      0x20\n        /* \"#utility.yul\":20625:20634   */\n      dup3\n        /* \"#utility.yul\":20621:20639   */\n      add\n        /* \"#utility.yul\":20613:20639   */\n      swap1\n      pop\n        /* \"#utility.yul\":20685:20694   */\n      dup2\n        /* \"#utility.yul\":20679:20683   */\n      dup2\n        /* \"#utility.yul\":20675:20695   */\n      sub\n        /* \"#utility.yul\":20671:20672   */\n      0x00\n        /* \"#utility.yul\":20660:20669   */\n      dup4\n        /* \"#utility.yul\":20656:20673   */\n      add\n        /* \"#utility.yul\":20649:20696   */\n      mstore\n        /* \"#utility.yul\":20713:20791   */\n      tag_592\n        /* \"#utility.yul\":20786:20790   */\n      dup2\n        /* \"#utility.yul\":20777:20783   */\n      dup5\n        /* \"#utility.yul\":20713:20791   */\n      tag_502\n      jump\t// in\n    tag_592:\n        /* \"#utility.yul\":20705:20791   */\n      swap1\n      pop\n        /* \"#utility.yul\":20485:20798   */\n      swap3\n      swap2\n      pop\n      pop\n      jump\t// out\n        /* \"#utility.yul\":20804:21223   */\n    tag_260:\n        /* \"#utility.yul\":20970:20974   */\n      0x00\n        /* \"#utility.yul\":21008:21010   */\n      0x20\n        /* \"#utility.yul\":20997:21006   */\n      dup3\n        /* \"#utility.yul\":20993:21011   */\n      add\n        /* \"#utility.yul\":20985:21011   */\n      swap1\n      pop\n        /* \"#utility.yul\":21057:21066   */\n      dup2\n        /* \"#utility.yul\":21051:21055   */\n      dup2\n        /* \"#utility.yul\":21047:21067   */\n      sub\n        /* \"#utility.yul\":21043:21044   */\n      0x00\n        /* \"#utility.yul\":21032:21041   */\n      dup4\n        /* \"#utility.yul\":21028:21045   */\n      add\n        /* \"#utility.yul\":21021:21068   */\n      mstore\n        /* \"#utility.yul\":21085:21216   */\n      tag_594\n        /* \"#utility.yul\":21211:21215   */\n      dup2\n        /* \"#utility.yul\":21085:21216   */\n      tag_527\n      jump\t// in\n    tag_594:\n        /* \"#utility.yul\":21077:21216   */\n      swap1\n      pop\n        /* \"#utility.yul\":20804:21223   */\n      swap2\n      swap1\n      pop\n      jump\t// out\n        /* \"#utility.yul\":21229:21648   */\n    tag_215:\n        /* \"#utility.yul\":21395:21399   */\n      0x00\n        /* \"#utility.yul\":21433:21435   */\n      0x20\n        /* \"#utility.yul\":21422:21431   */\n      dup3\n        /* \"#utility.yul\":21418:21436   */\n      add\n        /* \"#utility.yul\":21410:21436   */\n      swap1\n      pop\n        /* \"#utility.yul\":21482:21491   */\n      dup2\n        /* \"#utility.yul\":21476:21480   */\n      dup2\n        /* \"#utility.yul\":21472:21492   */\n      sub\n        /* \"#utility.yul\":21468:21469   */\n      0x00\n        /* \"#utility.yul\":21457:21466   */\n      dup4\n        /* \"#utility.yul\":21453:21470   */\n      add\n        /* \"#utility.yul\":21446:21493   */\n      mstore\n        /* \"#utility.yul\":21510:21641   */\n      tag_596\n        /* \"#utility.yul\":21636:21640   */\n      dup2\n        /* \"#utility.yul\":21510:21641   */\n      tag_532\n      jump\t// in\n    tag_596:\n        /* \"#utility.yul\":21502:21641   */\n      swap1\n      pop\n        /* \"#utility.yul\":21229:21648   */\n      swap2\n      swap1\n      pop\n      jump\t// out\n        /* \"#utility.yul\":21654:22073   */\n    tag_124:\n        /* \"#utility.yul\":21820:21824   */\n      0x00\n        /* \"#utility.yul\":21858:21860   */\n      0x20\n        /* \"#utility.yul\":21847:21856   */\n      dup3\n        /* \"#utility.yul\":21843:21861   */\n      add\n        /* \"#utility.yul\":21835:21861   */\n      swap1\n      pop\n        /* \"#utility.yul\":21907:21916   */\n      dup2\n        /* \"#utility.yul\":21901:21905   */\n      dup2\n        /* \"#utility.yul\":21897:21917   */\n      sub\n        /* \"#utility.yul\":21893:21894   */\n      0x00\n        /* \"#utility.yul\":21882:21891   */\n      dup4\n        /* \"#utility.yul\":21878:21895   */\n      add\n        /* \"#utility.yul\":21871:21918   */\n      mstore\n        /* \"#utility.yul\":21935:22066   */\n      tag_598\n        /* \"#utility.yul\":22061:22065   */\n      dup2\n        /* \"#utility.yul\":21935:22066   */\n      tag_537\n      jump\t// in\n    tag_598:\n        /* \"#utility.yul\":21927:22066   */\n      swap1\n      pop\n        /* \"#utility.yul\":21654:22073   */\n      swap2\n      swap1\n      pop\n      jump\t// out\n        /* \"#utility.yul\":22079:22498   */\n    tag_257:\n        /* \"#utility.yul\":22245:22249   */\n      0x00\n        /* \"#utility.yul\":22283:22285   */\n      0x20\n        /* \"#utility.yul\":22272:22281   */\n      dup3\n        /* \"#utility.yul\":22268:22286   */\n      add\n        /* \"#utility.yul\":22260:22286   */\n      swap1\n      pop\n        /* \"#utility.yul\":22332:22341   */\n      dup2\n        /* \"#utility.yul\":22326:22330   */\n      dup2\n        /* \"#utility.yul\":22322:22342   */\n      sub\n        /* \"#utility.yul\":22318:22319   */\n      0x00\n        /* \"#utility.yul\":22307:22316   */\n      dup4\n        /* \"#utility.yul\":22303:22320   */\n      add\n        /* \"#utility.yul\":22296:22343   */\n      mstore\n        /* \"#utility.yul\":22360:22491   */\n      tag_600\n        /* \"#utility.yul\":22486:22490   */\n      dup2\n        /* \"#utility.yul\":22360:22491   */\n      tag_542\n      jump\t// in\n    tag_600:\n        /* \"#utility.yul\":22352:22491   */\n      swap1\n      pop\n        /* \"#utility.yul\":22079:22498   */\n      swap2\n      swap1\n      pop\n      jump\t// out\n        /* \"#utility.yul\":22504:22923   */\n    tag_117:\n        /* \"#utility.yul\":22670:22674   */\n      0x00\n        /* \"#utility.yul\":22708:22710   */\n      0x20\n        /* \"#utility.yul\":22697:22706   */\n      dup3\n        /* \"#utility.yul\":22693:22711   */\n      add\n        /* \"#utility.yul\":22685:22711   */\n      swap1\n      pop\n        /* \"#utility.yul\":22757:22766   */\n      dup2\n        /* \"#utility.yul\":22751:22755   */\n      dup2\n        /* \"#utility.yul\":22747:22767   */\n      sub\n        /* \"#utility.yul\":22743:22744   */\n      0x00\n        /* \"#utility.yul\":22732:22741   */\n      dup4\n        /* \"#utility.yul\":22728:22745   */\n      add\n        /* \"#utility.yul\":22721:22768   */\n      mstore\n        /* \"#utility.yul\":22785:22916   */\n      tag_602\n        /* \"#utility.yul\":22911:22915   */\n      dup2\n        /* \"#utility.yul\":22785:22916   */\n      tag_547\n      jump\t// in\n    tag_602:\n        /* \"#utility.yul\":22777:22916   */\n      swap1\n      pop\n        /* \"#utility.yul\":22504:22923   */\n      swap2\n      swap1\n      pop\n      jump\t// out\n        /* \"#utility.yul\":22929:23348   */\n    tag_221:\n        /* \"#utility.yul\":23095:23099   */\n      0x00\n        /* \"#utility.yul\":23133:23135   */\n      0x20\n        /* \"#utility.yul\":23122:23131   */\n      dup3\n        /* \"#utility.yul\":23118:23136   */\n      add\n        /* \"#utility.yul\":23110:23136   */\n      swap1\n      pop\n        /* \"#utility.yul\":23182:23191   */\n      dup2\n        /* \"#utility.yul\":23176:23180   */\n      dup2\n        /* \"#utility.yul\":23172:23192   */\n      sub\n        /* \"#utility.yul\":23168:23169   */\n      0x00\n        /* \"#utility.yul\":23157:23166   */\n      dup4\n        /* \"#utility.yul\":23153:23170   */\n      add\n        /* \"#utility.yul\":23146:23193   */\n      mstore\n        /* \"#utility.yul\":23210:23341   */\n      tag_604\n        /* \"#utility.yul\":23336:23340   */\n      dup2\n        /* \"#utility.yul\":23210:23341   */\n      tag_552\n      jump\t// in\n    tag_604:\n        /* \"#utility.yul\":23202:23341   */\n      swap1\n      pop\n        /* \"#utility.yul\":22929:23348   */\n      swap2\n      swap1\n      pop\n      jump\t// out\n        /* \"#utility.yul\":23354:23773   */\n    tag_165:\n        /* \"#utility.yul\":23520:23524   */\n      0x00\n        /* \"#utility.yul\":23558:23560   */\n      0x20\n        /* \"#utility.yul\":23547:23556   */\n      dup3\n        /* \"#utility.yul\":23543:23561   */\n      add\n        /* \"#utility.yul\":23535:23561   */\n      swap1\n      pop\n        /* \"#utility.yul\":23607:23616   */\n      dup2\n        /* \"#utility.yul\":23601:23605   */\n      dup2\n        /* \"#utility.yul\":23597:23617   */\n      sub\n        /* \"#utility.yul\":23593:23594   */\n      0x00\n        /* \"#utility.yul\":23582:23591   */\n      dup4\n        /* \"#utility.yul\":23578:23595   */\n      add\n        /* \"#utility.yul\":23571:23618   */\n      mstore\n        /* \"#utility.yul\":23635:23766   */\n      tag_606\n        /* \"#utility.yul\":23761:23765   */\n      dup2\n        /* \"#utility.yul\":23635:23766   */\n      tag_557\n      jump\t// in\n    tag_606:\n        /* \"#utility.yul\":23627:23766   */\n      swap1\n      pop\n        /* \"#utility.yul\":23354:23773   */\n      swap2\n      swap1\n      pop\n      jump\t// out\n        /* \"#utility.yul\":23779:24198   */\n    tag_159:\n        /* \"#utility.yul\":23945:23949   */\n      0x00\n        /* \"#utility.yul\":23983:23985   */\n      0x20\n        /* \"#utility.yul\":23972:23981   */\n      dup3\n        /* \"#utility.yul\":23968:23986   */\n      add\n        /* \"#utility.yul\":23960:23986   */\n      swap1\n      pop\n        /* \"#utility.yul\":24032:24041   */\n      dup2\n        /* \"#utility.yul\":24026:24030   */\n      dup2\n        /* \"#utility.yul\":24022:24042   */\n      sub\n        /* \"#utility.yul\":24018:24019   */\n      0x00\n        /* \"#utility.yul\":24007:24016   */\n      dup4\n        /* \"#utility.yul\":24003:24020   */\n      add\n        /* \"#utility.yul\":23996:24043   */\n      mstore\n        /* \"#utility.yul\":24060:24191   */\n      tag_608\n        /* \"#utility.yul\":24186:24190   */\n      dup2\n        /* \"#utility.yul\":24060:24191   */\n      tag_562\n      jump\t// in\n    tag_608:\n        /* \"#utility.yul\":24052:24191   */\n      swap1\n      pop\n        /* \"#utility.yul\":23779:24198   */\n      swap2\n      swap1\n      pop\n      jump\t// out\n        /* \"#utility.yul\":24204:24426   */\n    tag_50:\n        /* \"#utility.yul\":24297:24301   */\n      0x00\n        /* \"#utility.yul\":24335:24337   */\n      0x20\n        /* \"#utility.yul\":24324:24333   */\n      dup3\n        /* \"#utility.yul\":24320:24338   */\n      add\n        /* \"#utility.yul\":24312:24338   */\n      swap1\n      pop\n        /* \"#utility.yul\":24348:24419   */\n      tag_610\n        /* \"#utility.yul\":24416:24417   */\n      0x00\n        /* \"#utility.yul\":24405:24414   */\n      dup4\n        /* \"#utility.yul\":24401:24418   */\n      add\n        /* \"#utility.yul\":24392:24398   */\n      dup5\n        /* \"#utility.yul\":24348:24419   */\n      tag_570\n      jump\t// in\n    tag_610:\n        /* \"#utility.yul\":24204:24426   */\n      swap3\n      swap2\n      pop\n      pop\n      jump\t// out\n        /* \"#utility.yul\":24432:24561   */\n    tag_309:\n        /* \"#utility.yul\":24466:24472   */\n      0x00\n        /* \"#utility.yul\":24493:24513   */\n      tag_612\n      tag_613\n      jump\t// in\n    tag_612:\n        /* \"#utility.yul\":24483:24513   */\n      swap1\n      pop\n        /* \"#utility.yul\":24522:24555   */\n      tag_614\n        /* \"#utility.yul\":24550:24554   */\n      dup3\n        /* \"#utility.yul\":24542:24548   */\n      dup3\n        /* \"#utility.yul\":24522:24555   */\n      tag_615\n      jump\t// in\n    tag_614:\n        /* \"#utility.yul\":24432:24561   */\n      swap2\n      swap1\n      pop\n      jump\t// out\n        /* \"#utility.yul\":24567:24642   */\n    tag_613:\n        /* \"#utility.yul\":24600:24606   */\n      0x00\n        /* \"#utility.yul\":24633:24635   */\n      0x40\n        /* \"#utility.yul\":24627:24636   */\n      mload\n        /* \"#utility.yul\":24617:24636   */\n      swap1\n      pop\n        /* \"#utility.yul\":24567:24642   */\n      swap1\n      jump\t// out\n        /* \"#utility.yul\":24648:24969   */\n    tag_308:\n        /* \"#utility.yul\":24735:24739   */\n      0x00\n        /* \"#utility.yul\":24825:24843   */\n      0xffffffffffffffff\n        /* \"#utility.yul\":24817:24823   */\n      dup3\n        /* \"#utility.yul\":24814:24844   */\n      gt\n        /* \"#utility.yul\":24811:24867   */\n      iszero\n      tag_618\n      jumpi\n        /* \"#utility.yul\":24847:24865   */\n      tag_619\n      tag_197\n      jump\t// in\n    tag_619:\n        /* \"#utility.yul\":24811:24867   */\n    tag_618:\n        /* \"#utility.yul\":24897:24901   */\n      0x20\n        /* \"#utility.yul\":24889:24895   */\n      dup3\n        /* \"#utility.yul\":24885:24902   */\n      mul\n        /* \"#utility.yul\":24877:24902   */\n      swap1\n      pop\n        /* \"#utility.yul\":24957:24961   */\n      0x20\n        /* \"#utility.yul\":24951:24955   */\n      dup2\n        /* \"#utility.yul\":24947:24962   */\n      add\n        /* \"#utility.yul\":24939:24962   */\n      swap1\n      pop\n        /* \"#utility.yul\":24648:24969   */\n      swap2\n      swap1\n      pop\n      jump\t// out\n        /* \"#utility.yul\":24975:25282   */\n    tag_325:\n        /* \"#utility.yul\":25036:25040   */\n      0x00\n        /* \"#utility.yul\":25126:25144   */\n      0xffffffffffffffff\n        /* \"#utility.yul\":25118:25124   */\n      dup3\n        /* \"#utility.yul\":25115:25145   */\n      gt\n        /* \"#utility.yul\":25112:25168   */\n      iszero\n      tag_621\n      jumpi\n        /* \"#utility.yul\":25148:25166   */\n      tag_622\n      tag_197\n      jump\t// in\n    tag_622:\n        /* \"#utility.yul\":25112:25168   */\n    tag_621:\n        /* \"#utility.yul\":25186:25215   */\n      tag_623\n        /* \"#utility.yul\":25208:25214   */\n      dup3\n        /* \"#utility.yul\":25186:25215   */\n      tag_494\n      jump\t// in\n    tag_623:\n        /* \"#utility.yul\":25178:25215   */\n      swap1\n      pop\n        /* \"#utility.yul\":25270:25274   */\n      0x20\n        /* \"#utility.yul\":25264:25268   */\n      dup2\n        /* \"#utility.yul\":25260:25275   */\n      add\n        /* \"#utility.yul\":25252:25275   */\n      swap1\n      pop\n        /* \"#utility.yul\":24975:25282   */\n      swap2\n      swap1\n      pop\n      jump\t// out\n        /* \"#utility.yul\":25288:25596   */\n    tag_335:\n        /* \"#utility.yul\":25350:25354   */\n      0x00\n        /* \"#utility.yul\":25440:25458   */\n      0xffffffffffffffff\n        /* \"#utility.yul\":25432:25438   */\n      dup3\n        /* \"#utility.yul\":25429:25459   */\n      gt\n        /* \"#utility.yul\":25426:25482   */\n      iszero\n      tag_625\n      jumpi\n        /* \"#utility.yul\":25462:25480   */\n      tag_626\n      tag_197\n      jump\t// in\n    tag_626:\n        /* \"#utility.yul\":25426:25482   */\n    tag_625:\n        /* \"#utility.yul\":25500:25529   */\n      tag_627\n        /* \"#utility.yul\":25522:25528   */\n      dup3\n        /* \"#utility.yul\":25500:25529   */\n      tag_494\n      jump\t// in\n    tag_627:\n        /* \"#utility.yul\":25492:25529   */\n      swap1\n      pop\n        /* \"#utility.yul\":25584:25588   */\n      0x20\n        /* \"#utility.yul\":25578:25582   */\n      dup2\n        /* \"#utility.yul\":25574:25589   */\n      add\n        /* \"#utility.yul\":25566:25589   */\n      swap1\n      pop\n        /* \"#utility.yul\":25288:25596   */\n      swap2\n      swap1\n      pop\n      jump\t// out\n        /* \"#utility.yul\":25602:25744   */\n    tag_460:\n        /* \"#utility.yul\":25679:25683   */\n      0x00\n        /* \"#utility.yul\":25702:25705   */\n      dup2\n        /* \"#utility.yul\":25694:25705   */\n      swap1\n      pop\n        /* \"#utility.yul\":25732:25736   */\n      0x20\n        /* \"#utility.yul\":25727:25730   */\n      dup3\n        /* \"#utility.yul\":25723:25737   */\n      add\n        /* \"#utility.yul\":25715:25737   */\n      swap1\n      pop\n        /* \"#utility.yul\":25602:25744   */\n      swap2\n      swap1\n      pop\n      jump\t// out\n        /* \"#utility.yul\":25750:25882   */\n    tag_474:\n        /* \"#utility.yul\":25817:25821   */\n      0x00\n        /* \"#utility.yul\":25840:25843   */\n      dup2\n        /* \"#utility.yul\":25832:25843   */\n      swap1\n      pop\n        /* \"#utility.yul\":25870:25874   */\n      0x20\n        /* \"#utility.yul\":25865:25868   */\n      dup3\n        /* \"#utility.yul\":25861:25875   */\n      add\n        /* \"#utility.yul\":25853:25875   */\n      swap1\n      pop\n        /* \"#utility.yul\":25750:25882   */\n      swap2\n      swap1\n      pop\n      jump\t// out\n        /* \"#utility.yul\":25888:26029   */\n    tag_523:\n        /* \"#utility.yul\":25937:25941   */\n      0x00\n        /* \"#utility.yul\":25960:25963   */\n      dup2\n        /* \"#utility.yul\":25952:25963   */\n      swap1\n      pop\n        /* \"#utility.yul\":25983:25986   */\n      dup2\n        /* \"#utility.yul\":25980:25981   */\n      0x00\n        /* \"#utility.yul\":25973:25987   */\n      mstore\n        /* \"#utility.yul\":26017:26021   */\n      0x20\n        /* \"#utility.yul\":26014:26015   */\n      0x00\n        /* \"#utility.yul\":26004:26022   */\n      keccak256\n        /* \"#utility.yul\":25996:26022   */\n      swap1\n      pop\n        /* \"#utility.yul\":25888:26029   */\n      swap2\n      swap1\n      pop\n      jump\t// out\n        /* \"#utility.yul\":26035:26159   */\n    tag_456:\n        /* \"#utility.yul\":26112:26118   */\n      0x00\n        /* \"#utility.yul\":26146:26151   */\n      dup2\n        /* \"#utility.yul\":26140:26152   */\n      mload\n        /* \"#utility.yul\":26130:26152   */\n      swap1\n      pop\n        /* \"#utility.yul\":26035:26159   */\n      swap2\n      swap1\n      pop\n      jump\t// out\n        /* \"#utility.yul\":26165:26279   */\n    tag_470:\n        /* \"#utility.yul\":26232:26238   */\n      0x00\n        /* \"#utility.yul\":26266:26271   */\n      dup2\n        /* \"#utility.yul\":26260:26272   */\n      mload\n        /* \"#utility.yul\":26250:26272   */\n      swap1\n      pop\n        /* \"#utility.yul\":26165:26279   */\n      swap2\n      swap1\n      pop\n      jump\t// out\n        /* \"#utility.yul\":26285:26383   */\n    tag_488:\n        /* \"#utility.yul\":26336:26342   */\n      0x00\n        /* \"#utility.yul\":26370:26375   */\n      dup2\n        /* \"#utility.yul\":26364:26376   */\n      mload\n        /* \"#utility.yul\":26354:26376   */\n      swap1\n      pop\n        /* \"#utility.yul\":26285:26383   */\n      swap2\n      swap1\n      pop\n      jump\t// out\n        /* \"#utility.yul\":26389:26488   */\n    tag_497:\n        /* \"#utility.yul\":26441:26447   */\n      0x00\n        /* \"#utility.yul\":26475:26480   */\n      dup2\n        /* \"#utility.yul\":26469:26481   */\n      mload\n        /* \"#utility.yul\":26459:26481   */\n      swap1\n      pop\n        /* \"#utility.yul\":26389:26488   */\n      swap2\n      swap1\n      pop\n      jump\t// out\n        /* \"#utility.yul\":26494:26617   */\n    tag_466:\n        /* \"#utility.yul\":26574:26578   */\n      0x00\n        /* \"#utility.yul\":26606:26610   */\n      0x20\n        /* \"#utility.yul\":26601:26604   */\n      dup3\n        /* \"#utility.yul\":26597:26611   */\n      add\n        /* \"#utility.yul\":26589:26611   */\n      swap1\n      pop\n        /* \"#utility.yul\":26494:26617   */\n      swap2\n      swap1\n      pop\n      jump\t// out\n        /* \"#utility.yul\":26623:26736   */\n    tag_480:\n        /* \"#utility.yul\":26693:26697   */\n      0x00\n        /* \"#utility.yul\":26725:26729   */\n      0x20\n        /* \"#utility.yul\":26720:26723   */\n      dup3\n        /* \"#utility.yul\":26716:26730   */\n      add\n        /* \"#utility.yul\":26708:26730   */\n      swap1\n      pop\n        /* \"#utility.yul\":26623:26736   */\n      swap2\n      swap1\n      pop\n      jump\t// out\n        /* \"#utility.yul\":26742:26936   */\n    tag_458:\n        /* \"#utility.yul\":26851:26862   */\n      0x00\n        /* \"#utility.yul\":26885:26891   */\n      dup3\n        /* \"#utility.yul\":26880:26883   */\n      dup3\n        /* \"#utility.yul\":26873:26892   */\n      mstore\n        /* \"#utility.yul\":26925:26929   */\n      0x20\n        /* \"#utility.yul\":26920:26923   */\n      dup3\n        /* \"#utility.yul\":26916:26930   */\n      add\n        /* \"#utility.yul\":26901:26930   */\n      swap1\n      pop\n        /* \"#utility.yul\":26742:26936   */\n      swap3\n      swap2\n      pop\n      pop\n      jump\t// out\n        /* \"#utility.yul\":26942:27126   */\n    tag_472:\n        /* \"#utility.yul\":27041:27052   */\n      0x00\n        /* \"#utility.yul\":27075:27081   */\n      dup3\n        /* \"#utility.yul\":27070:27073   */\n      dup3\n        /* \"#utility.yul\":27063:27082   */\n      mstore\n        /* \"#utility.yul\":27115:27119   */\n      0x20\n        /* \"#utility.yul\":27110:27113   */\n      dup3\n        /* \"#utility.yul\":27106:27120   */\n      add\n        /* \"#utility.yul\":27091:27120   */\n      swap1\n      pop\n        /* \"#utility.yul\":26942:27126   */\n      swap3\n      swap2\n      pop\n      pop\n      jump\t// out\n        /* \"#utility.yul\":27132:27300   */\n    tag_490:\n        /* \"#utility.yul\":27215:27226   */\n      0x00\n        /* \"#utility.yul\":27249:27255   */\n      dup3\n        /* \"#utility.yul\":27244:27247   */\n      dup3\n        /* \"#utility.yul\":27237:27256   */\n      mstore\n        /* \"#utility.yul\":27289:27293   */\n      0x20\n        /* \"#utility.yul\":27284:27287   */\n      dup3\n        /* \"#utility.yul\":27280:27294   */\n      add\n        /* \"#utility.yul\":27265:27294   */\n      swap1\n      pop\n        /* \"#utility.yul\":27132:27300   */\n      swap3\n      swap2\n      pop\n      pop\n      jump\t// out\n        /* \"#utility.yul\":27306:27465   */\n    tag_499:\n        /* \"#utility.yul\":27380:27391   */\n      0x00\n        /* \"#utility.yul\":27414:27420   */\n      dup3\n        /* \"#utility.yul\":27409:27412   */\n      dup3\n        /* \"#utility.yul\":27402:27421   */\n      mstore\n        /* \"#utility.yul\":27454:27458   */\n      0x20\n        /* \"#utility.yul\":27449:27452   */\n      dup3\n        /* \"#utility.yul\":27445:27459   */\n      add\n        /* \"#utility.yul\":27430:27459   */\n      swap1\n      pop\n        /* \"#utility.yul\":27306:27465   */\n      swap3\n      swap2\n      pop\n      pop\n      jump\t// out\n        /* \"#utility.yul\":27471:27640   */\n    tag_506:\n        /* \"#utility.yul\":27555:27566   */\n      0x00\n        /* \"#utility.yul\":27589:27595   */\n      dup3\n        /* \"#utility.yul\":27584:27587   */\n      dup3\n        /* \"#utility.yul\":27577:27596   */\n      mstore\n        /* \"#utility.yul\":27629:27633   */\n      0x20\n        /* \"#utility.yul\":27624:27627   */\n      dup3\n        /* \"#utility.yul\":27620:27634   */\n      add\n        /* \"#utility.yul\":27605:27634   */\n      swap1\n      pop\n        /* \"#utility.yul\":27471:27640   */\n      swap3\n      swap2\n      pop\n      pop\n      jump\t// out\n        /* \"#utility.yul\":27646:27794   */\n    tag_513:\n        /* \"#utility.yul\":27748:27759   */\n      0x00\n        /* \"#utility.yul\":27785:27788   */\n      dup2\n        /* \"#utility.yul\":27770:27788   */\n      swap1\n      pop\n        /* \"#utility.yul\":27646:27794   */\n      swap3\n      swap2\n      pop\n      pop\n      jump\t// out\n        /* \"#utility.yul\":27800:28105   */\n    tag_172:\n        /* \"#utility.yul\":27840:27843   */\n      0x00\n        /* \"#utility.yul\":27859:27879   */\n      tag_644\n        /* \"#utility.yul\":27877:27878   */\n      dup3\n        /* \"#utility.yul\":27859:27879   */\n      tag_569\n      jump\t// in\n    tag_644:\n        /* \"#utility.yul\":27854:27879   */\n      swap2\n      pop\n        /* \"#utility.yul\":27893:27913   */\n      tag_645\n        /* \"#utility.yul\":27911:27912   */\n      dup4\n        /* \"#utility.yul\":27893:27913   */\n      tag_569\n      jump\t// in\n    tag_645:\n        /* \"#utility.yul\":27888:27913   */\n      swap3\n      pop\n        /* \"#utility.yul\":28047:28048   */\n      dup3\n        /* \"#utility.yul\":27979:28045   */\n      0xffffffffffffffffffffffffffffffffffffffffffffffffffffffffffffffff\n        /* \"#utility.yul\":27975:28049   */\n      sub\n        /* \"#utility.yul\":27972:27973   */\n      dup3\n        /* \"#utility.yul\":27969:28050   */\n      gt\n        /* \"#utility.yul\":27966:28073   */\n      iszero\n      tag_646\n      jumpi\n        /* \"#utility.yul\":28053:28071   */\n      tag_647\n      tag_648\n      jump\t// in\n    tag_647:\n        /* \"#utility.yul\":27966:28073   */\n    tag_646:\n        /* \"#utility.yul\":28097:28098   */\n      dup3\n        /* \"#utility.yul\":28094:28095   */\n      dup3\n        /* \"#utility.yul\":28090:28099   */\n      add\n        /* \"#utility.yul\":28083:28099   */\n      swap1\n      pop\n        /* \"#utility.yul\":27800:28105   */\n      swap3\n      swap2\n      pop\n      pop\n      jump\t// out\n        /* \"#utility.yul\":28111:28365   */\n    tag_137:\n        /* \"#utility.yul\":28150:28153   */\n      0x00\n        /* \"#utility.yul\":28169:28188   */\n      tag_650\n        /* \"#utility.yul\":28186:28187   */\n      dup3\n        /* \"#utility.yul\":28169:28188   */\n      tag_651\n      jump\t// in\n    tag_650:\n        /* \"#utility.yul\":28164:28188   */\n      swap2\n      pop\n        /* \"#utility.yul\":28202:28221   */\n      tag_652\n        /* \"#utility.yul\":28219:28220   */\n      dup4\n        /* \"#utility.yul\":28202:28221   */\n      tag_651\n      jump\t// in\n    tag_652:\n        /* \"#utility.yul\":28197:28221   */\n      swap3\n      pop\n        /* \"#utility.yul\":28307:28308   */\n      dup3\n        /* \"#utility.yul\":28287:28305   */\n      0xffffffffffffffff\n        /* \"#utility.yul\":28283:28309   */\n      sub\n        /* \"#utility.yul\":28280:28281   */\n      dup3\n        /* \"#utility.yul\":28277:28310   */\n      gt\n        /* \"#utility.yul\":28274:28333   */\n      iszero\n      tag_653\n      jumpi\n        /* \"#utility.yul\":28313:28331   */\n      tag_654\n      tag_648\n      jump\t// in\n    tag_654:\n        /* \"#utility.yul\":28274:28333   */\n    tag_653:\n        /* \"#utility.yul\":28357:28358   */\n      dup3\n        /* \"#utility.yul\":28354:28355   */\n      dup3\n        /* \"#utility.yul\":28350:28359   */\n      add\n        /* \"#utility.yul\":28343:28359   */\n      swap1\n      pop\n        /* \"#utility.yul\":28111:28365   */\n      swap3\n      swap2\n      pop\n      pop\n      jump\t// out\n        /* \"#utility.yul\":28371:28562   */\n    tag_170:\n        /* \"#utility.yul\":28411:28415   */\n      0x00\n        /* \"#utility.yul\":28431:28451   */\n      tag_656\n        /* \"#utility.yul\":28449:28450   */\n      dup3\n        /* \"#utility.yul\":28431:28451   */\n      tag_569\n      jump\t// in\n    tag_656:\n        /* \"#utility.yul\":28426:28451   */\n      swap2\n      pop\n        /* \"#utility.yul\":28465:28485   */\n      tag_657\n        /* \"#utility.yul\":28483:28484   */\n      dup4\n        /* \"#utility.yul\":28465:28485   */\n      tag_569\n      jump\t// in\n    tag_657:\n        /* \"#utility.yul\":28460:28485   */\n      swap3\n      pop\n        /* \"#utility.yul\":28504:28505   */\n      dup3\n        /* \"#utility.yul\":28501:28502   */\n      dup3\n        /* \"#utility.yul\":28498:28506   */\n      lt\n        /* \"#utility.yul\":28495:28529   */\n      iszero\n      tag_658\n      jumpi\n        /* \"#utility.yul\":28509:28527   */\n      tag_659\n      tag_648\n      jump\t// in\n    tag_659:\n        /* \"#utility.yul\":28495:28529   */\n    tag_658:\n        /* \"#utility.yul\":28554:28555   */\n      dup3\n        /* \"#utility.yul\":28551:28552   */\n      dup3\n        /* \"#utility.yul\":28547:28556   */\n      sub\n        /* \"#utility.yul\":28539:28556   */\n      swap1\n      pop\n        /* \"#utility.yul\":28371:28562   */\n      swap3\n      swap2\n      pop\n      pop\n      jump\t// out\n        /* \"#utility.yul\":28568:28664   */\n    tag_452:\n        /* \"#utility.yul\":28605:28612   */\n      0x00\n        /* \"#utility.yul\":28634:28658   */\n      tag_661\n        /* \"#utility.yul\":28652:28657   */\n      dup3\n        /* \"#utility.yul\":28634:28658   */\n      tag_662\n      jump\t// in\n    tag_661:\n        /* \"#utility.yul\":28623:28658   */\n      swap1\n      pop\n        /* \"#utility.yul\":28568:28664   */\n      swap2\n      swap1\n      pop\n      jump\t// out\n        /* \"#utility.yul\":28670:28760   */\n    tag_484:\n        /* \"#utility.yul\":28704:28711   */\n      0x00\n        /* \"#utility.yul\":28747:28752   */\n      dup2\n        /* \"#utility.yul\":28740:28753   */\n      iszero\n        /* \"#utility.yul\":28733:28754   */\n      iszero\n        /* \"#utility.yul\":28722:28754   */\n      swap1\n      pop\n        /* \"#utility.yul\":28670:28760   */\n      swap2\n      swap1\n      pop\n      jump\t// out\n        /* \"#utility.yul\":28766:28915   */\n    tag_664:\n        /* \"#utility.yul\":28802:28809   */\n      0x00\n        /* \"#utility.yul\":28842:28908   */\n      0xffffffff00000000000000000000000000000000000000000000000000000000\n        /* \"#utility.yul\":28835:28840   */\n      dup3\n        /* \"#utility.yul\":28831:28909   */\n      and\n        /* \"#utility.yul\":28820:28909   */\n      swap1\n      pop\n        /* \"#utility.yul\":28766:28915   */\n      swap2\n      swap1\n      pop\n      jump\t// out\n        /* \"#utility.yul\":28921:29047   */\n    tag_662:\n        /* \"#utility.yul\":28958:28965   */\n      0x00\n        /* \"#utility.yul\":28998:29040   */\n      0xffffffffffffffffffffffffffffffffffffffff\n        /* \"#utility.yul\":28991:28996   */\n      dup3\n        /* \"#utility.yul\":28987:29041   */\n      and\n        /* \"#utility.yul\":28976:29041   */\n      swap1\n      pop\n        /* \"#utility.yul\":28921:29047   */\n      swap2\n      swap1\n      pop\n      jump\t// out\n        /* \"#utility.yul\":29053:29130   */\n    tag_569:\n        /* \"#utility.yul\":29090:29097   */\n      0x00\n        /* \"#utility.yul\":29119:29124   */\n      dup2\n        /* \"#utility.yul\":29108:29124   */\n      swap1\n      pop\n        /* \"#utility.yul\":29053:29130   */\n      swap2\n      swap1\n      pop\n      jump\t// out\n        /* \"#utility.yul\":29136:29237   */\n    tag_651:\n        /* \"#utility.yul\":29172:29179   */\n      0x00\n        /* \"#utility.yul\":29212:29230   */\n      0xffffffffffffffff\n        /* \"#utility.yul\":29205:29210   */\n      dup3\n        /* \"#utility.yul\":29201:29231   */\n      and\n        /* \"#utility.yul\":29190:29231   */\n      swap1\n      pop\n        /* \"#utility.yul\":29136:29237   */\n      swap2\n      swap1\n      pop\n      jump\t// out\n        /* \"#utility.yul\":29243:29397   */\n    tag_330:\n        /* \"#utility.yul\":29327:29333   */\n      dup3\n        /* \"#utility.yul\":29322:29325   */\n      dup2\n        /* \"#utility.yul\":29317:29320   */\n      dup4\n        /* \"#utility.yul\":29304:29334   */\n      calldatacopy\n        /* \"#utility.yul\":29389:29390   */\n      0x00\n        /* \"#utility.yul\":29380:29386   */\n      dup4\n        /* \"#utility.yul\":29375:29378   */\n      dup4\n        /* \"#utility.yul\":29371:29387   */\n      add\n        /* \"#utility.yul\":29364:29391   */\n      mstore\n        /* \"#utility.yul\":29243:29397   */\n      pop\n      pop\n      pop\n      jump\t// out\n        /* \"#utility.yul\":29403:29710   */\n    tag_492:\n        /* \"#utility.yul\":29471:29472   */\n      0x00\n        /* \"#utility.yul\":29481:29594   */\n    tag_671:\n        /* \"#utility.yul\":29495:29501   */\n      dup4\n        /* \"#utility.yul\":29492:29493   */\n      dup2\n        /* \"#utility.yul\":29489:29502   */\n      lt\n        /* \"#utility.yul\":29481:29594   */\n      iszero\n      tag_673\n      jumpi\n        /* \"#utility.yul\":29580:29581   */\n      dup1\n        /* \"#utility.yul\":29575:29578   */\n      dup3\n        /* \"#utility.yul\":29571:29582   */\n      add\n        /* \"#utility.yul\":29565:29583   */\n      mload\n        /* \"#utility.yul\":29561:29562   */\n      dup2\n        /* \"#utility.yul\":29556:29559   */\n      dup5\n        /* \"#utility.yul\":29552:29563   */\n      add\n        /* \"#utility.yul\":29545:29584   */\n      mstore\n        /* \"#utility.yul\":29517:29519   */\n      0x20\n        /* \"#utility.yul\":29514:29515   */\n      dup2\n        /* \"#utility.yul\":29510:29520   */\n      add\n        /* \"#utility.yul\":29505:29520   */\n      swap1\n      pop\n        /* \"#utility.yul\":29481:29594   */\n      jump(tag_671)\n    tag_673:\n        /* \"#utility.yul\":29612:29618   */\n      dup4\n        /* \"#utility.yul\":29609:29610   */\n      dup2\n        /* \"#utility.yul\":29606:29619   */\n      gt\n        /* \"#utility.yul\":29603:29704   */\n      iszero\n      tag_674\n      jumpi\n        /* \"#utility.yul\":29692:29693   */\n      0x00\n        /* \"#utility.yul\":29683:29689   */\n      dup5\n        /* \"#utility.yul\":29678:29681   */\n      dup5\n        /* \"#utility.yul\":29674:29690   */\n      add\n        /* \"#utility.yul\":29667:29694   */\n      mstore\n        /* \"#utility.yul\":29603:29704   */\n    tag_674:\n        /* \"#utility.yul\":29452:29710   */\n      pop\n        /* \"#utility.yul\":29403:29710   */\n      pop\n      pop\n      pop\n      jump\t// out\n        /* \"#utility.yul\":29716:29885   */\n    tag_263:\n        /* \"#utility.yul\":29754:29757   */\n      0x00\n        /* \"#utility.yul\":29777:29800   */\n      tag_676\n        /* \"#utility.yul\":29794:29799   */\n      dup3\n        /* \"#utility.yul\":29777:29800   */\n      tag_651\n      jump\t// in\n    tag_676:\n        /* \"#utility.yul\":29768:29800   */\n      swap2\n      pop\n        /* \"#utility.yul\":29822:29826   */\n      0x00\n        /* \"#utility.yul\":29815:29820   */\n      dup3\n        /* \"#utility.yul\":29812:29827   */\n      eq\n        /* \"#utility.yul\":29809:29850   */\n      iszero\n      tag_677\n      jumpi\n        /* \"#utility.yul\":29830:29848   */\n      tag_678\n      tag_648\n      jump\t// in\n    tag_678:\n        /* \"#utility.yul\":29809:29850   */\n    tag_677:\n        /* \"#utility.yul\":29877:29878   */\n      0x01\n        /* \"#utility.yul\":29870:29875   */\n      dup3\n        /* \"#utility.yul\":29866:29879   */\n      sub\n        /* \"#utility.yul\":29859:29879   */\n      swap1\n      pop\n        /* \"#utility.yul\":29716:29885   */\n      swap2\n      swap1\n      pop\n      jump\t// out\n        /* \"#utility.yul\":29891:30211   */\n    tag_187:\n        /* \"#utility.yul\":29935:29941   */\n      0x00\n        /* \"#utility.yul\":29972:29973   */\n      0x02\n        /* \"#utility.yul\":29966:29970   */\n      dup3\n        /* \"#utility.yul\":29962:29974   */\n      div\n        /* \"#utility.yul\":29952:29974   */\n      swap1\n      pop\n        /* \"#utility.yul\":30019:30020   */\n      0x01\n        /* \"#utility.yul\":30013:30017   */\n      dup3\n        /* \"#utility.yul\":30009:30021   */\n      and\n        /* \"#utility.yul\":30040:30058   */\n      dup1\n        /* \"#utility.yul\":30030:30111   */\n      tag_680\n      jumpi\n        /* \"#utility.yul\":30096:30100   */\n      0x7f\n        /* \"#utility.yul\":30088:30094   */\n      dup3\n        /* \"#utility.yul\":30084:30101   */\n      and\n        /* \"#utility.yul\":30074:30101   */\n      swap2\n      pop\n        /* \"#utility.yul\":30030:30111   */\n    tag_680:\n        /* \"#utility.yul\":30158:30160   */\n      0x20\n        /* \"#utility.yul\":30150:30156   */\n      dup3\n        /* \"#utility.yul\":30147:30161   */\n      lt\n        /* \"#utility.yul\":30127:30145   */\n      dup2\n        /* \"#utility.yul\":30124:30162   */\n      eq\n        /* \"#utility.yul\":30121:30205   */\n      iszero\n      tag_681\n      jumpi\n        /* \"#utility.yul\":30177:30195   */\n      tag_682\n      tag_683\n      jump\t// in\n    tag_682:\n        /* \"#utility.yul\":30121:30205   */\n    tag_681:\n        /* \"#utility.yul\":29942:30211   */\n      pop\n        /* \"#utility.yul\":29891:30211   */\n      swap2\n      swap1\n      pop\n      jump\t// out\n        /* \"#utility.yul\":30217:30498   */\n    tag_615:\n        /* \"#utility.yul\":30300:30327   */\n      tag_685\n        /* \"#utility.yul\":30322:30326   */\n      dup3\n        /* \"#utility.yul\":30300:30327   */\n      tag_494\n      jump\t// in\n    tag_685:\n        /* \"#utility.yul\":30292:30298   */\n      dup2\n        /* \"#utility.yul\":30288:30328   */\n      add\n        /* \"#utility.yul\":30430:30436   */\n      dup2\n        /* \"#utility.yul\":30418:30428   */\n      dup2\n        /* \"#utility.yul\":30415:30437   */\n      lt\n        /* \"#utility.yul\":30394:30412   */\n      0xffffffffffffffff\n        /* \"#utility.yul\":30382:30392   */\n      dup3\n        /* \"#utility.yul\":30379:30413   */\n      gt\n        /* \"#utility.yul\":30376:30438   */\n      or\n        /* \"#utility.yul\":30373:30461   */\n      iszero\n      tag_686\n      jumpi\n        /* \"#utility.yul\":30441:30459   */\n      tag_687\n      tag_197\n      jump\t// in\n    tag_687:\n        /* \"#utility.yul\":30373:30461   */\n    tag_686:\n        /* \"#utility.yul\":30481:30491   */\n      dup1\n        /* \"#utility.yul\":30477:30479   */\n      0x40\n        /* \"#utility.yul\":30470:30492   */\n      mstore\n        /* \"#utility.yul\":30260:30498   */\n      pop\n        /* \"#utility.yul\":30217:30498   */\n      pop\n      pop\n      jump\t// out\n        /* \"#utility.yul\":30504:30737   */\n    tag_155:\n        /* \"#utility.yul\":30543:30546   */\n      0x00\n        /* \"#utility.yul\":30566:30590   */\n      tag_689\n        /* \"#utility.yul\":30584:30589   */\n      dup3\n        /* \"#utility.yul\":30566:30590   */\n      tag_569\n      jump\t// in\n    tag_689:\n        /* \"#utility.yul\":30557:30590   */\n      swap2\n      pop\n        /* \"#utility.yul\":30612:30678   */\n      0xffffffffffffffffffffffffffffffffffffffffffffffffffffffffffffffff\n        /* \"#utility.yul\":30605:30610   */\n      dup3\n        /* \"#utility.yul\":30602:30679   */\n      eq\n        /* \"#utility.yul\":30599:30702   */\n      iszero\n      tag_690\n      jumpi\n        /* \"#utility.yul\":30682:30700   */\n      tag_691\n      tag_648\n      jump\t// in\n    tag_691:\n        /* \"#utility.yul\":30599:30702   */\n    tag_690:\n        /* \"#utility.yul\":30729:30730   */\n      0x01\n        /* \"#utility.yul\":30722:30727   */\n      dup3\n        /* \"#utility.yul\":30718:30731   */\n      add\n        /* \"#utility.yul\":30711:30731   */\n      swap1\n      pop\n        /* \"#utility.yul\":30504:30737   */\n      swap2\n      swap1\n      pop\n      jump\t// out\n        /* \"#utility.yul\":30743:30923   */\n    tag_648:\n        /* \"#utility.yul\":30791:30868   */\n      0x4e487b7100000000000000000000000000000000000000000000000000000000\n        /* \"#utility.yul\":30788:30789   */\n      0x00\n        /* \"#utility.yul\":30781:30869   */\n      mstore\n        /* \"#utility.yul\":30888:30892   */\n      0x11\n        /* \"#utility.yul\":30885:30886   */\n      0x04\n        /* \"#utility.yul\":30878:30893   */\n      mstore\n        /* \"#utility.yul\":30912:30916   */\n      0x24\n        /* \"#utility.yul\":30909:30910   */\n      0x00\n        /* \"#utility.yul\":30902:30917   */\n      revert\n        /* \"#utility.yul\":30929:31109   */\n    tag_683:\n        /* \"#utility.yul\":30977:31054   */\n      0x4e487b7100000000000000000000000000000000000000000000000000000000\n        /* \"#utility.yul\":30974:30975   */\n      0x00\n        /* \"#utility.yul\":30967:31055   */\n      mstore\n        /* \"#utility.yul\":31074:31078   */\n      0x22\n        /* \"#utility.yul\":31071:31072   */\n      0x04\n        /* \"#utility.yul\":31064:31079   */\n      mstore\n        /* \"#utility.yul\":31098:31102   */\n      0x24\n        /* \"#utility.yul\":31095:31096   */\n      0x00\n        /* \"#utility.yul\":31088:31103   */\n      revert\n        /* \"#utility.yul\":31115:31295   */\n    tag_175:\n        /* \"#utility.yul\":31163:31240   */\n      0x4e487b7100000000000000000000000000000000000000000000000000000000\n        /* \"#utility.yul\":31160:31161   */\n      0x00\n        /* \"#utility.yul\":31153:31241   */\n      mstore\n        /* \"#utility.yul\":31260:31264   */\n      0x32\n        /* \"#utility.yul\":31257:31258   */\n      0x04\n        /* \"#utility.yul\":31250:31265   */\n      mstore\n        /* \"#utility.yul\":31284:31288   */\n      0x24\n        /* \"#utility.yul\":31281:31282   */\n      0x00\n        /* \"#utility.yul\":31274:31289   */\n      revert\n        /* \"#utility.yul\":31301:31481   */\n    tag_197:\n        /* \"#utility.yul\":31349:31426   */\n      0x4e487b7100000000000000000000000000000000000000000000000000000000\n        /* \"#utility.yul\":31346:31347   */\n      0x00\n        /* \"#utility.yul\":31339:31427   */\n      mstore\n        /* \"#utility.yul\":31446:31450   */\n      0x41\n        /* \"#utility.yul\":31443:31444   */\n      0x04\n        /* \"#utility.yul\":31436:31451   */\n      mstore\n        /* \"#utility.yul\":31470:31474   */\n      0x24\n        /* \"#utility.yul\":31467:31468   */\n      0x00\n        /* \"#utility.yul\":31460:31475   */\n      revert\n        /* \"#utility.yul\":31487:31604   */\n    tag_318:\n        /* \"#utility.yul\":31596:31597   */\n      0x00\n        /* \"#utility.yul\":31593:31594   */\n      dup1\n        /* \"#utility.yul\":31586:31598   */\n      revert\n        /* \"#utility.yul\":31610:31727   */\n    tag_312:\n        /* \"#utility.yul\":31719:31720   */\n      0x00\n        /* \"#utility.yul\":31716:31717   */\n      dup1\n        /* \"#utility.yul\":31709:31721   */\n      revert\n        /* \"#utility.yul\":31733:31850   */\n    tag_328:\n        /* \"#utility.yul\":31842:31843   */\n      0x00\n        /* \"#utility.yul\":31839:31840   */\n      dup1\n        /* \"#utility.yul\":31832:31844   */\n      revert\n        /* \"#utility.yul\":31856:31973   */\n    tag_403:\n        /* \"#utility.yul\":31965:31966   */\n      0x00\n        /* \"#utility.yul\":31962:31963   */\n      dup1\n        /* \"#utility.yul\":31955:31967   */\n      revert\n        /* \"#utility.yul\":31979:32096   */\n    tag_378:\n        /* \"#utility.yul\":32088:32089   */\n      0x00\n        /* \"#utility.yul\":32085:32086   */\n      dup1\n        /* \"#utility.yul\":32078:32090   */\n      revert\n        /* \"#utility.yul\":32102:32204   */\n    tag_494:\n        /* \"#utility.yul\":32143:32149   */\n      0x00\n        /* \"#utility.yul\":32194:32196   */\n      0x1f\n        /* \"#utility.yul\":32190:32197   */\n      not\n        /* \"#utility.yul\":32185:32187   */\n      0x1f\n        /* \"#utility.yul\":32178:32183   */\n      dup4\n        /* \"#utility.yul\":32174:32188   */\n      add\n        /* \"#utility.yul\":32170:32198   */\n      and\n        /* \"#utility.yul\":32160:32198   */\n      swap1\n      pop\n        /* \"#utility.yul\":32102:32204   */\n      swap2\n      swap1\n      pop\n      jump\t// out\n        /* \"#utility.yul\":32210:32433   */\n    tag_531:\n        /* \"#utility.yul\":32350:32384   */\n      0x4552433732313a207472616e7366657220746f20746865207a65726f20616464\n        /* \"#utility.yul\":32346:32347   */\n      0x00\n        /* \"#utility.yul\":32338:32344   */\n      dup3\n        /* \"#utility.yul\":32334:32348   */\n      add\n        /* \"#utility.yul\":32327:32385   */\n      mstore\n        /* \"#utility.yul\":32419:32425   */\n      0x7265737300000000000000000000000000000000000000000000000000000000\n        /* \"#utility.yul\":32414:32416   */\n      0x20\n        /* \"#utility.yul\":32406:32412   */\n      dup3\n        /* \"#utility.yul\":32402:32417   */\n      add\n        /* \"#utility.yul\":32395:32426   */\n      mstore\n        /* \"#utility.yul\":32210:32433   */\n      pop\n      jump\t// out\n        /* \"#utility.yul\":32439:32614   */\n    tag_536:\n        /* \"#utility.yul\":32579:32606   */\n      0x4552433732313a20617070726f766520746f2063616c6c657200000000000000\n        /* \"#utility.yul\":32575:32576   */\n      0x00\n        /* \"#utility.yul\":32567:32573   */\n      dup3\n        /* \"#utility.yul\":32563:32577   */\n      add\n        /* \"#utility.yul\":32556:32607   */\n      mstore\n        /* \"#utility.yul\":32439:32614   */\n      pop\n      jump\t// out\n        /* \"#utility.yul\":32620:32863   */\n    tag_541:\n        /* \"#utility.yul\":32760:32794   */\n      0x4552433732313a20617070726f76652063616c6c6572206973206e6f74206f77\n        /* \"#utility.yul\":32756:32757   */\n      0x00\n        /* \"#utility.yul\":32748:32754   */\n      dup3\n        /* \"#utility.yul\":32744:32758   */\n      add\n        /* \"#utility.yul\":32737:32795   */\n      mstore\n        /* \"#utility.yul\":32829:32855   */\n      0x6e6572206e6f7220617070726f76656420666f7220616c6c0000000000000000\n        /* \"#utility.yul\":32824:32826   */\n      0x20\n        /* \"#utility.yul\":32816:32822   */\n      dup3\n        /* \"#utility.yul\":32812:32827   */\n      add\n        /* \"#utility.yul\":32805:32856   */\n      mstore\n        /* \"#utility.yul\":32620:32863   */\n      pop\n      jump\t// out\n        /* \"#utility.yul\":32869:33097   */\n    tag_546:\n        /* \"#utility.yul\":33009:33043   */\n      0x4552433732313a207472616e73666572206f6620746f6b656e20746861742069\n        /* \"#utility.yul\":33005:33006   */\n      0x00\n        /* \"#utility.yul\":32997:33003   */\n      dup3\n        /* \"#utility.yul\":32993:33007   */\n      add\n        /* \"#utility.yul\":32986:33044   */\n      mstore\n        /* \"#utility.yul\":33078:33089   */\n      0x73206e6f74206f776e0000000000000000000000000000000000000000000000\n        /* \"#utility.yul\":33073:33075   */\n      0x20\n        /* \"#utility.yul\":33065:33071   */\n      dup3\n        /* \"#utility.yul\":33061:33076   */\n      add\n        /* \"#utility.yul\":33054:33090   */\n      mstore\n        /* \"#utility.yul\":32869:33097   */\n      pop\n      jump\t// out\n        /* \"#utility.yul\":33103:33323   */\n    tag_551:\n        /* \"#utility.yul\":33243:33277   */\n      0x4552433732313a20617070726f76616c20746f2063757272656e74206f776e65\n        /* \"#utility.yul\":33239:33240   */\n      0x00\n        /* \"#utility.yul\":33231:33237   */\n      dup3\n        /* \"#utility.yul\":33227:33241   */\n      add\n        /* \"#utility.yul\":33220:33278   */\n      mstore\n        /* \"#utility.yul\":33312:33315   */\n      0x7200000000000000000000000000000000000000000000000000000000000000\n        /* \"#utility.yul\":33307:33309   */\n      0x20\n        /* \"#utility.yul\":33299:33305   */\n      dup3\n        /* \"#utility.yul\":33295:33310   */\n      add\n        /* \"#utility.yul\":33288:33316   */\n      mstore\n        /* \"#utility.yul\":33103:33323   */\n      pop\n      jump\t// out\n        /* \"#utility.yul\":33329:33565   */\n    tag_556:\n        /* \"#utility.yul\":33469:33503   */\n      0x4552433732313a207472616e736665722063616c6c6572206973206e6f74206f\n        /* \"#utility.yul\":33465:33466   */\n      0x00\n        /* \"#utility.yul\":33457:33463   */\n      dup3\n        /* \"#utility.yul\":33453:33467   */\n      add\n        /* \"#utility.yul\":33446:33504   */\n      mstore\n        /* \"#utility.yul\":33538:33557   */\n      0x776e6572206e6f7220617070726f766564000000000000000000000000000000\n        /* \"#utility.yul\":33533:33535   */\n      0x20\n        /* \"#utility.yul\":33525:33531   */\n      dup3\n        /* \"#utility.yul\":33521:33536   */\n      add\n        /* \"#utility.yul\":33514:33558   */\n      mstore\n        /* \"#utility.yul\":33329:33565   */\n      pop\n      jump\t// out\n        /* \"#utility.yul\":33571:33740   */\n    tag_561:\n        /* \"#utility.yul\":33711:33732   */\n      0x496e646578206f7574206f6620626f756e647300000000000000000000000000\n        /* \"#utility.yul\":33707:33708   */\n      0x00\n        /* \"#utility.yul\":33699:33705   */\n      dup3\n        /* \"#utility.yul\":33695:33709   */\n      add\n        /* \"#utility.yul\":33688:33733   */\n      mstore\n        /* \"#utility.yul\":33571:33740   */\n      pop\n      jump\t// out\n        /* \"#utility.yul\":33746:33920   */\n    tag_566:\n        /* \"#utility.yul\":33886:33912   */\n      0x4552433732313a20616472657373203020696e76616c69640000000000000000\n        /* \"#utility.yul\":33882:33883   */\n      0x00\n        /* \"#utility.yul\":33874:33880   */\n      dup3\n        /* \"#utility.yul\":33870:33884   */\n      add\n        /* \"#utility.yul\":33863:33913   */\n      mstore\n        /* \"#utility.yul\":33746:33920   */\n      pop\n      jump\t// out\n        /* \"#utility.yul\":33926:34048   */\n    tag_342:\n        /* \"#utility.yul\":33999:34023   */\n      tag_711\n        /* \"#utility.yul\":34017:34022   */\n      dup2\n        /* \"#utility.yul\":33999:34023   */\n      tag_452\n      jump\t// in\n    tag_711:\n        /* \"#utility.yul\":33992:33997   */\n      dup2\n        /* \"#utility.yul\":33989:34024   */\n      eq\n        /* \"#utility.yul\":33979:34042   */\n      tag_712\n      jumpi\n        /* \"#utility.yul\":34038:34039   */\n      0x00\n        /* \"#utility.yul\":34035:34036   */\n      dup1\n        /* \"#utility.yul\":34028:34040   */\n      revert\n        /* \"#utility.yul\":33979:34042   */\n    tag_712:\n        /* \"#utility.yul\":33926:34048   */\n      pop\n      jump\t// out\n        /* \"#utility.yul\":34054:34170   */\n    tag_354:\n        /* \"#utility.yul\":34124:34145   */\n      tag_714\n        /* \"#utility.yul\":34139:34144   */\n      dup2\n        /* \"#utility.yul\":34124:34145   */\n      tag_484\n      jump\t// in\n    tag_714:\n        /* \"#utility.yul\":34117:34122   */\n      dup2\n        /* \"#utility.yul\":34114:34146   */\n      eq\n        /* \"#utility.yul\":34104:34164   */\n      tag_715\n      jumpi\n        /* \"#utility.yul\":34160:34161   */\n      0x00\n        /* \"#utility.yul\":34157:34158   */\n      dup1\n        /* \"#utility.yul\":34150:34162   */\n      revert\n        /* \"#utility.yul\":34104:34164   */\n    tag_715:\n        /* \"#utility.yul\":34054:34170   */\n      pop\n      jump\t// out\n        /* \"#utility.yul\":34176:34296   */\n    tag_358:\n        /* \"#utility.yul\":34248:34271   */\n      tag_717\n        /* \"#utility.yul\":34265:34270   */\n      dup2\n        /* \"#utility.yul\":34248:34271   */\n      tag_664\n      jump\t// in\n    tag_717:\n        /* \"#utility.yul\":34241:34246   */\n      dup2\n        /* \"#utility.yul\":34238:34272   */\n      eq\n        /* \"#utility.yul\":34228:34290   */\n      tag_718\n      jumpi\n        /* \"#utility.yul\":34286:34287   */\n      0x00\n        /* \"#utility.yul\":34283:34284   */\n      dup1\n        /* \"#utility.yul\":34276:34288   */\n      revert\n        /* \"#utility.yul\":34228:34290   */\n    tag_718:\n        /* \"#utility.yul\":34176:34296   */\n      pop\n      jump\t// out\n        /* \"#utility.yul\":34302:34424   */\n    tag_374:\n        /* \"#utility.yul\":34375:34399   */\n      tag_720\n        /* \"#utility.yul\":34393:34398   */\n      dup2\n        /* \"#utility.yul\":34375:34399   */\n      tag_569\n      jump\t// in\n    tag_720:\n        /* \"#utility.yul\":34368:34373   */\n      dup2\n        /* \"#utility.yul\":34365:34400   */\n      eq\n        /* \"#utility.yul\":34355:34418   */\n      tag_721\n      jumpi\n        /* \"#utility.yul\":34414:34415   */\n      0x00\n        /* \"#utility.yul\":34411:34412   */\n      dup1\n        /* \"#utility.yul\":34404:34416   */\n      revert\n        /* \"#utility.yul\":34355:34418   */\n    tag_721:\n        /* \"#utility.yul\":34302:34424   */\n      pop\n      jump\t// out\n\n    auxdata: 0xa2646970667358221220940da2ce19ebfa0d3fe685ae33e43a9a04bda08aa5a5a3f3d052a182671fe80264736f6c63430008070033\n}\n",
				"bytecode": {
					"linkReferences": {},
					"object": "608060405234801561001057600080fd5b50612d3d806100206000396000f3fe6080604052600436106100fe5760003560e01c80636352211e116100955780637fcb2989116100645780637fcb2989146103425780638462151c1461037f578063a22cb465146103bc578063b88d4fde146103e5578063e985e9c514610401576100fe565b80636352211e146102745780636ba367a3146102b157806370a08231146102dc5780637360cbba14610319576100fe565b80633d02d0c9116100d15780633d02d0c9146101b557806342842e0e146101f257806342966c681461020e5780634802693d14610237576100fe565b806301ffc9a714610103578063081812fc14610140578063095ea7b31461017d57806323b872dd14610199575b600080fd5b34801561010f57600080fd5b5061012a60048036038101906101259190611efa565b61043e565b6040516101379190612471565b60405180910390f35b34801561014c57600080fd5b5061016760048036038101906101629190611f54565b6104a8565b60405161017491906123c6565b60405180910390f35b61019760048036038101906101929190611eba565b6104e5565b005b6101b360048036038101906101ae9190611d48565b6105f9565b005b3480156101c157600080fd5b506101dc60048036038101906101d79190611e5e565b610609565b6040516101e991906125ae565b60405180910390f35b61020c60048036038101906102079190611d48565b610904565b005b34801561021a57600080fd5b5061023560048036038101906102309190611f54565b610924565b005b34801561024357600080fd5b5061025e60048036038101906102599190611cae565b61094c565b60405161026b919061248c565b60405180910390f35b34801561028057600080fd5b5061029b60048036038101906102969190611f54565b610a35565b6040516102a891906123c6565b60405180910390f35b3480156102bd57600080fd5b506102c6610b1a565b6040516102d391906125ae565b60405180910390f35b3480156102e857600080fd5b5061030360048036038101906102fe9190611cae565b610b26565b60405161031091906125ae565b60405180910390f35b34801561032557600080fd5b50610340600480360381019061033b9190611f81565b610b8d565b005b34801561034e57600080fd5b5061036960048036038101906103649190611cae565b610c74565b604051610376919061242d565b60405180910390f35b34801561038b57600080fd5b506103a660048036038101906103a19190611cae565b610d8c565b6040516103b3919061244f565b60405180910390f35b3480156103c857600080fd5b506103e360048036038101906103de9190611e1e565b610f15565b005b6103ff60048036038101906103fa9190611d9b565b611081565b005b34801561040d57600080fd5b5061042860048036038101906104239190611d08565b6110dc565b6040516104359190612471565b60405180910390f35b60007f80ac58cd000000000000000000000000000000000000000000000000000000007bffffffffffffffffffffffffffffffffffffffffffffffffffffffff1916827bffffffffffffffffffffffffffffffffffffffffffffffffffffffff1916149050919050565b60006005600083815260200190815260200160002060009054906101000a900473ffffffffffffffffffffffffffffffffffffffff169050919050565b6104ee81610a35565b73ffffffffffffffffffffffffffffffffffffffff168273ffffffffffffffffffffffffffffffffffffffff16141561055c576040517f08c379a00000000000000000000000000000000000000000000000000000000081526004016105539061252e565b60405180910390fd5b61056581610a35565b73ffffffffffffffffffffffffffffffffffffffff163373ffffffffffffffffffffffffffffffffffffffff1614806105ac57506105ab6105a582610a35565b336110dc565b5b6105eb576040517f08c379a00000000000000000000000000000000000000000000000000000000081526004016105e2906124ee565b60405180910390fd5b6105f58282611170565b5050565b610604838383610904565b505050565b60008060405180604001604052803373ffffffffffffffffffffffffffffffffffffffff1681526020014267ffffffffffffffff168152509050600073ffffffffffffffffffffffffffffffffffffffff168473ffffffffffffffffffffffffffffffffffffffff16141561067d57600080fd5b6000819080600181540180825580915050600190039060005260206000200160009091909190915060008201518160000160006101000a81548173ffffffffffffffffffffffffffffffffffffffff021916908373ffffffffffffffffffffffffffffffffffffffff16021790555060208201518160000160146101000a81548167ffffffffffffffff021916908367ffffffffffffffff160217905550505060008054905091508260026000848152602001908152602001600020908051906020019061074c9291906119b1565b50600160008573ffffffffffffffffffffffffffffffffffffffff1673ffffffffffffffffffffffffffffffffffffffff168152602001908152602001600020839080600181540180825580915050600190039060005260206000200160009091909190915090805190602001906107c59291906119b1565b506001600460008673ffffffffffffffffffffffffffffffffffffffff1673ffffffffffffffffffffffffffffffffffffffff16815260200190815260200160002060008282829054906101000a900467ffffffffffffffff1661082991906127ad565b92506101000a81548167ffffffffffffffff021916908367ffffffffffffffff160217905550836003600084815260200190815260200160002060006101000a81548173ffffffffffffffffffffffffffffffffffffffff021916908373ffffffffffffffffffffffffffffffffffffffff160217905550818473ffffffffffffffffffffffffffffffffffffffff16600073ffffffffffffffffffffffffffffffffffffffff167fddf252ad1be2c89b69c2b068fc378daa952ba7f163c4a11628f55a4df523b3ef60405160405180910390a45092915050565b61091f83838360405180602001604052806000815250611081565b505050565b61092e33826112aa565b61093757600080fd5b61094961094382610a35565b82611342565b50565b606060006040518060200160405280600081525090506000600190505b6000805490508111610a2b578373ffffffffffffffffffffffffffffffffffffffff166003600083815260200190815260200160002060009054906101000a900473ffffffffffffffffffffffffffffffffffffffff1673ffffffffffffffffffffffffffffffffffffffff161415610a17578160026000838152602001908152602001600020604051602001610a0192919061238b565b6040516020818303038152906040529150610a18565b5b8080610a2390612976565b915050610969565b5080915050919050565b6000806003600084815260200190815260200160002060009054906101000a900473ffffffffffffffffffffffffffffffffffffffff169050600073ffffffffffffffffffffffffffffffffffffffff168173ffffffffffffffffffffffffffffffffffffffff161415610ade576040517f08c379a0000000000000000000000000000000000000000000000000000000008152600401610ad59061258e565b60405180910390fd5b6003600084815260200190815260200160002060009054906101000a900473ffffffffffffffffffffffffffffffffffffffff16915050919050565b60008080549050905090565b6000600460008373ffffffffffffffffffffffffffffffffffffffff1673ffffffffffffffffffffffffffffffffffffffff16815260200190815260200160002060009054906101000a900467ffffffffffffffff1667ffffffffffffffff169050919050565b80518210610bd0576040517f08c379a0000000000000000000000000000000000000000000000000000000008152600401610bc79061256e565b60405180910390fd5b60008290505b60018251610be491906127eb565b811015610c435781600182610bf99190612757565b81518110610c0a57610c09612a1d565b5b6020026020010151828281518110610c2557610c24612a1d565b5b60200260200101819052508080610c3b90612976565b915050610bd6565b508060018251610c5391906127eb565b81518110610c6457610c63612a1d565b5b6020026020010160608152505050565b6060600160008373ffffffffffffffffffffffffffffffffffffffff1673ffffffffffffffffffffffffffffffffffffffff168152602001908152602001600020805480602002602001604051908101604052809291908181526020016000905b82821015610d81578382906000526020600020018054610cf490612913565b80601f0160208091040260200160405190810160405280929190818152602001828054610d2090612913565b8015610d6d5780601f10610d4257610100808354040283529160200191610d6d565b820191906000526020600020905b815481529060010190602001808311610d5057829003601f168201915b505050505081526020019060010190610cd5565b505050509050919050565b60606000610d9983610b26565b90506000811415610df657600067ffffffffffffffff811115610dbf57610dbe612a4c565b5b604051908082528060200260200182016040528015610ded5781602001602082028036833780820191505090505b50915050610f10565b60008167ffffffffffffffff811115610e1257610e11612a4c565b5b604051908082528060200260200182016040528015610e405781602001602082028036833780820191505090505b5090506000610e4d610b1a565b9050600080600190505b828111610f07578673ffffffffffffffffffffffffffffffffffffffff166003600083815260200190815260200160002060009054906101000a900473ffffffffffffffffffffffffffffffffffffffff1673ffffffffffffffffffffffffffffffffffffffff161415610ef45780848381518110610ed957610ed8612a1d565b5b6020026020010181815250508180610ef090612976565b9250505b8080610eff90612976565b915050610e57565b83955050505050505b919050565b3373ffffffffffffffffffffffffffffffffffffffff168273ffffffffffffffffffffffffffffffffffffffff161415610f84576040517f08c379a0000000000000000000000000000000000000000000000000000000008152600401610f7b906124ce565b60405180910390fd5b80600660003373ffffffffffffffffffffffffffffffffffffffff1673ffffffffffffffffffffffffffffffffffffffff16815260200190815260200160002060008473ffffffffffffffffffffffffffffffffffffffff1673ffffffffffffffffffffffffffffffffffffffff16815260200190815260200160002060006101000a81548160ff0219169083151502179055508173ffffffffffffffffffffffffffffffffffffffff163373ffffffffffffffffffffffffffffffffffffffff167f17307eab39ab6107e8899845ad3d59bd9653f200f220920489ca2b5937696c31836040516110759190612471565b60405180910390a35050565b61108b33836112aa565b6110ca576040517f08c379a00000000000000000000000000000000000000000000000000000000081526004016110c19061254e565b60405180910390fd5b6110d684848484611352565b50505050565b6000600660008473ffffffffffffffffffffffffffffffffffffffff1673ffffffffffffffffffffffffffffffffffffffff16815260200190815260200160002060008373ffffffffffffffffffffffffffffffffffffffff1673ffffffffffffffffffffffffffffffffffffffff16815260200190815260200160002060009054906101000a900460ff16905092915050565b816005600083815260200190815260200160002060006101000a81548173ffffffffffffffffffffffffffffffffffffffff021916908373ffffffffffffffffffffffffffffffffffffffff16021790555060008273ffffffffffffffffffffffffffffffffffffffff163073ffffffffffffffffffffffffffffffffffffffff16636352211e846040518263ffffffff1660e01b815260040161121491906125ae565b60206040518083038186803b15801561122c57600080fd5b505afa158015611240573d6000803e3d6000fd5b505050506040513d601f19601f820116820180604052508101906112649190611cdb565b73ffffffffffffffffffffffffffffffffffffffff167f8c5be1e5ebec7d5bd14f71427d1e84f3dd0314c0f7b2291e5b200ac8c7c3b92560405160405180910390a45050565b60008273ffffffffffffffffffffffffffffffffffffffff166112cc83610a35565b73ffffffffffffffffffffffffffffffffffffffff16148061132157508273ffffffffffffffffffffffffffffffffffffffff16611309836104a8565b73ffffffffffffffffffffffffffffffffffffffff16145b8061133a575061133961133383610a35565b846110dc565b5b905092915050565b61134e826000836114d5565b5050565b61135d8484846114d5565b6000833b905060008163ffffffff1611156114ce5760008490507f150b7a023d4804d13e8c85fb27262cb750cf6ba9f9dd3bb30d90f482ceeb4b1f7bffffffffffffffffffffffffffffffffffffffffffffffffffffffff19168173ffffffffffffffffffffffffffffffffffffffff1663150b7a02338988886040518563ffffffff1660e01b81526004016113f694939291906123e1565b602060405180830381600087803b15801561141057600080fd5b505af1158015611424573d6000803e3d6000fd5b505050506040513d601f19601f820116820180604052508101906114489190611f27565b7bffffffffffffffffffffffffffffffffffffffffffffffffffffffff19161461147157600080fd5b838573ffffffffffffffffffffffffffffffffffffffff168773ffffffffffffffffffffffffffffffffffffffff167fddf252ad1be2c89b69c2b068fc378daa952ba7f163c4a11628f55a4df523b3ef60405160405180910390a4505b5050505050565b8273ffffffffffffffffffffffffffffffffffffffff166114f582610a35565b73ffffffffffffffffffffffffffffffffffffffff161461154b576040517f08c379a00000000000000000000000000000000000000000000000000000000081526004016115429061250e565b60405180910390fd5b600073ffffffffffffffffffffffffffffffffffffffff168273ffffffffffffffffffffffffffffffffffffffff1614156115bb576040517f08c379a00000000000000000000000000000000000000000000000000000000081526004016115b2906124ae565b60405180910390fd5b6115c6600082611170565b816003600083815260200190815260200160002060006101000a81548173ffffffffffffffffffffffffffffffffffffffff021916908373ffffffffffffffffffffffffffffffffffffffff1602179055506000600160008573ffffffffffffffffffffffffffffffffffffffff1673ffffffffffffffffffffffffffffffffffffffff168152602001908152602001600020805490509050600460008573ffffffffffffffffffffffffffffffffffffffff1673ffffffffffffffffffffffffffffffffffffffff168152602001908152602001600020600081819054906101000a900467ffffffffffffffff16809291906116c2906128e9565b91906101000a81548167ffffffffffffffff021916908367ffffffffffffffff1602179055505060005b8181101561194f576002600084815260200190815260200160002060405160200161171791906123af565b60405160208183030381529060405280519060200120600160008773ffffffffffffffffffffffffffffffffffffffff1673ffffffffffffffffffffffffffffffffffffffff168152602001908152602001600020828154811061177e5761177d612a1d565b5b9060005260206000200160405160200161179891906123af565b60405160208183030381529060405280519060200120141561193b57600160008673ffffffffffffffffffffffffffffffffffffffff1673ffffffffffffffffffffffffffffffffffffffff168152602001908152602001600020818154811061180557611804612a1d565b5b90600052602060002001600061181b9190611a37565b61193381600160008873ffffffffffffffffffffffffffffffffffffffff1673ffffffffffffffffffffffffffffffffffffffff168152602001908152602001600020805480602002602001604051908101604052809291908181526020016000905b8282101561192a57838290600052602060002001805461189d90612913565b80601f01602080910402602001604051908101604052809291908181526020018280546118c990612913565b80156119165780601f106118eb57610100808354040283529160200191611916565b820191906000526020600020905b8154815290600101906020018083116118f957829003601f168201915b50505050508152602001906001019061187e565b50505050610b8d565b81905061194a565b808061194690612976565b9150505b6116ec565b828473ffffffffffffffffffffffffffffffffffffffff168673ffffffffffffffffffffffffffffffffffffffff167fddf252ad1be2c89b69c2b068fc378daa952ba7f163c4a11628f55a4df523b3ef60405160405180910390a45050505050565b8280546119bd90612913565b90600052602060002090601f0160209004810192826119df5760008555611a26565b82601f106119f857805160ff1916838001178555611a26565b82800160010185558215611a26579182015b82811115611a25578251825591602001919060010190611a0a565b5b509050611a339190611a77565b5090565b508054611a4390612913565b6000825580601f10611a555750611a74565b601f016020900490600052602060002090810190611a739190611a77565b5b50565b5b80821115611a90576000816000905550600101611a78565b5090565b6000611aa7611aa2846125ee565b6125c9565b90508083825260208201905082856020860282011115611aca57611ac9612a80565b5b60005b85811015611b1857813567ffffffffffffffff811115611af057611aef612a7b565b5b808601611afd8982611c6b565b85526020850194506020840193505050600181019050611acd565b5050509392505050565b6000611b35611b308461261a565b6125c9565b905082815260208101848484011115611b5157611b50612a85565b5b611b5c8482856128a7565b509392505050565b6000611b77611b728461264b565b6125c9565b905082815260208101848484011115611b9357611b92612a85565b5b611b9e8482856128a7565b509392505050565b600081359050611bb581612cab565b92915050565b600081519050611bca81612cab565b92915050565b600082601f830112611be557611be4612a7b565b5b8135611bf5848260208601611a94565b91505092915050565b600081359050611c0d81612cc2565b92915050565b600081359050611c2281612cd9565b92915050565b600081519050611c3781612cd9565b92915050565b600082601f830112611c5257611c51612a7b565b5b8135611c62848260208601611b22565b91505092915050565b600082601f830112611c8057611c7f612a7b565b5b8135611c90848260208601611b64565b91505092915050565b600081359050611ca881612cf0565b92915050565b600060208284031215611cc457611cc3612a8f565b5b6000611cd284828501611ba6565b91505092915050565b600060208284031215611cf157611cf0612a8f565b5b6000611cff84828501611bbb565b91505092915050565b60008060408385031215611d1f57611d1e612a8f565b5b6000611d2d85828601611ba6565b9250506020611d3e85828601611ba6565b9150509250929050565b600080600060608486031215611d6157611d60612a8f565b5b6000611d6f86828701611ba6565b9350506020611d8086828701611ba6565b9250506040611d9186828701611c99565b9150509250925092565b60008060008060808587031215611db557611db4612a8f565b5b6000611dc387828801611ba6565b9450506020611dd487828801611ba6565b9350506040611de587828801611c99565b925050606085013567ffffffffffffffff811115611e0657611e05612a8a565b5b611e1287828801611c3d565b91505092959194509250565b60008060408385031215611e3557611e34612a8f565b5b6000611e4385828601611ba6565b9250506020611e5485828601611bfe565b9150509250929050565b60008060408385031215611e7557611e74612a8f565b5b6000611e8385828601611ba6565b925050602083013567ffffffffffffffff811115611ea457611ea3612a8a565b5b611eb085828601611c6b565b9150509250929050565b60008060408385031215611ed157611ed0612a8f565b5b6000611edf85828601611ba6565b9250506020611ef085828601611c99565b9150509250929050565b600060208284031215611f1057611f0f612a8f565b5b6000611f1e84828501611c13565b91505092915050565b600060208284031215611f3d57611f3c612a8f565b5b6000611f4b84828501611c28565b91505092915050565b600060208284031215611f6a57611f69612a8f565b5b6000611f7884828501611c99565b91505092915050565b60008060408385031215611f9857611f97612a8f565b5b6000611fa685828601611c99565b925050602083013567ffffffffffffffff811115611fc757611fc6612a8a565b5b611fd385828601611bd0565b9150509250929050565b6000611fe98383612133565b905092915050565b6000611ffd838361236d565b60208301905092915050565b6120128161281f565b82525050565b6000612023826126b1565b61202d81856126f7565b93508360208202850161203f8561267c565b8060005b8581101561207b578484038952815161205c8582611fdd565b9450612067836126dd565b925060208a01995050600181019050612043565b50829750879550505050505092915050565b6000612098826126bc565b6120a28185612708565b93506120ad8361268c565b8060005b838110156120de5781516120c58882611ff1565b97506120d0836126ea565b9250506001810190506120b1565b5085935050505092915050565b6120f481612831565b82525050565b6000612105826126c7565b61210f8185612719565b935061211f8185602086016128b6565b61212881612a94565b840191505092915050565b600061213e826126d2565b612148818561272a565b93506121588185602086016128b6565b61216181612a94565b840191505092915050565b6000612177826126d2565b612181818561273b565b93506121918185602086016128b6565b61219a81612a94565b840191505092915050565b60006121b0826126d2565b6121ba818561274c565b93506121ca8185602086016128b6565b80840191505092915050565b600081546121e381612913565b6121ed818661274c565b9450600182166000811461220857600181146122195761224c565b60ff1983168652818601935061224c565b6122228561269c565b60005b8381101561224457815481890152600182019150602081019050612225565b838801955050505b50505092915050565b600061226260248361273b565b915061226d82612aa5565b604082019050919050565b600061228560198361273b565b915061229082612af4565b602082019050919050565b60006122a860388361273b565b91506122b382612b1d565b604082019050919050565b60006122cb60298361273b565b91506122d682612b6c565b604082019050919050565b60006122ee60218361273b565b91506122f982612bbb565b604082019050919050565b600061231160318361273b565b915061231c82612c0a565b604082019050919050565b600061233460138361273b565b915061233f82612c59565b602082019050919050565b600061235760188361273b565b915061236282612c82565b602082019050919050565b61237681612889565b82525050565b61238581612889565b82525050565b600061239782856121a5565b91506123a382846121d6565b91508190509392505050565b60006123bb82846121d6565b915081905092915050565b60006020820190506123db6000830184612009565b92915050565b60006080820190506123f66000830187612009565b6124036020830186612009565b612410604083018561237c565b818103606083015261242281846120fa565b905095945050505050565b600060208201905081810360008301526124478184612018565b905092915050565b60006020820190508181036000830152612469818461208d565b905092915050565b600060208201905061248660008301846120eb565b92915050565b600060208201905081810360008301526124a6818461216c565b905092915050565b600060208201905081810360008301526124c781612255565b9050919050565b600060208201905081810360008301526124e781612278565b9050919050565b600060208201905081810360008301526125078161229b565b9050919050565b60006020820190508181036000830152612527816122be565b9050919050565b60006020820190508181036000830152612547816122e1565b9050919050565b6000602082019050818103600083015261256781612304565b9050919050565b6000602082019050818103600083015261258781612327565b9050919050565b600060208201905081810360008301526125a78161234a565b9050919050565b60006020820190506125c3600083018461237c565b92915050565b60006125d36125e4565b90506125df8282612945565b919050565b6000604051905090565b600067ffffffffffffffff82111561260957612608612a4c565b5b602082029050602081019050919050565b600067ffffffffffffffff82111561263557612634612a4c565b5b61263e82612a94565b9050602081019050919050565b600067ffffffffffffffff82111561266657612665612a4c565b5b61266f82612a94565b9050602081019050919050565b6000819050602082019050919050565b6000819050602082019050919050565b60008190508160005260206000209050919050565b600081519050919050565b600081519050919050565b600081519050919050565b600081519050919050565b6000602082019050919050565b6000602082019050919050565b600082825260208201905092915050565b600082825260208201905092915050565b600082825260208201905092915050565b600082825260208201905092915050565b600082825260208201905092915050565b600081905092915050565b600061276282612889565b915061276d83612889565b9250827fffffffffffffffffffffffffffffffffffffffffffffffffffffffffffffffff038211156127a2576127a16129bf565b5b828201905092915050565b60006127b882612893565b91506127c383612893565b92508267ffffffffffffffff038211156127e0576127df6129bf565b5b828201905092915050565b60006127f682612889565b915061280183612889565b925082821015612814576128136129bf565b5b828203905092915050565b600061282a82612869565b9050919050565b60008115159050919050565b60007fffffffff0000000000000000000000000000000000000000000000000000000082169050919050565b600073ffffffffffffffffffffffffffffffffffffffff82169050919050565b6000819050919050565b600067ffffffffffffffff82169050919050565b82818337600083830152505050565b60005b838110156128d45780820151818401526020810190506128b9565b838111156128e3576000848401525b50505050565b60006128f482612893565b91506000821415612908576129076129bf565b5b600182039050919050565b6000600282049050600182168061292b57607f821691505b6020821081141561293f5761293e6129ee565b5b50919050565b61294e82612a94565b810181811067ffffffffffffffff8211171561296d5761296c612a4c565b5b80604052505050565b600061298182612889565b91507fffffffffffffffffffffffffffffffffffffffffffffffffffffffffffffffff8214156129b4576129b36129bf565b5b600182019050919050565b7f4e487b7100000000000000000000000000000000000000000000000000000000600052601160045260246000fd5b7f4e487b7100000000000000000000000000000000000000000000000000000000600052602260045260246000fd5b7f4e487b7100000000000000000000000000000000000000000000000000000000600052603260045260246000fd5b7f4e487b7100000000000000000000000000000000000000000000000000000000600052604160045260246000fd5b600080fd5b600080fd5b600080fd5b600080fd5b600080fd5b6000601f19601f8301169050919050565b7f4552433732313a207472616e7366657220746f20746865207a65726f2061646460008201527f7265737300000000000000000000000000000000000000000000000000000000602082015250565b7f4552433732313a20617070726f766520746f2063616c6c657200000000000000600082015250565b7f4552433732313a20617070726f76652063616c6c6572206973206e6f74206f7760008201527f6e6572206e6f7220617070726f76656420666f7220616c6c0000000000000000602082015250565b7f4552433732313a207472616e73666572206f6620746f6b656e2074686174206960008201527f73206e6f74206f776e0000000000000000000000000000000000000000000000602082015250565b7f4552433732313a20617070726f76616c20746f2063757272656e74206f776e6560008201527f7200000000000000000000000000000000000000000000000000000000000000602082015250565b7f4552433732313a207472616e736665722063616c6c6572206973206e6f74206f60008201527f776e6572206e6f7220617070726f766564000000000000000000000000000000602082015250565b7f496e646578206f7574206f6620626f756e647300000000000000000000000000600082015250565b7f4552433732313a20616472657373203020696e76616c69640000000000000000600082015250565b612cb48161281f565b8114612cbf57600080fd5b50565b612ccb81612831565b8114612cd657600080fd5b50565b612ce28161283d565b8114612ced57600080fd5b50565b612cf981612889565b8114612d0457600080fd5b5056fea2646970667358221220940da2ce19ebfa0d3fe685ae33e43a9a04bda08aa5a5a3f3d052a182671fe80264736f6c63430008070033",
					"opcodes": "PUSH1 0x80 PUSH1 0x40 MSTORE CALLVALUE DUP1 ISZERO PUSH2 0x10 JUMPI PUSH1 0x0 DUP1 REVERT JUMPDEST POP PUSH2 0x2D3D DUP1 PUSH2 0x20 PUSH1 0x0 CODECOPY PUSH1 0x0 RETURN INVALID PUSH1 0x80 PUSH1 0x40 MSTORE PUSH1 0x4 CALLDATASIZE LT PUSH2 0xFE JUMPI PUSH1 0x0 CALLDATALOAD PUSH1 0xE0 SHR DUP1 PUSH4 0x6352211E GT PUSH2 0x95 JUMPI DUP1 PUSH4 0x7FCB2989 GT PUSH2 0x64 JUMPI DUP1 PUSH4 0x7FCB2989 EQ PUSH2 0x342 JUMPI DUP1 PUSH4 0x8462151C EQ PUSH2 0x37F JUMPI DUP1 PUSH4 0xA22CB465 EQ PUSH2 0x3BC JUMPI DUP1 PUSH4 0xB88D4FDE EQ PUSH2 0x3E5 JUMPI DUP1 PUSH4 0xE985E9C5 EQ PUSH2 0x401 JUMPI PUSH2 0xFE JUMP JUMPDEST DUP1 PUSH4 0x6352211E EQ PUSH2 0x274 JUMPI DUP1 PUSH4 0x6BA367A3 EQ PUSH2 0x2B1 JUMPI DUP1 PUSH4 0x70A08231 EQ PUSH2 0x2DC JUMPI DUP1 PUSH4 0x7360CBBA EQ PUSH2 0x319 JUMPI PUSH2 0xFE JUMP JUMPDEST DUP1 PUSH4 0x3D02D0C9 GT PUSH2 0xD1 JUMPI DUP1 PUSH4 0x3D02D0C9 EQ PUSH2 0x1B5 JUMPI DUP1 PUSH4 0x42842E0E EQ PUSH2 0x1F2 JUMPI DUP1 PUSH4 0x42966C68 EQ PUSH2 0x20E JUMPI DUP1 PUSH4 0x4802693D EQ PUSH2 0x237 JUMPI PUSH2 0xFE JUMP JUMPDEST DUP1 PUSH4 0x1FFC9A7 EQ PUSH2 0x103 JUMPI DUP1 PUSH4 0x81812FC EQ PUSH2 0x140 JUMPI DUP1 PUSH4 0x95EA7B3 EQ PUSH2 0x17D JUMPI DUP1 PUSH4 0x23B872DD EQ PUSH2 0x199 JUMPI JUMPDEST PUSH1 0x0 DUP1 REVERT JUMPDEST CALLVALUE DUP1 ISZERO PUSH2 0x10F JUMPI PUSH1 0x0 DUP1 REVERT JUMPDEST POP PUSH2 0x12A PUSH1 0x4 DUP1 CALLDATASIZE SUB DUP2 ADD SWAP1 PUSH2 0x125 SWAP2 SWAP1 PUSH2 0x1EFA JUMP JUMPDEST PUSH2 0x43E JUMP JUMPDEST PUSH1 0x40 MLOAD PUSH2 0x137 SWAP2 SWAP1 PUSH2 0x2471 JUMP JUMPDEST PUSH1 0x40 MLOAD DUP1 SWAP2 SUB SWAP1 RETURN JUMPDEST CALLVALUE DUP1 ISZERO PUSH2 0x14C JUMPI PUSH1 0x0 DUP1 REVERT JUMPDEST POP PUSH2 0x167 PUSH1 0x4 DUP1 CALLDATASIZE SUB DUP2 ADD SWAP1 PUSH2 0x162 SWAP2 SWAP1 PUSH2 0x1F54 JUMP JUMPDEST PUSH2 0x4A8 JUMP JUMPDEST PUSH1 0x40 MLOAD PUSH2 0x174 SWAP2 SWAP1 PUSH2 0x23C6 JUMP JUMPDEST PUSH1 0x40 MLOAD DUP1 SWAP2 SUB SWAP1 RETURN JUMPDEST PUSH2 0x197 PUSH1 0x4 DUP1 CALLDATASIZE SUB DUP2 ADD SWAP1 PUSH2 0x192 SWAP2 SWAP1 PUSH2 0x1EBA JUMP JUMPDEST PUSH2 0x4E5 JUMP JUMPDEST STOP JUMPDEST PUSH2 0x1B3 PUSH1 0x4 DUP1 CALLDATASIZE SUB DUP2 ADD SWAP1 PUSH2 0x1AE SWAP2 SWAP1 PUSH2 0x1D48 JUMP JUMPDEST PUSH2 0x5F9 JUMP JUMPDEST STOP JUMPDEST CALLVALUE DUP1 ISZERO PUSH2 0x1C1 JUMPI PUSH1 0x0 DUP1 REVERT JUMPDEST POP PUSH2 0x1DC PUSH1 0x4 DUP1 CALLDATASIZE SUB DUP2 ADD SWAP1 PUSH2 0x1D7 SWAP2 SWAP1 PUSH2 0x1E5E JUMP JUMPDEST PUSH2 0x609 JUMP JUMPDEST PUSH1 0x40 MLOAD PUSH2 0x1E9 SWAP2 SWAP1 PUSH2 0x25AE JUMP JUMPDEST PUSH1 0x40 MLOAD DUP1 SWAP2 SUB SWAP1 RETURN JUMPDEST PUSH2 0x20C PUSH1 0x4 DUP1 CALLDATASIZE SUB DUP2 ADD SWAP1 PUSH2 0x207 SWAP2 SWAP1 PUSH2 0x1D48 JUMP JUMPDEST PUSH2 0x904 JUMP JUMPDEST STOP JUMPDEST CALLVALUE DUP1 ISZERO PUSH2 0x21A JUMPI PUSH1 0x0 DUP1 REVERT JUMPDEST POP PUSH2 0x235 PUSH1 0x4 DUP1 CALLDATASIZE SUB DUP2 ADD SWAP1 PUSH2 0x230 SWAP2 SWAP1 PUSH2 0x1F54 JUMP JUMPDEST PUSH2 0x924 JUMP JUMPDEST STOP JUMPDEST CALLVALUE DUP1 ISZERO PUSH2 0x243 JUMPI PUSH1 0x0 DUP1 REVERT JUMPDEST POP PUSH2 0x25E PUSH1 0x4 DUP1 CALLDATASIZE SUB DUP2 ADD SWAP1 PUSH2 0x259 SWAP2 SWAP1 PUSH2 0x1CAE JUMP JUMPDEST PUSH2 0x94C JUMP JUMPDEST PUSH1 0x40 MLOAD PUSH2 0x26B SWAP2 SWAP1 PUSH2 0x248C JUMP JUMPDEST PUSH1 0x40 MLOAD DUP1 SWAP2 SUB SWAP1 RETURN JUMPDEST CALLVALUE DUP1 ISZERO PUSH2 0x280 JUMPI PUSH1 0x0 DUP1 REVERT JUMPDEST POP PUSH2 0x29B PUSH1 0x4 DUP1 CALLDATASIZE SUB DUP2 ADD SWAP1 PUSH2 0x296 SWAP2 SWAP1 PUSH2 0x1F54 JUMP JUMPDEST PUSH2 0xA35 JUMP JUMPDEST PUSH1 0x40 MLOAD PUSH2 0x2A8 SWAP2 SWAP1 PUSH2 0x23C6 JUMP JUMPDEST PUSH1 0x40 MLOAD DUP1 SWAP2 SUB SWAP1 RETURN JUMPDEST CALLVALUE DUP1 ISZERO PUSH2 0x2BD JUMPI PUSH1 0x0 DUP1 REVERT JUMPDEST POP PUSH2 0x2C6 PUSH2 0xB1A JUMP JUMPDEST PUSH1 0x40 MLOAD PUSH2 0x2D3 SWAP2 SWAP1 PUSH2 0x25AE JUMP JUMPDEST PUSH1 0x40 MLOAD DUP1 SWAP2 SUB SWAP1 RETURN JUMPDEST CALLVALUE DUP1 ISZERO PUSH2 0x2E8 JUMPI PUSH1 0x0 DUP1 REVERT JUMPDEST POP PUSH2 0x303 PUSH1 0x4 DUP1 CALLDATASIZE SUB DUP2 ADD SWAP1 PUSH2 0x2FE SWAP2 SWAP1 PUSH2 0x1CAE JUMP JUMPDEST PUSH2 0xB26 JUMP JUMPDEST PUSH1 0x40 MLOAD PUSH2 0x310 SWAP2 SWAP1 PUSH2 0x25AE JUMP JUMPDEST PUSH1 0x40 MLOAD DUP1 SWAP2 SUB SWAP1 RETURN JUMPDEST CALLVALUE DUP1 ISZERO PUSH2 0x325 JUMPI PUSH1 0x0 DUP1 REVERT JUMPDEST POP PUSH2 0x340 PUSH1 0x4 DUP1 CALLDATASIZE SUB DUP2 ADD SWAP1 PUSH2 0x33B SWAP2 SWAP1 PUSH2 0x1F81 JUMP JUMPDEST PUSH2 0xB8D JUMP JUMPDEST STOP JUMPDEST CALLVALUE DUP1 ISZERO PUSH2 0x34E JUMPI PUSH1 0x0 DUP1 REVERT JUMPDEST POP PUSH2 0x369 PUSH1 0x4 DUP1 CALLDATASIZE SUB DUP2 ADD SWAP1 PUSH2 0x364 SWAP2 SWAP1 PUSH2 0x1CAE JUMP JUMPDEST PUSH2 0xC74 JUMP JUMPDEST PUSH1 0x40 MLOAD PUSH2 0x376 SWAP2 SWAP1 PUSH2 0x242D JUMP JUMPDEST PUSH1 0x40 MLOAD DUP1 SWAP2 SUB SWAP1 RETURN JUMPDEST CALLVALUE DUP1 ISZERO PUSH2 0x38B JUMPI PUSH1 0x0 DUP1 REVERT JUMPDEST POP PUSH2 0x3A6 PUSH1 0x4 DUP1 CALLDATASIZE SUB DUP2 ADD SWAP1 PUSH2 0x3A1 SWAP2 SWAP1 PUSH2 0x1CAE JUMP JUMPDEST PUSH2 0xD8C JUMP JUMPDEST PUSH1 0x40 MLOAD PUSH2 0x3B3 SWAP2 SWAP1 PUSH2 0x244F JUMP JUMPDEST PUSH1 0x40 MLOAD DUP1 SWAP2 SUB SWAP1 RETURN JUMPDEST CALLVALUE DUP1 ISZERO PUSH2 0x3C8 JUMPI PUSH1 0x0 DUP1 REVERT JUMPDEST POP PUSH2 0x3E3 PUSH1 0x4 DUP1 CALLDATASIZE SUB DUP2 ADD SWAP1 PUSH2 0x3DE SWAP2 SWAP1 PUSH2 0x1E1E JUMP JUMPDEST PUSH2 0xF15 JUMP JUMPDEST STOP JUMPDEST PUSH2 0x3FF PUSH1 0x4 DUP1 CALLDATASIZE SUB DUP2 ADD SWAP1 PUSH2 0x3FA SWAP2 SWAP1 PUSH2 0x1D9B JUMP JUMPDEST PUSH2 0x1081 JUMP JUMPDEST STOP JUMPDEST CALLVALUE DUP1 ISZERO PUSH2 0x40D JUMPI PUSH1 0x0 DUP1 REVERT JUMPDEST POP PUSH2 0x428 PUSH1 0x4 DUP1 CALLDATASIZE SUB DUP2 ADD SWAP1 PUSH2 0x423 SWAP2 SWAP1 PUSH2 0x1D08 JUMP JUMPDEST PUSH2 0x10DC JUMP JUMPDEST PUSH1 0x40 MLOAD PUSH2 0x435 SWAP2 SWAP1 PUSH2 0x2471 JUMP JUMPDEST PUSH1 0x40 MLOAD DUP1 SWAP2 SUB SWAP1 RETURN JUMPDEST PUSH1 0x0 PUSH32 0x80AC58CD00000000000000000000000000000000000000000000000000000000 PUSH28 0xFFFFFFFFFFFFFFFFFFFFFFFFFFFFFFFFFFFFFFFFFFFFFFFFFFFFFFFF NOT AND DUP3 PUSH28 0xFFFFFFFFFFFFFFFFFFFFFFFFFFFFFFFFFFFFFFFFFFFFFFFFFFFFFFFF NOT AND EQ SWAP1 POP SWAP2 SWAP1 POP JUMP JUMPDEST PUSH1 0x0 PUSH1 0x5 PUSH1 0x0 DUP4 DUP2 MSTORE PUSH1 0x20 ADD SWAP1 DUP2 MSTORE PUSH1 0x20 ADD PUSH1 0x0 KECCAK256 PUSH1 0x0 SWAP1 SLOAD SWAP1 PUSH2 0x100 EXP SWAP1 DIV PUSH20 0xFFFFFFFFFFFFFFFFFFFFFFFFFFFFFFFFFFFFFFFF AND SWAP1 POP SWAP2 SWAP1 POP JUMP JUMPDEST PUSH2 0x4EE DUP2 PUSH2 0xA35 JUMP JUMPDEST PUSH20 0xFFFFFFFFFFFFFFFFFFFFFFFFFFFFFFFFFFFFFFFF AND DUP3 PUSH20 0xFFFFFFFFFFFFFFFFFFFFFFFFFFFFFFFFFFFFFFFF AND EQ ISZERO PUSH2 0x55C JUMPI PUSH1 0x40 MLOAD PUSH32 0x8C379A000000000000000000000000000000000000000000000000000000000 DUP2 MSTORE PUSH1 0x4 ADD PUSH2 0x553 SWAP1 PUSH2 0x252E JUMP JUMPDEST PUSH1 0x40 MLOAD DUP1 SWAP2 SUB SWAP1 REVERT JUMPDEST PUSH2 0x565 DUP2 PUSH2 0xA35 JUMP JUMPDEST PUSH20 0xFFFFFFFFFFFFFFFFFFFFFFFFFFFFFFFFFFFFFFFF AND CALLER PUSH20 0xFFFFFFFFFFFFFFFFFFFFFFFFFFFFFFFFFFFFFFFF AND EQ DUP1 PUSH2 0x5AC JUMPI POP PUSH2 0x5AB PUSH2 0x5A5 DUP3 PUSH2 0xA35 JUMP JUMPDEST CALLER PUSH2 0x10DC JUMP JUMPDEST JUMPDEST PUSH2 0x5EB JUMPI PUSH1 0x40 MLOAD PUSH32 0x8C379A000000000000000000000000000000000000000000000000000000000 DUP2 MSTORE PUSH1 0x4 ADD PUSH2 0x5E2 SWAP1 PUSH2 0x24EE JUMP JUMPDEST PUSH1 0x40 MLOAD DUP1 SWAP2 SUB SWAP1 REVERT JUMPDEST PUSH2 0x5F5 DUP3 DUP3 PUSH2 0x1170 JUMP JUMPDEST POP POP JUMP JUMPDEST PUSH2 0x604 DUP4 DUP4 DUP4 PUSH2 0x904 JUMP JUMPDEST POP POP POP JUMP JUMPDEST PUSH1 0x0 DUP1 PUSH1 0x40 MLOAD DUP1 PUSH1 0x40 ADD PUSH1 0x40 MSTORE DUP1 CALLER PUSH20 0xFFFFFFFFFFFFFFFFFFFFFFFFFFFFFFFFFFFFFFFF AND DUP2 MSTORE PUSH1 0x20 ADD TIMESTAMP PUSH8 0xFFFFFFFFFFFFFFFF AND DUP2 MSTORE POP SWAP1 POP PUSH1 0x0 PUSH20 0xFFFFFFFFFFFFFFFFFFFFFFFFFFFFFFFFFFFFFFFF AND DUP5 PUSH20 0xFFFFFFFFFFFFFFFFFFFFFFFFFFFFFFFFFFFFFFFF AND EQ ISZERO PUSH2 0x67D JUMPI PUSH1 0x0 DUP1 REVERT JUMPDEST PUSH1 0x0 DUP2 SWAP1 DUP1 PUSH1 0x1 DUP2 SLOAD ADD DUP1 DUP3 SSTORE DUP1 SWAP2 POP POP PUSH1 0x1 SWAP1 SUB SWAP1 PUSH1 0x0 MSTORE PUSH1 0x20 PUSH1 0x0 KECCAK256 ADD PUSH1 0x0 SWAP1 SWAP2 SWAP1 SWAP2 SWAP1 SWAP2 POP PUSH1 0x0 DUP3 ADD MLOAD DUP2 PUSH1 0x0 ADD PUSH1 0x0 PUSH2 0x100 EXP DUP2 SLOAD DUP2 PUSH20 0xFFFFFFFFFFFFFFFFFFFFFFFFFFFFFFFFFFFFFFFF MUL NOT AND SWAP1 DUP4 PUSH20 0xFFFFFFFFFFFFFFFFFFFFFFFFFFFFFFFFFFFFFFFF AND MUL OR SWAP1 SSTORE POP PUSH1 0x20 DUP3 ADD MLOAD DUP2 PUSH1 0x0 ADD PUSH1 0x14 PUSH2 0x100 EXP DUP2 SLOAD DUP2 PUSH8 0xFFFFFFFFFFFFFFFF MUL NOT AND SWAP1 DUP4 PUSH8 0xFFFFFFFFFFFFFFFF AND MUL OR SWAP1 SSTORE POP POP POP PUSH1 0x0 DUP1 SLOAD SWAP1 POP SWAP2 POP DUP3 PUSH1 0x2 PUSH1 0x0 DUP5 DUP2 MSTORE PUSH1 0x20 ADD SWAP1 DUP2 MSTORE PUSH1 0x20 ADD PUSH1 0x0 KECCAK256 SWAP1 DUP1 MLOAD SWAP1 PUSH1 0x20 ADD SWAP1 PUSH2 0x74C SWAP3 SWAP2 SWAP1 PUSH2 0x19B1 JUMP JUMPDEST POP PUSH1 0x1 PUSH1 0x0 DUP6 PUSH20 0xFFFFFFFFFFFFFFFFFFFFFFFFFFFFFFFFFFFFFFFF AND PUSH20 0xFFFFFFFFFFFFFFFFFFFFFFFFFFFFFFFFFFFFFFFF AND DUP2 MSTORE PUSH1 0x20 ADD SWAP1 DUP2 MSTORE PUSH1 0x20 ADD PUSH1 0x0 KECCAK256 DUP4 SWAP1 DUP1 PUSH1 0x1 DUP2 SLOAD ADD DUP1 DUP3 SSTORE DUP1 SWAP2 POP POP PUSH1 0x1 SWAP1 SUB SWAP1 PUSH1 0x0 MSTORE PUSH1 0x20 PUSH1 0x0 KECCAK256 ADD PUSH1 0x0 SWAP1 SWAP2 SWAP1 SWAP2 SWAP1 SWAP2 POP SWAP1 DUP1 MLOAD SWAP1 PUSH1 0x20 ADD SWAP1 PUSH2 0x7C5 SWAP3 SWAP2 SWAP1 PUSH2 0x19B1 JUMP JUMPDEST POP PUSH1 0x1 PUSH1 0x4 PUSH1 0x0 DUP7 PUSH20 0xFFFFFFFFFFFFFFFFFFFFFFFFFFFFFFFFFFFFFFFF AND PUSH20 0xFFFFFFFFFFFFFFFFFFFFFFFFFFFFFFFFFFFFFFFF AND DUP2 MSTORE PUSH1 0x20 ADD SWAP1 DUP2 MSTORE PUSH1 0x20 ADD PUSH1 0x0 KECCAK256 PUSH1 0x0 DUP3 DUP3 DUP3 SWAP1 SLOAD SWAP1 PUSH2 0x100 EXP SWAP1 DIV PUSH8 0xFFFFFFFFFFFFFFFF AND PUSH2 0x829 SWAP2 SWAP1 PUSH2 0x27AD JUMP JUMPDEST SWAP3 POP PUSH2 0x100 EXP DUP2 SLOAD DUP2 PUSH8 0xFFFFFFFFFFFFFFFF MUL NOT AND SWAP1 DUP4 PUSH8 0xFFFFFFFFFFFFFFFF AND MUL OR SWAP1 SSTORE POP DUP4 PUSH1 0x3 PUSH1 0x0 DUP5 DUP2 MSTORE PUSH1 0x20 ADD SWAP1 DUP2 MSTORE PUSH1 0x20 ADD PUSH1 0x0 KECCAK256 PUSH1 0x0 PUSH2 0x100 EXP DUP2 SLOAD DUP2 PUSH20 0xFFFFFFFFFFFFFFFFFFFFFFFFFFFFFFFFFFFFFFFF MUL NOT AND SWAP1 DUP4 PUSH20 0xFFFFFFFFFFFFFFFFFFFFFFFFFFFFFFFFFFFFFFFF AND MUL OR SWAP1 SSTORE POP DUP2 DUP5 PUSH20 0xFFFFFFFFFFFFFFFFFFFFFFFFFFFFFFFFFFFFFFFF AND PUSH1 0x0 PUSH20 0xFFFFFFFFFFFFFFFFFFFFFFFFFFFFFFFFFFFFFFFF AND PUSH32 0xDDF252AD1BE2C89B69C2B068FC378DAA952BA7F163C4A11628F55A4DF523B3EF PUSH1 0x40 MLOAD PUSH1 0x40 MLOAD DUP1 SWAP2 SUB SWAP1 LOG4 POP SWAP3 SWAP2 POP POP JUMP JUMPDEST PUSH2 0x91F DUP4 DUP4 DUP4 PUSH1 0x40 MLOAD DUP1 PUSH1 0x20 ADD PUSH1 0x40 MSTORE DUP1 PUSH1 0x0 DUP2 MSTORE POP PUSH2 0x1081 JUMP JUMPDEST POP POP POP JUMP JUMPDEST PUSH2 0x92E CALLER DUP3 PUSH2 0x12AA JUMP JUMPDEST PUSH2 0x937 JUMPI PUSH1 0x0 DUP1 REVERT JUMPDEST PUSH2 0x949 PUSH2 0x943 DUP3 PUSH2 0xA35 JUMP JUMPDEST DUP3 PUSH2 0x1342 JUMP JUMPDEST POP JUMP JUMPDEST PUSH1 0x60 PUSH1 0x0 PUSH1 0x40 MLOAD DUP1 PUSH1 0x20 ADD PUSH1 0x40 MSTORE DUP1 PUSH1 0x0 DUP2 MSTORE POP SWAP1 POP PUSH1 0x0 PUSH1 0x1 SWAP1 POP JUMPDEST PUSH1 0x0 DUP1 SLOAD SWAP1 POP DUP2 GT PUSH2 0xA2B JUMPI DUP4 PUSH20 0xFFFFFFFFFFFFFFFFFFFFFFFFFFFFFFFFFFFFFFFF AND PUSH1 0x3 PUSH1 0x0 DUP4 DUP2 MSTORE PUSH1 0x20 ADD SWAP1 DUP2 MSTORE PUSH1 0x20 ADD PUSH1 0x0 KECCAK256 PUSH1 0x0 SWAP1 SLOAD SWAP1 PUSH2 0x100 EXP SWAP1 DIV PUSH20 0xFFFFFFFFFFFFFFFFFFFFFFFFFFFFFFFFFFFFFFFF AND PUSH20 0xFFFFFFFFFFFFFFFFFFFFFFFFFFFFFFFFFFFFFFFF AND EQ ISZERO PUSH2 0xA17 JUMPI DUP2 PUSH1 0x2 PUSH1 0x0 DUP4 DUP2 MSTORE PUSH1 0x20 ADD SWAP1 DUP2 MSTORE PUSH1 0x20 ADD PUSH1 0x0 KECCAK256 PUSH1 0x40 MLOAD PUSH1 0x20 ADD PUSH2 0xA01 SWAP3 SWAP2 SWAP1 PUSH2 0x238B JUMP JUMPDEST PUSH1 0x40 MLOAD PUSH1 0x20 DUP2 DUP4 SUB SUB DUP2 MSTORE SWAP1 PUSH1 0x40 MSTORE SWAP2 POP PUSH2 0xA18 JUMP JUMPDEST JUMPDEST DUP1 DUP1 PUSH2 0xA23 SWAP1 PUSH2 0x2976 JUMP JUMPDEST SWAP2 POP POP PUSH2 0x969 JUMP JUMPDEST POP DUP1 SWAP2 POP POP SWAP2 SWAP1 POP JUMP JUMPDEST PUSH1 0x0 DUP1 PUSH1 0x3 PUSH1 0x0 DUP5 DUP2 MSTORE PUSH1 0x20 ADD SWAP1 DUP2 MSTORE PUSH1 0x20 ADD PUSH1 0x0 KECCAK256 PUSH1 0x0 SWAP1 SLOAD SWAP1 PUSH2 0x100 EXP SWAP1 DIV PUSH20 0xFFFFFFFFFFFFFFFFFFFFFFFFFFFFFFFFFFFFFFFF AND SWAP1 POP PUSH1 0x0 PUSH20 0xFFFFFFFFFFFFFFFFFFFFFFFFFFFFFFFFFFFFFFFF AND DUP2 PUSH20 0xFFFFFFFFFFFFFFFFFFFFFFFFFFFFFFFFFFFFFFFF AND EQ ISZERO PUSH2 0xADE JUMPI PUSH1 0x40 MLOAD PUSH32 0x8C379A000000000000000000000000000000000000000000000000000000000 DUP2 MSTORE PUSH1 0x4 ADD PUSH2 0xAD5 SWAP1 PUSH2 0x258E JUMP JUMPDEST PUSH1 0x40 MLOAD DUP1 SWAP2 SUB SWAP1 REVERT JUMPDEST PUSH1 0x3 PUSH1 0x0 DUP5 DUP2 MSTORE PUSH1 0x20 ADD SWAP1 DUP2 MSTORE PUSH1 0x20 ADD PUSH1 0x0 KECCAK256 PUSH1 0x0 SWAP1 SLOAD SWAP1 PUSH2 0x100 EXP SWAP1 DIV PUSH20 0xFFFFFFFFFFFFFFFFFFFFFFFFFFFFFFFFFFFFFFFF AND SWAP2 POP POP SWAP2 SWAP1 POP JUMP JUMPDEST PUSH1 0x0 DUP1 DUP1 SLOAD SWAP1 POP SWAP1 POP SWAP1 JUMP JUMPDEST PUSH1 0x0 PUSH1 0x4 PUSH1 0x0 DUP4 PUSH20 0xFFFFFFFFFFFFFFFFFFFFFFFFFFFFFFFFFFFFFFFF AND PUSH20 0xFFFFFFFFFFFFFFFFFFFFFFFFFFFFFFFFFFFFFFFF AND DUP2 MSTORE PUSH1 0x20 ADD SWAP1 DUP2 MSTORE PUSH1 0x20 ADD PUSH1 0x0 KECCAK256 PUSH1 0x0 SWAP1 SLOAD SWAP1 PUSH2 0x100 EXP SWAP1 DIV PUSH8 0xFFFFFFFFFFFFFFFF AND PUSH8 0xFFFFFFFFFFFFFFFF AND SWAP1 POP SWAP2 SWAP1 POP JUMP JUMPDEST DUP1 MLOAD DUP3 LT PUSH2 0xBD0 JUMPI PUSH1 0x40 MLOAD PUSH32 0x8C379A000000000000000000000000000000000000000000000000000000000 DUP2 MSTORE PUSH1 0x4 ADD PUSH2 0xBC7 SWAP1 PUSH2 0x256E JUMP JUMPDEST PUSH1 0x40 MLOAD DUP1 SWAP2 SUB SWAP1 REVERT JUMPDEST PUSH1 0x0 DUP3 SWAP1 POP JUMPDEST PUSH1 0x1 DUP3 MLOAD PUSH2 0xBE4 SWAP2 SWAP1 PUSH2 0x27EB JUMP JUMPDEST DUP2 LT ISZERO PUSH2 0xC43 JUMPI DUP2 PUSH1 0x1 DUP3 PUSH2 0xBF9 SWAP2 SWAP1 PUSH2 0x2757 JUMP JUMPDEST DUP2 MLOAD DUP2 LT PUSH2 0xC0A JUMPI PUSH2 0xC09 PUSH2 0x2A1D JUMP JUMPDEST JUMPDEST PUSH1 0x20 MUL PUSH1 0x20 ADD ADD MLOAD DUP3 DUP3 DUP2 MLOAD DUP2 LT PUSH2 0xC25 JUMPI PUSH2 0xC24 PUSH2 0x2A1D JUMP JUMPDEST JUMPDEST PUSH1 0x20 MUL PUSH1 0x20 ADD ADD DUP2 SWAP1 MSTORE POP DUP1 DUP1 PUSH2 0xC3B SWAP1 PUSH2 0x2976 JUMP JUMPDEST SWAP2 POP POP PUSH2 0xBD6 JUMP JUMPDEST POP DUP1 PUSH1 0x1 DUP3 MLOAD PUSH2 0xC53 SWAP2 SWAP1 PUSH2 0x27EB JUMP JUMPDEST DUP2 MLOAD DUP2 LT PUSH2 0xC64 JUMPI PUSH2 0xC63 PUSH2 0x2A1D JUMP JUMPDEST JUMPDEST PUSH1 0x20 MUL PUSH1 0x20 ADD ADD PUSH1 0x60 DUP2 MSTORE POP POP POP JUMP JUMPDEST PUSH1 0x60 PUSH1 0x1 PUSH1 0x0 DUP4 PUSH20 0xFFFFFFFFFFFFFFFFFFFFFFFFFFFFFFFFFFFFFFFF AND PUSH20 0xFFFFFFFFFFFFFFFFFFFFFFFFFFFFFFFFFFFFFFFF AND DUP2 MSTORE PUSH1 0x20 ADD SWAP1 DUP2 MSTORE PUSH1 0x20 ADD PUSH1 0x0 KECCAK256 DUP1 SLOAD DUP1 PUSH1 0x20 MUL PUSH1 0x20 ADD PUSH1 0x40 MLOAD SWAP1 DUP2 ADD PUSH1 0x40 MSTORE DUP1 SWAP3 SWAP2 SWAP1 DUP2 DUP2 MSTORE PUSH1 0x20 ADD PUSH1 0x0 SWAP1 JUMPDEST DUP3 DUP3 LT ISZERO PUSH2 0xD81 JUMPI DUP4 DUP3 SWAP1 PUSH1 0x0 MSTORE PUSH1 0x20 PUSH1 0x0 KECCAK256 ADD DUP1 SLOAD PUSH2 0xCF4 SWAP1 PUSH2 0x2913 JUMP JUMPDEST DUP1 PUSH1 0x1F ADD PUSH1 0x20 DUP1 SWAP2 DIV MUL PUSH1 0x20 ADD PUSH1 0x40 MLOAD SWAP1 DUP2 ADD PUSH1 0x40 MSTORE DUP1 SWAP3 SWAP2 SWAP1 DUP2 DUP2 MSTORE PUSH1 0x20 ADD DUP3 DUP1 SLOAD PUSH2 0xD20 SWAP1 PUSH2 0x2913 JUMP JUMPDEST DUP1 ISZERO PUSH2 0xD6D JUMPI DUP1 PUSH1 0x1F LT PUSH2 0xD42 JUMPI PUSH2 0x100 DUP1 DUP4 SLOAD DIV MUL DUP4 MSTORE SWAP2 PUSH1 0x20 ADD SWAP2 PUSH2 0xD6D JUMP JUMPDEST DUP3 ADD SWAP2 SWAP1 PUSH1 0x0 MSTORE PUSH1 0x20 PUSH1 0x0 KECCAK256 SWAP1 JUMPDEST DUP2 SLOAD DUP2 MSTORE SWAP1 PUSH1 0x1 ADD SWAP1 PUSH1 0x20 ADD DUP1 DUP4 GT PUSH2 0xD50 JUMPI DUP3 SWAP1 SUB PUSH1 0x1F AND DUP3 ADD SWAP2 JUMPDEST POP POP POP POP POP DUP2 MSTORE PUSH1 0x20 ADD SWAP1 PUSH1 0x1 ADD SWAP1 PUSH2 0xCD5 JUMP JUMPDEST POP POP POP POP SWAP1 POP SWAP2 SWAP1 POP JUMP JUMPDEST PUSH1 0x60 PUSH1 0x0 PUSH2 0xD99 DUP4 PUSH2 0xB26 JUMP JUMPDEST SWAP1 POP PUSH1 0x0 DUP2 EQ ISZERO PUSH2 0xDF6 JUMPI PUSH1 0x0 PUSH8 0xFFFFFFFFFFFFFFFF DUP2 GT ISZERO PUSH2 0xDBF JUMPI PUSH2 0xDBE PUSH2 0x2A4C JUMP JUMPDEST JUMPDEST PUSH1 0x40 MLOAD SWAP1 DUP1 DUP3 MSTORE DUP1 PUSH1 0x20 MUL PUSH1 0x20 ADD DUP3 ADD PUSH1 0x40 MSTORE DUP1 ISZERO PUSH2 0xDED JUMPI DUP2 PUSH1 0x20 ADD PUSH1 0x20 DUP3 MUL DUP1 CALLDATASIZE DUP4 CALLDATACOPY DUP1 DUP3 ADD SWAP2 POP POP SWAP1 POP JUMPDEST POP SWAP2 POP POP PUSH2 0xF10 JUMP JUMPDEST PUSH1 0x0 DUP2 PUSH8 0xFFFFFFFFFFFFFFFF DUP2 GT ISZERO PUSH2 0xE12 JUMPI PUSH2 0xE11 PUSH2 0x2A4C JUMP JUMPDEST JUMPDEST PUSH1 0x40 MLOAD SWAP1 DUP1 DUP3 MSTORE DUP1 PUSH1 0x20 MUL PUSH1 0x20 ADD DUP3 ADD PUSH1 0x40 MSTORE DUP1 ISZERO PUSH2 0xE40 JUMPI DUP2 PUSH1 0x20 ADD PUSH1 0x20 DUP3 MUL DUP1 CALLDATASIZE DUP4 CALLDATACOPY DUP1 DUP3 ADD SWAP2 POP POP SWAP1 POP JUMPDEST POP SWAP1 POP PUSH1 0x0 PUSH2 0xE4D PUSH2 0xB1A JUMP JUMPDEST SWAP1 POP PUSH1 0x0 DUP1 PUSH1 0x1 SWAP1 POP JUMPDEST DUP3 DUP2 GT PUSH2 0xF07 JUMPI DUP7 PUSH20 0xFFFFFFFFFFFFFFFFFFFFFFFFFFFFFFFFFFFFFFFF AND PUSH1 0x3 PUSH1 0x0 DUP4 DUP2 MSTORE PUSH1 0x20 ADD SWAP1 DUP2 MSTORE PUSH1 0x20 ADD PUSH1 0x0 KECCAK256 PUSH1 0x0 SWAP1 SLOAD SWAP1 PUSH2 0x100 EXP SWAP1 DIV PUSH20 0xFFFFFFFFFFFFFFFFFFFFFFFFFFFFFFFFFFFFFFFF AND PUSH20 0xFFFFFFFFFFFFFFFFFFFFFFFFFFFFFFFFFFFFFFFF AND EQ ISZERO PUSH2 0xEF4 JUMPI DUP1 DUP5 DUP4 DUP2 MLOAD DUP2 LT PUSH2 0xED9 JUMPI PUSH2 0xED8 PUSH2 0x2A1D JUMP JUMPDEST JUMPDEST PUSH1 0x20 MUL PUSH1 0x20 ADD ADD DUP2 DUP2 MSTORE POP POP DUP2 DUP1 PUSH2 0xEF0 SWAP1 PUSH2 0x2976 JUMP JUMPDEST SWAP3 POP POP JUMPDEST DUP1 DUP1 PUSH2 0xEFF SWAP1 PUSH2 0x2976 JUMP JUMPDEST SWAP2 POP POP PUSH2 0xE57 JUMP JUMPDEST DUP4 SWAP6 POP POP POP POP POP POP JUMPDEST SWAP2 SWAP1 POP JUMP JUMPDEST CALLER PUSH20 0xFFFFFFFFFFFFFFFFFFFFFFFFFFFFFFFFFFFFFFFF AND DUP3 PUSH20 0xFFFFFFFFFFFFFFFFFFFFFFFFFFFFFFFFFFFFFFFF AND EQ ISZERO PUSH2 0xF84 JUMPI PUSH1 0x40 MLOAD PUSH32 0x8C379A000000000000000000000000000000000000000000000000000000000 DUP2 MSTORE PUSH1 0x4 ADD PUSH2 0xF7B SWAP1 PUSH2 0x24CE JUMP JUMPDEST PUSH1 0x40 MLOAD DUP1 SWAP2 SUB SWAP1 REVERT JUMPDEST DUP1 PUSH1 0x6 PUSH1 0x0 CALLER PUSH20 0xFFFFFFFFFFFFFFFFFFFFFFFFFFFFFFFFFFFFFFFF AND PUSH20 0xFFFFFFFFFFFFFFFFFFFFFFFFFFFFFFFFFFFFFFFF AND DUP2 MSTORE PUSH1 0x20 ADD SWAP1 DUP2 MSTORE PUSH1 0x20 ADD PUSH1 0x0 KECCAK256 PUSH1 0x0 DUP5 PUSH20 0xFFFFFFFFFFFFFFFFFFFFFFFFFFFFFFFFFFFFFFFF AND PUSH20 0xFFFFFFFFFFFFFFFFFFFFFFFFFFFFFFFFFFFFFFFF AND DUP2 MSTORE PUSH1 0x20 ADD SWAP1 DUP2 MSTORE PUSH1 0x20 ADD PUSH1 0x0 KECCAK256 PUSH1 0x0 PUSH2 0x100 EXP DUP2 SLOAD DUP2 PUSH1 0xFF MUL NOT AND SWAP1 DUP4 ISZERO ISZERO MUL OR SWAP1 SSTORE POP DUP2 PUSH20 0xFFFFFFFFFFFFFFFFFFFFFFFFFFFFFFFFFFFFFFFF AND CALLER PUSH20 0xFFFFFFFFFFFFFFFFFFFFFFFFFFFFFFFFFFFFFFFF AND PUSH32 0x17307EAB39AB6107E8899845AD3D59BD9653F200F220920489CA2B5937696C31 DUP4 PUSH1 0x40 MLOAD PUSH2 0x1075 SWAP2 SWAP1 PUSH2 0x2471 JUMP JUMPDEST PUSH1 0x40 MLOAD DUP1 SWAP2 SUB SWAP1 LOG3 POP POP JUMP JUMPDEST PUSH2 0x108B CALLER DUP4 PUSH2 0x12AA JUMP JUMPDEST PUSH2 0x10CA JUMPI PUSH1 0x40 MLOAD PUSH32 0x8C379A000000000000000000000000000000000000000000000000000000000 DUP2 MSTORE PUSH1 0x4 ADD PUSH2 0x10C1 SWAP1 PUSH2 0x254E JUMP JUMPDEST PUSH1 0x40 MLOAD DUP1 SWAP2 SUB SWAP1 REVERT JUMPDEST PUSH2 0x10D6 DUP5 DUP5 DUP5 DUP5 PUSH2 0x1352 JUMP JUMPDEST POP POP POP POP JUMP JUMPDEST PUSH1 0x0 PUSH1 0x6 PUSH1 0x0 DUP5 PUSH20 0xFFFFFFFFFFFFFFFFFFFFFFFFFFFFFFFFFFFFFFFF AND PUSH20 0xFFFFFFFFFFFFFFFFFFFFFFFFFFFFFFFFFFFFFFFF AND DUP2 MSTORE PUSH1 0x20 ADD SWAP1 DUP2 MSTORE PUSH1 0x20 ADD PUSH1 0x0 KECCAK256 PUSH1 0x0 DUP4 PUSH20 0xFFFFFFFFFFFFFFFFFFFFFFFFFFFFFFFFFFFFFFFF AND PUSH20 0xFFFFFFFFFFFFFFFFFFFFFFFFFFFFFFFFFFFFFFFF AND DUP2 MSTORE PUSH1 0x20 ADD SWAP1 DUP2 MSTORE PUSH1 0x20 ADD PUSH1 0x0 KECCAK256 PUSH1 0x0 SWAP1 SLOAD SWAP1 PUSH2 0x100 EXP SWAP1 DIV PUSH1 0xFF AND SWAP1 POP SWAP3 SWAP2 POP POP JUMP JUMPDEST DUP2 PUSH1 0x5 PUSH1 0x0 DUP4 DUP2 MSTORE PUSH1 0x20 ADD SWAP1 DUP2 MSTORE PUSH1 0x20 ADD PUSH1 0x0 KECCAK256 PUSH1 0x0 PUSH2 0x100 EXP DUP2 SLOAD DUP2 PUSH20 0xFFFFFFFFFFFFFFFFFFFFFFFFFFFFFFFFFFFFFFFF MUL NOT AND SWAP1 DUP4 PUSH20 0xFFFFFFFFFFFFFFFFFFFFFFFFFFFFFFFFFFFFFFFF AND MUL OR SWAP1 SSTORE POP PUSH1 0x0 DUP3 PUSH20 0xFFFFFFFFFFFFFFFFFFFFFFFFFFFFFFFFFFFFFFFF AND ADDRESS PUSH20 0xFFFFFFFFFFFFFFFFFFFFFFFFFFFFFFFFFFFFFFFF AND PUSH4 0x6352211E DUP5 PUSH1 0x40 MLOAD DUP3 PUSH4 0xFFFFFFFF AND PUSH1 0xE0 SHL DUP2 MSTORE PUSH1 0x4 ADD PUSH2 0x1214 SWAP2 SWAP1 PUSH2 0x25AE JUMP JUMPDEST PUSH1 0x20 PUSH1 0x40 MLOAD DUP1 DUP4 SUB DUP2 DUP7 DUP1 EXTCODESIZE ISZERO DUP1 ISZERO PUSH2 0x122C JUMPI PUSH1 0x0 DUP1 REVERT JUMPDEST POP GAS STATICCALL ISZERO DUP1 ISZERO PUSH2 0x1240 JUMPI RETURNDATASIZE PUSH1 0x0 DUP1 RETURNDATACOPY RETURNDATASIZE PUSH1 0x0 REVERT JUMPDEST POP POP POP POP PUSH1 0x40 MLOAD RETURNDATASIZE PUSH1 0x1F NOT PUSH1 0x1F DUP3 ADD AND DUP3 ADD DUP1 PUSH1 0x40 MSTORE POP DUP2 ADD SWAP1 PUSH2 0x1264 SWAP2 SWAP1 PUSH2 0x1CDB JUMP JUMPDEST PUSH20 0xFFFFFFFFFFFFFFFFFFFFFFFFFFFFFFFFFFFFFFFF AND PUSH32 0x8C5BE1E5EBEC7D5BD14F71427D1E84F3DD0314C0F7B2291E5B200AC8C7C3B925 PUSH1 0x40 MLOAD PUSH1 0x40 MLOAD DUP1 SWAP2 SUB SWAP1 LOG4 POP POP JUMP JUMPDEST PUSH1 0x0 DUP3 PUSH20 0xFFFFFFFFFFFFFFFFFFFFFFFFFFFFFFFFFFFFFFFF AND PUSH2 0x12CC DUP4 PUSH2 0xA35 JUMP JUMPDEST PUSH20 0xFFFFFFFFFFFFFFFFFFFFFFFFFFFFFFFFFFFFFFFF AND EQ DUP1 PUSH2 0x1321 JUMPI POP DUP3 PUSH20 0xFFFFFFFFFFFFFFFFFFFFFFFFFFFFFFFFFFFFFFFF AND PUSH2 0x1309 DUP4 PUSH2 0x4A8 JUMP JUMPDEST PUSH20 0xFFFFFFFFFFFFFFFFFFFFFFFFFFFFFFFFFFFFFFFF AND EQ JUMPDEST DUP1 PUSH2 0x133A JUMPI POP PUSH2 0x1339 PUSH2 0x1333 DUP4 PUSH2 0xA35 JUMP JUMPDEST DUP5 PUSH2 0x10DC JUMP JUMPDEST JUMPDEST SWAP1 POP SWAP3 SWAP2 POP POP JUMP JUMPDEST PUSH2 0x134E DUP3 PUSH1 0x0 DUP4 PUSH2 0x14D5 JUMP JUMPDEST POP POP JUMP JUMPDEST PUSH2 0x135D DUP5 DUP5 DUP5 PUSH2 0x14D5 JUMP JUMPDEST PUSH1 0x0 DUP4 EXTCODESIZE SWAP1 POP PUSH1 0x0 DUP2 PUSH4 0xFFFFFFFF AND GT ISZERO PUSH2 0x14CE JUMPI PUSH1 0x0 DUP5 SWAP1 POP PUSH32 0x150B7A023D4804D13E8C85FB27262CB750CF6BA9F9DD3BB30D90F482CEEB4B1F PUSH28 0xFFFFFFFFFFFFFFFFFFFFFFFFFFFFFFFFFFFFFFFFFFFFFFFFFFFFFFFF NOT AND DUP2 PUSH20 0xFFFFFFFFFFFFFFFFFFFFFFFFFFFFFFFFFFFFFFFF AND PUSH4 0x150B7A02 CALLER DUP10 DUP9 DUP9 PUSH1 0x40 MLOAD DUP6 PUSH4 0xFFFFFFFF AND PUSH1 0xE0 SHL DUP2 MSTORE PUSH1 0x4 ADD PUSH2 0x13F6 SWAP5 SWAP4 SWAP3 SWAP2 SWAP1 PUSH2 0x23E1 JUMP JUMPDEST PUSH1 0x20 PUSH1 0x40 MLOAD DUP1 DUP4 SUB DUP2 PUSH1 0x0 DUP8 DUP1 EXTCODESIZE ISZERO DUP1 ISZERO PUSH2 0x1410 JUMPI PUSH1 0x0 DUP1 REVERT JUMPDEST POP GAS CALL ISZERO DUP1 ISZERO PUSH2 0x1424 JUMPI RETURNDATASIZE PUSH1 0x0 DUP1 RETURNDATACOPY RETURNDATASIZE PUSH1 0x0 REVERT JUMPDEST POP POP POP POP PUSH1 0x40 MLOAD RETURNDATASIZE PUSH1 0x1F NOT PUSH1 0x1F DUP3 ADD AND DUP3 ADD DUP1 PUSH1 0x40 MSTORE POP DUP2 ADD SWAP1 PUSH2 0x1448 SWAP2 SWAP1 PUSH2 0x1F27 JUMP JUMPDEST PUSH28 0xFFFFFFFFFFFFFFFFFFFFFFFFFFFFFFFFFFFFFFFFFFFFFFFFFFFFFFFF NOT AND EQ PUSH2 0x1471 JUMPI PUSH1 0x0 DUP1 REVERT JUMPDEST DUP4 DUP6 PUSH20 0xFFFFFFFFFFFFFFFFFFFFFFFFFFFFFFFFFFFFFFFF AND DUP8 PUSH20 0xFFFFFFFFFFFFFFFFFFFFFFFFFFFFFFFFFFFFFFFF AND PUSH32 0xDDF252AD1BE2C89B69C2B068FC378DAA952BA7F163C4A11628F55A4DF523B3EF PUSH1 0x40 MLOAD PUSH1 0x40 MLOAD DUP1 SWAP2 SUB SWAP1 LOG4 POP JUMPDEST POP POP POP POP POP JUMP JUMPDEST DUP3 PUSH20 0xFFFFFFFFFFFFFFFFFFFFFFFFFFFFFFFFFFFFFFFF AND PUSH2 0x14F5 DUP3 PUSH2 0xA35 JUMP JUMPDEST PUSH20 0xFFFFFFFFFFFFFFFFFFFFFFFFFFFFFFFFFFFFFFFF AND EQ PUSH2 0x154B JUMPI PUSH1 0x40 MLOAD PUSH32 0x8C379A000000000000000000000000000000000000000000000000000000000 DUP2 MSTORE PUSH1 0x4 ADD PUSH2 0x1542 SWAP1 PUSH2 0x250E JUMP JUMPDEST PUSH1 0x40 MLOAD DUP1 SWAP2 SUB SWAP1 REVERT JUMPDEST PUSH1 0x0 PUSH20 0xFFFFFFFFFFFFFFFFFFFFFFFFFFFFFFFFFFFFFFFF AND DUP3 PUSH20 0xFFFFFFFFFFFFFFFFFFFFFFFFFFFFFFFFFFFFFFFF AND EQ ISZERO PUSH2 0x15BB JUMPI PUSH1 0x40 MLOAD PUSH32 0x8C379A000000000000000000000000000000000000000000000000000000000 DUP2 MSTORE PUSH1 0x4 ADD PUSH2 0x15B2 SWAP1 PUSH2 0x24AE JUMP JUMPDEST PUSH1 0x40 MLOAD DUP1 SWAP2 SUB SWAP1 REVERT JUMPDEST PUSH2 0x15C6 PUSH1 0x0 DUP3 PUSH2 0x1170 JUMP JUMPDEST DUP2 PUSH1 0x3 PUSH1 0x0 DUP4 DUP2 MSTORE PUSH1 0x20 ADD SWAP1 DUP2 MSTORE PUSH1 0x20 ADD PUSH1 0x0 KECCAK256 PUSH1 0x0 PUSH2 0x100 EXP DUP2 SLOAD DUP2 PUSH20 0xFFFFFFFFFFFFFFFFFFFFFFFFFFFFFFFFFFFFFFFF MUL NOT AND SWAP1 DUP4 PUSH20 0xFFFFFFFFFFFFFFFFFFFFFFFFFFFFFFFFFFFFFFFF AND MUL OR SWAP1 SSTORE POP PUSH1 0x0 PUSH1 0x1 PUSH1 0x0 DUP6 PUSH20 0xFFFFFFFFFFFFFFFFFFFFFFFFFFFFFFFFFFFFFFFF AND PUSH20 0xFFFFFFFFFFFFFFFFFFFFFFFFFFFFFFFFFFFFFFFF AND DUP2 MSTORE PUSH1 0x20 ADD SWAP1 DUP2 MSTORE PUSH1 0x20 ADD PUSH1 0x0 KECCAK256 DUP1 SLOAD SWAP1 POP SWAP1 POP PUSH1 0x4 PUSH1 0x0 DUP6 PUSH20 0xFFFFFFFFFFFFFFFFFFFFFFFFFFFFFFFFFFFFFFFF AND PUSH20 0xFFFFFFFFFFFFFFFFFFFFFFFFFFFFFFFFFFFFFFFF AND DUP2 MSTORE PUSH1 0x20 ADD SWAP1 DUP2 MSTORE PUSH1 0x20 ADD PUSH1 0x0 KECCAK256 PUSH1 0x0 DUP2 DUP2 SWAP1 SLOAD SWAP1 PUSH2 0x100 EXP SWAP1 DIV PUSH8 0xFFFFFFFFFFFFFFFF AND DUP1 SWAP3 SWAP2 SWAP1 PUSH2 0x16C2 SWAP1 PUSH2 0x28E9 JUMP JUMPDEST SWAP2 SWAP1 PUSH2 0x100 EXP DUP2 SLOAD DUP2 PUSH8 0xFFFFFFFFFFFFFFFF MUL NOT AND SWAP1 DUP4 PUSH8 0xFFFFFFFFFFFFFFFF AND MUL OR SWAP1 SSTORE POP POP PUSH1 0x0 JUMPDEST DUP2 DUP2 LT ISZERO PUSH2 0x194F JUMPI PUSH1 0x2 PUSH1 0x0 DUP5 DUP2 MSTORE PUSH1 0x20 ADD SWAP1 DUP2 MSTORE PUSH1 0x20 ADD PUSH1 0x0 KECCAK256 PUSH1 0x40 MLOAD PUSH1 0x20 ADD PUSH2 0x1717 SWAP2 SWAP1 PUSH2 0x23AF JUMP JUMPDEST PUSH1 0x40 MLOAD PUSH1 0x20 DUP2 DUP4 SUB SUB DUP2 MSTORE SWAP1 PUSH1 0x40 MSTORE DUP1 MLOAD SWAP1 PUSH1 0x20 ADD KECCAK256 PUSH1 0x1 PUSH1 0x0 DUP8 PUSH20 0xFFFFFFFFFFFFFFFFFFFFFFFFFFFFFFFFFFFFFFFF AND PUSH20 0xFFFFFFFFFFFFFFFFFFFFFFFFFFFFFFFFFFFFFFFF AND DUP2 MSTORE PUSH1 0x20 ADD SWAP1 DUP2 MSTORE PUSH1 0x20 ADD PUSH1 0x0 KECCAK256 DUP3 DUP2 SLOAD DUP2 LT PUSH2 0x177E JUMPI PUSH2 0x177D PUSH2 0x2A1D JUMP JUMPDEST JUMPDEST SWAP1 PUSH1 0x0 MSTORE PUSH1 0x20 PUSH1 0x0 KECCAK256 ADD PUSH1 0x40 MLOAD PUSH1 0x20 ADD PUSH2 0x1798 SWAP2 SWAP1 PUSH2 0x23AF JUMP JUMPDEST PUSH1 0x40 MLOAD PUSH1 0x20 DUP2 DUP4 SUB SUB DUP2 MSTORE SWAP1 PUSH1 0x40 MSTORE DUP1 MLOAD SWAP1 PUSH1 0x20 ADD KECCAK256 EQ ISZERO PUSH2 0x193B JUMPI PUSH1 0x1 PUSH1 0x0 DUP7 PUSH20 0xFFFFFFFFFFFFFFFFFFFFFFFFFFFFFFFFFFFFFFFF AND PUSH20 0xFFFFFFFFFFFFFFFFFFFFFFFFFFFFFFFFFFFFFFFF AND DUP2 MSTORE PUSH1 0x20 ADD SWAP1 DUP2 MSTORE PUSH1 0x20 ADD PUSH1 0x0 KECCAK256 DUP2 DUP2 SLOAD DUP2 LT PUSH2 0x1805 JUMPI PUSH2 0x1804 PUSH2 0x2A1D JUMP JUMPDEST JUMPDEST SWAP1 PUSH1 0x0 MSTORE PUSH1 0x20 PUSH1 0x0 KECCAK256 ADD PUSH1 0x0 PUSH2 0x181B SWAP2 SWAP1 PUSH2 0x1A37 JUMP JUMPDEST PUSH2 0x1933 DUP2 PUSH1 0x1 PUSH1 0x0 DUP9 PUSH20 0xFFFFFFFFFFFFFFFFFFFFFFFFFFFFFFFFFFFFFFFF AND PUSH20 0xFFFFFFFFFFFFFFFFFFFFFFFFFFFFFFFFFFFFFFFF AND DUP2 MSTORE PUSH1 0x20 ADD SWAP1 DUP2 MSTORE PUSH1 0x20 ADD PUSH1 0x0 KECCAK256 DUP1 SLOAD DUP1 PUSH1 0x20 MUL PUSH1 0x20 ADD PUSH1 0x40 MLOAD SWAP1 DUP2 ADD PUSH1 0x40 MSTORE DUP1 SWAP3 SWAP2 SWAP1 DUP2 DUP2 MSTORE PUSH1 0x20 ADD PUSH1 0x0 SWAP1 JUMPDEST DUP3 DUP3 LT ISZERO PUSH2 0x192A JUMPI DUP4 DUP3 SWAP1 PUSH1 0x0 MSTORE PUSH1 0x20 PUSH1 0x0 KECCAK256 ADD DUP1 SLOAD PUSH2 0x189D SWAP1 PUSH2 0x2913 JUMP JUMPDEST DUP1 PUSH1 0x1F ADD PUSH1 0x20 DUP1 SWAP2 DIV MUL PUSH1 0x20 ADD PUSH1 0x40 MLOAD SWAP1 DUP2 ADD PUSH1 0x40 MSTORE DUP1 SWAP3 SWAP2 SWAP1 DUP2 DUP2 MSTORE PUSH1 0x20 ADD DUP3 DUP1 SLOAD PUSH2 0x18C9 SWAP1 PUSH2 0x2913 JUMP JUMPDEST DUP1 ISZERO PUSH2 0x1916 JUMPI DUP1 PUSH1 0x1F LT PUSH2 0x18EB JUMPI PUSH2 0x100 DUP1 DUP4 SLOAD DIV MUL DUP4 MSTORE SWAP2 PUSH1 0x20 ADD SWAP2 PUSH2 0x1916 JUMP JUMPDEST DUP3 ADD SWAP2 SWAP1 PUSH1 0x0 MSTORE PUSH1 0x20 PUSH1 0x0 KECCAK256 SWAP1 JUMPDEST DUP2 SLOAD DUP2 MSTORE SWAP1 PUSH1 0x1 ADD SWAP1 PUSH1 0x20 ADD DUP1 DUP4 GT PUSH2 0x18F9 JUMPI DUP3 SWAP1 SUB PUSH1 0x1F AND DUP3 ADD SWAP2 JUMPDEST POP POP POP POP POP DUP2 MSTORE PUSH1 0x20 ADD SWAP1 PUSH1 0x1 ADD SWAP1 PUSH2 0x187E JUMP JUMPDEST POP POP POP POP PUSH2 0xB8D JUMP JUMPDEST DUP2 SWAP1 POP PUSH2 0x194A JUMP JUMPDEST DUP1 DUP1 PUSH2 0x1946 SWAP1 PUSH2 0x2976 JUMP JUMPDEST SWAP2 POP POP JUMPDEST PUSH2 0x16EC JUMP JUMPDEST DUP3 DUP5 PUSH20 0xFFFFFFFFFFFFFFFFFFFFFFFFFFFFFFFFFFFFFFFF AND DUP7 PUSH20 0xFFFFFFFFFFFFFFFFFFFFFFFFFFFFFFFFFFFFFFFF AND PUSH32 0xDDF252AD1BE2C89B69C2B068FC378DAA952BA7F163C4A11628F55A4DF523B3EF PUSH1 0x40 MLOAD PUSH1 0x40 MLOAD DUP1 SWAP2 SUB SWAP1 LOG4 POP POP POP POP POP JUMP JUMPDEST DUP3 DUP1 SLOAD PUSH2 0x19BD SWAP1 PUSH2 0x2913 JUMP JUMPDEST SWAP1 PUSH1 0x0 MSTORE PUSH1 0x20 PUSH1 0x0 KECCAK256 SWAP1 PUSH1 0x1F ADD PUSH1 0x20 SWAP1 DIV DUP2 ADD SWAP3 DUP3 PUSH2 0x19DF JUMPI PUSH1 0x0 DUP6 SSTORE PUSH2 0x1A26 JUMP JUMPDEST DUP3 PUSH1 0x1F LT PUSH2 0x19F8 JUMPI DUP1 MLOAD PUSH1 0xFF NOT AND DUP4 DUP1 ADD OR DUP6 SSTORE PUSH2 0x1A26 JUMP JUMPDEST DUP3 DUP1 ADD PUSH1 0x1 ADD DUP6 SSTORE DUP3 ISZERO PUSH2 0x1A26 JUMPI SWAP2 DUP3 ADD JUMPDEST DUP3 DUP2 GT ISZERO PUSH2 0x1A25 JUMPI DUP3 MLOAD DUP3 SSTORE SWAP2 PUSH1 0x20 ADD SWAP2 SWAP1 PUSH1 0x1 ADD SWAP1 PUSH2 0x1A0A JUMP JUMPDEST JUMPDEST POP SWAP1 POP PUSH2 0x1A33 SWAP2 SWAP1 PUSH2 0x1A77 JUMP JUMPDEST POP SWAP1 JUMP JUMPDEST POP DUP1 SLOAD PUSH2 0x1A43 SWAP1 PUSH2 0x2913 JUMP JUMPDEST PUSH1 0x0 DUP3 SSTORE DUP1 PUSH1 0x1F LT PUSH2 0x1A55 JUMPI POP PUSH2 0x1A74 JUMP JUMPDEST PUSH1 0x1F ADD PUSH1 0x20 SWAP1 DIV SWAP1 PUSH1 0x0 MSTORE PUSH1 0x20 PUSH1 0x0 KECCAK256 SWAP1 DUP2 ADD SWAP1 PUSH2 0x1A73 SWAP2 SWAP1 PUSH2 0x1A77 JUMP JUMPDEST JUMPDEST POP JUMP JUMPDEST JUMPDEST DUP1 DUP3 GT ISZERO PUSH2 0x1A90 JUMPI PUSH1 0x0 DUP2 PUSH1 0x0 SWAP1 SSTORE POP PUSH1 0x1 ADD PUSH2 0x1A78 JUMP JUMPDEST POP SWAP1 JUMP JUMPDEST PUSH1 0x0 PUSH2 0x1AA7 PUSH2 0x1AA2 DUP5 PUSH2 0x25EE JUMP JUMPDEST PUSH2 0x25C9 JUMP JUMPDEST SWAP1 POP DUP1 DUP4 DUP3 MSTORE PUSH1 0x20 DUP3 ADD SWAP1 POP DUP3 DUP6 PUSH1 0x20 DUP7 MUL DUP3 ADD GT ISZERO PUSH2 0x1ACA JUMPI PUSH2 0x1AC9 PUSH2 0x2A80 JUMP JUMPDEST JUMPDEST PUSH1 0x0 JUMPDEST DUP6 DUP2 LT ISZERO PUSH2 0x1B18 JUMPI DUP2 CALLDATALOAD PUSH8 0xFFFFFFFFFFFFFFFF DUP2 GT ISZERO PUSH2 0x1AF0 JUMPI PUSH2 0x1AEF PUSH2 0x2A7B JUMP JUMPDEST JUMPDEST DUP1 DUP7 ADD PUSH2 0x1AFD DUP10 DUP3 PUSH2 0x1C6B JUMP JUMPDEST DUP6 MSTORE PUSH1 0x20 DUP6 ADD SWAP5 POP PUSH1 0x20 DUP5 ADD SWAP4 POP POP POP PUSH1 0x1 DUP2 ADD SWAP1 POP PUSH2 0x1ACD JUMP JUMPDEST POP POP POP SWAP4 SWAP3 POP POP POP JUMP JUMPDEST PUSH1 0x0 PUSH2 0x1B35 PUSH2 0x1B30 DUP5 PUSH2 0x261A JUMP JUMPDEST PUSH2 0x25C9 JUMP JUMPDEST SWAP1 POP DUP3 DUP2 MSTORE PUSH1 0x20 DUP2 ADD DUP5 DUP5 DUP5 ADD GT ISZERO PUSH2 0x1B51 JUMPI PUSH2 0x1B50 PUSH2 0x2A85 JUMP JUMPDEST JUMPDEST PUSH2 0x1B5C DUP5 DUP3 DUP6 PUSH2 0x28A7 JUMP JUMPDEST POP SWAP4 SWAP3 POP POP POP JUMP JUMPDEST PUSH1 0x0 PUSH2 0x1B77 PUSH2 0x1B72 DUP5 PUSH2 0x264B JUMP JUMPDEST PUSH2 0x25C9 JUMP JUMPDEST SWAP1 POP DUP3 DUP2 MSTORE PUSH1 0x20 DUP2 ADD DUP5 DUP5 DUP5 ADD GT ISZERO PUSH2 0x1B93 JUMPI PUSH2 0x1B92 PUSH2 0x2A85 JUMP JUMPDEST JUMPDEST PUSH2 0x1B9E DUP5 DUP3 DUP6 PUSH2 0x28A7 JUMP JUMPDEST POP SWAP4 SWAP3 POP POP POP JUMP JUMPDEST PUSH1 0x0 DUP2 CALLDATALOAD SWAP1 POP PUSH2 0x1BB5 DUP2 PUSH2 0x2CAB JUMP JUMPDEST SWAP3 SWAP2 POP POP JUMP JUMPDEST PUSH1 0x0 DUP2 MLOAD SWAP1 POP PUSH2 0x1BCA DUP2 PUSH2 0x2CAB JUMP JUMPDEST SWAP3 SWAP2 POP POP JUMP JUMPDEST PUSH1 0x0 DUP3 PUSH1 0x1F DUP4 ADD SLT PUSH2 0x1BE5 JUMPI PUSH2 0x1BE4 PUSH2 0x2A7B JUMP JUMPDEST JUMPDEST DUP2 CALLDATALOAD PUSH2 0x1BF5 DUP5 DUP3 PUSH1 0x20 DUP7 ADD PUSH2 0x1A94 JUMP JUMPDEST SWAP2 POP POP SWAP3 SWAP2 POP POP JUMP JUMPDEST PUSH1 0x0 DUP2 CALLDATALOAD SWAP1 POP PUSH2 0x1C0D DUP2 PUSH2 0x2CC2 JUMP JUMPDEST SWAP3 SWAP2 POP POP JUMP JUMPDEST PUSH1 0x0 DUP2 CALLDATALOAD SWAP1 POP PUSH2 0x1C22 DUP2 PUSH2 0x2CD9 JUMP JUMPDEST SWAP3 SWAP2 POP POP JUMP JUMPDEST PUSH1 0x0 DUP2 MLOAD SWAP1 POP PUSH2 0x1C37 DUP2 PUSH2 0x2CD9 JUMP JUMPDEST SWAP3 SWAP2 POP POP JUMP JUMPDEST PUSH1 0x0 DUP3 PUSH1 0x1F DUP4 ADD SLT PUSH2 0x1C52 JUMPI PUSH2 0x1C51 PUSH2 0x2A7B JUMP JUMPDEST JUMPDEST DUP2 CALLDATALOAD PUSH2 0x1C62 DUP5 DUP3 PUSH1 0x20 DUP7 ADD PUSH2 0x1B22 JUMP JUMPDEST SWAP2 POP POP SWAP3 SWAP2 POP POP JUMP JUMPDEST PUSH1 0x0 DUP3 PUSH1 0x1F DUP4 ADD SLT PUSH2 0x1C80 JUMPI PUSH2 0x1C7F PUSH2 0x2A7B JUMP JUMPDEST JUMPDEST DUP2 CALLDATALOAD PUSH2 0x1C90 DUP5 DUP3 PUSH1 0x20 DUP7 ADD PUSH2 0x1B64 JUMP JUMPDEST SWAP2 POP POP SWAP3 SWAP2 POP POP JUMP JUMPDEST PUSH1 0x0 DUP2 CALLDATALOAD SWAP1 POP PUSH2 0x1CA8 DUP2 PUSH2 0x2CF0 JUMP JUMPDEST SWAP3 SWAP2 POP POP JUMP JUMPDEST PUSH1 0x0 PUSH1 0x20 DUP3 DUP5 SUB SLT ISZERO PUSH2 0x1CC4 JUMPI PUSH2 0x1CC3 PUSH2 0x2A8F JUMP JUMPDEST JUMPDEST PUSH1 0x0 PUSH2 0x1CD2 DUP5 DUP3 DUP6 ADD PUSH2 0x1BA6 JUMP JUMPDEST SWAP2 POP POP SWAP3 SWAP2 POP POP JUMP JUMPDEST PUSH1 0x0 PUSH1 0x20 DUP3 DUP5 SUB SLT ISZERO PUSH2 0x1CF1 JUMPI PUSH2 0x1CF0 PUSH2 0x2A8F JUMP JUMPDEST JUMPDEST PUSH1 0x0 PUSH2 0x1CFF DUP5 DUP3 DUP6 ADD PUSH2 0x1BBB JUMP JUMPDEST SWAP2 POP POP SWAP3 SWAP2 POP POP JUMP JUMPDEST PUSH1 0x0 DUP1 PUSH1 0x40 DUP4 DUP6 SUB SLT ISZERO PUSH2 0x1D1F JUMPI PUSH2 0x1D1E PUSH2 0x2A8F JUMP JUMPDEST JUMPDEST PUSH1 0x0 PUSH2 0x1D2D DUP6 DUP3 DUP7 ADD PUSH2 0x1BA6 JUMP JUMPDEST SWAP3 POP POP PUSH1 0x20 PUSH2 0x1D3E DUP6 DUP3 DUP7 ADD PUSH2 0x1BA6 JUMP JUMPDEST SWAP2 POP POP SWAP3 POP SWAP3 SWAP1 POP JUMP JUMPDEST PUSH1 0x0 DUP1 PUSH1 0x0 PUSH1 0x60 DUP5 DUP7 SUB SLT ISZERO PUSH2 0x1D61 JUMPI PUSH2 0x1D60 PUSH2 0x2A8F JUMP JUMPDEST JUMPDEST PUSH1 0x0 PUSH2 0x1D6F DUP7 DUP3 DUP8 ADD PUSH2 0x1BA6 JUMP JUMPDEST SWAP4 POP POP PUSH1 0x20 PUSH2 0x1D80 DUP7 DUP3 DUP8 ADD PUSH2 0x1BA6 JUMP JUMPDEST SWAP3 POP POP PUSH1 0x40 PUSH2 0x1D91 DUP7 DUP3 DUP8 ADD PUSH2 0x1C99 JUMP JUMPDEST SWAP2 POP POP SWAP3 POP SWAP3 POP SWAP3 JUMP JUMPDEST PUSH1 0x0 DUP1 PUSH1 0x0 DUP1 PUSH1 0x80 DUP6 DUP8 SUB SLT ISZERO PUSH2 0x1DB5 JUMPI PUSH2 0x1DB4 PUSH2 0x2A8F JUMP JUMPDEST JUMPDEST PUSH1 0x0 PUSH2 0x1DC3 DUP8 DUP3 DUP9 ADD PUSH2 0x1BA6 JUMP JUMPDEST SWAP5 POP POP PUSH1 0x20 PUSH2 0x1DD4 DUP8 DUP3 DUP9 ADD PUSH2 0x1BA6 JUMP JUMPDEST SWAP4 POP POP PUSH1 0x40 PUSH2 0x1DE5 DUP8 DUP3 DUP9 ADD PUSH2 0x1C99 JUMP JUMPDEST SWAP3 POP POP PUSH1 0x60 DUP6 ADD CALLDATALOAD PUSH8 0xFFFFFFFFFFFFFFFF DUP2 GT ISZERO PUSH2 0x1E06 JUMPI PUSH2 0x1E05 PUSH2 0x2A8A JUMP JUMPDEST JUMPDEST PUSH2 0x1E12 DUP8 DUP3 DUP9 ADD PUSH2 0x1C3D JUMP JUMPDEST SWAP2 POP POP SWAP3 SWAP6 SWAP2 SWAP5 POP SWAP3 POP JUMP JUMPDEST PUSH1 0x0 DUP1 PUSH1 0x40 DUP4 DUP6 SUB SLT ISZERO PUSH2 0x1E35 JUMPI PUSH2 0x1E34 PUSH2 0x2A8F JUMP JUMPDEST JUMPDEST PUSH1 0x0 PUSH2 0x1E43 DUP6 DUP3 DUP7 ADD PUSH2 0x1BA6 JUMP JUMPDEST SWAP3 POP POP PUSH1 0x20 PUSH2 0x1E54 DUP6 DUP3 DUP7 ADD PUSH2 0x1BFE JUMP JUMPDEST SWAP2 POP POP SWAP3 POP SWAP3 SWAP1 POP JUMP JUMPDEST PUSH1 0x0 DUP1 PUSH1 0x40 DUP4 DUP6 SUB SLT ISZERO PUSH2 0x1E75 JUMPI PUSH2 0x1E74 PUSH2 0x2A8F JUMP JUMPDEST JUMPDEST PUSH1 0x0 PUSH2 0x1E83 DUP6 DUP3 DUP7 ADD PUSH2 0x1BA6 JUMP JUMPDEST SWAP3 POP POP PUSH1 0x20 DUP4 ADD CALLDATALOAD PUSH8 0xFFFFFFFFFFFFFFFF DUP2 GT ISZERO PUSH2 0x1EA4 JUMPI PUSH2 0x1EA3 PUSH2 0x2A8A JUMP JUMPDEST JUMPDEST PUSH2 0x1EB0 DUP6 DUP3 DUP7 ADD PUSH2 0x1C6B JUMP JUMPDEST SWAP2 POP POP SWAP3 POP SWAP3 SWAP1 POP JUMP JUMPDEST PUSH1 0x0 DUP1 PUSH1 0x40 DUP4 DUP6 SUB SLT ISZERO PUSH2 0x1ED1 JUMPI PUSH2 0x1ED0 PUSH2 0x2A8F JUMP JUMPDEST JUMPDEST PUSH1 0x0 PUSH2 0x1EDF DUP6 DUP3 DUP7 ADD PUSH2 0x1BA6 JUMP JUMPDEST SWAP3 POP POP PUSH1 0x20 PUSH2 0x1EF0 DUP6 DUP3 DUP7 ADD PUSH2 0x1C99 JUMP JUMPDEST SWAP2 POP POP SWAP3 POP SWAP3 SWAP1 POP JUMP JUMPDEST PUSH1 0x0 PUSH1 0x20 DUP3 DUP5 SUB SLT ISZERO PUSH2 0x1F10 JUMPI PUSH2 0x1F0F PUSH2 0x2A8F JUMP JUMPDEST JUMPDEST PUSH1 0x0 PUSH2 0x1F1E DUP5 DUP3 DUP6 ADD PUSH2 0x1C13 JUMP JUMPDEST SWAP2 POP POP SWAP3 SWAP2 POP POP JUMP JUMPDEST PUSH1 0x0 PUSH1 0x20 DUP3 DUP5 SUB SLT ISZERO PUSH2 0x1F3D JUMPI PUSH2 0x1F3C PUSH2 0x2A8F JUMP JUMPDEST JUMPDEST PUSH1 0x0 PUSH2 0x1F4B DUP5 DUP3 DUP6 ADD PUSH2 0x1C28 JUMP JUMPDEST SWAP2 POP POP SWAP3 SWAP2 POP POP JUMP JUMPDEST PUSH1 0x0 PUSH1 0x20 DUP3 DUP5 SUB SLT ISZERO PUSH2 0x1F6A JUMPI PUSH2 0x1F69 PUSH2 0x2A8F JUMP JUMPDEST JUMPDEST PUSH1 0x0 PUSH2 0x1F78 DUP5 DUP3 DUP6 ADD PUSH2 0x1C99 JUMP JUMPDEST SWAP2 POP POP SWAP3 SWAP2 POP POP JUMP JUMPDEST PUSH1 0x0 DUP1 PUSH1 0x40 DUP4 DUP6 SUB SLT ISZERO PUSH2 0x1F98 JUMPI PUSH2 0x1F97 PUSH2 0x2A8F JUMP JUMPDEST JUMPDEST PUSH1 0x0 PUSH2 0x1FA6 DUP6 DUP3 DUP7 ADD PUSH2 0x1C99 JUMP JUMPDEST SWAP3 POP POP PUSH1 0x20 DUP4 ADD CALLDATALOAD PUSH8 0xFFFFFFFFFFFFFFFF DUP2 GT ISZERO PUSH2 0x1FC7 JUMPI PUSH2 0x1FC6 PUSH2 0x2A8A JUMP JUMPDEST JUMPDEST PUSH2 0x1FD3 DUP6 DUP3 DUP7 ADD PUSH2 0x1BD0 JUMP JUMPDEST SWAP2 POP POP SWAP3 POP SWAP3 SWAP1 POP JUMP JUMPDEST PUSH1 0x0 PUSH2 0x1FE9 DUP4 DUP4 PUSH2 0x2133 JUMP JUMPDEST SWAP1 POP SWAP3 SWAP2 POP POP JUMP JUMPDEST PUSH1 0x0 PUSH2 0x1FFD DUP4 DUP4 PUSH2 0x236D JUMP JUMPDEST PUSH1 0x20 DUP4 ADD SWAP1 POP SWAP3 SWAP2 POP POP JUMP JUMPDEST PUSH2 0x2012 DUP2 PUSH2 0x281F JUMP JUMPDEST DUP3 MSTORE POP POP JUMP JUMPDEST PUSH1 0x0 PUSH2 0x2023 DUP3 PUSH2 0x26B1 JUMP JUMPDEST PUSH2 0x202D DUP2 DUP6 PUSH2 0x26F7 JUMP JUMPDEST SWAP4 POP DUP4 PUSH1 0x20 DUP3 MUL DUP6 ADD PUSH2 0x203F DUP6 PUSH2 0x267C JUMP JUMPDEST DUP1 PUSH1 0x0 JUMPDEST DUP6 DUP2 LT ISZERO PUSH2 0x207B JUMPI DUP5 DUP5 SUB DUP10 MSTORE DUP2 MLOAD PUSH2 0x205C DUP6 DUP3 PUSH2 0x1FDD JUMP JUMPDEST SWAP5 POP PUSH2 0x2067 DUP4 PUSH2 0x26DD JUMP JUMPDEST SWAP3 POP PUSH1 0x20 DUP11 ADD SWAP10 POP POP PUSH1 0x1 DUP2 ADD SWAP1 POP PUSH2 0x2043 JUMP JUMPDEST POP DUP3 SWAP8 POP DUP8 SWAP6 POP POP POP POP POP POP SWAP3 SWAP2 POP POP JUMP JUMPDEST PUSH1 0x0 PUSH2 0x2098 DUP3 PUSH2 0x26BC JUMP JUMPDEST PUSH2 0x20A2 DUP2 DUP6 PUSH2 0x2708 JUMP JUMPDEST SWAP4 POP PUSH2 0x20AD DUP4 PUSH2 0x268C JUMP JUMPDEST DUP1 PUSH1 0x0 JUMPDEST DUP4 DUP2 LT ISZERO PUSH2 0x20DE JUMPI DUP2 MLOAD PUSH2 0x20C5 DUP9 DUP3 PUSH2 0x1FF1 JUMP JUMPDEST SWAP8 POP PUSH2 0x20D0 DUP4 PUSH2 0x26EA JUMP JUMPDEST SWAP3 POP POP PUSH1 0x1 DUP2 ADD SWAP1 POP PUSH2 0x20B1 JUMP JUMPDEST POP DUP6 SWAP4 POP POP POP POP SWAP3 SWAP2 POP POP JUMP JUMPDEST PUSH2 0x20F4 DUP2 PUSH2 0x2831 JUMP JUMPDEST DUP3 MSTORE POP POP JUMP JUMPDEST PUSH1 0x0 PUSH2 0x2105 DUP3 PUSH2 0x26C7 JUMP JUMPDEST PUSH2 0x210F DUP2 DUP6 PUSH2 0x2719 JUMP JUMPDEST SWAP4 POP PUSH2 0x211F DUP2 DUP6 PUSH1 0x20 DUP7 ADD PUSH2 0x28B6 JUMP JUMPDEST PUSH2 0x2128 DUP2 PUSH2 0x2A94 JUMP JUMPDEST DUP5 ADD SWAP2 POP POP SWAP3 SWAP2 POP POP JUMP JUMPDEST PUSH1 0x0 PUSH2 0x213E DUP3 PUSH2 0x26D2 JUMP JUMPDEST PUSH2 0x2148 DUP2 DUP6 PUSH2 0x272A JUMP JUMPDEST SWAP4 POP PUSH2 0x2158 DUP2 DUP6 PUSH1 0x20 DUP7 ADD PUSH2 0x28B6 JUMP JUMPDEST PUSH2 0x2161 DUP2 PUSH2 0x2A94 JUMP JUMPDEST DUP5 ADD SWAP2 POP POP SWAP3 SWAP2 POP POP JUMP JUMPDEST PUSH1 0x0 PUSH2 0x2177 DUP3 PUSH2 0x26D2 JUMP JUMPDEST PUSH2 0x2181 DUP2 DUP6 PUSH2 0x273B JUMP JUMPDEST SWAP4 POP PUSH2 0x2191 DUP2 DUP6 PUSH1 0x20 DUP7 ADD PUSH2 0x28B6 JUMP JUMPDEST PUSH2 0x219A DUP2 PUSH2 0x2A94 JUMP JUMPDEST DUP5 ADD SWAP2 POP POP SWAP3 SWAP2 POP POP JUMP JUMPDEST PUSH1 0x0 PUSH2 0x21B0 DUP3 PUSH2 0x26D2 JUMP JUMPDEST PUSH2 0x21BA DUP2 DUP6 PUSH2 0x274C JUMP JUMPDEST SWAP4 POP PUSH2 0x21CA DUP2 DUP6 PUSH1 0x20 DUP7 ADD PUSH2 0x28B6 JUMP JUMPDEST DUP1 DUP5 ADD SWAP2 POP POP SWAP3 SWAP2 POP POP JUMP JUMPDEST PUSH1 0x0 DUP2 SLOAD PUSH2 0x21E3 DUP2 PUSH2 0x2913 JUMP JUMPDEST PUSH2 0x21ED DUP2 DUP7 PUSH2 0x274C JUMP JUMPDEST SWAP5 POP PUSH1 0x1 DUP3 AND PUSH1 0x0 DUP2 EQ PUSH2 0x2208 JUMPI PUSH1 0x1 DUP2 EQ PUSH2 0x2219 JUMPI PUSH2 0x224C JUMP JUMPDEST PUSH1 0xFF NOT DUP4 AND DUP7 MSTORE DUP2 DUP7 ADD SWAP4 POP PUSH2 0x224C JUMP JUMPDEST PUSH2 0x2222 DUP6 PUSH2 0x269C JUMP JUMPDEST PUSH1 0x0 JUMPDEST DUP4 DUP2 LT ISZERO PUSH2 0x2244 JUMPI DUP2 SLOAD DUP2 DUP10 ADD MSTORE PUSH1 0x1 DUP3 ADD SWAP2 POP PUSH1 0x20 DUP2 ADD SWAP1 POP PUSH2 0x2225 JUMP JUMPDEST DUP4 DUP9 ADD SWAP6 POP POP POP JUMPDEST POP POP POP SWAP3 SWAP2 POP POP JUMP JUMPDEST PUSH1 0x0 PUSH2 0x2262 PUSH1 0x24 DUP4 PUSH2 0x273B JUMP JUMPDEST SWAP2 POP PUSH2 0x226D DUP3 PUSH2 0x2AA5 JUMP JUMPDEST PUSH1 0x40 DUP3 ADD SWAP1 POP SWAP2 SWAP1 POP JUMP JUMPDEST PUSH1 0x0 PUSH2 0x2285 PUSH1 0x19 DUP4 PUSH2 0x273B JUMP JUMPDEST SWAP2 POP PUSH2 0x2290 DUP3 PUSH2 0x2AF4 JUMP JUMPDEST PUSH1 0x20 DUP3 ADD SWAP1 POP SWAP2 SWAP1 POP JUMP JUMPDEST PUSH1 0x0 PUSH2 0x22A8 PUSH1 0x38 DUP4 PUSH2 0x273B JUMP JUMPDEST SWAP2 POP PUSH2 0x22B3 DUP3 PUSH2 0x2B1D JUMP JUMPDEST PUSH1 0x40 DUP3 ADD SWAP1 POP SWAP2 SWAP1 POP JUMP JUMPDEST PUSH1 0x0 PUSH2 0x22CB PUSH1 0x29 DUP4 PUSH2 0x273B JUMP JUMPDEST SWAP2 POP PUSH2 0x22D6 DUP3 PUSH2 0x2B6C JUMP JUMPDEST PUSH1 0x40 DUP3 ADD SWAP1 POP SWAP2 SWAP1 POP JUMP JUMPDEST PUSH1 0x0 PUSH2 0x22EE PUSH1 0x21 DUP4 PUSH2 0x273B JUMP JUMPDEST SWAP2 POP PUSH2 0x22F9 DUP3 PUSH2 0x2BBB JUMP JUMPDEST PUSH1 0x40 DUP3 ADD SWAP1 POP SWAP2 SWAP1 POP JUMP JUMPDEST PUSH1 0x0 PUSH2 0x2311 PUSH1 0x31 DUP4 PUSH2 0x273B JUMP JUMPDEST SWAP2 POP PUSH2 0x231C DUP3 PUSH2 0x2C0A JUMP JUMPDEST PUSH1 0x40 DUP3 ADD SWAP1 POP SWAP2 SWAP1 POP JUMP JUMPDEST PUSH1 0x0 PUSH2 0x2334 PUSH1 0x13 DUP4 PUSH2 0x273B JUMP JUMPDEST SWAP2 POP PUSH2 0x233F DUP3 PUSH2 0x2C59 JUMP JUMPDEST PUSH1 0x20 DUP3 ADD SWAP1 POP SWAP2 SWAP1 POP JUMP JUMPDEST PUSH1 0x0 PUSH2 0x2357 PUSH1 0x18 DUP4 PUSH2 0x273B JUMP JUMPDEST SWAP2 POP PUSH2 0x2362 DUP3 PUSH2 0x2C82 JUMP JUMPDEST PUSH1 0x20 DUP3 ADD SWAP1 POP SWAP2 SWAP1 POP JUMP JUMPDEST PUSH2 0x2376 DUP2 PUSH2 0x2889 JUMP JUMPDEST DUP3 MSTORE POP POP JUMP JUMPDEST PUSH2 0x2385 DUP2 PUSH2 0x2889 JUMP JUMPDEST DUP3 MSTORE POP POP JUMP JUMPDEST PUSH1 0x0 PUSH2 0x2397 DUP3 DUP6 PUSH2 0x21A5 JUMP JUMPDEST SWAP2 POP PUSH2 0x23A3 DUP3 DUP5 PUSH2 0x21D6 JUMP JUMPDEST SWAP2 POP DUP2 SWAP1 POP SWAP4 SWAP3 POP POP POP JUMP JUMPDEST PUSH1 0x0 PUSH2 0x23BB DUP3 DUP5 PUSH2 0x21D6 JUMP JUMPDEST SWAP2 POP DUP2 SWAP1 POP SWAP3 SWAP2 POP POP JUMP JUMPDEST PUSH1 0x0 PUSH1 0x20 DUP3 ADD SWAP1 POP PUSH2 0x23DB PUSH1 0x0 DUP4 ADD DUP5 PUSH2 0x2009 JUMP JUMPDEST SWAP3 SWAP2 POP POP JUMP JUMPDEST PUSH1 0x0 PUSH1 0x80 DUP3 ADD SWAP1 POP PUSH2 0x23F6 PUSH1 0x0 DUP4 ADD DUP8 PUSH2 0x2009 JUMP JUMPDEST PUSH2 0x2403 PUSH1 0x20 DUP4 ADD DUP7 PUSH2 0x2009 JUMP JUMPDEST PUSH2 0x2410 PUSH1 0x40 DUP4 ADD DUP6 PUSH2 0x237C JUMP JUMPDEST DUP2 DUP2 SUB PUSH1 0x60 DUP4 ADD MSTORE PUSH2 0x2422 DUP2 DUP5 PUSH2 0x20FA JUMP JUMPDEST SWAP1 POP SWAP6 SWAP5 POP POP POP POP POP JUMP JUMPDEST PUSH1 0x0 PUSH1 0x20 DUP3 ADD SWAP1 POP DUP2 DUP2 SUB PUSH1 0x0 DUP4 ADD MSTORE PUSH2 0x2447 DUP2 DUP5 PUSH2 0x2018 JUMP JUMPDEST SWAP1 POP SWAP3 SWAP2 POP POP JUMP JUMPDEST PUSH1 0x0 PUSH1 0x20 DUP3 ADD SWAP1 POP DUP2 DUP2 SUB PUSH1 0x0 DUP4 ADD MSTORE PUSH2 0x2469 DUP2 DUP5 PUSH2 0x208D JUMP JUMPDEST SWAP1 POP SWAP3 SWAP2 POP POP JUMP JUMPDEST PUSH1 0x0 PUSH1 0x20 DUP3 ADD SWAP1 POP PUSH2 0x2486 PUSH1 0x0 DUP4 ADD DUP5 PUSH2 0x20EB JUMP JUMPDEST SWAP3 SWAP2 POP POP JUMP JUMPDEST PUSH1 0x0 PUSH1 0x20 DUP3 ADD SWAP1 POP DUP2 DUP2 SUB PUSH1 0x0 DUP4 ADD MSTORE PUSH2 0x24A6 DUP2 DUP5 PUSH2 0x216C JUMP JUMPDEST SWAP1 POP SWAP3 SWAP2 POP POP JUMP JUMPDEST PUSH1 0x0 PUSH1 0x20 DUP3 ADD SWAP1 POP DUP2 DUP2 SUB PUSH1 0x0 DUP4 ADD MSTORE PUSH2 0x24C7 DUP2 PUSH2 0x2255 JUMP JUMPDEST SWAP1 POP SWAP2 SWAP1 POP JUMP JUMPDEST PUSH1 0x0 PUSH1 0x20 DUP3 ADD SWAP1 POP DUP2 DUP2 SUB PUSH1 0x0 DUP4 ADD MSTORE PUSH2 0x24E7 DUP2 PUSH2 0x2278 JUMP JUMPDEST SWAP1 POP SWAP2 SWAP1 POP JUMP JUMPDEST PUSH1 0x0 PUSH1 0x20 DUP3 ADD SWAP1 POP DUP2 DUP2 SUB PUSH1 0x0 DUP4 ADD MSTORE PUSH2 0x2507 DUP2 PUSH2 0x229B JUMP JUMPDEST SWAP1 POP SWAP2 SWAP1 POP JUMP JUMPDEST PUSH1 0x0 PUSH1 0x20 DUP3 ADD SWAP1 POP DUP2 DUP2 SUB PUSH1 0x0 DUP4 ADD MSTORE PUSH2 0x2527 DUP2 PUSH2 0x22BE JUMP JUMPDEST SWAP1 POP SWAP2 SWAP1 POP JUMP JUMPDEST PUSH1 0x0 PUSH1 0x20 DUP3 ADD SWAP1 POP DUP2 DUP2 SUB PUSH1 0x0 DUP4 ADD MSTORE PUSH2 0x2547 DUP2 PUSH2 0x22E1 JUMP JUMPDEST SWAP1 POP SWAP2 SWAP1 POP JUMP JUMPDEST PUSH1 0x0 PUSH1 0x20 DUP3 ADD SWAP1 POP DUP2 DUP2 SUB PUSH1 0x0 DUP4 ADD MSTORE PUSH2 0x2567 DUP2 PUSH2 0x2304 JUMP JUMPDEST SWAP1 POP SWAP2 SWAP1 POP JUMP JUMPDEST PUSH1 0x0 PUSH1 0x20 DUP3 ADD SWAP1 POP DUP2 DUP2 SUB PUSH1 0x0 DUP4 ADD MSTORE PUSH2 0x2587 DUP2 PUSH2 0x2327 JUMP JUMPDEST SWAP1 POP SWAP2 SWAP1 POP JUMP JUMPDEST PUSH1 0x0 PUSH1 0x20 DUP3 ADD SWAP1 POP DUP2 DUP2 SUB PUSH1 0x0 DUP4 ADD MSTORE PUSH2 0x25A7 DUP2 PUSH2 0x234A JUMP JUMPDEST SWAP1 POP SWAP2 SWAP1 POP JUMP JUMPDEST PUSH1 0x0 PUSH1 0x20 DUP3 ADD SWAP1 POP PUSH2 0x25C3 PUSH1 0x0 DUP4 ADD DUP5 PUSH2 0x237C JUMP JUMPDEST SWAP3 SWAP2 POP POP JUMP JUMPDEST PUSH1 0x0 PUSH2 0x25D3 PUSH2 0x25E4 JUMP JUMPDEST SWAP1 POP PUSH2 0x25DF DUP3 DUP3 PUSH2 0x2945 JUMP JUMPDEST SWAP2 SWAP1 POP JUMP JUMPDEST PUSH1 0x0 PUSH1 0x40 MLOAD SWAP1 POP SWAP1 JUMP JUMPDEST PUSH1 0x0 PUSH8 0xFFFFFFFFFFFFFFFF DUP3 GT ISZERO PUSH2 0x2609 JUMPI PUSH2 0x2608 PUSH2 0x2A4C JUMP JUMPDEST JUMPDEST PUSH1 0x20 DUP3 MUL SWAP1 POP PUSH1 0x20 DUP2 ADD SWAP1 POP SWAP2 SWAP1 POP JUMP JUMPDEST PUSH1 0x0 PUSH8 0xFFFFFFFFFFFFFFFF DUP3 GT ISZERO PUSH2 0x2635 JUMPI PUSH2 0x2634 PUSH2 0x2A4C JUMP JUMPDEST JUMPDEST PUSH2 0x263E DUP3 PUSH2 0x2A94 JUMP JUMPDEST SWAP1 POP PUSH1 0x20 DUP2 ADD SWAP1 POP SWAP2 SWAP1 POP JUMP JUMPDEST PUSH1 0x0 PUSH8 0xFFFFFFFFFFFFFFFF DUP3 GT ISZERO PUSH2 0x2666 JUMPI PUSH2 0x2665 PUSH2 0x2A4C JUMP JUMPDEST JUMPDEST PUSH2 0x266F DUP3 PUSH2 0x2A94 JUMP JUMPDEST SWAP1 POP PUSH1 0x20 DUP2 ADD SWAP1 POP SWAP2 SWAP1 POP JUMP JUMPDEST PUSH1 0x0 DUP2 SWAP1 POP PUSH1 0x20 DUP3 ADD SWAP1 POP SWAP2 SWAP1 POP JUMP JUMPDEST PUSH1 0x0 DUP2 SWAP1 POP PUSH1 0x20 DUP3 ADD SWAP1 POP SWAP2 SWAP1 POP JUMP JUMPDEST PUSH1 0x0 DUP2 SWAP1 POP DUP2 PUSH1 0x0 MSTORE PUSH1 0x20 PUSH1 0x0 KECCAK256 SWAP1 POP SWAP2 SWAP1 POP JUMP JUMPDEST PUSH1 0x0 DUP2 MLOAD SWAP1 POP SWAP2 SWAP1 POP JUMP JUMPDEST PUSH1 0x0 DUP2 MLOAD SWAP1 POP SWAP2 SWAP1 POP JUMP JUMPDEST PUSH1 0x0 DUP2 MLOAD SWAP1 POP SWAP2 SWAP1 POP JUMP JUMPDEST PUSH1 0x0 DUP2 MLOAD SWAP1 POP SWAP2 SWAP1 POP JUMP JUMPDEST PUSH1 0x0 PUSH1 0x20 DUP3 ADD SWAP1 POP SWAP2 SWAP1 POP JUMP JUMPDEST PUSH1 0x0 PUSH1 0x20 DUP3 ADD SWAP1 POP SWAP2 SWAP1 POP JUMP JUMPDEST PUSH1 0x0 DUP3 DUP3 MSTORE PUSH1 0x20 DUP3 ADD SWAP1 POP SWAP3 SWAP2 POP POP JUMP JUMPDEST PUSH1 0x0 DUP3 DUP3 MSTORE PUSH1 0x20 DUP3 ADD SWAP1 POP SWAP3 SWAP2 POP POP JUMP JUMPDEST PUSH1 0x0 DUP3 DUP3 MSTORE PUSH1 0x20 DUP3 ADD SWAP1 POP SWAP3 SWAP2 POP POP JUMP JUMPDEST PUSH1 0x0 DUP3 DUP3 MSTORE PUSH1 0x20 DUP3 ADD SWAP1 POP SWAP3 SWAP2 POP POP JUMP JUMPDEST PUSH1 0x0 DUP3 DUP3 MSTORE PUSH1 0x20 DUP3 ADD SWAP1 POP SWAP3 SWAP2 POP POP JUMP JUMPDEST PUSH1 0x0 DUP2 SWAP1 POP SWAP3 SWAP2 POP POP JUMP JUMPDEST PUSH1 0x0 PUSH2 0x2762 DUP3 PUSH2 0x2889 JUMP JUMPDEST SWAP2 POP PUSH2 0x276D DUP4 PUSH2 0x2889 JUMP JUMPDEST SWAP3 POP DUP3 PUSH32 0xFFFFFFFFFFFFFFFFFFFFFFFFFFFFFFFFFFFFFFFFFFFFFFFFFFFFFFFFFFFFFFFF SUB DUP3 GT ISZERO PUSH2 0x27A2 JUMPI PUSH2 0x27A1 PUSH2 0x29BF JUMP JUMPDEST JUMPDEST DUP3 DUP3 ADD SWAP1 POP SWAP3 SWAP2 POP POP JUMP JUMPDEST PUSH1 0x0 PUSH2 0x27B8 DUP3 PUSH2 0x2893 JUMP JUMPDEST SWAP2 POP PUSH2 0x27C3 DUP4 PUSH2 0x2893 JUMP JUMPDEST SWAP3 POP DUP3 PUSH8 0xFFFFFFFFFFFFFFFF SUB DUP3 GT ISZERO PUSH2 0x27E0 JUMPI PUSH2 0x27DF PUSH2 0x29BF JUMP JUMPDEST JUMPDEST DUP3 DUP3 ADD SWAP1 POP SWAP3 SWAP2 POP POP JUMP JUMPDEST PUSH1 0x0 PUSH2 0x27F6 DUP3 PUSH2 0x2889 JUMP JUMPDEST SWAP2 POP PUSH2 0x2801 DUP4 PUSH2 0x2889 JUMP JUMPDEST SWAP3 POP DUP3 DUP3 LT ISZERO PUSH2 0x2814 JUMPI PUSH2 0x2813 PUSH2 0x29BF JUMP JUMPDEST JUMPDEST DUP3 DUP3 SUB SWAP1 POP SWAP3 SWAP2 POP POP JUMP JUMPDEST PUSH1 0x0 PUSH2 0x282A DUP3 PUSH2 0x2869 JUMP JUMPDEST SWAP1 POP SWAP2 SWAP1 POP JUMP JUMPDEST PUSH1 0x0 DUP2 ISZERO ISZERO SWAP1 POP SWAP2 SWAP1 POP JUMP JUMPDEST PUSH1 0x0 PUSH32 0xFFFFFFFF00000000000000000000000000000000000000000000000000000000 DUP3 AND SWAP1 POP SWAP2 SWAP1 POP JUMP JUMPDEST PUSH1 0x0 PUSH20 0xFFFFFFFFFFFFFFFFFFFFFFFFFFFFFFFFFFFFFFFF DUP3 AND SWAP1 POP SWAP2 SWAP1 POP JUMP JUMPDEST PUSH1 0x0 DUP2 SWAP1 POP SWAP2 SWAP1 POP JUMP JUMPDEST PUSH1 0x0 PUSH8 0xFFFFFFFFFFFFFFFF DUP3 AND SWAP1 POP SWAP2 SWAP1 POP JUMP JUMPDEST DUP3 DUP2 DUP4 CALLDATACOPY PUSH1 0x0 DUP4 DUP4 ADD MSTORE POP POP POP JUMP JUMPDEST PUSH1 0x0 JUMPDEST DUP4 DUP2 LT ISZERO PUSH2 0x28D4 JUMPI DUP1 DUP3 ADD MLOAD DUP2 DUP5 ADD MSTORE PUSH1 0x20 DUP2 ADD SWAP1 POP PUSH2 0x28B9 JUMP JUMPDEST DUP4 DUP2 GT ISZERO PUSH2 0x28E3 JUMPI PUSH1 0x0 DUP5 DUP5 ADD MSTORE JUMPDEST POP POP POP POP JUMP JUMPDEST PUSH1 0x0 PUSH2 0x28F4 DUP3 PUSH2 0x2893 JUMP JUMPDEST SWAP2 POP PUSH1 0x0 DUP3 EQ ISZERO PUSH2 0x2908 JUMPI PUSH2 0x2907 PUSH2 0x29BF JUMP JUMPDEST JUMPDEST PUSH1 0x1 DUP3 SUB SWAP1 POP SWAP2 SWAP1 POP JUMP JUMPDEST PUSH1 0x0 PUSH1 0x2 DUP3 DIV SWAP1 POP PUSH1 0x1 DUP3 AND DUP1 PUSH2 0x292B JUMPI PUSH1 0x7F DUP3 AND SWAP2 POP JUMPDEST PUSH1 0x20 DUP3 LT DUP2 EQ ISZERO PUSH2 0x293F JUMPI PUSH2 0x293E PUSH2 0x29EE JUMP JUMPDEST JUMPDEST POP SWAP2 SWAP1 POP JUMP JUMPDEST PUSH2 0x294E DUP3 PUSH2 0x2A94 JUMP JUMPDEST DUP2 ADD DUP2 DUP2 LT PUSH8 0xFFFFFFFFFFFFFFFF DUP3 GT OR ISZERO PUSH2 0x296D JUMPI PUSH2 0x296C PUSH2 0x2A4C JUMP JUMPDEST JUMPDEST DUP1 PUSH1 0x40 MSTORE POP POP POP JUMP JUMPDEST PUSH1 0x0 PUSH2 0x2981 DUP3 PUSH2 0x2889 JUMP JUMPDEST SWAP2 POP PUSH32 0xFFFFFFFFFFFFFFFFFFFFFFFFFFFFFFFFFFFFFFFFFFFFFFFFFFFFFFFFFFFFFFFF DUP3 EQ ISZERO PUSH2 0x29B4 JUMPI PUSH2 0x29B3 PUSH2 0x29BF JUMP JUMPDEST JUMPDEST PUSH1 0x1 DUP3 ADD SWAP1 POP SWAP2 SWAP1 POP JUMP JUMPDEST PUSH32 0x4E487B7100000000000000000000000000000000000000000000000000000000 PUSH1 0x0 MSTORE PUSH1 0x11 PUSH1 0x4 MSTORE PUSH1 0x24 PUSH1 0x0 REVERT JUMPDEST PUSH32 0x4E487B7100000000000000000000000000000000000000000000000000000000 PUSH1 0x0 MSTORE PUSH1 0x22 PUSH1 0x4 MSTORE PUSH1 0x24 PUSH1 0x0 REVERT JUMPDEST PUSH32 0x4E487B7100000000000000000000000000000000000000000000000000000000 PUSH1 0x0 MSTORE PUSH1 0x32 PUSH1 0x4 MSTORE PUSH1 0x24 PUSH1 0x0 REVERT JUMPDEST PUSH32 0x4E487B7100000000000000000000000000000000000000000000000000000000 PUSH1 0x0 MSTORE PUSH1 0x41 PUSH1 0x4 MSTORE PUSH1 0x24 PUSH1 0x0 REVERT JUMPDEST PUSH1 0x0 DUP1 REVERT JUMPDEST PUSH1 0x0 DUP1 REVERT JUMPDEST PUSH1 0x0 DUP1 REVERT JUMPDEST PUSH1 0x0 DUP1 REVERT JUMPDEST PUSH1 0x0 DUP1 REVERT JUMPDEST PUSH1 0x0 PUSH1 0x1F NOT PUSH1 0x1F DUP4 ADD AND SWAP1 POP SWAP2 SWAP1 POP JUMP JUMPDEST PUSH32 0x4552433732313A207472616E7366657220746F20746865207A65726F20616464 PUSH1 0x0 DUP3 ADD MSTORE PUSH32 0x7265737300000000000000000000000000000000000000000000000000000000 PUSH1 0x20 DUP3 ADD MSTORE POP JUMP JUMPDEST PUSH32 0x4552433732313A20617070726F766520746F2063616C6C657200000000000000 PUSH1 0x0 DUP3 ADD MSTORE POP JUMP JUMPDEST PUSH32 0x4552433732313A20617070726F76652063616C6C6572206973206E6F74206F77 PUSH1 0x0 DUP3 ADD MSTORE PUSH32 0x6E6572206E6F7220617070726F76656420666F7220616C6C0000000000000000 PUSH1 0x20 DUP3 ADD MSTORE POP JUMP JUMPDEST PUSH32 0x4552433732313A207472616E73666572206F6620746F6B656E20746861742069 PUSH1 0x0 DUP3 ADD MSTORE PUSH32 0x73206E6F74206F776E0000000000000000000000000000000000000000000000 PUSH1 0x20 DUP3 ADD MSTORE POP JUMP JUMPDEST PUSH32 0x4552433732313A20617070726F76616C20746F2063757272656E74206F776E65 PUSH1 0x0 DUP3 ADD MSTORE PUSH32 0x7200000000000000000000000000000000000000000000000000000000000000 PUSH1 0x20 DUP3 ADD MSTORE POP JUMP JUMPDEST PUSH32 0x4552433732313A207472616E736665722063616C6C6572206973206E6F74206F PUSH1 0x0 DUP3 ADD MSTORE PUSH32 0x776E6572206E6F7220617070726F766564000000000000000000000000000000 PUSH1 0x20 DUP3 ADD MSTORE POP JUMP JUMPDEST PUSH32 0x496E646578206F7574206F6620626F756E647300000000000000000000000000 PUSH1 0x0 DUP3 ADD MSTORE POP JUMP JUMPDEST PUSH32 0x4552433732313A20616472657373203020696E76616C69640000000000000000 PUSH1 0x0 DUP3 ADD MSTORE POP JUMP JUMPDEST PUSH2 0x2CB4 DUP2 PUSH2 0x281F JUMP JUMPDEST DUP2 EQ PUSH2 0x2CBF JUMPI PUSH1 0x0 DUP1 REVERT JUMPDEST POP JUMP JUMPDEST PUSH2 0x2CCB DUP2 PUSH2 0x2831 JUMP JUMPDEST DUP2 EQ PUSH2 0x2CD6 JUMPI PUSH1 0x0 DUP1 REVERT JUMPDEST POP JUMP JUMPDEST PUSH2 0x2CE2 DUP2 PUSH2 0x283D JUMP JUMPDEST DUP2 EQ PUSH2 0x2CED JUMPI PUSH1 0x0 DUP1 REVERT JUMPDEST POP JUMP JUMPDEST PUSH2 0x2CF9 DUP2 PUSH2 0x2889 JUMP JUMPDEST DUP2 EQ PUSH2 0x2D04 JUMPI PUSH1 0x0 DUP1 REVERT JUMPDEST POP JUMP INVALID LOG2 PUSH5 0x6970667358 0x22 SLT KECCAK256 SWAP5 0xD LOG2 0xCE NOT 0xEB STATICCALL 0xD EXTCODEHASH 0xE6 DUP6 0xAE CALLER 0xE4 GASPRICE SWAP11 DIV 0xBD LOG0 DUP11 0xA5 0xA5 LOG3 RETURN 0xD0 MSTORE LOG1 DUP3 PUSH8 0x1FE80264736F6C63 NUMBER STOP ADDMOD SMOD STOP CALLER "
				},
				"gasEstimates": {
					"creation": {
						"codeDepositCost": "2316200",
						"executionCost": "2478",
						"totalCost": "2318678"
					},
					"external": {
						"approve(address,uint256)": "infinite",
						"balanceOf(address)": "2950",
						"burn(uint256)": "infinite",
						"getApproved(uint256)": "2911",
						"getTokenID()": "2490",
						"getURIList(address)": "infinite",
						"getURIs(address)": "infinite",
						"isApprovedForAll(address,address)": "infinite",
						"mintToken(address,string)": "infinite",
						"ownerOf(uint256)": "5153",
						"remove(uint256,string[])": "infinite",
						"safeTransferFrom(address,address,uint256)": "infinite",
						"safeTransferFrom(address,address,uint256,bytes)": "infinite",
						"setApprovalForAll(address,bool)": "infinite",
						"supportsInterface(bytes4)": "662",
						"tokensOfOwner(address)": "infinite",
						"transferFrom(address,address,uint256)": "infinite"
					},
					"internal": {
						"_approve(address,uint256)": "infinite",
						"_burn(address,uint256)": "infinite",
						"_isApprovedOrOwner(address,uint256)": "infinite",
						"_safeTransfer(address,address,uint256,bytes memory)": "infinite",
						"_transfer(address,address,uint256)": "infinite"
					}
				},
				"methodIdentifiers": {
					"approve(address,uint256)": "095ea7b3",
					"balanceOf(address)": "70a08231",
					"burn(uint256)": "42966c68",
					"getApproved(uint256)": "081812fc",
					"getTokenID()": "6ba367a3",
					"getURIList(address)": "7fcb2989",
					"getURIs(address)": "4802693d",
					"isApprovedForAll(address,address)": "e985e9c5",
					"mintToken(address,string)": "3d02d0c9",
					"ownerOf(uint256)": "6352211e",
					"remove(uint256,string[])": "7360cbba",
					"safeTransferFrom(address,address,uint256)": "42842e0e",
					"safeTransferFrom(address,address,uint256,bytes)": "b88d4fde",
					"setApprovalForAll(address,bool)": "a22cb465",
					"supportsInterface(bytes4)": "01ffc9a7",
					"tokensOfOwner(address)": "8462151c",
					"transferFrom(address,address,uint256)": "23b872dd"
				}
			},
			"storageLayout": {
				"storage": [
					{
						"astId": 925,
						"contract": "contracts/ERC721Contract.sol:ERC721Contract",
						"label": "tokenList",
						"offset": 0,
						"slot": "0",
						"type": "t_array(t_struct(Token)921_storage)dyn_storage"
					},
					{
						"astId": 930,
						"contract": "contracts/ERC721Contract.sol:ERC721Contract",
						"label": "tokenCollection",
						"offset": 0,
						"slot": "1",
						"type": "t_mapping(t_address,t_array(t_string_storage)dyn_storage)"
					},
					{
						"astId": 934,
						"contract": "contracts/ERC721Contract.sol:ERC721Contract",
						"label": "tokenURIs",
						"offset": 0,
						"slot": "2",
						"type": "t_mapping(t_uint256,t_string_storage)"
					},
					{
						"astId": 938,
						"contract": "contracts/ERC721Contract.sol:ERC721Contract",
						"label": "tokenOwner",
						"offset": 0,
						"slot": "3",
						"type": "t_mapping(t_uint256,t_address)"
					},
					{
						"astId": 942,
						"contract": "contracts/ERC721Contract.sol:ERC721Contract",
						"label": "tokenBalance",
						"offset": 0,
						"slot": "4",
						"type": "t_mapping(t_address,t_uint64)"
					},
					{
						"astId": 946,
						"contract": "contracts/ERC721Contract.sol:ERC721Contract",
						"label": "tokenApprovals",
						"offset": 0,
						"slot": "5",
						"type": "t_mapping(t_uint256,t_address)"
					},
					{
						"astId": 952,
						"contract": "contracts/ERC721Contract.sol:ERC721Contract",
						"label": "operatorApprovals",
						"offset": 0,
						"slot": "6",
						"type": "t_mapping(t_address,t_mapping(t_address,t_bool))"
					}
				],
				"types": {
					"t_address": {
						"encoding": "inplace",
						"label": "address",
						"numberOfBytes": "20"
					},
					"t_array(t_string_storage)dyn_storage": {
						"base": "t_string_storage",
						"encoding": "dynamic_array",
						"label": "string[]",
						"numberOfBytes": "32"
					},
					"t_array(t_struct(Token)921_storage)dyn_storage": {
						"base": "t_struct(Token)921_storage",
						"encoding": "dynamic_array",
						"label": "struct tokenData.Token[]",
						"numberOfBytes": "32"
					},
					"t_bool": {
						"encoding": "inplace",
						"label": "bool",
						"numberOfBytes": "1"
					},
					"t_mapping(t_address,t_array(t_string_storage)dyn_storage)": {
						"encoding": "mapping",
						"key": "t_address",
						"label": "mapping(address => string[])",
						"numberOfBytes": "32",
						"value": "t_array(t_string_storage)dyn_storage"
					},
					"t_mapping(t_address,t_bool)": {
						"encoding": "mapping",
						"key": "t_address",
						"label": "mapping(address => bool)",
						"numberOfBytes": "32",
						"value": "t_bool"
					},
					"t_mapping(t_address,t_mapping(t_address,t_bool))": {
						"encoding": "mapping",
						"key": "t_address",
						"label": "mapping(address => mapping(address => bool))",
						"numberOfBytes": "32",
						"value": "t_mapping(t_address,t_bool)"
					},
					"t_mapping(t_address,t_uint64)": {
						"encoding": "mapping",
						"key": "t_address",
						"label": "mapping(address => uint64)",
						"numberOfBytes": "32",
						"value": "t_uint64"
					},
					"t_mapping(t_uint256,t_address)": {
						"encoding": "mapping",
						"key": "t_uint256",
						"label": "mapping(uint256 => address)",
						"numberOfBytes": "32",
						"value": "t_address"
					},
					"t_mapping(t_uint256,t_string_storage)": {
						"encoding": "mapping",
						"key": "t_uint256",
						"label": "mapping(uint256 => string)",
						"numberOfBytes": "32",
						"value": "t_string_storage"
					},
					"t_string_storage": {
						"encoding": "bytes",
						"label": "string",
						"numberOfBytes": "32"
					},
					"t_struct(Token)921_storage": {
						"encoding": "inplace",
						"label": "struct tokenData.Token",
						"members": [
							{
								"astId": 918,
								"contract": "contracts/ERC721Contract.sol:ERC721Contract",
								"label": "mintedBy",
								"offset": 0,
								"slot": "0",
								"type": "t_address"
							},
							{
								"astId": 920,
								"contract": "contracts/ERC721Contract.sol:ERC721Contract",
								"label": "mintedAt",
								"offset": 20,
								"slot": "0",
								"type": "t_uint64"
							}
						],
						"numberOfBytes": "32"
					},
					"t_uint256": {
						"encoding": "inplace",
						"label": "uint256",
						"numberOfBytes": "32"
					},
					"t_uint64": {
						"encoding": "inplace",
						"label": "uint64",
						"numberOfBytes": "8"
					}
				}
			},
			"userdoc": {
				"kind": "user",
				"methods": {
					"balanceOf(address)": {
						"notice": "Count all NFTs assigned to an owner"
					},
					"getApproved(uint256)": {
						"notice": "Get the approved address for a single NFT"
					},
					"isApprovedForAll(address,address)": {
						"notice": "Query if an address is an authorized operator for another address"
					},
					"ownerOf(uint256)": {
						"notice": "Find the owner of an NFT"
					},
					"safeTransferFrom(address,address,uint256)": {
						"notice": "Transfers the ownership of an NFT from one address to another address"
					},
					"setApprovalForAll(address,bool)": {
						"notice": "Enable or disable approval for a third party (\"operator\") to manage  all of `msg.sender`'s assets"
					},
					"tokensOfOwner(address)": {
						"notice": "Returns a list of all token IDs assigned to an address."
					},
					"transferFrom(address,address,uint256)": {
						"notice": "Transfer ownership of an NFT -- THE CALLER IS RESPONSIBLE  TO CONFIRM THAT `_to` IS CAPABLE OF RECEIVING NFTS OR ELSE  THEY MAY BE PERMANENTLY LOST"
					}
				},
				"version": 1
			}
		}
	}
}